:020000040800F2
:100000000040022061D2000871CB000877CB0008C5
:1000100000000000000000000000000000000000E0
:1000200000000000000000000000000071A70108AF
:10003000000000000000000091A80108D9A80108F4
:10004000B1D20008B1D20008B1D20008B1D2000884
:10005000B1D200087DCB0008B1D200088DCB0008DA
:10006000B1D20008A1CB0008B1D20008B1D200087B
:10007000B1D20008B9CB0008B1D20008B1D2000853
:10008000D1CB0008E9CB000805CC0008B1D20008AC
:10009000B1D200081DCC000835CC0008B1D2000850
:1000A000B1D20008B1D20008B1D20008B1D2000824
:0C00B000B1D20008B1D20008B1D20008A3
:1000C00010B5064C2378002B07D1054B002B02D02E
:1000D000044800E000BF0123237010BD3001002060
:1000E000000000002CAE0108044B10B5002B03D01B
:1000F0000349044800E000BF10BDC04600000000F6
:10010000340100202CAE0108002243088B4274D336
:1001100003098B425FD3030A8B4244D3030B8B4208
:1001200028D3030C8B420DD3FF22090212BA030C11
:100130008B4202D31212090265D0030B8B4219D3F2
:1001400000E0090AC30B8B4201D3CB03C01A524112
:10015000830B8B4201D38B03C01A5241430B8B425A
:1001600001D34B03C01A5241030B8B4201D30B0343
:10017000C01A5241C30A8B4201D3CB02C01A52416A
:10018000830A8B4201D38B02C01A5241430A8B422D
:1001900001D34B02C01A5241030A8B4201D30B0216
:1001A000C01A5241CDD2C3098B4201D3CB01C01A30
:1001B000524183098B4201D38B01C01A524143093A
:1001C0008B4201D34B01C01A524103098B4201D328
:1001D0000B01C01A5241C3088B4201D3CB00C01A95
:1001E000524183088B4201D38B00C01A524143080D
:1001F0008B4201D34B00C01A5241411A00D2014632
:10020000524110467047FFE701B5002000F0F0F8BA
:1002100002BDC0460029F7D076E7704703460B437E
:100220007FD4002243088B4274D303098B425FD3EF
:10023000030A8B4244D3030B8B4228D3030C8B421B
:100240000DD3FF22090212BA030C8B4202D3121201
:10025000090265D0030B8B4219D300E0090AC30BD6
:100260008B4201D3CB03C01A5241830B8B4201D383
:100270008B03C01A5241430B8B4201D34B03C01A6C
:100280005241030B8B4201D30B03C01A5241C30AE4
:100290008B4201D3CB02C01A5241830A8B4201D355
:1002A0008B02C01A5241430A8B4201D34B02C01A3F
:1002B0005241030A8B4201D30B02C01A5241CDD2E4
:1002C000C3098B4201D3CB01C01A524183098B422F
:1002D00001D38B01C01A524143098B4201D34B0118
:1002E000C01A524103098B4201D30B01C01A52417B
:1002F000C3088B4201D3CB00C01A524183088B4202
:1003000001D38B00C01A524143088B4201D34B00EA
:10031000C01A5241411A00D201465241104670475C
:100320005DE0CA0F00D04942031000D34042534061
:1003300000229C4603098B422DD3030A8B4212D321
:10034000FC22890112BA030A8B420CD38901921153
:100350008B4208D3890192118B4204D389013AD090
:10036000921100E08909C3098B4201D3CB01C01A65
:10037000524183098B4201D38B01C01A5241430978
:100380008B4201D34B01C01A524103098B4201D366
:100390000B01C01A5241C3088B4201D3CB00C01AD3
:1003A000524183088B4201D38B00C01A5241D9D2EB
:1003B00043088B4201D34B00C01A5241411A00D26C
:1003C0000146634652415B10104601D34042002B68
:1003D00000D54942704763465B1000D3404201B5E7
:1003E000002000F005F802BD0029F8D016E770479C
:1003F0007047C0468446100062468C46190063462A
:1004000000E0C0461FB501F07DFE002801D40021A8
:10041000C8421FBD10B501F0CDFD4042013010BDF6
:1004200010B501F06FFE002801DB002010BD012097
:1004300010BDC04610B501F065FE002801DD0020AA
:1004400010BD012010BDC04610B501F0F5FD00281B
:1004500001DC002010BD012010BDC04610B501F028
:10046000EBFD002801DA002010BD012010BDC046C0
:10047000844608006146FFE71FB500F08BFB0028AB
:1004800001D40021C8421FBD10B500F017FB404247
:10049000013010BD10B500F07DFB002801DB00200D
:1004A00010BD012010BDC04610B500F073FB002840
:1004B00001DD002010BD012010BDC04610B500F0C8
:1004C00023FB002801DC002010BD012010BDC04628
:1004D00010B500F019FB002801DA002010BD012042
:1004E00010BDC0469E2110B5C905041CFFF7F0FFE2
:1004F000002803D1201C00F07BFE10BD9E21201C93
:10050000C90500F0B1FC00F073FE80231B069C4679
:100510006044F2E770B500220C4B04000D00FFF7B9
:100520009DFF002804D12000290002F04DFC70BD81
:10053000064B00222000290002F0B4F802F044FC2F
:1005400080231B069C466044F1E7C0460000E04162
:10055000F0B5C64643025B0A4E0245004F00DA0082
:10056000C40F9C46700A904600B52D0E3F0EC90F71
:10057000B6098C424BD0EA1B002A36DD002F61D031
:10058000FF2D00D1ADE08023DB041E431B2A00DCDD
:10059000D3E001204346181A430100D48CE08001C7
:1005A0008709380002F06CFD05388740854200DC81
:1005B000B6E02D1AB3483840430704D00F23034058
:1005C000042B00D00430430100D478E06A1CFE2DD7
:1005D00065D08001430A9C46D2B26346D0051843D9
:1005E000E407204380BCB846F0BD002A35D07A1B12
:1005F000002D00D0AFE04346002B00D1A7E0531EF2
:10060000012A00D12FE1FF2A69D01A00AAE0E91BD4
:10061000002970DD002F37D0FF2D62D08023DB044E
:100620001E431B2900DCB0E001204044430143D5B8
:100630000135FF2D33D00123934A03404008104079
:100640001843B9E7002E00D183E0511E012A00D1E2
:10065000D8E0FF2A45D00A0098E7FE276A1C174217
:1006600000D086E0002D00D0B7E04346002B00D13B
:10067000F3E00022002EB0D0981B430100D4FAE032
:1006800043460C00F01A97E7002E00D1C8E04A1E3E
:10069000012900D1AEE0FF2923D01100C1E70023DA
:1006A000FF229C4699E7FE216A1C114277D0FF2A5F
:1006B000F5D0150046447008430700D07EE7C30814
:1006C000FF2D0ED05B025B0A9C46EAB285E7002E46
:1006D00007D08022D203134203D0104201D10C0074
:1006E0000300002BDBD08020C00318434002430AE4
:1006F0009C46FF2271E70029D5D07A1B002D60D1DE
:100700004346002B24D0531E012A73D0FF2AE7D082
:100710001A001B2A00DC85E001203D00801985E7D6
:1007200020233A00451B38000135EA405D1BA840F4
:10073000431E9841002510433EE7202330009B1ABA
:1007400031009840D140431E9841084322E70C00F5
:1007500003001500B4E7FF2FC1D080234046DB041F
:10076000184380461B2A51DD01200C003D00301A41
:1007700012E743469F1B7B012BD4002F00D010E7CC
:100780000023002400229C4627E72023320030006B
:10079000CA40591A8840431E9841104345E7002D2E
:1007A0004AD14346002B63D00022002E00D114E72B
:1007B00030004044430100D47EE7324B01351840FD
:1007C0007AE7FF2F8CD080234146DB04194388460B
:1007D0009FE743460C00F71AE3E64246002A00D0A2
:1007E00075E7002E00D07AE78023DB0300249C46C7
:1007F000FF22F2E6300040440125430100D45BE7CC
:10080000022518E743460125981BC5E620234446E8
:100810004046D4409A1A9040431E98412043A4E792
:100820000D004DE7202341464046D1409A1A9040A2
:10083000431E9841084370E74246002A00D14FE723
:10084000002E00D14DE78022D203134200D148E7A9
:10085000104200D045E7030043E7002E90D00C0083
:1008600084460022B9E643460C00F01A013593E6AF
:1008700084460022B1E6002800D01DE700230024B2
:100880009C46AAE6FFFFFFFBFFFFFF7DF0B54F464A
:100890004646D6464502C0B547000C1C6D0A3F0EC1
:1008A000C60F002F00D170E0FF2F00D175E0EB00E4
:1008B0008025ED041D43002399469A467F3F600240
:1008C000430A984663001B0EE40F002B4ED0FF2B0B
:1008D00046D04246D0008022D204024390460022F5
:1008E0007F3B3100FF1A4B466140C9B213430F2BC7
:1008F00000D9B5E06E489B00C3589F460023984638
:100900002600454692465346022B00D189E0032B30
:1009100000D19EE0012B18D03B007F33002B69DD16
:100920006A0704D00F222A40042A00D004352A0185
:1009300003D5604B1D403B008033FE2B00DD70E093
:10094000AD016D0AD8B202E00E0000200025C005FE
:100950002843F6073043E0BCBA46B146A846F0BD8E
:100960004346002B3FD10222FF3F03E04346002BCA
:100970002DD1012231004B466140C9B213430F2BE8
:1009800034D84D489B00C3589F46002D13D10423F3
:100990009946033B00279A4691E7002D05D108238D
:1009A0009946063BFF279A4689E70C239946093B5F
:1009B000FF279A4683E7280002F062FB7627431F51
:1009C0009D4000237F4299469A463F1A77E740466A
:1009D00002F056FB4246431F9A4076235B42904604
:1009E0001B1A00227DE7FF2303227AE70E00FF2077
:1009F0000025ACE70120C01A1B28A6DC9E372A0080
:100A0000BD40C2406B1E9D4115436B0704D00F23B0
:100A10002B40042B00D004356B0144D50120002568
:100A200095E7FF20002592E780250026FF20ED03B3
:100A30008DE7002398468020C003054209D0434635
:100A4000034206D1454605436D022600FF206D0A8C
:100A50007DE78020C00305436D02FF206D0A76E725
:100A600042466B015001834219D21B220025013FEF
:100A700001261C006D005B00002C01DB984201D8B0
:100A80001B1A3543013A002AF3D15A1E93411D43E4
:100A90003B007F330E00002B00DD41E7AAE71A225E
:100AA00001251B1AE4E7AD0100206D0A4FE7C0469F
:100AB0002CB20108FFFFFFF76CB2010870B54200CD
:100AC00045024E024C00C30F6D0A0120120E760A39
:100AD000240EC90FFF2A06D0FF2C03D0A24201D159
:100AE000B54206D070BD002DFCD1FF2CFAD1002EEE
:100AF000F8D18B4206D00120002AF3D12800431EF2
:100B00009841EFE70020EDE770B5420045024E0244
:100B10004C00C30F6D0A120E760A240EC80FFF2A6E
:100B20001BD0FF2C0ED0002A1BD1002C01D1002E8F
:100B30001CD0002D0CD083421CD00221581E08402E
:100B4000013870BD002E22D1002AF4D1002DF2D13F
:100B50000028F6D101204042F3E7002D17D1FF2CE9
:100B6000F0D0002CE7D1002EE5D1E6E70020002DE3
:100B7000E7D0E2E7A24205DCEADBB54202D8E7D3E0
:100B80000020DEE74342584140000138D9E7022007
:100B90004042D6E770B5420045024E024C00C30FFA
:100BA0006D0A120E760A240EC80FFF2A0BD0FF2CF6
:100BB0000DD0002A1FD1002C16D1002E14D10020F8
:100BC000002D10D009E0002D0CD1FF2C13D1002EE8
:100BD00008D1002A08D0834212D00221581E0840B2
:100BE000013800E0022070BD002DF4D10028FAD1B8
:100BF00001204042F7E7002CEDD1002EEBD1ECE7CD
:100C0000A24205DCF2DBB54202D8EFD30020EAE7CE
:100C10004342584140000138E5E7C046F0B54F4631
:100C20004646D64644024500C0B5640A0F1C2D0E48
:100C3000C60F002D00D18DE0FF2D00D192E00023E2
:100C4000802099469A46E400C00404437F3D780220
:100C5000430A98467B001B0EFF0F002B00D170E06B
:100C6000FF2B00D186E04246D00080227F3BED186A
:100C70000023D204024390469C4631004B46794003
:100C8000681C0F2B1CD8764A9B00D3589F4639000E
:100C90004446E2465346022B0FD0032B00D1D7E047
:100CA000012B37D100200024C0052043C907084389
:100CB000E0BCBA46B146A846F0BDFF200024F3E7E9
:100CC000260C2404220C44462404240C434627000A
:100CD0001B0C574374435A435E4312193B0C9B1839
:100CE0009C4203D980225202944666443F041A046F
:100CF0003F0CD2199401671EBC411B0C920E9B192C
:100D000014439B011C431B0100D49BE00123620898
:100D10001C40144302007F32002A64DD630704D0C4
:100D20000F232340042B00D00434230103D50200F9
:100D30004C4B80321C40FE2ABFDCA401640AD0B2B6
:100D4000B2E74346002B3DD14A4601331A43914650
:100D50009C4692E7002C29D104239946033B0025A9
:100D60009A4674E7002C1BD108239946063BFF25C1
:100D70009A466CE74346FF35002B0BD102234A46C7
:100D80001A4391469C4678E753463100022B00D027
:100D900083E792E703234A461A4391469C466CE751
:100DA0000C239946093BFF259A4650E7200002F0A4
:100DB00067F97625431F9C4000236D4299469A4669
:100DC0002D1A44E7404602F05BF94246431F9A4021
:100DD00000232D1A90469C46763D4EE78024002144
:100DE000FF20E40360E701239B1A1B2B00DD59E77A
:100DF00022009E30DA4084401300621E94411C435E
:100E0000630704D00F232340042B00D00434630174
:100E10001AD50120002447E78020C003044209D0EE
:100E20004346034206D14446044364023900FF208E
:100E3000640A39E78020C003044364023100FF20C4
:100E4000640A31E7280065E7A4010020640A2BE763
:100E50008020C00304436402FF20640A24E7C046E4
:100E6000ACB20108FFFFFFF7F8B5CE464746430294
:100E70005B0A4E02DA009446720A914645004A0027
:100E800080B52D0E1F00C40F120EC90FB609FF2A20
:100E90005BD0012041408C4239D0A81A00285ADD8D
:100EA000002A6AD0FF2D00D1D9E08022D204164357
:100EB0001B2800DCE9E001206346181A430100D436
:100EC000B4E080018709380002F0DAF8053887407D
:100ED000854200DCCCE02D1AB5483840430704D0E9
:100EE0000F230340042B00D00430430100D4A0E0C2
:100EF0006A1CFE2D00D18DE08001470AD2B2D005D8
:100F00003843E4072043C0BCB946B046F8BDA81A30
:100F10008046002845DD002A70D0FF2D00D19EE0DC
:100F20008023DB041E4343461B2B00DCD2E0012060
:100F3000604443017AD50135FF2D6BD001239D4AD2
:100F40000340400810401843C8E7002E20D08C42D0
:100F500023D02800FF38002839D0571B002D00D09F
:100F60009DE06346002B00D1DBE07B1E012F00D10A
:100F70000DE1FF2F71D01F0098E0002E00D1A7E0F7
:100F8000421E012800D1E6E0FF2868D010008FE75C
:100F900001204140A14200D07FE7FF20404280462F
:100FA000A8444046002838D0511B002D00D1AEE0A7
:100FB000FF2A00D1DFE080236046DB04184384462B
:100FC0001B2900DCD9E0012015008019B1E7FE20C3
:100FD0006A1C104271D1002D00D0A6E06346002BA0
:100FE00000D1D9E00022002E00D188E7981B4301F0
:100FF00000D4E1E063460C00F01A6FE7002E00D148
:10100000B7E00200013A012800D19CE0FF2826D079
:10101000904688E7FF22002771E7FE206A1C1042F5
:1010200064D0FF2AF6D0150066447008430700D04C
:1010300056E7C308FF2D12D05B025F0AEAB25EE7F3
:101040006246002A00D196E0002E08D08022D2030A
:10105000134204D04846104201D10C004B46002BED
:10106000D8D08027FF031F437F02FF227F0A46E775
:1010700020233A00451B38000135EA405D1BA8409B
:10108000431E98410025104328E720231B1A3200F5
:101090009E40C2403000431E984110430CE7FF2A97
:1010A000DBD080236046DB04184384461B2F56DDCB
:1010B00001200C001500301A00E763469F1B7B01DE
:1010C0003DD4002F00D0FEE600240022002716E7C2
:1010D0000500AFE7320043464146DA4020235B1A61
:1010E0009E403000431E9841104321E7002DA7D1B8
:1010F0006346002B59D00022002E00D1FFE63000BD
:101100006044430192D52A4B013518408EE763466F
:10111000002B47D04B1E012915D0FF292BD01900D9
:101120004EE70C004B463D0084E76246002A8BD117
:10113000002E92D180270024FF22FF03DFE66346C2
:101140000C00F71ABFE6300060440125430100D4CB
:101150006CE70225F2E663460125981BAEE62023E4
:1011600064466046FC40DF1BB840431E9841204364
:101170009FE705005EE74B4671E720236546604622
:10118000CD40591A8840431E984128431CE76346C6
:101190000C000125F01A91E6002E95D00C004F4668
:1011A0000022ACE64B460D0044E74F460022A6E67F
:1011B000FFFFFFFBFFFFFF7D002800D036E7002484
:1011C00000279CE643024A02400049005B0A520A9B
:1011D000090E000EFF2806D00020FF2902D1531E61
:1011E0009A4110007047FE38002BFBD1F4E7C0464F
:1011F00041024200C30F490A0020120E7E2A03DD7D
:101200009D2A02DD094A9818704780200004014396
:10121000952A07DC9620821AD1404842002BF3D150
:101220000800F1E7963A9140F7E7C046FFFFFF7FDD
:10123000F8B5002813D0C317C6185E40C40F30009D
:1012400001F01EFF9E2305001B1A962B0FDC0828B9
:1012500001DD083DAE407602760AD8B202E00024F5
:1012600000200026C0053043E4072043F8BD992B39
:101270000CDD05223100121AD1400A0001003000B5
:101280001B318840411E884102431600052D12DCA7
:1012900031000D4F3940720709D00F20304004282B
:1012A00005D004314A0102D59F2339405B1B8901D7
:1012B0004E0AD8B2D6E76A1F96403100024F394035
:1012C0007207F4D0E9E7C046FFFFFFFB70B5051ECB
:1012D0000ED001F0D5FE9E2304001B1A962B0CDCC9
:1012E000082801DD083CA5406D026D0AD8B201E076
:1012F00000200025C005284370BD992B09DD0200A0
:1013000029001B3291404A1E91410522121AD540F4
:101310000D43052C12DC29000C4E31406A0709D020
:101320000F202840042805D004314A0102D59F230C
:1013300031401B1B89014D0AD8B2DBE7621F954083
:101340002900024E31406A07F4D0E9E7FFFFFFFBB6
:10135000F0B54F464646D6460D000400C0B51F0006
:1013600011002803620F400A10437A00520DE30077
:101370003C039146640AFA0F4F0F6E0027439246D2
:10138000B846760DED0FC900954200D199E04C4664
:10139000341BA446002C00DC7CE04A46002A00D125
:1013A000B8E0C54A964200D11CE180223C001204FC
:1013B0001443A0466246382A00DD61E11F2A00DDA1
:1013C000CCE164462022121B444694400F00A14603
:1013D00064469140E7404C464A1E91413C43424698
:1013E00021436446E240801A5C1AA3429B415F425B
:1013F000C71B3B0200D4D0E07F027F0A002F00D140
:10140000FFE0380001F03CFE0100083920232200F3
:101410005B1A8F40DA408C401743B14200DAFFE09C
:10142000891B4B1C1F2B00DDA8E020223900D21A9B
:10143000200094409140D840621E9441DF40002635
:1014400001430C43630709D00F232340042B05D02D
:10145000231DA342A44164423F191C003B0200D457
:101460009EE0954B01369E4200D1B7E0934AE408D6
:1014700017407B0771057F0223433F0B4A0D12057E
:101480003A43ED072A4318001100E0BCBA46B146C2
:10149000A846F0BD002C4BD04C46A41BA446002E01
:1014A00000D023E104001C4300D1AFE16246541E8A
:1014B000012A00D115E2804DAC4500D1C8E1A44617
:1014C0001BE14A46B21A9446002A00DCACE04A46C8
:1014D000002A43D0784A964200D1AFE180223C00F6
:1014E00012041443A0466246382A67DC1F2A00DC37
:1014F0005FE14746203AD7406246202A05D064463D
:101500004022121B4446944021434A1E91410C0044
:101510003C4357E03A000A4300D105E12200013A7A
:10152000012C00D182E1644CA4455BD0944641E794
:10153000634C771C274200D0C4E004001C43002EFB
:1015400000D069E1002C00D1BFE144460C4300D03B
:10155000D0E14207DB081343C00829E03A000A4300
:1015600000D170E162466446013A012C00D1E0E00E
:10157000514CA44500D161E19446B4E73A001F39CB
:10158000CA401100202B03D04022D31A9F403C4375
:10159000631E9C41002700260C43630700D053E7DD
:1015A000B446E4087B072343F808434A94451DD01A
:1015B0006246070352053F0B520D60E744460C4359
:1015C000621E9441E4189C429B415F423F183B02DB
:1015D000E3D5394B01369E4200D0B5E032000027FA
:1015E00000234CE74207DB081343C0081A000243FC
:1015F00000D1E1E180273F0307433F032E4A3F0B21
:101600003DE7200001F03CFD010018311F2900DCFE
:10161000FCE60838844027000024B14200DBFFE6E6
:10162000264A761A17400DE7002A2FD04A46921B09
:101630009446002E00D1ADE01F4A914500D10FE144
:101640008022120410436246382A00DD0FE11F2A6F
:1016500000DD80E1644620221E00121B6746040064
:1016600093409440FE405A1E9341F84034431C433B
:10167000804464188C42BF417F424E464744A6E7EF
:1016800042460A4311004A1E9141ADE60C4C721CC1
:10169000224200D0A1E002001A43002E00D0FAE05E
:1016A000002A00D145E13A000A4300D046E1420752
:1016B000DB081343C0087BE7FF070000FFFF7FFF45
:1016C000FE07000047465C1AC21BA342BF417F428F
:1016D000B94617004A46BF1A3A0200D58DE02300EA
:1016E0003B4300D08AE60020002561E7B44CA145C9
:1016F00000D1ADE08024240420436446382C3DDC36
:1017000062461F2C00DDB7E020251E002D1B0400C3
:10171000AB40AC40D640D04042465D1EAB41344366
:10172000121A904623432CE04207DB081343C008FB
:101730003BE75C189C429B4140445B42C718012632
:101740003B0200D429E702269E4A63081740012283
:1017500014401C43FB071C437F0873E64446203AB1
:10176000D4406246202A05D067464022D21B474615
:10177000974039434A1E9141214335E60343581EA1
:101780008341CC1AA142BF4143467F4255464E4653
:10179000DF1B2EE602001A4300D1BDE0624664461C
:1017A000013A012C00D1E5E0854CA44558D094467F
:1017B00049E764462022121B444694400F00A1468C
:1017C00064469140E7404C464A1E91413C434246A4
:1017D0000C436146CA408018F4E6794CA24200D11D
:1017E000FDE6591899429B4140445F42C719FC07E6
:1017F000490816000C437F08CFE6CC1AA142BF412E
:1018000043467F42181A5546C71BF7E5C9087B07B0
:1018100055460B43F808C8E6002C00D081E043464B
:101820000B4315D1802000250003E3E65C1AA34298
:101830009B41C71B5B420126FF1ADAE54207DB0822
:101840001343C008D2E64207DB081343C008ACE6E6
:1018500043464246C9085B0755460B43D008C5E6D8
:10186000434642465B07C9080B43D008BEE6034324
:101870001C00631E9C41FCE60200203CE240140078
:101880006246202A03D04025AD1AA8400343581EC3
:101890008341234375E7002AE2D03A000A43CDD0C2
:1018A0004207DB0813438022C0081203104206D00F
:1018B000FC08144203D12000CB087A0713435A0FC7
:1018C000DB005207DB08134390E643460B4300D18D
:1018D00009E743464246C9085B0755460B43D00813
:1018E00066E6CC1AA14289413F1A49425546012673
:1018F0007F1A7EE542465C1A871AA3429241524201
:10190000BF1A3A023DD5CC1AA14289414346494209
:101910001F1A55467F1A95E57B07C9080B43F8083F
:1019200043E64446DB080C4330D142071343C0086A
:101930005CE67B07C9080B43F80839E65C189C4253
:101940009B4140445B42C7183B0200D425E61D4B37
:1019500001261F4021E60400203AD4406246202A96
:1019600004D040226646921B904003435A1E934186
:101970001C437EE65C188C4289414044494247182A
:10198000DDE623003B4300D1ADE606E644072343F2
:101990008024C0082403204208D04246D6082642AC
:1019A00004D155463000CB0851070B435A0FDB00DA
:1019B000DB085207134319E60023014A1F005EE5C6
:1019C000FF070000FFFF7FFFF0B557464E46454634
:1019D000DE46E0B5814605000C03480092461F0034
:1019E00085B0240B400DCE0F002800D156E1D44B1A
:1019F000984200D172E16B0FE4001C4380231B046A
:101A000023439846CF4BED009B46002399468344E1
:101A100000933C037B005046240B5B0DFF0F002B13
:101A200000D11FE1C64A934200D162E1C549420F8D
:101A30008C46E40059461443802263441204CB1AB6
:101A400014439B46C200002033007B409A464B461D
:101A50000F2B27D8BC499B00CB589F46B246009B12
:101A6000022B16D0032B00D18EE2012B00D0D9E03F
:101A700000230024002552461B052343D2071343AD
:101A80002800190005B0F0BCBB46B246A946A046E6
:101A9000F0BD00240025AA4BEDE7BA46A04615008C
:101AA0000090DCE7444500D2C7E100D1C2E1012348
:101AB0005B429C462E0040460025E3442302140E60
:101AC0001C431B0C994623041F0C1202494600922A
:101AD0000197FEF79FFB02007A430B04310C80460E
:101AE00019438A4207D901235B429C460919E04405
:101AF0008C4200D807E2881A4946FEF78BFB09049E
:101B00008C4631046646019A090C42430300314376
:101B10008A4204D90919013B8C4200D8EDE1881AA8
:101B2000424612041A4390464146009B0E041B0C89
:101B30001F000293009B360C1B04190C0B0073430F
:101B4000120C7E43039151437A431F0CBC46761816
:101B50006644B14203D9802149028C466244310C6B
:101B60008A1831041E04360C8E19904202D312D109
:101B7000B54210D24346591E009B9C4665441F0047
:101B80009D429B415B421B19C018844200D2A0E1D8
:101B900000D19BE18846AE1BB542AD41801A6D4233
:101BA000401B844200D1D5E14946FEF733FB019A40
:101BB0000B044243310C050019438A4200D96CE101
:101BC000881A4946FEF726FB019A36044243090467
:101BD000360C03000E43B24200D953E10398B61A03
:101BE00002002D041D43029F2B041B0C5A437B4310
:101BF0009C46290C4843130C84446344794398421F
:101C000003D98020400284466144180C12041B044E
:101C1000120C41189B188E4200D2FFE000D1FAE06E
:101C200001231D43494A5A44002A00DCAAE06B07FD
:101C300000D03DE1ED084346DB0106D54246444B6A
:101C40001A4090468022D2005A44424B9A4200DD0C
:101C50001FE743465B071D43434652055C02240BC6
:101C6000530D08E75246224300D17BE0002C00D1FF
:101C7000FAE0200001F004FA02000B3A1D230100F3
:101C80009B1A52460839DA408C40144352468A4027
:101C9000314B58449B4683440020D5E64B462343B2
:101CA000984644D0002C00D1CEE0200001F0E8F9A5
:101CB000010002000B391D235B1A49461000D94070
:101CC000083884400B004D462343984685402348FE
:101CD000831A9B460023994600939AE64B4623437A
:101CE00098461DD108239946063B0025834600935C
:101CF0008FE65246224309D1022349461943184B25
:101D000089469C4600240220E3449DE603234A467C
:101D10001A43134B91469C4652460320E34493E6F4
:101D20000C239946093BA0468346009371E60423A1
:101D3000994600239B4601330025009369E6C0467F
:101D4000FF07000001FCFFFFECB20108FF030000E9
:101D5000FFFFFFFEFE070000F30300000DFCFFFF86
:101D600001F8FFFF49460123194389460024012059
:101D70006AE6002380249A4600258A4B24037AE6EB
:101D800001256D4201239B1A382B00DD70E61F2BC5
:101D900000DCBFE01F2149428A1A4146D1400A00B7
:101DA000202B04D04146804B5B4499400D436B1E71
:101DB0009D4107232A431D0000241540134200D1F2
:101DC000D4E00F2100231140042900D1CBE0111DE4
:101DD0009142924152429B180A00190200D4C2E07B
:101DE00001230024002546E6802341461B031942B7
:101DF00008D01C4206D11C432403BA461500694B87
:101E0000240B38E68024434624031C432403B246B3
:101E1000644B240B2FE6002B00D103E7A619681EA4
:101E2000A64200D28DE08E4200D2A3E000D1B3E002
:101E30000500F5E6AA4200D939E64346DE07580810
:101E40006B081E43ED0739E6484601F019F9010019
:101E50000200153120321C2900DC2CE74B460838E3
:101E600083400025984632E701F00AF903001A0082
:101E7000153220301C2A00DC00E75446083B0022C3
:101E80009C4005E73619013BB44200D9A6E6B242B0
:101E900000D8A3E6831E3619A0E60919013D8C423D
:101EA00000D98DE68A4200D88AE6851E091987E6A0
:101EB0000F232B40042B00D1BCE605235B42AB4231
:101EC0009B4104355B42ED089844B4E6AF4200D92B
:101ED00060E6824204D800D05CE6AE4200D859E603
:101EE00002235B429C46009BE0449C4665449D4225
:101EF0009B415B421B19C0184DE68A4200D80EE692
:101F0000831E09190BE68A4200D8F4E5831E984621
:101F10000919F0E52549280059448D4042468A4078
:101F2000691E8D414146D840D94002432A430B00E7
:101F3000510700D151E70F211140042900D046E795
:101F40004BE705008E4200D06AE6009A934200D02B
:101F500066E667E6164A5A44002A00DC10E70123C9
:101F60000025984467E65D075B021C0BD20800233E
:101F7000154380E50098023D42008242BF417F4206
:101F80003C1936190092DDE78024434624031C43A4
:101F90002403044B240B6EE5009A9A42EAD3050011
:101FA000D3E7C046FF0700003E0400001E04000007
:101FB000FF030000F0B54E464546DE4657469046C4
:101FC000E0B517001A03120B0500844619480E03EA
:101FD0004C0091465A00DB0F9B46360B640DC90F2F
:101FE000520D844219D0824210D0012094420ED169
:101FF0004E450CD10120C44509D1594517D0002CBC
:1020000005D130002843431E984100E00120F0BC78
:10201000BB46B246A946A046F0BD330001202B4383
:10202000F5D1A242F3D14B463B43F0D1E2E7002089
:10203000EDE7C046FF070000F0B54746CE46040076
:10204000180016001B031B0B2D4D4A00994680B546
:1020500043000F03A446B0463F0B520DC90F5B0D62
:10206000C00FAA4221D0AB4213D0002A22D13C4358
:10207000002B02D14D462E4322D0002C10D081429D
:1020800022D00220013908400138C0BCB946B04610
:10209000F0BD4D462E4329D1002AF0D13C43EED16C
:1020A0000028F2D101204042EFE73D0025431DD139
:1020B0009342EED0002BE2D14C462643DFD1E0E73D
:1020C0000020002CE1D0DCE79A420ADCE8DB4F4537
:1020D000D7D80ED000204F45D7D20029E2D0080033
:1020E000D3E74342584140000138CEE70220404246
:1020F000CBE7C445C5D80020C445C6D2EDE7C046ED
:10210000FF070000F0B54746CE4604001800160051
:102110001B031B0B2C4D4A00994680B543000F034F
:10212000A446B0463F0B520DC90F5B0DC00FAA422B
:102130000DD0AB4210D0002A27D13C43002B11D147
:102140004D462E430ED10020002C15D00EE03D0050
:10215000254310D1934218D14D462E430BD1002A6E
:1021600002D13C43002C0BD0814214D00220013913
:102170000840013800E00220C0BCB946B046F0BDBE
:102180000028F9D101204042F6E7002BECD14C4663
:102190002643E9D1EAE79A4204DD43425841400030
:1021A0000138E9E79A42EBDB4F45DFD806D0002043
:1021B0004F45E1D20029E5D00800DDE7C445D5D878
:1021C0000020C445D8D2F5E7FF070000F0B5574618
:1021D0004E464546DE46E0B598460C034B000600E9
:1021E000924687B0240B5B0DCF0F002B00D15CE132
:1021F000D94A934200D175E1420FE4001443802292
:1022000012041443D54AC500944663440093002346
:1022100099469B46434642461E03D20F5B005046FA
:102220009046360B5B0D00D120E1CB4A934200D1A2
:1022300062E1CA49420F8C4600996344F6008C461D
:10224000164380229C44120463461643C2000020B9
:1022500000930099434601318C4649467B400193E7
:102260000F2926D8BE4B890059588F464346019303
:102270003400150083465B46022B16D0032B00D199
:1022800003E2012B00D0CDE0002200240025019BB9
:1022900012052243DB071A432800110007B0F0BCE7
:1022A000BB46B246A946A046F0BD00240025AA4A76
:1022B000EDE7280C2D042D0C2B00110C1204120C30
:1022C0005343984613002F00434399464F434F44CE
:1022D000BB4647460B003F0CBA464343DA440293E1
:1022E000D14504D980277F02B9464B440293534617
:1022F0001B0C9B4653461F0443461B041B0C98466D
:102300003B0043440493330C3604360C98463300A8
:1023100043439946434643432F009A4643467743F7
:102320005D43380C4D444519A94503D980235B0210
:102330009946CA443F04280C3F0C2D04ED19270C84
:102340002404240C0300200050437A4391463A00B1
:1023500053440593030C9A464A436143494451440C
:10236000AB44894503D980235B0299464A44000463
:102370000B0C000C090409182000994643467043D1
:102380005C437E435F43030C9846A41944444A448B
:102390000397A64204D980235B02984647440397DB
:1023A0002304029E9A46059B5E449846AE42AD4188
:1023B00076188E4289410004000C504440446D421E
:1023C0004719B846934649428946C344D94498427E
:1023D0008041A845AD4193459241894589416D426F
:1023E00040422843240C524249420A43039B0019AD
:1023F0008018C7184B46DC0D049B75021D436A1EEE
:1024000095414B46F60D7F0235435A023C43154336
:10241000FB0100D41CE101216A080D401543E207CD
:10242000154364084F496144002900DCB0E06B07A4
:1024300009D00F222A40042A05D02A1DAA42AD4104
:102440006D4264191500E30104D58021464AC90094
:1024500014406144454A914200DD26E76207ED08D9
:10246000640249051543240B4A0D10E752463243D6
:1024700000D17FE0002E00D1DCE0300000F000FE53
:1024800002000B3A1D2301009B1A52460839DA401C
:102490008E40164352468A40009B3549181A030065
:1024A0008C46634400200093D3E6250005434AD0C0
:1024B000002C00D1B0E0200000F0E2FD010002009D
:1024C0000B391D2310005B1A310035000838844099
:1024D000D94085400C432648831A0093002399462F
:1024E0009B4697E60500254326D108220093022348
:1024F000002491469B468DE65246009B324310D104
:10250000154900268C46634449460093022319432B
:10251000894602209DE65B460197022B00D0ADE67E
:10252000C3E60D4A0320944663444A4600930323BE
:102530001A43914652468CE60C2200930323050071
:1025400091469B4666E60423994600230093013397
:1025500000249B465EE6C046FF07000001FCFFFF2B
:102560002CB30108FF030000FFFFFFFEFE07000081
:102570000DFCFFFF4946012319438946002601202F
:1025800067E6002380240025434A019324037EE666
:102590000120401A382800DD76E61F285BDD1F2267
:1025A00023005242511ACB401900202803D03B4A45
:1025B0006244944025436A1E95412A000A4307213C
:1025C0000D000024154011425BD00F210024114062
:1025D000042953D0111D914292415242A4180A007D
:1025E00023024BD501220024002550E680231B0343
:1025F0001C4209D01E4207D133431C034346150039
:10260000240B254A019342E680221203144324033B
:10261000214A240B01973AE600F032FD0100020046
:10262000153120321C2900DC4BE734000838002526
:10263000844050E700F024FD03001A0015322030DA
:102640001C2A00DC1EE75646083B00229E4023E77A
:10265000009B9C46E6E61249220061442E008D4014
:102660008A40C640691E8D4132432A43C440530705
:10267000B6D00F2111400429ACD1B1E7650764023F
:10268000240BD2081543002201E6802212031443D2
:102690002403014A240BFAE5FF0700003E04000072
:1026A0001E040000F8B557464E464546DE46E0B5E6
:1026B0001E0017004A000B03520D5B0A9046420FA2
:1026C0001A43CD0FCD4C3103C300944670007A0FEE
:1026D000490AFF009A46B946400DF60F1143A04241
:1026E00000D1B1E001225640B346B54200D188E0A6
:1026F0004246121A002A00DCAEE0002800D1C1E0F8
:10270000BE48804500D151E1802000040143382AB1
:1027100000DD7BE11F2A00DDEEE120203E00801A73
:102720000C00D640D140874062468440521A781E41
:102730008741944634432743DC1BA3429B416246B6
:102740005B42D31A99464B461B0200D418E14B4614
:102750005802430A99464B46002B00D137E14846C0
:1027600000F08EFC010008392023220048465B1A45
:10277000DA4088408C4043461043884500DD36E10E
:10278000C91A4B1C1F2B00DDEAE020222600D21ABA
:1027900001009440DE40D84000239140621E9441E5
:1027A0008146984631430C43630709D00F232340E9
:1027B000042B05D0231DA342A4416442A1441C0064
:1027C0004B461B0200D4DEE041468C4B013199425E
:1027D00000D1E7E04B468A48E40803401800490569
:1027E0005B07400223434A0D040B1205ED07224309
:1027F0002A4318001100F0BCBB46B246A946A046C9
:10280000F8BD4246121A002A52DD002800D19CE091
:10281000A04500D1CAE0802000040143382A00DD31
:1028200049E11F2A00DC97E110000E002038C64065
:10283000202A04D04020821A91400F43B9464C46CA
:10284000621E944134433AE10A003A4328D0B34629
:10285000B5422BD06B4A4244002A5DD042464446E2
:10286000821A002C00D0F5E065461D4300D19CE1A2
:10287000551E012A00D1FBE1604CA24200D1BDE10E
:102880002A00F0E00800384300D1C3E0501E012ABE
:1028900000D1A8E1594CA24200D187E0020036E7FE
:1028A00001225640B346B54200D021E7554A424482
:1028B000002A00D1B5E042464446821A002C00D1DD
:1028C00038E14E4EB04200D1DEE180266446360447
:1028D0003443A446382A00DD96E11F2A00DD24E2B5
:1028E0002026B41AA24664465646B440A1461C00AF
:1028F0004E46D440264334005646B3405E1EB34194
:102900001C436346D340C918E419BC42BF417F420F
:10291000B94680468944D8E040463B4C01302042CD
:1029200000D0B4E04046002800D044E1604618439F
:1029300000D190E10800384300D0AAE16146DB08ED
:1029400049070B436146CC0827E00800384361D0B3
:10295000501E012A00D139E1A24227D002005DE7D2
:1029600002001F39CA401100202B03D04022D31A85
:1029700098400443631E9C410023994698460C43AB
:10298000630700D012E74B464A46E4085B0723433F
:10299000D408424619498A420ED024035205240B1A
:1029A000520D22E70A00002400231EE7DB086246DE
:1029B000520713436246D4081A00224300D1FCE1B7
:1029C00080221203144324030C4A240B0DE7200039
:1029D00000F056FB010018311F2900DCC4E608385E
:1029E0008440434620000024884500DCC8E6044AB1
:1029F0005B1A104098468146D6E6C046FF070000A5
:102A0000FFFF7FFF01F8FFFFFE0700000F437A1E64
:102A1000974191E66146DB0849070B436146CC08C4
:102A2000B8E74046D34C0130204200D0A2E04046F7
:102A3000002800D001E16046184300D15EE10800A3
:102A4000384300D05FE16146DB0849070B4361462C
:102A5000CC08A2E7C84DA84200D1CFE0802564464B
:102A60002D042C43A446382A56DC1F2A00DDD1E071
:102A700020251E00AD1A6446AB40AC40D6405D1E1A
:102A8000AB41344323436446D440091B49E06046CC
:102A9000DC1B461AA34280414042814630004E462C
:102AA000801B8146000276D44B46234300D052E679
:102AB0000024002571E739430C00621E9441E4189C
:102AC0009C429B415B42634499464B461B0200D4A7
:102AD00056E701239C46A84BE044984538D04B4626
:102AE000A648012203401800630814401C43C30792
:102AF0001C434308994657E610000E002038C64094
:102B0000202A04D04020821A91400F43B9464F46F4
:102B10007A1E974137430FE662461A4313005A1E46
:102B20009341FC1AA742BF417F42CB1B99465D46A9
:102B3000804608E666461E4300D1BEE0561E012AC6
:102B400000D109E18C4CA24200D119E13200C1E66A
:102B500042460024002348E620200C00801A3E0054
:102B600087408440D640781E8741D14034433C435F
:102B70008C44A4E7804A904200D1E9E0DF199F42EB
:102B80009B4161445B42C918CC077F084B089946BA
:102B900080463C43F4E6FC1AA742BF4163467F42AD
:102BA000C91ACB1B99465D46D5E5FF084B075D4624
:102BB0003B43CC08EEE662461A4300D082E00B00AD
:102BC0003B431BD1802400252403F9E6DC199C42F9
:102BD0009B41614489465B4299444B461B0244D465
:102BE00001239846CCE6DC1B6246A3429B41511A66
:102BF0005B42CB1A994601239846A4E5FF084B0790
:102C00005D463B43CC08D7E662461A431400631E78
:102C10009C4179E615006446203DEC40A046202A00
:102C200005D040256446AA1A944023439A46544648
:102C3000631E9C414346234373E762461A4323D0F5
:102C40000A003A4300D0A0E06246DB085207134373
:102C50006246D408B0E60B003B4300D128E7FF08EA
:102C60004B075D463B43CC0897E60223984636E780
:102C7000FC1AA742BF4163467F42C91ACB1B994643
:102C800001235D4698465EE54B07FF083B43CC08B1
:102C900092E6DC1B6046A342B641401A7642801B96
:102CA0008146000260D5FC1AA742BF4163467F42BD
:102CB000C91ACB1B99465D4676E5FF084B073B4397
:102CC000CC0867E60A00DB083A4300D16FE66246AB
:102CD000520713436246D40880221203144207D0DD
:102CE000C808104204D15D460400FB0849070B43A5
:102CF0005A0FDB00DB08520713435DE64B07FF0862
:102D00003B43CC0849E6DC199C429B41614489461F
:102D10005B4299444B461B0200D431E64A46174BAE
:102D20001A400123914698462AE616006446203E42
:102D3000F440A046202A05D040266446B21A9440AA
:102D400023439A465446631E9C4143461C43DBE59D
:102D500002000024002348E5DC19BC42BF41614465
:102D600089467F42B94438E74B46234300D19FE66A
:102D700006E6C046FE070000FF070000FFFF7FFFDA
:102D8000FF084B073B43CC0816E66246DB085207B8
:102D900013436246D40880221203144207D0C808A5
:102DA000104204D15D460400FB0849070B435A0F4B
:102DB000DB005207DB081343FEE50023014A1C0039
:102DC00013E5C046FF0700000A0030B5134C53005E
:102DD00009030500090B00205B0DD20FA34204DD9F
:102DE0000F48834202DD0F4BD01830BD80204003D6
:102DF00001430D48C01A1F2808DD0C48C31AD940EA
:102E00000B005842002AF0D11800EEE7084CC540EC
:102E1000A446634499400B002B43F2E7FE030000F5
:102E20001D040000FFFFFF7F3304000013040000B7
:102E3000EDFBFFFF70B5002816D0C317C5185D4025
:102E4000C40F280000F01CF9114A121A0A2816DCD7
:102E500003002E0015339E400B23181AC54052055F
:102E60002D032D0B530D03E0002400230025002625
:102E70001B052B43E40723433000190070BD0B38BA
:102E8000854052052D0300262D0B530DF0E7C0465B
:102E90001E04000010B5041E10D000F0F1F80F4B16
:102EA0001B1A0A2811DC0B222100121AD1401530FE
:102EB0000A035B058440120B5B0D01E00023002236
:102EC0001B0513432000190010BD22000B3882405F
:102ED0005B0512030024120B5B0DF1E71E040000DA
:102EE00070B543004602C40FFE201B0E591C750A24
:102EF00008420CD0E022920094466D07360B6344E2
:102F00001B053343E40723432800190070BD002B41
:102F100014D1002D1BD0280000F0B2F80A281CDCC8
:102F20000B232E001B1ADE40030015339D400E4A72
:102F30003603121A5205360B530DE1E7002D09D066
:102F40008022360B1203094B6D071643D8E7002386
:102F50000026D5E70026054BD2E703000B3B9D403A
:102F60002E000025E3E7C04689030000FF070000AC
:102F700002004B00F0B55B0D0C033D4E640A400FA0
:102F80005F1CC90F0443D50037420AD039481E18C8
:102F9000FE2E16DDFF200024C0052043C90708438C
:102FA000F0BD002B06D12C4326D005229201540AF5
:102FB000D8B2F1E72543EDD08020C0030443FF20C1
:102FC000EAE7002E1BDD9201531E9A41E4006D0FCB
:102FD00022432A43530748D00F231340042B00D029
:102FE00004328023DB0413403FD0701CFE2ED1D06E
:102FF0009201540AC0B2CFE700200024CCE732008F
:10300000173222DB8020000420431E24A41B1F2C27
:103010001DDD02225242961B0200F2401600202CB7
:1030200004D0154A94466344984005432A00531E31
:103030009A41324300265307CED180241300E40482
:10304000012023402242D3D1B0E70023ADE70B4A51
:1030500094462A00E24014002A0063449A409840B3
:10306000551EAA4102432243E4E733009EE7C046CF
:10307000FE07000080FCFFFFA2FCFFFF82FCFFFFB9
:103080001C2101231B04984201D3000C10391B0A98
:10309000984201D3000A08391B09984201D300095C
:1030A000043902A2105C40187047C04604030202B3
:1030B00001010101000000000000000080B582B0A5
:1030C00000AF78607B68181C17F0BCFC031C181C50
:1030D000BD4602B080BD000080B582B000AF786010
:1030E00009F0E4F909F05EF80F4B18000EF028FE25
:1030F00003005A1E9341DBB2002B01D009F076FC8D
:1031000009F0CCFD094B180012F02CFE7B68BB22A5
:1031100092009918044B072218000EF07DF8C04663
:10312000BD4602B080BDC046A8210020D4290020A1
:1031300090B583B000AF78607B688A4A9B5C1800CA
:103140007B68BB2292009A5C87495B5C1B0213433D
:103150009AB279680300D0335B00CB18FF2111408D
:103160000C00197900200140081C211C0143197131
:10317000120A90B25A7900210A40111C021C0A431B
:103180005A717B68774A9B5C18007B68774A9A5C27
:1031900077495B5C1B0213439AB2796803003833AA
:1031A0005B00CB18FF2111400C00197A0020014070
:1031B000081C211C01431972120A90B25A7A00218C
:1031C0000A40111C021C0A435A727B68654A9B5CC8
:1031D00018007B68BC2292009A5C66495B5C1B020B
:1031E00013439AB27968030008335B00CB18FF21C0
:1031F00011400C00197900200140081C211C0143DA
:103200001971120A90B25A7900210A40111C021C4D
:103210000A435A717B68534A9B5C18007B68564A84
:103220009A5C56495B5C1B0213439AB279680300AF
:103230006C335B00CB18FF2111400C001979002082
:103240000140081C211C01431971120A90B25A79DD
:1032500000210A40111C021C0A435A717B68414A32
:103260009B5C18007B68BD2292009A5C44495B5CC1
:103270001B0213439AB2796803009C335B00CB189E
:10328000FF2111400C00197A00200140081C211C6C
:1032900001431972120A90B25A7A00210A40111C95
:1032A000021C0A435A727B682E4A9B5C18007B689A
:1032B000BE2292009A5C33495B5C1B0213439AB2B4
:1032C0007968431CFF335B00CB18FF2111400C00D1
:1032D000197A00200140081C211C01431972120AAE
:1032E00090B25A7A00210A40111C021C0A435A72F9
:1032F0007B681C4A9B5C18007B68234A9A5C2349C4
:103300005B5C1B0213439AB2796803003533FF33C9
:103310005B00CB18FF2111400C00197900200140FF
:10332000081C211C01431971120A90B25A7900211C
:103330000A40111C021C0A435A717B68094A9B5CB3
:103340000133D9B27B68074A99547B68054A9B5C74
:10335000312B03D97B68034A00219954C046BD46EE
:1033600003B090BDFA020000ED020000EE02000082
:10337000EF020000F1020000F2020000F302000080
:10338000F5020000F9020000F6020000F70200005A
:1033900080B586B000AFF860B960FB1D1A700023DD
:1033A0007B611323FB1800221A7013217A18FB1D6E
:1033B00012781B789A420FD27B181B785B00BA6890
:1033C000D3181B881A007B699B187B617B181A78BD
:1033D0007B1801321A70E8E7FB1D1B781900786929
:1033E000FCF792FE03001800BD4606B080BD000049
:1033F000F0B583B000AF78607B68A533FF33190068
:103400007B6832221800FFF7C3FF01007A68B823F7
:103410009B00FF2008400500D05C00242040041CD5
:10342000281C2043D054080AFF2420400600D0184E
:10343000447800252C40251C341C2C434470080C77
:10344000FF2420400600D018847800252C40251C3D
:10345000341C2C438470080ED318DA7800210A40FB
:10346000111C021C0A43DA707B68DC3319007B688C
:1034700032221800FFF78CFF01007A68B6239B0008
:10348000FF2008400500D05C00242040041C281CBC
:103490002043D054080AFF2420400600D018447866
:1034A00000252C40251C341C2C434470080CFF24A0
:1034B00020400600D018847800252C40251C341CA0
:1034C0002C438470080ED318DA7800210A40111CAE
:1034D000021C0A43DA707B684133FF3319007B68B2
:1034E00032221800FFF754FF01007A68B7239B00CF
:1034F000FF2008400500D05C00242040041C281C4C
:103500002043D054080AFF2420400600D0184478F5
:1035100000252C40251C341C2C434470080CFF242F
:1035200020400600D018847800252C40251C341C2F
:103530002C438470080ED318DA7800210A40111C3D
:10354000021C0A43DA707B68143319007B6832224C
:103550001800FFF71DFF01007A68B4239B00FF20CD
:1035600008400500D05C00242040041C281C204397
:10357000D054080AFF2420400600D01844780025C3
:103580002C40251C341C2C434470080CFF24204084
:103590000600D018847800252C40251C341C2C43B0
:1035A0008470080ED318DA7800210A40111C021C1E
:1035B0000A43DA707B68783319007B68322218007E
:1035C000FFF7E6FE01007A68B5239B00FF20084064
:1035D0000500D05C00242040041C281C2043D0544B
:1035E000080AFF2420400600D018447800252C400B
:1035F000251C341C2C434470080CFF24204006007A
:10360000D018847800252C40251C341C2C43847051
:10361000080ED318DA7800210A40111C021C0A4354
:10362000DA707B688222920099187B683222180037
:10363000FFF7AEFE01007A68B9239B00FF20084027
:103640000500D05C00242040041C281C2043D054DA
:10365000080AFF2420400600D018447800252C409A
:10366000251C341C2C434470080CFF242040060009
:10367000D018847800252C40251C341C2C438470E1
:10368000080ED318DA7800210A40111C021C0A43E4
:10369000DA707B689B22920099187B6832221800AE
:1036A000FFF776FE01007A68BA239B00FF200840EE
:1036B0000500D05C00242040041C281C2043D0546A
:1036C000080AFF2420400600D018447800252C402A
:1036D000251C341C2C434470080CFF242040060099
:1036E000D018847800252C40251C341C2C43847071
:1036F000080ED318DA7800210A40111C021C0A4374
:10370000DA707B68B52292009A5CC049595C090264
:103710000A43BF49595C09040A43BE495B5C1B0666
:1037200013431A007B681100180000F021FA03000F
:103730001C007B68A2B2FF210A4010001A7B002106
:103740000A40111C021C0A431A73A2B2120A90B258
:103750005A7B00210A40111C021C0A435A737B68E1
:10376000B82292009A5CAC49595C09020A43AB4901
:10377000595C09040A43AA495B5C1B0613431A00FF
:103780007B681100180000F0A7F903001A007B689D
:10379000FF2111400C00197A00200140081C211C57
:1037A00001431972110AFF2001400C00597A0020D0
:1037B0000140081C211C01435972110CFF200140DB
:1037C0000C00997A00200140081C211C01439972C9
:1037D000100EDA7A00210A40111C021C0A43DA7228
:1037E0007B68B42292009A5C8E49595C09020A43B4
:1037F0008D49595C09040A438C495B5C1B061343E1
:103800001A007B681100180000F0B2F903001C00D8
:103810007B68A2B2FF210A4010009A7B00210A4077
:10382000111C021C0A439A73A2B2120A90B2DA7BEC
:1038300000210A40111C021C0A43DA737B68B6227D
:1038400092009A5C7A49595C09020A437949595CA9
:1038500009040A4378495B5C1B0613431A007B6822
:103860001100180000F0FEF803001A007B68FF2129
:1038700011400C00197800200140081C211C014354
:103880001970110AFF2001400C00597800200140F6
:10389000081C211C01435970110CFF2001400C0031
:1038A000997800200140081C211C01439970100EDA
:1038B000DA7800210A40111C021C0A43DA707B6886
:1038C000B72292009A5C5D49595C09020A435C493F
:1038D000595C09040A435B495B5C1B0613431800EF
:1038E000FDF7F4FC031C5849181CFDF797F9031C5D
:1038F000181CFCF7F7FD02007B68FF2111400C004B
:10390000197900200140081C211C01431971110A7A
:10391000FF2001400C00597900200140081C211CA7
:1039200001435971110CFF2001400C0099790020CE
:103930000140081C211C01439971100EDA79002105
:103940000A40111C021C0A43DA717B68B9229200FA
:103950009A5C3E49595C09020A433D49595C090495
:103960000A433C495B5C1B0613431A007B68110049
:10397000180000F0FDF803001C007B68A2B2FF21D4
:103980000A4010001A7C00210A40111C021C0A4344
:103990001A74A2B2120A90B25A7C00210A40111C79
:1039A000021C0A435A747B68BA2292009A5C2A4924
:1039B000595C09020A432949595C09040A43284908
:1039C0005B5C1B0613431A007B681100180000F0B3
:1039D000CFF803001C007B68A2B2FF210A40100050
:1039E0009A7C00210A40111C021C0A439A74A2B25C
:1039F000120A90B2DA7C00210A40111C021C0A4310
:103A0000DA74C046BD4603B0F0BDC046D502000022
:103A1000D6020000D7020000E1020000E20200002E
:103A2000E3020000D1020000D2020000D302000035
:103A3000D9020000DA020000DB020000DD02000013
:103A4000DE020000DF0200009381AB41E5020000CE
:103A5000E6020000E7020000E9020000EA020000BE
:103A6000EB02000080B584B000AF78603960386840
:103A7000FDF72CFC031C1349181CFDF7CFF8031CA1
:103A80001149181CFDF7CAF8031C1049181CFCF753
:103A9000FDFE031C181CFDF7ABFB0300FB60F86880
:103AA000FFF7C8F90A4A0B4BFEF790FB02000B0028
:103AB00010001900FFF788F903001800BD4604B094
:103AC00080BDC046E54C4E3F00007A44C1AA9C42EE
:103AD00048E17A14AE47F13F80B584B000AF78601A
:103AE00039603868FDF7F2FB031C1A49181CFDF712
:103AF00095F8031C1849181CFCF7C8FE031C181C79
:103B0000FFF7EEF9154A164BFDF75EFF02000B00BA
:103B100010001900FFF72CFA031CFB60F868FFF790
:103B2000DFF9104A104BFEF751FB02000B001000AA
:103B30001900FFF71DFA031CBB600C49B868FDF7BC
:103B40006DF8031C181CFDF753FB03001800BD465D
:103B500004B080BD3333534000F07F45E92631087F
:103B6000AC1CDA3F81E434912EFA564000007A44CE
:103B7000B0B586B000AF7860396000237B613868EB
:103B8000FDF7A4FB031C3149181CFDF747F8031C83
:103B90003B6139692E48FCF779FE031CFE2189053B
:103BA000181CFDF761F9031C2A49181CFDF736F8AB
:103BB000031C0E257C19181CFCF794FC03002380C1
:103BC0007B191B881800FDF781FB031C2249181C78
:103BD000FCF75CFE031C7B617B69181CFFF76EFA27
:103BE000031C7B611D497869FCF750FE031C7B6157
:103BF0007869FFF775F91A4A1A4BFDF7A9FB02001D
:103C00000B0010001900FFF7B3F9031C7B61796901
:103C1000FE208005FCF73AFE031C7B617869FFF704
:103C20005FF9114A114BFEF73DFD02000B00100039
:103C30001900FFF79DF9031C7B617869FDF7D8FA3D
:103C400003001BB21800BD4606B0B0BDE54C4E3FA8
:103C50000000484500007A4400401C4600B056452C
:103C600083DBB5DCE1796B3F6666666666127140A0
:103C700090B583B000AF78607B6851331A7800212B
:103C80000A401A705A7800210A405A709A78002126
:103C90000A409A70DA7800210A40DA707B687A224A
:103CA000002199547B6801331A7800210A40111CC5
:103CB00064220A431A705A7800210A405A709A788E
:103CC00000210A409A70DA7800210A40DA707B6895
:103CD00005331A7800210A40111C34220A431A7055
:103CE0005A7800210A40111C492252420A435A7054
:103CF0009A7800210A409A70DA7800210A40DA7036
:103D00007B6809331A7800210A40111C40220A43BB
:103D10001A705A7800210A40111C77220A435A70FF
:103D20009A7800210A40111C1B220A439A70DA7803
:103D300000210A40DA707B680D331A7800210A40AE
:103D4000111C64220A431A705A7800210A405A70E2
:103D50009A7800210A409A70DA7800210A40DA70D5
:103D60007B6811331A7800210A40111C402252420C
:103D70000A431A705A7800210A40111C1F2252422D
:103D80000A435A709A7800210A409A70DA78002122
:103D90000A40DA707B6815331A7800210A40111C3A
:103DA00040220A431A705A7800210A40111C5422FA
:103DB0000A435A709A7800210A40111C7722524215
:103DC0000A439A70DA7800210A40DA707B68193366
:103DD0001A7800210A40111C64220A431A705A788A
:103DE00000210A405A709A7800210A409A70DA78C5
:103DF00000210A40DA707B681D331A7800210A40DE
:103E0000111C402252420A431A705A7800210A407B
:103E1000111C1F2252420A435A709A7800210A400C
:103E20009A70DA7800210A40DA707B6821331A78B8
:103E300000210A40111C802252420A431A705A780B
:103E400000210A40111C122252420A435A709A78E9
:103E500000210A40111C36220A439A70DA780021A8
:103E60000A40DA707B6825331A7800210A40111C59
:103E70000E220A431A705A7800210A405A709A7822
:103E800000210A409A70DA7800210A40DA707B68D3
:103E900029331A7800210A40111C402252420A4359
:103EA0001A705A7800210A40111C1F2252420A43FC
:103EB0005A709A7800210A409A70DA7800210A40F4
:103EC000DA707B682D331A7800210A40111C802299
:103ED00052420A431A705A7800210A40111C1222D9
:103EE00052420A435A709A7800210A40111C362225
:103EF0000A439A70DA7800210A40DA700CF0A6FBC7
:103F000002007B686D33FF2111400C0019780020FE
:103F10000140081C211C01431970110AFF200140B7
:103F20000C00597800200140081C211C01435970E5
:103F3000110CFF2001400C00997800200140081C62
:103F4000211C01439970100EDA7800210A40111CDF
:103F5000021C0A43DA70C046BD4603B090BD0000A3
:103F600080B582B000AF78607B681B78062B27D8BD
:103F70009A001A4BD3181B689F467B68180000F004
:103F80002FF81EE07B68180000F0C0FA19E07B688B
:103F9000180000F01BFC14E07B68180000F076FDB0
:103FA0000FE07B68180000F0D5FE0AE07B6818007F
:103FB00000F0F8FF05E07B68180001F045F800E02C
:103FC000C0467B68180001F0B9F97B68180001F061
:103FD00063F8C046BD4602B080BDC0466CB3010860
:103FE00090B583B000AF78607B68180001F0B2FA3A
:103FF0007B687922002199540CF028FB7B686D22A4
:104000009A5C6E21595C09020A436F21595C0904CC
:104010000A4370215B5C1B061343C31AFA22920009
:104020009A429B415B42DBB2002B00D1BDE07B6832
:104030007A229B5C002B00D1AAE07B687B229B5CF0
:10404000002B00D0A4E07B6865331A7800210A4079
:104050001A705A7800210A405A709A7800210A4052
:104060009A70DA7800210A40DA700CF0EFFA020058
:104070007B685533FF2111400C0019780020014066
:10408000081C211C01431970110AFF2001400C007B
:10409000597800200140081C211C01435970110C63
:1040A000FF2001400C00997800200140081C211CD1
:1040B00001439970100EDA7800210A40111C021C8D
:1040C0000A43DA707B6801221A700CF0BFFA020012
:1040D0007B686933FF2111400C00197800200140F2
:1040E000081C211C01431970110AFF2001400C001B
:1040F000597800200140081C211C01435970110C03
:10410000FF2001400C00997800200140081C211C70
:1041100001439970100EDA7800210A40111C021C2C
:104120000A43DA707B6859331A7800210A401A7002
:104130005A7800210A405A709A7800210A409A70F1
:10414000DA7800210A40DA707B685D331A78002142
:104150000A401A705A7800210A405A709A78002151
:104160000A409A70DA7800210A40DA707B6861337D
:104170001A7800210A401A705A7800210A405A70B1
:104180009A7800210A409A70DA7800210A40DA70A1
:104190007B6876229B5C002B07D07B687B229B5C34
:1041A000002B02D17B6805221A700CF04FFA7B6855
:1041B0006D229A5C6E21595C09020A436F21595C99
:1041C00009040A4370215B5C1B061343C31AFA22DD
:1041D00092009A429B415B42DBB2002B00D188E106
:1041E0007B6875229B5C002B40D07B687A22012182
:1041F00099547B6851229A5C5221595C09020A4306
:104200005321595C09040A4354215B5C1B06134388
:104210001A0010239A437B685133FF2111400C0090
:10422000197800200140081C211C01431970110A53
:10423000FF2001400C00597800200140081C211C7F
:1042400001435970110CFF2001400C0099780020A7
:104250000140081C211C01439970100EDA780021DE
:104260000A40111C021C0A43DA706DE0A34B1B7854
:10427000BFF35B8FDBB21A00012313405A42534154
:10428000DBB2002B12D09D4B180016F0BCFB0300D4
:104290005A1E9341DBB2002B08D00CF0D7F9020074
:1042A000974B1A60954B180016F0BAFB7B687A2280
:1042B000002199540CF0CAF90200914B1B68D31AE3
:1042C000FA2252009A429B415B42DBB2002B3BD068
:1042D0007B6851229A5C5221595C09020A4353219E
:1042E000595C09040A4354215B5C1B0613431A0002
:1042F00010231A437B685133FF2111400C001978B9
:1043000000200140081C211C01431970110AFF20E4
:1043100001400C00597800200140081C211C014379
:104320005970110CFF2001400C00997800200140C9
:10433000081C211C01439970100EDA7800210A40F4
:10434000111C021C0A43DA700CF080F97B686D22A4
:104350009A5C6E21595C09020A436F21595C090479
:104360000A4370215B5C1B061343C21AFA239900AF
:10437000002391425B41DBB2002B04D07B687B229F
:104380000121995403E07B687B22002199547B68CA
:1043900071229A5C72215B5C1B0213439BB2002B5F
:1043A00000D0A6E0574B1B78BFF35B8FDBB21A003F
:1043B000012313405A425341DBB2002B12D0514B20
:1043C000180016F020FB03005A1E9341DBB2002BAD
:1043D00008D00CF03BF902004B4B1A60494B180017
:1043E00016F01EFB0CF032F90200474B1B68D31A83
:1043F000FA2252009A429B415B42DBB2002B3CD036
:104400007B6851229A5C5221595C09020A4353216C
:10441000595C09040A4354215B5C1B0613431A00D0
:1044200020231A437B685133FF2111400C00197877
:1044300000200140081C211C01431970110AFF20B3
:1044400001400C00597800200140081C211C014348
:104450005970110CFF2001400C0099780020014098
:10446000081C211C01439970100EDA7800210A40C3
:10447000111C021C0A43DA703BE07B6851229A5CF3
:104480005221595C09020A435321595C09040A4329
:1044900054215B5C1B0613431A0020239A437B685C
:1044A0005133FF2111400C00197800200140081CF5
:1044B000211C01431970110AFF2001400C0059789A
:1044C00000200140081C211C01435970110CFF20E1
:1044D00001400C00997800200140081C211C014378
:1044E0009970100EDA7800210A40111C021C0A4350
:1044F000DA70C046BD4603B090BDC04650010020F2
:104500004C010020580100205401002090B583B0D8
:1045100000AF78607B685A79997909020A43D979A2
:1045200009040A431B7A1B0613431A007B684933AC
:10453000FF2111400C00197800200140081C211CAB
:1045400001431970110AFF2001400C005978002026
:104550000140081C211C01435970110CFF2001402F
:104560000C00997800200140081C211C014399701F
:10457000100EDA7800210A40111C021C0A43DA707E
:104580007B6878229B5C002B16D07B685A789978E0
:1045900009020A43D97809040A431B791B0613430D
:1045A00019007B6873229B5C4B431A0013009B002D
:1045B0009B185B001A0000E000227B684D33FF214E
:1045C00011400C00197800200140081C211C0143F7
:1045D0001970110AFF2001400C0059780020014099
:1045E000081C211C01435970110CFF2001400C00D4
:1045F000997800200140081C211C01439970100E7D
:10460000DA7800210A40111C021C0A43DA707B6828
:104610007922012199547B6841229A5C4221595C9C
:1046200009020A434321595C09040A4344215B5CA3
:104630001B06134318007B6849229A5C4A21595C87
:1046400009020A434B21595C09040A434C215B5C73
:104650001B061343984248D90BF0F8FF7B6855229C
:104660009A5C5621595C09020A435721595C090496
:104670000A4358215B5C1B061343C31A524A9A42F1
:104680009B415B42DBB2002B2FD00BF0DFFF02001F
:104690007B685933FF2111400C001978002001403C
:1046A000081C211C01431970110AFF2001400C0055
:1046B000597800200140081C211C01435970110C3D
:1046C000FF2001400C00997800200140081C211CAB
:1046D00001439970100EDA7800210A40111C021C67
:1046E0000A43DA707B6802221A700BF0AFFF7B6816
:1046F00055229A5C5621595C09020A435721595C9C
:1047000009040A4358215B5C1B061343C21A7B68E9
:10471000597A987A00020143D87A000401431B7B3E
:104720001B060B4393429B415B42DBB2002B3ED006
:104730007B6851229A5C5221595C09020A43532139
:10474000595C09040A4354215B5C1B0613431A009D
:1047500001231A437B685133FF2111400C00197863
:1047600000200140081C211C01431970110AFF2080
:1047700001400C00597800200140081C211C014315
:104780005970110CFF2001400C0099780020014065
:10479000081C211C01439970100EDA7800210A4090
:1047A000111C021C0A43DA707B6805221A707B68B0
:1047B00076229B5C002B02D07B6805221A70C046D3
:1047C000BD4603B090BDC046B80B000090B583B0A5
:1047D00000AF78607B685A7C997C09020A43D97CD7
:1047E00009040A431B7D1B0613431A007B684933E7
:1047F000FF2111400C00197800200140081C211CE9
:1048000001431970110AFF2001400C005978002063
:104810000140081C211C01435970110CFF2001406C
:104820000C00997800200140081C211C014399705C
:10483000100EDA7800210A40111C021C0A43DA70BB
:104840007B6878229B5C002B16D07B685A7B997B17
:1048500009020A43D97B09040A431B7C1B06134344
:1048600019007B6873229B5C4B431A0013009B006A
:104870009B185B001A0000E000227B684D33FF218B
:1048800011400C00197800200140081C211C014334
:104890001970110AFF2001400C00597800200140D6
:1048A000081C211C01435970110CFF2001400C0011
:1048B000997800200140081C211C01439970100EBA
:1048C000DA7800210A40111C021C0A43DA707B6866
:1048D0007922012199547B6841229A5C4221595CDA
:1048E00009020A434321595C09040A4344215B5CE1
:1048F0001B06134318007B6849229A5C4A21595CC5
:1049000009020A434B21595C09040A434C215B5CB0
:104910001B061343984248D90BF098FE7B68592236
:104920009A5C5A21595C09020A435B21595C0904CB
:104930000A435C215B5C1B061343C31A524A9A422A
:104940009B415B42DBB2002B2FD00BF07FFE0200BD
:104950007B685D33FF2111400C0019780020014075
:10496000081C211C01431970110AFF2001400C0092
:10497000597800200140081C211C01435970110C7A
:10498000FF2001400C00997800200140081C211CE8
:1049900001439970100EDA7800210A40111C021CA4
:1049A0000A43DA707B6803221A700BF04FFE7B68B3
:1049B00059229A5C5A21595C09020A435B21595CCD
:1049C00009040A435C215B5C1B061343C21A7B6823
:1049D000597D987D00020143D87D000401431B7E70
:1049E0001B060B4393429B415B42DBB2002B3ED044
:1049F0007B6851229A5C5221595C09020A43532177
:104A0000595C09040A4354215B5C1B0613431A00DA
:104A100002231A437B685133FF2111400C0019789F
:104A200000200140081C211C01431970110AFF20BD
:104A300001400C00597800200140081C211C014352
:104A40005970110CFF2001400C00997800200140A2
:104A5000081C211C01439970100EDA7800210A40CD
:104A6000111C021C0A43DA707B6805221A707B68ED
:104A700076229B5C002B02D07B6805221A70C04610
:104A8000BD4603B090BDC046B80B000090B583B0E2
:104A900000AF78607B685A7F997F09020A43D97F0B
:104AA00009040A4320215B5C1B0613431A007B6840
:104AB0004933FF2111400C00197800200140081CE7
:104AC000211C01431970110AFF2001400C00597884
:104AD00000200140081C211C01435970110CFF20CB
:104AE00001400C00997800200140081C211C014362
:104AF0009970100EDA7800210A40111C021C0A433A
:104B0000DA707B6878229B5C002B16D07B685A7E1B
:104B1000997E09020A43D97E09040A431B7F1B06BA
:104B2000134319007B6873229B5C4B431A001300EC
:104B30009B009B185B001A0000E000227B684D334D
:104B4000FF2111400C00197800200140081C211C95
:104B500001431970110AFF2001400C005978002010
:104B60000140081C211C01435970110CFF20014019
:104B70000C00997800200140081C211C0143997009
:104B8000100EDA7800210A40111C021C0A43DA7068
:104B90007B687922012199547B6841229A5C4221E9
:104BA000595C09020A434321595C09040A43442120
:104BB0005B5C1B06134318007B6849229A5C4A2100
:104BC000595C09020A434B21595C09040A434C21F0
:104BD0005B5C1B061343984248D90BF037FD7B689A
:104BE0005D229A5C5E21595C09020A435F21595C8F
:104BF00009040A4360215B5C1B061343C31A544A31
:104C00009A429B415B42DBB2002B2FD00BF01EFD82
:104C100002007B686133FF2111400C0019780020ED
:104C20000140081C211C01431970110AFF2001409A
:104C30000C00597800200140081C211C01435970C8
:104C4000110CFF2001400C00997800200140081C45
:104C5000211C01439970100EDA7800210A40111CC2
:104C6000021C0A43DA707B6804221A700BF0EEFC17
:104C70007B685D229A5C5E21595C09020A435F21D0
:104C8000595C09040A4360215B5C1B061343C21A8A
:104C90007B682121595C2220185C000201432320FB
:104CA000185C0004014324201B5C1B060B43934249
:104CB0009B415B42DBB2002B3ED07B6851229A5C69
:104CC0005221595C09020A435321595C09040A43E1
:104CD00054215B5C1B0613431A0004231A437B68B0
:104CE0005133FF2111400C00197800200140081CAD
:104CF000211C01431970110AFF2001400C00597852
:104D000000200140081C211C01435970110CFF2098
:104D100001400C00997800200140081C211C01432F
:104D20009970100EDA7800210A40111C021C0A4307
:104D3000DA707B6805221A707B6876229B5C002BF8
:104D400002D07B6805221A70C046BD4603B090BDF4
:104D5000B80B000090B585B000AF78607B68292261
:104D60009A5C2A21595C09020A432B21595C0904E7
:104D70000A432C215B5C1B0613431A007B684933F2
:104D8000FF2111400C00197800200140081C211C53
:104D900001431970110AFF2001400C0059780020CE
:104DA0000140081C211C01435970110CFF200140D7
:104DB0000C00997800200140081C211C01439970C7
:104DC000100EDA7800210A40111C021C0A43DA7026
:104DD0007B6878229B5C002B0BD07B6873229B5CEA
:104DE0001A0013005B019B1A9B009B18DB001A0042
:104DF00000E000227B684D33FF2111400C00197840
:104E000000200140081C211C01431970110AFF20D9
:104E100001400C00597800200140081C211C01436E
:104E20005970110CFF2001400C00997800200140BE
:104E3000081C211C01439970100EDA7800210A40E9
:104E4000111C021C0A43DA707B68792201219954F3
:104E50007B6841229A5C4221595C09020A43432142
:104E6000595C09040A4344215B5C1B061343180088
:104E70007B6849229A5C4A21595C09020A434B210A
:104E8000595C09040A434C215B5C1B061343C31A9B
:104E9000FB607B6845229A5C4621595C09020A4303
:104EA0004721595C09040A4348215B5C1B061343F4
:104EB00018007B6831229A5C3221595C09020A434E
:104EC0003321595C09040A4334215B5C1B061343FC
:104ED000984204D9FA68C8239B009A4217DD7B6880
:104EE00078229B5C012B12D12D4B1B780133DAB257
:104EF0002B4B1A702A4B1B78052B03D97B68062293
:104F00001A7008E07B6877220021995403E07B68DF
:104F10007722002199540BF099FB7B6861229A5CFF
:104F20006221595C09020A436321595C09040A435E
:104F300064215B5C1B061343C21A7B682D21595CFC
:104F40002E20185C000201432F20185C000401434E
:104F500030201B5C1B060B4393429B415B42DBB240
:104F6000002B11D00E4B1B780133DAB20C4B1A70A8
:104F70000B4B1B78052B03D97B6806221A7003E0C4
:104F80007B687722002199547B6876229B5C002BFA
:104F900002D07B6805221A70C046BD4605B090BDA0
:104FA0005C01002090B583B000AF78607B6818008A
:104FB00000F0D0FA0BF04AFB7B686D229A5C6E2100
:104FC000595C09020A436F21595C09040A437021A4
:104FD0005B5C1B061343C31A96229A429B415B42B9
:104FE000DBB2002B2CD00BF031FB02007B686D3361
:104FF000FF2111400C00197800200140081C211CE1
:1050000001431970110AFF2001400C00597800205B
:105010000140081C211C01435970110CFF20014064
:105020000C00997800200140081C211C0143997054
:10503000100EDA7800210A40111C021C0A43DA70B3
:10504000C046BD4603B090BD80B582B000AF786069
:105050000F4B1B78002B07D10D4B01221A700BF060
:10506000F5FA02000B4B1A607B68772201219954F4
:105070007B687822002199547B6879220021995419
:105080007B687A2200219954C046BD4602B080BD9B
:105090005D0100206001002090B583B000AF786012
:1050A0007B681B78002B00D13CE17B681B78042BCC
:1050B00000D937E17B683D229A5C3E21595C0902A8
:1050C0000A433F21595C09040A4340215B5C1B06EB
:1050D0001343F53BFF3B1A007B683D33FF21114032
:1050E0000C00197800200140081C211C0143197094
:1050F000110AFF2001400C00597800200140081CD3
:10510000211C01435970110CFF2001400C009978BB
:1051100000200140081C211C01439970100EDA7810
:1051200000210A40111C021C0A43DA707B683D22F0
:105130009A5C3E21595C09020A433F21595C0904EB
:105140000A4340215B5C1B0613431A007B6829332A
:10515000FF2111400C00197800200140081C211C7F
:1051600001431970110AFF2001400C0059780020FA
:105170000140081C211C01435970110CFF20014003
:105180000C00997800200140081C211C01439970F3
:10519000100EDA7800210A40111C021C0A43DA7052
:1051A0007B683D229A5C3E21595C09020A433F21FB
:1051B000595C09040A4340215B5C1B0613431A0037
:1051C0007B681133FF2111400C0019780020014049
:1051D000081C211C01431970110AFF2001400C001A
:1051E000597800200140081C211C01435970110C02
:1051F000FF2001400C00997800200140081C211C70
:1052000001439970100EDA7800210A40111C021C2B
:105210000A43DA707B683D229A5C3E21595C0902A0
:105220000A433F21595C09040A4340215B5C1B0689
:1052300013431A007B681D33FF2111400C001978BD
:1052400000200140081C211C01431970110AFF2095
:1052500001400C00597800200140081C211C01432A
:105260005970110CFF2001400C009978002001407A
:10527000081C211C01439970100EDA7800210A40A5
:10528000111C021C0A43DA707B6835229A5C3621B5
:10529000595C09020A433721595C09040A43382141
:1052A0005B5C1B0613431A00204B9A4236D8204BF6
:1052B0001B78BFF35B8FDBB21A00012313405A4205
:1052C0005341DBB2002B12D0194B180015F09BFB99
:1052D00003005A1E9341DBB2002B08D00BF0B6F945
:1052E0000200144B1A60124B180015F099FB114B79
:1052F0001B68114A9C180BF0A9F903009C429B41C2
:105300005B42DBB2002B04D07B68782200219954E9
:1053100008E07B6878220121995403E07B687822B9
:1053200001219954C046BD4603B090BD9F8601003F
:1053300068010020640100208813000090B585B04A
:1053400000AF78607B681B78012B00D8B9E07B68E0
:105350001B78042B00D9B4E07B6849229A5C4A216F
:10536000595C09020A434B21595C09040A434C2148
:105370005B5C1B06134313D17B684D229A5C4E2164
:10538000595C09020A434F21595C09040A43502120
:105390005B5C1B06134303D16A4B00221A6090E04A
:1053A0007B6849229A5C4A21595C09020A434B21D5
:1053B000595C09040A434C215B5C1B06134318002B
:1053C0007B684D229A5C4E21595C09020A434F21A9
:1053D000595C09040A4350215B5C1B061343434399
:1053E000FA2291001800FAF78FFE0300FB60FB68B9
:1053F000554A934265D9554B1B78BFF35B8FDBB29F
:105400001A00012313405A425341DBB2002B12D041
:105410004E4B180015F0F7FA03005A1E9341DBB209
:10542000002B08D00BF012F90200494B1A60474BD1
:10543000180015F0F5FA464B1B68FA22D2009C18AA
:105440000BF004F903009C429B415B42DBB2002B52
:1054500037D07B6849229A5C4A21595C09020A4389
:105460004B21595C09040A434C215B5C1B06134326
:10547000013319003448FAF747FE0300BB60BA68ED
:1054800013005B019B1A9B009B18DB0018007B68D4
:105490004D229A5C4E21595C09020A434F21595C06
:1054A00009040A4350215B5C1B061343C21A254BB7
:1054B0001B68D218234B1A600BF0C8F80200244B6B
:1054C0001A607B684D229A5C4E21595C09020A439E
:1054D0004F21595C09040A4350215B5C1B061343AE
:1054E0001A00184B1B68D21A7B684D33FF211140FC
:1054F0000C00197800200140081C211C0143197080
:10550000110AFF2001400C00597800200140081CBE
:10551000211C01435970110CFF2001400C009978A7
:1055200000200140081C211C01439970100EDA78FC
:1055300000210A40111C021C0A43DA70C046BD4615
:1055400005B090BD6C010020804F12007401002056
:105550007001002080B582B000AF78607B6849336D
:105560001A7800210A401A705A7800210A405A70AD
:105570009A7800210A409A70DA7800210A40DA709D
:105580007B684D331A7800210A401A705A7800213E
:105590000A405A709A7800210A409A70DA780021FD
:1055A0000A40DA70C046BD4602B080BD80B582B008
:1055B00000AF786007F0CEFB064B0021180010F01A
:1055C00009FE044B0821180010F004FEC046BD4639
:1055D00002B080BD202A002080B586B000AFF86000
:1055E000B960FB1D1A701623FB1800221A80FB1DE0
:1055F0001B78032B02DC002B03DC20E0042B0FD0F4
:105600001DE0BA6813001B019B18DB00134918004A
:10561000FAF77AFD03001A001623FB181A8013E02C
:10562000BA6813001B019B18DB000C491800FAF73D
:105630006BFD03001A001623FB181A8004E01623E2
:10564000FB1800221A80C0468023DB051622BA18F8
:105650001288DA63C046BD4606B080BD1027000040
:1056600090B585B000AF786039600E243B190022F8
:105670001A803A6813001B019B18DB0008491800C8
:10568000FAF742FD03001A003B191A808023DB055C
:105690003A191288DA63C046BD4605B090BDC046CF
:1056A0001027000090B587B000AFF860B960FB1D0F
:1056B0001A7016243B1900221A80FB1D1B78012B3F
:1056C00017D1B868FDF7E6FB0F4A104BFCF77EFDDB
:1056D00002000B001000190000220D4BFCF774F9BA
:1056E00002000B003C1910001900FAF713FF030029
:1056F00023808023DB051622BA1812885A63C0461D
:10570000BD4607B090BDC046CDCCCCCCCC0C5240F1
:105710000088C34090B587B000AFF860B960FB1D4A
:105720001A701623FB1800221A80FB1D1B78032B0E
:1057300002DC002B03DC46E0042B2AD043E0FB68AC
:105740001A78597809020A43997809040A43DB78E0
:105750001B061343FA22D20094466344BB60B86828
:10576000FDF798FB1F4A204BFCF730FD02000B00B1
:105770001000190000221D4BFCF726F902000B0057
:1057800016217C1810001900FAF7C4FE03002380CC
:105790001EE0B868FDF77EFB124A134BFCF716FDBE
:1057A00002000B00100019000022104BFCF70CF94E
:1057B00002000B0016217C1810001900FAF7AAFE4F
:1057C0000300238004E01623FB1800221A80C04641
:1057D0008023DB051622BA1812885A63C046BD46DC
:1057E00007B090BDCDCCCCCCCC0C52400088C3408F
:1057F00080B582B000AF0200FB1D1A70FB1D1B7844
:10580000002B07D10B4B18680B490023102200F026
:10581000EDFA0AE0FB1D1B78012B06D1054B186839
:1058200005490123102200F0E1FAC046BD4602B04E
:1058300080BDC046780100200004005080B582B0D1
:1058400000AF0200FB1D1A70FB1D1B78002B07D157
:105850000B4B18680B490023082200F0C7FA0AE036
:10586000FB1D1B78012B06D1054B18680549012348
:10587000082200F0BBFAC046BD4602B080BDC0465B
:10588000780100200004005080B582B000AFFB1DFD
:1058900000221A70084B1B6808491022180000F0FB
:1058A000BCFA03001A00FB1D1A70FB1D1B781800C0
:1058B000BD4602B080BDC046780100200004005003
:1058C00080B586B004AF78603960104B3A681A60D2
:1058D0007B6800221A717B6801221A740C4B0393B7
:1058E0000C4B02930C4B01936A230093012300227B
:1058F0000021202002F0CCFC682002F047FE6A2044
:1059000002F044FEC046BD4602B080BD78010020D2
:10591000895800083D580008F157000890B583B039
:1059200000AF78607B681B79012B55D17B68012221
:10593000DA717B681A7A597A09020A43997A09045A
:105940000A43DB7A1B06134318007B681A7B597BDA
:1059500009020A43997B09040A43DB7B1B061343B4
:10596000C4180AF073FE0300A3429B415B42DBB202
:10597000002B2BD01A4B1B78180002F039FD0AF0CF
:1059800065FE0200174B1B6893429B415B42DBB2F2
:10599000002B21D07B685B791900682002F090FD14
:1059A0007B689B7919006A2002F036FD0AF04EFEF2
:1059B0000300FA2292009A180A4B1A60084B1B78CF
:1059C00001225340DAB2064B1A7005E07B680022D0
:1059D000DA717B6800221A71C046BD4603B090BDE3
:1059E000000000207C010020F0B585B000AF786099
:1059F0000A00FB1C1A70254B1B78180002F0F8FCFB
:105A00000AF024FE0200224B1B6893429B415B423A
:105A1000DBB2002B36D0FA1CFB1C1B78D9B26329F1
:105A200000D9632313700F257C19FB1C1B780A21F6
:105A30001800FAF7EFFB0B0023700E26BC19FB1CB5
:105A40001B780A211800FAF75FFB030023707B190B
:105A50001B7819006A2002F0DFFCBB191B781900C3
:105A6000682002F0D9FC094B1B7801225340DAB2BE
:105A7000064B1A700AF0EAFD0300FA2292009A1807
:105A8000034B1A60C046BD4605B0F0BD01000020C2
:105A90008001002080B582B000AF78600A00FB1C56
:105AA0001A700AF0D3FD02001A4B1B6893429B4107
:105AB0005B42DBB2002B28D0174B1B78180002F09A
:105AC00097FCFB1C1B78002B08D14F21682002F0AB
:105AD000F7FC50216A2002F0F3FC07E04421682023
:105AE00002F0EEFC46216A2002F0EAFC0A4B1B7829
:105AF00001225340DAB2084B1A700AF0A7FD0300E6
:105B0000FA2292009A18034B1A60C046BD4602B0B2
:105B100080BDC046840100200200002090B585B001
:105B200000AFF860080011007B600B243B19021CD9
:105B30001A700A203B180A1C1A70FB683A1912786E
:105B40005A71FB683A1812789A71FB683A1D1078FE
:105B50001A7B00210A40111C021C0A431A737A1D89
:105B600010785A7B00210A40111C021C0A435A7308
:105B7000BA1D10789A7B00210A40111C021C0A43AE
:105B80009A73FA1D1078DA7B00210A40111C021C5E
:105B90000A43DA73FB6801221A71FB680122DA7189
:105BA0000AF054FD0200FB68FF2111400C00197A35
:105BB00000200140081C211C01431972110AFF201A
:105BC00001400C00597A00200140081C211C0143AF
:105BD0005972110CFF2001400C00997A00200140FD
:105BE000081C211C01439972100EDA7A00210A4028
:105BF000111C021C0A43DA72C046BD4605B090BDB6
:105C000080B582B000AF7860154B1B78180002F0A9
:105C1000EFFB0AF01BFD0200124B1B6893429B41F5
:105C20005B42DBB2002B16D04621682002F048FC14
:105C300043216A2002F044FC094B1B7801225340A7
:105C4000DAB2074B1A700AF001FD0300FA22920043
:105C50009A18044B1A60C046BD4602B080BDC046CB
:105C6000030000208801002080B582B000AF78607A
:105C700007F058F9C046BD4602B080BD80B582B07D
:105C800000AF7860034B180010F06CF8C046BD46BA
:105C900002B080BD042B002080B582B000AF7860D8
:105CA000034B180010F008F9C046BD4602B080BD95
:105CB000042B002080B582B000AF7860080011008E
:105CC000FB1C021C1A70BB1C0A1C1A707B681B7818
:105CD000FA1C12789A4203D37B681B78FF2B1AD1E7
:105CE000BB1C1B78012B0ED17B68FA1C12781A7032
:105CF0007B681A787B68DA707B6801229A707B680F
:105D000001225A7022E07B685B78002B1ED17B68F1
:105D1000FF221A701AE07B681B78FA1C12789A42EC
:105D200015D1BB1C1B78002B11D17B6800225A7047
:105D30007B68FF221A707B680022DA707B68002281
:105D40009A707B681800FFF7A7FF00E0C046C046C6
:105D5000BD4602B080BD80B582B000AF78607B6880
:105D60001B78FF2B3ED07B685B78012B3AD17B6898
:105D70001B78042B0CD032DC002B04D02FDB013B32
:105D8000012B2CD804E07B681800FFF777FF29E08F
:105D90007B68DB78002B0AD17B681A787B68DA7025
:105DA0007B689B7801225340DAB27B689A707B68EB
:105DB000DB78002B15D07B689B78012B04D17B68A6
:105DC0001800FFF75BFF03E07B681800FFF764FF34
:105DD0007B68DB78013BDAB27B68DA7001E0C046B1
:105DE00000E0C046C046BD4602B080BD80B584B06C
:105DF00000AFF860B9601900BB1D1A807B1D0A1C3A
:105E00001A707B1D1A78BB1D1988BB6818000EF02C
:105E1000D5F9C046BD4604B080BD80B584B000AFA2
:105E2000F860B960BB1D1A80BB1D1A88BB681100E1
:105E300018000EF093F903005A1E9341DBB21800CC
:105E4000BD4604B080BD80B584B000AFF860B960D5
:105E5000BB1D1A80BB1D1A88BB68110018000EF00C
:105E6000EDF9C046BD4604B080BD000080B582B0EB
:105E700000AF786039607B683A0010781A780021AA
:105E80000A40111C021C0A431A707A1C10785A78B6
:105E900000210A40111C021C0A435A70BA1C1078D7
:105EA0009A7800210A40111C021C0A439A70FA1CBD
:105EB0001078DA7800210A40111C021C0A43DA70BB
:105EC0007B681A78597809020A43997809040A43C9
:105ED000DB781B0613431A00024B1A60C046BD460E
:105EE00002B080BD8C01002080B582B000AF786028
:105EF0007B683B22002199547B683C220021995405
:105F00007B683D22002199547B683E2200219954F0
:105F10007B683522002199547B68362200219954F0
:105F20007B683722002199547B68382200219954DC
:105F30007B683922002199547B683A2200219954C8
:105F4000804B00221A607B681A7800210A401A7080
:105F50005A7800210A405A709A7800210A409A70B3
:105F6000DA7800210A40DA707B682422995C0020EC
:105F7000014099542522995C002001409954262221
:105F8000995C0020014099542722995C002001402F
:105F900099547B682822995C002001409954292259
:105FA000995C0020014099542A22995C002001400C
:105FB00099542B22995C0020014099547B681A79EE
:105FC00000210A401A715A7900210A405A719A79BF
:105FD00000210A409A71DA7900210A40DA717B685F
:105FE0001A7A00210A401A725A7A00210A405A721B
:105FF0009A7A00210A409A72DA7A00210A40DA720B
:106000007B681A7B00210A401A735A7B00210A40E0
:106010005A739A7B00210A409A73DA7B00210A4066
:10602000DA737B681A7D00210A401A755A7D0021B7
:106030000A405A759A7D00210A409A75DA7D00213E
:106040000A40DA757B681A7E00210A40111C602222
:1060500052420A431A765A7E00210A40111C10222D
:1060600052420A435A769A7E00210A409A76DA7E94
:1060700000210A40DA767B681A7F00210A40111C51
:10608000142252420A431A775A7F00210A40111CF7
:10609000702252420A435A779A7F00210A409A7727
:1060A000DA7F00210A40DA777B682022995C0020A1
:1060B0000140081C58214942014399542122995C0E
:1060C00000200140081C6121014399542222995C5F
:1060D0000020014099542322995C002001409954EA
:1060E0007B682C22995C00200140081C642101433C
:1060F00099542D22995C0020014099542E22995CDC
:106100000020014099542F22995C002001409954AD
:106110007B683022995C0020014099543122995CBF
:106120000020014099543222995C0020014099548A
:106130003322995C002001409954C046BD4602B00C
:1061400080BDC0468C01002080B582B000AF786071
:106150007B68180001F07EFD7B68180000F014F9E0
:106160007B68180000F00CFA7B68180000F004FB54
:106170007B68180000F0C8FD7B68180000F0EAFC9E
:106180007B68180000F0C8FE7B68180000F018F863
:106190007B68180001F020F97B68180001F048FACC
:1061A0007B68180001F070FB7B68180001F060FC50
:1061B0007B68180000F0AAFFC046BD4602B080BD53
:1061C00090B583B000AF78607B683D229B5C012B6B
:1061D00000D0CDE07B6837229B5C012B00D08AE0A9
:1061E000654B1B78002B07D1634B01221A700AF014
:1061F0002DFA0200614B1A60604B1B68604A9C18C4
:106200000AF024FA03009C429B415B42DBB2002B64
:1062100000D1ADE07B681A7D597D09020A43997D62
:1062200009040A43DB7D1B0613431A0080235B002D
:106230001A437B68FF2111400C00197D00200140AA
:10624000081C211C01431975110AFF2001400C0094
:10625000597D00200140081C211C01435975110C77
:10626000FF2001400C00997D00200140081C211CEA
:1062700001439975100EDA7D00210A40111C021CA1
:106280000A43DA757B681A7D597D09020A43997DB4
:1062900009040A43DB7D1B0613431A0080235B05B8
:1062A0001A437B68FF2111400C00197D002001403A
:1062B000081C211C01431975110AFF2001400C0024
:1062C000597D00200140081C211C01435975110C07
:1062D000FF2001400C00997D00200140081C211C7A
:1062E00001439975100EDA7D00210A40111C021C31
:1062F0000A43DA753CE0204B00221A701F4B002243
:106300001A607B681A7D597D09020A43997D090448
:106310000A43DB7D1B0613431A001A4B1A407B68A5
:10632000FF2111400C00197D00200140081C211C98
:1063300001431975110AFF2001400C00597D00200E
:106340000140081C211C01435975110CFF2001401C
:106350000C00997D00200140081C211C0143997507
:10636000100EDA7D00210A40111C021C0A43DA7566
:10637000C046BD4603B090BD9401002090010020AE
:1063800088130000FFFEFFFF90B583B000AF786078
:106390007B681A78597809020A43997809040A43F4
:1063A000DB781B0613431A006F4B9A4200D88AE031
:1063B0006E4B1B78002B07D10AF048F902006C4B9A
:1063C0001A606A4B01221A70694B1B68694A9C1853
:1063D0000AF03CF903009C429B415B42DBB2002B7C
:1063E00000D1BCE07B681A7D597D09020A43997D82
:1063F00009040A43DB7D1B0613431A0080239B001C
:106400001A437B68FF2111400C00197D00200140D8
:10641000081C211C01431975110AFF2001400C00C2
:10642000597D00200140081C211C01435975110CA5
:10643000FF2001400C00997D00200140081C211C18
:1064400001439975100EDA7D00210A40111C021CCF
:106450000A43DA757B681A7D597D09020A43997DE2
:1064600009040A43DB7D1B0613431A0080235B05E6
:106470001A437B68FF2111400C00197D0020014068
:10648000081C211C01431975110AFF2001400C0052
:10649000597D00200140081C211C01435975110C35
:1064A000FF2001400C00997D00200140081C211CA8
:1064B00001439975100EDA7D00210A40111C021C5F
:1064C0000A43DA754BE07B681A78597809020A4367
:1064D000997809040A43DB781B0613431A00264BFC
:1064E0009A423CD8224B00221A607B681A7D597D63
:1064F00009020A43997D09040A43DB7D1B06134305
:106500001A001E4B1A407B68FF2111400C00197DB8
:1065100000200140081C211C01431975110AFF20AD
:1065200001400C00597D00200140081C211C014342
:106530005975110CFF2001400C00997D002001408D
:10654000081C211C01439975100EDA7D00210A40B8
:10655000111C021C0A43DA75044B00221A70C04653
:10656000BD4603B090BDC046F0BA04009C010020B7
:10657000980100208813000058800400FFFDFFFFF1
:1065800090B583B000AF78607B681A7859780902BB
:106590000A43997809040A43DB781B0613431A005F
:1065A0006F4B9A4200D98AE06E4B1B78002B07D1C3
:1065B0000AF04CF802006C4B1A606A4B01221A7008
:1065C000694B1B68694A9C180AF040F803009C421A
:1065D0009B415B42DBB2002B00D1BCE07B681A7DA3
:1065E000597D09020A43997D09040A43DB7D1B0694
:1065F00013431A0080231B011A437B68FF211140BB
:106600000C00197D00200140081C211C0143197554
:10661000110AFF2001400C00597D00200140081C98
:10662000211C01435975110CFF2001400C00997D7C
:1066300000200140081C211C01439975100EDA7DD1
:1066400000210A40111C021C0A43DA757B681A7D7E
:10665000597D09020A43997D09040A43DB7D1B0623
:1066600013431A0080235B051A437B68FF21114006
:106670000C00197D00200140081C211C01431975E4
:10668000110AFF2001400C00597D00200140081C28
:10669000211C01435975110CFF2001400C00997D0C
:1066A00000200140081C211C01439975100EDA7D61
:1066B00000210A40111C021C0A43DA754BE07B687A
:1066C0001A78597809020A43997809040A43DB7851
:1066D0001B0613431A00264B9A423CD9214B002239
:1066E0001A70214B00221A607B681A7D597D0902BD
:1066F0000A43997D09040A43DB7D1B0613431A00F4
:106700001C4B1A407B68FF2111400C00197D0020B2
:106710000140081C211C01431975110AFF2001408A
:106720000C00597D00200140081C211C01435975B3
:10673000110CFF2001400C00997D00200140081C35
:10674000211C01439975100EDA7D00210A40111CAD
:10675000021C0A43DA75C046BD4603B090BDC04670
:10676000AFAD0100A4010020A001002088130000AB
:10677000BFD40100FFF7FFFF90B583B000AF786092
:106780007B683D229B5C012B00D0FDE07B683E22B4
:106790009B5C012B00D0F7E07B681A7A597A0902DA
:1067A0000A43997A09040A43DB7A1B06134318004B
:1067B0007B681A7E597E09020A43997E09040A43BE
:1067C000DB7E1B061343F533FF33984200D89CE071
:1067D0007B681A7B597B09020A43997B09040A43A7
:1067E000DB7B1B0613431A00FA23DB009A4200D816
:1067F0008BE0D44B1B78002B07D1D24B01221A70AF
:1068000009F024FF0200D04B1A60CF4B1B68FA221C
:10681000D2009C1809F01AFF03009C429B415B4286
:10682000DBB2002B00D1AEE07B681A7D597D0902F6
:106830000A43997D09040A43DB7D1B0613431A00B2
:1068400080235B021A437B68FF2111400C00197DF5
:1068500000200140081C211C01431975110AFF206A
:1068600001400C00597D00200140081C211C0143FF
:106870005975110CFF2001400C00997D002001404A
:10688000081C211C01439975100EDA7D00210A4075
:10689000111C021C0A43DA757B681A7D597D0902B6
:1068A0000A43997D09040A43DB7D1B0613431A0042
:1068B00080235B051A437B68FF2111400C00197D82
:1068C00000200140081C211C01431975110AFF20FA
:1068D00001400C00597D00200140081C211C01438F
:1068E0005975110CFF2001400C00997D00200140DA
:1068F000081C211C01439975100EDA7D00210A4005
:10690000111C021C0A43DA753DE08E4B00221A70FE
:106910008D4B00221A607B681A7D597D09020A435B
:10692000997D09040A43DB7D1B0613431A00874B3C
:106930001A407B68FF2111400C00197D00200140A6
:10694000081C211C01431975110AFF2001400C008D
:10695000597D00200140081C211C01435975110C70
:10696000FF2001400C00997D00200140081C211CE3
:1069700001439975100EDA7D00210A40111C021C9A
:106980000A43DA75DAE0D9E07B681A7A597A0902A3
:106990000A43997A09040A43DB7A1B0613431A0057
:1069A0006B4B9A4200D88BE0664B1B78002B07D1CB
:1069B000644B01221A7009F049FE0200624B1A6012
:1069C000614B1B68FA22D2009C1809F03FFE0300BD
:1069D0009C429B415B42DBB2002B00D1AEE07B6866
:1069E0001A7D597D09020A43997D09040A43DB7D1A
:1069F0001B0613431A0080235B021A437B68FF21A6
:106A000011400C00197D00200140081C211C01438D
:106A10001975110AFF2001400C00597D002001402A
:106A2000081C211C01435975110CFF2001400C006A
:106A3000997D00200140081C211C01439975100E0E
:106A4000DA7D00210A40111C021C0A43DA757B68BA
:106A50001A7D597D09020A43997D09040A43DB7DA9
:106A60001B0613431A0080235B051A437B68FF2132
:106A700011400C00197D00200140081C211C01431D
:106A80001975110AFF2001400C00597D00200140BA
:106A9000081C211C01435975110CFF2001400C00FA
:106AA000997D00200140081C211C01439975100E9E
:106AB000DA7D00210A40111C021C0A43DA753DE010
:106AC000204B00221A70204B00221A607B681A7D2E
:106AD000597D09020A43997D09040A43DB7D1B069F
:106AE00013431A00194B1A407B68FF2111400C0018
:106AF000197D00200140081C211C01431975110A51
:106B0000FF2001400C00597D00200140081C211C81
:106B100001435975110CFF2001400C00997D0020A4
:106B20000140081C211C01439975100EDA7D0021DB
:106B30000A40111C021C0A43DA75FFE7C046BD4635
:106B400003B090BDAC010020A8010020FFFFFEFFB4
:106B5000A086010090B583B000AF78607B683522D5
:106B60009B5C012B00D08AE0654B1B78002B07D182
:106B7000634B01221A7009F069FD0200614B1A6033
:106B8000604B1B68FA22D2009C1809F05FFD0300DD
:106B90009C429B415B42DBB2002B00D1ACE07B68A6
:106BA0001A7D597D09020A43997D09040A43DB7D58
:106BB0001B0613431A0040231A437B68FF21114030
:106BC0000C00197D00200140081C211C014319758F
:106BD000110AFF2001400C00597D00200140081CD3
:106BE000211C01435975110CFF2001400C00997DB7
:106BF00000200140081C211C01439975100EDA7D0C
:106C000000210A40111C021C0A43DA757B681A7DB8
:106C1000597D09020A43997D09040A43DB7D1B065D
:106C200013431A0080235B051A437B68FF21114040
:106C30000C00197D00200140081C211C014319751E
:106C4000110AFF2001400C00597D00200140081C62
:106C5000211C01435975110CFF2001400C00997D46
:106C600000200140081C211C01439975100EDA7D9B
:106C700000210A40111C021C0A43DA753CE0204B3B
:106C800000221A701F4B00221A607B681A7D597D02
:106C900009020A43997D09040A43DB7D1B0613435D
:106CA0001A0040239A437B68FF2111400C00197D94
:106CB00000200140081C211C01431975110AFF2006
:106CC00001400C00597D00200140081C211C01439B
:106CD0005975110CFF2001400C00997D00200140E6
:106CE000081C211C01439975100EDA7D00210A4011
:106CF000111C021C0A43DA75C046BD4603B090BDA4
:106D0000B4010020B001002090B583B000AF7860DE
:106D10007B683D229B5C012B00D0F2E07B681A7AF5
:106D2000597A09020A43997A09040A43DB7A1B0655
:106D3000134318007B681A7F597F09020A43997F21
:106D400009040A43DB7F1B061343984200D39AE0F1
:106D50007B681A7A597A09020A43997A09040A4324
:106D6000DB7A1B0613431A00684B9A4200D88AE06C
:106D7000674B1B78002B07D1654B01221A7009F075
:106D800065FC0200634B1A60624B1B68FA22D2005A
:106D90009C1809F05BFC03009C429B415B42DBB208
:106DA000002B00D1ADE07B681A7D597D09020A43B2
:106DB000997D09040A43DB7D1B0613431A00202337
:106DC0001A437B68FF2111400C00197D002001400F
:106DD000081C211C01431975110AFF2001400C00F9
:106DE000597D00200140081C211C01435975110CDC
:106DF000FF2001400C00997D00200140081C211C4F
:106E000001439975100EDA7D00210A40111C021C05
:106E10000A43DA757B681A7D597D09020A43997D18
:106E200009040A43DB7D1B0613431A0080235B051C
:106E30001A437B68FF2111400C00197D002001409E
:106E4000081C211C01431975110AFF2001400C0088
:106E5000597D00200140081C211C01435975110C6B
:106E6000FF2001400C00997D00200140081C211CDE
:106E700001439975100EDA7D00210A40111C021C95
:106E80000A43DA753DE0224B00221A70214B0022A2
:106E90001A607B681A7D597D09020A43997D0904AD
:106EA0000A43DB7D1B0613431A0020239A437B68A9
:106EB000FF2111400C00197D00200140081C211CFD
:106EC00001431975110AFF2001400C00597D002073
:106ED0000140081C211C01435975110CFF20014081
:106EE0000C00997D00200140081C211C014399756C
:106EF000100EDA7D00210A40111C021C0A43DA75CB
:106F0000FFE7C046BD4603B090BDC046204E00001E
:106F1000BC010020B801002090B583B000AF7860BC
:106F20007B683D229B5C012B00D0E2E07B681A7BF2
:106F3000597B09020A43997B09040A43DB7B1B0640
:106F4000134319007B6834229B5C1A0013005B0119
:106F50009B1A9B009B18DB00F533FF33994200D846
:106F60008AE0664B1B78002B07D1644B01221A7014
:106F700009F06CFB0200624B1A60614B1B68614AAE
:106F80009C1809F063FB03009C429B415B42DBB20F
:106F9000002B00D1ADE07B681A7D597D09020A43C0
:106FA000997D09040A43DB7D1B0613431A008023E5
:106FB0005B031A437B68FF2111400C00197D002000
:106FC0000140081C211C01431975110AFF200140D2
:106FD0000C00597D00200140081C211C01435975FB
:106FE000110CFF2001400C00997D00200140081C7D
:106FF000211C01439975100EDA7D00210A40111CF5
:10700000021C0A43DA757B681A7D597D09020A431E
:10701000997D09040A43DB7D1B0613431A00802374
:107020005B051A437B68FF2111400C00197D00208D
:107030000140081C211C01431975110AFF20014061
:107040000C00597D00200140081C211C014359758A
:10705000110CFF2001400C00997D00200140081C0C
:10706000211C01439975100EDA7D00210A40111C84
:10707000021C0A43DA753CE0204B00221A70204BB8
:1070800000221A607B681A7D597D09020A43997DA6
:1070900009040A43DB7D1B0613431A001A4B1A40EE
:1070A0007B68FF2111400C00197D00200140081C65
:1070B000211C01431975110AFF2001400C00597D64
:1070C00000200140081C211C01435975110CFF20B0
:1070D00001400C00997D00200140081C211C014347
:1070E0009975100EDA7D00210A40111C021C0A431A
:1070F000DA75C046BD4603B090BDC046C40100204D
:10710000C001002088130000FFFFEFFF90B583B09F
:1071100000AF78607B683D229B5C012B00D049E189
:107120007B683E229B5C012B00D043E17B681A7A8E
:10713000597A09020A43997A09040A43DB7A1B0641
:1071400013431A009D4B9A4219D97B681A7A597ACF
:1071500009020A43997A09040A43DB7A1B0613439E
:1071600018007B681A7C597C09020A43997C09043F
:107170000A43DB7C1B061343984200D297E07B68EE
:107180001A7B597B09020A43997B09040A43DB7B7A
:107190001B0613431A00FA235B009A4200D386E0D1
:1071A000874B1B78002B07D1854B01221A7009F001
:1071B0004DFA0200834B1A60824B1B689C1C09F03D
:1071C00045FA03009C429B415B42DBB2002B6ED030
:1071D0007B681A7D597D09020A43997D09040A4397
:1071E000DB7D1B0613431A0080231A437B68FF21B3
:1071F00011400C00197D00200140081C211C014396
:107200001975110AFF2001400C00597D0020014032
:10721000081C211C01435975110CFF2001400C0072
:10722000997D00200140081C211C01439975100E16
:10723000DA7D00210A40111C021C0A43DA757B68C2
:107240001A7D597D09020A43997D09040A43DB7DB1
:107250001B0613431A0080235B051A437B68FF213A
:1072600011400C00197D00200140081C211C014325
:107270001975110AFF2001400C00597D00200140C2
:10728000081C211C01435975110CFF2001400C0002
:10729000997D00200140081C211C01439975100EA6
:1072A000DA7D00210A40111C021C0A43DA757B6852
:1072B0001A7D597D09020A43997D09040A43DB7D41
:1072C0001B0613431A008023134073D07B681A7A7D
:1072D000597A09020A43997A09040A43DB7A1B06A0
:1072E00013431A00354B9A4264D97B681A7A597A4B
:1072F00009020A43997A09040A43DB7A1B061343FD
:107300001A00314B9A4255D8304B1B78002B07D1CD
:107310002E4B01221A7009F099F902002C4B1A60C9
:107320002B4B1B682B4A9C1809F090F903009C42D8
:107330009B415B42DBB2002B3CD0244B00221A70F5
:10734000234B00221A607B681A7D597D09020A438B
:10735000997D09040A43DB7D1B0613431A00802331
:107360009A437B68FF2111400C00197D00200140E9
:10737000081C211C01431975110AFF2001400C0053
:10738000597D00200140081C211C01435975110C36
:10739000FF2001400C00997D00200140081C211CA9
:1073A00001439975100EDA7D00210A40111C021C60
:1073B0000A43DA75C046BD4603B090BD1F4E0000BB
:1073C000CC010020C801002030F20000D4010020D0
:1073D000D0010020581B000090B583B000AF78604A
:1073E0007B683D229B5C012B00D0D3E07B683E2272
:1073F0009B5C012B00D0CDE07B6838229B5C012B8D
:1074000000D089E0874B1B78002B07D1854B0122E8
:107410001A7009F01BF90200834B1A60824B1B683B
:10742000824A9C1809F012F903009C429B415B427E
:10743000DBB2002B00D1F0E07B681A7D597D090298
:107440000A43997D09040A43DB7D1B0613431A0096
:1074500008231A437B68FF2111400C00197D00208E
:107460000140081C211C01431975110AFF2001402D
:107470000C00597D00200140081C211C0143597556
:10748000110CFF2001400C00997D00200140081CD8
:10749000211C01439975100EDA7D00210A40111C50
:1074A000021C0A43DA757B681A7D597D09020A437A
:1074B000997D09040A43DB7D1B0613431A008023D0
:1074C0005B051A437B68FF2111400C00197D0020E9
:1074D0000140081C211C01431975110AFF200140BD
:1074E0000C00597D00200140081C211C01435975E6
:1074F000110CFF2001400C00997D00200140081C68
:10750000211C01439975100EDA7D00210A40111CDF
:10751000021C0A43DA7580E0424B00221A70424B8B
:1075200000221A607B681A7D597D09020A43997D01
:1075300009040A43DB7D1B0613431A0008239A4300
:107540007B68FF2111400C00197D00200140081CC0
:10755000211C01431975110AFF2001400C00597DBF
:1075600000200140081C211C01435975110CFF200B
:1075700001400C00997D00200140081C211C0143A2
:107580009975100EDA7D00210A40111C021C0A4375
:10759000DA7542E07B6838229B5C002B3ED1214BA0
:1075A00000221A70204B00221A607B681A7D597DD8
:1075B00009020A43997D09040A43DB7D1B06134334
:1075C0001A0008239A437B68FF2111400C00197DA3
:1075D00000200140081C211C01431975110AFF20DD
:1075E00001400C00597D00200140081C211C014372
:1075F0005975110CFF2001400C00997D00200140BD
:10760000081C211C01439975100EDA7D00210A40E7
:10761000111C021C0A43DA7500E0C046C046BD4694
:1076200003B090BDDC010020D801002088130000C9
:1076300090B583B000AF78607B683D229B5C012BE6
:1076400000D0D3E07B683E229B5C012B00D0CDE0D4
:107650007B6839229B5C012B00D089E0874B1B782B
:10766000002B07D1854B01221A7008F0EFFF0200B2
:10767000834B1A60824B1B68824A9C1808F0E6FF15
:1076800003009C429B415B42DBB2002B00D1F0E047
:107690007B681A7D597D09020A43997D09040A43D2
:1076A000DB7D1B0613431A0010231A437B68FF215E
:1076B00011400C00197D00200140081C211C0143D1
:1076C0001975110AFF2001400C00597D002001406E
:1076D000081C211C01435975110CFF2001400C00AE
:1076E000997D00200140081C211C01439975100E52
:1076F000DA7D00210A40111C021C0A43DA757B68FE
:107700001A7D597D09020A43997D09040A43DB7DEC
:107710001B0613431A0080235B051A437B68FF2175
:1077200011400C00197D00200140081C211C014360
:107730001975110AFF2001400C00597D00200140FD
:10774000081C211C01435975110CFF2001400C003D
:10775000997D00200140081C211C01439975100EE1
:10776000DA7D00210A40111C021C0A43DA7580E010
:10777000424B00221A70424B00221A607B681A7D2D
:10778000597D09020A43997D09040A43DB7D1B06E2
:1077900013431A0010239A437B68FF2111400C0009
:1077A000197D00200140081C211C01431975110A94
:1077B000FF2001400C00597D00200140081C211CC5
:1077C00001435975110CFF2001400C00997D0020E8
:1077D0000140081C211C01439975100EDA7D00211F
:1077E0000A40111C021C0A43DA7542E07B68392208
:1077F0009B5C002B3ED1214B00221A70204B0022B3
:107800001A607B681A7D597D09020A43997D090433
:107810000A43DB7D1B0613431A0010239A437B683F
:10782000FF2111400C00197D00200140081C211C83
:1078300001431975110AFF2001400C00597D0020F9
:107840000140081C211C01435975110CFF20014007
:107850000C00997D00200140081C211C01439975F2
:10786000100EDA7D00210A40111C021C0A43DA7551
:1078700000E0C046C046BD4603B090BDE401002014
:10788000E00100208813000090B583B000AF78605D
:107890007B683D229B5C012B00D0DEE07B683E22B2
:1078A0009B5C012B00D0D8E07B6828229A5C2921C0
:1078B000595C09020A432A21595C09040A432B2115
:1078C0005B5C1B061343642B00DC89E0654B1B7873
:1078D000002B07D1634B01221A7008F0B7FE02009B
:1078E000614B1A60604B1B68604A9C1808F0AEFE42
:1078F00003009C429B415B42DBB2002B00D1ACE019
:107900007B681A7D597D09020A43997D09040A435F
:10791000DB7D1B0613431A0002231A437B68FF21F9
:1079200011400C00197D00200140081C211C01435E
:107930001975110AFF2001400C00597D00200140FB
:10794000081C211C01435975110CFF2001400C003B
:10795000997D00200140081C211C01439975100EDF
:10796000DA7D00210A40111C021C0A43DA757B688B
:107970001A7D597D09020A43997D09040A43DB7D7A
:107980001B0613431A0080235B051A437B68FF2103
:1079900011400C00197D00200140081C211C0143EE
:1079A0001975110AFF2001400C00597D002001408B
:1079B000081C211C01435975110CFF2001400C00CB
:1079C000997D00200140081C211C01439975100E6F
:1079D000DA7D00210A40111C021C0A43DA753CE0E2
:1079E000204B00221A70204B00221A607B681A7DFF
:1079F000597D09020A43997D09040A43DB7D1B0670
:107A000013431A0002239A437B68FF2111400C00A4
:107A1000197D00200140081C211C01431975110A21
:107A2000FF2001400C00597D00200140081C211C52
:107A300001435975110CFF2001400C00997D002075
:107A40000140081C211C01439975100EDA7D0021AC
:107A50000A40111C021C0A43DA75C046BD4603B039
:107A600090BDC046EC010020E80100208813000012
:107A700090B583B000AF78607B683D229B5C012BA2
:107A800000D0DDE07B683E229B5C012B00D0D7E07C
:107A90007B6828229A5C2921595C09020A432A2121
:107AA000595C09040A432B215B5C1B06134300D479
:107AB00089E0654B1B78002B07D1634B01221A70BC
:107AC00008F0C4FD0200614B1A60604B1B68604AFD
:107AD0009C1808F0BBFD03009C429B415B42DBB25B
:107AE000002B00D1ACE07B681A7D597D09020A4366
:107AF000997D09040A43DB7D1B0613431A00042306
:107B00001A437B68FF2111400C00197D00200140C1
:107B1000081C211C01431975110AFF2001400C00AB
:107B2000597D00200140081C211C01435975110C8E
:107B3000FF2001400C00997D00200140081C211C01
:107B400001439975100EDA7D00210A40111C021CB8
:107B50000A43DA757B681A7D597D09020A43997DCB
:107B600009040A43DB7D1B0613431A0080235B05CF
:107B70001A437B68FF2111400C00197D0020014051
:107B8000081C211C01431975110AFF2001400C003B
:107B9000597D00200140081C211C01435975110C1E
:107BA000FF2001400C00997D00200140081C211C91
:107BB00001439975100EDA7D00210A40111C021C48
:107BC0000A43DA753CE0204B00221A701F4B00225A
:107BD0001A607B681A7D597D09020A43997D090460
:107BE0000A43DB7D1B0613431A0004239A437B6878
:107BF000FF2111400C00197D00200140081C211CB0
:107C000001431975110AFF2001400C00597D002025
:107C10000140081C211C01435975110CFF20014033
:107C20000C00997D00200140081C211C014399751E
:107C3000100EDA7D00210A40111C021C0A43DA757D
:107C4000C046BD4603B090BDF4010020F001002005
:107C50008813000080B582B000AF78607B681A7826
:107C6000597809020A43997809040A43DB781B060C
:107C700013431A00224B9A4213D97B681A78597819
:107C800009020A43997809040A43DB781B06134367
:107C90001A001C4B9A4204D87B683C22012199545B
:107CA00029E07B681A7D597D09020A43997D090400
:107CB0000A43DB7D1B0613431A0080231B0113407C
:107CC0000FD17B681A7D597D09020A43997D090409
:107CD0000A43DB7D1B0613431A0080239B001340DD
:107CE00004D07B683C220021995404E07B683C224C
:107CF00001219954C046C046BD4602B080BDC04671
:107D0000BFD4010058800400B0B584B000AF7860E3
:107D10007B689B78012B34D17B68DA78197909026A
:107D20000A43597909040A439B791B061343FA2233
:107D3000D2009C1808F08AFC03009C429B415B42E5
:107D4000DBB2002B1DD07B6809330F257C19802204
:107D500012020E491800FEF760F8030023707B1929
:107D60001B78012B0AD17B680122DA717B68002223
:107D70001A707B68180000F06FF802E07B68002240
:107D8000DA71C046BD4604B0B0BDC0460004005024
:107D900090B583B000AF78600A00FB1C1A707B6856
:107DA0000933180080235A00A023D9050023FEF7C9
:107DB0001DF87B680933180080239A0125490123A7
:107DC000FEF714F8FB1C1B78012B08D17B680933E4
:107DD00018008023DA011F490123FEF707F87B68AA
:107DE00001229A707B6801225A707B6801221A7006
:107DF00008F02CFC02007B680333FF2111400C00CB
:107E0000197800200140081C211C01431970110A37
:107E1000FF2001400C00597800200140081C211C63
:107E200001435970110CFF2001400C00997800208B
:107E30000140081C211C01439970100EDA780021C2
:107E40000A40111C021C0A43DA70C046BD4603B04A
:107E500090BDC0460008005080B582B000AF786089
:107E60007B680933180080235A00A023D905012319
:107E7000FDF7BCFF7B680933180080239A010B498A
:107E80000023FDF7B3FF7B68093318008023DA0174
:107E900006490023FDF7AAFF7B6800229A707B68E1
:107EA00000225A70C046BD4602B080BD0008005096
:107EB00090B583B000AF78600A00FB1C1A707B6835
:107EC0000933180080235A00A023D9050023FDF7A9
:107ED0008DFF7B680933180080239A01254901230F
:107EE000FDF784FFFB1C1B78012B08D17B6809334D
:107EF00018008023DA011F490123FDF777FF7B6813
:107F000001229A707B6801221A727B6801225A70E2
:107F100008F09CFB02007B680333FF2111400C003A
:107F2000197800200140081C211C01431970110A16
:107F3000FF2001400C00597800200140081C211C42
:107F400001435970110CFF2001400C00997800206A
:107F50000140081C211C01439970100EDA780021A1
:107F60000A40111C021C0A43DA70C046BD4603B029
:107F700090BDC0460008005080B582B000AF786068
:107F80007B680933180080235A00A023D9050123F8
:107F9000FDF72CFF7B680933180080239A010B49F9
:107FA0000023FDF723FF7B68093318008023DA01E3
:107FB00006490023FDF71AFF7B6800229A707B6850
:107FC00000225A70C046BD4602B080BD0008005075
:107FD00080B582B000AF78607B685A7A997A0902DE
:107FE0000A43D97A09040A431B7B1B061343012069
:107FF00098477B685A79997909020A43D979090423
:108000000A431B7A1B06134301209847C046BD460E
:1080100002B080BD80B582B000AF78607B685A7ACC
:10802000997A09020A43D97A09040A431B7B1B0681
:108030001343012098477B685A79997909020A43CA
:10804000D97909040A431B7A1B0613430020984779
:108050007B685A7A997A09020A43D97A09040A4351
:108060001B7B1B06134300209847C046BD4602B049
:1080700080BD80B582B000AF78607B685A7A997A0B
:1080800009020A43D97A09040A431B7B1B061343DE
:10809000012098477B685A79997909020A43D9796E
:1080A00009040A431B7A1B06134301209847C04664
:1080B000BD4602B080BD0000B0B586B000AF7860AC
:1080C0000A00FB1C1A707B685A7A997A09020A43E3
:1080D000D97A09040A431B7B1B06134300209847E7
:1080E0001723FB1880221A7007233B6155E00E20EE
:1080F0003B1800221A7017243B19FA1C1B781278BF
:108100001340DBB21A003B691A413B181A703B69F5
:108110000722D31A3C4A39180978D1547B685A7916
:10812000997909020A43D97909040A431B7A1B0683
:1081300013431A003B181B78180090477B685A7A43
:10814000997A09020A43D97A09040A431B7B1B0660
:108150001343012098477B685A7A997A09020A43A7
:10816000D97A09040A431B7B1B0613430020984756
:108170007B685A79997909020A43D97909040A4333
:108180001B7A1B061343002098473B69013B3B6168
:108190003B193A19127852081A703B69002BA6DA7B
:1081A0000F243B1901221A707B685A7A997A0902C6
:1081B0000A43D97A09040A431B7B1B061343012097
:1081C00098477B685A7B997B09020A43D97B09044B
:1081D0000A431B7C1B06134325003C1998470300E8
:1081E00023707B685A7A997A09020A43D97A09047A
:1081F0000A431B7B1B061343002098477B191B78FF
:108200001800BD4606B0B0BD1002002090B583B086
:1082100000AFBB1D00221A70FB1D01221A701B4B00
:108220001A781A4B5B78D318DAB2184B9B78D318AC
:10823000D9B2164BDA78BB1D8A181A70134B180086
:10824000FFF7C6FE114B1800FFF7E4FEFC1D0F4BB5
:1082500048211800FFF730FF03002370FB1D1B7837
:10826000002B09D1FC1DBB1D1A78084B110018000A
:10827000FFF722FF03002370044B1800FFF7F9FEFD
:10828000FB1D1B781800BD4603B090BDF80100200F
:10829000B0B582B000AF05000C0010001900FB1D46
:1082A0002A1C1A70BB1D221C1A707B1D021C1A701E
:1082B0003B1D0A1C1A704D4BFA1D12781A704B4B5D
:1082C000BA1D12785A70494B3A1D1278DA70474B32
:1082D0007A1D12789A70454A1823FB181B7813717F
:1082E000424B05331C22BA1810781A7800210A4034
:1082F000111C021C0A431A701D22BA1810785A78F1
:1083000000210A40111C021C0A435A701E22BA188E
:1083100010789A7800210A40111C021C0A439A70B6
:108320001F22BA181078DA7800210A40111C021CAA
:108330000A43DA702D4B09332022BA1810781A78C4
:1083400000210A40111C021C0A431A702122BA188B
:1083500010785A7800210A40111C021C0A435A70F6
:108360002222BA1810789A7800210A40111C021CA7
:108370000A439A702322BA181078DA7800210A404A
:10838000111C021C0A43DA70184B0D332422BA1850
:1083900010781A7800210A40111C021C0A431A7036
:1083A0002522BA1810785A7800210A40111C021CA4
:1083B0000A435A702622BA1810789A7800210A4087
:1083C000111C021C0A439A702722BA181078DA7816
:1083D00000210A40111C021C0A43DA70FFF716FF45
:1083E00003001800BD4602B0B0BDC046F801002031
:1083F00080B582B000AF0200FB1D1A70054BFA1D5C
:108400001278DA70FFF702FF03001800BD4602B0D1
:1084100080BDC046F8010020B0B584B000AF0200B6
:10842000FB1D1A70BB1D0A1C1A700F23FB180122BA
:108430001A70BB1D1B78092B01D9022336E01D4B96
:108440001800FFF7C5FD1B4B1800FFF7E3FD0F25D4
:108450007C19FB1D1A78174B11001800FFF72CFE32
:108460000300237029007B181B78002B0BD1BB1D48
:108470001B78114AD25C7C180E4B11001800FFF7D4
:108480001BFE030023700B4B1800FFF7F2FD0F23B8
:10849000FB181B78002B06D1FB1D1B78683B074A95
:1084A000F91D0978D1540F23FB181B781800BD461D
:1084B00004B0B0BDF8010020040000200C02002030
:1084C000B0B584B000AF0200FB1D1A70BB1D0A1CC2
:1084D0001A700E217B1800221A700F23FB1801223C
:1084E0001A707B18BA1D12781A70BB1D1B785A2B94
:1084F00003D8BB1D1B78402B01D802233CE0204B46
:108500001800FFF765FD1E4B1800FFF783FD0F25D0
:108510007C19FB1D1A781A4B11001800FFF7CCFDCF
:108520000300237029007B181B78002B11D10E202B
:108530003B183A181278413A1A703B181B78114AC6
:10854000D25C7C180E4B11001800FFF7B5FD03003C
:1085500023700B4B1800FFF78CFD0F23FB181B78C3
:10856000002B06D1FB1D1B78683B074AF91D0978D3
:10857000D1540F23FB181B781800BD4604B0B0BDC2
:10858000F8010020100000200C020020B0B584B0DB
:1085900000AF0200FB1D1A700F257B1901221A7013
:1085A000164B1800FFF714FD144B1800FFF732FDAF
:1085B0007C19FB1D1A78114B11001800FFF77CFD88
:1085C0000300237029007B181B78002B0ED1FB1DA4
:1085D0001B780B4AD35C1A000A4B9A5C7C18074B39
:1085E00011001800FFF768FD030023700F23FB182C
:1085F0001B781800BD4604B0B0BDC046F80100208D
:108600000C0200200400002080B582B000AF78602A
:108610007B681433AF2292000021180012F0B3FBE4
:108620007A68B4239B00D3181C220021180012F092
:10863000AAFB7A68BB239B00D3180E2200211800E6
:1086400012F0A1FB7B681A7800210A401A705A7850
:1086500000210A405A709A7800210A409A70DA780C
:1086600000210A40DA707B681A7900210A401A71E9
:108670005A7900210A405A719A7900210A409A7168
:10868000DA7900210A40DA717B681A7A00210A40FF
:108690001A725A7A00210A405A729A7A00210A40C4
:1086A0009A72DA7A00210A40DA727B681A7B00211A
:1086B0000A401A735A7B00210A405A737B689A7BDE
:1086C00000210A409A73DA7B00210A40DA737B6842
:1086D0001A7C00210A401A745A7C00210A405A74FC
:1086E0007B689A7C00210A409A74DA7C00210A4057
:1086F000DA747B68034A002199547B681800BD46F0
:1087000002B080BDFA02000080B582B000AF786090
:108710007B681800BD4602B080BD80B582B000AF56
:1087200078607B681A78597809020A4399780904B5
:108730000A43DB781B0613431800BD4602B080BD18
:1087400080B582B000AF78607B681A7959790902E8
:108750000A43997909040A43DB791B06134318007D
:10876000BD4602B080BD80B582B000AF78607B6846
:108770001A7A597A09020A43997A09040A43DB7A78
:108780001B0613431800BD4602B080BD80B582B001
:1087900000AF78607B681A7B5B7B1B0213431B0472
:1087A0001B141BB29BB21800BD4602B080BD80B541
:1087B00082B000AF78607B689A7BDB7B1B0213433F
:1087C0001B041B141BB29BB21800BD4602B080BD37
:1087D00080B582B000AF78607B681A7C5B7C1B023E
:1087E00013431B041B141BB29BB21800BD4602B0FE
:1087F00080BD80B582B000AF78607B689A7CDB7CFE
:108800001B0213431B041B141BB29BB21800BD4672
:1088100002B080BD80B582B000AF78607B68012275
:108820009B1830220021180012F0ADFA7B6801225B
:108830009B1830220021180012F0A5FA7B687322E1
:10884000102199547B6831331A7800210A40111C99
:1088500008220A431A705A7800210A40111C072284
:108860000A435A709A7800210A409A70DA780021F7
:108870000A40DA707B687122995C002001409954AB
:108880009B185A7800210A405A707B6874220E2186
:1088900099547B687322002199547B6835331A7888
:1088A00000210A401A705A7800210A405A709A78BA
:1088B00000210A409A70DA7800210A40DA707B6859
:1088C00039331A7800210A401A705A7800210A4078
:1088D0005A709A7800210A409A70DA7800210A408A
:1088E000DA707B683D331A7800210A401A705A7892
:1088F00000210A405A709A7800210A409A70DA786A
:1089000000210A40DA707B6841331A7800210A405E
:108910001A705A7800210A405A709A7800210A4049
:108920009A70DA7800210A40DA707B6845331A7849
:1089300000210A401A705A7800210A405A709A7829
:1089400000210A409A70DA7800210A40DA707B68C8
:1089500049331A7800210A401A705A7800210A40D7
:108960005A709A7800210A409A70DA7800210A40F9
:10897000DA707B684D331A7800210A401A705A78F1
:1089800000210A405A709A7800210A409A70DA78D9
:1089900000210A40DA707B687522002199547B68B7
:1089A0007622002199547B687722002199547B68B4
:1089B0007822002199547B687922002199547B68A0
:1089C0007A22002199547B687B22012199547B688B
:1089D00051331A7800210A401A705A7800210A404F
:1089E0005A709A7800210A409A70DA7800210A4079
:1089F000DA707B6855331A7800210A401A705A7869
:108A000000210A405A709A7800210A409A70DA7858
:108A100000210A40DA707B6859331A7800210A4035
:108A20001A705A7800210A405A709A7800210A4038
:108A30009A70DA7800210A40DA707B685D331A7820
:108A400000210A401A705A7800210A405A709A7818
:108A500000210A409A70DA7800210A40DA707B68B7
:108A600061331A7800210A401A705A7800210A40AE
:108A70005A709A7800210A409A70DA7800210A40E8
:108A8000DA707B6865331A7800210A401A705A78C8
:108A900000210A405A709A7800210A409A70DA78C8
:108AA00000210A40DA707B6869331A7800210A4095
:108AB0001A705A7800210A405A709A7800210A40A8
:108AC0009A70DA7800210A40DA707B686D331A7880
:108AD00000210A401A705A7800210A405A709A7888
:108AE00000210A409A70DA7800210A40DA707B6827
:108AF00000221A707B681800BD4602B080BD80B5A8
:108B000082B000AF78607B681800BD4602B080BDBF
:108B100080B582B000AF786039607B6839333A0045
:108B200010781A7800210A40111C021C0A431A709E
:108B30007A1C10785A7800210A40111C021C0A4342
:108B40005A70BA1C10789A7800210A40111C021C35
:108B50000A439A70FA1C1078DA7800210A40111C36
:108B6000021C0A43DA70C046BD4602B080BD80B523
:108B700082B000AF786039607B683D333A0010788E
:108B80001A7800210A40111C021C0A431A707A1C30
:108B900010785A7800210A40111C021C0A435A70AE
:108BA000BA1C10789A7800210A40111C021C0A4352
:108BB0009A70FA1C1078DA7800210A40111C021C05
:108BC0000A43DA70C046BD4602B080BD80B582B0AF
:108BD00000AF786039607B6841333A0010781A78CA
:108BE00000210A40111C021C0A431A707A1C1078DA
:108BF0005A7800210A40111C021C0A435A70BA1C00
:108C000010789A7800210A40111C021C0A439A70BD
:108C1000FA1C1078DA7800210A40111C021C0A4361
:108C2000DA70C046BD4602B080BD80B582B000AFEC
:108C3000786039607B6845333A0010781A780021F3
:108C40000A40111C021C0A431A707A1C10785A78C8
:108C500000210A40111C021C0A435A70BA1C1078E9
:108C60009A7800210A40111C021C0A439A70FA1CCF
:108C70001078DA7800210A40111C021C0A43DA70CD
:108C8000C046BD4602B080BD80B582B000AF7860FE
:108C900039607B6835333A0010781A7800210A4031
:108CA000111C021C0A431A707A1C10785A78002191
:108CB0000A40111C021C0A435A70BA1C10789A7898
:108CC00000210A40111C021C0A439A70FA1C1078F9
:108CD000DA7800210A40111C021C0A43DA70C046EF
:108CE000BD4602B080BD80B582B000AF78600A009A
:108CF000FB1C1A707B68FA1C752112785A54C04606
:108D0000BD4602B080BDB0B582B000AF78600A0049
:108D1000BB1C1A807B68B91C71220D78985C0024FA
:108D20002040041C281C2043985448789B185A78EB
:108D300000210A40111C021C0A435A70C046BD465D
:108D400002B0B0BD80B582B000AF78600A00FB1CF5
:108D50001A707B68FA1C742112785A54C046BD46BA
:108D600002B080BD80B582B000AF78600A00FB1C05
:108D70001A707B68FA1C732112785A54C046BD469B
:108D800002B080BD80B582B000AF786039607B688A
:108D900031333A0010781A7800210A40111C021C65
:108DA0000A431A707A1C10785A7800210A40111C64
:108DB000021C0A435A70BA1C10789A7800210A40A3
:108DC000111C021C0A439A70FA1C1078DA780021F0
:108DD0000A40111C021C0A43DA70C046BD4602B0AC
:108DE00080BD80B582B000AF78607B681B781800CA
:108DF000BD4602B080BD80B582B000AF78607B68B0
:108E000051229A5C5221595C09020A435321595C50
:108E100009040A4354215B5C1B0613431800BD463A
:108E200002B080BD80B582B000AF78607B68492217
:108E30009A5C4A21595C09020A434B21595C090496
:108E40000A434C215B5C1B0613431800BD4602B06D
:108E500080BD80B582B000AF78607B684D229A5C9F
:108E60004E21595C09020A434F21595C09040A4307
:108E700050215B5C1B0613431800BD4602B080BD49
:108E800080B582B000AF78607B6877229B5C180069
:108E9000BD4602B080BD80B582B000AF78607B680F
:108EA0007A229B5C1800BD4602B080BD80B582B0BE
:108EB00000AF78607B6879229B5C1800BD4602B0E9
:108EC00080BD80B582B000AF78607B681A780021E1
:108ED0000A401A705A7800210A405A709A78002184
:108EE0000A409A70DA7800210A40DA707B6818002C
:108EF000BD4602B080BD80B582B000AF78607B68AF
:108F00001800BD4602B080BD80B582B000AF786069
:108F100039607B683A0010781A7800210A40111CE9
:108F2000021C0A431A707A1C10785A7800210A40F1
:108F3000111C021C0A435A70BA1C10789A7800213E
:108F40000A40111C021C0A439A70FA1C1078DA7845
:108F500000210A40111C021C0A43DA70C046BD46BB
:108F600002B080BD80B582B000AF78607B68180029
:108F7000BD4602B080BD80B582B000AF78607B682E
:108F80001800BD4602B080BD80B582B000AF7860E9
:108F90007B68FF221A707B6800225A707B6800226F
:108FA0009A707B680022DA707B6800221A717B68F5
:108FB00000225A717B6800229A717B680022DA7164
:108FC0007B681A7A00210A401A725A7A00210A40F4
:108FD0005A729A7A00210A409A72DA7A00210A407B
:108FE000DA727B681A7B00210A401A735A7B0021CF
:108FF0000A405A739A7B00210A409A73DA7B002157
:109000000A40DA737B6800221A747B681800BD4638
:1090100002B080BD80B582B000AF78607B68180078
:10902000BD4602B080BD80B582B000AF78607B687D
:10903000DB791800BD4602B080BD80B582B000AFBC
:1090400078607B683422102199547B683B22002190
:1090500099547B683C22002199547B683D22002171
:1090600099547B683E22002199547B683522002167
:1090700099547B683622002199547B68372200215D
:1090800099547B683822002199547B683922002149
:1090900099547B683A22002199547B681A78002100
:1090A0000A401A705A7800210A405A709A780021B2
:1090B0000A409A70DA7800210A40DA707B681A79DF
:1090C00000210A401A715A7900210A405A719A798E
:1090D00000210A409A71DA7900210A40DA717B682E
:1090E0001A7A00210A401A725A7A00210A405A72EA
:1090F0009A7A00210A409A72DA7A00210A40DA72DA
:109100007B681A7B00210A401A735A7B00210A40AF
:109110005A739A7B00210A409A73DA7B00210A4035
:10912000DA737B681A7C00210A40111C40225242EB
:109130000A431A745A7C00210A40111C1F22524211
:109140000A435A749A7C00210A409A74DA7C0021FE
:109150000A40DA747B681A7D00210A401A755A7D2C
:1091600000210A405A759A7D00210A409A75DA7DDD
:1091700000210A40DA757B682422995C00200140B6
:1091800099542522995C0020014099542622995C2B
:109190000020014099542722995C002001409954F5
:1091A0007B682822995C0020014099542922995C0F
:1091B0000020014099542A22995C002001409954D2
:1091C0002B22995C0020014099547B681A7E002173
:1091D0000A40111C602252420A431A765A7E00212C
:1091E0000A40111C102252420A435A769A7E0021EC
:1091F0000A409A76DA7E00210A40DA767B681A7F86
:1092000000210A40111C142252420A431A775A7F45
:1092100000210A40111C702252420A435A779A7F59
:1092200000210A409A77DA7F00210A40DA777B68CA
:109230002022995C00200140081C5821494201432A
:1092400099542122995C00200140081C61210143AE
:1092500099542222995C0020014099542322995C60
:109260000020014099547B682C22995C0020014029
:10927000081C6421014399542D22995C002001406F
:1092800099542E22995C0020014099542F22995C18
:109290000020014099547B683022995C00200140F5
:1092A00099543122995C0020014099543222995CF2
:1092B0000020014099543322995C002001409954C8
:1092C0007B681800BD4602B080BD80B582B000AF9B
:1092D00078607B681800BD4602B080BD90B583B051
:1092E00000AF786039607B683A0014782422995C7A
:1092F00000200140081C211C014399547A1C147859
:109300002522995C00200140081C211C014399542E
:10931000BA1C14782622995C00200140081C211CEC
:1093200001439954FA1C14782722995C00200140CB
:10933000081C211C01439954C046BD4603B090BD92
:1093400080B582B000AF786039607B683A001078F1
:109350001A7900210A40111C021C0A431A717A1C56
:1093600010785A7900210A40111C021C0A435A71D4
:10937000BA1C10789A7900210A40111C021C0A4379
:109380009A71FA1C1078DA7900210A40111C021C2B
:109390000A43DA71C046BD4602B080BDB0B582B0A6
:1093A00000AF786039603A687B68FF2111400D009A
:1093B0002821585C00242040041C281C20435854B9
:1093C000110AFF2001400D002921585C0024204093
:1093D000041C281C20435854110CFF2001400D0090
:1093E0002A21585C00242040041C281C2043585487
:1093F000140E2B22995C00200140081C211C014303
:109400009954C046BD4602B0B0BD80B582B000AF31
:10941000786039607B683A0010781A7A00210A4037
:10942000111C021C0A431A727A1C10785A7A002105
:109430000A40111C021C0A435A72BA1C10789A7A0C
:1094400000210A40111C021C0A439A72FA1C10786F
:10945000DA7A00210A40111C021C0A43DA72C04663
:10946000BD4602B080BD80B582B000AF7860396083
:109470007B683A0010781A7B00210A40111C021CFC
:109480000A431A737A1C10785A7B00210A40111C77
:10949000021C0A435A73BA1C10789A7B00210A40B6
:1094A000111C021C0A439A73FA1C1078DA7B002103
:1094B0000A40111C021C0A43DA73C046BD4602B0C2
:1094C00080BD80B582B000AF78600A00FB1C1A70C6
:1094D0007B68FA1C3D2112785A54C046BD4602B042
:1094E00080BD80B582B000AF78600A00FB1C1A70A6
:1094F0007B68FA1C3E2112785A54C046BD4602B021
:1095000080BD80B582B000AF78600A00FB1C1A7085
:109510007B68FA1C3A2112785A54C046BD4602B004
:1095200080BD80B582B000AF786039607B683A005A
:1095300010781A7E00210A40111C021C0A431A7678
:109540007A1C10785A7E00210A40111C021C0A4322
:109550005A76BA1C10789A7E00210A40111C021C0F
:109560000A439A76FA1C1078DA7E00210A40111C10
:10957000021C0A43DA76C046BD4602B080BD90B5F3
:1095800083B000AF786039603A687B68FF21114092
:109590000C00197F00200140081C211C0143197791
:1095A000110AFF2001400C00597F00200140081CD7
:1095B000211C01435977110CFF2001400C00997FB9
:1095C00000200140081C211C01439977100EDA7F0E
:1095D00000210A40111C021C0A43DA77C046BD462E
:1095E00003B090BD90B583B000AF786039607B6800
:1095F0003A0014782C22995C00200140081C211CA0
:10960000014399547A1C14782D22995C0020014062
:10961000081C211C01439954BA1C14782E22995C11
:1096200000200140081C211C01439954FA1C1478A5
:109630002F22995C00200140081C211C01439954F1
:10964000C046BD4603B090BDB0B582B000AF7860F3
:1096500039603A687B68FF2111400D003021585C69
:1096600000242040041C281C20435854110AFF20C9
:1096700001400D003121585C00242040041C281CAE
:1096800020435854110CFF2001400D003221585C3A
:1096900000242040041C281C20435854140E33225C
:1096A000995C00200140081C211C01439954C046CC
:1096B000BD4602B0B0BD90B583B000AF78603960F0
:1096C0007B683A0014782022995C00200140081C35
:1096D000211C014399547A1C14782122995C0020A2
:1096E0000140081C211C01439954BA1C1478222201
:1096F000995C00200140081C211C01439954FA1C6C
:1097000014782322995C00200140081C211C01438D
:109710009954C046BD4603B090BD80B582B000AF3D
:1097200078600A00FB1C1A70FB1C19787B683522D4
:109730009954C046BD4602B080BD80B582B000AF2E
:1097400078600A00FB1C1A70FB1C19787B683622B3
:109750009954C046BD4602B080BD80B582B000AF0E
:1097600078600A00FB1C1A70FB1C19787B68372292
:109770009954C046BD4602B080BD80B582B000AFEE
:1097800078600A00FB1C1A70FB1C19787B68382271
:109790009954C046BD4602B080BD80B582B000AFCE
:1097A00078600A00FB1C1A70FB1C19787B68392250
:1097B0009954C046BD4602B080BD80B582B000AFAE
:1097C00078600A00FB1C1A707B68FA1C3B21127837
:1097D0005A54C046BD4602B080BD80B582B000AFCD
:1097E000786039607B683A0010781A7D00210A4061
:1097F000111C021C0A431A757A1C10785A7D00212C
:109800000A40111C021C0A435A75BA1C10789A7D32
:1098100000210A40111C021C0A439A75FA1C107898
:10982000DA7D00210A40111C021C0A43DA75C04689
:10983000BD4602B080BD80B582B000AF78603960AF
:109840007B683A0010781A7C00210A40111C021C27
:109850000A431A747A1C10785A7C00210A40111CA1
:10986000021C0A435A74BA1C10789A7C00210A40E0
:10987000111C021C0A439A74FA1C1078DA7C00212D
:109880000A40111C021C0A43DA74C046BD4602B0ED
:1098900080BD80B582B000AF78607B681A7D597D4D
:1098A00009020A43997D09040A43DB7D1B06134321
:1098B0001800BD4602B080BD80B582B000AF7860B0
:1098C0007B6809331800FFF74DFB7B6800221A7094
:1098D0007B6800225A707B6800229A707B68033391
:1098E0001A7800210A401A705A7800210A405A70EA
:1098F0009A7800210A409A70DA7800210A40DA70DA
:109900007B680022DA717B6800221A727B6818007B
:10991000BD4602B080BD80B582B000AF78607B6884
:1099200009331800FFF727FB7B681800BD4602B01B
:1099300080BD80B582B000AF78607B681B7818006E
:10994000BD4602B080BD000090B583B000AF786026
:10995000234A7B68FF2111400C0019780020014048
:10996000081C211C01431970110AFF2001400C0042
:10997000597800200140081C211C01435970110C2A
:10998000FF2001400C00997800200140081C211C98
:1099900001439970100EDA7800210A40111C021C54
:1099A0000A43DA707B6809220E499B183722180097
:1099B00011F0E0F97B680C4A40331100372218009F
:1099C00011F0D8F97B6877331800FFF77AFA7B68D3
:1099D00000221A717B681800BD4603B090BDC046D6
:1099E00090B3010844AE01087CAE010890B583B085
:1099F00000AF7860194A7B68FF2111400C0019788C
:109A000000200140081C211C01431970110AFF208D
:109A100001400C00597800200140081C211C014322
:109A20005970110CFF2001400C0099780020014072
:109A3000081C211C01439970100EDA7800210A409D
:109A4000111C021C0A43DA707B6877331800FFF799
:109A500052FA7B681800BD4603B090BD90B3010870
:109A600080B582B000AF786039607B6805333A001A
:109A700010781A7800210A40111C021C0A431A703F
:109A80007A1C10785A7800210A40111C021C0A43E3
:109A90005A70BA1C10789A7800210A40111C021CD6
:109AA0000A439A70FA1C1078DA7800210A40111CD7
:109AB000021C0A43DA70C046BD4602B080BD90B5B4
:109AC00087B000AFF860B960BB1D1A801623FB1881
:109AD000BA6812881A801423FB1801221A801421F4
:109AE0007A18BB1D0020125E00201B5E9A4220DA0D
:109AF0007B1800229B5E5B00BA68D31800229B5E35
:109B000016203A180024125F9A4208DA7B180022C5
:109B10009B5E5B00BA68D2183B1812881A80142129
:109B20007B1800229B5E9BB201339AB27B181A808D
:109B3000D5E71623FB1800229B5E1800BD4607B030
:109B400090BD000090B583B000AF78607B681800CE
:109B5000FFF7FAFEFE4A7B68FF2111400C001978DE
:109B600000200140081C211C01431970110AFF202C
:109B700001400C00597800200140081C211C0143C1
:109B80005970110CFF2001400C0099780020014011
:109B9000081C211C01439970100EDA7800210A403C
:109BA000111C021C0A43DA707B68E5229B181922FB
:109BB0000021180011F0E7F87B68FE229B180D22A7
:109BC0000021180011F0DFF87A680C23FF33D15C14
:109BD00000200140081C182149420143D154D118EA
:109BE000487800242040041C032020434870D118EA
:109BF0008878002420408870D318DA7800210A4041
:109C0000DA707A681023FF33D15C00200140D15410
:109C1000D1184878002420404870D1188878002452
:109C200020408870D318DA7800210A40DA707A6808
:109C30006023FF330021D1547A68B0235B000021F8
:109C4000D1547A686223FF330021D1547A68B1235A
:109C50005B000021D1547A686423FF330021D15482
:109C60007A686823FF330021D1547A68B4235B00FB
:109C70000121D1547A686A23FF330021D1547A68D4
:109C8000B5235B000021D1547A686C23FF33002197
:109C9000D1547A68B6235B000021D1547A6834230A
:109CA000FF33D15C00200140D154D1184878002402
:109CB00020404870D1188878002420408870D3183C
:109CC000DA7800210A40DA707A68B2235B0000215A
:109CD000D1547A683823FF33D15C00200140D1543D
:109CE000D1184878002420404870D1188878002482
:109CF00020408870D318DA7800210A40DA707A6838
:109D00003C23FF33D15C00200140081C4021494224
:109D10000143D154D118487800242040041C1F204E
:109D2000404220434870D118887800242040887031
:109D3000D318DA7800210A40DA707A686E23FF338C
:109D40000021D1547A686623FF330021D1547A6808
:109D50001423FF33D15C00200140081C58214942E4
:109D60000143D154D118487800242040041C6120BC
:109D700020434870D1188878002420408870D31878
:109D8000DA7800210A40DA707A681823FF33D15C50
:109D900000200140081C602149420143D154D118E0
:109DA000487800242040041C102040422043487082
:109DB000D1188878002420408870D318DA780021E0
:109DC0000A40DA707A681C23FF33D15C002001401E
:109DD000D154D1184878002420404870D118887890
:109DE000002420408870D318DA7800210A40DA7005
:109DF0007A682023FF33D15C00200140D154D11870
:109E00004878002420404870D118887800242040E9
:109E10008870D318DA7800210A40DA707A6824232F
:109E2000FF33D15C00200140D154D1184878002480
:109E300020404870D1188878002420408870D318BA
:109E4000DA7800210A40DA707A682823FF33D15C7F
:109E500000200140D154D118487800242040487097
:109E6000D1188878002420408870D318DA7800212F
:109E70000A40DA707A682C23FF33D15C002001405D
:109E8000D154D1184878002420404870D1188878DF
:109E9000002420408870D318DA7800210A40DA7054
:109EA0007A68B3235B000021D1547A684023FF33E2
:109EB000D15C00200140D154D118487800242040C2
:109EC0004870D1188878002420408870D318DA7838
:109ED00000210A40DA707A683023FF33D15C002019
:109EE0000140D154D1184878002420404870D1183E
:109EF0008878002420408870D318DA7800210A403E
:109F0000DA707A684823FF33D15C00200140D154D5
:109F1000D1184878002420404870D118887800244F
:109F200020408870D318DA7800210A40DA707A6805
:109F30004C23FF33D15C00200140D154D118487824
:109F4000002420404870D1188878002402E0C046E0
:109F5000F8B5010820408870D318DA7800210A404B
:109F6000DA707A685023FF33D15C00200140D1546D
:109F7000D1184878002420404870D11888780024EF
:109F800020408870D318DA7800210A40DA707A68A5
:109F90005423FF33D15C00200140D154D1184878BC
:109FA000002420404870D118887800242040887010
:109FB000D318DA7800210A40DA707A685823FF3320
:109FC000D15C00200140D154D118487800242040B1
:109FD0004870D1188878002420408870D318DA7827
:109FE00000210A40DA707A685C23FF33D15C0020DC
:109FF0000140D154D1184878002420404870D1182D
:10A000008878002420408870D318DA7800210A402C
:10A01000DA707A68B7235B000021D1547A68702324
:10A02000FF330021D1547A68B8235B000021D1545A
:10A030007B681800BD4603B090BDC04690B583B0A4
:10A0400000AF7860194A7B68FF2111400C00197835
:10A0500000200140081C211C01431970110AFF2037
:10A0600001400C00597800200140081C211C0143CC
:10A070005970110CFF2001400C009978002001401C
:10A08000081C211C01439970100EDA7800210A4047
:10A09000111C021C0A43DA707B681800FFF7A6FC4B
:10A0A0007B681800BD4603B090BDC046F8B50108F6
:10A0B000B0B584B000AF0200BB1D1A80BB1D1B8869
:10A0C000012B0BD1C0461D491D4B01221800FBF787
:10A0D000A4FE031E02D01B4B01221A70BB1D1A885E
:10A0E00080231B029A4224D1174B1868164B1B6819
:10A0F0001A78597809020A43997809040A43DB78E7
:10A100001B0613434C331B680F257C19984703002B
:10A1100023707B191B78032B03D97B191B78062B23
:10A1200007D980235A010949054B1800FBF775FE32
:10A13000FFE7C046BD4604B0B0BDC046000C0050AD
:10A14000180500206A210020F805002000040050B6
:10A1500080B584B000AF78607B681B7F022B00D095
:10A160006EE0394B1B78002B0CD17B680421180062
:10A170000DF0AAFC03009AB2344B1A80324B012234
:10A180001A705DE07B68042118000DF09DFC03004F
:10A190009AB22F4B1A802E4B1A882C4B1B889A424E
:10A1A00008D92B4B1988294B1A880E23FB188A1AB9
:10A1B0001A8009E0264B1A88244B1B88D31A9AB2BE
:10A1C0000E23FB18013A1A800E22BB181B880C2B99
:10A1D0002FD9BB181B88222B2BD8BB181B88190022
:10A1E000FA239800F6F71AF803001A000D217B18DD
:10A1F0001A707B181B789AB2164B1B88D3189AB228
:10A20000144B1A80144B1B780133DAB2124B1A70BC
:10A21000114B1B78102B0CD10E4B1B881B099BB2CA
:10A22000DAB20E4B1A700B4B00221A800A4B002236
:10A230001A707B681B6800225A62034B00221A7056
:10A24000C046BD4604B080BD732100206C210020B3
:10A250006E21002070210020722100207421002036
:10A2600080B584B002AFFB1D00221A7002F03CF9E9
:10A2700000F0A2F8274800230093002300220021C9
:10A2800008F090FE03005A1E9341DBB2002B02D06F
:10A29000FB1DFF221A701F4B00220121180009F03C
:10A2A000A7F903005A1E9341DBB2002B02D0FB1D1D
:10A2B000FF221A70174B00220321180008F0E2FE5B
:10A2C00003005A1E9341DBB2002B02D0FB1DFF227C
:10A2D0001A70104B180008F00DFF03005A1E93412E
:10A2E000DBB2002B02D0FB1DFF221A70094B1800B5
:10A2F00008F020FF03005A1E9341DBB2002B02D06E
:10A30000FB1DFF221A70FB1D1B785BB21800BD46B7
:10A3100002B080BD2429002090B58FB000AFF86056
:10A32000B960FB1D1A7014243B1924220021180067
:10A3300010F029FD21007B18FA681A60FA68802362
:10A340001B019A4204D37B188022D2055A6003E095
:10A350001423FB1800225A6014217B1800229A60F3
:10A36000FB1D1B781B041A007B18DA607B18802207
:10A3700012061A617B1800225A617B1800229A612A
:10A380007B180022DA617B1800221A62BA687918F9
:10A39000084B180008F0F4FE03005A1E9341DBB28C
:10A3A000002B02D001235B4200E000231800BD46D1
:10A3B0000FB090BD2429002080B586B000AF3B00CF
:10A3C000180018231A00002110F0DDFC3B00802249
:10A3D000D2051A603B0000225A603B0002229A60BC
:10A3E0003B000122DA603B0000221A613B000022A0
:10A3F0005A613A00084B1100180008F0BBFC03003A
:10A400005A1E9341DBB2002B01D002F0EFFAC04696
:10A41000BD4606B080BDC04624290020F0B58FB0EF
:10A4200000AF7860396010257B19282200211800C0
:10A4300010F0A9FC0826BB1900221A6000225A60FD
:10A4400080239A00A023DB051100180009F0F6FE16
:10A45000BB197A197868402108F0D8FF03005A42E6
:10A460005341DBB2002B1BD00F4B1B68002B17D0C6
:10A470000D4B18680C4B1B681A78597809020A436F
:10A48000997809040A43DB781B0613430C331C68D4
:10A490007B1919687B19DB681B0CDBB2BA19A04762
:10A4A000C046BD460FB0F0BDF805002080B500AF36
:10A4B00006F09AF802F03AFA02F0D2F802F0B4FC90
:10A4C000154B042118000CF00FF910F095FA134BFE
:10A4D000134A1A60114B1B68002B18D00F4B1868D9
:10A4E0000E4B1B681A78597809020A4399780904B7
:10A4F0000A43DB781B0613431B680A4A110098477E
:10A50000064B1B68074A11001800FFF7A9FA00F074
:10A5100049F80EF071FBFEE76C2A0020F8050020D8
:10A52000FC050020EC05002080B582B000AF78600B
:10A53000054B1B78012B03D1044B1800F8F758FF8B
:10A54000282006F08DF8F3E7632100201802002090
:10A5500080B584B004AF80235A0007490748084BF0
:10A560000293084B01930123009300230FF01DF881
:10A57000C046BD4680BDC046B4AE010829A500084E
:10A58000701F00207007002080B582B000AF786097
:10A59000034B1800F8F7CCFDC046BD4602B080BDA5
:10A5A0001802002080B500AFFFF7D2FF01F0A4FC35
:10A5B00001F06AFC01F084FC01F0BAFCC046BD4623
:10A5C00080BD000090B583B000AFFC1D2A492B4B25
:10A5D00001221800FBF721FC03002370FB1D1B78F0
:10A5E000012B04D0264B1B78DBB2012B01D10123B8
:10A5F00000E00023002B27D0224B1B78002B07D133
:10A60000204B01221A7006F021F802001E4B1A603E
:10A610001D4B1B68FA2292009C1806F017F80300E5
:10A620009C429B415B42DBB2002B0DD0174B1B6859
:10A63000802212051A43154B1A60144B1B688022A6
:10A6400052051A43114B1A60FB1D1B78002B0ED1CB
:10A650000C4B00221A700C4B00221A60084B00228F
:10A660001A700A4B1B680A4A1A40084B1A60C04607
:10A67000BD4603B090BDC046000C00501805002038
:10A680006A2100207C210020782100205421002014
:10A69000FFFFFFF7B0B500AF394B1B78272B27D84A
:10A6A000384B1B78002B07D1364B01221A7005F06E
:10A6B000CDFF0200344B1A60334B1B68334A9C18A1
:10A6C00005F0C4FF03009C429B415B42DBB2002BC0
:10A6D0001AD02F4B1B68802292041A432C4B1A600D
:10A6E0002B4B1B68802252051A43294B1A600BE042
:10A6F000274B1B68274A1A40254B1A60224B002221
:10A700001A60204B00221A701D4B1B78502B27D942
:10A710001C4B1B78002B07D11A4B01221A7005F035
:10A7200095FF0200184B1A60174B1B68174A9C18BC
:10A7300005F08CFF03009C429B415B42DBB2002B87
:10A740001AD0134B1B68802252041A43104B1A6014
:10A750000F4B1B68802252051A430D4B1A600BE009
:10A760000B4B1B680C4A1A40094B1A60064B00221F
:10A770001A60044B00221A70C046BD46B0BDC046E8
:10A7800074210020842100208021002088130000F3
:10A7900054210020FFFFFFFDFFFFFFFEB0B588B092
:10A7A00000AF724B1868714B1B681A785978090210
:10A7B0000A43997809040A43DB781B0613431433D0
:10A7C0001B683A1D010010009847684B1868674BDA
:10A7D0001B681A78597809020A43997809040A43D0
:10A7E000DB781B06134320331B681F22BC189847D5
:10A7F000030023701E243B1900221A705B4B18685B
:10A800005A4B1B681A78597809020A439978090447
:10A810000A43DB781B0613433C331B6825003C19B5
:10A820009847030023707B191B78FF2B07D1504BEF
:10A830001800FEF7D6FA031E01D1012300E0002321
:10A84000002B5FD01F23FB181B78182B06D9494B10
:10A8500000221A60484B00221A7083E0464B012206
:10A860001A703B1D1B881A001F243B191B78534389
:10A870001A00424B11001800FEF753FE3B1D5B8887
:10A880001A003B191B785A433C4B11001800FEF785
:10A8900076FE3B1D0A229B5E1A00384B1100180001
:10A8A000FEF7A0FE3B1D0C229B5E1A00334B1100ED
:10A8B0001800FEF7C9FE3B1D5A68304B1100180006
:10A8C000FEF7F9FE3B1D1A89E1231B019A4209D3C9
:10A8D0003B1D1B892A4A934204D8264BE1221201D0
:10A8E0001A603FE03B1D1A89C8231B019A4239D8E0
:10A8F0003B1D1B89234A934234D91E4BC8221201A7
:10A900001A602FE0194B1868184B1B681A78597891
:10A9100009020A43997809040A43DB781B061343AA
:10A920004C331B681D257C199847030023707B1945
:10A930001B78052B16D97B191B780A2B12D01E23E6
:10A94000FB181B78FF2B07D00F4B1B6880221203CC
:10A950001A430D4B1A6005E00B4B1B680B4A1A405B
:10A96000094B1A60BD4608B0B0BDC046F8050020CE
:10A970007005002048210020672100201C050020D0
:10A9800067100000280A000054210020FFFFF7FF95
:10A9900080B582B000AF78607B68002B17D00F4B7A
:10A9A0001B687A689A4209D90C4B1B6864331A00F9
:10A9B0000A4B1A600A4B00221A7008E0074B7A68AB
:10A9C0001A60074B01221A70064B01221A70034BC2
:10A9D0001B681800BD4602B080BDC0465021002053
:10A9E000662100206221002080B584B000AF020003
:10A9F0003960BB1D1A800023FB60BB1D00229B5EDB
:10AA00005A2B18DDBB1D00229B5E5A3B1A003B6887
:10AA10005A4313009B009B185B0064211800F5F754
:10AA200073FB0300FB60FA683B689A4201D93B68FC
:10AA300000E0FB68FB60FB681800BD4604B080BD09
:10AA400080B584B000AF78607B68FB600B4B1B68FF
:10AA50000B4A934201DDFB680BE0084B1B681800B2
:10AA600001F0CEFA0300FB60044B1A68054B1A6034
:10AA7000FB681800BD4604B080BDC0465C210020C4
:10AA800020BF020088210020B0B588B000AF7860F8
:10AA9000B64B1B78012B00D064E1B54B1868B44B62
:10AAA0001B681A78597809020A43997809040A43FD
:10AAB000DB781B06134318331B68984703005A4280
:10AAC0005341DBB2002B00D04CE1AA4B1800F9F740
:10AAD00047FAA74B1D68A64B1B681A7859780902DC
:10AAE0000A43997809040A43DB781B0613437C3335
:10AAF0001C68A04B1800FEF774F903001900280029
:10AB0000A0479C4B1800FEF78DF903007B61994B21
:10AB10001800FEF79EF90300FB61974B1B78012B91
:10AB20000AD1964B1B78012B06D1954B1B68180058
:10AB3000FFF786FF0300FB61914B1B68FA699A429D
:10AB400006D98F4B1B6864331A008D4B1A6002E0E4
:10AB50008B4BFA691A608A4B1C688A4B00229A5EFA
:10AB6000874B1B6819001000FFF73EFF0300E31A34
:10AB70003B61834B1B683A699A4208D2824B01229F
:10AB80001A7005F063FD0200804B1A6016E07F4BDF
:10AB90001B68002B12D07D4B1B687D4A9C1805F06A
:10ABA00055FD03009C429B415B42DBB2002B05D06C
:10ABB000754B00221A70754B00221A606C4B186896
:10ABC0006B4B1B681A78597809020A439978090473
:10ABD0000A43DB781B06134388331B686A4A1278E2
:10ABE000110098473B691800FFF7D2FE0300BB61D4
:10ABF000BB69002B2CD05F4B1800FEF7F2F8030066
:10AC0000043B5A425341DBB2002B15D05A4B1B7800
:10AC1000012B02D15F4BBB6102E0FA239B01BB61B8
:10AC2000544B1800FEF7DDF803001A00B9695A4BBF
:10AC30001800FAF7D1FC16E04E4B1800FEF7D1F8D9
:10AC400003001A00B969544B1800FAF7C5FC0AE072
:10AC5000484B1800FEF7C5F803001A004E4B0021C0
:10AC60001800FAF7B9FC434B1800FEF7BAF80300D6
:10AC70001A007969484B1800FAF74CFD3C4B1868EC
:10AC80003B4B1B681A78597809020A4399780904E2
:10AC90000A43DB781B0613434C331B680F257C19D2
:10ACA000984703002370334B1800FEF7FFF80300AA
:10ACB000012B17D12F4B1800FEF7E2F8031E11D11C
:10ACC000364B1B68002B0DD1354B1B68002B09D16F
:10ACD0007B191B78052B05D97B191B78082B01D80C
:10ACE000012300E00023002B2DD02E4B1800FEF78F
:10ACF0009AF903005A425341DBB2002B05D02A4B8C
:10AD000001211800FDF744F82CE0284B1B78062B96
:10AD100009D1274B1B78432B05D1234B0121180068
:10AD2000FDF736F81EE0134B1800FEF75AF8030043
:10AD30001A00194B00211800FAF74EFC1A4B1800A4
:10AD4000FDF78AF80EE00B4B1800FEF74AF80300F7
:10AD50001A00114B00211800FAF73EFC124B1800A4
:10AD6000FDF77AF8642005F07BFC91E66321002072
:10AD7000F8050020700500206521002062210020D8
:10AD80004C21002060210020642100208C21002023
:10AD9000B80B0000102700001405002054210020EB
:10ADA000582100205C050020EC05002069210020CE
:10ADB0006821002080B582B000AF7860054B1B7819
:10ADC000012B03D1044B1800FBF7BEF9642005F0FA
:10ADD00047FCF3E7632100201C050020B0B500AF5D
:10ADE0001D4B1B681D4A934230DC1D4B1B78BFF383
:10ADF0005B8FDBB21A00012313405A425341DBB28E
:10AE0000002B12D0164B18000FF0FDFD03005A1E48
:10AE10009341DBB2002B08D005F018FC0200114B67
:10AE20001A600F4B18000FF0FBFD0E4B1B680E4A0B
:10AE30009C1805F00BFC03009C429B415B42DBB27B
:10AE4000002B06D0094B01221A7002E0074B0022AA
:10AE50001A70C046BD46B0BD5C2100201FBF020075
:10AE600094210020902100208813000065210020FB
:10AE7000B0B500AF2C4B1800FEF7D5F8031E05D176
:10AE80002A4B1B78002B01D1012300E00023002B6B
:10AE90000DD0274B1B78062B09D1264B1B78432B53
:10AEA00005D1234B00221A70224B00221A70224B2C
:10AEB0001A68224B1B68134304D11C4B1B78012BCF
:10AEC00000D0BCE2184B1800FEF7ADF80300013BC0
:10AED0005A425341DBB2002B00D0B7E2154B1B782E
:10AEE000422B03D1124B1B78052B07D0114B1B783B
:10AEF000432B0AD10E4B1B78082B06D10A4B00229C
:10AF000000211800FAF7D6FE28E00A4B1B78432BE5
:10AF100016D1074B1B78012B12D1034B00220221C3
:10AF20001800FAF7C7FE19E05C0500206421002034
:10AF30006921002068210020542100205821002090
:10AF4000AA4B1B78452B09D1A94B1B78042B05D1A3
:10AF5000A84B002204211800FAF7ACFE01F004F817
:10AF6000A54B1B68012213400BD0A44BA44A1A60C6
:10AF70009E4B50221A709E4B01221A70A14BA24A7E
:10AF80001A609D4B1B68022213400BD09B4B9F4ABB
:10AF90001A60964B50221A70954B02221A70994BE8
:10AFA000994A1A60944B1B68042213400BD0934BB0
:10AFB000974A1A608D4B50221A708D4B03221A70DB
:10AFC000904B914A1A608C4B1B68082213400ED09C
:10AFD0008A4B904A1188198092789A70834B50223C
:10AFE0001A70834B04221A70864B874A1A60824B70
:10AFF0001B68102213400BD0804B874A1A607B4B92
:10B0000050221A707A4B05221A707E4B7E4A1A60C3
:10B01000794B1B68202213400BD0784B7E4A1A6074
:10B02000724B50221A70724B06221A70754B764A78
:10B030001A607A4B1B687A4A13400ED06F4B794ADC
:10B040001188198092789A70684B45221A70684B63
:10B0500005221A706B4B744A1A60704B1A68802371
:10B060005B0413400BD0654B704A1A605F4B45225E
:10B070001A705F4B01221A70624B6B4A1A60674B61
:10B080001A6880239B0413400BD05C4B674A1A60FC
:10B09000564B45221A70564B02221A70594B624A7F
:10B0A0001A605E4B1B682022134025D0504B1B7842
:10B0B000002B15D04D4B1B78002B11D04C4B1B781F
:10B0C000092B03D04A4B1B78032B03D1474B1B782A
:10B0D000432B05D0474B012202211800FAF7EAFD65
:10B0E000464B534A1A60414B43221A70404B01228F
:10B0F0001A70444B4C4A1A60484B1B68402213405C
:10B100000BD03E4B4B4A1A60384B42221A70384BD8
:10B1100001221A703B4B3C4A1A60404B1A6880234C
:10B120005B0213400BD0354B434A1A602F4B43222E
:10B130001A702F4B02221A70324B3B4A1A603F4B57
:10B140001B78BFF35B8FDBB21A00012313405A4216
:10B150005341DBB2002B12D0384B18000FF053FCD8
:10B1600003005A1E9341DBB2002B08D005F06EFAA3
:10B170000200334B1A60314B18000FF051FC274B83
:10B180001B688022134065D0244B1B682D4A134056
:10B1900068D12D4B1B78002B07D105F057FA020020
:10B1A000274B1A60284B01221A70254B1B68274A2F
:10B1B0009C1805F04BFA03009C429B415B42DBB2BA
:10B1C000002B4FD00D4B224A1A60084B45221A70B3
:10B1D000074B04221A700B4B134A1A60054B0122CD
:10B1E00004211800FAF766FD3CE0C0466821002003
:10B1F000692100205C050020582100202C0000203F
:10B200005052450044210020C0D401004343310086
:10B2100043433200C4AE010843504900542100208A
:10B2200000040400C8AE010860EA00004652510064
:10B2300043555600424F5600434F5600A021002070
:10B240009C21002058050C00982100208813000044
:10B2500042444300804B00221A7005F0F7F90200C7
:10B260007E4B1A607E4B1A6880231B0113400BD063
:10B270007C4B7D4A1A607D4B43221A707C4B032223
:10B280001A707C4B7C4A1A60754B1A6880239B00AD
:10B2900013400BD0734B794A1A60744B43221A70D7
:10B2A000734B04221A70734B734A1A606C4B1A6802
:10B2B00080235B0313400BD06A4B714A1A606B4BBF
:10B2C00042221A706A4B02221A706A4B6D4A1A6047
:10B2D0006D4B1B78012B0CD1624B6C4A1A60634B8F
:10B2E00043221A70624B06221A70624BFA22D20075
:10B2F0001A605B4B1B68042213400BD0594B644A05
:10B300001A605A4B43221A70594B07221A70594B34
:10B310005C4A1A60524B1B680222134011D0514BF9
:10B320005C4A1A60514B43221A70514B08221A7022
:10B33000504B544A1A60584B012200211800FAF76A
:10B34000B9FC474B1B68102213400BD0454B534AA6
:10B350001A60464B42221A70454B04221A70454B24
:10B36000484A1A603E4B1B680822134011D03D4BDF
:10B370004B4A1A603D4B42221A703D4B05221A700F
:10B380003C4B404A1A60444B012200211800FAF756
:10B3900091FC334B1A6880231B0513400BD0314BB3
:10B3A000404A1A60314B45221A70314B06221A70FE
:10B3B000304B344A1A602A4B1A688023DB0413404E
:10B3C0000BD0284B384A1A60284B43221A70284B5E
:10B3D00009221A70274B2B4A1A60214B1A688023C6
:10B3E0001B0313400ED01F4B304A118819809278EE
:10B3F0009A701E4B45221A701D4B03221A701D4B6A
:10B400002B4A1A60194B1B78002B0BD0184B1B785A
:10B41000002B07D0274B1800FDF732FD031E01D18A
:10B42000012300E00023002B12D0104B1978104BA1
:10B430001A78104B1B681848FAF770FB08E0094BA4
:10B440001D4A1188198092789A7002E0C04600E087
:10B45000C046BD46B0BDC046982100209C210020BA
:10B46000542100202C000020415556006821002066
:10B47000692100204421002060EA0000414F56006D
:10B48000434F4300C0D401006421002043445400D2
:10B4900043555400434F54005C050020425554006E
:10B4A000424F54005245560053435400CCAE01085D
:10B4B0008813000070050020D0AE0108B0B586B03A
:10B4C00000AF78607D4B1B78012B00D0A2E0FFF726
:10B4D00065F905F0BBF80200794B1B6893429B416C
:10B4E0005B42DBB2002B00D180E07649764B4022F4
:10B4F0001800FAF7A8FC80239A00A023D905724B04
:10B500001800FAF7A0FC05F0A1F80300FA22920057
:10B510009A186B4B1A606D4B1800FDF784FD030001
:10B520005A425341DBB2002B60D0694B1800FDF743
:10B53000A7FC0300013B5A425341DBB2002B0AD067
:10B54000624B012201211800FAF7B4FB5F4B18008F
:10B55000FAF756FB4AE05F4B18685E4B1B681A7897
:10B56000597809020A43997809040A43DB781B06D3
:10B5700013434C331B6817257C199847030023702D
:10B580007B191B78052B05D8504B00211800FAF7C2
:10B5900081FA2BE01722BB181B78072B03D0BB18AE
:10B5A0001B78062B05D1494B01211800FAF772FAD6
:10B5B0001CE01723FB181B78082B17D1454B186884
:10B5C000444B1B681A78597809020A439978090490
:10B5D0000A43DB781B0613431C331B6898470300A0
:10B5E0001A003A4B11001800FAF7FEF9FEF7EAFFCD
:10B5F000FFF750F8FFF7F2FBFFF73AFC334B180068
:10B60000FAF78CF9344B1800FCF77EFB2F4B18002F
:10B61000FAF7A1FB0C243B19180008231A0000219B
:10B620000FF0B1FB2D4B1B6864211800F4F76CFD83
:10B630000300DAB23B191A70294B1B785AB23B1936
:10B640009A70284B1B785AB23B19DA70204B1800BD
:10B65000FDF7C7FB03005AB23B195A70224B1B6817
:10B6600064211800F4F750FD03009AB23B199A8048
:10B67000184B1868174B1B681A78597809020A4347
:10B68000997809040A43DB781B06134330331B689F
:10B690009847030064211800F4F736FD03009AB2BE
:10B6A0003B19DA803B19114808221900FEF734FED5
:10B6B000FA235B00180004F0D3FF03E763210020A6
:10B6C000A421002000080050180500205C0500207F
:10B6D00070050020F8050020EC0500203C2100202A
:10B6E000692100206821002040210020FF01000086
:10B6F00090B585B000AF7860FD4B1800F9F756FFA4
:10B70000FC4B1800F7F7E8FCFB4B1800F8F7B0FA11
:10B71000FA4B1800FAF7E8FBF94AFA4B1100180047
:10B72000FAF7CEF8F74B1800FAF79EFAF64B01221B
:10B730001A70C82004F094FFF44B1B68002B10D043
:10B74000F24B1868F14B1B681A78597809020A43C2
:10B75000997809040A43DB781B06134304331B68FA
:10B760009847E44B1800FCF7D8FF0200E84B1A603A
:10B77000E04B1800FCF7E4FF0200E64B1A60DD4BDB
:10B780001800FCF7F0FF03001A00E34B1A60DF4BD0
:10B790001868DE4B1B681A78597809020A439978B1
:10B7A00009040A43DB781B06134328331B689847B8
:10B7B0000200D14B11001800FDF7AAF9D54B1A6809
:10B7C000CD4B11001800FDF701FAD14B1A68CA4B96
:10B7D00011001800FDF729FACF4B1B681A00C64B61
:10B7E00011001800FDF750FACC4B1A78C24B11002B
:10B7F0001800FDF778FACA4B1B689AB2BE4B1100CD
:10B800001800FDF780FAC14B1868C04B1B681A7806
:10B81000597809020A43997809040A43DB781B0620
:10B82000134320331B68984703001A00B24B1100E2
:10B830001800FDF787FAB54B1868B44B1B681A78E7
:10B84000597809020A43997809040A43DB781B06F0
:10B85000134334331B6898470300DAB2A64B110038
:10B860001800FDF77FFAA94B1868A84B1B681A78D7
:10B87000597809020A43997809040A43DB781B06C0
:10B88000134330331B68984702009B4B110018008C
:10B89000FDF76DF99D4B18689C4B1B681A78597819
:10B8A00009020A43997809040A43DB781B0613430B
:10B8B00048331B68984702008F4B11001800FDF7B2
:10B8C00061FA924B1868914B1B681A7859780902F3
:10B8D0000A43997809040A43DB781B061343303383
:10B8E0001B6898470200854B11001800FDF7A3FF65
:10B8F000864B1868854B1B681A78597809020A43E9
:10B90000997809040A43DB781B06134330331B681C
:10B9100098470200764B11001800FDF7F5FA08244D
:10B920003B19180008231A0000210FF02CFA714B64
:10B930001800FCF73CFF03000A3B9BB21AB23B190C
:10B940001A806C4B1800FCF721FF03000A3B9BB2E6
:10B950001AB23B195A80674B1800FCF739FF0300F5
:10B96000283B9BB21AB23B199A80624B1800FCF735
:10B9700040FF03001AB23B19DA80644B1B68391987
:10B9800004221800FEF79BF803001A00654B1A808A
:10B990005E4B18685D4B1B681A78597809020A4398
:10B9A000997809040A43DB781B06134380331B682C
:10B9B0005C4A0021525E110098475A4B00229B5E60
:10B9C0001A004E4B11001800FDF7E8FC514B1A68A5
:10B9D0004A4B11001800FDF718FD4D4B1A68474BF4
:10B9E00011001800FDF73FFD4B4B1B681A00434B3D
:10B9F00011001800FAF73AFA4B4B1A783F4B110036
:10BA00001800FDF77EFD414B1868404B1B681A7803
:10BA1000597809020A43997809040A43DB781B061E
:10BA2000134324331B68984703001A00334B11005B
:10BA30001800FDF753FC354B1868344B1B681A7817
:10BA4000597809020A43997809040A43DB781B06EE
:10BA5000134328331B6898470200284B1100180035
:10BA6000FDF76EFC244B1800FDF715FA03001A00D1
:10BA7000224B11001800FDF724FD2C4B1800FDF798
:10BA800058FF03001A001D4B11001800FDF729FD97
:10BA90001E4B18681D4B1B681A78597809020A4317
:10BAA000997809040A43DB781B06134370331A683C
:10BAB000184B1B6819009047144B1868134B1B68F0
:10BAC0001A78597809020A43997809040A43DB78FD
:10BAD0001B06134374331A680D4B1B6819009047FB
:10BAE0000A4B1868094B1B681A78597820E0C04641
:10BAF0001405002018020020700500201C050020FD
:10BB0000180500205C05002063210020F8050020B6
:10BB10003C210020402100205C21002067210020E2
:10BB2000482100206021002074210020EC05002025
:10BB300009020A43997809040A43DB781B06134378
:10BB400054331B689847B94B1868B84B1B681A7870
:10BB5000597809020A43997809040A43DB781B06DD
:10BB6000134350331B689847B04B1868AF4B1B68A2
:10BB70001A78597809020A43997809040A43DB784C
:10BB80001B06134338331B68984703001A00A84B61
:10BB900011001800FDF711FEA44B1868A34B1B6899
:10BBA0001A78597809020A43997809040A43DB781C
:10BBB0001B06134358331B68984703001A009C4B1D
:10BBC00011001800FDF7A9FD984B1868974B1B68EA
:10BBD0001A78597809020A43997809040A43DB78EC
:10BBE0001B0613435C331B68984703001A00904BF5
:10BBF00011001800FDF7A1FD8C4B18688B4B1B68DA
:10BC00001A78597809020A43997809040A43DB78BB
:10BC10001B06134360331B68984703001A00844BCC
:10BC200011001800FDF799FD804B18687F4B1B68C9
:10BC30001A78597809020A43997809040A43DB788B
:10BC40001B06134364331B68984703001A00784BA4
:10BC500011001800FDF791FD744B1868734B1B68B9
:10BC60001A78597809020A43997809040A43DB785B
:10BC70001B06134368331B68984703001A006C4B7C
:10BC800011001800FDF789FD6A4B1B681B0E1A0690
:10BC9000684B1A60664B1800FDF7FBFD0300664A0F
:10BCA0001A40644B1B681A43624B1A60634B1800BE
:10BCB000FDF7A1F80200624B1A605C4B18685B4B01
:10BCC0001B681A78597809020A43997809040A43CB
:10BCD000DB781B06134384331A68564B1B68190024
:10BCE0009047524B1868514B1B681A7859780902D3
:10BCF0000A43997809040A43DB781B0613434C3343
:10BD00001B6898470300013B5A425341DBB2002BAA
:10BD100041D0484B1A6880239B00134016D1454BF5
:10BD20001A6880231B01134010D1424B1A688023EC
:10BD30001B0513400AD13F4B1A688023DB041340D4
:10BD400004D13C4B1B680222134012D0374B1868B9
:10BD5000364B1B681A78597809020A439978090406
:10BD60000A43DB781B06134378331B68012198478D
:10BD700011E02E4B18682D4B1B681A785978090270
:10BD80000A43997809040A43DB781B061343783386
:10BD90001B6800219847254B1868244B1B681A78AC
:10BDA000597809020A43997809040A43DB781B068B
:10BDB00013434C331B68984703000A3B5A425341D4
:10BDC000DBB2002B16D0194B1868184B1B681A7879
:10BDD000597809020A43997809040A43DB781B065B
:10BDE000134340331B6898470200124B1B681A43E9
:10BDF000104B1A600D4B18680C4B1B681A78597859
:10BE000009020A43997809040A43DB781B061343A5
:10BE100044331B6898470200094B1B681A43084BC0
:10BE20001A60642004F01CFC86E4C046F80500207B
:10BE30001C05002054210020FFFFFFF070050020AA
:10BE40005821002080B500AF0D4B1B78012B14D179
:10BE50000C4B1B68002B10D00A4B1868094B1B6851
:10BE60001A78597809020A43997809040A43DB7859
:10BE70001B06134310331B689847C046BD4680BD60
:10BE800063210020F805002080B584B004AF802332
:10BE90005A0007490748084B0293084B01930123B6
:10BEA000009300230DF081FBC046BD4680BDC04617
:10BEB000D4AE0108B5AD0008282000207013002082
:10BEC00080B584B004AF80235A0007490748084B67
:10BED0000293084B01930123009300230DF065FBAF
:10BEE000C046BD4680BDC046ECAE0108BDB40008EA
:10BEF000842000207017002080B584B004AF802318
:10BF00005A0007490748084B0293084B0193012345
:10BF1000009300230DF049FBC046BD4680BDC046DE
:10BF200004AF010889AA0008E0200020701B00204F
:10BF300080B584B004AF80239A0007490748084BB6
:10BF40000293084B01930123009300230DF02DFB76
:10BF5000C046BD4680BDC04620AF0108F1B600080E
:10BF6000CC1F0020700B002080B500AF1B4B1B685E
:10BF7000DB00DA0880235B059A422BD1184B0022A4
:10BF80001A70184B00221A70144B00221A60164BBC
:10BF900000211800FDF721FC144B1868134B1B6897
:10BFA0001A78597809020A43997809040A43DB7818
:10BFB0001B0613436C331B68002198470C4B00226F
:10BFC0001A600C4B00221A700B4B00221A700B4B9C
:10BFD00000221A60C046BD4680BDC04654210020E4
:10BFE00069210020682100201C050020F8050020A0
:10BFF0004C210020662100206221002050210020D9
:10C0000080B584B000AF7860234B1868224B1B6862
:10C010001A78597809020A43997809040A43DB78A7
:10C020001B06134334331B689847020013005B015F
:10C030009B1A9B009B18DB00FB600B23FB18002264
:10C040001A700B217B181B780E2B20D87B181A78BE
:10C05000124BD200D3587A689A4211D97B181B78B8
:10C060000E4ADB00D31804331B686422D31AFA6823
:10C07000534364211800F4F747F80300FB6006E01F
:10C080000B217B181A787B1801321A70D9E7FB68EC
:10C090001800BD4604B080BDF80500203000002027
:10C0A00080B582B000AF786039607B68012B23D106
:10C0B0003B68274A93421FD1264B1800FCF7A4FA8D
:10C0C000254B1800FCF7FDFE244B1800FCF74AFF37
:10C0D000234B1800FCF7B1FF224B1800FCF754FF6C
:10C0E000214B1800FCF796FB204B1800FDF7E4FBF2
:10C0F0001F4B1800FDF726FD7B68002B23D13B6802
:10C10000134A93421FD11A4B1800FDF797FF174BA4
:10C110001800FDF700FC144B1800FCF7F0FC114B65
:10C120001800FCF777FF0E4B1800FDF7CEF80B4B0D
:10C130001800FCF720FF084B1800FCF7DCFE054B4D
:10C140001800FCF7E1FAC046BD4602B080BDC0460B
:10C15000FFFF000018020020140500201805002031
:10C160001C0500205C05002070050020EC05002067
:10C17000FC05002080B500AF034B19000120FFF73C
:10C180008FFFBD4680BDC046FFFF000080B500AFF9
:10C19000034B19000020FFF783FFBD4680BDC0465A
:10C1A000FFFF000080B584B000AF3B1D18000C23DA
:10C1B0001A0000210EF0E7FD534B544A1A60524B0F
:10C1C0008022D2055A60504B00229A604E4B0022CA
:10C1D000DA604D4B802212061A614B4B08225A61DD
:10C1E000494B00221A76484B00225A76464B0022D1
:10C1F0009A76454B0122DA61434B20220021995463
:10C20000414B8022D2005A623F4B8022D2009A6278
:10C210003D4B2C22012199543B4B00221A633A4B8F
:10C2200007225A63384B3C2200219954364B002296
:10C23000DA64354B180004F0BDFB031E01D000F09A
:10C24000D5FB3B1D01221A603B1D01225A603A1D9D
:10C250002D4B1100180005F08DF8031E01D000F0E1
:10C26000C5FB3B1D2A4A1A603A1D274B11001800D6
:10C2700005F080F8031E01D000F0B8FB3B1D254AF5
:10C280001A603A1D204B1100180005F073F8031EC8
:10C2900001D000F0ABFB3B1D1F4A1A603A1D1A4B40
:10C2A0001100180005F066F8031E01D000F09EFB97
:10C2B0003B1D1A4A1A603A1D134B1100180005F075
:10C2C00059F8031E01D000F091FB3B1D144A1A607F
:10C2D0003A1D0D4B1100180005F04CF8031E01D05B
:10C2E00000F084FB3B1D0F4A1A603A1D064B1100FB
:10C2F000180005F03FF8031E01D000F077FBC046A0
:10C30000BD4604B080BDC046A821002000240140E5
:10C3100002000004040000080800000C10000010D7
:10C32000000200240080003C90B58BB000AF786024
:10C3300014243B19180014231A0000210EF023FDC9
:10C340007B681B683B4A93426FD13B4B1A6C3A4B5C
:10C35000802149030A431A64374B1A6C80235B031C
:10C3600013403B613B69344B5A6B334B01210A4309
:10C370005A63314B5B6B01221340FB60FB682E4B11
:10C380005A6B2D4B02210A435A632B4B5B6B0222E3
:10C390001340BB60BB683B191F221A603B19032284
:10C3A0005A603B1900229A603A19A023DB0511005C
:10C3B000180007F099FC3B19204A1A603B19032228
:10C3C0005A603B1900229A603B191D4A190010005F
:10C3D00007F08AFC1B4B1C4A1A601A4B05225A6054
:10C3E000184B00229A60174B0022DA60154B80220E
:10C3F0001A61144B802252005A61124B8022D200E3
:10C400009A61104B2022DA610E4B00221A620D4B0A
:10C41000180005F03DFE031E01D000F0E7FA7B682E
:10C42000084A1A65074B7A689A62C046BD460BB047
:10C4300090BDC046002401400010024002080000E8
:10C44000000400500C2200200800024080B584B097
:10C4500000AFF860B9607A60FB68064A1A60BB6892
:10C46000054A1A607B6880221A60C046BD4604B047
:10C4700080BDC0466C220020C822002080B584B058
:10C4800000AFF860B9607A60FB68064A1A60BB6862
:10C49000054A1A607B68802252001A60C046BD4679
:10C4A00004B080BDC82400202425002080B582B0BF
:10C4B00000AF0C4B9A6B0B4B01210A439A63094B5B
:10C4C0009B6B012213407B607B68002203210920C3
:10C4D00005F0A2FD092005F0BFFDC046BD4602B033
:10C4E00080BDC0460010024080B500AF204B214AFD
:10C4F0001A601F4B00225A601D4B00229A601C4B91
:10C500000022DA601A4B00221A74194B00225A7466
:10C51000174B00229A74164B03225A61144B0122C6
:10C520009A61134B0D22DA61114B02221A62104BF1
:10C5300001225A620E4B03229A620D4B0422DA62E8
:10C540000B4B03221A630A4B01225A63084B012248
:10C550009A63074B0022DA63054B180006F02EF9A8
:10C56000031E01D000F042FAC046BD4680BDC04661
:10C57000242900200064004090B59DB000AF786091
:10C580005C23FB18180014231A0000210EF0FBFB9B
:10C5900010243B1918004C231A0000210EF0F3FB65
:10C5A0007B681B682B4A934250D13B19802292042E
:10C5B0001A603B19802292009A643B19180008F017
:10C5C0005FFE031E01D000F011FA234BDA6B224B01
:10C5D000802149010A43DA631F4BDA6B80235B0138
:10C5E0001340FB60FB681C4B5A6B1B4B02210A4338
:10C5F0005A63194B5B6B02221340BB60BB685C2122
:10C600007B18C02292001A607B1802225A607B18A5
:10C6100000229A607B180022DA607B1803221A61DC
:10C620007B180E4A1900100007F05EFB0022032160
:10C63000152005F0F1FC152005F00EFD0022032168
:10C64000162005F0E9FC162005F006FDC046BD46A3
:10C650001DB090BD00640040001002400004005076
:10C6600090B58BB000AF14243B19180014231A00A6
:10C6700000210EF088FBA74B5A6BA64B04210A43FE
:10C680005A63A44B5B6B042213403B613B69A14B93
:10C690005A6BA04B20210A435A639E4B5B6B2022AE
:10C6A0001340FB60FB689B4B5A6B9A4B01210A437A
:10C6B0005A63984B5B6B01221340BB60BB68954B80
:10C6C0005A6B944B02210A435A63924B5B6B0222D2
:10C6D00013407B607B688F4B5A6B8E4B08210A435B
:10C6E0005A638C4B5B6B082213403B603B688A4962
:10C6F0008A4B0022180007F061FD80235900A02317
:10C70000DB050122180007F059FD854B012280212D
:10C71000180007F053FD80239900A023DB050022B9
:10C72000180007F04BFD7E4B00223821180007F05F
:10C7300045FD3B19784A1A603B1901225A603B19A2
:10C7400000229A603B190022DA603B19734A1900F3
:10C75000100007F0C9FA21007B18802212021A602B
:10C760000C003B1900225A603B1900229A603B19C9
:10C770006A4A1900100007F0B7FA3B1940221A6004
:10C780003B1900225A603B1900229A603A19A023F3
:10C79000DB051100180007F0A7FA3B1905221A6003
:10C7A0003B1902225A603B1900229A603B19002271
:10C7B000DA603B1904221A613B19594A190010002A
:10C7C00007F092FA21007B18F02212021A600C0086
:10C7D0003B1900225A603B1900229A603B19504ACB
:10C7E0001900100007F080FA21007B188022520007
:10C7F0001A600C003B1901225A603B1901229A6011
:10C800003B190022DA603A19A023DB051100180059
:10C8100007F06AFA21007B18802292001A600C004F
:10C820003B1901225A603B1900229A603B190022F1
:10C83000DA603A19A023DB051100180007F054FA5A
:10C840003B19802212021A603B19882252035A6057
:10C850003B1900229A603A19A023DB051100180049
:10C8600007F042FA21007B1801221A607B18882207
:10C8700052035A600C003B1900229A603B19294A66
:10C880001900100007F030FA3B1918221A603B1902
:10C8900001225A603B1900229A603B190022DA609B
:10C8A0003B191F4A1900100007F01EFA21007B18DF
:10C8B000A0221A607B1801225A607B1801229A601C
:10C8C0007B180022DA607B18154A1900100007F067
:10C8D0000BFA134B01228021180007F06FFC124B5A
:10C8E0001A68114B802189020A431A600022032131
:10C8F000052005F091FB052005F0AEFB0022032189
:10C90000072005F089FB072005F0A6FBC046BD46C1
:10C910000BB090BD001002404060000000080050C5
:10C9200000040050000C00500000014090B595B08C
:10C9300000AF14243B1918003C231A0000210EF00C
:10C9400022FA3B1D180010231A0000210EF01BFADA
:10C9500080239B00180007F0D3FC3B1901221A60CA
:10C960003B19802252025A603B1900221A623B197D
:10C97000180007F025FD031E01D000F037F83B1D1D
:10C9800007221A603B1D01225A603B1D00229A605B
:10C990003B1D0022DA603B1D0021180008F0E2F97F
:10C9A000031E01D000F022F8C046BD4615B090BD70
:10C9B00080B582B000AF78607A68094B9A4204D1A2
:10C9C000084B2021180007F039FC7B681B68064AD9
:10C9D000934201D103F028FEC046BD4602B080BD9F
:10C9E000042B0020000400500010004080B500AF70
:10C9F00072B6C046FEE780B582B000AF786039609D
:10CA0000C046BD4602B080BD80B582B000AF154BB8
:10CA10001A6C144B01210A431A64124B1B6C01223D
:10CA200013407B607B680F4BDA6B0E4B802149050E
:10CA30000A43DA630B4BDA6B80235B0513403B60E0
:10CA40003B6802235B4200220321180005F0E4FA50
:10CA5000C023DB00180003F027FEC046BD4602B02D
:10CA600080BDC04600100240B0B58CB000AF786009
:10CA70002B23FB1800221A70374BDA6B364B102130
:10CA80000A43DA63344BDB6B10221340BB60BB6894
:10CA90000C23FA1810243B191100180008F0AEFB03
:10CAA0003B19DB687B627B6A002B04D108F090FBAA
:10CAB0000300FB6204E008F08BFB03005B00FB62F9
:10CAC000FB6A26491800F3F71FFB0300013B3B629A
:10CAD000234B244A1A60224B234ADA60204B3A6ADD
:10CAE0005A601F4B00221A611D4B00229A601C4B9A
:10CAF00000229A612B257C19194B180009F022F8A5
:10CB0000030023707B191B78002B1ED17C19144B5A
:10CB1000180009F027F9030023707B191B78002BFC
:10CB200013D1112005F098FA7B68032B09D87B6894
:10CB300000221900112005F06FFA0C4B7A681A6078
:10CB400003E02B23FB1801221A702B23FB181B7800
:10CB50001800BD460CB0B0BD0010024040420F00AE
:10CB60008829002000100040E7030000BC000020DE
:10CB700080B500AFFEE780B500AFFEE780B500AF3F
:10CB8000012007F089FBC046BD4680BD80B500AFDF
:10CB900080231B02180007F07FFBC046BD4680BD06
:10CBA00080B500AF034B180005F09AFCC046BD46A7
:10CBB00080BDC0460C22002080B500AF034B18009A
:10CBC00009F056FFC046BD4680BDC046D4290020AE
:10CBD00080B500AF034B180009F04AFFC046BD46C0
:10CBE00080BDC0466C2A002080B500AF044B180001
:10CBF00009F03EFFFFF726F9C046BD4680BDC0469E
:10CC00008829002080B500AF034B180009F030FFE1
:10CC1000C046BD4680BDC046B82A002080B500AFE2
:10CC2000034B180006F0DCFDC046BD4680BDC04683
:10CC30002429002080B500AF034B180009F018FF2D
:10CC4000C046BD4680BDC046042B002080B500AF65
:10CC500001231800BD4680BD80B582B000AF78606A
:10CC600039600EF05DF8030016221A6001235B4262
:10CC70001800BD4602B080BD80B582B000AF7860BC
:10CC800001235A427B6811001800FFF7E5FFFEE719
:10CC900080B500AFC046BD4680BD000080B588B0FD
:10CCA00000AF1023FB18180010231A0000210EF00B
:10CCB0006AF83B1D18000C231A0000210EF063F8DF
:10CCC000214B224A1A60204B17225A601E4B002229
:10CCD0009A601D4B1E4ADA601B4B00221A611A4BE8
:10CCE00000225A61184B00229A61174B180008F075
:10CCF00029FF031E01D0FFF779FE10217B18802247
:10CD000052011A607A18104B110018000AF096FBB5
:10CD1000031E01D0FFF76AFE3B1D00221A603B1D77
:10CD2000802292035A603B1D00229A603A1D064BF6
:10CD3000110018000BF0FAFD031E01D0FFF756FE9C
:10CD4000C046BD4608B080BDD4290020002C01405B
:10CD5000CF07000080B58AB000AF1C23FB18180075
:10CD60000C231A0000210EF00EF83B0018001C23C3
:10CD70001A0000210EF007F8294B8022D2051A6014
:10CD8000274B01225A60264B00229A60244B254AE9
:10CD9000DA60234B00221A61214B00229A61204B5A
:10CDA000180009F005F9031E01D0FFF71FFE1C2132
:10CDB0007B1800221A607B1800229A607A18184BA0
:10CDC000110018000BF0B2FD031E01D0FFF70EFE9C
:10CDD0003B0060221A603B0000225A603B000022A8
:10CDE0009A603B0000221A6139000D4B00221800A6
:10CDF0000AF0FEF8031E01D0FFF7F8FD3900084BDA
:10CE0000082218000AF0F4F8031E01D0FFF7EEFD27
:10CE1000034B180000F0C4F9C046BD460AB080BDFF
:10CE2000202A0020E703000080B58CB000AF20234B
:10CE3000FB18180010231A0000210DF0A4FF142382
:10CE4000FB1818000C231A0000210DF09CFF3B1D5D
:10CE5000180010231A0000210DF095FF2D4B2E4ACB
:10CE60001A602C4B2D4A5A602A4B00229A60294B9B
:10CE70002B4ADA60274B00221A61264B00229A6166
:10CE8000244B180008F05EFE031E01D0FFF7AEFD34
:10CE900020217B18802252011A607A181D4B110044
:10CEA00018000AF0CBFA031E01D0FFF79FFD194BC3
:10CEB000180009F0FFFA031E01D0FFF797FD1421B7
:10CEC0007B1800221A607B1800229A607A18114B96
:10CED000110018000BF02AFD031E01D0FFF786FD9C
:10CEE0003B1D00221A603B1D01225A603B1D00229F
:10CEF0009A603B1D0C22DA60391D064B0422180093
:10CF000009F0E8FE031E01D0FFF770FDC046BD46E4
:10CF10000CB080BD6C2A002000040040BF5D000002
:10CF2000FFFF000080B500AF0F4B104A1A600E4B98
:10CF300017225A600C4B00229A600B4B7C22DA605D
:10CF4000094B00221A61084B00225A61064B00224D
:10CF50009A61054B180008F0F5FD031E01D0FFF79C
:10CF600045FDC046BD4680BD042B00200048014061
:10CF700090B5A3B000AF78607423FB181800142399
:10CF80001A0000210DF0FFFE28243B1918004C2345
:10CF90001A0000210DF0F7FE7B681B686A4A934275
:10CFA00025D13B19802292031A603B1900229A6313
:10CFB0003B19180008F064F9031E01D0FFF716FDB5
:10CFC000624B1A6C614B802109010A431A645F4B62
:10CFD0001A6C80231B0113407B627B6A00220321B1
:10CFE0000D2005F019F80D2005F036F8A8E07B6853
:10CFF0001B68574A934236D1544BDA6B534B02218C
:10D000000A43DA63514BDB6B022213403B623B6AFB
:10D010004E4B5A6B4D4B04210A435A634B4B5B6B8F
:10D0200004221340FB61FB6974217B1880221A6083
:10D030007B1802225A607B1800229A607B1800221B
:10D04000DA607B1801221A617B18424A190010002D
:10D0500006F04AFE00220321102004F0DDFF10201C
:10D0600004F0FAFF6CE07B681B683B4A934214D1E2
:10D07000364BDA6B354B20210A43DA63334BDB6BDB
:10D0800020221340BB61BB6900220321122004F05F
:10D09000C3FF122004F0E0FF52E07B681B682F4AB8
:10D0A00093420ED1294B1A6C284B802109020A4366
:10D0B0001A64264B1A6C80231B0213407B617B6928
:10D0C0003EE07B681B68264A93421ED128217B18CC
:10D0D0008022D2031A607B180022DA637B181800C2
:10D0E00008F0CEF8031E01D0FFF780FC174B1A6C36
:10D0F000164B802149020A431A64144B1A6C802390
:10D100005B0213403B613B691AE07B681B68154A70
:10D11000934215D10D4B1A6C0C4B8021C9020A4366
:10D120001A640A4B1A6C8023DB021340FB60FB6815
:10D1300000220321162004F06FFF162004F08CFF5C
:10D14000C046BD4623B090BD002C014000100240F7
:10D15000000400400008005000140040002000407F
:10D16000004001400048014080B584B000AF7860C5
:10D170007B681A688023DB059A420BD1074BDA6B78
:10D18000064B01210A43DA63044BDB6B0122134097
:10D19000FB60FB68C046BD4604B080BD0010024085
:10D1A00090B58BB000AF786014243B19180014239D
:10D1B0001A0000210DF0E7FD7B681A688023DB056B
:10D1C0009A4244D1244B5A6B234B01210A435A63A0
:10D1D000214B5B6B012213403B613B691E4B5A6B39
:10D1E0001D4B02210A435A631B4B5B6B0222134007
:10D1F000FB60FB683B1920221A603B1902225A602F
:10D200003B1900229A603B190022DA603B19022286
:10D210001A613A19A023DB051100180006F064FD1D
:10D2200021007B188022D2001A607B1802225A60EB
:10D230007B1800229A607B180022DA607B18022299
:10D240001A617B18054A1900100006F04DFDC04612
:10D25000BD460BB090BDC046001002400004005017
:10D260000D488546FFF714FD0C480D490D4A002373
:10D2700002E0D458C4500433C4188C42F9D30A4A8B
:10D280000A4C002301E013600432A242FBD30DF0EC
:10D290004DFDFDF70BF9FEE70040022000000020E5
:10D2A0003001002088B7010830010020A0320020A2
:10D2B000FEE780B582B000AF78607B681B7A18000B
:10D2C000BD4602B080BD80B582B000AF78607B689B
:10D2D0005B781800BD4602B080BDB0B584B000AF29
:10D2E000786039600F257B1900221A707C193A6822
:10D2F0007B681100180000F03DF8030023707B19D3
:10D300001B781800BD4604B0B0BD80B586B000AF34
:10D31000F860B9607A6017217B1800221A707B18B8
:10D3200000221A7017203B181B780A2B1BD83B18B9
:10D330001A7813009B009B18BA68D3181A7859788A
:10D3400009020A43997809040A43DB781B06134350
:10D350001A007B68934205DB3B181A783B180132B0
:10D360001A70DFE7C0461723FB181B781800BD466C
:10D3700006B080BDB0B584B000AF786039607B681E
:10D38000403319000F257C193A687B681800FFF7B5
:10D39000BCFF030023707B191A78796844201300BE
:10D3A0009B009B18CB181B181B781800BD4604B0B7
:10D3B000B0BD0000B0B586B000AFF860B9607A606B
:10D3C0003B60874B1B78BFF35B8FDBB21A000123F6
:10D3D00013405A425341DBB2002B12D0804B18004D
:10D3E0000DF011FB03005A1E9341DBB2002B08D055
:10D3F00003F02CF902007B4B1A60794B18000DF0FA
:10D400000FFB17243A1979687748002388425B415B
:10D4100013703B191B78002B4ED0FB685A79997911
:10D4200009020A43D97909040A431B7A1B061343EC
:10D430001800FFF748FF0300013B5A425341DBB29B
:10D44000002B0FD0694B1B68BA689A4207D9674B0B
:10D450001B68FA2292009A18644B1A6002E0634B30
:10D46000BA681A60FB687733FA22D20011001800FC
:10D47000F8F7F6F8FB68773318005C4B1B6801225D
:10D480001900F8F70FF916257C193A687968FB68D6
:10D49000180000F0B9F8030023707B191B78002BEB
:10D4A00003D1534B01221A704CE0514B00221A70E9
:10D4B000504B03221A7045E04D4B1B78002B03D1D3
:10D4C0004C4B03221A703DE0FB685A7999790902A6
:10D4D0000A43D97909040A431B7A1B06134318002F
:10D4E000FFF7F1FE0300013B5A425341DBB2002B30
:10D4F00020D03E4B1B68BA689A4207D93B4B1B6849
:10D50000FA2292009A18394B1A6002E0374BBA6837
:10D510001A60FB687733FA22D20011001800F8F77E
:10D520009FF8FB6877331800304B1B680122190005
:10D53000F8F7B8F83A689623DB009A4202D92D4BE7
:10D5400003221A70274B1B682B4A9C1803F07EF8A5
:10D5500003009C429B415B42DBB2002B26D0FB6860
:10D560005A79997909020A43D97909040A431B7A3D
:10D570001B0613431800FAF7FFFC1C4B1F4A1A60E6
:10D5800003F064F80200174B1A601D4B1B7801333F
:10D59000DAB21B4B1A701A4B1B78022B19D9194B94
:10D5A00001221A70134B04221A7012E0154B1B78DB
:10D5B000002B0ED1FB685A79997909020A43D9796F
:10D5C00009040A431B7A1B06134300211800FAF7CB
:10D5D0006FFC084B1B781800BD4606B0B0BDC046B6
:10D5E0005C2B0020582B00203E9C0000542B002078
:10D5F000602B0020AC000020983A000010270000AB
:10D60000612B0020502B002090B587B000AFF86050
:10D61000B9607A60364B1B78BFF35B8FDBB21A00C0
:10D62000012313405A425341DBB2002B15D0304B3B
:10D6300018000DF0E8F903005A1E9341DBB2002BED
:10D640000BD003F003F80300FA22D2009A18294BFA
:10D650001A60274B18000DF0E3F917243B1900223C
:10D660001A70FB685A79997909020A43D979090431
:10D670000A431B7A1B0613431800FFF71AFE030028
:10D68000013B5A425341DBB2002B26D07A689623E5
:10D69000DB009A421CD902F0D9FF0200154B1B682F
:10D6A0009A429B415B42DBB2002B03D03B19002224
:10D6B0001A7016E0BB68104A934204D91723FB186E
:10D6C00001221A700DE01723FB1800221A7008E0DF
:10D6D0001723FB1800221A7003E01723FB180022FF
:10D6E0001A701723FB181B781800BD4607B090BDB1
:10D6F000682B0020642B002010A4000080B582B0AD
:10D7000000AF78600A00BB1C1A80BB1C1B881B0A78
:10D710009BB21AB2BB1C1B881B021BB213431BB269
:10D720009BB21800BD4602B080BD80B582B000AF8C
:10D730007860C046BD4602B080BD80B582B000AF03
:10D7400078607A68B5235B00D35C1800BD4602B0F0
:10D7500080BD80B582B000AF78607A686E23FF33F9
:10D76000D35C1800BD4602B080BD80B582B000AF6A
:10D7700078607A68AE235B00D35C5A1E9341DBB2BB
:10D780001800BD4602B080BD80B582B000AF7860A1
:10D790007A685E23FF33D35C5A1E9341DBB21800D4
:10D7A000BD4602B080BD80B582B000AF78607A68B7
:10D7B000AF235B00D35C5A1E9341DBB21800BD4619
:10D7C00002B080BD80B582B000AF78607A68602317
:10D7D000FF33D35C5A1E9341DBB21800BD4602B042
:10D7E00080BD80B582B000AF78607A68B0235B00FE
:10D7F000D35C5A1E9341DBB21800BD4602B080BD17
:10D8000080B582B000AF78607A686423FF33D35C60
:10D810001800BD4602B080BD80B582B000AF786010
:10D820000E231800BD4602B080BD80B582B000AFA7
:10D8300078607A68B1235B00D35C1800BD4602B003
:10D8400080BD80B582B000AF78607B6892225200C4
:10D850009A5C2621FF31595C09020A439321490051
:10D86000595C09040A432821FF315B5C1B06134302
:10D870001800BD4602B080BD80B582B000AF7860B0
:10D880007B689A2252009A5C3621FF31595C09026A
:10D890000A439B214900595C09040A433821FF319E
:10D8A0005B5C1B0613431800BD4602B080BD80B50B
:10D8B00082B000AF78607B68882252009A5C1221A7
:10D8C000FF31595C09020A4389214900595C090466
:10D8D0000A431421FF315B5C1B0613431800BD464D
:10D8E00002B080BD80B582B000AF78607B688A22CC
:10D8F00052009A5C1621FF31595C09020A438B21C0
:10D900004900595C09040A431821FF315B5C1B067E
:10D9100013431800BD4602B080BD80B582B000AF91
:10D9200078607B689C2252009A5C3A21FF31595CF6
:10D9300009020A439D214900595C09040A433C211C
:10D94000FF315B5C1B0613431800BD4602B080BD6F
:10D9500080B582B000AF78607B68902252009A5CFC
:10D960002221FF31595C09020A4391214900595C87
:10D9700009040A432421FF315B5C1B0613431A0090
:10D98000FA2399001000F2F7BFFB03001800BD4610
:10D9900002B080BD80B582B000AF78607B68A822FD
:10D9A00052009A5C5221FF31595C09020A43A921B5
:10D9B0004900595C09040A435421FF315B5C1B0692
:10D9C00013431800BD4602B080BD80B582B000AFE1
:10D9D00078607B68862252009A5C0E21FF31595C88
:10D9E00009020A4387214900595C09040A431021AE
:10D9F000FF315B5C1B0613431800BD4602B080BDBF
:10DA000080B582B000AF78607B68842252009A5C57
:10DA10000A21FF31595C09020A4385214900595CFA
:10DA200009040A430C21FF315B5C1B0613431800F9
:10DA3000BD4602B080BD80B582B000AF78607B6823
:10DA4000E0229B5C1800BD4602B080BDB0B582B03C
:10DA500000AF786039607A688C235B0039000C78FD
:10DA6000D15C00200140081C211C0143D154791CC9
:10DA70000D78D118487800242040041C281C20432D
:10DA80004870B91C0D78D118887800242040041CF7
:10DA9000281C20438870F91C0878D318DA780021F4
:10DAA0000A40111C021C0A43DA70C046BD4602B08F
:10DAB000B0BDB0B582B000AF786039607A688E23AF
:10DAC0005B0039000C78D15C00200140081C211C4F
:10DAD0000143D154791C0D78D11848780024204096
:10DAE000041C281C20434870B91C0D78D118887874
:10DAF00000242040041C281C20438870F91C08784E
:10DB0000D318DA7800210A40111C021C0A43DA708B
:10DB1000C046BD4602B0B0BDB0B582B000AF7860BF
:10DB200039607A6890235B0039000C78D15C002062
:10DB30000140081C211C0143D154791C0D78D118D7
:10DB4000487800242040041C281C20434870B91C3D
:10DB50000D78D118887800242040041C281C20430C
:10DB60008870F91C0878D318DA7800210A40111C53
:10DB7000021C0A43DA70C046BD4602B0B0BDB0B563
:10DB800082B000AF786039607A689C235B0039000E
:10DB90000C78D15C00200140081C211C0143D154A9
:10DBA000791C0D78D118487800242040041C281CCA
:10DBB00020434870B91C0D78D11888780024204083
:10DBC000041C281C20438870F91C0878D318DA78C4
:10DBD00000210A40111C021C0A43DA70C046BD46EF
:10DBE00002B0B0BDF0B583B000AF786039607B683B
:10DBF000A82252009A5C5221FF31595C09020A4363
:10DC0000A9214900595C09040A435421FF315B5C96
:10DC10001B0613431A003B681A4311007A68A823B5
:10DC20005B00FF2008400500D05C00242040041C5D
:10DC3000281C2043D054080AFF2420400600D01896
:10DC4000447800252C40251C341C2C434470080CBF
:10DC5000FF2420400600D018847800252C40251C85
:10DC6000341C2C438470080ED318DA7800210A4043
:10DC7000111C021C0A43DA70C046BD4603B0F0BD59
:10DC800080B582B000AF78600A00FB1C1A707A6819
:10DC9000F91CB2235B000978D154C046BD4602B0DE
:10DCA00080BDB0B582B000AF786039607A68AC23CF
:10DCB0005B0039000C78D15C00200140081C211C5D
:10DCC0000143D154791C0D78D118487800242040A4
:10DCD000041C281C20434870B91C0D78D118887882
:10DCE00000242040041C281C20438870F91C08785C
:10DCF000D318DA7800210A40111C021C0A43DA709A
:10DD0000C046BD4602B0B0BD80B582B000AF7860FD
:10DD10000A00FB1C1A707B68FA1CE12112785A5425
:10DD2000C046BD4602B080BDB0B582B000AF7860DD
:10DD300039607A68AA235B0039000C78D15C002036
:10DD40000140081C211C0143D154791C0D78D118C5
:10DD5000487800242040041C281C20434870B91C2B
:10DD60000D78D118887800242040041C281C2043FA
:10DD70008870F91C0878D318DA7800210A40111C41
:10DD8000021C0A43DA70C046BD4602B0B0BD80B581
:10DD900082B000AF78600A00FB1C1A707A68F91C28
:10DDA0006A23FF330978D154C046BD4602B080BD16
:10DDB000F0B583B000AF786039607B68DC22390051
:10DDC0000C78995C00200140081C211C01439954E7
:10DDD000791C0D789918487800242040041C281CD0
:10DDE00020434870B91C0D78991888780024204089
:10DDF000041C281C20438870F91C08789B18DA78CA
:10DE000000210A40111C021C0A43DA70FCF728FAB0
:10DE10007B68E0220121995402F018FC01007A6825
:10DE2000A2235B00FF2008400500D05C00242040B6
:10DE3000041C281C2043D054080AFF24204006005C
:10DE4000D018447800252C40251C341C2C434470E9
:10DE5000080CFF2420400600D018847800252C40B0
:10DE6000251C341C2C438470080ED318DA7800214A
:10DE70000A40111C021C0A43DA707A6888235B008E
:10DE8000D15C00200140081C582149420143D15473
:10DE9000D118487800242040041C61202043487099
:10DEA000D1188878002420408870D318DA780021AF
:10DEB0000A40DA707A688A235B00D15C0020014056
:10DEC000081C602149420143D154D11848780024EC
:10DED0002040041C1020404220434870D11888780C
:10DEE000002420408870D318DA7800210A40DA70C4
:10DEF0007B68F922012199547B68FA220021995408
:10DF00007B68F722022199547B68F82202219954F8
:10DF10007B68F522022199547B68F62202219954EC
:10DF20007B68F322012199547B68F42200219954E3
:10DF30007B68EB33FE49082218000CF01BFF7B685E
:10DF4000E333FC49082218000CF014FF7A6884239C
:10DF50005B00D15C00200140081C182149420143AC
:10DF6000D154D118487800242040041C03202043B9
:10DF70004870D1188878002420408870D318DA7847
:10DF800000210A40DA707A6886235B00D15C0020A9
:10DF90000140D154D1184878002420404870D1184D
:10DFA0008878002420408870D318DA7800210A404D
:10DFB000DA707A68AE235B000021D1547A685E2360
:10DFC000FF330021D1547A68AF235B000021D15484
:10DFD0007A686023FF330021D1547A68B0235B0054
:10DFE0000021D1547A68B2235B000021D1547A68B1
:10DFF0006623FF330121D1547A68B3235B000021EB
:10E00000D1547A686823FF330021D1547A68B4234D
:10E010005B000021D1547A686A23FF330021D15478
:10E020007A6898235B00D15C00200140D154D1185C
:10E030004878002420404870D11888780024204077
:10E040008870D318DA7800210A40DA707A6862237F
:10E05000FF330021D1547A689A235B00D15C002001
:10E060000140D154D1184878002420404870D1187C
:10E070008878002420408870D318DA7800210A407C
:10E08000DA707A689C235B00D15C00200140081C98
:10E09000402149420143D154D118487800242040FE
:10E0A000041C1F20404220434870D1188878002467
:10E0B00020408870D318DA7800210A40DA707A6834
:10E0C000B5235B000021D1547A68B1235B000021A5
:10E0D000D1547A6888235B00D15C00200140081C81
:10E0E000582149420143D154D11848780024204096
:10E0F000041C612020434870D118887800242040F7
:10E100008870D318DA7800210A40DA707A688A2396
:10E110005B00D15C00200140081C602149420143A2
:10E12000D154D118487800242040041C10204042CB
:10E1300020434870D1188878002420408870D31874
:10E14000DA7800210A40DA707A688C235B00D15CAF
:10E1500000200140D154D118487800242040487054
:10E16000D1188878002420408870D318DA780021EC
:10E170000A40DA707A688E235B00D15C002001408F
:10E18000D154D1184878002420404870D11888789C
:10E19000002420408870D318DA7800210A40DA7011
:10E1A0007A6890235B00D15C00200140D154D118E3
:10E1B0004878002420404870D118887800242040F6
:10E1C0008870D318DA7800210A40DA707A689223CE
:10E1D0005B00D15C00200140D154D1184878002464
:10E1E00020404870D1188878002420408870D318C7
:10E1F000DA7800210A40DA707A6894235B00D15CF7
:10E2000000200140D154D1184878002420404870A3
:10E21000D1188878002420408870D318DA7800213B
:10E220000A40DA707A686423FF330021D1547A6897
:10E230009E235B00D15C00200140D154D118487866
:10E24000002420404870D11888780024204088702D
:10E25000D318DA7800210A40DA707A6896235B00D6
:10E26000D15C00200140D154D118487800242040CE
:10E270004870D1188878002420408870D318DA7844
:10E2800000210A40DA707A68A2235B00D15C00208A
:10E290000140D154D1184878002420404870D1184A
:10E2A0008878002420408870D318DA7800210A404A
:10E2B000DA707A68A4235B00D15C00200140D1545D
:10E2C000D1184878002420404870D118887800245C
:10E2D00020408870D318DA7800210A40DA707A6812
:10E2E000A6235B00D15C00200140D154D1184878AE
:10E2F000002420404870D11888780024204088707D
:10E30000D318DA7800210A40DA707A68A8235B0013
:10E31000D15C00200140D154D1184878002420401D
:10E320004870D118887800242040887004E0C046E6
:10E330002CAF010838AF0108D318DA7800210A4061
:10E34000DA707A68AA235B00D15C00200140D154C6
:10E35000D1184878002420404870D11888780024CB
:10E3600020408870D318DA7800210A40DA707A6881
:10E37000AC235B00D15C00200140D154D118487817
:10E38000002420404870D1188878002420408870EC
:10E39000D318DA7800210A40DA707A686C23FF33E8
:10E3A0000021D1547A68B6235B000021D1547A68E9
:10E3B0006E23FF330021D154C046BD4603B0F0BDEB
:10E3C00090B583B000AF786039607B681800172380
:10E3D0001A0000210CF0D7FC7B689A7A00210A40D1
:10E3E000111C64220A439A72DA7A00210A40DA7216
:10E3F0003B688A2252009A5C1621FF31595C09025F
:10E400000A438B214900595C09040A431821FF3152
:10E410005B5C1B0613430E211800F1F775FE030029
:10E420009AB27B68FF2111400C001978002001404E
:10E43000081C211C01431970120A90B25A7800215D
:10E440000A40111C021C0A435A707B689A7800210A
:10E450000A40111C5A220A439A70DA7800210A40B5
:10E46000111C0A220A43DA703B68882252009A5C27
:10E470001221FF31595C09020A4389214900595C84
:10E4800009040A431421FF315B5C1B0613431A0085
:10E490007B68FF2111400C00197900200140081C05
:10E4A000211C01431971110AFF2001400C00597908
:10E4B00000200140081C211C01435971110CFF2050
:10E4C00001400C00997900200140081C211C0143E7
:10E4D0009971100EDA7900210A40111C021C0A43BE
:10E4E000DA717B681A7A00210A40111C10220A4353
:10E4F0001A725A7A00210A40111C0E220A435A72DB
:10E500007B681A7B00210A401A735A7B00210A405B
:10E510005A737B680E331A7800210A401A705A78B1
:10E5200000210A405A709A7800210A409A70DA78DD
:10E5300000210A40DA707B689A7C00210A409A74B4
:10E54000DA7C00210A40DA747B680E221A757B6837
:10E5500000225A757B6800229A75C0467868BD46CD
:10E5600003B090BD90B583B000AF78607B68A22205
:10E5700052009A5C4621FF31595C09020A43A321EB
:10E580004900595C09040A434821FF315B5C1B06C2
:10E590001343454A9C1802F059F80300A3429B41DB
:10E5A0005B42DBB2002B69D07B68E02201219954E9
:10E5B0003E4B1B78022B72D83D4B1B78062B6DD837
:10E5C0009A003C4BD3181B689F467B68E3331900C5
:10E5D000AA23DB0008221800FBF79EFE344B1B78B1
:10E5E0000133DAB2324B1A7059E07B68EB333248B0
:10E5F00008221900FBF790FE2D4B1B780133DAB28D
:10E600002B4B1A704BE07B68F3332C480222190025
:10E61000FBF782FE264B1B780133DAB2244B1A70CB
:10E620003DE07B68F533264802221900FBF774FEB3
:10E630001F4B1B780133DAB21D4B1A702FE07B6839
:10E64000F733204802221900FBF766FE184B1B78AF
:10E650000133DAB2164B1A7021E07B68F9331A489D
:10E6600002221900FBF758FE114B01221A700F4BC2
:10E670001B780133DAB20D4B1A7010E07A68B223BE
:10E680005B00D35C002B04D17B68E022022199540B
:10E6900005E07B68E0220A21995400E0C046C046AC
:10E6A000BD4603B090BDC046701700006C2D002021
:10E6B000B800002080B40108510500005205000098
:10E6C000530500005405000055050000F0B583B067
:10E6D00000AF78607B68180000F0DEFD7B68E02208
:10E6E0000321995401F0B2FF01007A6896235B0080
:10E6F000FF2008400500D05C00242040041C281C9A
:10E700002043D054080AFF2420400600D018447843
:10E7100000252C40251C341C2C434470080CFF247D
:10E7200020400600D018847800252C40251C341C7D
:10E730002C438470080ED318DA7800210A40111C8B
:10E74000021C0A43DA70C046BD4603B0F0BD0000AB
:10E75000F0B583B000AF78607B68180000F09CFDD6
:10E760007B68180001F046FC7B68962252009A5C98
:10E770002E21FF31595C09020A4397214900595C57
:10E7800009040A433021FF315B5C1B061343324A04
:10E790009C1801F05BFF0300A3429B415B42DBB28C
:10E7A000002B54D17B68180001F034FC7B688C226C
:10E7B00052009A5C1A21FF31595C09020A438D21EB
:10E7C0004900595C09040A431C21FF315B5C1B06AC
:10E7D00013431A00214B9A4204D97B68E022052199
:10E7E000995434E07B68E0220421995401F02EFF13
:10E7F00001007A689E235B00FF2008400500D05C82
:10E8000000242040041C281C2043D054080AFF2464
:10E8100020400600D018447800252C40251C341CCC
:10E820002C434470080CFF2420400600D018847844
:10E8300000252C40251C341C2C438470080ED31852
:10E84000DA7800210A40111C021C0A43DA70C04623
:10E85000BD4603B0F0BDC046B80B000010A40000D8
:10E86000F0B585B000AF786078687B688C22520084
:10E870009A5C1A21FF31595C09020A438D21490033
:10E88000595C09040A431C21FF315B5C1B061343DE
:10E890001D007B688E2252009A5C1E21FF31595C5C
:10E8A00009020A438F214900595C09040A432021C7
:10E8B000FF315B5C1B0613430F26BC190D492A0070
:10E8C000FEF778FD03002370BB191B78032B02D0E1
:10E8D000042B05D009E07B68E0220521995404E06F
:10E8E0007B68E0220A219954C046C046BD4605B067
:10E8F000F0BDC0461CCB0000F0B583B000AF78601F
:10E900007B688C2252009A5C1A21FF31595C090203
:10E910000A438D214900595C09040A431C21FF3137
:10E920005B5C1B0613431A00C54B9A4245D97B68B2
:10E93000862252009A5C0E21FF31595C09020A437B
:10E9400087214900595C09040A431021FF315B5CAF
:10E950001B0613431A002023134319007A688623E9
:10E960005B00FF2008400500D05C00242040041C10
:10E97000281C2043D054080AFF2420400600D01849
:10E98000447800252C40251C341C2C434470080C72
:10E99000FF2420400600D018847800252C40251C38
:10E9A000341C2C438470080ED318DA7800210A40F6
:10E9B000111C021C0A43DA703EE17B688622520079
:10E9C0009A5C0E21FF31595C09020A4387214900F4
:10E9D000595C09040A431021FF315B5C1B06134399
:10E9E0001A0020239A4311007A6886235B00FF20D7
:10E9F00008400500D05C00242040041C281C204353
:10EA0000D054080AFF2420400600D018447800257E
:10EA10002C40251C341C2C434470080CFF2420403F
:10EA20000600D018847800252C40251C341C2C436B
:10EA30008470080ED318DA7800210A40111C021CD9
:10EA40000A43DA707B68180000F026FC7B688C2291
:10EA500052009A5C1A21FF31595C09020A438D2148
:10EA60004900595C09040A431C21FF315B5C1B0609
:10EA700013431A00734B9A4240D97A686823FF33D4
:10EA8000D35C002B3AD17A68B4235B000021D154C7
:10EA900001F0DCFD01007A6898235B00FF2008404C
:10EAA0000500D05C00242040041C281C2043D054C6
:10EAB000080AFF2420400600D018447800252C4086
:10EAC000251C341C2C434470080CFF2420400600F5
:10EAD000D018847800252C40251C341C2C438470CD
:10EAE000080ED318DA7800210A40111C021C0A43D0
:10EAF000DA707A686823FF330121D15401F0A6FD52
:10EB00007B68982252009A5C3221FF31595C0902DD
:10EB10000A4399214900595C09040A433421FF3111
:10EB20005B5C1B061343C21A4749002391425B41B9
:10EB3000DBB2002B21D07B688C2252009A5C1A2118
:10EB4000FF31595C09020A438D214900595C0904CF
:10EB50000A431C21FF315B5C1B0613431A00394B2F
:10EB60009A4269D97A68B4235B00D35C012B63D1E4
:10EB70007B68E022082199545EE07B688C22520079
:10EB80009A5C1A21FF31595C09020A438D21490020
:10EB9000595C09040A431C21FF315B5C1B061343CB
:10EBA0001A00284B9A4221D97B688C2252009A5C29
:10EBB0001A21FF31595C09020A438D214900595C31
:10EBC00009040A431C21FF315B5C1B0613431A0036
:10EBD0001E4B9A420AD87A68B4235B00D35C002BA0
:10EBE00004D17B68E0220621995425E07B688C22C1
:10EBF00052009A5C1A21FF31595C09020A438D21A7
:10EC00004900595C09040A431C21FF315B5C1B0667
:10EC100013431A000D4B9A420ED97A68B4235B0055
:10EC2000D35C002B08D17A686C23FF330121D154C7
:10EC30007B68E02207219954BD4603B0F0BDC04671
:10EC4000E8FD00000FA400007B15000033B70000B2
:10EC500080B582B000AF78607A686423FF33FF210B
:10EC6000D1547A68B5235B000121D1547A68B4236A
:10EC70005B00D35C012B04D17B68E022082199540E
:10EC800022E07B688C2252009A5C1A21FF31595C89
:10EC900009020A438D214900595C09040A431C21D9
:10ECA000FF315B5C1B0613431A00094B9A4204D9DF
:10ECB0007B68E0220721995406E0FA231A017B6859
:10ECC00011001800FEF728FFC046BD4602B080BD07
:10ECD00034B70000F0B583B000AF78607A68AE2337
:10ECE0005B000021D1547A685E23FF330021D154A8
:10ECF0007A68AF235B000021D1547A686023FF3328
:10ED00000021D1547A68B0235B000021D154FA234A
:10ED10009A017B6811001800FEF7FEFE4B4A7B68E3
:10ED200011001800FEF72BFF7A686423FF33FF21E0
:10ED3000D1547A68B5235B000121D1547B688C22C1
:10ED400052009A5C1A21FF31595C09020A438D2155
:10ED50004900595C09040A431C21FF315B5C1B0616
:10ED6000134319007A6892235B00FF2008400500D6
:10ED7000D05C00242040041C281C2043D054080AE6
:10ED8000FF2420400600D018447800252C40251C84
:10ED9000341C2C434470080CFF2420400600D0187B
:10EDA000847800252C40251C341C2C438470080ECC
:10EDB000D318DA7800210A40111C021C0A43DA70C9
:10EDC0007B688E2252009A5C1E21FF31595C090239
:10EDD0000A438F214900595C09040A432021FF316D
:10EDE0005B5C1B06134319007A689A235B00FF20C3
:10EDF00008400500D05C00242040041C281C20434F
:10EE0000D054080AFF2420400600D018447800257A
:10EE10002C40251C341C2C434470080CFF2420403B
:10EE20000600D018847800252C40251C341C2C4367
:10EE30008470080ED318DA7800210A40111C021CD5
:10EE40000A43DA70C046BD4603B0F0BDC0E1000021
:10EE500080B582B000AF78607B68180000F01CFAC3
:10EE60007B68180000F00CF87B68180001F0E2F8ED
:10EE70007B68180001F0A8F9C046BD4602B080BD0D
:10EE800080B584B000AF786001F0E0FB0300FB6068
:10EE90007B68942252009A5C2A21FF31595C090256
:10EEA0000A4395214900595C09040A432C21FF318A
:10EEB0005B5C1B0613431B4A94466344FA689A4200
:10EEC0001DD97A686623FF330021D1547A68B423B0
:10EED0005B000021D1547A68B5235B000021D15436
:10EEE0007A686423FF330021D1547A686C23FF339E
:10EEF0000121D1547B68E022092199540EE07A68FF
:10EF0000B5235B000121D1547A686823FF330021C7
:10EF1000D1547A686C23FF330021D154C046BD46DA
:10EF200004B080BD88130000F0B583B000AF7860F6
:10EF30007B68E0229B5C0A2B00D99EE19A00D24BB1
:10EF4000D3181B689F467B681800FFF70BFB97E1FF
:10EF50007B681800FFF7BAFB92E17B681800FFF7A7
:10EF6000F7FB8DE17B681800FFF77AFC88E17B688E
:10EF70001800FFF7C1FC83E17B681800FFF768FE0B
:10EF80007EE17B681800FFF7A5FE79E17B68180039
:10EF9000FFF75EFF74E17A68B5235B000021D1546E
:10EFA0007A686423FF330021D1547A686C23FF33DD
:10EFB0000121D15464E17B688C2252009A5C1A21B1
:10EFC000FF31595C09020A438D214900595C09044B
:10EFD0000A431C21FF315B5C1B0613431A00AB4B39
:10EFE0009A4200D8A4E07B688C2252009A5C1A21D5
:10EFF000FF31595C09020A438D214900595C09041B
:10F000000A431C21FF315B5C1B0613431A00A04B13
:10F010009A4200D98CE07B68A82252009A5C522167
:10F02000FF31595C09020A43A9214900595C0904CE
:10F030000A435421FF315B5C1B0613431A008023F3
:10F04000DB02134319007A68A8235B00FF20084005
:10F050000500D05C00242040041C281C2043D05410
:10F06000080AFF2420400600D018447800252C40D0
:10F07000251C341C2C434470080CFF24204006003F
:10F08000D018847800252C40251C341C2C43847017
:10F09000080ED318DA7800210A40111C021C0A431A
:10F0A000DA707B68A82252009A5C5221FF31595CC9
:10F0B00009020A43A9214900595C09040A43542161
:10F0C000FF315B5C1B0613431A0080235B0513436F
:10F0D00019007A68A8235B00FF2008400500D05C77
:10F0E00000242040041C281C2043D054080AFF247C
:10F0F00020400600D018447800252C40251C341CE4
:10F100002C434470080CFF2420400600D01884785B
:10F1100000252C40251C341C2C438470080ED31869
:10F12000DA7800210A40111C021C0A43DA70A6E0BA
:10F130007B688C2252009A5C1A21FF31595C0902CB
:10F140000A438D214900595C09040A431C21FF31FF
:10F150005B5C1B0613431A004E4B9A4200D98EE0AB
:10F160007B68A82252009A5C5221FF31595C090247
:10F170000A43A9214900595C09040A435421FF317B
:10F180005B5C1B0613431A008023DB00134319004A
:10F190007A68A8235B00FF2008400500D05C0024AB
:10F1A0002040041C281C2043D054080AFF2420407F
:10F1B0000600D018447800252C40251C341C2C4314
:10F1C0004470080CFF2420400600D01884780025E5
:10F1D0002C40251C341C2C438470080ED318DA787C
:10F1E00000210A40111C021C0A43DA707B68A82225
:10F1F00052009A5C5221FF31595C09020A43A9214D
:10F200004900595C09040A435421FF315B5C1B0629
:10F2100013431A0080235B05134319007A68A8235F
:10F220005B00FF2008400500D05C00242040041C47
:10F23000281C2043D054080AFF2420400600D01880
:10F24000447800252C40251C341C2C434470080CA9
:10F25000FF2420400600D018847800252C40251C6F
:10F26000341C2C438470080ED318DA7800210A402D
:10F27000111C021C0A43DA7001E0C04600E0C046DF
:10F28000C046BD4603B0F0BD9CB401083075000017
:10F290003D9C00002F750000F0B585B000AF786090
:10F2A0007A686C23FF33D35C012B64D07B68A42283
:10F2B00052009A5C4A21FF31595C09020A43A52198
:10F2C0004900595C09040A434C21FF315B5C1B0671
:10F2D00013431C0001F0BAF903009C429B415B42BE
:10F2E000DBB2002B48D008217B1800221A600022D4
:10F2F0005A607B1801221A707B1802225A70791802
:10F30000E223FF3308221800FBF706F801F09EF90C
:10F310000300FA22920099187A68A4235B00FF2068
:10F3200008400500D05C00242040041C281C204319
:10F33000D054080AFF2420400600D0184478002545
:10F340002C40251C341C2C434470080CFF24204006
:10F350000600D018847800252C40251C341C2C4332
:10F360008470080ED318DA7800210A40111C021CA0
:10F370000A43DA7000E0C046BD4605B0F0BD80B576
:10F3800084B000AF78600F217B1800221A707B6870
:10F39000E0229B5C052B02D97B1801221A700F23F7
:10F3A000FB181B781800BD4604B080BD80B584B042
:10F3B00000AF7860396008217B1800221A600022B3
:10F3C0005A6079183B6808221800FAF7A5FFC04672
:10F3D000BD4604B080BD90B587B000AFF860B9609D
:10F3E000FB1D1A7014243B19180003231A00002176
:10F3F0000BF0C9FCFB1D1A78B9683B1918000BF01B
:10F40000B9FC3B195B78022B1BD1FA68B4235B0073
:10F410000121D154FA686623FF330121D154CD2351
:10F420005A00FB6811001800FFF7C0FFFA68642358
:10F43000FF33FF21D154FA68B5235B000121D15479
:10F4400009E0FA686623FF330021D154FA68B42337
:10F450005B000021D154C046BD4607B090BDF0B559
:10F4600087B000AFF860B960FB1D1A7010243B191B
:10F47000180007231A0000210BF085FCFB1D1A78E9
:10F48000B9683B1918000BF075FC20003B191B797B
:10F490005BB2D9B2FA68B1235B00D154FA683B1869
:10F4A0001B8819001000FEF729F903001A00130049
:10F4B0009B009B185B001900FA6892235B00FF20F9
:10F4C00005000D40D05C00242040041C281C204373
:10F4D000D054080AFF2406002640D018447800259E
:10F4E0002C40251C341C2C434470080CFF240600BF
:10F4F0002640D018847800252C40251C341C2C4331
:10F500008470080ED318DA7800210A40111C021CFE
:10F510000A43DA70FA6810203B185B881900100063
:10F52000FEF7ECF803001A0013009B009B185B0029
:10F530001900FA689A235B00FF2008400500D05CA0
:10F5400000242040041C281C2043D054080AFF2417
:10F5500020400600D018447800252C40251C341C7F
:10F560002C434470080CFF2420400600D0188478F7
:10F5700000252C40251C341C2C438470080ED31805
:10F58000DA7800210A40111C021C0A43DA70C046D6
:10F59000BD4607B0F0BD80B584B000AFF860B9607B
:10F5A000FB1D1A70C046BD4604B080BD80B584B056
:10F5B00000AFF860B960FB1D1A70C046BD4604B0CC
:10F5C00080BD80B584B000AFF860B960FB1D1A70D3
:10F5D000BB681978FA68AE235B00D154BB685978D0
:10F5E000FA685E23FF33D154BB689978FA68AF2379
:10F5F0005B00D154BB68D978FA686023FF33D154DB
:10F60000BB681979FA68B0235B00D154C046BD4687
:10F6100004B080BDB0B586B000AFF86008007A6075
:10F6200019000B23FB18021C1A700A243B190A1C30
:10F630001A7010257B19180008231A0000210BF0FE
:10F64000A2FB3B191A7879687B1918000BF092FB22
:10F65000C046BD4606B0B0BD90B583B000AF78607F
:10F660007B68E0229B5C082B04D17A686223FF331D
:10F67000D15C1EE07C687B688C2252009A5C1A2167
:10F68000FF31595C09020A438D214900595C090484
:10F690000A431C21FF315B5C1B0613430E2118003B
:10F6A000F0F732FD030019002000FDF716FE0300FD
:10F6B00019007A686223FF33D1547A686223FF33DA
:10F6C000D35C1800BD4603B090BD0000F0B587B014
:10F6D00000AFF860B960FB1D1A7010243B191800C8
:10F6E00008231A0000210BF04EFBFB1D1A78B968A5
:10F6F0003B1918000BF03EFBFB68E1229B5C042BDE
:10F7000000D115E1FA683B19DB8819001000FDF7FC
:10F71000F5FF03001A0013009B009B185B00190003
:10F72000FA6890235B00FF2008400500D05C0024AD
:10F730002040041C281C2043D054080AFF242040E9
:10F740000600D018447800252C40251C341C2C437E
:10F750004470080CFF2420400600D018847800254F
:10F760002C40251C341C2C438470080ED318DA78E6
:10F7700000210A40111C021C0A43DA70FB68902227
:10F7800052009A5C2221FF31595C09020A439121FF
:10F790004900595C09040A432421FF315B5C1B06C4
:10F7A00013431A00FA239B019A421CD9FA6890234A
:10F7B0005B00D15C00200140081C802149420143CC
:10F7C000D154D118487800242040041C3E20204306
:10F7D0004870D1188878002420408870D318DA78CF
:10F7E00000210A40DA70FB68902252009A5C2221C4
:10F7F000FF31595C09020A4391214900595C09040F
:10F800000A432421FF315B5C1B0613431A00524B51
:10F810009A421CD8FA6890235B00D15C002001401A
:10F82000081C242149420143D154D11848780024AE
:10F830002040041C052020434870D11888780024FB
:10F8400020408870D318DA7800210A40DA70FA680C
:10F850001023FB189B8819001000FDF74FFF0300D1
:10F860001A0013009B009B185B001900FA689C2388
:10F870005B00FF2008400500D05C00242040041CF1
:10F88000281C2043D054080AFF2420400600D0182A
:10F89000447800252C40251C341C2C434470080C53
:10F8A000FF2420400600D018847800252C40251C19
:10F8B000341C2C438470080ED318DA7800210A40D7
:10F8C000111C021C0A43DA70FB689C2252009A5CED
:10F8D0003A21FF31595C09020A439D214900595CD4
:10F8E00009040A433C21FF315B5C1B0613431A00E9
:10F8F0001A4B9A421CD9FA689C235B00D15C002009
:10F900000140081C78210143D154D11848780024C3
:10F910002040041C1A20404220434870D1188878A7
:10F92000002420408870D318DA7800210A40DA7069
:10F9300010203B189978FA686223FF33D1543B18A2
:10F940005B785BB2D9B2FA68B1235B00D154C04690
:10F95000BD4607B0F0BDC046DB05000078E60000FC
:10F96000F0B587B000AFF860B960FB1D1A701024C5
:10F970003B19180008231A0000210BF004FAFB1DA4
:10F980001A78B9683B1918000BF0F4F9FA683B19BA
:10F990005B8819001000FDF7B1FE03001A00130088
:10F9A0009B009B185B001900FA6888235B00FF200E
:10F9B00008400500D05C00242040041C281C204383
:10F9C000D054080AFF2420400600D01844780025AF
:10F9D0002C40251C341C2C434470080CFF24204070
:10F9E0000600D018847800252C40251C341C2C439C
:10F9F0008470080ED318DA7800210A40111C021C0A
:10FA00000A43DA70FA6810243B191B8819001000A9
:10FA1000FDF774FE03001A0013009B009B185B00A7
:10FA20001900FA688A235B00FF2008400500D05CBB
:10FA300000242040041C281C2043D054080AFF2422
:10FA400020400600D018447800252C40251C341C8A
:10FA50002C434470080CFF2420400600D018847802
:10FA600000252C40251C341C2C438470080ED31810
:10FA7000DA7800210A40111C021C0A43DA70FA6885
:10FA800010243B199B8819001000FDF737FE030076
:10FA90001A0013009B009B185B001900FA68922360
:10FAA0005B00FF2008400500D05C00242040041CBF
:10FAB000281C2043D054080AFF2420400600D018F8
:10FAC000447800252C40251C341C2C434470080C21
:10FAD000FF2420400600D018847800252C40251CE7
:10FAE000341C2C438470080ED318DA7800210A40A5
:10FAF000111C021C0A43DA70FA6810243B19DB88D7
:10FB000019001000FDF7FAFD03001A0013009B0016
:10FB10009B185B001900FA689A235B00FF200840DD
:10FB20000500D05C00242040041C281C2043D05435
:10FB3000080AFF2420400600D018447800252C40F5
:10FB4000251C341C2C434470080CFF242040060064
:10FB5000D018847800252C40251C341C2C4384703C
:10FB6000080ED318DA7800210A40111C021C0A433F
:10FB7000DA70C046BD4607B0F0BD80B584B000AFB6
:10FB8000F860B960FB1D1A70BB681978FA68AE237B
:10FB90005B00D154BB685978FA68AF235B00D1543D
:10FBA000BB689978FA686023FF33D154BB68D97871
:10FBB000FA68B0235B00D154C046BD4604B080BD96
:10FBC000F0B583B000AF786039603B681A78597837
:10FBD00009020A43997809040A43DB781B06134398
:10FBE0009E4A934200D12BE19C4A934200D930E1D6
:10FBF0009B4A934200D11AE1994A934200D928E1E5
:10FC0000F222520093420ED2CD225200934200D2F1
:10FC10001FE19B3BFF3B492B00D91AE19A00914B16
:10FC2000D3181B689F46A422D200934200D1F5E06E
:10FC30000FE100F00BFD01007A6894235B00FF20C8
:10FC400008400500D05C00242040041C281C2043F0
:10FC5000D054080AFF2420400600D018447800251C
:10FC60002C40251C341C2C434470080CFF242040DD
:10FC70000600D018847800252C40251C341C2C4309
:10FC80008470080ED318DA7800210A40111C021C77
:10FC90000A43DA703B68591D3B681A797B68180083
:10FCA000FFF799FBD6E0D2235A007B6811001800B9
:10FCB000FFF77CFBCEE03B68591D3B681A797B68F7
:10FCC0001800FFF7CCFBD7235A007B6811001800FF
:10FCD000FFF76CFBBEE03B6899797A686223FF33DB
:10FCE000D154DC235A007B6811001800FFF75EFB3B
:10FCF000B0E0E1235A007B6811001800FFF756FBC3
:10FD0000A8E03B68591D3B681A797B681800FFF72B
:10FD100042FCC423FF331A007B6811001800FFF770
:10FD200045FB97E03B68591D3B681A797B681800D2
:10FD3000FFF73CFCE2235A007B6811001800FFF734
:10FD400035FB87E0E6235A007B6811001800FFF7B7
:10FD50002DFB7FE03B68591D3B681A797B681800D2
:10FD6000FFF72FFCEB235A007B6811001800FFF708
:10FD70001DFB6FE03B685A1D3B681B7978680021CA
:10FD8000FFF748FCD823FF331A007B6811001800E6
:10FD9000FFF70CFB5EE03B685A1D3B681B797868F7
:10FDA0000521FFF737FCEC235A007B68110018008F
:10FDB000FFF7FCFA4EE03B685A1D3B681B797868F8
:10FDC0000921FFF727FCDA23FF331A007B681100B3
:10FDD0001800FFF7EBFA3DE03B685A1D3B681B79C2
:10FDE00078680D21FFF716FCF0235A007B6811009C
:10FDF0001800FFF7DBFA2DE0E223FF331A007B68DF
:10FE000011001800FFF7D2FA24E0AC23FF331A00E8
:10FE10007B6811001800FFF7C9FA1BE03B68591D09
:10FE20003B681A797B681800FFF750FC12E03B68CA
:10FE3000591D3B681A797B681800FFF791FD09E0AE
:10FE40003B68591D3B681A797B681800FFF795FEDF
:10FE500000E0C046C046BD4603B0F0BD220500002C
:10FE600021050000C8B4010890B589B000AFF86062
:10FE7000B9607A601A00FB1C1A7010243B19180034
:10FE800010231A0000210AF07EFF3B19BA681A609D
:10FE90003B19FA1C12781A73FB1C1A7879683B1903
:10FEA000043318000AF066FF144B5A68134B1B7892
:10FEB000591CC8B2114908701B01D2183B19100017
:10FEC000190010231A000AF055FF0C4B1A780B4B3F
:10FED0009B7819001000F0F79DF90B00DAB2074B80
:10FEE0001A70FB68FB331A00FB681100180000F061
:10FEF00007F800231800BD4609B090BDB0000020EF
:10FF0000B0B586B000AF7860396008257B1918005D
:10FF100010231A0000210AF036FF354B5A68344B83
:10FF20005B78591CC8B2324948701B01D3187A1942
:10FF30001000190010231A000AF01CFF2C4B5A78ED
:10FF40002B4B9B7819001000F0F764F90B00DAB224
:10FF5000274B5A703B68581D7B191B7B1A007B1975
:10FF6000043319000AF006FF7B191A683B68FF2169
:10FF700011400C00197800200140081C211C01438D
:10FF80001970110AFF2001400C005978002001402F
:10FF9000081C211C01435970110CFF2001400C006A
:10FFA000997800200140081C211C01439970100E13
:10FFB000DA7800210A40111C021C0A43DA707B190E
:10FFC0001A7B3B681A717B681A78597809020A43D0
:10FFD000997809040A43DB781B06134308331B682E
:10FFE00039687A6810009847C046BD4606B0B0BD73
:10FFF000B000002080B582B000AF7860044B0022D2
:020000040801F1
:100000008021180004F0DAF8C046BD4602B080BD79
:100010000004005080B582B000AF7860044B01222C
:100020008021180004F0CAF8C046BD4602B080BD69
:1000300000040050B0B584B000AF78607A686623E1
:10004000FF33D35C002B00D1B9E00823FB18180064
:1000500008231A0000210AF096FE7B68E0229B5CD0
:10006000062B04D07B68E1229B5C012B07D1082181
:100070007B1801221A707B180222DA703CE07B6840
:10008000E1229B5C002B04D07B68E1229B5C052B6A
:1000900007D108217B1800221A707B180122DA7020
:1000A0002AE07B68E1229B5C022B04D07B68E12282
:1000B0009B5C032B07D108217B1802221A707B1846
:1000C0000222DA7018E07B68E1229B5C042B07D1E6
:1000D00008217B1803221A707B180222DA700BE0C9
:1000E0007B68E1229B5C062B06D108217B18042249
:1000F0001A707B180122DA707C687B688E225200AD
:100100009A5C1E21FF31595C09020A438F21490084
:10011000595C09040A432021FF315B5C1B06134331
:100120000A211800EFF7F0FF03009BB2190020002E
:10013000FDF7E4FA03001A0008257B19DA807C68D1
:100140007B688C2252009A5C1A21FF31595C0902AB
:100150000A438D214900595C09040A431C21FF31DF
:100160005B5C1B0613430A211800EFF7CDFF030069
:100170009BB219002000FDF7C1FA03001A007B1999
:100180009A807B68AC2252009A5C5A21FF31595CFC
:1001900009020A43AD214900595C09040A435C2164
:1001A000FF315B5C1B0613435AB27B195A707919F5
:1001B000A623DB0008221800FAF7AEF800E0C046DC
:1001C000BD4604B0B0BD000080B586B000AF786019
:1001D0007A686623FF33D35C002B00D1FDE1102346
:1001E000FB1800221A6000225A600C203B180022E3
:1001F0001A807B68AA2252009A5C5621FF31595C12
:1002000009020A43AB214900595C09040A435821F9
:10021000FF315B5C1B0613431A0080235B02134013
:1002200007D03B181B7801221343DAB23B181A702F
:1002300007E00C217B181B7801229343DAB27B186C
:100240001A707B68AA2252009A5C5621FF31595CD1
:1002500009020A43AB214900595C09040A435821A9
:10026000FF315B5C1B0613431A00A0231B011340E4
:1002700008D00C217B181B7802221343DAB27B18BA
:100280001A7007E00C217B181B7802229343DAB224
:100290007B181A707B68AA2252009A5C5621FF31A3
:1002A000595C09020A43AB214900595C09040A431D
:1002B0005821FF315B5C1B0613431A0080235B034C
:1002C000134008D00C217B181B7804221343DAB2A8
:1002D0007B181A7007E00C217B181B7804229343CB
:1002E000DAB27B181A707A686A23FF33D35C012B69
:1002F00008D10C217B181B7808221343DAB27B1833
:100300001A7007E00C217B181B7808229343DAB29D
:100310007B181A707B68AA2252009A5C5621FF3122
:10032000595C09020A43AB214900595C09040A439C
:100330005821FF315B5C1B0613431A000223134054
:1003400008D00C217B181B7810221343DAB27B18DB
:100350001A7007E00C217B181B7810229343DAB245
:100360007B181A707B68AA2252009A5C5621FF31D2
:10037000595C09020A43AB214900595C09040A434C
:100380005821FF315B5C1B0613431A000423134002
:1003900008D00C217B181B7820221343DAB27B187B
:1003A0001A7007E00C217B181B7820229343DAB2E5
:1003B0007B181A707B68AA2252009A5C5621FF3182
:1003C000595C09020A43AB214900595C09040A43FC
:1003D0005821FF315B5C1B0613431A008023134036
:1003E0000FD00C217B181B7840221343DAB27B1804
:1003F0001A707B185B7804221343DAB27B185A70A8
:100400000EE00C217B181B7840229343DAB27B1854
:100410001A707B185B7804229343DAB27B185A7007
:100420007B68AA2252009A5C5621FF31595C09026E
:100430000A43AB214900595C09040A435821FF31A2
:100440005B5C1B0613431A00C0239B04134009D0B6
:100450000C217B181B78802252421343DAB27B189E
:100460001A7007E00C217B181B787F221340DAB248
:100470007B181A707B68AA2252009A5C5621FF31C1
:10048000595C09020A43AB214900595C09040A433B
:100490005821FF315B5C1B0613431A0020231340D5
:1004A00008D00C217B185B7801221343DAB27B1849
:1004B0005A7007E00C217B185B7801229343DAB273
:1004C0007B185A707B68AA2252009A5C5621FF3131
:1004D000595C09020A43AB214900595C09040A43EB
:1004E0005821FF315B5C1B0613431A004023134065
:1004F00008D00C217B185B7802221343DAB27B18F8
:100500005A7007E00C217B185B7802229343DAB221
:100510007B185A707B68AA2252009A5C5621FF31E0
:10052000595C09020A43AB214900595C09040A439A
:100530005821FF315B5C1B0613431A0080231B0507
:10054000134008D00C217B185B7808221343DAB2E1
:100550007B185A7007E00C217B185B7808229343C4
:10056000DAB27B185A707B68AA2252009A5C562134
:10057000FF31595C09020A43AB214900595C090467
:100580000A435821FF315B5C1B0613431A0080238A
:10059000DB04134008D00C217B185B781022134336
:1005A000DAB27B185A7007E00C217B185B781022B6
:1005B0009343DAB27B185A700C203B181A7810213A
:1005C0007B181A703B185A787B185A707B180548AC
:1005D00008221900F9F7A0FE00E0C046BD4606B0AB
:1005E00080BDC0463105000080B582B000AFFB1D64
:1005F00000221A700B4B1A680A4B802149000A43EB
:100600001A600320FCF730FA031E03D0FB1D012201
:100610001A7001E0FCF7F8F9FB1D1B781800BD46C5
:1006200002B080BD0020024080B500AF054B1B78B2
:100630001A00054B1B68D218034B1A60C046BD4612
:1006400080BDC046C0000020702D002080B500AFE6
:10065000024B1B681800BD4680BDC046702D0020AF
:1006600080B584B000AF7860FFF7F0FF0300BB6097
:100670007B68FB60FB68013305D00A4B1B781A00CE
:10068000FB689B18FB60C046FFF7E0FF0200BB68F9
:10069000D31AFA689A42F7D8C046C046BD4604B09D
:1006A00080BDC046C000002080B582B000AF786039
:1006B0007A6880239B009A4210D07A688023DB00FE
:1006C0009A420BD07A68C023DB009A4206D0B82346
:1006D0009A00094B11001800FCF78DF9074B1B68B5
:1006E000074A13401900054B7A680A431A60C0464E
:1006F000BD4602B080BDC04644AF010800000140C5
:10070000FFF9FFFF80B582B000AF786039607B6889
:100710001B68054A1A403B681A437B681A60C0464A
:10072000BD4602B080BDC046FFFF3FFE80B582B02F
:1007300000AF78607B681A68E0235B041340180000
:10074000BD4602B080BD80B584B000AFF860B9602E
:100750007A60FB685B69BA6804210A40072191400E
:100760000A00D2431A40BB6804210B4079689940C3
:100770000B001A43FB685A61C046BD4604B080BDF9
:1007800080B582B000AF786039607B685B693A6899
:1007900004210A40072191400A001A403B680421C5
:1007A0000B40DA4013001800BD4602B080BD80B592
:1007B00082B000AF78607B68DA68C0231B01134009
:1007C00001D1012300E000231800BD4602B080BD26
:1007D00080B584B000AFF860B9607A60FB689B6A4E
:1007E000BA681F210A400F2191400A00D2431A40E3
:1007F0007B689B0E0F211940BB681F200340994066
:100800000B001A43FB689A62C046BD4604B080BD27
:1008100080B582B000AF786039607B689A6A3B68C7
:100820005B035B0B1A437B689A62C046BD4602B00D
:1008300080BD80B582B000AF786039607B689B6A0C
:100840003A685203520BD2431A407B689A62C04600
:10085000BD4602B080BD000080B584B000AFF86036
:10086000B9607A60FB685B69BA681202D2431A40C9
:10087000BB681B0279680B4004490B401A43FB68B4
:100880005A61C046BD4604B080BDC04600FFFF07A8
:1008900080B582B000AF78607B689B68054A1340E2
:1008A000802252051A437B689A60C046BD4602B05A
:1008B00080BDC046E8FFFF6F80B582B000AF7860B2
:1008C0007B689A6880235B051A4080235B059A4207
:1008D00001D1012300E000231800BD4602B080BD15
:1008E00080B582B000AF78607B689B68044A134093
:1008F00001221A437B689A60C046BD4602B080BDA3
:10090000E8FFFF7F80B582B000AF78607B689B68AE
:10091000044A134002221A437B689A60C046BD46CF
:1009200002B080BDE8FFFF7F80B582B000AF786085
:100930007B689B6801221340012B01D1012300E059
:1009400000231800BD4602B080BD80B582B000AF64
:1009500078607B689B6802221340022B01D101233F
:1009600000E000231800BD4602B080BD80B582B013
:1009700000AF78607B689B68044A134004221A43E6
:100980007B689A60C046BD4602B080BDE8FFFF7F2D
:1009900080B582B000AF78607B689B68042213400A
:1009A000042B01D1012300E000231800BD4602B052
:1009B00080BD000080B588B000AF78601F23FB18B1
:1009C00000221A700023BB6100237B610023FB60BF
:1009D0007B68002B02D1012300F00FFC7B681B68B1
:1009E000C34A934207D08A23FF331A00C14B110038
:1009F0001800FCF700F87B685A68C0231B069A426F
:100A000058D07B685A688023DB059A4252D07B68B5
:100A10005A6880231B069A424CD07B685B68002B87
:100A200048D07B685A688023DB029A4242D07B68B8
:100A30005A6880231B039A423CD07B685A68C023C3
:100A40001B039A4236D07B685A6880235B039A4224
:100A500030D07B685A68A0235B039A422AD07B6817
:100A60005A68C0235B039A4224D07B685A68E0230B
:100A70005B039A421ED07B685A6880239B039A428C
:100A800018D07B685A6890239B039A4212D07B68E7
:100A90005A68A0239B039A420CD07B685A68B02303
:100AA0009B039A4206D0C5235A00924B11001800AE
:100AB000FBF7A1FF7B689B68002B13D07B689B68CA
:100AC000082B0FD07B689B68102B0BD07B689B6832
:100AD000182B07D08C23FF331A00864B1100180007
:100AE000FBF789FF7B68DB68002B0AD07B68DB683B
:100AF000202B06D0C6235A007E4B11001800FBF7AE
:100B00007AFF7B681B69002B18D07B681A698023E9
:100B10009B039A4212D07B681A6980231B069A4273
:100B20000CD07B681B69744A934207D08E23FF3335
:100B30001A00704B11001800FBF75DFF7B689B7E6D
:100B4000002B0AD07B689B7E012B06D0C7235A005E
:100B5000684B11001800FBF74EFF7B689B6A002B67
:100B600019D07B689A6A8023DB009A4213D07B6895
:100B70009A6A80231B019A420DD07B689A6AC0232F
:100B80001B019A4207D09023FF331A00594B1100E2
:100B90001800FBF730FF7B685A6A8023DB009A421B
:100BA0002ED07B685A6A8823DB009A4228D07B6863
:100BB0005A6A9023DB009A4222D07B685A6A9823B3
:100BC000DB009A421CD07B685A6AA823DB009A4259
:100BD00016D07B685A6AA023DB009A4210D07B684B
:100BE0005A6AB823DB009A420AD07B685B6A002B02
:100BF00006D0C8235A003F4B11001800FBF7FBFE3C
:100C00007B682C229B5C002B0CD07B682C229B5C8D
:100C1000012B07D09223FF331A00364B1100180026
:100C2000FBF7E9FE7B685B69042B0AD07B685B6994
:100C3000082B06D0C9235A002E4B11001800FBF7D1
:100C4000DAFE7B681B6B002B0DD07B681A6B802350
:100C50005B019A4207D09423FF331A00254B110001
:100C60001800FBF7C8FE7B681B7E002B0AD07B6850
:100C70001B7E012B06D0CA235A001E4B1100180000
:100C8000FBF7B9FE7B685B7E002B0BD07B685B7E3D
:100C9000012B07D09623FF331A00164B11001800C2
:100CA000FBF7A9FE7B685B6B002B29D07B685B6B35
:100CB000012B25D07B685B6B022B21D07B685B6BA3
:100CC000032B1DD07B685B6B042B19D07B685B6B9F
:100CD000052B15D07B685B6B062B11D07B685B6B9B
:100CE000072B0DD0CB235A00024B1100180005E052
:100CF0000024014078AF010804000080FBF77BFE70
:100D00007B689B6B002B23D07B689B6B012B1FD0D8
:100D10007B689B6B022B1BD07B689B6B032B17D0D4
:100D20007B689B6B042B13D07B689B6B052B0FD0D0
:100D30007B689B6B062B0BD07B689B6B072B07D0CC
:100D40009823FF331A00B94B11001800FBF753FE2C
:100D50007B683C229B5C002B0BD07B683C229B5C1D
:100D6000012B06D0CC235A00B04B11001800FBF722
:100D700042FE7B683C229B5C012B00D066E07B68D6
:100D80001B6C002B23D07B681B6C042B1FD07B6853
:100D90001B6C082B1BD07B681B6C0C2B17D07B6843
:100DA0001B6C102B13D07B681B6C142B0FD07B6833
:100DB0001B6C182B0BD07B681B6C1C2B07D09C2347
:100DC000FF331A00994B11001800FBF714FE7B68E3
:100DD0005B6C002B28D07B685B6C202B24D07B685D
:100DE0005B6C402B20D07B685B6C602B1CD07B68DD
:100DF0005B6C802B18D07B685B6CA02B14D07B685D
:100E00005B6CC02B10D07B685B6CE02B0CD07B68DC
:100E10005A6C80235B009A4206D0CE235A00834B43
:100E200011001800FBF7E7FD7B689B6C002B0DD0D1
:100E30007B689A6C80239B009A4207D09E23FF33E5
:100E40001A007A4B11001800FBF7D5FD7B68DB6CAC
:100E5000002B0DD07B68DA6C80239B059A4207D06B
:100E6000A023FF331A00714B11001800FBF7C3FDDC
:100E70007B681B69002B27D07B6820229B5C002BA2
:100E80000CD07B6820229B5C012B07D0A423FF336E
:100E90001A00664B11001800FBF7ADFD7B681A695C
:100EA00080239B039A420FD17B68DB69002B03D020
:100EB0007B68DB69082B07D9A823FF331A005B4B3B
:100EC00011001800FBF797FD7B6820229B5C012B2B
:100ED0000BD17B689B7E012B07D1AE23FF331A0019
:100EE000524B11001800FBF786FD7B689B6D002BB1
:100EF0000AD17B681800FBF717FA7B680022DA65D5
:100F00007B685422002199547B681B681800FFF706
:100F1000D3FC031E15D17B681B681800FFF7B8FCD3
:100F2000434B1B6843491800EFF7EEF80300013309
:100F30005B00FB6002E0FB68013BFB60FB68002B91
:100F4000F9D17B681B681800FFF7B6FC031E0FD1B0
:100F50007B689B6D10221A437B689A657B68DB6D0A
:100F600001221A437B68DA651F23FB1801221A70DD
:100F70007B681B681800FFF70BFD03003B617B6873
:100F80009B6D1022134000D02AE13B69002B00D05A
:100F900026E17B689B6D284A134002221A437B6836
:100FA0009A657B681B681800FFF7BEFC031E00D023
:100FB000B5E07B689A687B681B7E9B031A437B685D
:100FC0005B7EDB031A437B689B7E5B031A437B6873
:100FD0001B6B002B02D080235B0100E000231A432F
:100FE0007B68DB681A437B681B69002B04DA7B682B
:100FF0001B695B005B0801E080239B031A437B684D
:101000002C215B5C5B001343BA691343BB617B68B3
:1010100020229B5C012B1DD17B689B7E002B0DD178
:10102000BB69802252021343BB6113E078AF010811
:10103000A8000020400D0300FDFEFFFF7B689B6DB4
:1010400020221A437B689A657B68DB6D01221A4374
:101050007B68DA657B685B6A002B0AD07B685A6A1A
:10106000E0235B001A407B689B6A1343BA69134311
:10107000BB617B681B68DB68624A134019007B68B0
:101080001B68BA690A43DA607B685B689B0F9A0742
:101090007B68DB6C13437A6913437B617B683C227A
:1010A0009B5C012B11D17B685B689B0F9A077B6867
:1010B0001B6C1A437B685B6C1A437B689B6C1A43FE
:1010C0007B691343012213437B617B681B681B69A7
:1010D0004D4A134019007B681B687A690A431A61FC
:1010E0007B685A68C0231B069A4218D07B685A68EE
:1010F0008023DB059A4212D07B685A6880231B0646
:101100009A420CD0414B1B68414A134019007B683E
:101110005A68F0239B031A403C4B0A431A607B68D1
:1011200018687B685B6B1A000021FFF70CFB7B687B
:1011300018687B689B6B37491A00FFF704FB7B68D4
:101140001B69002B09D17B681B689A6A7B681B6846
:10115000102149420A439A6218E07B681A69802389
:101160009B039A4212D17B681B689B6A7B68DB6990
:10117000013B9B001C221340102252429A40110056
:101180007B681A6E7B681B680A439A627B681B68DF
:1011900000211800FFF7F4FA02007B685B6B9A42AB
:1011A0000BD17B680022DA657B689B6D0322934339
:1011B00001221A437B689A651CE07B689B6D1222B2
:1011C000934310221A437B689A657B68DB6D01228A
:1011D0001A437B68DA651F23FB1801221A7009E0A5
:1011E0007B689B6D10221A437B689A651F23FB184E
:1011F00001221A701F23FB181B781800BD4608B087
:1012000080BDC0460102FEFF02FCFF1F082701400F
:10121000FFFFC3FF04FFFF07B0B586B000AFF86063
:10122000B9607A60FB681B68434A934205D0434A21
:10123000434B11001800FBF7DEFBFB681B6818002E
:10124000FFF7A6FB031E6CD1FB6854229B5C012BAD
:1012500001D102236CE0FB68542201219954FB6800
:101260001B68DB680122134013D1FB681B68180060
:10127000FFF75AFB031E04D0FB681B681800FFF73A
:1012800041FBFB681B68DA68FB681B6801210A43A5
:10129000DA6017257C19FB68180000F05FFB03007B
:1012A00023702C003B191B78002B3ED1FB689B6DF3
:1012B000244A1340802252001A43FB689A65FB6857
:1012C0000022DA65FB681B6D1F4ADA62FB681B6D42
:1012D0001E4A1A63FB681B6D1D4A5A63FB681B6834
:1012E0001C221A60FB68542200219954FB681B6879
:1012F0005A68FB681B6810210A435A60FB68186D26
:10130000FB681B6840331900BA683C197B6801F020
:101310004DF803002370FB681B681800FFF726FBDD
:1013200003E01723FB1802221A701723FB181B78FF
:101330001800BD4606B0B0BD002401407D06000087
:1013400078AF0108FEF0FFFF251B0108ED1B010827
:101350000B1C010880B582B000AF7860C046BD4666
:1013600002B080BD80B582B000AF7860C046BD4697
:1013700002B080BD80B586B000AF786039601723B9
:10138000FB1800221A700023FB607B681B68914ADF
:10139000934205D0904A914B11001800FBF72BFBAC
:1013A0003B681B68012B00D171E03B681B688C4ACD
:1013B000934200D16BE03B681B688A4A934200D19C
:1013C00065E03B681B68884A934200D15FE03B6858
:1013D0001B68864A93425AD03B681B68844A9342F2
:1013E00055D03B681B68834A934250D03B681B68CA
:1013F000814A93424BD03B681B68804A934246D057
:101400003B681B687E4A934241D03B681B687D4A1B
:1014100093423CD03B681B687B4A934237D03B6881
:101420001B687A4A934232D03B681B68784A9342E1
:101430002DD03B681B68774A934228D03B681B68D5
:10144000754A934223D03B681B68744A93421ED06E
:101450003B681B68724A934219D03B681B68714A0B
:10146000934214D03B681B686F4A93420FD03B688D
:101470001B686E4A93420AD03B681B686C4A9342D1
:1014800005D06C4A554B11001800FBF7B4FA3B68C5
:101490009B68002B0AD03B689B68674A934205D043
:1014A000664A4E4B11001800FBF7A5FA7B681A69D3
:1014B00080231B069A4204D07B681B69604A9342D2
:1014C0000ED13B685B68012B40D03B685B68022B08
:1014D0003CD05C4A414B11001800FBF78CFA35E018
:1014E0007B68DB69002B03D07B68DB69082B06D99E
:1014F00088231A01394B11001800FBF77CFA3B686E
:101500005B68002B23D03B685B68042B1FD03B68D3
:101510005B68082B1BD03B685B680C2B17D03B68C3
:101520005B68102B13D03B685B68142B0FD03B68B3
:101530005B68182B0BD03B685B681C2B07D0424ABA
:10154000264B11001800FBF756FA00E0C0467B68F6
:1015500054229B5C012B01D10223E6E17B685422DB
:10156000012199547B681B681800FFF711FA031ECC
:1015700000D0C9E13B685B68022B00D17DE17B684C
:101580001A6980231B069A4204D07B681B692C4A87
:10159000934208D17B681A683B681B6819001000E9
:1015A000FFF736F905E17B681A6E3B685B681F211F
:1015B0000B400F2199400B00DB43134019003B689F
:1015C0001B685B035B0B41D13B681B689B0E1F22B2
:1015D0001340D4E0002401407508000078AF0108F2
:1015E00002000004040000080800000C10000010B5
:1015F00020000014400000188000001C00010020A2
:1016000000020024000400280008002C0010003014
:1016100000200034004000380080003C0000014001
:101620000000024400000448001000B0002000B494
:10163000004000B87608000004FFFF0777080000AC
:10164000040000807C080000820800003B681B68E2
:101650000122134000D091E03B681B680222134036
:1016600000D089E03B681B680422134000D081E071
:101670003B681B680822134000D079E03B681B6878
:101680001022134000D071E03B681B6820221340F9
:1016900000D069E03B681B684022134000D061E045
:1016A0003B681B688022134000D059E03B681A68F1
:1016B00080235B00134051D13B681A6880239B0054
:1016C000134049D13B681A688023DB00134041D1A5
:1016D0003B681A6880231B01134039D13B681A68A4
:1016E00080235B01134031D13B681A6880239B0142
:1016F000134029D13B681A688023DB01134021D1B4
:101700003B681A6880231B02134019D13B681A6892
:1017100080235B02134011D13B681A6880239B022F
:10172000134009D13B681A688023DB02134001D0C3
:10173000122324E0002322E0112320E010231EE0E6
:101740000F231CE00E231AE00D2318E00C2316E0F3
:101750000B2314E00A2312E0092310E008230EE013
:1017600007230CE006230AE0052308E0042306E033
:10177000032304E0022302E0012300E000233A688F
:1017800052681F20024093400A001A437B681A6681
:101790003B685B689B085A1C7B68DB699A4208D8E7
:1017A0007B6818683B6859683B681B681A00FFF73C
:1017B0000FF87B6818683B6819683B689B681A00DB
:1017C000FFF74AF83B681B68002B00DBA6E0594B8B
:1017D0001800FEF7ABFF03003B613B681B68564AED
:1017E000934222D13A6980231B0413401DD13B69E7
:1017F0008022120413434F4A19001000FEF782FFA3
:101800004E4B1B684E491800EEF77EFC03005A1C35
:1018100013005B009B189B00FB6002E0FB68013B30
:10182000FB60FB68002BF9D178E03B681B68454AF8
:1018300093420ED13A6980235B04134009D13B697E
:101840008022520413433B4A19001000FEF75AFF4E
:1018500064E03B681B683C4A93425FD13A6980234D
:10186000DB0313405AD13B698022D2031343314A30
:1018700019001000FEF746FF50E07B681A698023CC
:101880001B069A4204D07B681B69304A934207D1F9
:101890007B681A683B681B6819001000FEF7C9FFD7
:1018A0003B681B68002B39DA224B1800FEF73EFF1D
:1018B00003003B613B681B681F4A934208D13B69A8
:1018C000234A13401B4A19001000FEF71BFF25E0B6
:1018D0003B681B681B4A934208D13B691D4A134071
:1018E000144A19001000FEF70DFF17E03B681B6853
:1018F000154A934212D13B69174A13400D4A190009
:101900001000FEF7FFFE09E07B689B6D20221A4362
:101910007B689A651723FB1801221A707B68542292
:10192000002199541723FB181B781800BD4606B0F8
:1019300080BDC04608270140001000B0A80000206C
:10194000400D0300004000B8002000B404000080F7
:10195000FFFF7FFFFFFFFFFEFFFFBFFF80B584B0EB
:1019600000AF78600023BB607B681B681800FEF73F
:10197000DBFF031E00D069E07B681B689B68364A6A
:1019800013400DD07B689B6D10221A437B689A65CB
:101990007B68DB6D01221A437B68DA65012356E020
:1019A0007B681B681800FEF79BFF2C4B1800FEF7A6
:1019B000BDFE020080231B0413400FD0284B1B6880
:1019C00028491800EEF7A0FB03000133BB6002E0DA
:1019D000BB68013BBB60BB68002BF9D17B685B7EB9
:1019E000012B33D0FEF732FE0300FB6027E07B685B
:1019F0001B681800FEF798FF031E04D17B681B6864
:101A00001800FEF76DFFFEF721FE0200FB68D31AF7
:101A1000022B14D97B681B681B6801221340012B21
:101A20000DD07B689B6D10221A437B689A657B689A
:101A3000DB6D01221A437B68DA65012307E07B68CE
:101A40001B681B6801221340012BD0D10023180012
:101A5000BD4604B080BDC046170000800827014085
:101A6000A8000020400D030080B584B000AF78606E
:101A70007B681B681800FEF768FF0300FB607B684B
:101A80001B681800FEF750FF031E46D0FB68002BB2
:101A900043D17B681B689B6805221340012B0DD145
:101AA0007B681B681800FEF72DFF7B681B6803220C
:101AB0001A60FEF7CBFD0300BB6028E07B689B6DDE
:101AC00010221A437B689A657B68DB6D01221A43FA
:101AD0007B68DA65012321E0FEF7B8FD0200BB68F0
:101AE000D31A022B13D97B681B689B680122134011
:101AF0000DD07B689B6D10221A437B689A657B68CA
:101B0000DB6D01221A437B68DA65012306E07B68FE
:101B10001B689B6801221340DED100231800BD46DC
:101B200004B080BD80B584B000AF78607B689B6AEC
:101B3000FB60FB689B6D5022134041D1FB689B6D9D
:101B4000802292001A43FB689A65FB681B681800A4
:101B5000FEF72DFE031E2ED0FB689B7E002B2AD1A4
:101B6000FB681B681B6808221340082B23D1FB6805
:101B70001B681800FEF70CFF031E10D1FB681B68E2
:101B80005A68FB681B680C218A435A60FB689B6D8E
:101B9000154A134001221A43FB689A650BE0FB6863
:101BA0009B6D20221A43FB689A65FB68DB6D01225E
:101BB0001A43FB68DA65FB681800F8F7E5FC0FE0EC
:101BC000FB689B6D1022134004D0FB681800FFF7E0
:101BD000C9FB05E0FB681B6D5B6B7A6810009847DA
:101BE000C046BD4604B080BDFEFEFFFF80B584B098
:101BF00000AF78607B689B6AFB60FB681800FFF7AA
