:1008000000380020110C00006D0C00007B5E010020
:1008100000000000000000000000000000000000D8
:100820000000000000000000000000006D0C00004F
:1008300000000000000000006D0C0000D95D010008
:10084000D5010100DF010100E9010100F301010010
:10085000FD0101006D0C00006D0C00006D0C00002E
:10086000415901006D0C0000551801005F1801008E
:100870009D2A01006D0C00006D0C0000D72A0100BC
:100880006D0C00006D0C00006D0C00006D0C000084
:100890006D0C00006D0C00006D0C00006D0C000074
:1008A0008F3F0100151A0100C34101006D0C0000CB
:1008B0006D0C00006D0C00006D0C00006D0C000054
:100C0000FFFFFFFFFFFFFFFFFFFFFFFFFE7FFFFF75
:100C100072B610490F4A0F4B0E4C0E4D0D4E0D4F34
:100C2000B846B946BA46BB46BC460B490B4A521AAF
:100C3000013A05DD0020042308601944043AFBDA78
:100C400007488546074880470748804762B615F041
:100C500019F9FEE70000000000FDFF1F003800202A
:100C60000038002079EB0000F1EA0000D0E7C04630
:100C700002B4714649084900095C49008E4402BC2F
:100C80007047C046002243088B4274D303098B424D
:100C90005FD3030A8B4244D3030B8B4228D3030C4C
:100CA0008B420DD3FF22090212BA030C8B4202D3EE
:100CB0001212090265D0030B8B4219D300E0090A16
:100CC000C30B8B4201D3CB03C01A5241830B8B421F
:100CD00001D38B03C01A5241430B8B4201D34B0308
:100CE000C01A5241030B8B4201D30B03C01A52416D
:100CF000C30A8B4201D3CB02C01A5241830A8B42F2
:100D000001D38B02C01A5241430A8B4201D34B02DA
:100D1000C01A5241030A8B4201D30B02C01A52413E
:100D2000CDD2C3098B4201D3CB01C01A52418309F2
:100D30008B4201D38B01C01A524143098B4201D32C
:100D40004B01C01A524103098B4201D30B01C01A57
:100D50005241C3088B4201D3CB00C01A52418308D1
:100D60008B4201D38B00C01A524143088B4201D3FE
:100D70004B00C01A5241411A00D20146524110465E
:100D80007047FFE701B5002000F0F0F802BDC04653
:100D90000029F7D076E7704703460B437FD4002243
:100DA00043088B4274D303098B425FD3030A8B42FF
:100DB00044D3030B8B4228D3030C8B420DD3FF2269
:100DC000090212BA030C8B4202D31212090265D037
:100DD000030B8B4219D300E0090AC30B8B4201D3EA
:100DE000CB03C01A5241830B8B4201D38B03C01A31
:100DF0005241430B8B4201D34B03C01A5241030BA8
:100E00008B4201D30B03C01A5241C30A8B4201D358
:100E1000CB02C01A5241830A8B4201D38B02C01A03
:100E20005241430A8B4201D34B02C01A5241030A7A
:100E30008B4201D30B02C01A5241CDD2C3098B425F
:100E400001D3CB01C01A524183098B4201D38B01DC
:100E5000C01A524143098B4201D34B01C01A52417F
:100E600003098B4201D30B01C01A5241C3088B42C4
:100E700001D3CB00C01A524183088B4201D38B00AF
:100E8000C01A524143088B4201D34B00C01A524151
:100E9000411A00D201465241104670475DE0CA0F28
:100EA00000D04942031000D34042534000229C46E8
:100EB00003098B422DD3030A8B4212D3FC228901F2
:100EC00012BA030A8B420CD3890192118B4208D3C8
:100ED000890192118B4204D389013AD0921100E02A
:100EE0008909C3098B4201D3CB01C01A524183093E
:100EF0008B4201D38B01C01A524143098B4201D36B
:100F00004B01C01A524103098B4201D30B01C01A95
:100F10005241C3088B4201D3CB00C01A524183080F
:100F20008B4201D38B00C01A5241D9D243088B4265
:100F300001D34B00C01A5241411A00D20146634608
:100F400052415B10104601D34042002B00D549426C
:100F5000704763465B1000D3404201B5002000F0AB
:100F600005F802BD0029F8D016E770477047C04663
:100F7000D0400B00D1409C46203AD3401843524207
:100F800063469340184370479140030090409C464D
:100F9000203A9340194352426346D3401943704765
:100FA0008446100062468C461900634600E0C04645
:100FB0001FB517F08FFE002801D40021C8421FBDC5
:100FC00010B517F0CFFD4042013010BD10B517F03D
:100FD00081FE002801DB002010BD012010BDC046AD
:100FE00010B517F077FE002801DD002010BD0120AC
:100FF00010BDC04610B517F0F9FD002801DC002037
:1010000010BD012010BDC04610B517F0EFFD00283F
:1010100001DA002010BD012010BDC0468446080042
:101020006146FFE71FB516F041FB002801D40021FF
:10103000C8421FBD10B516F0C1FA4042013010BDC4
:1010400010B516F033FB002801DB002010BD012095
:1010500010BDC04610B516F029FB002801DD0020A8
:1010600010BD012010BDC04610B516F0CFFA002803
:1010700001DC002010BD012010BDC04610B516F0E7
:10108000C5FA002801DA002010BD012010BDC046BD
:10109000002B11D1002A0FD1002900D1002802D045
:1010A0000021C943080007B4024802A14018029079
:1010B00003BDC046B9FEFFFF03B4684601B5029800
:1010C00015F006FF019B9E4602B00CBC7047C0465F
:1010D0001C2101231B04984201D3000C10391B0A68
:1010E000984201D3000A08391B09984201D300092C
:1010F000043902A2105C40187047C0460403020283
:1011000001010101000000000000000010B50029ED
:1011100003D1FFF7DDFF203002E00800FFF7D8FF22
:1011200010BDC04610B5080020210DF033F9002095
:1011300010BD10B51C00080011009AB20DF070F936
:10114000200010BD10B51C00080011009AB20DF06F
:10115000CBF9200010BD10B50CF0C6FF10BD00008B
:1011600010B51E230322054905480DF094FA002806
:1011700002D10122034B1A7010BDC046C0FDFF1FF3
:10118000600500208805002010B5094B1B78012B55
:101190000BD1084C20000DF0BFFA002801D1C04649
:1011A00010BD20000DF084FAFAE701204042F7E775
:1011B000880500206005002010B5064B01001B7853
:1011C000012B04D1044B18000DF086FB10BD01204B
:1011D0004042FBE7880500206005002010B5064B63
:1011E00001001B78012B04D1044B18000DF0ECFB1F
:1011F00010BD01204042FBE788050020600500206B
:1012000070B5104B06001B78012B18D10E4D2B68C2
:101210009A68EB68013A53438B4210D300290ED0F1
:10122000013928000DF054FC3100040028000DF0B5
:10123000CBFB044328000DF012FC204370BD0120BD
:101240004042FBE7880500206005002010B50B4BED
:1012500001001B78012B0DD1094803689A68C36807
:10126000013A53438B4205D3002903D001390DF0D5
:101270002FFC10BD01204042FBE7C046880500203E
:101280006005002010B5054B1B78012B03D10448E5
:101290000DF0E5FB10BD01204042FBE78805002072
:1012A0006005002010B5054B1B78012B03D10448C5
:1012B0000DF0D8FA10BD01204042FBE78805002060
:1012C0006005002010B5054B1B78012B02D100F002
:1012D00023F810BD01204042FBE7C04688050020EE
:1012E00010B5054B1B78012B02D100F059F810BD49
:1012F00001204042FBE7C0468805002010B5054BA1
:101300001B78012B02D100F063F810BD0120404290
:10131000FBE7C04688050020F0B50E00002193B021
:1013200004002E2206A803910591049118F00AFDED
:1013300009200322FF21684418F004FD0A231E221D
:10134000210001AD05A803AF01962B7118F010FD27
:10135000C046A02008222900C000FFF7FCFE00289C
:1013600018D1012405AD11200322290068440396F9
:101370003C7118F0FDFCC046082239000748FFF711
:10138000EAFE002806D10134E4B203350B2CEAD181
:1013900013B0F0BD01204042FAE7C046010500004D
:1013A00037B505000C000822FF21684618F0CAFC7A
:1013B000C0460095C0466B466A461C7103236946C9
:1013C000537102480822FFF7C6FE3EBD0205000029
:1013D000012307B55B420090082269460248019349
:1013E000FFF7B9FE0EBDC0460305000070B50D0045
:1013F00004000A490A4815F03FFA14F003FD094BAE
:101400000100180015F038FA2A002100064815F0EE
:1014100033FA064815F030FA70BDC0461D9E010033
:101420009A9D0100A79D0100B19D0100BE9D010094
:1014300037B56A4600230500D01DD37105F0D2F9F7
:10144000041E07D16B46DB79002B03D001220D4B24
:101450001A7028700C490D4815F00EFA14F0D2FCE1
:101460000B4B0100180015F007FA2100631E9C4188
:101470002A78084815F000FA074815F0FDF9E0B29F
:101480003EBDC046A90500203D9E01009A9D010079
:10149000A79D0100C09D0100BE9D0100F7B51C4E37
:1014A0001C4D3100280015F0E7F914F0ABFC1A4C84
:1014B0000100200015F0E0F9184F19483978C9B239
:1014C00015F0DAF9174B1800019315F0D5F9310032
:1014D000280015F0D1F914F095FC0100200015F05A
:1014E000CBF9114C11482178C9B215F0C5F9019812
:1014F00015F0C2F900220E4B1A7006F057FA431E7F
:1015000098410C4BC0B2387018702070F7BDC046BF
:101510002D9E01009A9D0100A79D01002019002029
:10152000D59D0100BE9D0100040B0020DD9D010042
:10153000A8050020C5070020002070470020704744
:1015400010B505F097FF10BD10B505F0A5FF10BD53
:1015500010B506F08BFA10BD70B5050006F015FB4E
:101560000A212800FFF7FEFC2800CCB20A21FFF771
:1015700013FCC0B20A280BD8FFF77AFB060B0D0A42
:101580000A0A0A0A0A0A0F000848210006F004FBAA
:1015900070BD0748F9E70748F7E70749682014F0E6
:1015A0001FFD06496A2014F01BFDF1E7E59D0100CF
:1015B000E79D0100E99D0100EB9D0100ED9D01000B
:1015C00010B506F0DDFA10BD10B506F0F0FA10BD4A
:1015D00010B506F0F0FA10BD10B5040006F0D5FA0B
:1015E000632C10D80A212000FFF74CFBC1B2682001
:1015F00014F0C8FC0A212000FFF7CAFBC9B26A2018
:1016000014F0C0FC10BD0349682014F0E9FC01216E
:10161000F5E7C046E99D010070B5050005F0CEFA7A
:101620002B78064A04001370002B01D005F050FA05
:1016300029780020FFF7DAFE20B270BDA80500204F
:1016400010B505F06FF9040001000120FFF7CEFE90
:1016500020B210BD10B505F087F90400010002208A
:10166000FFF7C4FE002C0ED114F0CCFB084B094A46
:1016700018601368092B08DC591C1160064A5B00CE
:10168000918C064AD15220B210BD1460FBE7C046CF
:10169000C007002090050020D80B002094050020F2
:1016A00010B505F0B9F9041E03D1054BDA6B054BF3
:1016B0001A6021000320FFF799FE20B210BDC0463A
:1016C000D80B0020BC05002010B505F0ADF8431E76
:1016D0009841C0B210BD10B506F072FA002010BDDE
:1016E000024B1B785A1E934103707047AC0C0020CC
:1016F00000220A4B10B50A490A481A7015F0BCF8C6
:1017000014F080FB084B0100180015F0B5F80748ED
:1017100015F0B2F8064815F0AFF810BDAC0C00207B
:10172000069E01009A9D0100A79D0100EF9D01000A
:10173000BE9D010010B506F031F9054A030012788C
:10174000D0B2012A02D05A1E9341D8B210BDC04671
:10175000740C002010B506F025F9054A0300127834
:10176000D0B2012A02D05A1E9341D8B210BDC04651
:10177000740C002010B505F05DFA10BD10B505F031
:101780006DFA10BD10B505F08DFA10BD10B505F05D
:101790005FFE10BD10B505F027FF10BD10B505F0B8
:1017A00037FF10BD10B505F079FF10BD10B505F07D
:1017B00043FF10BD10B505F057FF014B186010BD79
:1017C0008C05002010B505F05DFF10BD10B506F0CA
:1017D00059F810BD10B505F0A5FF10BD10B505F006
:1017E000B5FF10BD10B505F0C5FF10BD10B505F073
:1017F000D5FF10BD10B505F0E5FF10BD10B505F023
:10180000EFFF10BD10B505F0F9FF10BD10B506F0E3
:1018100017F810BD10B506F0F5F810BD10B506F0BC
:101820000BF910BD10B506F097F910BD10B506F014
:101830008DF910BD10B505F0EFF905F0EDF9134B7A
:10184000134A997AC9B21172197BC9B25172597A85
:10185000C9B2D171587C9C7CD97C2043014351731F
:10186000197CC9B211735979C9B211719979C9B288
:1018700051719978C9B29170D978C9B2D170997BF8
:10188000C9B29172DB7BDBB2D37210BDBE0B0020FC
:10189000AA05002010B505F08DFE10BD10B505F0AD
:1018A00021FF012010BD10B505F022FF012010BD61
:1018B00010B505F029FF012010BD10B505F01EFF81
:1018C000012010BD10B505F025FF012010BD10B599
:1018D00006F0D8FA012010BD10B506F0D7F910BDFA
:1018E00010B506F0EFF910BD10B506F009FA10BDFD
:1018F00010B5C04606F01CFAC04610BD10B506F083
:1019000021FA10BD10B506F051FA10BD10B506F061
:1019100061FA10BD10B506F069FA10BD10B506F0F9
:101920006BFA10BD10B506F05BFA10BD10B506F0ED
:1019300069FA10BD10B506F06BFA10BDF7B55B4C37
:101940005B4FA57C1E780195258ABD4201D80135E3
:101950002582257D002D26D101262675E674554C5D
:1019600025700478002C04D0524C25780124002DD9
:1019700006D01D780124002D02D10C78651EAC41E3
:1019800001250A9E6C403470484C267E002E23D1DF
:101990002576E575089DE660A6602E700078002823
:1019A00039D000203AE0E57C012D08D1002ED8D1B5
:1019B000019F002FD5D002272682E774CFE7962516
:1019C000268AED00AE4202D21D78002DC9D0012535
:1019D000E5740025374CC3E7E67D0578012E15D167
:1019E000002D01D00025A5600D78002D01D0002527
:1019F000E560314DA668AE42D0D9E668AE42CDD999
:101A00000225E575013D089E3570C7E7002D18D108
:101A10000D78002D15D1254880680130A060087828
:101A20000021884201D1E1680131E160A17D0029F6
:101A30000DD10120A07502206160607509980170C8
:101A40000DE000250126E560A560E675DBE7607D19
:101A5000117801281AD1002909D0002121601278BB
:101A6000002A0BD000222260626801320AE064255D
:101A7000206868439135FF35A842DCD822680132DE
:101A80002260002262601B78A374F7BD002901D197
:101A90006160E4E76420616841439130FF30814236
:101AA000E0D90021216001316175C7E7C005002040
:101AB000FE070000DC050020E0A50100014B1860D6
:101AC0007047C046E0050020F8B51600069A0500EC
:101AD00012780800002A0ED0684C694FA279002ABB
:101AE0000AD10123A37123713B68664A934200DC4B
:101AF000BDE0079B1A60F8BD21792A78012911D130
:101B0000002AF1D000226049188822600C235F4A25
:101B100000F066F90100B02000F00AFA5C4B386072
:101B2000A380E1E763793D68012B5FD1002ADBD117
:101B30002668002E18DBFA2189008E4211DB300066
:101B4000FFF72AF9002D34DAFA232D189B005843A9
:101B50003D60002E42DB4F4BF31883420FDD4E4BAE
:101B6000236002236371BFE780231B069E420DD1D1
:101B7000002D2BDA494A731B93422BDB3E60FA217E
:101B800030008900FFF7EEF92160EAE7444B9E42FE
:101B9000E7DAFA2130008900FFF7FEF8002D08DAB5
:101BA00080231B065B1B8342CEDD80231B063B602C
:101BB000E5E7002DC8D0384B5A1B8242C4DA3B609F
:101BC000002EDCDAFA239B00584307E0354BED1872
:101BD0003D60D4E7334B3448ED183D6080231B064D
:101BE000F3188342CBDA80231B06B9E7002A00D121
:101BF0007AE7012383216371C905006815F0A4FD0C
:101C0000316815F0A1FD294915F0B8FB9E21C905E1
:101C10002568061CFFF714FA002804D1002D00DB0C
:101C200023D11D480AE0CF21301C0906FFF726FA10
:101C3000002806D1002D0EDB802000062D1825601F
:101C400052E7301C16F062F8002D08DA80231B06DC
:101C50005B1B8342F2DD80231B06236044E7002DDB
:101C6000ECD00D4B5B1B8342E8DA0B4BF5E7002B06
:101C700000DA0023079A13603DE7C046E405002020
:101C8000EC050020A0208F00809E01004C9E0100EA
:101C90000202000001000080FFFFFF7F663BDFFFC4
:101CA00019FCFFFF653BDFFF8802008000007A44DB
:101CB000014B18607047C046F0050020F0B587B0B2
:101CC000009203930022444B05000E00FFF77EF9BB
:101CD00000285DD00022002328003100FFF794F98E
:101CE000041E04D02800310015F0D4F884B2009B03
:101CF000188817F02FFF2A003300FFF77BF9071E23
:101D000053D10C9B009A5B00985A17F023FF2A00CE
:101D10003300FFF76FF9002832D00C9B0C9A5B0858
:101D2000D11B012936D87B000493049A009B9B5A4F
:101D30001800059317F00EFF02000B002800310079
:101D400017F002FB049B009E9C4666440400059B22
:101D500070880D00C01A80B217F0FCFE02000B0064
:101D60002000290016F0E4FB04000D00039B7E0018
:101D7000985B17F0EFFE0C9B009001919F4218D1E9
:101D80000C9B039A5B00985A17F0E4FE07B0F0BD75
:101D9000124CACE700985900095AA14203D91A0025
:101DA000BB185B08BCE71F00FAE7002700240025EA
:101DB000DCE7039B9E19708817F0CCFE009A019B0C
:101DC00017F0C2FA22002B0016F0F6FF009A019BD2
:101DD00016F04AF8DAE7C0460000F040FFFF0000C6
:101DE000F7B500920A880D0082423BD25A00525A3F
:101DF000824233D900245A08191B012924D86700CC
:101E0000EE5BED19801B80B215F0ECFF0190688845
:101E1000801B80B215F0E6FF011C019815F0AEFAA8
:101E2000051C009BA4001E591C19311C606815F08C
:101E3000C9FD291C15F088FC15F068FF0400301C52
:101E400015F064FF2018FEBD5100495B814203D9A3
:101E50001300E2185208CFE71400FAE7FE255C1ED3
:101E6000AD05DEE700240025DBE7F0B585B0009383
:101E70000191009904000A9B002927D0002B25D04E
:101E8000CB180393019B5100591800239500451965
:101E9000039883421CDB0023009D013A0C985900F3
:101EA000095E0C988C466900085E01320290591C4C
:101EB0009700844516DC0B989B001B586046019EDA
:101EC000E3515300F052009B8B422FDC05B0F0BD74
:101ED0009E00AF590B9887515E008F5F0C980133BD
:101EE0008753D5E7A800844666460B9801353058DD
:101EF000029EE05101985700C6530398854214DBB7
:101F00000198D31A9A005B00A218C3180C9C0B9876
:101F1000023C0438009DA942D8DC8D004659565138
:101F20004D00665F01315E53F4E719000B00B5E721
:101F300007B501AB6A4600F015F8009B002B03DCE7
:101F400004D1019B002B06DA054805E0013304D1DA
:101F5000019B002B01DA01980EBD80200006FBE7F3
:101F6000FFFFFF7FF7B59C46C317C4185C40CB1733
:101F70000192CA185A40160C3700230CA4B26743CA
:101F800092B20093534362433C04A4181D042D19DC
:101F900094429241A542A441524264421219009CCB
:101FA0003F0C66431B0CFB189B199B1800280DD097
:101FB00000290BD0C217101ACA17521AC00FD20F1D
:101FC000904203D06D42002D05D0DB43019A13608F
:101FD00063461D60F7BD5B42F8E700004B0070B53B
:101FE00000220D005908184B0400FEF7EFFF0028EF
:101FF00011D0002220002900144BFFF705F8002221
:1020000000280BD0114B2000290015F02DFF14F0F3
:10201000B7FD04000D002900200070BD200029003C
:102020000B4BFEF7E7FF0022002805D0002320001D
:10203000290016F0C1FEECE7044B2000290017F040
:1020400083F914F013FDE4E7000030430000E03FA3
:102050000000E0BFF0B585B00292254A06008B185B
:102060009B001B580091002B3DDB00240025029BA8
:102070006F01FF18009B9D4232DAAB00F05815F05B
:10208000B1FE17F08BFD3A0014F008FC17F0CEFDFE
:10209000011C201C14F0E8FF0135041CE7E7AA002E
:1020A000B7580135DB1B013B1800019315F09AFE70
:1020B00017F074FD039A14F0F1FB17F0B7FDFF431E
:1020C000011C201C15F07EFC019B041CBB429B41A3
:1020D0005B4202996A0152180392009A9542DEDB34
:1020E000201C05B0F0BD012300240025F1E7C04607
:1020F000FFFFFF3FF0B50500664B9DB00422A95ECF
:1021000007930023C45E0222805E0626AA5F08AB06
:102110001C8058809980DA80844200DD83E00226AA
:102120000124914200DD81E004270322611E490061
:10213000595E64B20591511E4900595E05988C465E
:1021400079B2049152B271B2604500DD71E0013E96
:1021500076009E5FB44500DB7DE0013F7F00DF5FDE
:10216000B74202DA0E0004990496013C07AE64B24D
:102170003757013A52B204980E970139B7565200B8
:102180009A5A49B20F9701387756490040B26A808F
:102190005A5A109737564000AA801A5A6400EA80AB
:1021A0000822A85E0A22A95E3B4A1C5B32800722F5
:1021B0002C80B2700C242A5F1197188059809A8065
:1021C000884251DC914257DD904258DC02220321C3
:1021D0000120013834564000185A013928817056C0
:1021E0004900595A013A6981B15652009B5A1294DA
:1021F00015ACAB81139014910AAE1C220021200073
:1022000017F0A0FD0E220021300017F09BFD0323E4
:102210000022009329000296019401330EA8FFF7D3
:1022200024FE1DB0F0BD012602247AE70327042214
:102230007CE7013F7F00DF5F0598B8420FDC013E7D
:1022400076009E5FBE4202DD0E00049904962600D1
:102250001400320089E716000A00310085E72600E5
:102260001400049A0491F8E790420CDD91420DDCD1
:10227000012203210220ACE703220221A8E7022267
:1022800001210320A5E703220121F3E70122022116
:10229000F7E7C04601020304050600000122024BD5
:1022A000DA711A727047C046F405002010B5244C4C
:1022B00023685A1C01D001332360A379002B0BD172
:1022C0000122A271921822710B70627123601D4865
:1022D000FFF7AEF8E07110BD2379012B0CD10B7024
:1022E0000278002AF7D00222227100220A7063715C
:1022F0002260FFF7D3F8EEE700230B706279012A22
:102300000BD102789A4203D1023363712260DEE777
:1023100022681D2ADFD92360EBE7E279002A02D088
:1023200001226271F7E7237A002B04D023681D2B6A
:10233000D1D90223E9E70123A3800B70CBE7C04684
:10234000F4050020FC050020014B18607047C046D2
:1023500000060020F0B5ADB00C6834991CAF0C60DD
:1023600000218C424ADC00218B4200D011880022DF
:102370000926349B14A85C601CAD944246DC349B57
:1023800000259C60E343DB1723401A00002104A8CA
:10239000039317F0D7FCE3B2019314AA9D423FD1F7
:1023A00000230293019B022B01D9EB1E0293002113
:1023B0008C461CAA04AB009202998C4535DB349BF9
:1023C0000CAEDC600021039A300017F0BBFC04A9BE
:1023D0002A00300017F0CCFC0021019B8B4200D07A
:1023E000691E330000228A423EDB339B1C60349B13
:1023F000D96800238B4251DB2DB0F0BD00264D0083
:10240000B34200D0465B7E530131AAE753005B5BC9
:102410005B1A9BB29E429B415B4213540132ACE774
:10242000A95C04A841550135B8E701218C4400217D
:102430005956012912D10121595601290ED10220E4
:10244000185601280AD1568817880021B74208D2A9
:102450009788B74205D219705870997001330232CB
:10246000AAE759700121F8E7002018560132012827
:102470000DD101255D57012D09D1009800888446B2
:10248000009847880020BC4506D818705D700098F9
:10249000013302300090A6E75870F8E7F256501E5C
:1024A00082413298C2540133A4E700000122024B5A
:1024B000DA70002303607047040600208446100091
:1024C000F0B585B01C000B9B0A9A1E880C9B007807
:1024D0001B78178840B2002B0BD0002808D1AF25FD
:1024E00003002D01AF420AD33A48B0425B4106E0F7
:1024F0000023013003D1AF2000018742F4D21098AD
:10250000DBB20370344B98781E2801D801309870E4
:102510005878002812D10424FF341C8098702F486A
:102520000F9B1B7802900E9801900D9800906046CA
:10253000FFF710FFFFF77AF905B0F0BD1878012812
:1025400018D002283ED098780128F5D920780128A3
:10255000F2D1109CDD782678AE42EDD10B9C158827
:102560002488641B182CE7DD0F9C20700130187044
:1025700023001CE02078002806D1002003240F9BB4
:102580001870154B1C70C9E70128D5D1987813280D
:10259000D2D910980578D8788542EED10B98148856
:1025A0000088001B0928E8DD022018700F9B0B48EB
:1025B0001B7802900E9801900D9800906046FFF7EE
:1025C000C9FEB9E701221A7000229A70FFF72AF9B2
:1025D000B2E7C046B3100000040600200806002041
:1025E000014B18607047C046180600200222034BBA
:1025F000FF321A82013AFF3A9A7470471C06002093
:10260000F0B585B002930B9B03921A7806000C9DDF
:102610000E9F914B0191002A00D11BE101221A75F6
:10262000DA7A00687E2A01D80132DA728A4CA37AFB
:10263000002B14D10133A372033363723800FFF708
:10264000C9F860740D98FFF7C9F8A0742800FFF767
:10265000CDF820740F98FFF7C5F8E07448E0637A6E
:10266000032B54D035D8013B012B38D9019B1B7863
:10267000002B00D171E00A9B1B785BB2002B00D1CC
:102680006BE0764915F060F80021041CFEF7ECFCC5
:1026900000283FD00122704B211C5A720D9B1868F4
:1026A00014F0E2FC0D9B6E491860201C15F04CF8EC
:1026B000029B041C186815F095FB011C201C14F0EB
:1026C0005DFE0F9B011C186814F0CEFC0F9B186078
:1026D0000EE0042BCAD12369002B06D0AEE7019B84
:1026E0001B78002B04D10122E2730522E37262728F
:1026F000594CA37B7E2B01D80133A373637B002B42
:1027000043D10422FF32A281A37305B0F0BD0023A0
:10271000E373EAE70021201CFEF792FC00281CD09E
:1027200002224D4B211C5A72386815F04BF9802358
:102730001B064B493860E01815F006F8029B041C94
:10274000186815F04FFB011C201C14F017FE011C2B
:10275000286814F089FC2860CAE73F4BDA7A632ABC
:10276000C6D9DA7B002AC3D003225A723868FFF731
:1027700041F80D9B1868FFF741F82868FFF742F809
:102780000F9B1868FFF742F8B2E7227B012A33D08B
:10279000019B1B78022A34D0002B3AD035680021E7
:1027A000281CFEF74DFC002833D00223291C20688A
:1027B000237315F007F98023206030681B06294930
:1027C000C01814F0DBFD9E21C905051CFEF738FC7E
:1027D00000281CD0281C15F099FA15F0B7FA039BB5
:1027E000196814F0B1FF8321C90514F0ADFF6168C9
:1027F00014F03AFC606088E70023237203222273FE
:1028000082E7002B00D080E701222272F6E716480B
:10281000E3E7A37B632B00D877E70823E356012B7C
:1028200000D072E723731149206814F0A7FD2060DF
:10283000FEF7F0FF002202210D48FFF70BFC011C00
:10284000606814F09BFD6060FEF7E8FF00232360E2
:1028500063605AE71A7558E71C060020B4A2913944
:102860000000614500007A44FFFFFF7F00BA5B4A29
:102870009C9E0100014B18607047C0463406002042
:1028800070B5304B304C5A7C304D002A06D10426AE
:10289000FF369A605A601E820A7018E01A7C066839
:1028A000012A10D0022A36D00022AE423CDB9A60C8
:1028B0000668642E40DD5E681E2E0BD91A60012268
:1028C0001A74FE32E8E7312E1CDD00221A6002681D
:1028D000312A34DD00221A6001680022642901DDFA
:1028E0005A6801325A6001680022A94201DA9A68E6
:1028F00001329A6001680022A14201DBDA680132EC
:10290000DA6070BD1A681E2A19D9002203269A605F
:102910005A601E74C0E7A64202DA0022DA60D6E7E7
:10292000DA681E2AF1D8D2E79E681E2E04D9DA6032
:1029300002221A74013AAFE700225A60C7E71A6808
:102940000132C8E7380600207DFCFFFF18FCFFFFBE
:10295000014B18607047C0464C0600200222034B12
:10296000FF32DA80013AFF3A1A72704750060020AF
:10297000F8B5434C06002068079D471C01D0013084
:102980002060607900280BD10623FF33A380053B2C
:102990002060FF3B2870E371FEF7CEFDE07141E05F
:1029A0002079013803285AD8FEF762F902183D56FB
:1029B000012028701B78002B03D1069B1B78002B6D
:1029C00030D0032323710023236001332372128844
:1029D00009683068FEF7B8FD207223E002222A70F1
:1029E000A379002B11D0642123684B43FA2189007D
:1029F0008B4217D30023227123600133A371FEF7AA
:102A00009FFDFEF79BFDA0710CE00A221D4B9B6B06
:102A1000534322689A4205D304232371013B2B7050
:102A2000FEF796FDF8BD237A002B06D064202368BC
:102A3000434315488342F5D9C5E7069A1278002A20
:102A400004D0089A13700123237106E00223226048
:102A500023712B70013BD1E703232B70E2E70022A7
:102A60002A70E3799342EED0642123684B43FA2124
:102A700089008B42D6D3052322602371043B8AE769
:102A800050060020340B0020B70B0000014B1860EB
:102A90007047C0465C060020F0B5774BC9B0429342
:102AA000764B429918004493FFF700FC744E42980D
:102AB000310002F051FE734A734D146801222B88D5
:102AC000944229DC714C0E22200071491C30238372
:102AD00017F04EF96F4B704918004593FFF7D0FE81
:102AE000684A2B881768012297421EDC63836B4B70
:102AF0006B494393CA7F0433002A1FD10120C87752
:102B000002214234D9772270439B2C331A78002A51
:102B100046D000221A7043E05100685A011C9842C6
:102B200000D9191C8BB20132CAE75100685A011C46
:102B3000984200D2191C8BB20132D5E7DA7F012A04
:102B400000D193E0220034321278002A00D18DE0C7
:102B5000228B012A00D889E001224234DA772270E0
:102B60000122504B50481A7004905048504C03902A
:102B70005048494B02905048504A019045485049AE
:102B800000900594300000F029FF404B4D49DA6871
:102B90001A614A621A002178403211705A681A602C
:102BA0003A4C494B626920681A6015F01BF9474E90
:102BB000474B30600693474B28000593464B364AF7
:102BC0000493404B2F490393444B26000293394B07
:102BD00001933B4B0093429BFFF770FC2F4A404B05
:102BE000126B40491A60404A404B0292404A4148A9
:102BF0000192414A0092429A03F004F91C23E25EDA
:102C0000230017000024F18B0134081C09B2B942DB
:102C100000DD381C07B20236062CF4D100241B4913
:102C20004885D98B0134081C09B2914200DA101C86
:102C300002B20233062CF4D1144B304F988517485A
:102C40001A0001003E78343212782931002E57D113
:102C5000053C86613C700C70AC3529784633481EC3
:102C600081411970002A00D042E157E042342378B4
:102C7000002B00D074E747E74B080020C507002071
:102C80004C08002014070020180700201808002016
:102C9000120B0020BC050020E2060020E407002003
:102CA000E9070020100800201C0800202C08002044
:102CB00059080020320800207C060020280B002044
:102CC0003008002084060020300B00202C0B002050
:102CD000E0060020E106002014080020CD070020B7
:102CE00080060020C007002020080020C406002025
:102CF000CC06002034080020C80600200E08002062
:102D00000C78012C00D0E7E0002A00D0F0E08069C8
:102D1000312803D90220463308701A70DC4B9B69B6
:102D20000133439ADB4993614091DB49DB4B3F918F
:102D3000DB49DC4A3E91DC493D91DC493C91DC4970
:102D40003B91DC493A91DC493991DC493891DC49C5
:102D50003791DC493691DC493591DC493491DC49C5
:102D60003391DC493291DC493191DC493091DC49C5
:102D70002F91DC492E91DC492D91DC492C91DC49C5
:102D80002B91DC492A91DC492991DC492891DC49C5
:102D90002791DC492691DC492591DC492491DC49C5
:102DA0002391DC49DC4C2291DC491D942191DC49C2
:102DB0002091DC491F91DC491E91DC491C9142990C
:102DC0001B91DB491A91DB491991DB491891DB49C9
:102DD0001791DB491691DB491591DB491491DB49C9
:102DE0001391DB491291DB491191DB491091DB49C9
:102DF0000F91DB490E91DB490D91DB490C91DB49C9
:102E00000B91DB490A91DB490991DB490891DB49C8
:102E10000791DB490691DB490591DB490491DB49C8
:102E20000391DB4945980291DA490191DA49009111
:102E3000429901F095FBD94E0021306CFEF7FAF86B
:102E40000123002802D023785A1E934132002C32ED
:102E5000137033008E4C3233A27F3D361A70D04B44
:102E6000D04F1B7842993370CF4E3B783200A53259
:102E70001278B14813435A1E934147AA1370CB4AA4
:102E8000CB4B0592CB4ACC4D0492CC4A0392CC4A10
:102E90000292CC4A0192CC4A0092449A00F074FF0C
:102EA00087213B784900429304ABC918429B002B11
:102EB00020D03300A2331B780120002B00D1180052
:102EC0003300A3331A78002A34D10A70B836317827
:102ED00013004A1E914111E0AC352878002800D13A
:102EE000C0E6002A00D119E7012246330A701A70A1
:102EF000002316E701230B7018001900102204AEFE
:102F0000FF329219117028229446A4446246167822
:102F1000A21D002E10D10125D5770222FF32E284B6
:102F200062461570A94A1670A94AD687002827D08C
:102F3000002228E00122C8E7D67F012E29D10028EF
:102F400006D00027E7600237D7772A004332167091
:102F5000E21DD67F012E2AD1002B06D00027276143
:102F60000224D4772A00443216709A4C484AE67FED
:102F7000012E00D047E1002900D035E1002824D1FE
:102F8000434AD26801324248C260002B78D0002305
:102F900078E0002802D00022E260D9E7E6680C2E33
:102FA000D6D90126D6772A0043321070D0E7002BFD
:102FB00002D000222261D8E724690C2CD5D9012443
:102FC000D4772A0044321370CFE7D160002B5DD153
:102FD0001369013313612E4B5B69013303E01369FD
:102FE0000133136100232A4D429A6B616E4C012319
:102FF000002A04D023009C331B785A1E93410E27CD
:10300000872604AAFF377600BF18B618724A3B70AD
:103010000192724A724B009272493A006B480296D2
:10302000FEF78CFC3378002B00D0FAE02200AC32A3
:103030001278002A00D0F5E02300A6331B785A1E30
:1030400093413B702300B7331B785A1E93411022E3
:1030500004A9FF3252181370EF1CF97FC43423788F
:10306000AA1C554C002900D0DEE00120D0772200B8
:103070003C32F8771170002B00D1DCE00023DCE05B
:103080000369013303610029ACD1A4E71161A2E710
:10309000E4070020100700200F0700203008002060
:1030A0000E070020320800200D0700200C0700202A
:1030B0000B0700200A07002009070020080700204E
:1030C000070700200607002005070020040700204E
:1030D000030700200207002001070020000700204E
:1030E0004908002048080020C0060020BF06002034
:1030F000BE060020BD060020BC060020BB06002046
:10310000BA060020B9060020B8060020B706002045
:1031100047080020B506002046080020B40600201D
:10312000B3060020B2060020B10600204D080020A2
:10313000D807002034080020E20600205E080020A6
:10314000BB050020BA050020B9050020B805002005
:10315000B7050020B6050020B5050020B405002005
:10316000B3050020B2050020B1050020B005002005
:10317000AF050020AE050020AD050020AC05002005
:10318000AB050020AA050020B8070020B7070020E3
:10319000200B002044080020420800208406002064
:1031A00058080020C4070020180700204E080020FF
:1031B000BC050020CC07002018080020CB07002009
:1031C000CA070020C8070020C70700205B080020AE
:1031D0001E080020EC070020500800204F080020A7
:1031E0005D0800205C08002002270025E777DE4C00
:1031F00055612670A84200D1C2E6D560AB4200D12D
:10320000EDE61561EEE6002902D0002454618DE65A
:1032100052690C2A00D889E601224535E2772970E7
:1032200084E601233B7012E7D17F012900D07FE1C2
:10323000002B00D076E1AB680133AB602300333361
:103240001B782B35002B00D17FE1220000210123C8
:1032500032321170C54A2B70137022003D32137048
:1032600023003D331B78C24D5A1E9341337038956D
:10327000C04DC14B3795C14DC14A3695C14DC2496C
:103280003595C24DC2483495C24D3395C24D3295E5
:10329000C24D3195C24D3095C24D2F95C24D2E95E0
:1032A000C24D2D95C24D2C95C24D2B95C24D2A95E0
:1032B000C24D2995C24D2895C24D2795C24D2695E0
:1032C000C24D2595C24D2495C24D2395C24D2295E0
:1032D000C24D2195C24D2095C24D1F95C24D1E95E0
:1032E000C24D1D95C24D1C95A04D1A961B95C14D02
:1032F00004AE1995C04DC14F1895C14D0E97179545
:103300001025FF35AD1916950E25FF35AD1915950C
:10331000BC4D1495BC4D1395BC4D1295BC4D1195EB
:1033200047AD1095BB4D0F95BB4D0D95BB4D0C9505
:10333000BB4D0B95BB4D0A95BB4D0995BB4D0895F3
:10334000BB4D0795BB4D0695BB4D0595BB4D0495F3
:10335000BB4D0395BB4D0295BB4D0195BB4D0095F3
:1033600002F066FABA49BB4DBB4E0191BB49BC4A5B
:10337000BC4B30004391009129004292FEF7A4FB20
:10338000B949BA4800F006FEB94B2A000593B94B7B
:1033900031000493B84B42980393B84B00970293C3
:1033A000439B01932300FFF72BF9B54BB54D1B78D9
:1033B000002B04D0373422780123002A02D1EB7F7E
:1033C0005A1E93410E21B04CFF3104AA52181370BB
:1033D00038002200AD4900F0ABFAAD4B04A90293CE
:1033E000AC4BAD4A01930E23FF335B18AB48290069
:1033F0000094FFF7BDFAAA4C0021A068FDF71AFE61
:103400000122002803D031342278531E9A418721AB
:10341000A448A54B02701A0004AC490009190978A8
:103420008D321170A14A8F3312789D4C1A70A04AC8
:10343000574B27929F4A764926929F4A25929F4A48
:1034400024929F4A23929F4A22929F4A21929F4A06
:1034500020929F4A1F929F4A1E929F4A1D929F4A06
:1034600016901C929E4A47A81B929E4A1A929E4A08
:1034700019929E4A18929E4A17929E4A15927B4A2A
:1034800014925B4A13929C4A12929C4A1192624A8D
:103490001092624A0F92624A0E92624A0D92624AFA
:1034A0000C92624A0B92624A0A92624A0992624AFA
:1034B0000892624A0792624A0692624A0592624AFA
:1034C0000492624A03922C4A02922D4A01922E4A99
:1034D000009232000E0000F0FDFD3100884802F03D
:1034E00067F82200393212782300AA7722683B332A
:1034F0006A6062692A60228BAA83220035321278C0
:103500000135AA771B787F4AEB7753680133536004
:103510001369002B22D19368013393600123136157
:1035200049B0F0BD0223D37723003C331970A5E5E1
:10353000002B00D0A2E5A9680C2900D87BE6012168
:10354000D17722003C32137075E62A78002A00D128
:1035500086E622003D3213702B7081E60133042B86
:10356000DDD90023DBE7C0465D08002012070020FC
:1035700051080020FE060020B3060020FD060020B2
:10358000B2060020FC060020B1060020FB06002049
:10359000B0060020FA060020F9060020F8060020F8
:1035A000F7060020F6060020F5060020F4060020AD
:1035B000F3060020F2060020F1060020F0060020AD
:1035C000EF060020EE060020ED060020EC060020AD
:1035D000EB060020EA060020E9060020E8060020AD
:1035E000E7060020E6060020E5060020E4060020AD
:1035F000A406002058080020B6070020E20600209C
:10360000D4070020B5070020BC050020100B0020C7
:103610004E0800204B080020C1060020C0060020F4
:10362000BF060020BE060020BD060020BC0600200C
:10363000BB060020BA060020B9060020B80600200C
:10364000B7060020B6060020B5060020B40600200C
:10365000AC060020A80600204C0800205A080020D4
:10366000280B002030080020C20600202C08002073
:10367000DC060020D8060020D4060020D00600205A
:10368000C4070020E407002052080020040800209E
:1036900053080020E306002000080020E80700206F
:1036A00018080020FF060020840600204A08002099
:1036B000100700200F0700200E0700200D07002034
:1036C0000C0700200B0700200A0700200907002034
:1036D0000807002007070020060700200507002034
:1036E0000407002003070020020700200107002034
:1036F00000070020CE070020C6070020C5070020D5
:10370000B907002068060020022370B50026564D38
:10371000564A2B60564B574C1A60574A6B605A609A
:10372000564BA0B02000EB60AE60FEF70DFE20000F
:10373000FFF7ACF92000FEF753FF2000FFF708F970
:103740002000FEF7BBF92000FEF7B2FA200002F0DD
:10375000D7FC200002F056F8200000F049FC2000C1
:1037600001F0E0FF2000FFF785F8200000F030F9BD
:10377000200000F06BFE200001F00AFF200000F0A6
:1037800003FC200002F032FB29002000320000F090
:10379000E7FA3B4A3B4B12681A60FEF77FFD01F0E7
:1037A000C7FF394B3949DA6839481A614A621A0049
:1037B0004132127840331A70FEF778FE354C364BA2
:1037C0001F94364C364A1E94364C37491D94374C5C
:1037D00037481C94374C1B94374C1A94374C199427
:1037E000374C1894374C1794374C1694374C159423
:1037F000374C1494374C1394374C1294374C119423
:10380000374C1094374C0F94374C0E94374C0D9422
:10381000374C0C94374C0B94374C0A94374C099422
:10382000374C0894374C0794374C0694374C059422
:10383000374C0494374C0394374C0294374C019422
:10384000374C009400F008FE00F098FA01F0E0FF19
:10385000FEF7CCFE00F066F8FFF780F800F032FCCF
:1038600001F09CFE20B070BD600800206C060020B6
:103870006006002068060020700600207406002004
:10388000240B00207C06002018080020840600205D
:103890001408002010070020B30600200F070020A6
:1038A000B20600200E070020B10600200D07002000
:1038B000460800200C0700200B0700200A07002004
:1038C000090700200807002007070020060700203E
:1038D000050700200407002003070020020700203E
:1038E00001070020000700204908002048080020A8
:1038F000C0060020BF060020BE060020BD06002036
:10390000BC060020BB060020BA060020B906002035
:10391000B8060020B706002047080020B5060020A2
:10392000B40600200122014B9A8070477C080020D9
:1039300070B5244C150023685A1C01D00133236054
:10394000E379002B05D10222FF32E2802B70237233
:1039500014E0A379022B1AD0032B20D0012B22D103
:10396000227A002A0FD000228256002A07D0002691
:103970000233A3712660FDF7BBFE2E7070BD0422DA
:10398000A2712B70FAE71048FDF7AAFEF6E70422B1
:10399000A35E002BF2D00123A3710023D6E7236896
:1039A000632BF8D8EAE70B78002BE7D12B700233B2
:1039B000A371FDF790FE054A031C904200D9131C29
:1039C000A380DBE77C08002084080020FF7F000044
:1039D000014B18607047C04688080020F0B597B0CA
:1039E000069005911600BD491A220FA804931D9F49
:1039F00016F0BEF91A22BA4908A816F0B9F91C9BAC
:103A00001B68DA179B185340FA22D200934221DC3C
:103A1000B44B1A68B44B52681B689B009B581868DB
:103A200016F098F8B14AB24B15F0C6F90022B14B26
:103A3000FDF7CCFA00280DD0059B188816F08AF8FF
:103A40000C2308AA00930FABFEF738F916F0EEF836
:103A5000A94C2061A94BAA4CDB7F002B15D1022376
:103A6000FF33E384FDF7A2FE23002C331870FDF72B
:103A7000A9FEA084FDF79EFE20609F4B986813F07E
:103A8000F1F9209B186017B0F0BDE31DDB7F012B1F
:103A90001DD1059BA28C1D8823002C331B78551B40
:103AA000AA425FD2002B0CD024689649201CFDF757
:103AB000DBFA002805D10021201CFDF7C1FA0028FF
:103AC00064D00322904BDA778B4B1A691A608F4BC4
:103AD0008B4C1B78884D002B5ED102232E68FF3360
:103AE00063858849301C13F049FC396813F02CFEBB
:103AF00060603B686E60A3600023E3603B68206108
:103B0000AB60E860824B059A5B8912889A4200D2CA
:103B100017E100237A491E9ACB617D4B10889B8860
:103B20000022323B9BB2984206D9049B1B785BB2C1
:103B3000934201D10A6A01326F4B724D5C680A628E
:103B4000201C291CFDF790FA1F9B002808D1002596
:103B5000201C291CFDF774FA1F9B002800D1FAE0F5
:103B60001D608AE7002BACD0232DAAD824686549B4
:103B7000201CFDF779FA0028A3D10021201CFDF7B5
:103B80005FFA00289DD1232D00D176E702225E4BFB
:103B9000DA77594B1C609AE727002A373B78039362
:103BA000012B2BD0022B30D0069B1B78002B4DD045
:103BB00037680021381CFDF73DFA002846D1049BE8
:103BC0001B785BB2002B41D06068391C13F04CFAB3
:103BD00060603168E86813F047FAFE21E860890503
:103BE000E068FDF727FA002804D03168206913F057
:103BF0003BFA20610222474B1A7083E7039B2B7527
:103C000000232362E361032313E063680693A36840
:103C10000698191C0793FDF727FA079B002806D181
:103C200000210698FDF70CFA061E04D000236360FD
:103C3000039B3B7066E70799069813F09FFB314999
:103C400013F082FD26626860E661DCE7304A1E9967
:103C500093880988323B9BB2294C994204D9049B32
:103C60001B785BB2002B0ED000232362059B1988C2
:103C70005389994204D2049B1B785BB2002B4FD02E
:103C80000023E3613EE7236A962BEFD9FE21E56826
:103C90008905281CA668FDF7CDF900281BD02469EA
:103CA000311C201CFDF7CCF9002800D01A4D1B490F
:103CB000201C13F063FB291C13F046FDFDF786FD65
:103CC000164913F041FD0C4A0D4B9060002298609C
:103CD0005860DA608EE726618CE7C04654A1010087
:103CE0003AA10100D8080020DC0800209A9999998F
:103CF0009999B93F00001040BC08002094080020AA
:103D00008C0800200000C84293080020B70800205B
:103D1000340B0020B60800203333833F00BA5B4ADF
:103D2000E369962B0DD90025E068291CFDF782F97F
:103D3000002806D0FE239B05E360022325612A3478
:103D40002370049B1B785BB2002B00D0E1E6034B91
:103D5000DB690133DEE61C608FE6C0468C0800207C
:103D6000034B1A60034B1960034B18607047C04641
:103D7000DC080020D8080020D40800200222014BD3
:103D80005A717047E0080020F8B500260978069FB0
:103D90000B9D1278B1420BD0B24209D1002282565B
:103DA000B24205D1C8221B685200C8339A427641FC
:103DB000704C714A2388934201D801332380A37940
:103DC000002B05D10122A2710A32A270238036E0B5
:103DD000A07801380B2800D9BDE0FCF749FF060C9C
:103DE0001117321356565A8A8C9E06230420A3704C
:103DF000FDF798FDF8BD6379012B10D10733F5E786
:103E0000FDF798FD0B23A3700023DFE72379012B37
:103E100005D102200933A370FDF77CFDEAE7002BF2
:103E200004D0962322885B009A42E3D30520FDF755
:103E300079FD03230020A370FDF764FD00232B70A0
:103E4000D8E7E378012B07D10220FDF76FFD0923A6
:103E5000A37000232380CDE7002B04D09623228873
:103E60005B009A4206D30520FDF75CFD0220FDF7BA
:103E70005DFDDEE73E78002EBCD10220FDF756FD49
:103E80000B232680A3702E70B4E73B78002BDED185
:103E9000B8E7079B1B78032B07D10F20FDF736FDF2
:103EA0000C230020A3702080A2E70A9B1B78012B23
:103EB00007D100233148238005336380FDF714FDCB
:103EC00098E7099B1B78002B0AD101330220A370CD
:103ED000FDF70EFDFDF712FD0F20FDF71FFD89E731
:103EE000962322885B009A42A0D23B78002B89D08F
:103EF00080E707237AE73B78012B00D07AE7002E92
:103F000001D02B70A3E72388132B00D872E703237B
:103F10003000A370FDF7F6FCB5E7079B1B78012B7B
:103F20000ED0022B00D07CE700250B330320A370BA
:103F30002580FDF7DDFC0F20FDF7E8FC280057E7A2
:103F40000423A37000230F202380FDF7DFFC0C481F
:103F5000FDF7C6FC4EE7089B1B78012B00D060E7FD
:103F60000133A370002307482380FDF7B5FC0F2021
:103F700052E7C046E0080020FE0F0000E3080020E2
:103F8000E4080020E5080020014B18607047C04697
:103F9000E808002070B504680D00201C1049FDF7EA
:103FA00063F8002819D10021201CFDF749F80028EA
:103FB00000D00024201C15F0F1FD02000B000020B1
:103FC000084915F0C1F9084A084B14F0F5FEFEF750
:103FD00005F812F05FFF288070BD014CEAE7C0468B
:103FE0000000A04200005440555555555555094014
:103FF000014B18607047C046EC08002010B5002443
:10400000A14259D101780134002955D111780029F4
:1040100052D18179013400294ED1417801340029EF
:104020004AD101790134002946D11179002943D1BF
:104030004179013400293FD15279002A3CD1827A5A
:104040000134002A38D182780134002A34D1C27870
:104050000134002A30D1C27A002A2DD11B780234D3
:10406000002B29D1C3790134002B25D1037A0134E7
:10407000002B21D1C37B002B1ED1437B0134002BAD
:104080001AD1037B0134002B16D1437A0134002B63
:1040900012D1037C002B0FD1039B01341B78002B22
:1040A0000AD1029B01341B78002B05D1049B0334F9
:1040B0001B78002B00D1153C014B9C8010BDC046E5
:1040C000F00800200122024B52429A807047C046FD
:1040D000F0080020F0B51B789DB09C461192624616
:1040E00017AB1A70229A0E90127810915A7005929E
:1040F000239A12789A700692249A1278DA700792AC
:10410000259A12781A710892269A12785A71099291
:10411000279A12789A710A92289A12780B92DA7179
:10412000299A2F9E127836781A720C922A9A9E73C8
:1041300012782B995A722C982D9C2E9D309E319F6F
:104140000D92329A0978007824782D7836783F7865
:1041500012789972D8721C735D73DE731F743E43BC
:104160005A740E9B35431B782C430D9A20430E93B3
:1041700001430C9B0A4313430B9A13430A9A1343BC
:10418000099A1343089A1343079A1343069A134351
:10419000059A13436246134301220F92002B14D158
:1041A000339B1B78002B10D1349B1B78002B0CD138
:1041B000359B1B78002B08D10E9B002B05D0379B1D
:1041C0001B781A00531E9A410F92389B12A91B7834
:1041D0009A4D0B700593399B1B784B7006933A9B55
:1041E0001B788B7007933B9B1B78CB7008933C9B91
:1041F0001B780B7109933D9B1B784B710A933E9B77
:104200001B788B710B933F9B1B78CB710C93409B5E
:10421000439C419A2678449C42982778459C1B7879
:10422000247812784C73A446469C007824780D9329
:104230008C73479C0B7224784A72CC73489C8872AA
:104240002478CE720C74499C0F7324784C747C4C87
:104250002168A94201D801312160A17A00290CD13D
:104260000123A372774B2160E380369B186812F01C
:10427000F9FDC0B2FDF7B0F95DE00E9D6B466942F5
:104280004D413C215B18197863461F433E43304340
:104290000D9B024313430C9AA7791A4313000B9A00
:1042A000EDB21A4313000A9A1A431300099A1A43EB
:1042B0001300089A1A431300079A1A431300069A28
:1042C0001A431300059A1A4313005A1E9341109A79
:1042D000DBB21678012F0AD0022F00D16BE0002E3E
:1042E00000D096E0574B6672E3802660BDE7002E53
:1042F0000AD003230025A3712572FDF769F9022373
:1043000025606372642014E0207A0138032843D8C2
:104310004B4CFCF7ADFC02291E290423E05E002370
:1043200008280ADC052223602272FDF74DF90423D8
:10433000E05EFDF711F91DB0F0BD0322227223608B
:10434000F7E70B43F7D13F4BE38000232372236051
:104350008BE76422236853439132FF329342EAD3BE
:1043600002232372002352E0642022684243FA2091
:1043700080008242E5D3012323720023A380379B70
:1043800029000293359B12AA0193349B17A800932E
:10439000339BFFF733FECEE7642223685343913209
:1043A000FF329342C7D3042326602372FDF710F92E
:1043B000FDF706F9BFE7002E07D00323E380FDF7E2
:1043C00007F90023677223609CE70B4306D001279F
:1043D000E780FDF7F5F82772A680D0E7E279012A99
:1043E0000BD1119A1278002AA5D0642122684A4381
:1043F00015498A429FD9E771A9E7642122684A4397
:104400009131FF318A4200D295E70122E2712360A7
:10441000CEE76420FA222368617A434352000129DF
:1044200006D1934200D286E702236372002386E717
:10443000934200D27FE70123637293E7FEFFFF03FD
:10444000F008002002020000DB050000014B1860AC
:104450007047C046FC08002070B500243D4D6E1C1E
:104460002C716C71AC71EC712C726C72AC72EC7260
:104470002C736C73AC73EC732C746C74AC74EC7440
:104480002C756C75AC75EC752C766C76AC76EC7620
:104490002C776C772C706C70AC70EC70AC77F47718
:1044A000AE1CEC77F477EE1C0435F477EC770470EF
:1044B000099804700A9804700B9804700C980470A2
:1044C0000D9804700E9804700F9804701098047082
:1044D000119804700C7014701C70049B01221C70E5
:1044E000059B1C70069B1C70079B1C70089B1C7016
:1044F000129B1C701B9B1C701C9B1C701D9B1C70BA
:104500001E9B1C701F9B1C70209B1C70219B1C7091
:10451000229B1C70239B1C70139B1C70149B1C7093
:10452000159B1C70169B1C70179B1C70189B1C7095
:10453000199B1C701A9B1C70074B1900FC310A70E8
:1045400006491C701A635A639C63D9625A601A81C7
:1045500070BDC046000A0020000900203809002074
:10456000F0B59BB006933B9B0C921A780090E54BFC
:104570001191002A01D100F0F4FF1A000121FD324F
:104580001170279A12780792289A12780892299A1D
:1045900012780D922A9A12780E922C9A1278019221
:1045A0002D9A127809922E9A12780A922F9A1278DE
:1045B0000292319A12780392329A12780492219AD6
:1045C0000020105E5A7A002A01D000225A72CD4B88
:1045D000DC6A00232268012A0AD0FE210122890513
:1045E0002260A360E36023616361A161E3612271E2
:1045F000A369A5680593E368E7691393236913AE7C
:1046000014936369159313F0A1FB291C0F9012F00A
:104610002BFD0B90059813F079FB0021451E381CEB
:10462000FCF708FDAD00002800D1CAE271590B98D3
:1046300012F01AFD10900F9B13AEB34905987351F9
:10464000FCF7F8FC002800D0BEE2FE2105988905A1
:1046500012F00AFD051C0021381CFCF7EBFC0028B9
:1046600000D1C0E2FA211098890513F06DF8059089
:104670000B9B0021A360139BA561E360149B381C76
:104680002361159B6361FCF7EFFC002800D1ADE2CC
:10469000FE21381C890513F095F90E223999E06145
:1046A00016A815F065FB16A8FDF724FD974A209B78
:1046B00011780027DF5F934B002901D10131117080
:1046C000E0331A8892498A4201D801321A8091480F
:1046D0008C4B02888A4201D801320280E4331A8866
:1046E0008A4201D801321A808B48864A03888B425D
:1046F00001D8013303801100F9310B78002B00D071
:1047000076E201200870101DC36710001400C43049
:1047100003600220F43420701400A83423601400D5
:10472000A03423601400D03423601400F6342070C9
:104730001400AC3423601400EF3420701400774D63
:10474000F034258014008C3423601400ED34207084
:104750001400734DE834734925603C9C136713665D
:104760000B718B754B71CB758B728B70CB70CB7261
:104770000B724B7223701400EC3420701400DC3484
:1047800023601400F834CB7120701400D8342360F7
:104790001400F73420701400CC3423601400032577
:1047A000F53425701400BC3423601400B434236045
:1047B00014005D4DF23425801400EE3294344B73B6
:1047C0000B734B700B708B74CB73236010700B7476
:1047D000069B1E88554B99894A4B8E4201D900F0A1
:1047E0006AFE1A6E01321A6600228E4202D1454BD1
:1047F0005A6E01320021434B5A66389A51560022B4
:10480000013101D09A6E01329A66219A0021525EDE
:10481000872189008A4201DD00F051FED96E013105
:10482000D9660021374B196740492020085E0021D6
:10483000904201DB596F013159673C491E20085EE7
:104840000021904201DA996F01312E4B9967F521D1
:1048500049008A4201DD00F03DFED96F0131D96780
:1048600000213348274BC16730492820085E0021CA
:10487000904203DB19000831C96F0131180008307C
:10488000C1672A482621445E0021944202DA883317
:1048900019680131274B002219600389194D9E4286
:1048A00003D82A008C321268013229008C310A6048
:1048B0001E4A51890022B14203D82A009032126860
:1048C00001321D484B3302600E2253433A9A0D4980
:1048D00010680022984203D80A009432126801320C
:1048E000080094300260FA2292009A183A9B002045
:1048F0001B68934202D39831086801300F4A014B7C
:1049000010601DE00009002000004040FA0900206E
:10491000FE0F0000E2090020E6090020020200006C
:1049200003010202000A002002040000340B0020F0
:10493000040900208809002090090020980900201F
:10494000CE4A2C21515E0022B94203DC1A009C326F
:104950001268013219009C310A60C84A2A21515E4E
:104960000022B94202DDA0331A680132C449C54BA6
:104970000A60C24A2421515E0022B94203DC1A00B7
:10498000A432126801321900A4310A60BB4A222104
:10499000515E0022B94202DDA8331A680132BA49D9
:1049A000B84B0A600C9A00211788B44A5288974283
:1049B00003D31900AC31096801311800AC30016033
:1049C000AE4988880021B84202D3B033196801315A
:1049D000AE4B4B3A19600E2353433A9AA9481168DB
:1049E0000022994203D30200B4321268013201005E
:1049F000B4310A60A64A99183A9B00221B688B4280
:104A000002D8B83002680132A24BA34905981A6057
:104A10009C4CFCF729FB002803D02300BC3318680A
:104A200001302300BC3318609C490598FCF708FB53
:104A3000002803D02300C033186801302300C0339E
:104A400018602200FA20229B80000021595EC432A7
:104A50008C4B814201DC00F04AFD1068013010608F
:104A600022000020C8321060009A1268824201DAE7
:104A700000F05CFD8A48824201DD00F05BFDBF1B57
:104A8000962F01DD00F067FD00221800CC30026097
:104A90000A00C83201DB00F050FDD0331A68013241
:104AA0001A6000232200D4321360009B734A1868F6
:104AB00091690023884203DD2300D8331B6801334A
:104AC0002100D8310B60009B1269196800239142C4
:104AD00002DADC3423680133DC352B60714B3D99FD
:104AE0001A780A705A7A46990A709A7A47990A701F
:104AF000DA7A48990A701A7B49990A705A7B4A995E
:104B00000A709A7B4B990A70DA7B4C990A701A7C6E
:104B10004D990A705A7C4E990A705A783E990A70DB
:104B20009A783F990A70DA7840990A701A7941990F
:104B30000A705A7942990A709A7943990A70DA7917
:104B400044990A701A7A45990A709A7C4F990A70AA
:104B5000DA7E58990A701A7F59990A705A7F5A99C1
:104B60000A709A7F5B990A70DA7F5C990A705A1C06
:104B7000D27F5D990A709A1CD27F5E990A70DA1C06
:104B8000D27F5F990A701A1DD27F60990A70DA7C11
:104B900050990A701A7D51990A705A7D52990A707B
:104BA0009A7D53990A70DA7D54990A701A7E559944
:104BB0000A705A7E56990A709B7E579A13701BB0E2
:104BC000F0BD0023109336E5B168706812F04CFA1E
:104BD000011C7060139812F047FAFE250023139011
:104BE000AD050B9337E50023059341E5002054E51F
:104BF000119B19781300E9331878012833D1002963
:104C000007D00222284B1A700022284B1A70FCF79A
:104C100011FE2749219B0C7800229B5E0021194A36
:104C20001648012C46D0022C00D186E01E24005FDD
:104C3000984200DB91670D9A012A08D0389A1278C1
:104C4000012A00D97EE00F4A926F132A7AD90022F6
:104C500001240C4B06205A67EA331C70FCF71AFE3D
:104C6000104B1C712BE0002902D101221A70D0E7F1
:104C7000FA321378002BCCD0C3E7C046340B0020A7
:104C8000A009002000090020A8090020B009002088
:104C900018FCFFFFB80900200080224400001144E6
:104CA00087130000000A0020E9090020FA0900200B
:104CB000EA0900202024005F98422DDA5167C34999
:104CC000219B087800229A5EC149C24B012841D03D
:104CD000022800D193E02620095E914202DB0021E8
:104CE000883319600E9B012B0AD0389B1B785BB26E
:104CF000013300D08BE0B84B1B68132B00D886E043
:104D000000220124B54B0720DA67B04B1C70FCF77A
:104D1000C1FDB34B5C7137E00D9B002BCFD1536FBE
:104D2000632BCCD900220321AA4B9A67DA66EA33B7
:104D30001970AB4B1A719A75C1E7AA488342F1DC2E
:104D40001167EFE7872292009342B8DD0022A14B62
:104D5000DA66B4E72820095E914203DA08330022BC
:104D6000DA6711E00E9A002A0ED10833DB6F632B4D
:104D70000AD900229849974B0A600321DA67EB337E
:104D80001970974B5A71DA759748229B0478002264
:104D90009A5E00218F4B012C4FD1E124A400A24246
:104DA0003BDDC833196091498A4B0878884A01284D
:104DB00070D12420125EBA425CDD0022A4331A6056
:104DC0008B49844B0878824A012800D091E02C203E
:104DD000125EBA427CDD00229C331A608548229B19
:104DE00004780021595E00227A4B012C00D0DBE0D0
:104DF0001C00D434963100DB9CE02260A3E0FA2151
:104E000049008A42B5DA00220433DA67B1E7F523B4
:104E10005B009A42B8DD6F4BA1E7029A002AC2D12B
:104E20001A00C8321268632ABDD9029AC4331A60C4
:104E3000022303706A4B9A72B5E7FA20800082421F
:104E400010DCC4331960029B012BACD10022012479
:104E5000694B0A201A60644B1C70FCF71BFD604B09
:104E60009C72A0E7029A012AF0D0C4331B68092B78
:104E7000ECD898E7079A002AA2D11A00A432126847
:104E8000632A9DD9079AA8331A6002230B70544BEA
:104E90009A7095E72221525EBA4202DC0022A833C2
:104EA0001A60079B012B07D0389B1B78012B87D8F2
:104EB000524B1B68132B83D900220124504B08202E
:104EC0001A604A4B1C70FCF7E5FC454B9C7077E779
:104ED000089A002A82D11A009C321268632A00D8EC
:104EE0007CE7089AA0331A6002230B703C4BDA70FF
:104EF00074E72A21525EBA4202DC0022A0331A6013
:104F0000089B012B0AD0389B1B785BB2013300D081
:104F100064E73C4B1B68132B00D85FE70022012499
:104F2000394B09201A60324B1C70FCF7B3FC2C4B38
:104F3000DC7053E72168632905D9D0331A60022356
:104F40000370274BDA7231480C9B04781A88204989
:104F5000204B012C70D1898891425DD20022B03360
:104F60001A602B48069B04781A881949194B012CA2
:104F700000D091E04989914200D87BE00022903333
:104F80001A60244A134B1178012900D1A2E00229AA
:104F900000D1BAE00E4906988C8900880021A04211
:104FA00000D83BE11966B0E01C00D034C83100DB0A
:104FB00023E721680929C6D90124D43304700B20C2
:104FC0001A60FCF767FC064BDC72BCE7EB090020BB
:104FD000340B002000090020880900200809002067
:104FE000000A002025020000F4090020F00900203A
:104FF000EF090020F6090020C8090020A8090020B8
:10500000A4090020A00900209C090020F10900202B
:10501000ED090020E8090020099A002AA1D11A0010
:10502000B0321268632A9CD9099AAC331A60022301
:105030000370C44B1A7294E74988914202D9002246
:10504000AC331A60099B012B08D0BF4BBF4A99793A
:105050000A234B4312689A4200D282E700220124BD
:10506000BB4B20001A60BB4B1C70FCF713FCB54B0C
:105070001C7276E70A9A002A00D082E71A00903262
:105080001268632A00D87CE70A9A8C331A600223DC
:105090000370AC4B5A7274E70989914202D2002224
:1050A0008C331A600A9B012B08D0A74BAA4A997B24
:1050B0000A234B4312689A4200D262E7002201247D
:1050C000A64B02201A60A64B1C70FCF7E3FB9D4B1D
:1050D0005C7256E73898007840B201300CD100225B
:1050E0009A66994B069A11889A899E4B914200D3F1
:1050F00086E000225A6608E096209B6EC00083423C
:10510000EFD3022313703C9B1970974A954B11788B
:10511000012900D08DE0E0331B88132B07D9019BB8
:10512000002B04D102331370864B019ADA718F4A37
:105130008C4B1178012900D087E0049900290BD10C
:105140001900E6310988632906D90499DC3319600E
:10515000022313707B4B5973854A824B11780129C6
:1051600000D096E0039900290BD11900E431098899
:10517000632906D90399D833196002231370714B40
:1051800019737C4B774C1A78012A25D0022A00D05B
:10519000A5E0239A1278002A1ED101320E201A703F
:1051A000FCF778FBE56DA46D002220002900724B0E
:1051B000FBF70CFF002800D18FE000220023200025
:1051C0002900FBF721FF002804D02000290011F05E
:1051D00061FE80B2FCF7E6FA684D624C2B78022B38
:1051E00000D9D9E0002B00D0E7E065490598FBF72E
:1051F0003BFF5C4C002800D029E1BC342060E4E097
:105200009622596E9200914200D27EE7002203213D
:105210001A66E83319703C9B1A7076E7186EC72837
:1052200000D872E79966596601231370FCF7AEFA4D
:105230006BE70199012900D079E711700022E03372
:1052400003201A80FCF726FB6EE700993E4A0868A7
:105250001169884212DB0022DC331A60049B012BA7
:1052600000D079E701240022404B04201C70454BFC
:105270001A80FCF70FFB334B5C736DE7049901292F
:10528000F0D0117D0A224A43DC331B689342E9D8EF
:1052900062E700992C4A08689169884212DC002272
:1052A000D8331A60039B012B00D06AE70124002247
:1052B0002F4B05201C70344B1A80FCF7EBFA214B66
:1052C0001C735EE703990129F0D0117F0A224A433B
:1052D000D8331B689342E9D853E72C487AE70C9AF5
:1052E000009B1088069A1B681288801A002B04DA2B
:1052F00080221206934205D05B42254A934201DC8C
:10530000962802DC0022234B1A60239B1B78002B7B
:1053100009D1204B1B68C82B00D85DE7379B1B7851
:10532000002B00D158E70222124B0E4C1A7014F0D9
:10533000E3FBA065E165FCF72DFA0122014B5A70F1
:105340004AE7C046000A0020340B0020AC090020C8
:10535000B0090020F10900208C09002090090020EC
:10536000ED09002000090020EC090020F8090020C8
:10537000F7090020F50900200000F040F3090020A3
:1053800000802244E6090020E4090020FFFF00001D
:1053900087130000CC090020032B00D025E726004E
:1053A000249BFB361B783278134339D101240F201C
:1053B0002C70FCF76FFA347007E000230122C03430
:1053C000236003332B70694B1A700E223A9B684C92
:1053D0001868684B25785B8800214B3B5A43664B25
:1053E000012D4ED1654D52191D00B83582423ED275
:1053F00029600E223A9B624C18685E4B25781B8907
:1054000000214B335A435C4B012D4CD1FA25AD00A2
:1054100052191D009835824238D92960FFF7D8F912
:1054200058490598FBF70CFE2300C033002801D132
:105430001860CAE71B68092BC7D9042200232A7009
:105440004A4ABC343370236013709374BDE7230061
:10545000BC331B68092BB8D9FCF7A0F92300022242
:10546000F3331A700023E234404A2380EDE72A68C0
:10547000632ABED9B4331960022323703B4BD9731E
:10548000B7E79042B5D2B4331960B2E72A68632A0D
:1054900001D8FFF79DF99433196002232370334B31
:1054A0001974FFF795F9824201D3FFF791F994330C
:1054B0001960FFF78DF900221A66FFF798F90021AD
:1054C000D96631498A4201DCFFF7ABF9196F013126
:1054D000FFF7A8F90021D967F531FF318A4201DAD7
:1054E000FFF7BEF90433D96F0131FFF7BAF9002095
:1054F0001060E1229200914201DDFFF7B1FA200035
:10550000C830026801320260009A1268002A06DA86
:1055100080200006824201D1FFF7B6FA52421B48B2
:10552000824201DCFFF7ABFAFFF7AEFA80200006FB
:105530008242F3D10022CC331A6023000022D03300
:105540001A60963101DAFFF7ACFA2300D4331B68F6
:105550000133FFF7A7FA1A00CC3212680132FFF7C5
:1055600094FAFD331A70FFF72AFBC046000A0020A8
:10557000F2090020340B00200009002018FCFFFF76
:10558000EE090020000011442502000087130000EE
:10559000014B18607047C046240A00200022034BCC
:1055A000DA709A705A701A707047C046280A002044
:1055B0000B78F7B5584C002B17D0E379002B00D1AE
:1055C0008DE0A379012B00D08DE0FF2223885200CB
:1055D000934201D801332380637A002B00D087E007
:1055E0008122520022812380F7BD0278002AE4D074
:1055F000A2784A4D0192E678571C721CD2B2FFB2D3
:105600000092112F33D9052E4CD01F00EB70AB70D8
:1056100022790023561CF6B21F2A08D1404B019371
:105620005B78002B03D06B78012B42D101236B7088
:105630006379312B47D13A4B1B78002B41D02B7823
:10564000012B3BD132236371202E00D90026009A12
:10565000E3792671A770062A3DD90022E2709342B1
:105660003DD0A379012B40D10223A371ADE7052ED4
:1056700004D1EB78012B17D106230093053E73422A
:105680005E41019A0023EE70102AC0D1244EB378F7
:10569000002BBCD0AB78012B02D0FCF704F9707062
:1056A0000123B4E71F00E4E7FCF7F8F81C4B9870FF
:1056B000E2E7FCF7FDF8019B1870B7E7FCF7FDF88F
:1056C00001232B70BEE700220133DBB22A70322B9C
:1056D000B9D91300B7E7009AE270002BC1D10223B9
:1056E000FF33E38071E70123BFE7FCF7EBF86CE7DA
:1056F000237A012B03D101332372002373E7642340
:1057000022885343FA22D200934200DA6CE7012345
:105710002372FCF7DCF867E72C0A0020280A002037
:10572000360A0020014B18607047C0463C0A002032
:105730000122024B52421A807047C046400A0020A4
:105740000122044B52421A8000225A809A80027031
:105750007047C046400A002070B503780D00274C02
:10576000002B48D0A379002B04D10800FFF7E8FFF5
:105770000123A371E678002E0ED10123E370FBF71D
:10578000A3FF02232671A3702E70033B23801C48C5
:10579000FBF742FF208070BDFBF796FFA378012B3B
:1057A0001ED16379002B05D102222371A2702B70C8
:1057B000013BEBE700236371FBF742FF431E984177
:1057C000C5B26571FBF746FF05436B1E9D41EDB207
:1057D0006571FBF765FF05436B1E9D416571DAE757
:1057E0000022A35E002BD2D12279002ACFD0012241
:1057F0002A70A270DFE7A371CDE7C046400A0020FF
:10580000440A0020014B18607047C046480A002037
:105810000122054B05490A70991DCA7719002D33DD
:105820002E310A701A707047500A0020780A002042
:10583000F0B589B006931C9B05921B78319A5BB238
:105840001370239B2F9A1B7801901370129A029168
:105850001278219E2C982D99002A04D10F9A127843
:10586000002A00D1C9E0319B1B785BB2013B5A1E74
:105870009341DBB21D9A12785442624102701E9A23
:105880001278544262410A701F9A15782E9A157048
:1058900000780978039000200491299AC34912786E
:1058A000CF7F834224D1119B1B78834220D1149B4C
:1058B0001B7883421CD1159B1B78834218D1169B01
:1058C0001B78834214D1179B1B78834210D1019B14
:1058D0001B7883420CD1029B04991B783B432B43DA
:1058E0000B4303990B43834202D1531E9A4110008C
:1058F000459BC2B21A70AE4BDC7FA41A631E9C415A
:10590000AC4B1B789B1A5A1E93411C43AA4B5A78E6
:10591000531E59424B41A34203D0032A01D0FBF747
:105920002DFFA54B309A5C70249B1B781370139A43
:1059300012781343289A12780792002B07D11A9BEA
:105940001B78002B03D1279B1B78002B05D0319BA4
:1059500000221B785BB2013329D10022119B1B78F6
:10596000934224D10E9B1B78934220D1059B1B7838
:1059700093421CD1149B1B78934218D1159B1B7822
:10598000934214D1179B1B78934210D1019B1B7833
:1059900093420CD1029B03991B781F43049B3D4308
:1059A0002B431943914202D1079A531E9A41449BBB
:1059B00082491A70824BDA688A4201D80132DA6071
:1059C0001A002C321478002C22D1012111700522EA
:1059D0009C611C612B331A707A4B20001C705C7028
:1059E000FBF7C8FE2A9B1C70229B1B78012B00D062
:1059F00016E1734B1B69013313E1069A1278002AF2
:105A000000D030E7199A1278134300D02BE731E722
:105A10001A002B3210780138042800D9DEE0684BD8
:105A2000FBF726F9030915297D00DB68042BDBD978
:105A30000024634BCBE7DB68272BD5D9E022209BE2
:105A400092001B8864339BB29342F1D3CCE7449B12
:105A50001B78002BECD0229B1A78594B002A02D0DD
:105A600000225A61C0E75B691D2B00D8D8E00123F2
:105A70002B9A1370DCE7449A1278002AD8D064215C
:105A8000DA6851484A4382420CD8209A0020105EBE
:105A9000C8229200904205DA4C4A2224125F0A3A48
:105AA000904211DA00240221454B494A454D20001D
:105AB0001170DC602C70FBF75DFE01232A9A1370D5
:105AC0002B9B1C706C708FE7259A3068126890428F
:105AD0000BDC0022DA61FBF73DFE3E4B384C1870C0
:105AE000FBF728FE2E3420707EE7DA694A43C8218E
:105AF00049008A42EFD31A002E321278002AEAD0E7
:105B00001A002F321278002AE5D02E4A9039FF3938
:105B1000117000221A622B3306321A7064E7449B1C
:105B20001B78002B00D12DE13368002B12D0319B64
:105B30001B785BB2013300D024E15EE03368002BB8
:105B4000F5D1E122209B92001B8864339BB29342E3
:105B5000A8D8ECE7E122209B92001B8864339BB21B
:105B60009342EED8FBF7E6FD154C1B4D270028703D
:105B7000FBF7F0FD2F3738702B78002B92D1E38D97
:105B8000002B00D0F9E001200E4A042150702200C1
:105B90002B32E3611170E360FBF7ECFDFBF7DAFDFC
:105BA0003870FBF7C7FD28701EE7C046570A002073
:105BB000580A0020780A00204C0A0020FEFF0F003F
:105BC000500A0020840A0020ED070000340B00205A
:105BD0007B0A00207F0A00207E0A0020449A127867
:105BE000002A00D124E7229A1278012A14D1002237
:105BF0001A62229B1B78012B12D100240322754BC1
:105C0000754D5C612B331A70012320002B70FBF75C
:105C1000B1FD2A9B1C7053E71B6A0A2B00D941E790
:105C200000236C4A1361229B19780023994201D109
:105C3000536901335361289B1978002399420BD093
:105C400044990978994207D0644831680918644832
:105C5000814201D8936901335E4A9361259B306884
:105C600019680023884201DDD3690133D361229B87
:105C700019780023012901D0136A0133554A1362B0
:105C8000554B1878531DD97F0123814204D1063228
:105C9000D37F1B1A5A1E9341524ADCB211784A1E16
:105CA00055426A419A4206D0032904D0431E9841C6
:105CB000C0B2FBF767FD00214B4A4A4B1170019AB5
:105CC0001C7012783299434B0A70139A3B991278E0
:105CD0000A70149A3C9912780A70159A3D991278B4
:105CE0000A70169A3E9912780A70179A3F9912789C
:105CF0000A70189A409912780A70199A4199127884
:105D00000A701A9A429912780A701B9A439912786B
:105D10000A70029A339912780A70059A34991278A7
:105D20000A70069A359912780A700E9A3699127886
:105D30000A700F9A379912780A70109A3899127867
:105D40000A70119A399912780A70129A3A9912784F
:105D50000A70469A1178DA1DD1771900459A0831F0
:105D60001278CA77190028310A701B4A591D127817
:105D70000633CA77DA7709B0F0BD449B1B78002B55
:105D800000D0DBE6229B1A78124B012A13D00022A6
:105D90001A61079B002B0AD0449B1B78002B06D06E
:105DA0000E4A33689B180E4A934200D81CE6002224
:105DB000084B9A6118E619692729EAD919002B318D
:105DC0000A700021D960044B1A7002232B9A1370B9
:105DD0000AE6C046500A0020840A0020E7030000BB
:105DE000CE0700004C0A0020800A00200322034B4B
:105DF0001860034B5A701A707047C046880A00201A
:105E00004C0A0020F0B51F0013788FB00500B44C89
:105E10000991002B00D160E12300012234331A7074
:105E2000086811F0DFFF0190206A11F0DBFF011C10
:105E3000019811F0C7FD0021FBF716F9002800D1E9
:105E4000C6E00E2229000AA813F092FF61680198AB
:105E500011F0B8FDA34911F077FC159B051C1860E3
:105E60000AAB0020185E11F071FF0AAB029002200D
:105E7000185E11F06BFF0AAB03900420185E11F05E
:105E800065FF0AAB04900620185E11F05FFF0AABB5
:105E900005900820185E11F059FF0AAB06900A2001
:105EA000185E11F053FF0AAB07900C20185E11F03A
:105EB0004DFFA1680890039811F084FD8A4911F004
:105EC00043FC291C11F05AFA2168061C029811F0B3
:105ED00079FD854911F038FC291C11F04FFA311C6D
:105EE00010F08EFDE168061C049811F06BFD7E49F0
:105EF00011F02AFC291C11F041FA011C301C10F091
:105F00007FFD2169061C059811F05CFD764911F0B2
:105F10001BFC291C11F032FA011C301C10F070FD22
:105F20006169061C069811F04DFD6F4911F00CFCDB
:105F3000291C11F023FA011C301C10F061FDA1692D
:105F4000061C079811F03EFD674911F0FDFB291C66
:105F500011F014FA011C301C10F052FDE169061C0E
:105F6000089811F02FFD604911F0EEFB291C11F08B
:105F700005FA011C301C10F043FDFE21149B89051D
:105F80001860FBF77BF8431E98410025574C2071A1
:105F9000029C01356B000AAAD05E11F0D7FE211CCD
:105FA00010F02EFD041C062DF3D1504B029A186000
:105FB0004B4B1A60019A5A60039A9A60049ADA600D
:105FC000059A1A61069A5A61079A9A61089ADA61E3
:105FD000434C474A238E934201D801332386230042
:105FE00033331B78414D002B09D1A3626362022336
:105FF000FF3363860023169A3B60136037E0260068
:1060000032363378012B11D0022B4FD00023169A51
:1060100013600023E36202333370FBF7BFFB0C20F5
:10602000FBF738FCFE239B053B6020E00026169B17
:106030003E601E602F492868FBF720F8002800D139
:1060400060622B79002B00D1A3626421636A2A4A23
:106050004B4393420BD9A36A4B43934207D9230086
:10606000032232331A7000232386169B1E602E688B
:106070002049301CFBF702F8002801D0606A01308B
:10608000002360622A799A4201D0A36A01331B4936
:10609000A362301CFAF7D4FF002801D0E06A013077
:1060A000099BE0621B6823620FB0F0BDFE239B05D5
:1060B0003B6012492868FAF7C3FF002801D1E0626B
:1060C000D5E76422E36A53430B4A9342CFD90023B6
:1060D000A3626362013333708CE734342370E3E7E7
:1060E0008C0A00206F12833ACDCCCC3DC40A00202C
:1060F000FE0F000000009643B80B000000009B4319
:10610000014B18607047C046CC0A002037B5002507
:10611000040069461348009506F076FC0098124B7F
:106120002100C0180422800006F09AFC0099013179
:10613000092900D9290004220A48009106F090FCA0
:1061400000230193094B01A9E418A400200006F0E4
:106150005BFC0199042201312000019106F080FCD2
:1061600037BDC046644100004F10000041100000E0
:10617000F0B50024CC4BCD4A1C711A60CC4A93B0C8
:106180009A60CC4BCC4E06930393CC4B22000793E2
:1061900002936A23210000935020693B01960FF07F
:1061A000D5FEC74B0593A04200D01C70059B1B7801
:1061B000002B08D0C34C682021000FF011FF2100F4
:1061C0006A200FF00DFF08F009F8BF4B040019001A
:1061D000BE48049310F050FB0FF014FEBC4B0100BE
:1061E000180010F049FB2100BA4810F045FBBA48EE
:1061F00010F042FB06F0CEFC0127032800D0A7E1F7
:106200002000FFF783FF002309A9B448099306F093
:10621000FBFB0AA9B24806F0F7FB0A9C0AA9B148A1
:1062200006F0F2FB201C13F0B9FCAF4AAF4BFAF7B3
:10623000E1FEAB4FAE4D002814D0FF21201C890594
:10624000FAF7FEFE00280DD0AA490A98FAF7F8FEE0
:10625000002807D02900380006F0D6FBA649A1483F
:1062600006F0D2FBA549286811F06EFA11F04EFD38
:10627000A14B0600A149186811F066FA11F046FD1D
:10628000924D04990690280010F0F6FA0FF0BAFD2E
:106290008F4C0100200010F0EFFA3100984810F008
:1062A000EBFA8D4E300010F0E7FA0499280010F058
:1062B000E3FA0FF0A7FD0100200010F0DDFA0699C7
:1062C000904810F0D9FA300010F0D6FA8E4E099BA3
:1062D000B3425AD0802000230BA9C0010B9306F0D3
:1062E00093FB0B9B0DAD002B20D10CA987480C9381
:1062F0000D9306F089FB2900854806F085FBE12116
:106300000C980901FAF7BEFCE12104000C90090188
:106310000D98FAF7B7FC042221000D907B4806F097
:106320009FFB04220D997A4806F09AFB122228005E
:10633000784913F01DFD0024630004220021E85A6F
:10634000013406F08DFB092CF6D1734C2000042299
:106350000021043406F084FBBC42F7D10122022163
:106360006E4806F07DFB012280201100C00106F07E
:1063700077FB04226449594806F072FB574809A983
:1063800006F042FB099BB34273D100F01DFD644D42
:1063900028702B780B3BDBB2F32B1DD801F007FCE8
:1063A0000E21604807F03BFE0499484810F064FA5B
:1063B0000FF028FD464B0100180010F05DFA5A4816
:1063C00010F05AFA444810F057FAFA2080000FF003
:1063D0000BFD08F0E3FB4CE000F020FA00F0FEFCBF
:1063E000041E48D100F0DEFF00F098FC4F4B200067
:1063F0001C7000F0E1FC0CA94D480C9406F004FB65
:106400000C994C4B01310422494819600C9106F05B
:1064100027FB0DA948480D9406F0F6FA0D98474958
:10642000FAF7B6FC464B89B2198007F071FE0128D5
:1064300008D10D99042201313F480D9106F010FB5F
:1064400007F06AFEFAF78CFE002800D0A6E0059B54
:106450001B78002B07D03B4968300FF0C1FD6A2044
:1064600018490FF0BDFDFAF78FFE002800D195E026
:10647000C046012492E028780A2806D1002000F0C6
:106480009BFC0122294B1A70F3E70130C0B228703F
:1064900000F092FC01F08AFA7BE72B780A2B53D1AB
:1064A000224B1F70E5E7C046D40A00200308000015
:1064B000A70BD50179E1000031E1000055E10000B2
:1064C00047FEFF1FE79D01002D9F01009A9D0100DF
:1064D000A79D0100A49E0100BE9D01000442000092
:1064E000D8400000DC4000009A9999999999E93FB9
:1064F00038FEFF1F0000C84234FEFF1F00007A4430
:10650000B79E0100C29E0100A7D885651440000017
:1065100010400000829D0100B0400000FC410000DE
:10652000E80A002080F00F40BF9D0100E90A00202A
:1065300004410000E40A002024400000FFFF0000A6
:10654000E00A0020CF9E010001332B7001F02EFAEB
:10655000144D2B780B3BDBB2F32B00D81EE7124B0C
:106560001F7000F05BF900F039FC041E95D100F0BB
:10657000E1FD00F0BBFB0D4B22001C70069B2100CF
:106580000393079B502002936A2301960093693B73
:106590000FF0DCFC002801D0054B1C70200013B06C
:1065A000F0BDC046E80A0020AE0C0020E90A002039
:1065B00047FEFF1FF7B5334B1D78002D61D1FDF766
:1065C000A3F80E22304B31491A60314B314C1A601E
:1065D0000222314BFF321A800A00304BC1CBC1C2BC
:1065E00043CB43C243CB43C203CB03C22C4A2D4B04
:1065F000C1CBC1C2110045CB45C145CB45C105CB7F
:1066000005C1294B2949186B1E0011F09DF8220085
:10661000274B343658673378403213702200254BAD
:10662000A4321B7824491370230022009C331D7070
:106630000F23AF3213702200B03211602200B43247
:1066400013701E4A1E48137053709370D3701371E9
:1066500053712300B5331D7023001A4ABC331A60EE
:106660006B46DD7123009F331D706B46A034D91D2E
:10667000257006F0DFF96B46DB79692B01D1683BA9
:106680002370F7BDE90A0020140700205C070020F2
:106690008006002018070020BA070020D8FDFF1F41
:1066A0008807002004FEFF1F340B002000BA5B4A5D
:1066B000D80B0020EA0A00200F0F0F0FB80B0020A4
:1066C000E840000070FEFFFF10B5234C2268531C09
:1066D0000A2A04D90121214807F0AAFC00232360DB
:1066E0001F4B1B78002B14D01E491F4810F0C4F814
:1066F0000FF088FB1D4B0100180010F0BDF81C487E
:1067000010F0BAF81B4810F0B7F864200FF06CFBDB
:1067100010BD194B1B78002B13D11249124810F0F1
:10672000ABF80FF06FFB114B0100180010F0A4F84C
:10673000124B13481978C9B210F09EF80D4810F0AA
:106740009BF8104B1B78002BE2D10F4B1B78002BD2
:10675000DED104F02DF8DBE7D00A002080F00F40F6
:10676000E90A00201D9F01009A9D0100A79D0100DC
:10677000D19E0100BE9D010030FEFF1FF00A0020E7
:10678000E19E0100FC180020FD18002010B501F06A
:106790000EFA0E210D4807F042FC0D490D4810F08D
:1067A0006BF80FF02FFB0C4B0100180010F064F891
:1067B0000A4810F061F80A4810F05EF8FA208000EC
:1067C0000FF012FB08F0EAF910BDC04680F00F4050
:1067D000089F01009A9D0100A79D0100BF9D010037
:1067E000BE9D01001FB5040000200A4B20701B78DD
:1067F00008220293084B0121019300900E2301F01F
:1068000053FF002801D101232370431E9841C0B2D9
:1068100004B010BDAD0C0020CDCC4C3E10B5002016
:1068200002F0CEFA10BD0000F7B5002001F0EAFE3C
:106830001F4C009000280CD121001E4A9F31137874
:10684000DB07DB0F0B70137822005B07DB0F9E3238
:106850001370194F194E3900300010F00DF80FF079
:10686000D1FA174D0100280010F006F823009F33DD
:1068700019781448C9B20FF0FFFF134B9E3418006B
:1068800001930FF0F9FF390030000FF0F5FF0FF022
:10689000B9FA010028000FF0EFFF21780B48C9B2C8
:1068A0000FF0EAFF01980FF0E7FF0098FEBDC04629
:1068B000D80B0020DE0D0020B09F01009A9D010042
:1068C000A79D0100369F0100BE9D0100469F01006B
:1068D00007B5002001A9019001F07EFC002802D13B
:1068E000019A014B9A630EBDD80B002007B500201A
:1068F00001A9019001F08CFC002802D1019A014B02
:10690000DA610EBDD80B002007B5002001A9019067
:1069100001F09AFC002802D1019A014B1A620EBDC7
:10692000D80B002037B500256B460020E9B29A1D30
:10693000D88001F035FC041E07D16B46D988094B7D
:106940006A000135D1520E2DEED1FFF7CFFF04437F
:10695000FFF7DAFFE4B20443FFF7BAFFE4B22043E3
:10696000C0B23EBDD80B002073B50025224E6B4649
:1069700000203278991DD88001F096FC041E11D1B8
:106980006B460620185E1D4A00280DD1012120000B
:106990001378994260411B18DBB213708B4201D906
:1069A000174B1970200076BD147013F0A5F8002263
:1069B000144B12F0C9FC13F063F83178124A00B29C
:1069C000092907D15086114A1080013501360A2D58
:1069D000CDD1E7E7032902D190860D4AF4E70029DB
:1069E00001D1D086F1E72900103149005218094938
:1069F00090806A008852E8E73CFEFF1FF10A002001
:106A0000040B00200057A540D80B0020200B0020CD
:106A1000100B0020120B00200020F0B585B003A958
:106A2000039001F02DFC204D041E11D10398002885
:106A30000CD011F08BF91D4B196810F085FE1C4B22
:106A4000196810F011FB11F061F90390039BEB63DF
:106A500007F0D4FA174F184E3B68C01A306007F0A1
:106A6000CDFA33683860002B02DAFA235B0033601A
:106A7000EB6B3068019313F03FF8060001980F00AC
:106A800013F03AF802000B003000390012F094F9CC
:106A900000220A4B11F04CFD13F0C8F8084D286095
:106AA000200005B0F0BDC046D80B002038FEFF1F07
:106AB00034FEFF1F080B00200C0B002000408F400D
:106AC000280B0020002110B5080001F06FFE10BD5A
:106AD000054B00201B7810B5DB09012B03D10722E1
:106AE000010001F00FFF10BDE30D002010B50121E2
:106AF000002001F089FC00281BD10E4A0E4B1178B2
:106B00000907C90F997211784907C90F19731178CC
:106B10008906C90F59741178C906C90F19741178FB
:106B2000C9095972127801005206D20F9A7401F005
:106B30006BFC10BDE90D0020BE0B002010B501213B
:106B4000002001F0B9FC00281FD1104A104B117829
:106B50008906C90F59711178C906C90F9971117841
:106B60004906C90FD97111788907C90F9970117831
:106B7000C907C90FD97011784907C90F197112785F
:106B80000100D2099A7301F097FC10BDE70D0020B7
:106B9000BE0B002010B50121002001F0EBFC002805
:106BA00007D1044B044A1B780100DB09D37401F0C0
:106BB000E1FC10BDE60D0020BE0B002070B5040006
:106BC000FFF780FF051E12D101F0B8FE002815D195
:106BD0000C4A0D4913881BB28B4209DD13880B4AFE
:106BE0001BB2934204DC0A4B1B78DB09237070BD97
:106BF000002301222370074B1A70F8E7C046257066
:106C0000F5E7C046BC0D0020776900001879000048
:106C1000E30D0020040B002010B5FFF767FF040010
:106C2000FFF78CFF0443FFF7B5FFE4B22043C0B287
:106C300010BD000070B50500074C012804D19C343C
:106C400001F012F9257070BD002001F00DF900234C
:106C50009C342370F7E7C046D80B002010B50C49D0
:106C600004000C480FF008FE0FF0CCF80A4B0100AE
:106C700018000FF001FE210008480FF0FDFD084844
:106C80000FF0FAFD2100002001F080FF10BDC0468A
:106C90009B9F01009A9D0100A79D0100BE9E0100DF
:106CA000BE9D010010B50C4904000C480FF0E4FD36
:106CB0000FF0A8F80A4B010018000FF0DDFD2100CD
:106CC00008480FF0D9FD08480FF0D6FD210000203C
:106CD00001F0DEFE10BDC046869F01009A9D0100B6
:106CE000A79D0100BE9E0100BE9D01007FB50C2244
:106CF000002103A813F026F8054B14220193054B3D
:106D000001A90548029313F033F807B000BDC0464F
:106D1000454550524F4D46417C0B002010B588B080
:106D20001422002103A813F00DF80822002101A865
:106D300013F008F8002403AB1919194BE0180434B8
:106D400005F062FE142CF6D101A9164805F05CFE90
:106D5000154802A905F058FE049B002B01D1134BE6
:106D60000493134C1422200003A913F001F8039B91
:106D7000002B0DD10322A370E3700C3323710A336F
:106D80006371043B2270A371053218336270E371A2
:106D9000082201A9074812F0EBFF08B010BDC04659
:106DA00084400000A4400000A8400000A70BD501CB
:106DB0007C0B0020740B00200100812010B5042200
:106DC000C00105F04DFE10BD07B58120002301A9CB
:106DD000C001019305F018FE01980EBD10B5082101
:106DE000002001F0D3F9431E9841C0B210BD00004D
:106DF000002313B5134801A9019305F005FE019B7B
:106E0000013B033306D9104B0422D96B0D48019185
:106E100005F026FE00230D4801A9019C019305F011
:106E2000F3FD019B013B033306D9074B0422D96BC9
:106E30000648019105F014FE01982018400810F052
:106E4000D1FF16BDB0400000340B0020B44000005C
:106E500070B59AB006006422002101A812F072FFFA
:106E6000002401AB19198B4BE018043405F0CCFD5C
:106E7000642CF6D1884D0222280001A907F09AF966
:106E8000864B2A8886481A8002A9022207F092F9C6
:106E90000222844803A907F08DF90122824804A93F
:106EA00007F088F90222814805A907F083F9022238
:106EB0007F4806A907F07EF902227E4807A907F05D
:106EC00079F901227C4808A907F074F904227B486B
:106ED00009A907F06FF9012279480AA907F06AF9B0
:106EE000042278480BA907F065F9012276480CA91D
:106EF00007F060F9022275480DA907F05BF902223C
:106F000073480EA907F056F9022272480FA907F03C
:106F100051F90222704810A907F04CF902226F487B
:106F200011A907F047F902226D4812A907F042F9AA
:106F300002226C4813A907F03DF902226A4814A9FD
:106F400007F038F90422694815A907F033F96849B0
:106F5000286B10F0F9FB0FF033FF654910F00EFAC3
:106F60000122286316A9634807F024F9624C012224
:106F7000200017A907F01EF92378002B00D13C331D
:106F80002A00353213705D48042218A907F012F95F
:106F9000022E00D07AE05A49286B10F0D5FB0FF092
:106FA00061FF040001000422E863564805F058FD23
:106FB00004222100544805F053FD042221005348C7
:106FC00005F04EFDFFF714FF0023514E6946306077
:106FD0005048009305F018FD009A4F4C4F4B6946FE
:106FE0004F48DA6705F010FD2300009A0833DA678E
:106FF00030684349260010F0C1F9883630603068A7
:10700000296B10F0BBF930603068464910F09CFBEA
:107010000FF028FFFA2180B2683420802B89424C7F
:10702000643B9BB223802388A86919339BB2638099
:107030006B88890064339BB2A380A388193B9BB201
:10704000E380F9F7A9FE394A2B6905309B1880B215
:107050002081236120693649F9F79EFEB4233C2242
:10706000053080B2A0816381733BA382E2820A3241
:1070700022836383533A4C3BA283E3832284638459
:1070800005340C33E377C0461AB070BD199BEB632F
:1070900098E7C04608420000340B0020220B002075
:1070A000360B0020380B00203A0B00203C0B002050
:1070B0003E0B0020400B0020420B0020440B002020
:1070C000480B00204C0B0020500B0020520B0020DE
:1070D000540B0020560B0020580B00205A0B0020A8
:1070E0005C0B00205E0B0020600B0020640B002076
:1070F0000000C842680B0020690B00206C0B0020C8
:1071000000BA5B4AB0400000B44000006842000092
:10711000240B00209C400000D80B0020DC0B00203A
:107120009840000000D02245940D002068C5FFFF64
:1071300018FCFFFF164B174A17491A60FA22120172
:107140009A8006229A719A73144A99601A610A22E7
:107150001A75134A13499A6108221A7796229200E7
:10716000DA83114A99811A62104A5A62104A9A6265
:10717000322252429A850F4ADA630F4A1A630F4A43
:107180009A8601229A630E4B0E4A1A607047C046D7
:10719000340B0020100EB310F00A540B5052FEFFB7
:1071A00030750000C409000026029CFFCEFF2602B5
:1071B000F4019CFF0095BA0A000048420C3C000014
:1071C000240B002050A92B4D73B5E12100230901A8
:1071D000022251480193009105F05AFC4F490222C6
:1071E0004F48009105F054FCFA21062409010222BF
:1071F0004C48009105F04CFC210001224A480094C3
:1072000005F046FCAF21022209014848009105F033
:107210003FFC474902224748009105F039FC4649A6
:1072200002224648009105F033FC21000122444827
:10723000009405F02DFC434904224348009105F0D9
:1072400027FC0A2101224148009105F021FC404918
:1072500004224048009105F01BFC082101223E4811
:10726000009105F015FC96213C4E3D4D890002220F
:107270003C483D4C009105F00BFC310002223B489C
:10728000009605F005FC290002223948009505F01A
:10729000FFFB210002223748009405F0F9FB310082
:1072A00002223548009605F0F3FBFA21022249003C
:1072B0003248009105F0ECFB29000222304800958D
:1072C00005F0E6FB210002222E48009405F0E0FBC9
:1072D0002D4B684601A90422019306F076FF009920
:1072E00004222A4805F0D4FB0C21012228480091F1
:1072F00005F0CEFB01223C21264805F0C9FB042203
:107300000121254805F0C4FB2449042224480091AA
:1073100005F0A6FB73BDC04608420000B310000094
:107320000C4200001042000014420000184200000D
:10733000540B00001C420000C40900002042000061
:10734000244200005052FEFF284200002C42000060
:107350003075000030420000344200002602000078
:107360009CFF000038420000CEFF00003C420000BD
:107370004042000044420000484200004C420000ED
:1073800050420000544200000000484258420000B1
:107390005C42000060420000644200000095BA0AAE
:1073A00068420000F7B56B460027991D23489F717E
:1073B000DF7105F03FFB6B462148D91D05F03AFB14
:1073C0006B46DD791F4E012D24D19C79022C0CD106
:1073D0002000FFF73DFD3570C04618482A002900FF
:1073E00005F03EFB184B1D70F7BD012C09D12200A2
:1073F0002100124805F034FB2000FFF729FD34700E
:10740000F2E7124B1C70FFF7DFFE0220FFF720FDB2
:107410003770E9E7FFF7D8FE01220948110005F0AF
:107420001FFB01220548110005F01AFB0123064A43
:10743000022033701370FFF70BFDD5E77C4000008E
:107440002C40000030FEFF1FAD0C0020F00A002091
:10745000002313B5064C01A92000019305F0D4FACE
:107460000199042201312000019105F0F9FA13BDC0
:1074700020400000002313B5064C01A92000019311
:1074800005F0C2FA0199042201312000019105F0B2
:10749000E7FA13BDA040000070B515000E1C0422D1
:1074A00001000E4805F0DCFA0422040031000C480B
:1074B00005F0D6FA0422044329000A4805F0D0FA60
:1074C000E4B22043C0B2002804D1042207210648B8
:1074D00005F0C6FA431E9841C0B270BD6842000074
:1074E000084000000C4000000440000070B50F256B
:1074F000DE238542AD4100245B001D40284B86B051
:10750000ED18060001A92800019405F07DFA019804
:10751000022810D8234B0422C0183100800005F047
:107520009FFA0422280001990131019105F098FA8F
:10753000012006B070BD03A91B4802940394049473
:10754000059405F061FA04A9184805F05DFA184899
:1075500005A905F059FA039A049B934205D1059AAF
:10756000934202D12000B342E3D002A90F4805F0B4
:107570004BFA042202990C4805F072FA02A90C4851
:1075800005F042FA04220299084805F069FA04223B
:107590003100074805F064FA042201990048C5E764
:1075A0003C4000000C10000030400000344000005F
:1075B0003840000013B5041E13D0FFF797FF0128D1
:1075C0000FD1084B01A9E4180023A4002000019367
:1075D00005F01AFA0199042201312000019105F009
:1075E0003FFA13BD0F10000007B56A46FF23074896
:1075F000D11DD37105F01EFA6B46DB79002B04D147
:1076000001229621014805F02BFA07BDE440000055
:1076100007B56A46FF230748D11DD37105F00AFA62
:107620006B46DB79002B04D101226921014805F06A
:1076300017FA07BDE840000007B5094B01A9094842
:10764000019305F0E1F90021884207D1019B072B46
:1076500004D10422034805F003FA012108000EBDFD
:10766000FFFF00000440000007B5044B044801A9D7
:10767000019305F0C9F901980EBDC046FFFF000057
:1076800008400000002307B5034801A9019305F055
:10769000BBF9019880B20EBD0C40000037B5012542
:1076A000040069460E486D42009505F0ADF9009B57
:1076B000002B0DD104222100094805F0D1F908481A
:1076C00001A9019505F0A0F9019B9C4201D1C0469A
:1076D00037BD04222100024805F0C2F9F8E7C04690
:1076E000EC4000000120014B18707047940B002003
:1076F0000120014B18707047930B00200120014BB3
:1077000018707047920B00200120014B18707047D1
:10771000910B002010B503F027FA431E9841C0B228
:1077200010BD0000002337B5050001A906480193EC
:1077300005F06AF90400019810F054FB631E9C41A7
:107740002860E0B23EBDC04610400000002337B5BF
:10775000050001A90648019305F056F904000198B7
:1077600010F040FB631E9C412860E0B23EBDC04665
:1077700014400000002337B5050001A90648019315
:1077800005F042F90400019810F02CFB631E9C41A7
:107790002860E0B23EBDC04618400000002337B567
:1077A000050001A90648019305F02EF9040001988F
:1077B00010F018FB631E9C412860E0B23EBDC0463D
:1077C0001C40000010B50FF0B1FA0FF04BFB042283
:1077D0000100024805F044F910BDC0461040000009
:1077E00010B50FF0A3FA0FF03DFB04220100024890
:1077F00005F036F910BDC0461440000010B5041C59
:107800000FF030FB10F0EEFA011C201C10F0DAF83B
:10781000FC218905F9F732FC00280AD0201C0FF062
:107820003DFA0FF01FFB04220100044805F018F98F
:1078300010BD201C0FF07AFAF3E7C0461C40000090
:1078400010B5041C0FF00EFB10F0CCFA011C201C2C
:1078500010F0B8F8FC218905F9F710FC00280AD0CF
:10786000201C0FF01BFA0FF0FDFA0422010004485F
:1078700005F0F6F810BD201C0FF058FAF3E7C046EB
:1078800018400000F0B5364B364C1B7887B0051C0D
:10789000DEB2002B04D0344B2360206807B0F0BD6B
:1078A0000822310004A8039612F04CFA2F49281C34
:1078B0000FF04AFF0FF0D6FA2D4D01902B78002BD8
:1078C00020D004A92B4805F09FF804982A4F38606F
:1078D00010F088FA21680FF0C7FB05A9206027483F
:1078E00005F092F80598786010F07CFA21680FF0A6
:1078F000BBFBFC2189050FF027FF1C490FF03EFD63
:107900002E7020601E4E1F48310005F07DF81E4D80
:10791000306803A94019800005F076F83068019BB3
:107920004019190004228000039305F099F8174BC1
:107930002068196B0FF022FD154F051C291C3868B3
:10794000144EF9F777FB0028A7D13D60386812493B
:107950000FF0FAFE0FF086FA683680B230809CE7AE
:10796000AE0C0020FC0A00200000484200BA5B4A2E
:1079700031FEFF1FB0400000F40A0020B4400000B8
:10798000000B0020AC4000002C100000340B002045
:10799000600C0020D80B002000D0224510B500F06C
:1079A0004FFA10BD10B500F055FA10BD37B50025DF
:1079B00001A91248019505F027F801990422013127
:1079C0000E48019105F04CF801210D4806F022FB0C
:1079D000280001F09DF90400A84206D100240121ED
:1079E000074806F01CFB20003EBD280001F0B2F95C
:1079F000280001F0E5F90028F0D0F0E72840000069
:107A000080F00F40002337B5094C051C01A9200068
:107A1000019304F0F9FF0199281C0FF025FB054B99
:107A2000011CD86701900422200005F019F837BD29
:107A30009C400000DC0B0020002337B5094C051CDE
:107A400001A92000019304F0DFFF0199281C0FF029
:107A50000BFB054B011CD86701900422200004F0A9
:107A6000FFFF37BD98400000E00B002070B5FA24FE
:107A70000EF0C8F92B4A012105F042F82A49682086
:107A80000EF0AEFA294D6A2029000EF0A9FA640022
:107A9000002001F00BF9200006F0ACFA01200EF0F6
:107AA00069FAC046200006F0A5FA00200EF062FA3E
:107AB000200006F09FFA1E4968200EF091FA290076
:107AC0006A200EF08DFA1B4D01200EF053FA2000B3
:107AD00006F090FA00220221280006F097FAC0462C
:107AE000200006F087FA06F01BFB28000E2106F0A6
:107AF00096FA114911480EF0BFFE0EF083F9104BB3
:107B0000010018000EF0B8FE0E480EF0B5FE0E484B
:107B10000EF0B2FEFA2080000EF066F907F03EF893
:107B200070BDC046AE0C0020E59D0100569F0100CF
:107B3000EB9D010080F00F40799F01009A9D0100AC
:107B4000A79D0100BF9D0100BE9D010010B5002052
:107B500000F01EFF10BD000010B50E2200200249EB
:107B600000F02AFF10BDC046180C002010B50021FF
:107B700068200EF065FA01216A200EF061FA10BD4E
:107B800010B500200EF0F6F910BD10B501200EF072
:107B9000F1F9FFF7EBFF10BD10B50C0001006820F4
:107BA0000EF01EFA21006A200EF0ECF910BD10B59F
:107BB00006F0B6FA10BD10B506F0B6FA10BD00001A
:107BC00010B50020FFF76EF80020FFF747F80EF021
:107BD00019F904000EF016F9001BFA2827D8FEF751
:107BE00023FE134A134B1278002AF3D19E331B78DD
:107BF000002BEFD106F094FA0E210F4806F00FFA91
:107C00000E490F480EF038FE0EF0FCF80D4B010047
:107C100018000EF031FE0C480EF02EFE0B480EF050
:107C20002BFEFA2080000EF0DFF806F0B7FF10BD43
:107C3000770C0020D80B002080F00F406A9F0100D5
:107C40009A9D0100A79D0100BF9D0100BE9D0100FE
:107C5000002303700B4B10B50B4ADC68944209D922
:107C60008622DC68D201944204D8DC68944202D8AF
:107C70000123037010BDDB689342FBD90029F7D0C4
:107C8000F8E7C046980B00200340000070B50024C0
:107C900001210500FFF7DCFFA5420BD170BDD868BC
:107CA000195D2018C9B204F00FFF43425841013456
:107CB0002870E4B2024B1A899442F0D3EEE7C04632
:107CC000980B002037B5002400210500FFF7C0FF06
:107CD000A5420DD137BD6A460023E868D11D2018A2
:107CE000D37104F0A7FE6B46DB792B550134E4B267
:107CF000024D2B899C42EED3ECE7C046980B002046
:107D000070B5050000240749074B6118E0180134DD
:107D100004F090FE602CF6D10222044B5A7101232C
:107D20002B7070BD510F002008420000B80B0020DE
:107D300010B501000122024804F092FE10BDC046B9
:107D40007C40000010B506F0EBF90E21104806F05B
:107D500066F9104910480EF08FFD0EF053F80F4BE6
:107D6000010018000EF088FD0D480EF085FD0D484D
:107D70000EF082FD0EF046F801210B4A04F0C0FE21
:107D8000FA2080000EF030F806F008FF10BDC04663
:107D900080F00F40589F01009A9D0100A79D0100AF
:107DA000BF9D0100BE9D0100AE0C0020002807D140
:107DB000054A1378002B03D00121044B1970107071
:107DC000034B18707047C046500F0020900B0020E6
:107DD000B80B0020014B58707047C046B80B00200C
:107DE000014B98707047C046B80B0020014BD8700B
:107DF0007047C046B80B0020014B18717047C04651
:107E0000B80B0020014B58717047C046B80B0020DA
:107E10000F22084B5A709A70DA701A715A71064A1A
:107E20001378002B04D00121044B19700023137028
:107E30007047C046B80B0020500F0020900B002068
:107E400010B50121024806F0EFF8C0B210BDC046DF
:107E500040F00F4010B50021024806F0E5F8C0B22E
:107E600010BDC04640F00F40102110B5002803D0CF
:107E7000034806F0CFF810BD014806F0D0F8FAE745
:107E800080F00F4010B502F05BFCC0B210BD0000E6
:107E9000F7B50F001100C12201931202904250D099
:107EA0000132FF32904200D16AE0C02212029042B9
:107EB0002ED1434A127952B2012A29D1414A12786D
:107EC000012A25D1232F23D13F4E3478042C1BD8EF
:107ED00048780A78000210438A780D791204024328
:107EE000C878000610434A7912022A438D792D047E
:107EF0001543CA79354912062A434D68854208D18F
:107F00008968914205D1C046314A13780133137014
:107F1000FEBD304D00212F002B68834202D16B68DB
:107F20009A42F0D00131C9B208358C42F4D2E50052
:107F300078517D196A600122019B013434701A70F6
:107F4000E2E71F4B1B795BB2052BE1D11D4B1B7880
:107F5000022BDDD1204B1D78012DD9D13B001C26F1
:107F6000233B5E43194C335DBB42D1D1300010300E
:107F700008220019A41911F0FBFE2576C046C7E7B8
:107F8000104B1B78022BC3D1134B1B78002BBFD196
:107F90000B78022BBCD8114C1149124823700EF0FB
:107FA0006BFC0DF02FFF104B010018000EF064FC6D
:107FB00021780E480EF060FC0D480EF05DFCA7E73E
:107FC00048FEFF1F890D0020810D0020B00C00200D
:107FD000820D0020580D00208A0D002050FEFF1F4A
:107FE000D59F01009A9D0100A79D0100C29F01003D
:107FF000BE9D0100024A136801331360C0467047FA
:10800000840D0020014B18787047C046890D002070
:10801000084B1870084B1A78022A09D1074A1278BF
:10802000002A05D1002901D0032901D100221A70AC
:108030007047C046800D0020890D00208A0D002069
:10804000014B18787047C046880D002070B50500B8
:1080500008001900012D0AD105F0F8FF4442E4B2EE
:10806000002C02D00122054B1A70200070BD06249E
:10807000002DFAD106F014F8F0E7C04620190020D0
:1080800070B5050008001100012D21D1049A05F0FA
:10809000E9FF4442E4B2002C38D01F4A052153685E
:1080A0001E48013353602A0005F0B0FF0A2005F096
:1080B000A1FF00220521194805F0A8FF164BAD00CD
:1080C000EB58042B02D90122154B1A70200070BD09
:1080D0000624002DFAD1049A05F0EEFF4442E4B2E2
:1080E000002C13D00C4A022113680E480133136090
:1080F0000D4A136801331360012205F087FF0A203F
:1081000005F078FF2A0002210648D5E70024024B3B
:10811000AD00EC50DAE7C046900D0020C0F00F40F3
:108120002019002040F00F408C0D0020030010B5F6
:1081300008000121002B04D005F07EFF4042C0B2B0
:1081400010BD05F0A3FFF9E710B505F05FFF10BD06
:1081500010B505F04FFF10BD10B505F04FFF10BD75
:108160007047000070B504000748210002F0A8F82D
:10817000050002208443902C03D1FFF7E9FF28007B
:1081800070BD0120F9E7C046F00D0020062310B5B0
:10819000002802D1FFF7CAFF0300180010BD00003D
:1081A000030010B50620002B11D1094B1B78002BC2
:1081B0000DD00F290BD807488388013B8B4200D193
:1081C0000F210A31C9B24900C9B201F0F1FF10BD57
:1081D000ED0D0020F00D002013B503000C0006206B
:1081E000002B0FD1084A1278002A0BD06A4634219E
:1081F000D3800648063201F0DBFF6B46DA880A239B
:108200005343236016BDC046ED0D0020F00D002045
:1082100013B503000C000620002B0FD1084A12787A
:10822000002A0BD06A463621D3800648063201F078
:10823000BFFF6B46DA880A235343236016BDC0464E
:10824000ED0D0020F00D002013B503000C000620FA
:10825000002B0FD1084A1278002A0BD06A46382129
:10826000D3800648063201F0A3FF6B46DA880A2362
:108270005343236016BDC046ED0D0020F00D0020D5
:1082800003000A00062010B5002B07D1044B1B7811
:10829000002B03D01621034801F0B4FF10BDC046E7
:1082A000ED0D0020F00D002013B503000C0006209A
:1082B000002B12D10949097800290ED0092A0CD8BF
:1082C0006946CB806B46510068319A1D0448C9B29B
:1082D00001F083FF6B46DB88238016BDED0D002087
:1082E000F00D0020F0B5030085B00620002B00D073
:1082F00081E0424A1278002A7DD002AA4048911DAE
:10830000D38001F0EFFE002875D102ABDA8801219D
:1083100015003C4B0D401C7802268C432C4355081D
:108320000D408D401C701C780427B4432C439508E5
:108330000D40B5401C701C780636BC432C431C70A5
:108340001C78D5080D40ED00B4432C4315090D40B1
:10835000BD401C701C780836B4432C431C701C783C
:1083600055090D4010366D01B4432C431C701C7828
:1083700095090D402036AD01B4432C431C701C7888
:10838000D5090D403F36ED0134402C431C700324C9
:10839000A4465C78150A0094644625400195009D2A
:1083A000A5432C00019D2C435C705C78950A0D4020
:1083B000AD00BC432C435C705C78D50A0D40FF19BE
:1083C000ED00BC432C435C705C78150B0D40083706
:1083D0002D01BC432C435C705C78550B0D4010376D
:1083E0006D01BC432C435C70D20B0A405978D2011A
:1083F00031400A435A7005B0F0BDC046ED0D002073
:10840000F00D0020EB0D002073B503000D000028D7
:1084100011D1254A1278002A0DD06A46D41D207049
:108420000A002248210001F015FE002804D1002D89
:1084300003D0012D05D0062076BD1D4B22781A7081
:10844000FAE7042624781B4BA1081A7829408900F2
:10845000B2430A431A701A78E108B6192940C900D4
:10846000B2430A431A701A782109083629400901D3
:10847000B2430A431A701A7861091036294049013B
:10848000B2430A431A701A78A1092940203689019B
:10849000B2430A437F211A701A78E4092C40E401A0
:1084A0000A402243CBE7C046ED0D0020F00D00202E
:1084B000EA0D0020E90D002073B50D00002812D14F
:1084C000284B1B78002B0ED06B46DC1D0A00207059
:1084D00001232100244801F0BDFD002804D1002D16
:1084E00003D0012D05D0062076BD204B22781A70CE
:1084F000FAE72478022621001D4B29401A78AA4366
:108500000A431A701A78610829404900B2430A43A5
:10851000A1082940B1401A701A78B619B2430A432B
:1085200021092940B1401A701A780C36B2430A4327
:108530001A701A786109103629404901B2430A437A
:108540001A701A78A109294020368901B2430A43DA
:108550007F211A701A78E4092C40E4010A40224372
:10856000C5E7C046ED0D0020F00D0020E80D00200D
:10857000E70D002073B50C00002812D11D4B1B78AD
:10858000002B0ED06B46DD1D0A0028700223290047
:10859000194801F05FFD002804D1002C03D0012C04
:1085A00005D0062076BD154B2A781A70FAE71026FA
:1085B0002B78134A1D09117825402D01B143294319
:1085C00011701178DD0925406F36ED0131402943E6
:1085D0005D099B09254023404024117011785F3EBE
:1085E0006D01B1432943117011789B01A1430B43E5
:1085F0001370D7E7ED0D0020F00D0020E50D0020F1
:10860000E60D0020030073B50620002B45D1234A58
:108610001278002A41D06A462148D11DD37101F059
:10862000B3FD002839D16B46DA79012115001D4BC5
:108630000D401C7802268C432C4355080D408D407C
:108640001C701C78B4432C4395080D40B5401C7039
:108650001C78B619B4432C431C701C78D5080D4007
:108660000436ED00B4432C431C701C7815090D40F2
:1086700008362D01B4432C431C701C7855090D405D
:1086800010366D01B4432C431C701C7892090A40CB
:108690003F3192018C4322431A7076BDED0D0020CC
:1086A000F00D0020DE0D0020F8B5060006A8062417
:1086B0000078002E4ED1033C01294BD8102B49D80D
:1086C0000334082A46D1334DAA702A00AB80324BBE
:1086D0002E80E970083292CB92C292CB92C292CB9A
:1086E00092C21B6813602B0030331870079811F08A
:1086F00055FA02000B00294829490FF019FF11F023
:1087000095FA68633000FFF7EDFD0123254F9020B7
:108710003B70FFF727FD041E01D03E701AE02800D1
:1087200000F0A0FD041EF8D1280000F0DBFE041EBE
:10873000F3D1280000F0B4FF041EEED1280000F0B1
:10874000FDFF041EE9D1280001F07AF8041E03D0D1
:1087500000233B702000F8BD2800134901F004F904
:108760000400061EF4D1280001F00AFC0400051ED6
:10877000D3D19220FFF7F6FC0400061E01D03D7015
:10878000E8E79520FFF7EEFC2000FFF73BFF041E13
:10879000E0D0C2E7F00D0020F89F010063EE5A42DE
:1087A0003EE81D40ED0D0020940D0020F7B50D00B2
:1087B000002815D14E4B1B78002B11D0C0466B46BC
:1087C0000A00D880991D4B4801F09FFC041E08D177
:1087D000012D00D182E0022D00D186E0002D02D0D3
:1087E00006242000FEBD6B46DA8801211500424BAD
:1087F0000D40187802268843284355080D408D40C7
:10880000187018780827B043284395080D40B540E4
:1088100018701878B446B619B04328431870187801
:10882000D5080D40ED00B843284315090D40B5406B
:1088300018701878FF19B84328431870187855092C
:108840000D4010376D01B84328431870187895090A
:108850000D402037AD01B843284318701878D5096A
:108860000D407B36ED0130402843550A66460D40E9
:108870008D4018705878B0432843950A0D40B54094
:1088800058705878B619B043284358705878D50AAC
:108890000D400436ED00B043284358705878150B4E
:1088A0000D4008362D01B043284358705878550BB9
:1088B0000D4010366D01B043284358705878950B21
:1088C0000D40AD01B843284358707F20D20B0A40B9
:1088D0005978D20101400A435A7082E702220748C0
:1088E0006B46991D11F044FA7BE72A000448F7E72C
:1088F000ED0D0020F00D0020E30D0020E10D002023
:10890000DF0D00201FB503000620002B10D1094BFE
:108910001B78002B0CD0012393406A469BB212189F
:10892000138003AA138004480A00039901F012FC83
:1089300005B000BDED0D0020F00D002070B5010068
:1089400088B0062000291AD10E4B1B78002B16D0B8
:108950006C461C2201A8009111F0F4F9202322009A
:108960007521094801F0B1FC002808D1074922000F
:108970000B0070CA70C332CA32C312CA12C308B025
:1089800070BDC046ED0D0020F00D0020BC0D002094
:10899000020010B50620002A08D1054B1B78002BD9
:1089A00004D002238321034801F098FC10BDC04687
:1089B000ED0D0020F00D0020030070B5062015001D
:1089C000002B07D10D4A180014786E1E1A00002CD7
:1089D00008D1063070BD0B5CB0420CD1DB031A43EA
:1089E00092B20130C3B2AB42F5D3022383210448D3
:1089F00001F074FCEEE78340F1E7C046ED0D002086
:108A0000F00D002070B5150004AA060014780620A9
:108A1000002E10D1084A1278002A0CD0620089007A
:108A20002A430A43DB001A4352B201239721034829
:108A300092B201F053FC70BDED0D0020F00D00204E
:108A400030B5062485B0002819D10E4B1B78002BB9
:108A500015D003AD288002232A0057210A4801F0CF
:108A600034FC041E0AD16A782B7812029B186A46DD
:108A70000648911D0B80022211F07AF9C0462000B1
:108A800005B030BDED0D0020F00D0020DC0D002004
:108A9000F7B505000E000620002D59D1374B1B7885
:108AA000002B55D02800FFF7ADFD2800FFF7C8FFC9
:108AB000334B04001B78DA06D70F002A49DA002E60
:108AC00008D19320FFF74EFB041E3CD1FFF79AFD1F
:108AD000040038E02800FFF795FD2A000600040096
:108AE00007212848FFF730FB2800FFF78BFD0028FF
:108AF00021D1254D2B782B782B782B782B782B7840
:108B00002B7829782B782A78C9079B071207D20F70
:108B1000C90FDB0F7B407940574000970200FFF7F9
:108B200071FF002807D1FFF76DFD002803D12B78D6
:108B30005B0700D5C046C046002E04D13000FFF7C9
:108B400061FD0400C0460020FFF75CFD2043C0B279
:108B5000FEBD0D4D2A785207D20FB242F3D05B070B
:108B6000DB0FB342EFD02020FFF7FCFA2B78040094
:108B70001B07E8D42220FFF7F5FAA9E7ED0D002046
:108B8000DC0D002000F00F40DE0D0020F0B50500E8
:108B90000F00062087B0002D68D1404B1B78002BBA
:108BA00064D02800FFF72EFD2800FFF749FF3C4B5B
:108BB00004001B78DA06D60F002A59DA9420002F19
:108BC00000D167E02800FFF71DFD2A000821354885
:108BD000FFF7BAFA2800FFF715FD041E40D1324D09
:108BE0002B782A782B782F780393287829782B787C
:108BF000920704930423D20F520032430592039A42
:108C00001A401300059A13430822174092183B4359
:108C1000104018432023049A1940DB1813400143E5
:108C200019437F2337002A7819402B782878520778
:108C300000079B07C00F7040D20FDB0F8F430090DF
:108C40003900200073407240FFF7DCFE041E07D19C
:108C5000FFF7D8FC041E03D12B78DB0701D43400C6
:108C6000C0460020FFF7CEFC2043C0B207B0F0BDE5
:108C70000D4D2A78D207D20FBA42F2D09B07DB0FF4
:108C8000BB42EED01F20FFF76DFA2B7804001B07C4
:108C9000E7D42220FFF766FA0400E2E7ED0D00209A
:108CA000DC0D002080F00F40DE0D0020F8B5051E21
:108CB00027D11020FFF756FA002802D11030FFF715
:108CC00051FAFFF749FA06000F4F0020B978FFF775
:108CD0002DFA0400012806D0FFF73EFAFA23801B84
:108CE0009B009842F1D3FFF737FAC046002C03D11E
:108CF000C04601252800F8BDC0460022034B1A706B
:108D0000F8E70625F6E7C046F00D0020ED0D00203F
:108D100010B504000620002C16D1012202210B48B8
:108D2000FFF712FA6420FFF713FA22000221074826
:108D3000FFF70AFA96204000FFF70AFA044B2000DA
:108D40009978FFF7F3F9C04610BDC04640F00F40D8
:108D5000F00D0020F8B5041E28D10122022115488B
:108D6000FFF7F2F99620C000FFF7F2F92200022186
:108D70001048FFF7E9F9FFF7EFF906000E4F002062
:108D8000B978FFF7D3F90500012806D0FFF7E4F919
:108D9000FA23801B9B009842F1D3FFF7DDF9002DE9
:108DA00006D00022054B1A702000F8BD0624FBE710
:108DB0000124F9E740F00F40F00D0020ED0D0020F8
:108DC00070B505000624002828D10122032114488B
:108DD000FFF7BAF9C820FFF7BBF92A0003211048B2
:108DE000FFF7B2F996204000FFF7B2F908212800FA
:108DF000FFF79CF90400C0460A490B480DF03CFD02
:108E00000DF000F8094B010018000DF035FD2100B0
:108E100007480DF031FD07480DF02EFD200070BD14
:108E200080F00F40EA9F01009A9D0100A79D01007C
:108E3000BE9E0100BE9D010000234118884202D160
:108E4000D843C0B27047027801309B18DBB2F5E717
:108E500003004118002010B5034A1C78013360401C
:108E6000105C8B42F9D110BD20A00100F0B597B085
:108E700003900B20150002931CAB1E7804AB3D221F
:108E80000191C018002110F05DFF019B05A85B0057
:108E90000370029B06AC1B7803214570257083701C
:108EA0006370FFF7D5FF27000125A0700237AE429F
:108EB0000CD872000132230001990398D2B2FFF757
:108EC000C5F8002800D0C04617B0F0BD029B04AA28
:108ED0005B5D01217B70D01CD370FFF7B9FF0135BA
:108EE000B870E3E7F0B500240F001600A9B00593B1
:108EF0002EAB1B783C222100049009A80393089410
:108F000010F020FF3C22210019A8189410F01AFF3D
:108F100004ABDC72039B18AD5B003200390004988F
:108F2000DBB20095FFF7ACF8A0421ED107A846704F
:108F300001267F000770374387702F780421C770A0
:108F4000FFF786FF6C78241A631E9C4104AB1F74E4
:108F50003700039BB3420AD81A00631E9C41059850
:108F600008A910F005FF6042C0B229B0F0BD102181
:108F7000AB7804AA5218935504AAD3720B239B18FA
:108F800018003900FFF764FFEB7801361B1A5A1EF0
:108F900093410235E418DCE7F0B58BB005910493FA
:108FA0004378040017000220002B31D12278A678E4
:108FB00008AC2F4903922000062207AD2B8010F049
:108FC000D7FE059B01202380A770FFF7C1F8049B03
:108FD000022B1FD0042B32D003200700012B17D106
:108FE000009023003E2231000398FFF73FFF002846
:108FF0000ED139002000FFF71FFF052328706B708A
:10900000033B009360222B0031000398FFF72EFFF3
:109010000BB0F0BD3F0AE770042723003E22310069
:1090200003980097FFF722FF0028F1D139002000B4
:10903000FFF702FF062328706B70049BE1E73B0AF1
:10904000E3703B0C237106233F0E67713E220093B1
:10905000310023000398FFF709FF0028D8D106212B
:109060002000FFF7E9FE082328706B70063BC8E775
:10907000949D01001FB50A004178030002200029D9
:1090800008D11C78997803AB1A8000903E2220000A
:10909000FFF7ECFE04B010BDF0B58FB01D0014ABAF
:1090A000059204CB04001B780E000993431E9841DF
:1090B000C0B20892FFF754F863780227002B41D121
:1090C0000BAA1380A2780D93039222780CAC238014
:1090D000F3B20693330A079308AB04929E82012DE4
:1090E00040D0BD425BD00137002D2BD102263E225D
:1090F0000399049800960DABFFF7B8FE071E21D127
:10910000FFF72AF805900BAC23003E220399049840
:109110000096FFF7E7FE05000700FFF71DF8059B27
:10912000C01A05280ED82378FF2B02D16278FF2AB7
:10913000E9D0069A9A4208D16378079A934204D1FB
:10914000002D05D038000FB0F0BDC0460127F9E76B
:10915000099B402200930399089B0498FFF7C2FEE5
:109160000700EFE70325059A08AB9A7503993E229D
:10917000049800950DABFFF779FE071EE2D1290098
:109180000DA8FFF759FE05236370033B2070009381
:109190002300602203990498FFF768FEE0E70426A5
:1091A000059A08ABDA8203993E22049800960DAB2B
:1091B000FFF75CFE071EC5D131000DA8FFF73CFE8E
:1091C0000623207063700095E2E7F0B587B01E00BB
:1091D0000CAB029204CB04001F78431E9841C0B22E
:1091E0000D000392FEF7BCFF63780220002B09D12B
:1091F000029A05ABA17820781A80002E04D0012EA7
:1092000008D0032007B0F0BD2A00039B0097FFF7AA
:1092100069FEF7E72A000097FFF728FEF2E770B52E
:109220001D1C14000E000EF091FD291C0EF0A6F876
:109230000DF0C6FD051C20000EF088FD291CF7F777
:10924000FFFE00280CD130000EF080FD291CF7F73E
:109250000BFF3400002803D1281C0EF057FD04003A
:10926000200070BD0300F0B530331E7804008FB0CD
:10927000012E00D1AFE0022E00D1C8E00220002E66
:1092800000D0FEE0C822804BD2010993B02394465F
:109290001B050A937D4B7E4D0B9309AB0C951A82EF
:1092A00004AA83CB83C26346938064231560072599
:1092B0000F270193593B03930095F2330293230048
:1092C0000A2231331A7004AB1A8820000223714934
:1092D000FFF762FE00287CD101232000029A6E492C
:1092E000FFF75AFE002874D1012320001A006B49B1
:1092F000FFF752FE00286CD10200012320006849CC
:10930000FFF74AFE002864D101233200200065499E
:10931000FFF742FE00285CD10123320020006249A1
:10932000FFF73AFE002854D101232000039A5F4939
:10933000FFF732FE00284CD101232000009A5C493F
:10934000FFF72AFE002844D10200012320005949DA
:10935000FFF722FE00283CD10123072220005649B6
:10936000FFF71AFE002834D19321012307222000A1
:109370000902FFF711FE00282BD101232A0020004B
:109380004E49FFF709FE002823D101233A002000AF
:109390004B49FFF701FE00281BD1012306222000C4
:1093A0004849FFF7F9FD002813D1A388102B66D890
:1093B00049D102000E3B20004349FFF7EDFD002894
:1093C00007D101232000019A4049FFF7E5FD00285D
:1093D00057D00FB0F0BDA0203D4B3E4D09933E4B02
:1093E0000C950A93294BC0000B9304AA09AB188271
:1093F000C2CBC2C2052315609080019302332A2795
:10940000009300233D0003930226ED3356E7A0228C
:10941000D20094462E4B1E4D0993304B0C950A9367
:109420002F4B0B9309AB1A8204AA83CB83C26346EA
:1094300093800523156007250193063300930F27BA
:109440000395E2333AE70320072BC2D91022DBB29F
:10945000591ED31A00221000C9B2DBB20600012542
:10946000002E09D15219013092B28342F6DC8A40B3
:10947000D243022392B29EE76D00013EF0E7032043
:10948000A7E7C046A5E7C0461004FD01070007078F
:10949000070F060034920000369200003792000059
:1094A00038920000FA920000FB920000FC9200004B
:1094B000FD920000FE920000FF9200000193000068
:1094C0000293000003930000049300000793000040
:1094D0001004ED012A2A0600000202000002020721
:1094E0000B00070730B5050089B00D220021684642
:1094F00010F028FC2B0030331B78012B00D19BE0AF
:10950000022B00D19EE00220002B00D091E0504BB6
:109510000493504B0593504B0693752304A90B738A
:109520000D22684610F024FC6B4628001A884B492F
:109530000223FFF731FD002800D07BE06B469B78CB
:1095400004AC208023702800012322884449FFF7BF
:1095500023FD00286ED16B46DB7820802370280025
:10956000012322883F49FFF717FD002862D16B468F
:109570001B79208023702800012322883A49FFF7B5
:109580000BFD002856D16B465B79208023702800A4
:10959000012322883549FFF7FFFC00284AD16B469A
:1095A0009B79208023702800012322883049FFF70F
:1095B000F3FC00283ED16B46DB7920802370280025
:1095C000012322882B49FFF7E7FC002832D16B46A4
:1095D0001B7A208023702800012322882649FFF768
:1095E000DBFC002826D16B465B7A208023702800A4
:1095F000012322882149FFF7CFFC00281AD16B46AE
:109600009B7A208023702800012322881C49FFF7C1
:10961000C3FC00280ED10B2102226944200010F067
:10962000A7FB0223280022881649FFF7B5FC002873
:1096300000D1C04609B030BD134B0493134B0593C2
:10964000134B69E7134B0493134B0593134B63E7D9
:109650000000FCF480989000E4A080305F9200004D
:109660006192000062920000639200006592000027
:109670006692000067920000699200006A92000002
:109680006B920000739200000000FCF7809891003C
:10969000E4A280300000BCF400989000E4A0003008
:1096A000030070B530331B780400012B07D0022B68
:1096B00002D00220002B33D101252D2201E000250C
:1096C0000D22012320001749FFF766FC002828D14E
:1096D00001232A0020001449FFF75EFC002820D156
:1096E0000200022320001149FFF756FC002818D180
:1096F0000200022320000E49FFF74EFC002810D183
:1097000001230A2220000B49FFF746FC002808D15C
:109710000123192220000849FFF73EFC002800D150
:10972000C04670BD08930000099300000A93000032
:109730000C9300000E9300000F930000030013B57C
:1097400030331B780400012B0CD0022B58D00220A0
:10975000002B53D12E4B01AA13806A46138001239C
:10976000012105E02B4A01A90A8069460A800021EF
:10977000294AC9020A431B031A436B4627491B881F
:1097800020000B401A436B4625491A80022392B2EF
:10979000FFF702FC002832D1FA22022320002149DF
:1097A0005200FFF7F9FB002829D1FA2202232000FA
:1097B0001D495200FFF7F0FB002820D101230522AC
:1097C00020001A49FFF7E8FB002818D101231022D6
:1097D00020001749FFF7E0FB002810D104232000E8
:1097E000626B1449FFF7D8FB002808D1020001235F
:1097F00020001149FFF7D0FB002800D1C04616BD5C
:109800000E4B01AA13806A4613800023A8E7C046C6
:1098100090DAFFFF90D2FFFF90C2FFFF6F2500009C
:109820006D9200001093000012930000149300004A
:1098300043930000A89100004492000090CAFFFFEB
:109840000300F7B530331D780400012D09D0022D37
:1098500007D00220002D68D13C234626344F0193C7
:1098600003E05026CE25334F019601230822200025
:109870003149FFF791FB002858D101232A0020002D
:109880002E49FFF789FB002850D101232000019ABF
:109890002B49FFF781FB002848D10123320020002B
:1098A0002849FFF779FB002840D10123142220002A
:1098B0002549FFF771FB002838D101230822200039
:1098C0002249FFF769FB002830D102233A0020002B
:1098D0001F49FFF761FB002828D10123282220001F
:1098E0001C49FFF759FB002820D101231422200036
:1098F0001949FFF751FB002818D102233A00200034
:109900001649FFF749FB002810D101232822200027
:109910001349FFF741FB002808D10123142220003E
:109920001049FFF739FB002800D1C046FEBDC046F4
:109930003C0F0000881300003593000036930000B0
:109940003793000038930000399300003A930000E9
:109950003B9300003D9300003E9300003F930000C6
:109960004193000042930000F0B54B1DDB7F0500E2
:109970000C0091B0002B1DD1DB4B3C220B80DB4B4C
:109980004B80DB4B8B80DB4BCB8023230B815F3306
:109990008B8132334B81D84B0B6141238B82CA823E
:1099A0000A320A834B83533A4C3B8A83CB830A8423
:1099B0004B84C046208850221421D04B80B2FFF740
:1099C0002EFC67880200BBB20093A388FF279BB2DE
:1099D0000193E38806009BB20293238928009BB27F
:1099E00003936389C6499BB20493A3893A409BB20F
:1099F0000593236906932B0031331B780793A38AC1
:109A00001BB20893E38A1BB20993238B1BB20A9300
:109A1000638B1BB20B93A38B1BB20C93E38B1BB218
:109A20000D93238C1BB20E93638C1BB20F930123F7
:109A3000FFF7B2FA041E00D074E204232800B14AF2
:109A4000B149FFF7A9FA041E00D06BE2502214219D
:109A5000AA4B0098FFF7E3FB821B01232800AB49C8
:109A6000D2B2FFF799FA041E00D05BE26E221421F5
:109A7000A24B0198FFF7D3FB020006000123280048
:109A8000A3493A40FFF788FA041E00D04AE20423B3
:109A900028009C4A9F49FFF77FFA041E00D041E24C
:109AA0006E221421954B0298FFF7B9FB321A01235D
:109AB00028009949D2B2FFF76FFA041E00D031E2B4
:109AC000039810F019F8954A954B0FF075F90FF0BF
:109AD000D7FF80233E220221DB05FFF7A0FB020017
:109AE000012328008F493A40FFF756FA041E00D0A0
:109AF00018E20423592228008B49FFF74DFA041E6F
:109B000000D00FE20200022328008849FFF744FA40
:109B1000041E00D006E204980FF0EEFF7F4A804B4F
:109B20000FF04AF90FF0ACFF802364220221DB051D
:109B3000FFF775FB0200012328007D493A40FFF73B
:109B40002BFA041E00D0EDE10423012228007949FC
:109B5000FFF722FA041E00D0E4E105980FF0CCFFD5
:109B60006E4A6F4B0FF028F90FF08AFF80236422B2
:109B70000221DB05FFF753FB0123C2B26E49280027
:109B8000FFF70AFA041E00D0CCE104237722280054
:109B90006A49FFF701FA041E00D0C3E107980EF0EE
:109BA00021F92200031C66490698FFF738FB0223BF
:109BB00002B264492800FFF7EFF9041E00D0B1E1BA
:109BC000012328001A006049FFF7E6F9041E00D0BF
:109BD000A8E10123032228005C49FFF7DDF9041EF8
:109BE00000D09FE1012328001A005949FFF7D4F95A
:109BF000041E00D096E1012328001A005549FFF702
:109C0000CBF9041E00D08DE1020002232800524946
:109C1000FFF7C2F9041E00D084E1FE232821782238
:109C200008989B054942FFF7FAFA012342B24B49D3
:109C30002800FFF7B1F9041E00D073E101230422CC
:109C400028004749FFF7A8F9041E00D06AE1FE2367
:109C50002821782209989B054942FFF7E0FA012361
:109C600042B240492800FFF797F9041E00D059E19D
:109C7000FE23282178220A989B054942FFF7CFFA54
:109C8000012342B238492800FFF786F9041E00D0AC
:109C900048E10123042228003449FFF77DF9041E1E
:109CA00000D03FE1FE23282178220B989B054942F2
:109CB000FFF7B5FA012342B22D492800FFF76CF9EE
:109CC000041E00D02EE101236E2228002949FFF74F
:109CD00063F9041E00D025E1012303222800264950
:109CE000FFF75AF9041E49E08C0A0000D70A000069
:109CF00017110000CC100000B817FEFF66664A423C
:109D00007592000055070000769200007B920000DB
:109D100078920000799200007C9200009A999999BB
:109D20009999C93F809200008192000088920000BA
:109D300082920000839200008492000085920000CD
:109D40000080FFFF8A9200008C9200008692000043
:109D500087920000949200008D9200009A92000079
:109D60009B9200009C9200009D9200009E92000039
:109D70009F920000A0920000A1920000002C00D051
:109D8000D0E00123692228006849FFF705F9041E85
:109D900000D0C7E00123552228006549FFF7FCF8F1
:109DA000041E00D0BEE00123022228006149FFF713
:109DB000F3F8041E00D0B5E00123502228005E49CC
:109DC000FFF7EAF8041E00D0ACE0FE232821782239
:109DD0000C989B054942FFF722FA012342B25749EA
:109DE0002800FFF7D9F8041E00D09BE001230422CD
:109DF00028005349FFF7D0F8041E00D092E0FE235C
:109E0000282178220D989B054942FFF708FA012383
:109E100042B24C492800FFF7BFF8041E00D081E091
:109E2000FE23282178220E989B054942FFF7F7F977
:109E3000012342B244492800FFF7AEF8041E71D155
:109E40000123042228004149FFF7A6F8041E69D126
:109E5000FE23282178220F989B054942FFF7DFF95E
:109E6000012342B23A492800FFF796F8041E59D15F
:109E700014220123280037495242FFF78DF8041EAF
:109E800050D10123022228003349FFF785F8041E30
:109E900048D10F220123280030495242FFF77CF8B5
:109EA000041E3FD10123022228002D49FFF774F838
:109EB000041E37D102233C2228002A49FFF76CF800
:109EC000041E2FD10200012328002749FFF764F860
:109ED000041E27D10223012228002449FFF75CF841
:109EE000041E1FD10223012228002149FFF754F844
:109EF000041E17D10223FA2228001E49FFF74CF84E
:109F0000041E0FD1E122022328001B49D200FFF7D3
:109F100043F8041E06D1022328001A001749FFF750
:109F20003BF80400200011B0F0BDC046A292000032
:109F3000A3920000A4920000A5920000A692000047
:109F4000A7920000A8920000A9920000AA92000027
:109F5000AB920000AC920000AD920000AE92000007
:109F6000AF920000B2920000B4920000B5920000DF
:109F7000B6920000BA920000BC920000BE920000AF
:109F8000030010B52C331B7804000220002B4ED1A7
:109F90001E23E25E264903002000FEF7FDFF002895
:109FA00045D11C23E25E200002232249FEF7F4FF84
:109FB00000283CD11A23E25E200002231E49FEF74E
:109FC000EBFF002833D11823E25E200002231B4957
:109FD000FEF7E2FF00282AD11623E25E20000223CA
:109FE0001749FEF7D9FF002821D12623E25E200081
:109FF00002231449FEF7D0FF002818D12423E25E83
:10A00000200002231049FEF7C7FF00280FD12223AA
:10A01000E25E200002230D49FEF7BEFF002806D1B4
:10A020002023E25E200002230949FEF7B5FF10BDA0
:10A03000EA910000EC910000EE910000F091000028
:10A04000F2910000F4910000F6910000F8910000F8
:10A05000FA9100007FB50F250E00110000226D441B
:10A060002A70012B1DD0022B2CD00624934203D141
:10A07000914204D001290FD0200004B070BD01230B
:10A080000A0001930B0002210095FFF79EF8041EC1
:10A09000F2D12B783370EFE701911A00032100957C
:10A0A000F3E7002903D0012907D00624E4E70A00DA
:10A0B000019300950B000421E7E7019113000521AE
:10A0C0000095E2E7002906D00129EED101911300A5
:10A0D00007210095D9E701230A00019300950B00A1
:10A0E0000621D2E70022022330B585B003AD2A80D5
:10A0F0000C000193122113000095FFF766F8002869
:10A1000001D12B88238005B030BD7FB5130000221C
:10A1100003AD0E002A80012B11D0022B15D0022492
:10A12000934209D11A00622101940095FFF74DF87E
:10A13000041E01D12B883380200004B070BD02239F
:10A140006421019300951300F0E701936621130049
:10A150000095EBE730B587B003AD2980002105AB52
:10A160001980023104008A430620002A0AD12A8875
:10A170001030684402800191009320000123603177
:10A18000FFF723F807B030BD30B50F2500220123BB
:10A1900085B06D442A700C0001937F211300009557
:10A1A000FFF713F8002801D12B78237005B030BDDC
:10A1B00030B502231500002285B003AC2280019344
:10A1C00000941300FFF701F8002804D16278237887
:10A1D00012029B182B8005B030BD30B5022315004C
:10A1E000002285B003AC2280019300941300FEF797
:10A1F000ECFF002804D16278237812029B182B8090
:10A2000005B030BDF0B500242C4D87B002AB0391F2
:10A21000070016002100202228009C810FF092FDEB
:10A22000039B162B18D03A2B32D00620142B2DD19D
:10A230002023220001937521230038000095FEF7AA
:10A240002BFF002822D16A7D2B7D12021A433B008E
:10A2500031331B7812B211E02023220001937521C3
:10A26000230038000095FEF717FF00280ED1EB7D84
:10A27000AA7D1B02313713433A781BB25343336034
:10A280003133622B01D800233360002007B0F0BDCA
:10A290000223019305AB00932200230038000399A9
:10A2A000FEF793FF0028F1D102AB5B7B02AA127B81
:10A2B0001B02D21831373B7812B2DFE7280E00209C
:10A2C00010B589B2FEF7D6FE10BD07B50193002385
:10A2D000009289B21A00FEF7DFFE0EBD30B50F24E2
:10A2E000002585B06C442570012B04D0022B02D0D0
:10A2F000062005B030BD89B201930094FEF7CCFE74
:10A30000F7E77047704700000022014B1A70704752
:10A3100046FEFF1F70470000034B1878012802D14A
:10A320000248026119717047B80B0020980B002099
:10A33000034B59619A610122024B5A717047C04622
:10A34000980B0020B80B002010B50BF05BFD01F05E
:10A350001FFE0122014B1A7010BDC046900B002059
:10A36000C02310B51B02984201D1FDF743FE10BD7A
:10A3700070B50500233DEDB204000E00052D16D882
:10A3800001F072FD00280DD00BF03CFD2100020011
:10A39000280001F091FD232C03D101207178FDF7F5
:10A3A00037FE70BD0BF02EFD064B1860F3E7542806
:10A3B000F7D10BF027FD0122034B1860034B1A70F5
:10A3C000EFE7C0464C0E00205C0E0020590E002026
:10A3D00001280AD100220B4B1A700B4B19789142BD
:10A3E00002D00A4908701A7070470028FCD1012277
:10A3F000044B1A70054B19780029F5D01870024BE0
:10A40000F1E7C046B80B0020500F0020900B002051
:10A41000064810B50478012C06D1541E012C02D830
:10A42000034CE3602181427010BDC046B80B002090
:10A43000980B0020094830B50378012B07D1084B51
:10A44000084C197000238B4202DB0123C37030BD1E
:10A45000D55CE55401335BB2F5E7C046B80B00208C
:10A46000500E0020980B002010B5692801D0542808
:10A470000AD10323094C802907D123700BF0C2FCB9
:10A480002178C9B201F0F4FB10BD0A001A4019424C
:10A4900001D02170F2E72270F0E7C04646FEFF1FB0
:10A4A00037B500256B46DD7107330400FDF7F0FC7E
:10A4B000C0231B029C4209D16B46DB79AB4205D01D
:10A4C0002B002A002321200001F09CFA37BD13B590
:10A4D0000C0011001A00232C07D1232905D16B464B
:10A4E000002407331C70FDF7D3FC13BD30B50C00FE
:10A4F00087B0232A4DD1DF231B0298421DD022D8DA
:10A50000D7231B02984218D00FD8D3231B0298429E
:10A5100036D0D6231B0298420FD0C1231B0298428B
:10A5200000D1C0E00023012209E0D8231B02984299
:10A5300003D00133FF339842F4D100231A002100E5
:10A5400001F060FA25E05B4B984200D17AE012D826
:10A55000594B984200D1A0E0584B984244D0EF2389
:10A560001B029842DED100231A0001F04BFA544B33
:10A5700001221A700DE0534B98420CD0524BDAE78F
:10A5800000231A0001F03EFA0122504BDC61504BCF
:10A590005A7107B030BD00231A0001F033FA0822C7
:10A5A0004C4903A80FF0E4FB4B4C0822200003A900
:10A5B0000FF0DEFB202301222375DF336375E37583
:10A5C0000023A2753F326277303A22762000043AA7
:10A5D0002377A377E3776276A376E37601F0A6FC90
:10A5E0003E4B18701B78D4E70022354B1A701300CD
:10A5F00001F008FA0C223A4903A80FF0B9FB394CD4
:10A6000003A90C2220000FF0B3FB374B052237497A
:10A6100001A800930FF0ACFB200014223449153040
:10A620000FF0A6FB20006946042222300FF0A0FBA9
:10A630002000052201A927300FF09AFB200001F02D
:10A6400051FCCDE700231A0001F0DCF91223294860
:10A65000192243701833837005330B24C370193BE0
:10A66000592503710A3B03214371002352420470B0
:10A67000827184732032363C6D42C271C4730132E0
:10A680002C34017242728372C37203734573047473
:10A690004174837401F03AFCA2E700231A0001F030
:10A6A000B1F9154B64E700231A0001F0ABF9134B25
:10A6B0005EE7C046DAFE000097F10000C5FD00002D
:10A6C000900B00200FFF0000FCFF0000980B002003
:10A6D000B80B002020A10100300F0020620E0020E6
:10A6E00028A10100030F00204261740034A1010081
:10A6F0007C0B0020E10E0020610E0020600E002087
:10A7000010B501F0E3FB10BD10B503F0E5FC002827
:10A7100008D10F22054B1A705A709A70DA701A71AC
:10A720005A7110BD01204042FBE7C046B80B002023
:10A7300010B503F0D9FC431E9841404210BD000003
:10A7400070B50B4B0B4D1B78002B0DD10A4B1B78B2
:10A75000002B09D1094B1C78FDF754FCE4B2010031
:10A76000200001F097FB2870287840B270BDC046E9
:10A77000FC180020620E0020FD180020900B002025
:10A7800010B5024800F02CFF10BDC04654FEFF1F5C
:10A790000823012210B5054904004008144000D0E8
:10A7A0004840013B002BF7D110BDC0462083B8EDD7
:10A7B000F0B585B00BF026FB00F022FF051E32D16C
:10A7C0002E4CA378D8B2052B0DD8F6F751FA032FEB
:10A7D0000C0C33360021FF22080001F0D7FA0F23BA
:10A7E000A370002842D1E378022B29D06379022B91
:10A7F00019D101250026FF27214B6D420193280026
:10A80000019B38409B5D2D0A5840FFF7C1FF013680
:10A810004540602EF3D10022E943100001F0E4FA34
:10A820000F2305006371280005B0F0BDFF22012150
:10A830000020D2E7FF220421FAE7FF220521F7E7F3
:10A8400000260322310003A802960FF07BFA3100A4
:10A850000C4B1A8991420BDB1A890020D2B202A953
:10A8600001F0AEFA0F23E3700028BFD00500DAE74D
:10A870005A5C02A84254013149B2EAE7B80B002001
:10A88000510F0020980B002070B50C00CF21090655
:10A89000051CF6F7F3FB00280BD09E21281CC905E8
:10A8A000F6F7D8FB002804D0281C0DF02FFA206002
:10A8B00070BDCF21281C0906F6F7C2FB431E984144
:10A8C000014BC018F3E7C046FFFFFF7FF0B5924B86
:10A8D00089B002931B78DAB20392012B66D1042768
:10A8E0008E4C022220008E490FF042FA02228D493E
:10A8F0008D480FF03DFA3A008C498D480FF038FA38
:10A900008C4D022229008C480FF032FA02228B492A
:10A910008B480FF02DFA02228A498B480FF028FA53
:10A9200000230693894B06A9986FFFF7ADFF06A990
:10A930003A0087480FF01CFA2A6B0E26101C019271
:10A940000CF090FA04AA04A9D080063102228148B2
:10A950000FF00EFA2A0034321378019826756375C9
:10A960000FF01CF97C4B00220EF026FA0CF008F9CF
:10A970000CF090FAE07568880A216438F6F70CFA52
:10A98000464304AA04A9D6800631022273480FF078
:10A99000EFF9C0462000A77501F072F9704B1870EE
:10A9A000039803F027FB0023029A13706D4D6C4C43
:10A9B0002B78012B00D0ABE0FDF742FB0200012811
:10A9C00000D0A5E0614B06A8996B069119009E3155
:10A9D0000978017119009F31097841711900B83166
:10A9E000097800294BD11900B7310978002946D1DF
:10A9F0001900AA310978002941D11900B431097828
:10AA000000293CD11900B3310978002937D1190048
:10AA1000A7310978002932D11900B031097800290D
:10AA20002DD11900B6310978002928D11A00AB328E
:10AA300011780122002922D11900A23109780029B8
:10AA40001DD11900A4310978002918D11900B1319C
:10AA50000978002913D11900AE31097800290ED1E7
:10AA60001900A3310978002909D11900AF310978FB
:10AA7000002904D11A00BA321278511E8A411900F5
:10AA8000B8310E78D2B20121002E3AD11E00B7366D
:10AA90003678002E35D11E00AA363678002E30D1F9
:10AAA0001E00B2363678002E2BD11E00A83636781E
:10AAB000002E26D11E00B0363678002E21D11E0081
:10AAC000AB363678002E1CD11E00A2363678002E0A
:10AAD00017D11E00A5363678002E12D11E00B136D1
:10AAE0003678002E0DD11900AC310E780121002EE0
:10AAF00007D11E00A3363678002E02D1AD33197867
:10AB0000C9B28171C27101F035F9002320702B7038
:10AB1000207840B209B0F0BD610E0020630E002025
:10AB2000360B00203C0B0020650E00204C0B002053
:10AB3000670E0020340B00206B0E00205A0B002003
:10AB40006D0E00205E0B00206F0E0020D80B002041
:10AB5000710E0020750E00200000E03F7B0E0020EB
:10AB6000620E0020600E0020F0B5B54B8FB0009350
:10AB70001B78012B00D074E00BF044F9B14E042295
:10AB8000039003A930000FF0F3F8AF4D04222B6FB0
:10AB900004A9AE4804930FF0EBF8A86F696F0CF0AE
:10ABA000EDFBAB490CF0D0FD0CF078F8A849041C83
:10ABB000F6F75AFA002807D10021201CF6F74AFAC6
:10ABC000002802D0002400E0A14CFF272100220A27
:10ABD000230C3A40394012023B400A431B04240E26
:10ABE000134324061C439B49201CF6F73DFA00281A
:10ABF00000D0974C230A347273723000230C240E59
:10AC0000B372F47201F07AF8934C20702378002B21
:10AC10000AD000232478009A64B2137020008E4B6F
:10AC20001A781C700FB0F0BD012003F0E3F90BF0AF
:10AC3000E9F82A000590A032127805AB1A71A13507
:10AC40002A7818005A71854ADF7112789A7101F0DA
:10AC500085F8207023785BB22370012003F0CAF9D5
:10AC6000D7E77F4B00931B78DFB2012B00D09CE02D
:10AC70000BF0C8F87B4B05901B88734D05AEB38075
:10AC80002B005C331B883000F3802B005E331B8865
:10AC900033812B0060331B88738101F03BF86E4CCD
:10ACA000207023785BB223702378002BB1D1380059
:10ACB00003F0A0F90BF0A6F80590E86E0DF092F8FD
:10ACC00069490CF05BFB2B006833071C188880B2C5
:10ACD0000DF03CF8011C381C0CF050FB5C490CF0EA
:10ACE00033FD5B49071CF6F7BFF964230190002888
:10ACF0000AD10021381CF6F7A3F9019B002803D1E3
:10AD0000381C0CF0AFF8C3B233712B00112268333A
:10AD10001B8802A9521813701B0A5370696E534A9C
:10AD20001300914205DC00236A6E9A4201DB6B6ED0
:10AD30009BB2132202A9521813701B0A53703000E1
:10AD400000F0F4FF207023785BB223702378002B8F
:10AD500000D05EE7012003F04DF90BF053F82B0013
:10AD60008C331B68059073602B0090331B68B360B5
:10AD70002B000833D86F0CF075F82B009433F0607B
:10AD800018680CF06FF89835306128680CF06AF894
:10AD90007061300000F0D6FF207023785BB2237022
:10ADA0002378002B00D034E757E7314B01931B7811
:10ADB000DDB2012B00D0D9E00BF024F8FF232D4C9D
:10ADC00002AA938004900422200004A90EF0D0FF70
:10ADD0001D4F0422BB6B04A9274804930EF0C8FF43
:10ADE000257200242022210006A805940EF0AAFF57
:10ADF00005AE6300FA5A0134F2520E2CF9D1002448
:10AE00001C4B1E4D00932819022203A902340EF098
:10AE1000AFFF242CF7D12200310028000EF0A8FF4C
:10AE2000009800F039FF0C4D28702B785CB2002B95
:10AE300026D0C0462C780023019A64B2EDE6C046C5
:10AE4000910B00207D0E0020D80B0020810E0020E9
:10AE50000000C8420000BE42620E0020B20F002077
:10AE6000920B0020320C002000006145941100007C
:10AE7000930B0020A80E0020AC0E0020B10E002085
:10AE8000012003F0B7F80AF0BDFFC84E0490042279
:10AE9000300004A90EF06CFF01233371230005ACD0
:10AEA0001A0010325200BA1891885A000133A15288
:10AEB000072BF5D1F8330E22E38123822100BC4811
:10AEC0000EF056FF300000F0F3FE28702B785AB2D7
:10AED0000092002BAED1012003F08CF80AF092FF13
:10AEE0000422049004A930000EF042FF1220009BBF
:10AEF0000C221900337102ABC0180EF023FFBB8E79
:10AF000023807B8E6380AB4B1A880A235343A38034
:10AF100003230C2002A95A0009180133F330885288
:10AF2000092BF6D1F88E0A2100B2F6F71BF8F88E3D
:10AF300009B200B2052914DC0A21F5F72DFF02AB96
:10AF400040B2D874122205A999480EF011FF974813
:10AF500000F0AEFE984C2070012003F04BF82478EE
:10AF600069E70A21F5F718FF0130E8E7934B002461
:10AF70001B78DFB2012B00D050E60AF043FF904E61
:10AF80000422049004A930000EF0F2FE8D4D05A9B4
:10AF9000EB6BE86F1A0A337172711A0C1B0EF371A6
:10AFA000B2710594FFF770FC042205A986480EF0E3
:10AFB000DFFE300000F096FE7F4C2070380003F07A
:10AFC00019F823785AB2002B05D0247800227B4B45
:10AFD00064B21A7022E62B007C4E9F33327003223B
:10AFE00019787378114093430B4373702B000C2036
:10AFF0009E33197873781140890083430B43737033
:10B000002B00B6331B789C35012B00D0C8E02B7881
:10B01000013B5A425341023303227178694D134078
:10B020002D3291431B010B432900012440277370EB
:10B03000674BAD311B780878034370782340B843E1
:10B040009B01034373702B00AE331F782B007F20CE
:10B05000AF339C461B781F437378FF0103403B438B
:10B0600073702B00A7331F78B3782740A3433B436B
:10B07000B3702B00A4331F78B3782740A7407D38E6
:10B0800083433B43B3702B00B3331F78B37827401F
:10B090008740023083433B43B3702B00B2331F78A9
:10B0A000B37804302740FF0083433B43B3702B0049
:10B0B000AB331F78B378083027403F0183433B43CD
:10B0C000B3702B00B0331F78B378103027407F0166
:10B0D00083433B43B3702B00B1331F78B3782030E8
:10B0E0002740BF0183433B43B3702B00B7331F7826
:10B0F000B3783F30FF0103403B43B3700978F378E6
:10B100002140A3430B43F370634619780227214083
:10B11000A140F3783F38BB430B43F3702B00A833B7
:10B120001978F3782140B940FF19BB430B43F37002
:10B130002B00A5331978F37804372140C900BB43AD
:10B140000B43F3702B00A2331978F3780901934372
:10B150000A401343F3702B00BA331A7880233F213F
:10B16000920102405B421343F2781A480A401343AB
:10B1700031000422F3700EF0FBFD174F3100042262
:10B1800038000EF0F5FD380000F0A0FD0A4E3070DA
:10B19000200002F02FFF3378002B1FD0347815E702
:10B1A0002B78013B59424B41134035E7890E002073
:10B1B0008E0E0020EC0A0020620E0020940B00206E
:10B1C000D50E0020D80B0020DD0E0020550E0020EB
:10B1D000840C0020A40E0020480E00202B007A4989
:10B1E00040330C701A784B782240A34313434B70C2
:10B1F0002B00022041331A784B78224052008343BF
:10B2000013434B702B0042331A784B782240824014
:10B210000018834313434B702B0043331A784B7849
:10B2200004302240D200834313434B702B0044333D
:10B230001A784B78083022401201834313434B7035
:10B240002B0045331A784B7810302240520183434B
:10B2500013434B702B0046331A784B782030224032
:10B260009201834313434B702B0047331A784B787A
:10B270003F30D201034013434B702B0048331A7800
:10B280008B782240A34313438B702B0049331A78E9
:10B290008B787D3822405200834313438B702B0000
:10B2A0004A331A788B78224082400230834313431A
:10B2B0008B702B004B331A788B7804302240D200ED
:10B2C000834313438B702B004C331A788B780830F0
:10B2D00022401201834313438B702B004D331A78A5
:10B2E0008B78103022405201834313438B702B0024
:10B2F0004E331A788B7820302240920183431343D7
:10B300008B702B004F331A788B783F30D20103407B
:10B3100013438B702B0050331A78CB782240A34311
:10B320001343CB702B0051331A78CB787D382240F1
:10B33000520083431343CB702B0052331A78CB78DF
:10B3400022408240023083431343CB702B0053339F
:10B350001A78CB7804302240D20083431343CB7059
:10B360002B0054331A78CB780830224012018343E3
:10B370001343CB702B0055331A78CB781030224012
:10B38000520183431343CB702B0056331A78CB788A
:10B3900020302240920183431343CB7057352A78E3
:10B3A0003F30DBB2D2010340134338000422CB709C
:10B3B0000EF0DEFC380000F089FC3070200002F056
:10B3C00019FE3378EAE6C046510E002010B5064B50
:10B3D000802806D101221A700AF014FD034B186070
:10B3E00010BD00221A70FBE7B30F002038190020AF
:10B3F00010B5002806D0054B1960054B186000F009
:10B400008DF810BD01204042FBE7C04680100020AF
:10B4100084100020F0B59BB003AD280000F09CF82C
:10B42000011E1ED12B7AAF79AE7A039C0193224B79
:10B43000224DE218224B1A4215D12B0094331C6086
:10B440002B00A2331F702B00A3331E70019BA0356D
:10B450002B800F2302A95B180822190019480EF04F
:10B4600087FC1BB0F0BD38220BA80EF06BFC5F23ED
:10B4700002AA9B181F705E239B181E701E239B1828
:10B48000019A02A9DA870F235B181900082209A87C
:10B4900008940EF06DFCE82301211B029C4204D0AD
:10B4A000094BE41863425C4161002B00CC33280057
:10B4B0001B6808AA9847D4E70015FFFFB80F0020C3
:10B4C000FFFEFFFF501000200016FFFFF0B5124EE8
:10B4D000030034787578B778052085B0651BBD42C8
:10B4E00018D00093FF23002501936B4601A8039514
:10B4F00002951A730EF03CFC706823011022694615
:10B50000C01801340EF034FC3900E0B2F5F740FC0D
:10B510002800317005B0F0BDA0FEFF1F10B5FFF789
:10B52000F3F810BD010010B503684A7A180AC0B2DA
:10B530008C7A48719206EF2809D888791443184309
:10B54000000220430A7A0B31FFF7F2F810BD18020F
:10B5500020431043F6E700007FB51B4E04007578CA
:10B5600033780620AB422CD071682B01C918102209
:10B57000013568460EF0FCFBB178E8B2F5F708FC3F
:10B580006B46200071701D7B01A92A000B300EF064
:10B59000EFFB009B2572DA00520F6272A3721A0C45
:10B5A0001B0A9903D2B2890B62712160A371EF2A41
:10B5B00002D8064A13402360002023689B039B0F98
:10B5C000237104B070BDC046A0FEFF1F00FF030042
:10B5D00010B5FFF70DFF10BD10B5FFF71BFF10BD35
:10B5E00010B5040000F00EFC034B002103485C6022
:10B5F000FFF7EEFF10BDC04688120020ADB8000076
:10B6000010B50400FFF7E8FF200000F007FCFF285A
:10B6100005D0044B23385B68C0B21B6C98470020F0
:10B6200010BDC04688120020D82330B50400006841
:10B6300085B01B02984200D1ADE02ED8D3231B0267
:10B64000984200D1F1E01BD8C123944D1B029842CF
:10B6500000D112E10133FF33984200D114E1C0233D
:10B660001B02984200D108E16B685D69002D54D03F
:10B670002300A21D46331B78D28F211DA8474CE022
:10B68000D6231B02984200D1B4E00133FF33984225
:10B6900000D195E0814B5B68E7E7814B984200D190
:10B6A000D3E01CD8DF231B02984248D0EF231B02B3
:10B6B000984223D0D9231B02984252D0774B010ADB
:10B6C000C9B25B68EF29D0D99D69002D25D0A31D93
:10B6D000221D46342478DB8F0094A8471DE0714B6F
:10B6E000984200D1C5E0704B9842E7D16B4B211DC9
:10B6F0005B6846342078DB6B98470EE023004733C5
:10B700001B782179232B08D10F25A379A0681A096A
:10B710002B40102903D0182906D005B030BD46347F
:10B72000217800F017FCF8E74634217800F01CFC83
:10B730000028F2D1594B5B681B699847EDE723005D
:10B7400047331B78232BE8D1237901201F2B03D00B
:10B750003F3B5A1E93415800504B5B68DB6998474A
:10B76000DBE7230047331B78232BD6D11F20238907
:10B770006179E2881B0413430A0781432079474D0E
:10B780000143200064896D684630007800942C6A7B
:10B79000520FA047C1E7230047331B78232BBCD1AE
:10B7A00062792079D1004D331940A37946340143A1
:10B7B00020783A4C12076468520F646AA047ACE7DD
:10B7C000230047331B78232BA7D10021257903229F
:10B7D00003A802910EF0B6FA611D2A0002A80EF02D
:10B7E000C7FA29002D4B46345B6820789B6A02AA71
:10B7F000984792E7230047331B78232B00D08CE730
:10B800002179FF228B1E012B09D8A27963791202BC
:10B810001A43E3791B041343227A12061A431F4B7F
:10B8200046345B682078DB6AE2E7230047331B7805
:10B83000232B00D071E7230046331878174BA268FA
:10B840005B6861681B6B984767E7144B5B689B6894
:10B85000002B00D161E7220021794632107880293F
:10B8600001D1984759E761794A1E022AF9D9002186
:10B87000F7E72079FFF7AAFD38E76B68221D463409
:10B8800021785B6C984748E72200231D46342178D5
:10B890006C6847321278A46CA0473EE788120020FB
:10B8A0008CFF00008DFF0000FCFF000073B5080056
:10B8B0001400062929D8F5F7DBF9685804792828F7
:10B8C00079005079937900021B04184313791843C7
:10B8D0001300463319783F4B98421DD032D8D823F5
:10B8E0001B02984218D020D8D6231B02984213D0AE
:10B8F00019D8C1231B0298420ED0D3231B029842B1
:10B900000AD00023012200F07DF873BD324BC2182B
:10B91000324BD340DB07F4D5314B47345B68227898
:10B920005B6B9847F1E7D723E8E7EF231B029842C8
:10B93000F2D005D8D9231B029842EDD0DF23DDE7F2
:10B94000284BDCE7284B98420DD8284B9842DDD88D
:10B95000274B9842E0D004D8264B9842DCD0264BA7
:10B96000CDE7264BCBE7264BC9E7137A232BCCD167
:10B97000A07AE37A00021B041843637A52791843D1
:10B98000174B21795B689B6BCBE71068144B010A5E
:10B99000C9B25B68EF2911D85D69002D0AD0230078
:10B9A000063246331B78D28F211DA8472000FFF7AF
:10B9B0003BFEAAE72000FFF737FEF7E79D69002D61
:10B9C000F8D0260046363678931DDB8F0432009679
:10B9D000A847EBE7F5FB00005000FFFF21008000C7
:10B9E0008812002097F10000C7FF0000AFFF0000A1
:10B9F0000FFF0000C5FD0000DAFE00007EFF000022
:10BA0000FCFF0000F0B51E00E82389B01B02039381
:10BA10000E4B050004930E4B1120059300231700D5
:10BA2000079302AB02220191C018FF210EF08AF9A0
:10BA300003AC019B258220002D0CE7722673E37373
:10BA4000A574FFF76FFD09B0F0BDC04600E8FF0028
:10BA500008002300F0B5060A8DB00493F3B2070086
:10BA6000129D03910192EF2B5CD8030CDBB2029381
:10BA7000EBB2F6B2059307AC082D35D9EC231B02C7
:10BA800007932A4BA27128000993A5810EF062F852
:10BA9000274B00220CF04CFD0AF0E8FF0BF0FAF9FE
:10BAA0001026029BA073A3742000E6732782FFF781
:10BAB00039FD431C16D01F4B1F4A019916709A1D61
:10BAC000D5871A0047321170039A1F6046331A70E7
:10BAD00004992A0019480EF04BF9194819490AF03F
:10BAE0009DFB00200DB0F0BD0B2006AB0D22002108
:10BAF000C0180EF027F9029B07972371019B0F20B6
:10BB0000A371EBB22372039B2A0063722323A372F7
:10BB100006AB04996671C0180EF02AF92000FFF7F1
:10BB200001FDDFE701204042DCE7C04608072310A3
:10BB300000001C40B80F002000100020BC0F0020A7
:10BB400078100020E2040000F0B506008BB0100071
:10BB5000019203910DF0FEFF2E4B00220CF0E8FC49
:10BB60000AF084FF0BF096F9C3B20293EC231B0298
:10BB70000593FF230025FF271B040693264B05ACE6
:10BB80000793019B0995A381029B26822000360C16
:10BB9000A373E773A674FFF7C5FC013003D101203E
:10BBA00040420BB0F0BD1022290006A80EF0CAF8E2
:10BBB000EB231B020593E123DB0023812323A771E1
:10BBC000A37207210198F5F7E3F807240F00029B01
:10BBD000AB4201DC0020E4E70F2004AB0822FF2188
:10BBE000C0180EF0AFF82B006343039901986A1C4C
:10BBF00005AEC91807331500F2723A00984200D317
:10BC0000220008A80EF0B4F83000FFF78BFC0130DA
:10BC1000DDD1C4E700001C400807232070B50500F3
:10BC20000E0019002B0ADCB21000049AEF2C17D971
:10BC30002843082A02D9FFF787FF70BD0A4C2D0C54
:10BC4000637123232060257122726672A372002A19
:10BC500002D006480EF08CF82000FFF763FCECE7FA
:10BC600001204042E9E7C046901200209B120020CC
:10BC70006922024B1A60586099607047A8FEFF1F46
:10BC800007B51A2203000092062102487D32FFF711
:10BC9000C5FF0EBD97F1000007B52D2203000092ED
:10BCA000062102489A32FFF7B9FF0EBDC7FF000018
:10BCB00007B5FF22C275E73A030000920621024849
:10BCC0006632FFF7ABFF0EBD7EFF000007B5042212
:10BCD0000300009206210248F132FFF79FFF0EBDDC
:10BCE000F5FB000007B50C22030000920621024874
:10BCF000A432FFF793FF0EBDB0FF000007B50C2282
:10BD00000300009206210248A932FFF787FF0EBD0B
:10BD1000B5FF000007B50C2203000092062102487F
:10BD2000C532FFF77BFF0EBDD1FF000007B509222A
:10BD30000300009206210248C932FFF76FFF0EBDD3
:10BD4000D2FF000007B51822030000920621024826
:10BD5000BB32FFF763FF0EBDD3FF000007B508221B
:10BD60000300009206210248CC32FFF757FF0EBDB8
:10BD7000D4FF000007B503000822C1200092012172
:10BD80001B320002FFF766FE0EBD000030B54C000E
:10BD9000112185B002AB9A70FF2208252143D824D7
:10BDA000DA70064A59701D70039206210200009550
:10BDB0002002FFF74FFE05B030BDC046FFFFF1F295
:10BDC0007FB505000920140002AE684432700DF002
:10BDD000CFFFD720013433002A000621009400024F
:10BDE000FFF738FE04B070BD1FB5D32408230291BD
:10BDF000039200930200062102AB2002FFF72AFE05
:10BE000004B010BD034B044A1A609A601A619A612B
:10BE10001A627047B4FEFF1FFFFF00000022F0B55A
:10BE20000E4C0F4E0F4F2368002B09DA5B005B08A6
:10BE30002360606001320834052AF4D1FF200CE051
:10BE4000FD2BF7D861689500411A7151B942F1DDB7
:10BE50000249D2008A185060D8B2F0BDB4FEFF1F6C
:10BE6000A412002088130000002310B5084AD9004E
:10BE70005458844205D180231B06034300208B5075
:10BE800010BD0133052BF2D101204042F8E7C04636
:10BE9000B4FEFF1F1FB5002202AB1870FF205A80AE
:10BEA000039202325970000200920521FA32FFF724
:10BEB000B5FE05B000BD0000042804D8024BC00048
:10BEC000C1501B185A607047B4FEFF1F034B044A51
:10BED000C000C2501B185A607047C046B4FEFF1F16
:10BEE000FFFF000007B52A22811C0275CA77C11D19
:10BEF000CA7725310A7003320300009206210248F6
:10BF00009832FFF78BFE0EBDC5FD000007B52A2154
:10BF1000821CD1772222030000920348B8322439D0
:10BF2000FFF77CFE0EBDC046DAFE000007B5FF221B
:10BF3000C27503001000DF3A00920621113A000298
:10BF4000FFF76CFE0EBD0000014B18607047C04645
:10BF5000B812002010B5034C606021736373A273A4
:10BF600010BDC046B812002030B5084C257B8D426C
:10BF700008D1617B994205D1A37B934202D1A06095
:10BF8000002030BD01204042FBE7C046B81200202F
:10BF9000034A1168536892689B185B1A1818704717
:10BFA000B8120020F7B5060014001F00002806D1C3
:10BFB00080231B01994202D301204042FEBD002391
:10BFC0006A46104D13809370137128000B002100F6
:10BFD000D67009F00BF80028EED13B0022003100AA
:10BFE000280009F09BF80028E6D114226243064B92
:10BFF00021002800D21809F06BF80028DCD1C046D7
:10C00000DCE7C046BCA10100CC12002003685B073E
:10C0100000D5C04603681B0700D5C04603685B0611
:10C0200000D5C04603681B0600D5C0460368DB0583
:10C0300000D5C04603689B0500D5C04603685B0574
:10C0400000D5C0460368DB0400D5C04603689B04E6
:10C0500000D5C04603685B0400D5C04603681B04D6
:10C0600000D5C0460368DB0300D5C04603689B03C8
:10C0700000D5C04603685B0300D5C04603681B03B8
:10C0800000D5C04603689B0200D5C046704700003B
:10C09000F0B5002689B00C00150004900796B14257
:10C0A0000BD001292FD06B46187C04F099FE079025
:10C0B00007A8FFF7ABFF09B0F0BD14235343194E97
:10C0C00029009F193A001848039309F001F88023CA
:10C0D000796805901B01994204D380239B059942FE
:10C0E0006441013414236B43039AF3180832B618E1
:10C0F0001B7C22000020009601F0AAFE059B002B6D
:10C10000D1D0C046CFE709F07DFE084B1B68C01AAE
:10C11000074B1860074B5E55074B1A689042C2D90F
:10C120001860C0E7CC120020BCA101005C15002003
:10C13000581500204C1500205415002007B5012289
:10C14000054B1A7004F04CFE0190C04601A8FFF7A1
:10C150005DFFC04607BDC046C812002070B52F4E17
:10C160003368002B02D00120404270BD2C4D2D4978
:10C17000280008F083FE041EF5D102002A49280099
:10C1800009F002F86868012522002849C0B204F0CD
:10C1900037FE02210B20356007F01EF902210A202C
:10C1A00007F01AF901231F22162120005B42FFF736
:10C1B000F9FE002801D0C046D5E70423C0211E2285
:10C1C0005B42C900FFF7EEFE0028F4D1FF238C216B
:10C1D0001D2228001B028901FFF7E4FE0028C2D1BE
:10C1E0001C222800124B1349FFF7DCFE0028BAD1AD
:10C1F000FF238C211B2228001B028901FFF7D2FE9E
:10C200000028B0D101231A2228000B495B42FFF716
:10C21000C9FE0028A7D1C046A7E7C0465015002098
:10C22000BCA1010088A1010091C000003DC1000037
:10C23000FFFEFFFF698CFF18548CFF1870B50A4D84
:10C240002B68012B02D00120404270BD074808F046
:10C250007FFE041EF7D10222210005480DF072FD79
:10C2600020002C60F1E7C04650150020BCA1010061
:10C270004C150020F0B514000D008DB007AE14224F
:10C280000021039030000DF05DFD039B220029008A
:10C2900009A8736034740DF06BFD032302933A4BCD
:10C2A0001D78002D03D05A78002A3CD101250121A8
:10C2B0005955002380211800039C09018C425841E4
:10C2C00005AA138093701371304BD07029001800A9
:10C2D000019308F055FE32002900019808F0C0FED5
:10C2E00009F090FD2A4F38602900019808F02EFFD0
:10C2F000041E15D1274928480AF0BEFA09F082FD2C
:10C30000264B010018000AF0B7FA210024480AF071
:10C31000B3FA24480AF0B0FAC04620000DB0F0BDD0
:10C32000012829D1C046029B013BDBB20293002BBE
:10C33000B5D11D4C2378012B07D101F0D1FE002887
:10C3400001D101F0C9FE00232370C04611491248F3
:10C350000AF092FA09F056FD104B010018000AF09D
:10C360008BFA0121114849420AF086FA0D480AF079
:10C3700083FA01204042D1E709F044FD3B68C01A2E
:10C380000128B1D9CEE7C0464C150020BCA1010060
:10C390005C15002074A101009A9D0100A79D010079
:10C3A000029F0100BE9D0100C81200206EA1010085
:10C3B000074B10B51C68002C07D10122202005492D
:10C3C0001A6008F0FEFB200010BD01204042FBE790
:10C3D000601500203400002010B5D2B208F00EFC29
:10C3E00010BD10B50C0008F014FC0123E04018400B
:10C3F00010BD01238B4010B5190008F008FC10BDDA
:10C40000284B70B55A68284D8A4227D11B78834241
:10C4100024D101220321254808F0E3FB0122032156
:10C42000234808F0E2FB002203212148FFF7D4FF54
:10C4300000242B789C4205D3032211001B4808F0EE
:10C44000D0FB70BD01220321194808F0D7FB002260
:10C450000321174808F0D2FB0134EAE70122022148
:10C46000144808F0BEFB01220221134808F0BDFB6E
:10C47000002202211048FFF7AFFF00242B789C42D6
:10C4800003D3052202210B48D9E7012202210A48E1
:10C4900008F0B4FB00220221074808F0AFFB01348A
:10C4A000ECE7C046B4180020DCFEFF1F00900440FB
:10C4B00000F00F4000C00440C0F00F4013B50B4C1B
:10C4C0002368002B01D0002016BD094A094901ABA1
:10C4D00009481A804B6108F091FE002802D0012023
:10C4E0004042F1E701232360EDE7C04668150020D4
:10C4F00006070000140000202C00002010B5084C96
:10C500002368012B01D0002010BD064808F030FF41
:10C51000002801D12060F6E701204042F4E7C04640
:10C52000681500202C00002010B5094C2368002B52
:10C5300001D0002010BD0749074808F05FFE002821
:10C5400002D101232360F4E701204042F2E7C04614
:10C550006C150020FCFFFF1FB418002010B5084C1C
:10C560002368012B01D0002010BD064808F000FF11
:10C57000002801D12060F6E701204042F4E7C046E0
:10C580006C150020B41800200F4B73B55A680C00CE
:10C59000C5B291420DD11E78AE420AD1FFF7DEFF3F
:10C5A000002803D121003000FFF72AFFFFF7BCFF6E
:10C5B00076BDFFF7A3FF002803D121002800FFF775
:10C5C0001FFFFFF77BFFF3E7B4180020F0B516005C
:10C5D00087B000930CAB1B880290039100223100BE
:10C5E00002A80193032408F0F3FE0123019A0099A5
:10C5F00002A808F07DFE0023144D0593288009F061
:10C6000001FC2B880700002B10D003990298013CF5
:10C61000FFF7BAFFE4B20022310002A808F0D8FE0A
:10C62000002CE2D10120404207B0F0BD05A902A8CC
:10C6300008F0EAFE2880022804D109F0E3FBC01BC1
:10C640006328F3D928880028DFD1EDE7641500209E
:10C65000F0B517260024012789B01D00049005912C
:10C66000039209F0CFFB02ABF6183470AC4202D350
:10C67000012040420AE001343300039A04980599EE
:10C680000097E4B2FFF7A2FF0028EFD109B0F0BD98
:10C69000F0B58DB0039312AB1B880192049314ABD9
:10C6A0001B88069007910022019906A8059303278D
:10C6B00008F08EFE0AAC06AD23002A0003CA03C3AD
:10C6C0000A21039B49190B80049A0023200008F0DB
:10C6D0000FFE214B18800023099309F093FB0600FD
:10C6E000200009A908F090FE1B4B1880022804D1F5
:10C6F00009F088FB801B6328F2D90123059A13995E
:10C70000200008F015FE144B18800023099309F04F
:10C7100079FB0290200009A908F076FE0E4E3080C9
:10C72000022805D109F06EFB029BC01A6328F1D9DB
:10C73000308800280ED069680698013FFFF724FF73
:10C74000FFB200222800019908F042FE002FB2D16A
:10C75000012040420DB0F0BD641500201A4B0122AB
:10C760009B6859080800104011422CD199080220FA
:10C77000114228D1D9088018114224D119098018F2
:10C78000114220D15909801811421CD199098018F1
:10C79000114218D1D9098018114214D1190A8018F0
:10C7A000114210D1590A801811420CD11100801881
:10C7B0005A0508D4DA0A40180A4204D15B0B0B4030
:10C7C0000230C01AC0B2704700F0074010B5054CE7
:10C7D0002378002B05D10449044808F031FE0123D9
:10C7E000237010BD701500203C030020340300208E
:10C7F00010B5054C2378012B04D1044808F0F6FE4F
:10C800000023237010BDC0467015002034030020A3
:10C8100070B50F4D2E68002E01D0002070BD012193
:10C820001A2006F0D9FD0B490B4808F021FF01231F
:10C83000040032000321094807F0EAFB0443A4B2D4
:10C84000002C02D101232B60E7E701204042E5E7FD
:10C850007415002060030020BC18002000C00240B6
:10C8600070B51549012008F0ACF901220F211348D9
:10C87000FFF7B2FD0F211148FFF7B3FDC5B2012D3F
:10C8800007D0C046052009F0AFFAC046012040425B
:10C8900070BD00220F210948FFF79EFD0F210748B8
:10C8A000FFF79FFDC4B2002CEBD12800044908F02B
:10C8B00088F92000ECE7C046E0FEFF1FC0F00F4003
:10C8C000F8FEFF1FF0B585B0019002910392FFF7CB
:10C8D000C7FF051E11D10426144F039B029A01992C
:10C8E000380008F00DFF040009F08CFA0090002CCD
:10C8F00006D0013EF6B2002EEED101256D4212E0C7
:10C90000380008F01DFF040009F07CFA009BC01AF3
:10C91000632802D9002CECD105E0380008F010FFA4
:10C92000041EF1D1C046280005B0F0BDBC1800209F
:10C9300070B50A4D2C68002C0AD103210C2006F09A
:10C940004BFD0749074809F023F80123002802D0CE
:10C9500001240023644220002B6070BD7815002064
:10C960007C030020C4A1010010B500F085FC10BDBF
:10C9700037B5002300220D4D0092019300216A4635
:10C98000280009F027F9041E0CD1009A019B002110
:10C990000748F4F77DFB05210200280009F0C4F8E0
:10C9A00020003EBD01204042FBE7C046C4A101007B
:10C9B00000E1F50510B5084C2368002B02D00120DA
:10C9C000404210BD0549064809F0BEF90028F6D1DD
:10C9D00001232360F5E7C0467C150020CCA10100AF
:10C9E000D8A1010010B5024809F0D8F9002010BD07
:10C9F000D8A10100024B98688006C00F7047C0465E
:10CA000000F00740C0467047002337B50193084B3C
:10CA10000D000422C01801A900F010FB041E04D16F
:10CA20000422280001A90DF0A3F920003EBDC04654
:10CA300000C0FFFF13B56A46074B0C001B7801A925
:10CA40001371064B0122C01800F0F8FA002802D139
:10CA50006B461B79237016BDBF9D010000C0FFFF10
:10CA6000002330B585B00400150001200191039327
:10CA7000042A09D801A903A80DF07AF9034B2A006A
:10CA8000E01803A900F0ECFA05B030BD00C0FFFFCC
:10CA9000002330B585B00400019101200393042ADE
:10CAA00009D801A9881803A90138934205DB054B71
:10CAB000E01800F0D5FA05B030BD0578CD5401334B
:10CAC000F2E7C04600C0FFFF37B5012205000C00A9
:10CAD000FFF7C6FF002801D001203EBD6A46074B84
:10CAE00028001B7801A91371FFF7A4FF0028F4D1D7
:10CAF0006B461B79A342EFD1EFE7C046BF9D010013
:10CB000070B515000D4A0E4C1368C31AA34201D824
:10CB100000290BD0106000F0DFFA03000B3BDBB202
:10CB20000400012B01D90E2801D1C0460024002D9C
:10CB300002D0280000F07AFB200070BD8015002094
:10CB40009FBB0D0073B5002601AD01222900040032
:10CB500030002E8001F0C8FC6B460122591D0C48A4
:10CB600001F0C2FC2B780D20AA2B10D16B78552B2D
:10CB70000DD1210014228431F33001F0B5FC2100E5
:10CB80008A200822D831400001F0AEFC300076BD8A
:10CB9000FF0F0000BF22002130B5174C9200A544C2
:10CBA00001A800910DF0CEF86846FFF7CBFF050015
:10CBB00000F07AF90400032819D0052801D01028C4
:10CBC00015D100F039FB052409280FD100F06CF9CC
:10CBD0000400C046032809D1002D07D1684600F0A3
:10CBE0003FFB2A0001212800FFF78AFFC0462000F2
:10CBF000C1239B009D4430BDFCFCFFFF074B080098
:10CC00001B7810B5002B06D0202101F0C3FB431E7A
:10CC10009841404210BD0120FBE7C046AE180020FD
:10CC2000F0B51C001D4B85B01B7802910392002BC0
:10CC300003D10120404205B0F0BD80277F00BC42F7
:10CC400024D9E6B232000025511E8A412900230A68
:10CC50009B1801933A00002E04D0019B013B8B42AC
:10CC600000D13200C046039B28021918029B92B2E1
:10CC7000C01801F0D5FB0028DBD1C0460135019B6F
:10CC8000EDB22900AB42E5D82000D4E70399029821
:10CC9000A2B201F0C5FB0028F6D0CAE7AE1800200A
:10CCA000F0B51C001D4B85B01B7802910392002B40
:10CCB00003D10120404205B0F0BD80277F00BC4277
:10CCC00023D9E6B232000025511E8A412900230AE9
:10CCD0009B1801933A00002E04D0019B013B8B422C
:10CCE00000D13200039B28021918029B92B2C0188F
:10CCF00001F0FAFB0028DCD1C0460135019BEDB202
:10CD00002900AB42E6D82000D5E703990298A2B2E9
:10CD100001F0EAFB0028F6D0CBE7C046AE180020B1
:10CD200070B500240500A04208DA0120404270BD21
:10CD300001F084FE0130F8D00134E4B2044E30003A
:10CD4000AC42F5DB01F08BFE300001F09CFDEEE71C
:10CD5000841500200B4B01001B78042070B5002BBC
:10CD60000AD0094D280001F02FFE04002800002CF5
:10CD700003D101F074FE200070BD01F070FE0720A9
:10CD8000FAE7C046AE18002084150020C02270B516
:10CD9000114C0021A5449200040068460CF0D2FF1B
:10CDA000002368462370FFF7D5FF002812D1C02268
:10CDB00003000A4992006D46EE5CCD5CAE4205D0A0
:10CDC00001232370C0239B009D4470BD0133934217
:10CDD000F1D1F7E70720F5E700FDFFFFAD150020D3
:10CDE000084B01001B78042010B5002B09D0064B1E
:10CDF000180001F071FD03000820002B01D1C0468E
:10CE0000180010BDAE18002084150020F0B5234C8A
:10CE10001E00A544C8AB85B21700681E04CB00B243
:10CE20001C7800910192FFF77BFF01302BD0002C82
:10CE300011D1C0222100920002A80CF083FF02A8A9
:10CE4000FFF788FF00280CD0C0460F342000C32312
:10CE50009B009D44F0BDC0221149920002A80CF035
:10CE600087FF02A8FFF7BCFF041E02D0C0460D24B6
:10CE7000ECE700980130401B00B2FFF751FF38602B
:10CE8000013002D1C0460124E0E70648019901F0D3
:10CE9000EDFD30600130F5D0C046D7E7F4FCFFFF70
:10CEA000AD15002084150020C023F0B55D4DC5B040
:10CEB00028005D495D4A9B0001F0EDFB002800D091
:10CEC000ADE0012203245A4B1A70280001F024FC23
:10CED000061E0BD1280001F0D6FC002800DD7BE007
:10CEE000C046642008F080FFC0460236013C002C9A
:10CEF000EBD1022E26D1C046102012E00398002864
:10CF000000D187E0002B00DC84E000230094019333
:10CF100002AA04ABFFF77AFFC046002800D179E0EF
:10CF2000C04645B0F0BD049B012B00D077E0039BC9
:10CF3000012B74D1C0463F48FFF70CFF00286ED18B
:10CF40000330EEE7FC222100802605A804940CF0B3
:10CF5000F9FE760004AF32003900200001F0C4FA77
:10CF6000002837D13B5CFF2B03D0C046C0460520CC
:10CF7000D7E70130B042F5D180230134FF345B01A3
:10CF80009C42E7D1C046280001F092FB002801D066
:10CF90000420C6E7280001F0BFFB011EF8D1C02223
:10CFA000244C920020000CF0CDFE2000FFF718FF6B
:10CFB0000028EDD103AC2000FFF7E8FE03000420B9
:10CFC000002BAED12378002BE2D101221A4B01387D
:10CFD0001A70A6E70720A4E70296C046280001F0D1
:10CFE00052FC02900028D3DBC04603AC210028008D
:10CFF000039601F03BFD011E0490C9DB029B9842A1
:10D0000008DB012800DD79E7012B03DD0398002808
:10D0100000D07AE7C046029B012B00D183E7C046CF
:10D02000B6E7C0468415002010FFFF1FEEEE00009B
:10D03000AE180020AD150020AD180020030070B51B
:10D04000C0249D180800A4000221A54204D8034969
:10D0500059180CF08DFE0021080070BDAD150020A0
:10D06000C02373B51500821804000E0002209B0037
:10D070009A4227D8C04600226B46DA71124B1978C3
:10D08000914218D01A706B46D81DFFF77FFE00281A
:10D0900011D1C0466B46DB79002B0CD00B4A1378BC
:10D0A000032B08D80133DBB21370042B03D1012109
:10D0B000074B1070197007482A00310020180CF037
:10D0C00057FE002076BDC046AD180020AC150020EC
:10D0D000AF180020AD1500200B2370B586B06B444F
:10D0E0001800FFF753FE002800D084E06B46DB7A7F
:10D0F0000C30002B4FD04848FFF772FE00285BD160
:10D10000464C0121200001F0E3FC0B236B44180086
:10D11000FFF73CFE002840D16B46DB7A002B3CD168
:10D12000200001F08BFC01302ED1200001F097FC93
:10D1300000233A4E0393300001F0A5FB041E049037
:10D1400020DB03AD2900300001F090FC031E0590A8
:10D1500018DB08209C421EDC012B30DC012C1ADD80
:10D16000039B002B17D0C046012305990193039818
:10D17000009505AB04AAFFF749FE002825D001223F
:10D18000274B1A70012006E00122264B20001A705E
:10D1900001F065FC0B2006B070BD234A1378032B09
:10D1A000C6D80133DBB21370042BC1D101211C4B53
:10D1B000197000231370BBE70828ECD1B8E7039B74
:10D1C000002BE8D0002CE6D0CDE7049B012BD6D174
:10D1D000059B012BD3D1039B012BD0D10A336B4488
:10D1E0001800FFF7D3FD0028C9D16B46DB7A0E305B
:10D1F000002BD0D0C3E7C0460B4A1378032BCAD804
:10D200000133DBB21370042BC5D10121044B19701B
:10D2100000231370BFE7C046AD1500208415002021
:10D22000AF180020AD180020AC150020014B1B7872
:10D2300003707047AF18002070B5D02500242D0270
:10D240002021200001F0A6F8002806D180235B01F0
:10D25000E418AC42F4D1093070BD0A20FCE70000AC
:10D26000C02210B5034B0100180092000CF080FDA5
:10D27000002010BDAD150020F0B5F4498FB0F44882
:10D2800009F0FAFA08F0BEFDF24B0100180009F0AF
:10D29000F3FAF14809F0F0FAF04809F0EDFA002449
:10D2A00008F0B0FDEE4BEF4E1C70059000F02CFF27
:10D2B000ED4BEE4D1A78EE4B1A702A00663212785A
:10D2C0005A702A00623212789A702A0064321278F8
:10D2D000DA702A00653212781A712A0063321278E5
:10D2E0005A712A007A3212789A712A0079321278A9
:10D2F000DA712300DF4C5A00115B0133B1520E2B5F
:10D30000F9D13300A26BC0331A603200DA4BAF326E
:10D310001978DA4F117032005978B032117032003A
:10D320009978B13211703200D978B232117032006E
:10D330001979B332117032005B79B4321370D04B6B
:10D340001B785A1E93413200A5321370CD4B1A78C8
:10D350003300B6331A703B78012B09D100F04EFE32
:10D36000C94B1B68C01AC94B984201D900233B70B6
:10D3700033003A78B5331A702B005D331A78C44BFA
:10D380001A70C44B1A783300A1331A70320000238C
:10D39000A63213703200B73213703200BE4BAE3279
:10D3A0001B78137023009E331A7833009D331A7054
:10D3B00023009F331A7833009E331A70B74BB84A54
:10D3C000197803930123002901D11378DBB23100CE
:10D3D000AD310B701178B34A13780B431370B24A16
:10D3E000039B197813780B43591E8B41DBB21370E2
:10D3F000AE4A039B11781B780B4313702300AC4A91
:10D40000B6331B7811780B431370F5F745FBA36B0C
:10D41000002B00D198E2A26BA64B9A4200D993E26E
:10D420003121A06BF3F72EFC0CF094FBA24AA34B26
:10D430000BF0C2FC0022A24B0AF016FD80230090E4
:10D440000191009A1B061000019AD1180CF018FBEC
:10D450000023BC363060874EE95CF218403201335D
:10D4600011700E2BF8D15E223300AA56A0331A7029
:10D470005F223300AA56A1331A703200914B5A3200
:10D48000598B686A11803200198B5C3211802C2212
:10D49000995E32005E3211802A229A5E3300603338
:10D4A0001A800AF033FC884B70661F68381C0AF03B
:10D4B0002DFC864E864B326800909A4200D1306037
:10D4C00000980AF043FC011C381C0AF07BFA8149E1
:10D4D000071CF3F7C9FD002800D137E2009B013398
:10D4E000336030680AF032FC7B4B20671B68A3670F
:10D4F000AB6AE366206FA16F0AF026F9774909F05D
:10D500003DFFE067286D09F0ADFC23008C33186007
:10D51000686D09F0A7FC2300903318602300AA6D02
:10D5200094331A602300EA6C98331A602B002C3372
:10D530001B785A1E93412200DBB2A23213702B00DB
:10D540002D331B785A1E93412200DBB2A332137095
:10D550002B002E331B785A1E93412200DBB2A432DB
:10D5600013702B002F331B785A1E93412200DBB21D
:10D57000A53213702B0030331B785A1E93412200C2
:10D58000DBB2A73213702B0031331B785A1E934144
:10D590002200DBB2A83213702B0032331A7823003A
:10D5A000AA331A702B0033331B785A1E9341220082
:10D5B000DBB2AB3213702B0034331B785A1E93410D
:10D5C0002200DBB2AC3213702B0035331B785A1EAD
:10D5D00093412200DBB2AE3213702B0036331B783E
:10D5E0005A1E93412200DBB2B03213702B00373346
:10D5F0001B785A1E93412200DBB2B13213702B000C
:10D6000038331B785A1E93412200DBB2B2321370BA
:10D610002B0039331B785A1E93412200DBB2B33200
:10D6200013706B1CDA7F2300B6331A702B003B3368
:10D630001B785A1E93412200DBB2AD3213702B00CF
:10D640003C331B785A1E9341220049E001A201009D
:10D650009A9D0100A79D0100E0A10100BE9D01006F
:10D66000C407002018070020E506002084060020DB
:10D6700018190020D80B0020B80B0020B30F002091
:10D6800030FEFF1FFC180020381900203F9C0000CE
:10D69000B20F0020900B0020F2180020201900206B
:10D6A000040B0020B50F0020B40F0020E718002065
:10D6B000E61800208F5F0100EC51B81E85EBC13FDA
:10D6C00000408F4018080020300B002098030020F5
:10D6D000FFFFFF7F3333333F2C0B00200000C84295
:10D6E000DBB2AF3213702B003D331A782300BA330C
:10D6F0001A702200C34BB7321B78DBB21370039B46
:10D700001B785A1E93412200DBB2B83213702B00F3
:10D71000220060331B78B93213702B007B331B78E7
:10D72000591E8B412100DBB2BB310B702B007C33C7
:10D730001B78591E8B412100DBB2BC310B702B00D2
:10D740007D331B78591E8B412100DBB2BD310B703C
:10D750002B007E331B78591E8B412100DBB2BE317A
:10D760000B702B007F331B78591E8B412100DBB2DD
:10D77000C0310B702B0080331B78591E8B41210068
:10D78000DBB2C1310B702B00813319782300C33316
:10D7900019702B0082331B78591E8B412100DBB29C
:10D7A000C4310B702B0083331B78591E8B41210031
:10D7B000DBB2C5310B702B0084331B78591E8B41B3
:10D7C0002100DBB2C7310B702B0085331B78591E4B
:10D7D0008B412100DBB2C9310B702B0086331B78E3
:10D7E000591E8B412100DBB2CA310B702B008733ED
:10D7F0001B788835591E8B412100DBB2CB310B7071
:10D800002B78CC34591E8B41DBB2237011787E4AC1
:10D8100013780B431370FDF759F87C4C2378DDB275
:10D82000002B00D00AE308F0EDFA22002900FFF7F0
:10D8300067F9002800D095E2C04608F0E3FA744C7E
:10D84000744D2368C01A744B1A78FA239B00534313
:10D85000984205D90122714B1A6008F0D3FA206072
:10D860006F4B70491A78704C0091012A14D1002234
:10D870001A70F3F717FD002801DB6C4B1860009B52
:10D880001B78012B08D02378012B05D0674B353549
:10D8900029781868F3F724FDC046654A2378654F58
:10D8A0000492012B1BD100211E2206A839700CF016
:10D8B00049FA5E4B604D1A682968604B91424ED818
:10D8C00000294CD0A0331B78002B4ED0C046049BBF
:10D8D0001868F3F713FD0023237001333B70009B9E
:10D8E00000211B78012B00D074E21E2206A839709B
:10D8F0000CF028FA4E4E524D32682B689A4200D9ED
:10D90000BDE0504B1C78504B1B780393012B0AD180
:10D910004E4B1868F3F79AFC013000D003940022B4
:10D92000494B039C1A70414B2A681968434B8A4241
:10D9300001D8002A21D1C046A0331B78002B00D08B
:10D94000C046C04630683AE0414881E54149381C4C
:10D95000F3F776FB002800D1C3E5009BC0E5C04685
:10D96000A0331B78002BB1D1B1E706A8F3F748FC30
:10D97000296806A8F3F7A6FCA9E7A0331B78002BBB
:10D98000DED1002C6CD11E22210006A80CF0DAF9A1
:10D9900006A8F3F723FC304B06A81968013119607B
:10D9A000F3F790FC224B002819D11A6801321A6053
:10D9B0002A4A1470C04618682B68984257D3F3F768
:10D9C0009DFC0023049A13601D4A1360009A137093
:10D9D000214A1360F3F756FC01233B704FE01F49C7
:10D9E00028680A780A240132D2B20A70642800D862
:10D9F000093C1349A24201DB1860C046C0461868C2
:10DA00000B68DAE7040B0020B10F0020AE0C0020F9
:10DA100010190020340B0020690B0020141900207D
:10DA20000C190020FC180020FD180020041900200B
:10DA3000F81800209C03002000190020D80B0020BB
:10DA400008190020E9180020F0180020EC18002028
:10DA500070FEFFFF9A99993EF4180020E818002004
:10DA6000C04630682B689842A9D2012CA7D008F094
:10DA7000C9F9059BC01A5A2800D83BE7C0463B7835
:10DA8000012B00D06EE1D84B1E68012E00D069E159
:10DA90000022D64C1A6000211E3220000CF052F9F0
:10DAA000E121D34D0901E86EF3F7ECF80AF09AF999
:10DAB0002B006833071C188880B20AF047F9011C54
:10DAC000381C09F05BFCCB4909F03EFE2B000390AB
:10DAD000A2331A78637D3240B343134363752B003E
:10DAE0000227A3331A78637D32405200BB431343AD
:10DAF00063752B00A4331A7804213240BA40637D49
:10DB000008208B43134363752B00A5331A78637D7C
:10DB10003240D2008343134363752B00A7331A7836
:10DB2000637D32408A400C318B431343B24A6375A4
:10DB30002B001278A833511E8A411B7892015B0199
:10DB40001A43AE4B00931B78591E8B411F21DB01FA
:10DB50001343627D0A40134363752B00AA331A787E
:10DB60001B39531E9A41A37DB3431343A3752B0066
:10DB7000AB331A78A37D32405200BB431343A375E5
:10DB80002B00AC331A78A37D3240BA408B43134349
:10DB9000A3752B00AE331A78A37D3240D2008343A5
:10DBA0001343A3752B00B0331A78A37D32408A400B
:10DBB0000C318B431343A3752B00B1331A78A37D2B
:10DBC0001031324052018B431343A3752B00B23303
:10DBD0001A78A37D2031324092018B431343A37501
:10DBE0002B00B3331A78A37D3F31D2010B4013438E
:10DBF000A37508F007F9FA21030A20706370030C7B
:10DC0000000EA370E0708900E86BF3F7C5F883B2EB
:10DC10001B0A63742B0020745A331B880421A371E0
:10DC20001B0AE3712B005C331B8823711B0A637191
:10DC30002B005E331B88A3721B0AE3722B00603338
:10DC40001B8823721B0A63726B8E23731B0A637318
:10DC5000AB8EA3731B0AE3732B009E331A78E37D0C
:10DC60003240B3431343E3752B009F331A78E37DAF
:10DC700032405200BB431343E3752B009C331A78A8
:10DC8000E37D3240BA408B431343E375286F09F0BC
:10DC9000E9F8A074A86F696F09F070FB554909F0A5
:10DCA00053FD09F0DFF8E074039809F0DBF8FA217E
:10DCB00020758900A86BF2F7E5FF83B21B0A637633
:10DCC00000232076A676E676A27E5800013A52001E
:10DCD0002E5AAA5A591CC9B2964201D2A176C04600
:10DCE000E27E285A013A5200AA5A904201D9E176BE
:10DCF000C04601330E2BE7D100220D3B3B48637732
:10DD00002377140010346300EB189E88437F511C66
:10DD10000F335B00EB189B8836B21BB2C9B29E4230
:10DD200001DD4177C046037F64000F335B002C198F
:10DD3000EB18A4889B8824B21BB29C4201DA0177BD
:10DD4000C0460132072ADCD1C046F3F735FA2C4B26
:10DD5000002800D168E001221A702A4A13780133A2
:10DD60001370C04608F04EF8059B274AC41A116884
:10DD7000264B1C60264B8C4203D91968002900D120
:10DD80001460244A186811688C4202D9032800D90B
:10DD90001460214A11688C4200D21460461C1F4D49
:10DDA0001E600AF01FF8296809F0CEFC071C20004D
:10DDB0000AF018F8011C381C09F056F9041C300050
:10DDC0000AF010F8011C201C09F0D8FA2860C0469F
:10DDD0000FB0F0BD049B1960114B1960009B1970C6
:10DDE000104B1960F6E5C04614190020C818002031
:10DDF000D80B00200000C842E6180020E7180020D9
:10DE0000F2180020F11800203019002028190020F5
:10DE10002419002034190020A00300202C19002010
:10DE200008190020F4180020009A18701070054A94
:10DE30001070054A13680133136093E70022034B07
:10DE40001A708FE7E6180020C4180020F21800208E
:10DE5000F7B50C004848494915001F00089E08F016
:10DE60000BFD07F0CFFF464B0100180008F004FD42
:10DE70002100444808F000FD434808F0FDFC002361
:10DE80003A0031006846009301930BF071FFEF22D6
:10DE90003E4B12042340934210D16B461B78102B4B
:10DEA00007D0012D04D1082269462000FDF70EFBA2
:10DEB000F7BD07F0A7FFFEF747F8F2E7012D04D101
:10DEC000082269462000FDF701FB314BE0180328CA
:10DED0004DD8F2F7CDFE020937472E4B1B78002BA9
:10DEE000E6D12D4B01223BE02A4B1B78002BDFD1E2
:10DEF000C0462A4C0422310020000BF039FF284D87
:10DF000004222800311D0BF033FF2B682268934256
:10DF1000CED801219942B6412248764201701E486E
:10DF2000017021480670002B00D10B000132D21A7B
:10DF30002B60002322601D4A13601D4A13601D4A96
:10DF40001370B5E7C046174B1B78002BB0D10422E5
:10DF5000310019480BF00CFF0122184B1A700E4BC0
:10DF60001A70A5E7F379FF2BA2D1124BBAE7162C52
:10DF70009ED1134BB6E7C0469A9D0100EBA101006C
:10DF8000A79D0100E5A10100BE9D01000000FF0367
:10DF900000FAFFFF780C00200C190020081900205F
:10DFA000EC180020FC180020F0180020F4180020C5
:10DFB000F8180020E918002000190020FD180020A2
:10DFC000AC0C002010B500230121044A044801F0E4
:10DFD0006DFC0021080001F075FC10BDB018002098
:10DFE00028FFFF1F10B5FFF7EDFF012007F0FCFE33
:10DFF000002010BD10B507F0F7FE10BD10B507F0FA
:10E0000001FF10BD10B5FEF7D3F910BD10B5FEF736
:10E01000E3F910BD10B50122FEF7DEF910BD10B511
:10E020000022FEF7D9F910BD10B5FEF7DAF910BDE0
:10E0300010B5FEF7DEF910BD10B5034C02000B0061
:10E0400003CCFEF705FB10BD2C00002013B5044CDB
:10E0500000920B00020003CCFEF7B8FA16BDC046D2
:10E060002C0000201FB502930123054C0192009360
:10E0700002000B0003CCFEF70BFB04B010BDC04642
:10E080002C00002010B5FEF74FFA10BD10B5034C60
:10E0900002000B0003CCFEF7DBFA10BDB418002021
:10E0A00013B5044C00920B00020003CCFEF78EFA6D
:10E0B00016BDC046B41800201FB502930123054CBD
:10E0C0000192009302000B0003CCFEF7E1FA04B0CA
:10E0D00010BDC046B418002010B5FEF73FF810BDC3
:10E0E00010B5FEF7ABF810BD10B5FEF7C3F810BDC4
:10E0F00010B5FEF71DFC10BD10B5FEF739FC10BDC4
:10E1000010B5FEF757FC10BD10B5FEF76BFC10BD47
:10E1100010B5FEF76FFC10BD10B5FEF773FC10BD17
:10E1200010B5FEF753FB10BD10B5FEF761FB10BD37
:10E1300010B5002804D10B210548FFF770FF10BD72
:10E140000128FCD10B210248FFF764FFF7E7C04626
:10E1500000F00F4010B5002804D10C210548FFF74E
:10E160005EFF10BD0128FCD10C210248FFF752FFD1
:10E17000F7E7C04600F00F4070B5094D00222800B7
:10E180000B2106F032FD28000B21FEF72AF90400CE
:10E19000012228000B2106F028FDE0B270BDC04628
:10E1A00000F00F4010B5FEF733FB10BD10B5FEF7C1
:10E1B00089FB10BD002310B5891801399A4200DC93
:10E1C00010BD0C78C4540133F7E7002310B59A4210
:10E1D00000DC10BDCC5CC4540133F8E710B5FEF789
:10E1E000BDFA10BD10B5184CFFF7FCFEFFF788FF15
:10E1F000FFF708FF200001220221FFF707FF00229E
:10E2000001211248FFF702FF012205211048FFF704
:10E21000FDFE012209210F48FFF7F8FE2000002231
:10E220000821FFF7F3FE002207210B48FFF7EEFE5F
:10E2300001220E212000FFF7E9FEFFF723FFFFF781
:10E2400057FFFFF7AFFF10BD80F00F40C0F00F4049
:10E2500040F00F4000F10F4000F00F4010B5FFF705
:10E260004BFF10BD10B5FCF78BFA10BD10B592B284
:10E27000FFF79CFF10BD10B507F0C4FD10BD13B52E
:10E2800000236A4693801380053313710400022231
:10E29000694601A8FFF7EAFFC046002802D16B4695
:10E2A0005B78237016BD13B500236A46040001A8ED
:10E2B0009380FFF7E4FF002804D16B4601221B790D
:10E2C0001340237016BD00007FB500246B469C816F
:10E2D000194B01A91B7801220B70062302A80370B9
:10E2E000FFF7C4FF6B46DC72FFF7C5FF06000B2388
:10E2F0006B441800FFF7D7FF0500041E0CD1FFF791
:10E30000BAFF801B322803D9C046C046022410E061
:10E310006B46DB7A002BEAD1C046002D09D103A859
:10E32000FFF7ADFF041E04D16B461B7B01349B0736
:10E33000ECD5200004B070BDBF9D010073B5050091
:10E340000E00FFF7C1FF0400012808D1C0460021DC
:10E3500032002800FFF78AFF041E02D0C0462000CA
:10E3600076BD6A46D071FFF786FF05006B46D81D63
:10E37000FFF799FF041EF2D1FFF77DFF401B322803
:10E3800002D9C0460234EAE76B46DB79002BEDD1B7
:10E39000E5E700007FB505000E00FFF795FF0400DC
:10E3A00001282BD1002302A803932B0C6DBA067011
:10E3B00043704580C046042203A9FFF757FF041E9F
:10E3C00003D0C046200004B070BD6A46C826D07194
:10E3D000FFF751FF104D760028606B46D81DFFF700
:10E3E00062FF041E0AD1FFF746FF0C4B18601B6842
:10E3F0002A689B1AB3420AD9C0460234074A1368F6
:10E4000001331360044A136801331360D9E76B4684
:10E41000DB79002BE1D1F1E7401900203C19002005
:10E42000F0B517008022C7B0050002915200974254
:10E4300057D8002306A8190005930BF083FCFF238F
:10E440002A009A4313000133FF3301933A1D92B21D
:10E4500001992B0C03927A19EEB205ACDBB26DBABE
:10E460008A4212D802220299227006A83A006370EA
:10E4700065800BF07DFCC04620000399FFF75EFF2E
:10E48000002800D0C04647B0F0BDC0460222764208
:10E49000F6B222700299320006A8637065800BF014
:10E4A00067FCC046311D2000FFF748FF019B022298
:10E4B0001B0C6370019B22701B0AA3700023E37086
:10E4C000029B0500BA1B991906A80BF051FCC04627
:10E4D000039B2000991B89B2FFF730FF284340B20D
:10E4E000CEE701204042CEE78023F0B5234C0E005A
:10E4F000A544150004005B009A423CD800236A46FC
:10E50000D371FFF7B8FE07006B46D81DFFF7CBFEAF
:10E51000002808D1FFF7AFFEC01B322803D86B4696
:10E52000DB79002BF0D1C046002780223900520051
:10E5300003A80BF007FC80223900520044A843973F
:10E540000BF000FC6A4603231372230C64BA537267
:10E5500054812A1D92B243A902A8FFF787FE040046
:10E56000C0462A00300044A90BF002FC200085239D
:10E570009B009D44F0BD01246442F7E7ECFDFFFFE2
:10E5800010B54469002C06D04368CB180168594384
:10E590000423A04710BD01204042FBE7836810B56B
:10E5A000046848680433584363680A680830D2181E
:10E5B00023685343C01810BD70B506681400756910
:10E5C000002D07D0FFF7EAFF0423010022003000EE
:10E5D000A84770BD01204042FBE737B505680192AE
:10E5E0002C69002C07D0FFF7D9FF0423010001AAF2
:10E5F0002800A0473EBD01204042FBE713B5046957
:10E600000192002C07D0436801AACB180168594336
:10E610000423A04716BD01204042FBE7FF22F8B5C6
:10E6200004000068120643680568CB180E005D43BD
:10E63000FFF7E4FF013002D101204042F8BD20681D
:10E64000C368002BF8D02900984720680769002F7D
:10E65000F2D00423221D291DB8470130ECD031002F
:10E66000034A2068FFF7CAFF013043425841E4E7FC
:10E6700000FFFFFF4B68C26801334B60934209DB28
:10E68000002200680B68806801334A600B60834297
:10E6900000DB0A60704710B50400016042608360CF
:10E6A0000868191D0838F2F7EDFAE060002010BD87
:10E6B00070B50400002523689B68AB420CDC002584
:10E6C000236800209B68AB4218DC20616061A06178
:10E6D000E061206260620BE0002007F04BFC00224A
:10E6E00029002068FFF78AFF013002D10120404253
:10E6F00070BD012007F03EFC0135DCE707F03AFC75
:10E7000029002000FFF78AFF0130EFD0012007F039
:10E7100031FC0135D4E70000F0B5002504000368A2
:10E7200087B09E684D4B013E029501950395206888
:10E7300000938368AB422ADC019B002B34D0029B00
:10E740005B421E400023A661E361A369B34262D02D
:10E75000039B23610023636125002269A3691035AF
:10E760009A4204D16269E3699A4200D171E02900BA
:10E77000200004AAFFF720FF013015D0384B049A7F
:10E780009A4266D029002000FFF774FFE4E743684F
:10E790000168EB18594343691F1E05D0082304AADA
:10E7A000B847013004D1C0460120404207B0F0BD57
:10E7B000049B002BF7D0FF221206934201D00133B5
:10E7C00007D129002000FFF729FF0130ECD0234BAF
:10E7D0000493049B214A93420DD0214A9342E2D1F3
:10E7E000059962689142DED1009A1C498A4210D094
:10E7F0000122029209E0059962689142D3D1184A38
:10E800000099914203D00122019201358FE76E1EDB
:10E81000F9E70395ECE7250018352900200004AA44
:10E82000FFF7CAFE0130BFD0049B5A1C00D18FE70E
:10E830000A4A934204D029002000FFF71BFF84E717
:10E84000FF22290020001206FFF7C7FE0130F2D197
:10E85000AAE7203400200CCD0CC4A7E700FFFFFF7F
:10E860000000FFFF10B50400036880699968236900
:10E87000C01A4018F2F776FBE068E3694843C01815
:10E880006369C01A10BD7FB5030002AD2A000026DF
:10E890001033040003CB03C22A68A3699A4203D150
:10E8A0006A68E3699A4207D02900200001AAFFF7AD
:10E8B00083FE431C03D10600300004B070BDC04687
:10E8C0008022019B52029B185A425341290020008A
:10E8D000F618FFF7CFFEDFE7F0B5066804008069A1
:10E8E00085B001910130B168F2F73CFB300003AA1A
:10E8F0000D00FFF745FE01300AD0039B304EB342B6
:10E900000AD1A169206803AAFFF73AFE013022D19B
:10E910000120404205B0F0BD2369AB4208D100237D
:10E9200021686A1C8968636122618A4200DB236175
:10E93000236AAB4208D1002321686A1C896863629C
:10E9400022628A4200DB236229002000FFF766FE74
:10E950000130D6D1DCE7039B1A4AB3421FD1A1692B
:10E960002068FFF74BFE0130D2D025001835290072
:10E970002000134AFFF731FE0130C9D027683E69F5
:10E98000002EC5D029002000FFF708FEA368011D56
:10E99000019A3800B047013004D1C046B8E793422D
:10E9A000E3D0B5E729002000064AFFF716FE013044
:10E9B000F3D020002900FFF75DFE0020AAE7C04643
:10E9C00000FFFFFF0000FFFFF0B5040085B00191DC
:10E9D0002500226AA36920359A4203D1626AE3695D
:10E9E0009A4221D02900200003AAFFF7E5FD01305B
:10E9F0001AD0114B039A9A4219D127687E69002ECA
:10EA000012D029002000FFF7C9FDA368011D019A5B
:10EA10003800B047013006D020002900FFF72AFE59
:10EA2000002005B0F0BDC04601204042F9E72900B2
:10EA30002000FFF71FFECBE70000FFFF70B50500C9
:10EA4000FF221035290012060400FFF7C6FD431C03
:10EA500004D020002900FFF70DFE002070BD030048
:10EA60002033103006C806C300207047F0B587B0C9
:10EA7000030004AD2A0010330F00040003CB03C2CF
:10EA800000231E003B6001932A68A3699A4212D1B9
:10EA90006A68E3699A420ED1019B3B60C046300030
:10EAA00012E00A4B039A9A4200D1019629002000F5
:10EAB000FFF7E0FDE8E72900200003AA0136FFF791
:10EAC0007BFD431CEDD1C04607B0F0BD0000FFFF49
:10EAD00070B505000E000124B44201D9601E70BD5E
:10EAE000290028002031FFF7C5FD0134F4E70000BC
:10EAF0001249134A70B5521A12480BF039F91249EB
:10EB0000124A1348521A0BF033F9124A12480021E4
:10EB1000121A0BF017F91149114A1248521A0BF048
:10EB200027F9114C1149124D8C4205D0114A200091
:10EB3000920892000BF01CF92C6070BD80A50100BA
:10EB400028AC0100C0FDFF1F28AC010028AC01006B
:10EB500068040020442300206005002028AC010048
:10EB6000D0AC010000FCFF1F00FDFF1F00080000EB
:10EB700008ED00E0C0000000044B054A5A605A68E6
:10EB8000044A1A60044A9A607047C0460020054053
:10EB900020C528D920210000FFFF000003480449B8
:10EBA000044B425892B213434350704700E000E0D8
:10EBB0000C0D00000400FA05064B02205B69DBB275
:10EBC000042B06D00130802B03D01800012B00D07D
:10EBD0000420704700E00740054B5A68802310006E
:10EBE0005B0418401A4201D0024B18687047C046B7
:10EBF000FC400640441900208022094B920099589D
:10EC00008022080052041040114208D08222920053
:10EC10009A580123100018401A4200D0014870474A
:10EC20000040064000127A00C022074B920099581B
:10EC30008022080052041040114203D0C2229200E8
:10EC40009B5802487047C04600400640006CDC02FA
:10EC500070B5144C050023691B011B0F022B12D049
:10EC6000032B13D00020012B01D1FFF7B5FF0F2696
:10EC70002169090C31400131F2F704F8012D08D067
:10EC8000022D0DD070BDFFF7B7FFF0E7FFF7CCFF07
:10EC9000EDE72169090931400131F1F7F3FFF1E7AF
:10ECA0002169F8E70040064010B501291ED005286B
:10ECB00007D0062814D0FFF79FFF812302001849D0
:10ECC00004E0FFF7B1FFC123020015499B00C858BB
:10ECD00007231840002802D00138C240100010BDA0
:10ECE000FFF77AFF0F4B02009868F1E7052807D07D
:10ECF00006280FD0FFF780FF81230200084904E0B7
:10ED0000FFF792FFC123020005499B00CB585B052A
:10ED1000580FDFE7FFF760FF024B02009B68F6E742
:10ED200000400640FC4006400C4A13691B079B0F3D
:10ED3000022B07D0032B0DD00020002B09D1FA2085
:10ED4000400206E01269100018401A4201D0FA2071
:10ED5000C001704702231269F5E7C04600800440F5
:10ED60000C4B00201B6A10B51B011B0F032B07D88F
:10ED70001800F1F77DFF0206090C0220FFF768FF7B
:10ED800010BDFFF729FFFBE7FFF736FFF8E7FFF7B6
:10ED90004BFFF5E7004006400F4A10B513699B068C
:10EDA0009B0F022B11D0032B12D0012B04D000217A
:10EDB0000620FFF779FF07E01269022310001840D0
:10EDC0001A4201D0FA20C00110BD044B1868FBE7BD
:10EDD00000210520EDE7C0460080044048190020CE
:10EDE00010B51E4C802362681B01100018401A42A7
:10EDF00016D060680006000F0E282CD8F1F738FFF7
:10EE0000112B142B192B1C1F2B23082B252B28000F
:10EE1000FA20400261684905490F0131F1F732FFDC
:10EE200010BDFFF79DFFF5E701210620FFF73CFF2E
:10EE3000F0E701210420F9E701210520F6E7002091
:10EE4000FFF706FFE6E70120FAE7FFF76DFFE1E7CE
:10EE5000FFF7A2FFDEE70020DCE7C04600800440A9
:10EE6000154B4000C35A154A9B0070B59B180126EC
:10EE70000F221C681D682409002034401540A5425B
:10EE800014D31A68920F324210D01B685B015B0FDB
:10EE9000022B0CD0032B0CD0B34202D10630FFF76B
:10EEA00003FF691CF1F7EEFE0134604370BD0420DE
:10EEB000F5E70520F3E7C046FAA20100005006403E
:10EEC000F0B5060085B000290AD16B4619732F4BA7
:10EED0006A4600932E4B694601930223FF33138148
:10EEE0002C4B01245A680220520E17002740224260
:10EEF0000BD15A682848294D02405A608022D2041A
:10EF00005A602F60002E02D1002005B0F0BDE02035
:10EF100007264A7AC00012020240087A30400243B3
:10EF200030209A60CA790136120102408879C00007
:10EF3000304002434879043E800030400243DA60AA
:10EF40000A79012A12D0022A16D0002A03D10A7B9C
:10EF5000D20514435C600B68114C2B60FFF73CFE3C
:10EF600000280FD1002C0BD10330CEE7087B0D4ACF
:10EF7000C00502435A60EEE7087B0B4AC005F8E77C
:10EF8000013CEBE7002CBFD10320BEE700127A0062
:10EF900000010002FC400640FFFF7FFF44190020F3
:10EFA00088E730000100010001000300F7B506000A
:10EFB00000290BD180236A465B0093800223917164
:10EFC0006946FF331380013BFF3B937080221F4B48
:10EFD00092009D5801246D0E2F00022027402542EB
:10EFE00007D198581A4D284098509F50002E01D1B3
:10EFF0000020FEBDE02007258A78C00012020240F2
:10F00000487828400243812080001A500A78043052
:10F0100022401A5048798A790979002900D00324BE
:10F020008021D205800002432243642489005A5083
:10F03000FFF7E2FD002805D1002C01D10330D8E70D
:10F04000013CF5E7002CD3D10320D2E70040064075
:10F05000FFFF7FFF37B50400002908D16A4601236E
:10F06000917153718022694652000A808B70C022D0
:10F070001E4B92009D580220AD0109D498581C4D9A
:10F08000284098508020C0049850002C01D10020C6
:10F090003EBDE02007248A78C00012020240487872
:10F0A00020400243C12080001A5003200A78024009
:10F0B000C22080001A5048798A790921002800D09E
:10F0C0000839D2050A43C021142489005A50FFF799
:10F0D000ABFD002805D1002C01D10330D8E7013C5D
:10F0E000F5E7002CD3D10320D2E7C046004006400C
:10F0F000FFFF7FFFF0B585B001930AAB1C78019B41
:10F1000007005E1C13000133734302934B1C7343CF
:10F110000D0000920393022C3ED0032C3FD0012C13
:10F1200006D0012856D00020022F10D0002049E040
:10F13000FFF752FD0009012F34D0022FF6D10C2227
:10F1400062432F4BD3581B095E43B04239D80C227F
:10F1500062432B4B02999B185A6812095143814212
:10F160002FD39B68039A1B095A43824229D3F02369
:10F1700024061B051C400F23FF221D40009B2C432F
:10F180001B011340F0221C43019B12031B0413407C
:10F190001C431C4B9C61C9E7FFF72EFDCAE7FFF734
:10F1A00043FDC7E70C216143174BCA58120972434C
:10F1B000904206D85B185A68029912095143884256
:10F1C00002D9012005B0F0BD9B68039A1B095A4380
:10F1D0009042F6D8F02324061B051C400F23FF2283
:10F1E0002B401C43009B1B011340F0221C43019B3E
:10F1F00012031B0413401C43024B5C6196E7C0469C
:10F200000CA201000040064060A2010037B50400D6
:10F21000FFF7D2FCE578A378627821780095FFF7B4
:10F2200069FF00280FD10A220F25E178064C2369D7
:10F23000013A1B0E2B408B4203D0002AF7D103204A
:10F2400001E0002AFBD03EBD00400640F0B50700BB
:10F25000A7B0002823D0CE4E3C0033691B011B0F02
:10F26000032B0FD0FFF7E0FC011E04D10120FFF7B4
:10F27000F1FE051E10D1C74B07A80793FFF7C6FF85
:10F28000051E09D1FB78210018000393FFF78EFEBD
:10F29000051E4ED0FFF790FC280027B0F0BD80245B
:10F2A000012208AB640009949C83BB4C14AD0C9400
:10F2B000BA4C2A700D9412AC22700AACE777C024C5
:10F2C00024031094B64C04AD1594B64C0221169448
:10F2D000B54CFF319C87B54C9A8124941624239415
:10F2E0003D3464192270B24C9A731A941BAC22708C
:10F2F0007B24641922701CAC1992227021AA1180FF
:10F300007622AC48521913971D971E971F970890A5
:10F310001981198399842090118022AA17807A225A
:10F320005219177025AA11808622521917701F00D2
:10F3300091E739007B7F103118000493FFF7C0FD7F
:10F340003C0005000590FFF737FC3634012803D058
:10F350000434022800D00024059B002B9CD1E378C4
:10F36000032B00D001E1049B002B00D0EFE0039BB6
:10F370000125002B00D18FE78F4B07A80793FFF7DC
:10F3800045FF0500002D00D086E7B87BF91DFFF78B
:10F3900061FE051E00D07FE7032307A8C370A37892
:10F3A00083706378437023780370FFF72FFF051E87
:10F3B00000D071E73B0030331B78002B02D07F4B2D
:10F3C000FA6A1A603B0035331B78002B0BD0326A87
:10F3D0007B4BF0211A403B0034331B7809051B0698
:10F3E0000B40134333623B0043331B78002B00D0A8
:10F3F000F4E03B6F002B00D017E13B0044331A7858
:10F40000002A12D0FF246F486F4A416811405A7891
:10F41000D2020A43997809012140E0241143DA78A5
:10F42000E400120222400A4342601A79002A13D0F3
:10F430003F210C24634802698A43197A1143DA791F
:10F4400052000A4399798900214011435A792434A2
:10F45000120122400A4302611A7F002A26D00121AC
:10F46000584A106C8843597F014311640221106C83
:10F470008843997F4900014311640421106C88433B
:10F48000D97F8900014311640821106C8843390039
:10F490004531C97FC900014311641021106C8843B4
:10F4A00039004631C97F0901014311641B7B002BE0
:10F4B00006D0464B7A6D1A60BA6D5A60FA6D9A6042
:10F4C0003B004733DB7F002B23D000203D4A8024C4
:10F4D000936E906651683E4B640119403B0049337E
:10F4E000DB7F1B0323400B4353603B009066483394
:10F4F000DB7F83420DD03B000E214A33DB7F5B0074
:10F500000B4039004B31C97F0B43802149050B4328
:10F510009366380074300378002B00D1BCE67F215D
:10F520002C4A447893780B407E396140C9010B43E3
:10F53000DBB293700223C356002B01DA20335BB297
:10F540001F201179034081430B431371A4E6224B22
:10F5500007A80793FFF75AFE039B0500002B00D175
:10F5600010E7012800D00DE706E707A8C370A378CD
:10F5700083706378437023780370FFF747FE051E9E
:10F5800000D089E6B87BF91DFFF764FD0FE7C046A0
:10F59000004006400301000300127A00000100024F
:10F5A000030101010003030001020000A403002085
:10F5B00001000001010101010100000248190020C1
:10F5C000FFFFFFF0008004400FF0FFFF4C19002008
:10F5D000FFEFFFFF00D007400101000138003B00B2
:10F5E0003A003900393000783833373236311B78F9
:10F5F0001278097800900120FFF77CFD002812D1D5
:10F6000038003B003A0039003D3000783C333B3253
:10F610003A311B781278097800900220FFF76AFDD2
:10F62000002800D1E5E6050036E605211026FA6E31
:10F630004A439A189446114A03929C4500D1DCE64D
:10F640001A7803995200515A0D4A890089180A689C
:10F650000C48E02402400F200A601A79E4040240BA
:10F660005878800702439878000620400243D878F3
:10F6700005330001304002430A60DEE7FAA20100D0
:10F6800000500640FFFFFFBFF8B506000D0011282F
:10F6900035D80F2800D9ABE0F1F7EAFA080D0F557D
:10F6A000111417AA1A1D2025272A2C2F0020FFF736
:10F6B000CFFA00243EE00120F9E70220F7E7FFF748
:10F6C0009BFAF6E7FFF7B0FAF3E7FFF785FAF0E702
:10F6D0006E4B1868EDE7FFF743FBEAE700210420D3
:10F6E000FFF7E2FAE5E70121F9E700210520F7E756
:10F6F0000121FBE700210620F2E70121FBE7212899
:10F7000000D978E015380C2800D971E0F1F7B0FA8B
:10F7100007171B1E212B3D4F596165696D005C4B1E
:10F72000DB689B0100209B0F0400032B02D0594A89
:10F730009B009858002D00D028602000F8BD544B45
:10F74000DB681B01EEE7FFF74BFBB2E7FFF724FB9B
:10F75000AFE70020504B04009B78DB09012BE9D078
:10F76000FFF7E2FAE6E700204B4B04009B78DB0949
:10F77000012BDFD0464B1A6901231000184004000A
:10F780001A42D7D0FA20800093E70020424B0400B1
:10F790009B78DB09012BCDD03D4B1A690223100069
:10F7A00018401A4200D184E7FA20C00181E7002006
:10F7B000394B04009B78DB09012BBBD0FA204002B7
:10F7C000B8E7334B1B6C1B0901249C430020240227
:10F7D000B0E72F4B1B6CDB08F6E72D4B1B6C9B082F
:10F7E000F2E72B4B1B6C5B08EEE7294B1B6CEBE73E
:10F7F000002004249EE7042443289ED80020222EC3
:10F8000098D03200323AD2B2112A04D8234BD340D6
:10F81000DB0700D58EE7224B7200D35A214A9B00AA
:10F820009B585B0003D480240020640082E71E4BB9
:10F830009F5D2023380018401F4218D00120FFF799
:10F8400007FA0028EFD01823380018401F4200D1D3
:10F850002FE710243C403F0710D4002CE3D00121B7
:10F860003000FFF7FDFA44424441240262E77B0680
:10F87000E5D47BB2002BE6DA0220E0E7002130007D
:10F88000FFF7EEFA002CEED0E9E7C0464819002059
:10F89000008004404C19002000D0074029010200DC
:10F8A000FAA2010000500640B4A2010010B5044CB9
:10F8B000206021710020A2602373637310BDC046D5
:10F8C00058190020F0B585B003AE0090019130705A
:10F8D000717003F079FD2E4D00242B7B6B73012397
:10F8E000B3702B7BA34214D8009A2B689200D05897
:10F8F000FFF7ACFC009B071E6B7121D102230400B3
:10F90000B3702B7BA3422AD803F052FD380005B018
:10F91000F0BDAB68A200D358002B02D10134E4B291
:10F92000DFE71A79022AF9D030001A6899689047FF
:10F930000028F3D0019B6C73002BEFD10427FF3715
:10F940000023A400B370AB681B59002B03D0300018
:10F950001A6899689047043C231DF4D1D4E7AB683A
:10F96000A200D358002B02D10134E4B2C9E71A79BE
:10F97000012AF9D030001A68996890470028F3D01E
:10F98000019B6C73002BEFD182277F00BCE7C04640
:10F990005819002010B5FFF777FE10BD10B50A000A
:10F9A00000210AF0CFF910BD10B5054C8300206886
:10F9B000C01803685960036800209A6010BDC046F3
:10F9C00068190020094B82001B6810B5D358032228
:10F9D0001040074A1077D077002B06D05A68002ACB
:10F9E00003D0197B9868C9B2904710BD68190020F0
:10F9F0000080004070B5032405000D4E0440002235
:10FA00002100300000F0D0FA0A4BAD001B68EB5823
:10FA1000002B0BD001223477F477B4771A735A682D
:10FA2000002A03D0197B9868C9B2904770BDC046C0
:10FA30000080004068190020F0B501248BB00993C4
:10FA400010AB1B78089205932300059A069093400B
:10FA500004936B4607911198197CF1F799F92000EE
:10FA60000D1E5CD10323069A334F1A401100380053
:10FA7000039200F09FFA8021039B09025C012F4B47
:10FA8000E619E218138838009B049B0C0B43138083
:10FA900080223B68039993433B608023089A5B0173
:10FAA000F250274B099AE3181A60059B2A0001932C
:10FAB00000932B0000F0B6FA079B032B17D8180011
:10FAC000204AF1F7D5F8020B2E346B461B7CB55259
:10FAD0005BB29BB21C4AA218138008E06B461B7CE9
:10FAE0005BB29BB2B3520022174BE3181A80119AF3
:10FAF0000399114800F0AEFA01220F48039900F073
:10FB000029FB0E4B0020E418022322889A4313435A
:10FB100023800E4B1A68069B9B009B5818730BB0F2
:10FB2000F0BD6B461B7C5BB29BB2B352D2E7064B77
:10FB3000B552E3181D80DAE7008000401C900040B9
:10FB4000109000400410000014900040681900203C
:10FB500073B5040009AD06A800782E78079D0090C3
:10FB600001952000FFF768FF051E0FD103231C40FD
:10FB70002100089A064800F0EDFA0822054B6401BE
:10FB8000E4182388F60093431E432680280076BDA0
:10FB9000008000401C900040032110B5014001226C
:10FBA000024800F001FA002010BDC046008000406D
:10FBB000032110B501400022024800F0F5F90020B1
:10FBC00010BDC0460080004070B57F253F260B4B1E
:10FBD00031401C5C92012C401C541C5CB4430C430F
:10FBE0001C544024195CA1431143C9B2195480210B
:10FBF0001A5C2A400A431A54002070BD00100240CB
:10FC000003231840024B400189B2C018818070471D
:10FC10000090004003231840024B4001C0180160CF
:10FC20007047C0460C90004003231840024B40012F
:10FC300089B2C0180180704714900040032110B5AC
:10FC40000140024800F0B0FA10BDC04600800040FC
:10FC5000032308221840044B4001C0180388C90040
:10FC600093430B43038070471C90004070B5040021
:10FC70000D00002835D0002933D020212800FFF7BF
:10FC80008DFE0721637A227E0B40E021D2021343CE
:10FC9000227AC90012020A40FF211343627ED20079
:10FCA0000A4013432200EB80236828322B606389CB
:10FCB000AB80E369AB602369EB6063682B61A38968
:10FCC000AB82E36A1968631C89B2E982DB7F002B8F
:10FCD00008D0636AAB611023127852001343AB83E0
:10FCE000E98370BD6069A86112785200F6E70000F0
:10FCF000F0B5032606400C0085B03100504800F0F6
:10FD000059F980224E4B7501EF184E4B1202EB1839
:10FD100003931B884A489B049B0C1343039A13804C
:10FD2000802322685B01FA50474B6268EB181A6027
:10FD3000617A637E227E0191217A0091310000F088
:10FD400071F96289414BFA52414BA289EB181A8032
:10FD5000404B2269EB181A60631CDA7F384F10237E
:10FD6000002A5CD0039A3100128838009A4313436A
:10FD7000039A1380626A00F0B3F90222314BE9184A
:10FD80000B88934322002832127852001343E26A10
:10FD90000B80002A4DD03B681B0608D52E4BE91876
:10FDA0000868137940004008DB0703430B603B6899
:10FDB0001B0608D5284BE8180168284B19405379D1
:10FDC0009B070B430360310092681D4800F066F901
:10FDD000E26931001A4800F03DF9E26A3100137B14
:10FDE0001748527B00F084F9E26AF024154B240195
:10FDF000ED18D37B28881B022340194C917B2040AF
:10FE0000034320202B802B88490183430B43126836
:10FE100031000B482B8000F09DF905B0F0BD039A2E
:10FE200012889A43039B1A800E4B6269EB181A6082
:10FE3000A3E73100E269024800F00CF9EDE7C046A3
:10FE4000008000401C900040109000400410000012
:10FE5000149000400C90004008900040FFFFFFBF4E
:10FE6000FFF0FFFF18900040F0B50024012799B083
:10FE7000039320AB1B7816000793434B82001B684B
:10FE80000690D35803981C733B00B34001936B4614
:10FE900002919988F0F77CFF0CAD28000591302184
:10FEA000FFF77CFD102108A8FFF778FD039B08AA47
:10FEB000139316AB1F70112317929B189480147321
:10FEC00094731F22DF772700029B2E721F33934308
:10FED0006E722C83203B1E9E1F9D109411940293E2
:10FEE000079B9F4240D10598431E984180B248E04D
:10FEF0002A7A337A04929A4242D10399F0F7C2FEE9
:10FF0000049B0890032B08D81800F0F7B1FE021DDF
:10FF1000212600236381019BA381079B00215A1E98
:10FF2000D2B2FBB29A4201D0029920311591002F32
:10FF300015D106980CA9FFF7DBFE029B0137203391
:10FF400002930C360C35CBE7019B63810023E3E77A
:10FF50006B4604229B5E6381DEE70023FBE7029988
:10FF60000CA8FFF783FEE8E7059B002B08D1336858
:10FF70000CAC0C932B68706863606B689842B7D0C8
:10FF8000012019B0F0BDC04668190020034B800065
:10FF90001B68C358187BC0B27047C0466819002060
:10FFA0000048704700800040002A01D0C1767047A9
:10FFB0008176FCE7114B49014018C21800231360F9
:10FFC0008022520183500E4A83520E4A83520E4AB7
:10FFD000821813600D4A821813600D4A821813802C
:10FFE0000C4A821813800C4A821813600B4A82183C
:10FFF00013800B4A801803807047C0460810000029
:020000021000EC
:1000000004100000061000000C100000101000008A
:100010001410000016100000181000001C10000042
:100020001E10000070B5FF2604AC257805AC2478BE
:10003000DB003340F83E34401C43E023D202DB00B7
:100040002D021D40144380312C434901A4B24018B5
:10005000C48070BD036810B549011B0617D50E4C4E
:1000600043181B191C68002C06DB1C68640003D4B1
:10007000920092081A6010BD074B4118C9180B680E
:1000800092059B0A9B02920D1A430A60F3E7024B0A
:100090004018C0180260EEE708100000036810B5B1
:1000A0001B0609D50B4C490143181B191C681B681A
:1000B000002C02DB5B0000D410BD064B4018C018BA
:1000C0000368054992020B4004490A401A43026042
:1000D000F2E7C04608100000FF0300C000FCFF3F2D
:1000E000024B49014018C018026070471810000008
:1000F00049014018134930B545182C881249640449
:10010000640C4018002B17D0104B52021C43A4B2B1
:100110002C8001884904490C0B43F0219BB20380D9
:1001200049012B880A400A490B4013432B8003885E
:100130000B401A43028030BD2C8003885B045B0CAB
:100140000380F8E71E100000161000000080FFFF7B
:10015000FFE1FFFF124B4901401810B5C418218878
:1001600013B2104A09B28018228800290BDADB0585
:10017000520AD90D52020A43228003885B0A5B02AD
:100180000B43038010BDD20B5B045B0CD2031A43FC
:1001900022800288D20BD2031A430280F2E7C046C3
:1001A0001E10000016100000084B49014018C3182B
:1001B0001B88074A1BB280180088002B02DAC00592
:1001C000C00D70474004400CFBE7C0461E10000005
:1001D0001610000010B50020FFF7F4FB10BD10B59D
:1001E0000120FFF7EFFB10BD10B50220FFF7EAFB7F
:1001F00010BD10B50320FFF7E5FB10BD70B5002062
:10020000FFF7CEFE00240126C56A354202D0200049
:10021000FFF7F0FB0134E4B26D08042CF5D170BD9A
:10022000F0B5364B87B005928200D4580390250074
:100230000491FF35AF7C012F16D16379032B13D1C5
:100240002F4E336B5B093B420CD0300000F0F8FFBF
:1002500020232C4937630A68326B1A42FBD12848A5
:1002600000F0DCFF0023637163790220002B20D1B2
:10027000234E33689B0027D50127059B6771A37127
:10028000049B2360AB7C002B0ED13A00062130008A
:1002900000F080FF3A000721300000F07BFF3A00B9
:1002A0000521300000F076FFAB7C0493012B02D0D7
:1002B000002007B0F0BD1449687C039AFFF774FB77
:1002C000071E03D0002363710120F2E710230221EF
:1002D000687C0193009123680C4AFFF7ADFB061E72
:1002E00001D06771F0E7687C0499FFF7B1FC687C86
:1002F000FFF752FC0028DBD06671E5E76C1900209F
:10030000004002408C400240B103010080400240A6
:10031000F8B5254B8200D45806002700FF37BD7C76
:10032000002D2AD12A000521204800F033FF2A00A1
:1003300006211E4800F02EFF2A0007211B4800F06E
:1003400029FF002263792260032B0CD02300627105
:10035000FC335D68954206D0BB7C012B03D12300A2
:1003600008213000A847A379002B05D06379002B22
:1003700002D1201D05F052FDF8BD6379032BE0D0BA
:100380002568787CFFF714FC2B689A0202D46A680F
:10039000920C6A601B031B0F2B74AB681BBAAB601B
:1003A000EB681BBAEB60CCE76C1900200040024000
:1003B00070B5C4B201290DD10322084B8000C35887
:1003C0005A711A00FC325568002D03D0002220001B
:1003D0000831A8472000FFF79BFF70BD6C19002073
:1003E00070B50C00094B8000C558E4000022084895
:1003F0002E1900F0CFFEB379002B03D00434281956
:1004000005F00CFD0023737170BDC0466C1900200F
:10041000004002401F2803D801238340014A136390
:100420007047C04600400240F0B58BB0039310AB5C
:10043000150004CB80001B780E0005931A4B049224
:10044000C4581A4800F05AFD86422AD20227F30007
:10045000E41863793800002B21D13000FFF7DAFF70
:10046000059B6771A371EB7A297806AA6868E37126
:100470001171A97A90602889917390810C21002BC9
:1004800000D010310193049B069100933100039B2F
:10049000064800F0EFFF002801D0002363710BB085
:1004A000F0BDC0208000FAE76C1900200040024037
:1004B0001149124A70B58B58114C07262340F82475
:1004C0008B500368E4019B02234084688D583440BC
:1004D0002C43FF252343446864012C402343C46814
:1004E000084D24052C402343E0240069E402000465
:1004F000204003438B5070BD00400240040C0000BC
:10050000188308C00000F03F30B51F250F4A136D57
:10051000DB0FDB0713658168146D29402143F82444
:100520000368A4009B061B0C0B4341684901214052
:100530000B43C168064C490521400B430169F82073
:100540000904400301400B43136530BD00400240E5
:100550000000E07F104A1149536810B50B40072195
:100560005360036854680B40C16809060B4323437A
:10057000E0248168E40209042140E0240B4341683F
:10058000A403C90421400B430169C020890500046C
:1005900001400B43536010BD00400240F8FF0000D3
:1005A000F7B5164E0193164B8000C75830000C006B
:1005B000150000F0A3FC84421DD233689B0006D5D1
:1005C000736B1B011B0F5B0007339C4213D9E600C2
:1005D000BE1973790220DFB2002B0BD10122019BDF
:1005E0002100064872713560B37100F0D3FD002818
:1005F00000D07771FEBDC0208000FBE700400240C4
:100600006C19002070B5114C0D002368DB0106D574
:10061000002916D123680E4A134023600BE0200006
:1006200000F00EFE002D07D12368094A1340074849
:10063000236000F0F3FD70BD802322685B0213434A
:10064000F5E7802322685B021343E6E7004002409F
:10065000FFFFFEFFF7B5394E140032681D008023FE
:100660000F0011005B04194001911A4209D07F224A
:1006700033681340A34201D31F2C10D9C02080003F
:1006800037E0300000F0DCFD7F22336813409C42ED
:1006900001D81F2C03D9294800F0C0FDEEE73368CC
:1006A0009B000AD4002F3FD1254BAD041D40882369
:1006B0009B00E418A400355117E01E22736BDB0D7C
:1006C000134007339C42EDD833689B05D340882202
:1006D00000939200013BA418022B0BD92A000021A1
:1006E000380000F0E3FBA4003051019B002B20D028
:1006F0000020FEBD6B462A001978380000F0D6FBBA
:10070000009B012B05D0022B08D00123A4005B42E3
:1007100002E0030C0343A4003351E6E7030E020C8E
:1007200013430343000AF5E7012FDED1ED00ED0886
:10073000BDE7024800F072FDDAE7C0460040024023
:100740000000FC1FF0B55E4E89B033680D00140048
:100750000190002B05DB300000F072FD300000F04E
:10076000EFFB8021637A89015B0372680B40554976
:1007700053480A401343736000F0C8FB504800F030
:100780005FFD4F4800F0EAFB237A002B02D00120E6
:1007900009B0F0BDA379022B04D080223368920205
:1007A000134333606379002B5AD123003433009311
:1007B0001B78012B5BD133689B00E8D5802233681E
:1007C000120213433360E1793D4800F01BFE2168BB
:1007D0003B4800F0FFFF0028DAD1230032680C33D9
:1007E00003AE120549D5320083CB83C203CB03C2CB
:1007F0003000FFF789FE23003200203383CB83C211
:1008000003CB03C23000FFF753FEA1792C4800F060
:10081000ADFDA379032B02D0294800F0FFFC0A208C
:1008200002F0AEFD0A2002F0ABFD0A2002F0A8FDA6
:100830000B2002F0A5FD0B2002F0A2FD2E000027E8
:100840000021301D05F0FBFAFB0000281ED0043506
:100850005C19AC429BD0280005F0FBFA0835F8E79C
:100860002179174800F0AEFB00289ED090E7002BBE
:10087000A9D13368144A1340A4E7320083CB83C262
:1008800003CB03C23000FFF765FEBEE7EB1801376C
:10089000B071306058710836202FD1D12B00009AEA
:1008A000FF33127835349A742278033B1A75019A13
:1008B00058609860D8601861044B9200D55067E783
:1008C00000400240FFDFFFFFFF7FFFFF6C190020A9
:1008D00070B5104886B00D0014001E0000F07EFDBB
:1008E000002814D1237802AA1371A37A6168937344
:1008F00008239160218902939181E37A2900019371
:1009000000903300034800F0B5FD06B070BDC02074
:100910008000FAE700400240F7B505000D480C00E2
:1009200016001F0000F05AFD002810D1089B01900E
:10093000009332003B0021002800FFF775FD0028DE
:1009400004D101222100034800F024FCFEBDC02098
:100950008000FBE7004002407FB51C480D001400FA
:100960001E0000F03BFD00282CD16A466368280079
:10097000029323781371237A1373FFF74BFD0F2330
:100980006A46009329003300104800F057FE041E09
:1009900015D1009033006A4629000C4800F04EFE45
:1009A000041E0CD104236A46009329003300074833
:1009B00000F044FE041E02D12800FFF72BFD2000AA
:1009C00004B070BDC024A400F9E7C0460040024056
:1009D00070B50B4C0D0023681600DB0103D5200019
:1009E00000F020FB70BD200000F02AFC2000320047
:1009F000290000F017FB200000F010FCF2E7C046D1
:100A00000040024070B5050007480C00160000F0D9
:100A1000E5FC031E05D1320021002800FFF7C0FDD0
:100A200070BDC0208000FBE70040024010B50022EE
:100A3000FFF7F6FB10BD0000F7B5294B8600F5580F
:100A40000193002D1CD02B00FC33DB68002B17D04A
:100A5000802100222348C90100F0ACFB8021002244
:100A60002048C90000F0A6FB802100221D48090192
:100A700000F0A0FB802100221A48090200F09AFB36
:100A80000A2002F089FC0A2002F086FC0A2002F00B
:100A900083FC144C0B2002F07FFC0B2002F07CFC4A
:100AA0002368002B05DB200000F0CAFB200000F0CB
:100AB00047FA002D04D10024019B9C512000FEBD6B
:100AC00000242F1D0535FF35380005F0C2F9002838
:100AD00000D001240837BD42F6D1002CEBD0EDE761
:100AE0006C19002000400240074B8200D25810B51C
:100AF0001300FC33DB68002B01D00A219847034820
:100B000000F0ECFB10BDC0466C1900200040024014
:100B1000F7B5174B174C8200D658236801905B0439
:100B200024D5154D63599B030ED5802362599B0232
:100B3000134363513300FC335B681F1E04D0330042
:100B4000002205210198B8476359DB030ED58023A5
:100B500062595B02134363513300FC335C68002C21
:100B600004D03300002206210198A047F7BDC046FB
:100B70006C19002000400240080B0000F0B58B4BC0
:100B80008B4D8200D758AA6A2B6B00241340012298
:100B90008BB001901340002B44D02B689B004BD4AA
:100BA000E600BB1902935B79012B39D12100804803
:100BB00000F0AAFD029B21001A687D4800F0A9FD03
:100BC0002000FFF727FC2B689B0000D49BE0029BD2
:100BD0001B681B681B011B0F00D094E021007448A8
:100BE00000F02FFC734A03681340036080230268FF
:100BF000DB04134303600021029B59713B00FC336B
:100C00005B681E008B4203D03B0022000198B04776
:100C1000029B5B79002B03D121000198FFF7E0FBD9
:100C2000029B5FE00134202C00D1A5E0A96A2B6B68
:100C30000B40E3401340AEE7072CB1D8052C39D167
:100C40003E007B792D36DAB203920296012B16D044
:100C500033001B78022B08D0AA6A2B6B1340E340A9
:100C6000DB0700D577E00BB0F0BDE600BB190293BF
:100C7000DB79002B49D12000FFF7CCFB54E0396829
:100C80004B4800F033FB202300222B633B007A719A
:100C9000FC335B681E00934203D03B00039901982C
:100CA000B0477B79002B01D0029BD2E70198FFF778
:100CB0002FFBF9E7062C11D140232B633B003E00AC
:100CC000FC335B6835369C460296002BC0D03B0057
:100CD0000022022166460198B047E5E7072C03D0C1
:100CE000E300FB185B79B5E780232B633B003E00F4
:100CF000FC335B683D369C460296002BA8D03B0037
:100D000000220321E6E7AB6875E72100284800F0E0
:100D1000FBFC2100264805AA00F0FBFCAB68059B04
:100D20001B011B0F042BA6D00023029A53713B001A
:100D3000FC335B681E1E04D03B0022000421019896
:100D4000B047029B5B79002B00D085E7210001981A
:100D5000FFF746FB80E72B689B0009D5072C07D8D7
:100D60007B79002B00D07EE72000FFF753FB7AE76A
:100D7000E300FB185B79F4E7019B002B0AD10E4BD3
:100D8000EA58EB58520C1B0C1343DB0702D50198B1
:100D9000FFF7BEFE0221EA692B6A0B40134300D124
:100DA00061E70198FFF7A0FE5DE7C0466C190020DF
:100DB00000400240FFFFFFF0080B0000074A8000E0
:100DC000CB0081580020C9184B79834204D0487960
:100DD0000338431E984101307047C0466C1900200B
:100DE000014B186A7047C04600400240034B800028
:100DF000C358FC3359609A607047C0466C19002094
:100E0000224B8000C3582248FC3370B51A61026837
:100E1000D960802315005B040C001D401A4201D1EB
:100E200000F00EFA002C1DD0802101221848C901C3
:100E300000F0C0F9802101221548C90000F0BAF97C
:100E4000802101221248090100F0B4F90122802119
:100E50000F48090200F0AEF9002D02D10C4800F055
:100E6000DDF970BD802122000948C90100F0A2F916
:100E7000802122000648C90000F09CF98021220050
:100E80000348090100F096F92200E0E76C19002000
:100E900000400240082806D90938C3B20020062BBA
:100EA00001D8014AD05C704784A3010003000129E6
:100EB00012D00020022918D081420CD1900F800757
:100EC000002B03D10B4BD2041A4003E0012B02D1BB
:100ED000D200920810437047900F8007002BF1D08A
:100EE000012BF8D1044B1204EEE7012BF3D81006C6
:100EF000F1E7C0460000F83F0000FF3F024BC0187A
:100F0000434258414001704700C0FDBF0368DB0207
:100F100010D50368084A5B005B0803600368134050
:100F200003600368054A1340036080231B050268C1
:100F30001A42FCD17047C046FFFFFFBFFFFFFFEF23
:100F40000368002B09DB802302681B061343036040
:100F500080235B0302681A42FCD07047802370B57F
:100F6000040002689B041A430260226815001D40B9
:100F70001A42FAD1802322685B01134323602000C8
:100F8000FFF7BCFF2300020180339A18934212D16D
:100F9000882300221B01E3188000181883420CD11B
:100FA000012300225B4223616361A361A262236388
:100FB000034B236270BD20C3E8E704C3EEE7C046DD
:100FC00006003B000268802370B516001B01040078
:100FD0000D0001201E401A4218D12000FFF78EFF9D
:100FE000802322689B051343F022236012052D06FF
:100FF000636B1540094A80B213401D430123084A20
:101000005B426563A364864201D3002070BD8823E0
:101010009B00F3189B001A510136F4E7FFFFFFF025
:10102000FFFFFF1FF7B50400636B08001B011B0FD8
:1010300003291ED8EFF71CFE02215A9F2168514850
:10104000802501402000013321609B014E4CE0309F
:10105000D318ED05167857785168F607002F09D098
:10106000C90089082E43891908320160043093426F
:10107000F0D1F7BDC9042140F5E720684149802639
:101080000840802149000143802720000133DB0113
:10109000D3182160E0300193F605FF011378147A2C
:1010A00055785168DB07E403002D16D0374D490011
:1010B00029403343C9180160517AD368002910D000
:1010C000DB0001689B0C3C431B190B430360019B35
:1010D000103204309342E1D1CBE72B4DC9042940B3
:1010E000E8E72B4DDB0001682B40EDE72068254940
:1010F000FF25084080218900014321602000FF2452
:1011000001331B02E030D318240456785168002EB6
:1011100025D00668490D09063143567A0160D16829
:10112000002E1FD00668490921403143567C0160DA
:101130005169002E19D00668490D0906090C314382
:10114000567E0160D169002E12D00668490D2940F3
:1011500031432032016004309A42D6D189E70668D3
:10116000C908D8E706684903DEE70668C908E4E766
:101170000668C908EBE7C02322689B00134323607D
:1011800077E7C046FFFCFFFF0000F83F0000FF3F8D
:10119000F83F00001F2906D801238B40002A04D005
:1011A000826A1343836200207047826A9A43826294
:1011B000F9E70000002A1AD08023DB00994208D109
:1011C000802302689B031343036043680B4343601F
:1011D000704780231B019942F2D08023DB019942A2
:1011E000F3D18023426B1B0613434363EDE743684F
:1011F0008B4343608023DB01994203D1436B5B0047
:101200005B084363C02342681B011A42E0D10368B4
:10121000014A13400360DBE7FFFFDFFF0368064A74
:10122000134003600368054A1340036080235B0496
:1012300002681A42FCD17047FFFFFFEFFFFFFFBFBC
:1012400080230268DB0513430360802302685B058B
:10125000134303600368012230B5002B04DA0368EE
:101260009340D340002203600023836005688024FC
:10127000290024012140254222D180235B040468F7
:101280001C4201D1B32925D90368DB010BD480218D
:10129000856A0468036889040B43036003680B4292
:1012A000FCD185620460002A09D1802302681B06F4
:1012B0001343036080235B0302681A42FCD030BDF5
:1012C00080240549640405682542DDD18B42DBD8C2
:1012D0008368F8E78168D2E7D9020000026A024B0E
:1012E0001A4200D00362704706003B000300F0B5CD
:1012F000071D0400F86F85B000038833000F0D0050
:101300000E000193FFF7C6FD2874FB6F08360090AE
:101310002B6008349B0212D5E36F03226B6033000D
:101320001340164220D1009A9A421BD901999A087B
:1013300092008918096809BAB1500433F3E7E36FE2
:101340009B0CEAE7019AA3089B00D3181B681BBA01
:101350000422301903A9039308F00AFD0434009B0A
:10136000A342EFD805B0F0BD0024F8E7030010B5A4
:101370000800042907D8EFF77BFC0D1A1E030700AD
:101380001800FFF75DFF10BD8022196812060A439E
:101390001A60F8E71A680E490A4008211A605A686C
:1013A0008A435A605A680B490A405A60EBE70822A0
:1013B00059680A43F9E78022596852010A43082113
:1013C0005A605A688A435A601A6803490A40DFE73C
:1013D000FFFF7FFFFFEFFFFFFFFFFDFF026803003E
:1013E0007F2002407E388A420BD31A680020920088
:1013F00007D55B6B1B011B0F5B0007338B42404122
:10140000C0B27047036810B51B0507D5C022120192
:101410008358034C090423401943815010BDC04632
:10142000FFFFFCFF02680823120508D5C0231B013B
:10143000C35801209B039B0F033398400300D8B28D
:10144000704770B50E000400FFF7ECFF0830C5B21E
:10145000802029008000EFF715FCC1B23000EFF7C3
:1014600097FCAD086943C001091820318900601854
:1014700070BD0000F0B585B001930AAB150004CB38
:1014800006001B78009202930F00FFF7DAFF7F221D
:1014900033680400134080229205BB423BD333687B
:1014A000134249D133681B0509D5AB7B002B06D00D
:1014B000C02280231201B1581B060B43B350AB6806
:1014C000FF27DAB2402A02D8594A3B40D75C009B3A
:1014D000002B33D10023236063602B79012B7CD157
:1014E00063685B0F5B076360019B6268DB00DB087E
:1014F0001343C0226360D2032B680F2B00D193E00B
:10150000F0213F0409030F4017431C2B75D18022A3
:101510005203174374E0336813420AD0C02292008A
:10152000736B1B011B0F5B0007339F4201D9002A1D
:10153000B8D0C020800078E00022F1E7F8B2FFF7D1
:10154000A9FC260003900320009B009A0836034064
:10155000024238D1AA688243934225D29A08920067
:10156000B1188C4600998A5812BA614604330A6051
:10157000F0E70099009A8C469C4461464978D25C19
:101580000902114362469278120411436246D278EE
:1015900012060A4399088900711812BA0A600433C6
:1015A000AA6882439342E4D30321AA689A420CD8E2
:1015B0000321039B93428DD90B00687B5340F318A2
:1015C00018700132F5E70023EAE70A0000985A4054
:1015D000C05CB21810700133E7E7002B01D0002285
:1015E0008AE76368134A144913406360019B626889
:1015F0009B040B4013436360F1E7029A002A86D1F3
:10160000F0221B06120513402A7B3B43002A02D01E
:10161000802212061343AA7B002A02D08022D20520
:101620001343226813432360002005B0F0BDC04679
:101630008BA30100FFFF03E00000FC1FF8B50500CD
:1016400016001C000F00FFF7FCFE7F222B681340E2
:1016500080229205BB422BD32B68134239D1002341
:10166000036043603379012B35D1802302689B03EB
:101670001343036003681F4AE40013400360436898
:10168000E4085B0F5B07436043681C4344603368B6
:101690000F2B0BD0F0210368174A09051340036094
:1016A000336802681B060B40134303600020F8BD3B
:1016B0002B6813420AD0C02292006B6B1B011B0FD8
:1016C0005B0007339F4201D9002AC8D0C0208000A8
:1016D000EDE70022F1E7002BD9D10368074AA40403
:1016E000134003604368064A1340064A4360436858
:1016F0001440CAE7FFFFBFFFFFFFFFF0FFFF9FFFA0
:10170000FFFF03E00000FC1F10B5FFF79AFE03681F
:1017100010BDF0B5150085B00400FFF792FE2B0058
:101720000700006808330003000F0193FFF7B2FBC6
:1017300006002000FFF776FEB04203D22000FFF73C
:1017400071FE06002E743B682B609B0217D57B68E8
:101750006B600323019C019A1C401A422CD131007A
:1017600099438C4221D2A3089B001A000832BA1870
:10177000126812BA01980434C250E4B2F1E77B68EF
:101780009B0CE5E7A3089B000833FB181B681BBAFA
:10179000200008300422281803A9039308F0E8FA6F
:1017A0000434E4B2019B9C42ECD303222D19013591
:1017B000B44206D305B0F0BD32009A430024019232
:1017C000F0E7130063400833FB181B780134EB711A
:1017D000E4B2ECE7F8B50E000400FFF723FE751E37
:1017E000070029002000FFF72CFEA023C0199B0052
:1017F000E318083083422AD32000FFF77FFBB04272
:1018000025D37F2321681D40994329432160226805
:10181000802315009B051D401A4212D00020F8BD00
:1018200029002000FFF70DFE082100220300494295
:10183000026008334260081AC1188F4204D801358B
:10184000EDB2B542ECD3E9E71A700133F4E7C020FA
:101850008000E4E710B50020FFF790F910BD10B547
:10186000FFF7F8FF10BD0000F7B5104B8700FD58DB
:101870000C000193002D16D1481C04F0CDFA022271
:101880000B4E1920B3681343B360B56001F078FDC7
:101890000122B3681343B360019B25706560A560A6
:1018A000E5602561FC500020FEBDC0467019002097
:1018B00000A00540F0B501243E4E87B083000390A0
:1018C0009859019303783C4D05930B7A0F000293CE
:1018D0006B680121DBB20493029B01309C404942BA
:1018E00004F096FA029B049A013CE4B2934230D889
:1018F0000023059A14420CD0029A0133DBB2D218AD
:1019000004996400D2B2E4B28A42F2D9039B9B00EC
:1019100020E07B72019BF05803781C430470013077
:1019200004F078FA019BF258131D1432196800294B
:1019300017D11F6003223B7A787A01939446030003
:10194000019A8218934210DB0020039B38607B6071
:1019500005E0019BF058013004F05CFA012007B06B
:10196000F0BD04339A42E1D1E4E7072412499A001A
:10197000561812495218D16FA1438024D16761468D
:10198000E40032598A43325101229A402E6AD1B280
:101990008E432E626E6A01338E436E62AE6ADBB294
:1019A0008E43AE622E6B8E432E632A616A61AA61FA
:1019B000C6E7C0467019002000A0054004A00540FD
:1019C00070B54568124EAD000300A8590100021D14
:1019D000143114689C4216D10021116001241A7A36
:1019E000012194405B7A013CE4B29C4049420130C1
:1019F00004F00EFA70590378A3430370013004F029
:101A000009FA002070BD04329142E2D1E6E7C046F7
:101A100070190020F7B50127134B196A1A695D6A1E
:101A200011405A699E6A9B6900911E400F4B1540F8
:101A30001B681C1D14330193206800280FD0026816
:101A4000002A0CD03900037A99400B00417A013BFF
:101A50008B40009929433143194200D09047019BA4
:101A600004349C42E8D1F7BD00A005407019002065
:101A7000F7B54268434B477A9200D458BB00E3184D
:101A80001A1DD16F06004048019301400720D1671D
:101A9000D16F8143D167791CC9B28A00A218151D84
:101AA000EB6F83438020EB67019BC0001D5803232D
:101AB0009C469D43019B1D50634615589D43155000
:101AC00001252B008D40BB4030216361FC326561F4
:101AD0002561A36150681F00884384462020634627
:101AE0001843019B5060FC335A688A431143596084
:101AF00033002C33256101931B78002B1FD0022B60
:101B00002AD03300012232331A7002331B78002BA3
:101B100003D03000333004F081F9B369002B0DD0CD
:101B2000F38D002B0AD1330030331B78002B05D006
:101B3000019B1B78022B01D0144BF385F7BD236A60
:101B40003D43EDB2AB432362636AFFB2AB436362D2
:101B5000A36ABB43A362D4E7FF232900626A19404A
:101B60008A436262A26A3B409A43A262707FFEF798
:101B70001FF8307FFEF71CF83D43236BEDB2AB43FB
:101B80002363BEE7D4A30100FFFFFCFF02020000B5
:101B900070B542682C4B0400457A9200407FD658BD
:101BA000FEF7F4F9012802D10123E38541E0207F0B
:101BB000FEF7ECF90128F7D071696B1CDBB2D94054
:101BC0000122114204D09A40802372619B00ECE70D
:101BD000B369EB40134212D0AA40638D013B9BB224
:101BE0006385B261022B0BD1A021AD007519C9002C
:101BF0003E346A582378D2B21B0213436B5070BD37
:101C0000012B09D19021AD007519C9000F4B6A58FD
:101C10001A4080239B01F0E7002BF0D19021AD000A
:101C20007619C9007258094802407250E28D022AA2
:101C3000BBD02000FFF71CFF236A002BDFD004205D
:101C4000616A9847DBE7C046D4A30100FF8FFFFF1E
:101C5000724BF7B59C466246436804009B009A5855
:101C6000437A50690121D840084203D099406C481A
:101C7000E08551615569591CC9B2CD40012005422A
:101C800014D01569DD4005420CD180239B00E3850B
:101C90002000FFF7EDFE236A002B6DD00420616A5F
:101CA000984769E088405F4DE585506110690125DE
:101CB000C840284239D0A020890051188000085817
:101CC0002600019020003136377830300578002F1B
:101CD0001DD101203070002D27D03025980010181C
:101CE000FC304668AE43103D35434560A06901288D
:101CF0001BD19D005519FC356E682F308643064375
:101D00006E60FC314D688543284348600DE0A6694C
:101D1000013EA661002D08D02569019E2E7025691F
:101D20000135256100780028E0D11169D940C90743
:101D30000DD560466168890045586069617A002860
:101D40001BD101219940106AC9B288431062916980
:101D50000120D94001420FD02100323109780029F9
:101D60002CD090219B00D318C9005A582E4802400D
:101D70005A502000FFF77CFEF7BD01386061A031AA
:101D8000002809D12600353636788900002E01D189
:101D9000FF2000064851D4E72000303000780028AA
:101DA00004D0FF20890000064851D0E7E068890090
:101DB000067801303606E0604E51C8E79840618DE4
:101DC000013989B26185906102290BD1A0209B0065
:101DD000D318C0003E3419582278C9B212020A43FF
:101DE0001A50C9E7012909D190209B00D318C000DF
:101DF0000D4A1958114080229201F0E70029BBD109
:101E000090209B00D218C0001358074D2B40135050
:101E1000E38D022B00D03BE7E18539E7D4A3010035
:101E20000102000002020000FF8FFFFFF0B5B7B013
:101E3000099242680893A84B9200D55801220300EA
:101E40000591110036331B78040099400B00010006
:101E5000373109788A401343EA68DBB21A4093426B
:101E600000D0ECE1437A12260793059B00218361A1
:101E70005A1C0223C385030056434261099832333A
:101E8000B71CD870FF37089819703F0A023B01361B
:101E900018705970F0193900EEF7F4FEA022079B74
:101EA000D2009B00EB189A589446421E1202110071
:101EB0006246D2B211438AB2A021C9005A507A1E9A
:101EC0004243B61A22003E3267851670012F08D1B0
:101ED0009020C0001958814A1140802292010A4383
:101EE0001A50072602221F1DF96FB1430A43FA67F1
:101EF000079A0132D2B20A929200AA18101DC16F3D
:101F0000B143063E3143C1678021C90058588C4611
:101F10000321884361463043585050580321884379
:101F2000014360461150F96F6D4A11408022520200
:101F30000A43FA6722002C321278B24226D0022AD3
:101F40002DD0002A1FD101F03FFA2200238D30321C
:101F5000B34012789B18627A3400A0321B069200BC
:101F60005351079B0A9A9C4096402B6A2643F6B22F
:101F700033432B6201F01CFA6B6AE4B233436B62A9
:101F8000AB6A1C43AC62002037B0F0BD228D0899CB
:101F900052008A18A021120689005A50F3E7230044
:101FA0001F225E3393430693089B002B00D08DE0E5
:101FB000E3681293059B079A13930123A0329200C2
:101FC00005982700AA18033224AE24922590337274
:101FD00027920222099812A9013839370B723870FA
:101FE00016932893159733750B75607F02920091B5
:101FF000002206990196FDF737FF230030331B7846
:10200000002B03D00021607FFDF7FAFD069BA66937
:102010009A8B08231343069A938362682E4B92008F
:10202000D3580893237F0B933A239C46A4446346DA
:102030000593637A0C930133DBB20E93A0339B00BC
:102040000F930F9A089B94466344099323003033FF
:102050001F780123002F45D1F6183900039301930F
:10206000099A059B0B9802960097FDF771FD3900C0
:102070000B98FDF7D9FD01273E00607FFDF78CFD31
:10208000207FFDF789FD0A9B696A9E40FF2332008D
:102090001A400A436A62079A9740AA6A3B40134370
:1020A000AB6201F091F92200238D303212785B008F
:1020B0009B18627A1B06A032920053512A6B3E4352
:1020C000F3B213432B6301F073F95CE72300FF22A3
:1020D00038331A706DE7C046D4A30100FF8FFFFFAD
:1020E000FFFFFCFF0020059F099A2497771E0D979C
:1020F0002769129212A924AA1393259308721072C9
:1021000010970593012E3FD90C9B30279E00089B0A
:102110009E19FC36736811962026BB4333431B3649
:10212000B446A44466463370059B159616930C9BE3
:10213000089E40339B00F318059E08752896099E5B
:10214000279318960D9E0493199611260EABF61838
:10215000F077109E10752A960D9E1DA92B96592674
:10216000F618F077119E7668BE433E4327003C3751
:102170003E70059E1B971C960870049B2E962D930F
:102180002FAB187004230593069B089A20330C93F9
:102190000E9B12A840339B009A5830231343220011
:1021A0003D3213700C239C466146059B01264B4330
:1021B0001A500022C1180A724E600F99089A81398C
:1021C000FF395118002224AFD951FB181A72624608
:1021D0005E60059B9B195343099AC1181A5000224F
:1021E0000A720D9A4E609446002210996144D951AA
:1021F000FB181A725E60059B0090023302930C99E3
:1022000033000B980197FDF72FFE069B069A9B8FD4
:1022100033439387A369B34208D96032938B334326
:102220009383069B80339A8B16439E83059B0C9A5F
:102230005B01D3180822998B0A439A831BE7014854
:10224000A2E6C04605020000F0B55D4B8BB00390DE
:102250000D00185C09A91400FDF79CFB0223210066
:1022600003982372FFF726FB0490002800D086E035
:10227000AB78012B04D001002000333003F0DFFDE8
:10228000AB78012701932300019A2C331A702B8815
:102290000998238523002E7A36331E706B7A0593B6
:1022A0002300059A37331A70EB68002223622B69EA
:1022B00069686362230034331A70023B1F70E28541
:1022C0006268404B9200D35808180693637AB9406D
:1022D0000293EEF761FD0238FF2853DDFF20029BD9
:1022E000069A9B009C46624413003221FC335960DD
:1022F000029BC0270133D9B20791E021BF04C90076
:1023000036021B063B400E401E438023171D3343FD
:10231000FB67079B069F9B00FB181F002021FC37D3
:10232000796080273F043E431F1DFE67A026F6000C
:10233000905190206146244FC00017504F1CF0214F
:102340000905080005993F0638400F02E021C90041
:102350003940C127014380203F04C0000F4317507C
:102360000F2284469A51194A80301A50184A0A435B
:1023700061465A50019B002B08D0022B09D00498CB
:102380000BB0F0BD0028AADC3800A8E7114B236091
:10239000F5E7687D039A60772B7D920023770E4BDB
:1023A0009B18079A9E5C029A995C0022FDF70CFC30
:1023B00000223100287DFDF707FC084BE7E7C04607
:1023C000D0A30100D4A301002202020112112000B7
:1023D0008000C000511C0100CCA30100911B010032
:1023E000030010B532331B7804000220002B0BD001
:1023F00023002C331B78012B03D02000333003F053
:1024000028FD2000FFF7DCFA10BD020032321278FE
:1024100003000220002A01D000201985704770B502
:102420000D0011001A00030032331B780400022053
:10243000002B04D000232000E560FFF7F7FC70BDFF
:1024400070B50D0011001A00030032331B78040030
:102450000220002B04D0012320002561FFF7E6FCB9
:1024600070BDF8B5070032373B7804000D0086696F
:10247000002B18D103002C331B78012B04D0022B26
:102480000CD0002904D107E0FFF7E2FB002D00D0BB
:102490002E603B78002B08D10220F8BD007FFDF7AD
:1024A000CDFB0600F2E70029F2D1E08DF5E7000050
:1024B000044B10B58400E05800F046FA0020024BAF
:1024C000E05010BDF0A301007419002070B55A4B04
:1024D0004C788000C3580A78002C03D188780028F3
:1024E00000D172E00120002A6ED11A0080258C32C2
:1024F0001068ED0228438025106010682D032843E2
:102500008025106010686D032843802510601068D6
:10251000AD0228431060C87A1568461EB041474E88
:10252000000435402843802510601068284310605F
:10253000002C00D174E01022986D02439A658878CF
:102540002022002800D16FE0986D02439A65C87878
:102550004022002800D16BE0986D02439A65022466
:10256000986D0A79A0435200024301209A659A6D42
:102570004C79824322439A650A7A9C6D551EAA4182
:102580000825D200AC4322439A658A798C331C68B3
:102590006D191201AC432A4022431A60CA791C68A3
:1025A00010355201AC432A4022431A604A7A1C6813
:1025B0001C3D92002A40AC4322431A601A68897A73
:1025C000824300200A431A6070BDC878002800D0FA
:1025D00088E70130002AF7D01A0080248C32106876
:1025E000E4002043802410601068240120438024EC
:1025F00010601068640120438024802510601068FA
:10260000A40020431060C87A6D00000214682840BE
:102610000B4D2C4020438024106010682043106034
:1026200010209A6D824389E7986D904398658EE7F4
:10263000986D9043986592E7F0A30100FFFFFEFFBD
:10264000FFFEFFFFF8B51E4B820005000E00D458B8
:10265000CFB28B0508D58022236852001343236034
:10266000184B185600F08CFEF30507D58022636DD9
:1026700013436365144B585700F082FE760507D567
:102680004022236813432360104B585700F078FE14
:102690000026002F01D13800F8BD01231F420BD0C6
:1026A0004021F300E318DA680A43DA60084BEA00D5
:1026B0009B18985700F064FE0136F6B27F08E8E7F1
:1026C000F0A30100DCA30100DEA30100DAA30100F6
:1026D000E0A30100F8B51D4B820005000E00D458A0
:1026E000CFB28B0507D52368194A13402360194BD5
:1026F000185600F051FEF30507D58022636D934311
:102700006365154B585700F047FE760507D5402204
:10271000236893432360114B585700F03DFE002679
:10272000002F00D1F8BD01231F420BD04021F30040
:10273000E318DA688A43DA60094BEA009B18985775
:1027400000F02AFE0136F6B27F08E9E7F0A30100A7
