:1000000000380020896E0000E56E0000F93A00001B
:1000100000000000000000000000000000000000E0
:10002000000000000000000000000000E56E00007D
:100030000000000000000000E56E0000E93A00004A
:10004000391E0000411E0000491E0000511E000024
:10005000591E0000E56E0000E56E0000E56E000030
:10006000A53A0000E56E0000294B0000354E000067
:10007000151F0000E56E0000E56E00004F1F000038
:10008000E56E0000E56E0000E56E0000E56E000024
:10009000E56E0000E56E0000E56E0000E56E000014
:1000A000C5240000B91E0000A5270000E56E000071
:1000B000E56E0000E56E0000E56E0000E56E0000F4
:10040000FFFFFFFFFFFFFFFFFFFFFFFFFE7FFFFF7D
:1004100000234118884202D1D843C0B27047027805
:1004200001309B18DBB2F5E703004118002010B53E
:10043000034A1C7801336040105C8B42F9D110BD37
:1004400004A00000064B02205B69DBB2042B06D03F
:100450000130802B03D01800012B00D004207047FE
:1004600000E0074080000368FFDE80000368FFDED5
:10047000082806D90938C3B20020062B01D8014A42
:10048000D05C7047B89E00001F2803D8012383402A
:10049000014A13637047C04600400240114B800080
:1004A0001B18996830B508684B6DC005C00F400235
:1004B0001B0602D580235B0018430B685B0602D540
:1004C0008023DB0018430723402401255A1CD20057
:1004D0008A185268224202D02A009A401043013BF7
:1004E000F4D230BDB89E00008022164B80001B184D
:1004F0009B6892001868596F1040813AFF3A70B5B6
:10050000114202D08021490008431968114202D0EB
:100510008022D2001043DA6E120602D58022120128
:100520001043002280250126541CE1005918496817
:10053000294202D03100914008432200082CF3D117
:1005400070BDC046B89E00001023012903D90529BB
:1005500008D8012302398B40002A07D0C26E13430A
:10056000C3667047802306395B00F4E7C26E9A4386
:10057000C266F6E7F8B5294B8000C3585A78012ABD
:1005800001D0082A37D1264A12189468042248005C
:10059000C9008A401100656EC0B2421C0D422BD0CA
:1005A000D2B2C500D2006519A2182F691669BFB270
:1005B000B6B2F11B8C4689B2B74202D35988614466
:1005C00089B2061D76009E19B1808026E968B14384
:1005D000E960D168B143D160A2685A8082009A185C
:1005E000D46B002C07D01B185C331B78002B02D077
:1005F0000020D169A047F8BDD100611849680906FB
:1006000000D4D0B2C200A218011D156949005918C2
:100610008D808025D168A943DDE7C04660050020B4
:10062000B89E000010B50424C9004018C1689300AA
:10063000A14323400B430821C360C36852088B4386
:10064000D2001A43C26010BD01238B40002A03D19F
:10065000026F9A4302677047026F13430367FAE71A
:10066000F8B51A4F1A4BFD6D9C686D036D0F002D88
:1006700000D1F8BD0426796F6388E28B9A1AB242E2
:1006800002DCE28B9B1A9EB200239AB2964210D8EB
:10069000E08B6188801906F005FE89B2E183638BE7
:1006A0009B1B9BB26383638B002BE2D0013DEDB2B9
:1006B000DDE76269D80094460A00C2401000624635
:1006C00010706269013301326261DEE700C00240EE
:1006D00060050020F7B50721224B234F9C68FA6D77
:1006E000A31CDB7F0A409B1ADBB20193019B002B0A
:1006F0000BD02379002B09D0238B012B06D13B6E25
:100700001A4A13403B6600232383F7BD6188A28BFE
:1007100023698A1A042A04DD04251E1E17D040CB43
:100720000EE0A58B1E004D1BADB2002B0FD0012992
:1007300004D00229F3D11E88023301E01E78013370
:10074000A08B2361401906F0ADFD89B2A1837E66BE
:10075000238B5B1B9BB22383238B002BD5D0019B68
:10076000013BC1E76005002000C00240FFFFEFFF32
:100770001A4B30B59C691A4D2C409C61040008341A
:10078000E47F002C0DD104000325283424782C406C
:10079000144DAC760469002C1CD00225DC69AC43F6
:1007A000DC61002A08D080241A69640022431A619F
:1007B0001A69241922431A61002902D0802292006A
:1007C0001A66002343618361C36003610330013310
:1007D000C37730BD0125DC69E1E7C0460060064013
:1007E000FCE3FFFF008000400A0008490300C868DE
:1007F00010B54469002C06D041685B180168594364
:100800000423A04710BD01204042FBE76005002003
:10081000094A13B50300D06801910469002C07D080
:10082000426801689B18594301AA0423A04716BDDA
:1008300001204042FBE7C04660050020FF21F8B5DB
:10084000134D0906EA68060053681468C3185C4330
:10085000FFF7DEFF013002D101204042F8BDE86819
:10086000C368002BF8D021009847E8680769002F7B
:10087000F2D02A0004231032211DB8470130EBD0FA
:1008800030000449FFF7C4FF013043425841E4E718
:100890006005002000FFFFFF0200074B10B55969FB
:1008A000DC68406804314843116862680830891880
:1008B00022684A43801810BD60050020084B37B5F8
:1008C000DD6801912C69002C07D0FFF7E5FF0423B8
:1008D000010001AA2800A0473EBD01204042FBE7DD
:1008E00060050020084B70B5DE680C007569002DAE
:1008F00007D0FFF7D1FF0423010022003000A847F2
:1009000070BD01204042FBE760050020044B012040
:100910005A6B002A02D13833187B40007047C0461A
:1009200060050020854BF0B58000854D1B189A6846
:100930006B690E001B0E012019008FB001400342AD
:1009400002D001200FB0F0BD2B6983432B613389A6
:100950007C480593083B9BB28342F2D8059B1380E9
:10096000F36893600693B37913710A93B37C0B9386
:100970000B98531CD877F07C531DD877059B1173C7
:1009800007335171DB08032B00D1B1E0042B00D9F0
:10099000B0E09BB25380317DD31CD977717D131D9C
:1009A000D977B3699362F369D36233796A6A1900BC
:1009B0000C93012308318B409A4373798B40134386
:1009C0006B620023039309930793013B01935E4BF2
:1009D00034680D93039B0D9A9B009B58089300234A
:1009E00002930133FF330493049A029B06989F18E5
:1009F000FF237F081F40089BB91C594306F0AEFA3D
:100A0000019B019A1B1B944200D9A31A844276D9F8
:100A1000221A934278D80497049B029A9B1A012BBE
:100A2000E2D8089B911C5943069806F097FA0700F4
:100A3000049B0698991C089B594306F08FFA3B1BB0
:100A4000BC4200D9E31B021B844200D9221A9A42FD
:100A500002D20700049B0293019B019A1B1B944244
:100A600000D9A31ABC4253D9E21B9A4259D9019B1F
:100A70009C425BD12A6C079B12029B081906120A42
:100A80000A432A64296C314A11401A040A432A6431
:100A90002A6C2F491B020A4013432B64FF232A6C44
:100AA00007999A430B40134302222B646B6A13434A
:100AB0006B6201232A6913432B61019B002B00D138
:100AC0003FE7737C327CDB07920713430C9A0020CC
:100AD000120613430B9AD20513430A9A5205134385
:100AE000059A013A1343099AD20613432B6629E764
:100AF00004234FE7013B9B0801339B004AE7021B9D
:100B0000934203D8029787E7019084E70190F9E7C1
:100B10003A1B9A42ABD8039B01970993029B079318
:100B2000A5E7039B01970993029B0793039B01335E
:100B30000393082B00D04DE79CE7C04660050020DA
:100B400000C00240F80F0000C89E0000FFFF00FF39
:100B5000FF00FFFFF0B5304C80002418A6682F4C32
:100B600085B002930359B56801935C78ADB2042C4B
:100B70003FD16D000020ADB280273F02BA4248D875
:100B8000029BBB4245D82C005443E413A4B2BA42A2
:100B900001D10134A4B2002829D14B080393736E0C
:100BA0001A004B08DF000123BB409C46130062463D
:100BB000134225D0039B716E5A008023BB40013243
:100BC000194203D03168C906890F02D1D1007118CA
:100BD0008C60029BD2B26B430132D200DB13B2189D
:100BE00093608022B36D9343B365019B9D8005B0F4
:100BF000F0BD032C02D00120082CBDD10135B9E78E
:100C0000336801319B0600D56408C90071188C60F7
:100C1000E7E70120EBE7C046B89E00006005002032
:100C200070B51D1C14000E0009F062F8291C08F0B4
:100C30003DFC07F0D1FE051C200009F059F8291CE5
:100C400006F064F900280CD1300009F051F8291C95
:100C500006F070F93400002803D1281C09F028F8A8
:100C60000400200070BD07B50122054B1A70054B2A
:100C70001B6A0193C04601A805F022FDC04607BDCE
:100C8000CC05002000400240F7B58368C468050029
:100C900040681F1B00190E000193A418974207D843
:100CA0003A0009F0FFF8019B6868E41A2200F11984
:100CB00009F0F8F8EC60F7BD70B50C00012907D118
:100CC000044B82009B189D6805F084F90735EC778A
:100CD00070BDC046600500200E4B82009B1870B5A9
:100CE0000D009C68012904D1073405F073F9E577FC
:100CF00070BD2279084B002A03D01A6E07490A40BA
:100D00001A6600222283628380229969D2000A43F4
:100D10009A61EDE76005002000C00240FFFFEFFF91
:100D200037B50400FFF78EFBE578A3786278217869
:100D3000009505F0FFFA00280FD10A220F25E1786F
:100D4000064C2369013A1B0E2B408B4203D0002A2C
:100D5000F7D1032001E0002AFBD03EBD0040064051
:100D6000254B82009B1870B51C6F2100FF318B7CD6
:100D7000002B27D12025214B9A6AAA439A629A6AAE
:100D80006D19AA439A629A6A4035AA439A62002270
:100D900063792260032B0BD023006271FC335D6802
:100DA000954205D08B7C012B02D123000821A84756
:100DB000A379002B05D06379002B02D1201D05F00B
:100DC0005CF870BD6379032BE1D003254A7C23686E
:100DD0002A400B4DAA761A68950202D45D68AD0CC4
:100DE0005D601203120F1A749A6812BA9A60DA6878
:100DF00012BADA60CBE7C04660050020004002402E
:100E00000080004070B5C4B201290ED10322094B05
:100E100080001B181B6F5A711A00FC325568002D98
:100E200003D0002220000831A8472000FFF798FFD8
:100E300070BDC04660050020F7B5427A07269300D2
:100E40001900434D01935F19424B0400CB18D96F31
:100E500041480140D967D96FB143D967531CD9B212
:100E60003C4B88008C46C118CB6F4519B343CB6708
:100E70008023DB00F958043EB143F950E958B143EF
:100E8000E950012365461900AB409140334D304A8B
:100E90004019302551615361136191614768AF4337
:100EA000BC4620276646374347602C48019F84464E
:100EB00067447868A84305437D60250013612C359D
:100EC000287800281ED0022829D02300012232339E
:100ED0001A7002331B78002B03D02000333004F04B
:100EE000CCFFA369002B0CD0E38D002B09D123008C
:100EF00030331B78002B04D02B78022B01D0184BF9
:100F0000E385F7BD106A0B43DBB298431062506A69
:100F1000C9B298435062936A8B439362D5E7FF202E
:100F20001E00576A0640B74303265762976A084077
:100F300087439762607F0B4F3040B876207F0B432A
:100F40003040B876106BDBB298431063BDE7C04603
:100F500000A0054004A00540FFFFFCFFFCA00540E9
:100F60000202000000800040F7B5704A437A040096
:100F700050690121D840084203D099406C48E0856F
:100F800051615569591CC9B2CD400120054214D0A8
:100F90001569DD4005420CD180239B00E3852000CC
:100FA000FFF74AFF236A002B6BD00420616A984741
:100FB00067E088405F4DE585506110690125C840B4
:100FC00028423AD0594889000918A02080000858C2
:100FD0002600019020003136377830300578002F18
:100FE0001DD101203070002D27D0534D980040199D
:100FF00030254668AE43103D35434560A069012861
:101000001BD14D489E00361830207568FC31854351
:10101000054375604D688543284348600DE0A66927
:10102000013EA661002D08D02569019E2E7025691C
:101030000135256100780028E0D11169D940C90740
:1010400009D56069617A00281CD101219940106A94
:10105000C9B28843106291690120D940014210D081
:1010600021003231097800292DD090212F4A9B0090
:101070009B18C9005A58314802405A502000FFF7C7
:10108000DBFEF7BD01386061A031002809D12500E1
:1010900035352D788900002D01D1FF2000065050F4
:1010A000D3E7200030300078002804D0FF208900EA
:1010B00000065050CFE7E0688900057801302D0622
:1010C000E0605550C7E79840618D013989B261856C
:1010D000906102290CD1A020144A9B009B18C000EB
:1010E0003E3419582278C9B212020A431A50C8E78E
:1010F00001290AD190200D4A9B009B18C0000F4A7D
:101100001958114080229201EFE70029B9D19020AF
:10111000064A9B009B18C0001A58084D2A401A50D6
:10112000E38D022B00D03AE7E18538E700A00540C7
:101130000102000002020000FCA00540FF8FFFFF3B
:10114000437F9B001B68FFDE1A4B80001B1870B5A5
:101150005C6F0D00A369002B10D001290ED0002375
:101160000321A361144B9A6D8A439A650122D969C0
:101170009143D96199690A439A6170BD231DD97F52
:1011800000222000FFF7F4FAE31DDB7F002B03D0E1
:101190002000253004F071FE012D07D1A583E36AFC
:1011A000002BEAD00420216B9847E6E70023A383B5
:1011B000F5E7C046600500200060064010B5C37E1C
:1011C0000400427D002B20D0002A17D11A4A1B4967
:1011D000D3690B40D3610121174A53698B43536193
:1011E0000023A3702361A360E3606360E375A37EC3
:1011F000002B03D02000193004F03FFE236A002B9F
:1012000002D00420616A984710BD0321037F0B4080
:101210000B498B76002AF1D1074B0849DA690A405D
:10122000DA618268002A04D002211A6A8A431A62AB
:10123000D1E701211A6AF9E7FC600640F8F0FFFFE8
:10124000008000400B4B10B51B6F202805D00121FA
:101250008140094CA26A8A43A262C0001C18A2798C
:10126000002A03D00430181804F007FE002363712D
:1012700010BDC046600500200040024037B507257C
:101280000E4A8100030050188468002024680190F1
:101290002C400B4D49590978022908D0032903D065
:1012A000012908D101A904E03032D05CFAE7182006
:1012B00001A904F0C1FE0198E0403EBDB89E0000C7
:1012C0006005002073B5002601A9040030000196D6
:1012D00004F0B2FEFA21084D89002E60019805F055
:1012E0003DFE0723054A6860AE602B60916F936FE7
:1012F0005B1AA342FBD373BD10E000E06005002041
:101300007FB50E7C0C000D78002E12D1104B4000E2
:10131000C15C280004F0B6FC61780396E36800968F
:101320000293012301936368A268280004F064FE1D
:101330007FBD2C21280004F0A5FC002361780393D5
:10134000E2680093029201220192A3686268ECE7CE
:10135000EA9E000000235B68FFDE032310B5104CFB
:10136000104A23616361104BA261E361802322660E
:101370000E4A9B0023626266002310220C490D482E
:10138000A3626362E3622367E3666367A26608F0B1
:1013900081FD2000084908F07DFD2023A37110BDC8
:1013A00000FCFF1FF4A100007C080020DC050020E9
:1013B000FDA1000007FCFF1F01A200001249134A13
:1013C00070B5521A124808F06DFD1249124A1348BE
:1013D000521A08F067FD124A12480021121A08F04A
:1013E00051FD1149114A1248521A08F05BFD114C87
:1013F0001149124D8C4205D0114A200092089200EA
:1014000008F050FD2C6070BD8CA2000090A7000079
:10141000C0FDFF1F90A7000090A70000C40200209D
:10142000EC1400206005002090A7000038A8000000
:1014300000FCFF1F00FDFF1F0000000008ED00E0A2
:10144000C0000000044B054A5A605A68044A1A60FA
:10145000044A9A607047C0460020054020C528D93C
:1014600020210000FFFF0000054B5A688023100078
:101470005B0418401A4201D0024BD8687047C0463E
:10148000FC400640E00500208022094B920099585C
:101490008022080052041040114208D0822292009B
:1014A0009A580123100018401A4200D00148704792
:1014B0000040064000127A00C022074B9200995863
:1014C0008022080052041040114203D0C222920030
:1014D0009B5802487047C04600400640006CDC0242
:1014E00037B50400002908D16A4601239171537170
:1014F0008022694652000A808B70C0221E4B9200E7
:101500009D580220AD0109D498581C4D2840985090
:101510008020C0049850002C01D100203EBDE02066
:1015200007248A78C0001202024048782040024313
:10153000C12080001A5003200A780240C220800097
:101540001A5048798A790921002800D00839D20533
:101550000A43C021142489005A50FFF7ADFF002828
:1015600005D1002C01D10330D8E7013CF5E7002C70
:10157000D3D10320D2E7C04600400640FFFF7FFFE3
:10158000F0B50400A7B0002827D0CA4D26002B696B
:101590001B011B0F032B0FD0FFF78EFF011E04D181
:1015A0000120FFF79DFF071E14D1C34B07A8079327
:1015B000FFF7B6FB071E0DD18021E3788900049365
:1015C0006B5801225B0E1800104013424FD0FEF7FB
:1015D00039FF0227380027B0F0BD8025012208AB73
:1015E0006D0009959D83B54D14AE0C95B44D3270C8
:1015F0000D9512AD2A700AADEC77C0252D0310951C
:10160000B04D04AE1595B04D02211695AF4DFF318A
:101610009D87AF4D9A812495162523953D35AD19AB
:101620002A70AC4D9A731A951BAD2A707B25AD19A3
:101630002A701CAD19922A7021AA11807622A64820
:10164000921913941D941E941F9408901981198364
:1016500099842090118022AA14807A229219147001
:1016600025AA11808622921914701C008DE76B58F0
:101670009A4F3B406B50049B6850002B00D03FE1D9
:10168000637F01210593964B5A68520E1000084063
:101690000A429CD15A683A405A608022D2045A6069
:1016A000904A0392D060059A002A00D056E12600A5
:1016B000FEF7C8FE3636012804D00026022801D1E4
:1016C00026003A36F378032B00D093E1059B002BDC
:1016D00000D081E1049B0127002B00D17AE7824BE7
:1016E00007A80793FFF71CFB0700002F00D071E746
:1016F000A07BE11DFFF7F4FE071E00D06AE703237D
:1017000007A8C370B378837073784370337803701D
:10171000FFF706FB071E00D05CE7230030331B7881
:10172000002B02D0E36A039A1361230035331B7840
:10173000002B0BD02A6A6D4BF0211A402300343362
:101740001B7809051B060B4013432B622300433310
:101750001B78002B00D05FE1236F002B00D082E1CB
:10176000230044331A78002A12D0FF2560496148CB
:101770004A6802405878C002024398780001284025
:10178000E0251043DA78ED0012022A4002434A6055
:101790001A79002A13D03F220C2555490869904335
:1017A0001A7A0243D8794000024398798000284091
:1017B00010435A79243512012A4002430A611A7FE4
:1017C000002A26D001214A4A106C8843597F0143E0
:1017D00011640221106C8843997F49000143116410
:1017E0000421106C8843D97F8900014311640821CA
:1017F000106C884321004531C97FC9000143116441
:101800001021106C884321004631C97F0901014332
:1018100011641B7B002B06D0039A636D5361A36D8B
:101820009361E36DD36123004733DB7F002B23D02B
:1018300000202F4A8025936E906651682E4B6D01D3
:10184000194023004933DB7F1B032B400B435360BC
:10185000230090664833DB7F83420DD023000E21A6
:101860004A33DB7F5B000B4021004B31C97F0B43C8
:10187000802149050B43936674342378002B00D1F3
:10188000A8E67F211D4A607893780B407E3941405D
:10189000C9010B43DBB293700223E356002B01DA3C
:1018A00020335BB21F201179034081430B43137136
:1018B00090E6C046004006400301000300127A0093
:1018C0000001000203010101000303000102000006
:1018D000C0FDFF1F0100000101010101FFFF7FFFAB
:1018E000FC400640E005002001000002FFFFFFF081
:1018F000008004400FF0FFFFFFEFFFFF00D0074024
:10190000E0210720B378C9001B020B407178014029
:101910000B43812189006B503378043113406B50A5
:1019200030797379B179002800D003229B00C90572
:101930000B431343802264269200AB50FFF7A4FDB3
:10194000002807D1002E03D1FEF77CFD032741E6D6
:10195000013EF3E7002E00D092E6F5E7E0200726EF
:10196000627EC00012020240207E304002433020DE
:101970009A60E27D013612010240A07DC000304035
:101980000243607D043E800030400243DA60227DE5
:10199000012A13D0022A17D0002A03D1227FD205B0
:1019A000114359602369039A454ED360FFF75CFDEC
:1019B00000280DD1002EC7D0013EF7E7217F414A14
:1019C000C9050A435A60EDE7217F3F4AC905F8E798
:1019D000002E00D06BE6B7E73C4B07A80793FFF754
:1019E0009FF9049B0700002B00D17EE6012800D060
:1019F0007BE674E607A8C370B3788370737843708E
:101A000033780370FFF78CF9071E00D0E2E5A07B66
:101A1000E11DFFF765FD7DE6200023002200210087
:101A2000393000783833373236311B7812780978FC
:101A30000090012004F07EFC002812D12000230039
:101A4000220021003D3000783C333B323A311B7894
:101A5000127809780090022004F06CFC002800D174
:101A60007AE60700B6E50521E26EE0254A439A18BA
:101A70000492174A102605920F229446ED04049A08
:101A80009A4200D16CE61A7805995200515A114ACF
:101A9000890089180A681048024060460A601A796D
:101AA0000240587880070243987800062840024395
:101AB000D87805330001304002430A60DFE7C046B2
:101AC00088E730000100010001000300010100016E
:101AD0006C9F000000500640FFFFFFBF70B5144C24
:101AE000050023691B011B0F022B12D0032B13D0FF
:101AF0000020012B01D1FFF7B7FC0F262169090C4B
:101B00003140013105F02AFA012D08D0022D0DD007
:101B100070BDFFF7B9FCF0E7FFF7CEFCEDE72169F8
:101B200009093140013105F019FAF1E72169F8E7B7
:101B3000004006400C4B00201B6A10B51B011B0F18
:101B4000032B07D8180005F0B3FA0206090C02208F
:101B5000FFF7C4FF10BDFFF787FCFBE7FFF794FC1E
:101B6000F8E7FFF7A9FCF5E70040064010B50129AA
:101B70001ED0052807D0062814D0FFF785FC812346
:101B80000200184904E0FFF797FCC1230200154941
:101B90009B00C85807231840002802D00138C240D3
:101BA000100010BDFFF760FC0F4B02009868F1E7D2
:101BB000052807D006280FD0FFF766FC8123020016
:101BC000084904E0FFF778FCC123020005499B00A7
:101BD000CB585B05580FDFE7FFF746FC024B0200CE
:101BE0009B68F6E700400640FC400640154B40006D
:101BF000C35A154A9B0070B59B1801260F221C681A
:101C00001D682409002034401540A54214D31A68E9
:101C1000920F324210D01B685B015B0F022B0CD07D
:101C2000032B0CD0B34202D10630FFF79FFF691C93
:101C300005F094F90134604370BD0420F5E70520F8
:101C4000F3E7C0466C9F0000005006400F4A10B5F5
:101C500013699B069B0F022B11D0032B12D0012B73
:101C600004D000210620FFF781FF07E0126902235C
:101C7000100018401A4201D0FA20C00110BD044BD8
:101C80001869FBE700210520EDE7C046008004400D
:101C9000E00500200C4A13691B079B0F022B07D09D
:101CA000032B0DD00020002B09D1FA20400206E0C2
:101CB0001269100018401A4201D0FA20C001704782
:101CC00002231269F5E7C0460080044010B51E4C9F
:101CD000802362681B01100018401A4216D0606809
:101CE0000006000F0E282CD805F0E2F9112B142B5A
:101CF000192B1C1F2B23082B252B2800FA20400210
:101D000061684905490F013105F028F910BDFFF759
:101D100011FFF5E701210620FFF728FFF0E7012179
:101D20000420F9E701210520F6E70020FFF7D6FEA1
:101D3000E6E70120FAE7FFF7ADFFE1E7FFF786FFEF
:101D4000DEE70020DCE7C04600800440F0B587B045
:101D50000290012005930CAB1D780300AB400D9F52
:101D600004920D9A0193013B03911F401A4254D1F2
:101D70000326029B1E40300003F0D4FE284A740163
:101D8000A0180288274B9204920C110080221202A4
:101D9000114301808020234A22491268E3188243BC
:101DA0000A6080220499520199501F4A0599A2188D
:101DB00011602A02AD181D4AADB29D52039A032A42
:101DC00011D8100069461A4A898805F071F902078E
:101DD0001F219F52174BE318198004E099520022EB
:101DE000144BE3181A8030000D9903F0FDFE012119
:101DF000300003F0D1FE0A4BE418022322889A43F4
:101E000013432380029B9B001B68FFDE9952E1E78E
:101E10009F52084BE3181F80E5E707B0F0BDC046AE
:101E20001C90004000800040109000400610000010
:101E30000410000014900040002010B5FEF715FBC0
:101E4000012010B5FEF711FB022010B5FEF70DFBC7
:101E5000032010B5FEF709FB002301200649CA6ADA
:101E6000024203D08B769B001B68FFDE0133DBB29E
:101E70005208042BF4D17047008000400130C000AC
:101E80008008053070477F210A4B70B51A6805003D
:101E900001240A4082420BD31A680024920007D51D
:101EA000586B0001000FFFF7E9FFA8426441E4B25C
:101EB000200070BD00400240F7B50127134B196A9E
:101EC0001A695D6A11405A699E6A9B6900911E40B9
:101ED0000F4B15401B6A1C1D14330193206800280A
:101EE0000FD00268002A0CD03900037A99400B0009
:101EF000417A013B8B40009929433143194200D07C
:101F00009047019B04349C42E8D1F7BD00A00540F6
:101F1000E0050020F8B50020FEF7E6FA05000020F5
:101F2000FEF7BCFA00240600012733002B401800FE
:101F30006200511CC840D34003433B4203D0002001
:101F4000E1B2FEF717FB0134042CEED1F8BDF8B571
:101F50000120FEF7C9FA05000120FEF79FFA0024D0
:101F60000600012733002B4018006200511CC840B6
:101F7000D34003433B4203D03800E1B2FEF7FAFA04
:101F80000134042CEED1F8BD1F22430910401E3A43
:101F9000824002499B005A507047C04600E100E071
:101FA000044A536A002B04DD013B5362002B00D12D
:101FB00062B67047E005002072B6024A536A0133E8
:101FC00053627047E0050020F0B5B7B00B920122D4
:101FD0000A9303000891110036331B78DF4F9940B4
:101FE0000B0001003731097804008A401343FA6876
:101FF000DBB21A40934200D000E2437A12250793E5
:10200000089B002183615A1C0223C38503005543AA
:1020100042610B983233AE1CD870FF360A981970A3
:10202000360A023B013518705970A819310004F0C6
:1020300095FFA022079BD2009B00DB199A5894467B
:10204000421E120211006246D2B211438AB2A0218E
:10205000C9005A50721E4243AD1A22003E326685B4
:102060001570012E08D19020C0001958BC4A1140AB
:10207000802292010A431A5007250222181DC16FBF
:102080008026A9430A43B549C2678C46079AB549D9
:102090000132D2B20992920094445218D16FF600E4
:1020A000A943063D2943D167032299599143294306
:1020B00099516146895991430A4361468A51C16FDA
:1020C000A94A1140802252020A43C26722002C32E0
:1020D0001278AA4226D0022A2DD0002A1FD1FFF75B
:1020E0006BFF2200238D3032AB4012789B18627A4E
:1020F0002C00A0321B069200BB50079B099A9C4003
:1021000095403B6A2543EDB22B433B62FFF748FF06
:102110007B6AE4B22B437B62BB6A1C43BC62002037
:1021200037B0F0BD228D0A9952008A18A0211206FC
:1021300089005A50F3E723001F225E33934306932E
:102140000A9B002B00D0B8E0E36801221293089BA1
:1021500086491393079B24AD9B005B180899249331
:10216000696021001000EB60022312AE32722A7205
:102170000B9A3931013A0A70F1603075286128757F
:1021800030613200607F069900932B0003F092FDCE
:1021900022002300303212783A330892002A00D10C
:1021A00090E00322617F1140714A490189180022A1
:1021B0008A800699888B0821014306988183010053
:1021C00020310C91217F1191617A24930A91013180
:1021D000C9B20E91A03189000F910F985F498446D2
:1021E000614412910B910121A36971606960591ECC
:1021F0000891216932722A720D91012B00D9C1E038
:10220000012530220E9B102140339B00FB580EA865
:102210001A4323003D331A700C226A43401883503E
:1022200012AB0126991853480023844658200B729C
:102230004E600F990EAB61441B18995024AB9A184D
:1022400000230C2113725660AA194A430EAB0431C5
:102250005B180B99995012AB991800230B72089BCD
:102260004E609C460D990EAB61441B18995024ABEF
:102270009A1800231372AB1C56600C99009312AA93
:1022800024AB119803F016FD069B069A9B8F3343EF
:102290009387A369B34208D96032938B3343938306
:1022A000069B80339A8B16439E8308220C9B6D01FC
:1022B0005D19A98B0A43AA8323E02300FF22383348
:1022C0001A7042E7069A0120918B08220A43069968
:1022D0008A83627A28490132D2B2257F9200039024
:1022E0005218A169019009180291089928000091DB
:1022F00003F082FE03231D40204B6D01ED18089B67
:102300002B80012603213500637F1D4A0B40D376C5
:10231000237F0B40D376099B796A9D40FF232A00D7
:102320001A400A437A62079A9640BA6A33401343C6
:10233000BB62FFF741FE2200238D303212785B0032
:102340009B18627A1B06A0329200BB503A6B354351
:10235000EBB213433B63FFF723FEE0E600A005402A
:10236000FF8FFFFF04A00540FFFFFCFF83A2054095
:1023700000900040809E054080A2054014900040DF
:10238000008000400A9B302099001D4BCB18202173
:1023900010935B6832758343194323003B331970F4
:1023A000F360012333610A9B16499B005B180121EE
:1023B00029610B99EB60B16108990593F1611121D5
:1023C0000EABC918CA770D992A75A9610899E961F8
:1023D0005921C918CA771099059B49686B628143D6
:1023E000014320003C300170706201201DA92FAB19
:1023F000A862B06204250A701A7002E702488FE6EC
:10240000FCA0054000A1054005020000264B82000B
:102410009B18F0B50400586F89B0030028331D786D
:10242000826903A9214E0D70002A2FD00F237768EF
:102430001F4000970327B36DBC46BB4301930123A4
:10244000009FBB40934200D913006746013B3B40CD
:10245000019F3B43B36501234B70154B4B604369B0
:102460008B6000230B742000CA60FEF749FF032332
:10247000104A2B405B019B180822198828009143C1
:102480000A431A800C492200FDF7ECFFB36D0B4F95
:102490003B40B3650A4B4A704B60C36802698B606E
:1024A00001230B74DFE7C046600500200060064092
:1024B000606006401C90004049110000FFFFFCFFD7
:1024C000706006400122F8B5854D864E6B69746FC9
:1024D000134213D0A07AE37A834200D1A2E007210D
:1024E0000F27EB6D0B40696839408A4092B2E17A60
:1024F000884200D193E09A4200D983E06B699B0740
:102500002ED5230034331B780721002B00D1B7E0F0
:10251000E31DDB7F002B03D02000253003F0ADFC52
:102520000323002074670126A383E318A0612061C0
:102530006061E060DE77022360812A699A431A4372
:102540002A61694A516999430B435361286150617B
:10255000A26BA17F03F05EFE2B69B3431E432E6185
:102560006B690122DB0415D580235B016B610021BF
:102570002000A283FEF7FCF8E31DDB7F002B03D0D5
:102580002000253003F079FCE36A002B02D0042000
:10259000216B98476B691B0517D580231B016B6165
:1025A000012200212000FEF7E3F8E31DDB7F002B72
:1025B00003D02000253003F060FC4C4BA383E36A7A
:1025C000002B02D00420216B98476B695B0518D55E
:1025D000E31DDB7F002B03D02000253003F04DFCF2
:1025E00080239B00A383012200212000FEF7C0F876
:1025F000E36A002B02D00420216B98478023DB0084
:102600006B61F8BD67187F79635CBC461B0263444D
:1026100001312B66E1720721EB6D0B4067E7002368
:1026200063816BE76369002B1DD0A269002A16D174
:10263000231DD97F2000FEF79BF8E31DDB7F002BD5
:1026400003D02000253003F018FC0023A383E36AA5
:10265000002B00D152E70420216B98474EE7200061
:1026600003F000FA4AE7AB699343AB6146E7E368DE
:102670002A6F1A70E3680133E3602369013B236129
:10268000EA6D2369120C0A4219D0002BEFD1231DE9
:10269000D97F00222000FEF76BF8E31DDB7F002BC3
:1026A00003D02000253003F0E8FB0023A383E36A76
:1026B000002B00D154E70420216B984750E7002BF2
:1026C000E5D0AA6D9203920F934200D948E7AA6D14
:1026D0000749013B0A401B041343AB6540E7C04672
:1026E0000060064060050020FC6006400302000018
:1026F000FFFFFCFF094B0A499A690A409A619A69EF
:1027000008490A409A618022596912010A435A61B4
:102710008022596952010A435A61704700C0024041
:10272000FFF7FFFFFFEFFFFF1B4B82009B1870B509
:102730009D6800232B736B1DDB7F0222174C002B3F
:1027400022D1E3699343E361E369013A9343E3618F
:10275000FFF7D0FFA369124A1340A3618023626987
:10276000DB00134363616B79002B05D02800253013
:1027700003F083FB00236B71AB6A002B03D00021B5
:102780002800EA6A984770BDA36993430122A361B8
:10279000A3699343A361DBE76005002000C002400A
:1027A000FFFBFFFF70B50126544D554A6B6A9468D4
:1027B000334251D06B69DB0A33420DD02369002BC1
:1027C0000AD0002003F006FC80236A691B01134332
:1027D0006B610734E67738E06B69DB040ED563691B
:1027E000002B0BD0002003F0F5FB80236A695B010E
:1027F00013436B6102230734E37726E06B699B0781
:1028000005D5638B98B2002B20D0FDF729FF6B69AB
:10281000DB0704D5238B002B01D0FDF75BFF238B57
:10282000002B12D10122AB699343AB618023A969CC
:10283000DB000B43AB61638B98B2002B05D16B6956
:102840009B0A134201D0FFF76FFF70BD03F0C2FB7C
:102850000222E31DDA77DAE76B69DB0A334205D03F
:102860002369002B02D003F016FBB2E76B69DB048F
:1028700005D56369002B02D003F00DFBBAE76B6945
:102880009B0704D5638B002B01D0FDF7E9FE6B6934
:10289000DB0704D5238B002B01D0FDF71BFF238B17
:1028A000002B03D10122AB699343AB61638B002BF7
:1028B00003D10222AB699343AB61638B002BC4D17C
:1028C000238B99B2002BC0D1AB690E4A1340AB6188
:1028D000AB690D4A1340AB61A36A002B02D0200004
:1028E000E26A98476379002B05D02000253003F079
:1028F000C4FA0023637100232373A6E700C00240DB
:1029000060050020FFF7FFFFFFEFFFFF10B5012478
:102910008C408A400368A3431A43026010BDF0B59F
:102920000026ABB0079330AB1B78039104923100C3
:102930003C2207000BA805930A9607F0A3FA059B13
:102940003C225D00EBB231001BA806931A9607F0FB
:1029500099FA0B2306AA9B181AAD1E70012F26D1D7
:10296000069B414901930095086F049B039A496FA8
:1029700003F0D4FD4442E4B2B4423BD03B4B3A00B6
:10298000DD6A052101353A48DD62FFF7BFFF0A2005
:10299000FEF798FC320005213548FFF7B7FF042DFC
:1029A00002D90122334B1A7020002BB0F0BD06244F
:1029B000002FF9D1069B2D4E01930095049B039A9D
:1029C000F06A316B03F0AAFD4442E4B2002C11D04E
:1029D000B56A736B01220221013327480135736305
:1029E000B562FFF793FF0A20FEF76CFC3A00022164
:1029F0002148D2E7002201261C4BBF00DB199A6256
:102A0000039B09A82F78049A5B00037004213343C9
:102A10008370C7704270FDF707FD6C78241A631E3F
:102A20009C4106AB1F740B27FF18059BB34209D8C6
:102A30001A00631E9C4107980AA9644207F032FA03
:102A4000E4B2B1E71021AB7806AA521838000F396A
:102A500093553B70FDF7E8FCEB7801361B1A5A1EC4
:102A600093410235E418E0E7C0FDFF1FE0050020B8
:102A7000C0F00F401806002040F00F40F0B5854C24
:102A80008BB00890059101208349079203F036FA34
:102A900001220F212000FFF739FF236901251B04C4
:102AA00008D4C0460520FEF70DFCC0460120404278
:102AB0000BB0F0BD00220F212000FFF727FF236994
:102AC000DB0B2B42EDD104242800744903F016FAE5
:102AD000734B09930999734A0978536B002900D104
:102AE000D5E0002B00D0D2E0138F013B9BB25908F8
:102AF0000B4399080B4319090B43190A0B43013384
:102B000007999BB2DB084B439BB20693002B67D01F
:102B1000654D97686B690122DB0100D5A8E06B6900
:102B20001B0E134200D0A3E07E880698310004F00B
:102B30009BFA89B2002900D09AE0C0232A699B0041
:102B40001A432A612A6913432B613979002904D079
:102B500080232A6E5B0313432B660022FB1DDA776A
:102B6000FC236A699B0113436B618023AA691B01E3
:102B70001343AB61059B002B3DD17B8380232A6EE1
:102B80001B0313432B66AB6D484A1340AB6503230D
:102B9000AA6D9A43013B1343AB657B1DDA7F00238B
:102BA000012A33D1089ABB833A61FB83059A069BBD
:102BB0007A613B83002903D03B8B01339BB23B837B
:102BC00001233B73059B002B03D00223AA69134307
:102BD000AB610123AA691343AB61324B9D6F00E0E7
:102BE000956FFDF793FE2F4B9B6F5B1B632B47D9B4
:102BF00000283FD149E08023AA695B011343AB6100
:102C0000069B2B4A7B832B6E1340BBE71C00012ED7
:102C100003D0023E731E9E41741C01253B1DDE7FC6
:102C20002B00A3400793069B2900E34006930293E1
:102C3000079B30000193089A1E4B0395009403F004
:102C4000DBF9059B1C49002B0ED0FB1CDE7F069B8D
:102C500000210293079B30000193184A059B0395BE
:102C6000009403F0C9F9164900223000FDF7FAFB81
:102C70000C4B9B6F013CE4B2002C00D02AE715E717
:102C8000FDF744FE0028AED1C046002010E7936F48
:102C9000F0E7C046C0F00F4038FEFF1F50FEFF1F98
:102CA000190600206005002000C00240FFFFFCFF65
:102CB000FFFFF7FF64C00240D90C000074C002405F
:102CC000B90C000013B500236A46138093800533C6
:102CD000137004000222684601A9FFF7CFFEC04628
:102CE000002802D16B465B79237016BD13B5002313
:102CF0006A46040001A89380FFF7E4FF002804D18E
:102D00006B4601221B791340237016BD30B585B088
:102D100000246B469C81184B01A91B7802A80B70FC
:102D2000062301220370FFF7A9FE6B46DC72134CE9
:102D3000A56F0B236B441800FFF7D8FF031E0BD1C0
:102D4000A26F521B322A03D9C046C046022010E0AF
:102D50006A46D27A002AECD1C046002B09D103A8DA
:102D6000FFF7B0FF002804D16B461B7B01309B07A7
:102D7000ECD505B030BDC04607A2000060050020BC
:102D8000F0B5204C0023A54404001F4E1500B76F7A
:102D900002AA0191D37102ABD81DFFF7A7FF00284B
:102DA00007D1B36FDB1B322B03D802ABDB79002BCF
:102DB000F1D1C046002780223900520046A807F012
:102DC00061F880223900520005A8049707F05AF8EC
:102DD000032345AE2A1D33703000230C92B264BA2F
:102DE00004A974807370FFF749FE0400C0462A00EE
:102DF000019805A907F056F8200087239B009D4401
:102E0000F0BDC046E4FDFFFF60050020F0B51C00EA
:102E10001D4B85B01B7802910392002B03D101203A
:102E2000404205B0F0BD80277F00BC4223D9E6B206
:102E300032000025511E8A412900230A9B18019364
:102E40003A00002E04D0019B013B8B4200D132009E
:102E5000039B28021918029B92B2C018FFF790FF3B
:102E60000028DCD1C0460135019BEDB229009D420E
:102E7000E6D32000D5E703990298A2B2FFF780FFBE
:102E80000028F6D0CBE7C0461A06002037B504006C
:102E90000D00FFF73BFF012808D1C04600212A00A2
:102EA0002000FFF7EBFD002801D0C0463EBD6A467A
:102EB0000A4CD071A56F6B46D81DFFF717FF00288D
:102EC000F4D1A36F5B1B322B02D9C0460230EDE771
:102ED0006B46DB79002BEED1E8E7C04660050020A9
:102EE000F0B50023170080220500C7B00291520000
:102EF000190006A8059306F0C5FFFF232A009A4390
:102F000013000133FF3301933A1D92B201992B0C48
:102F100003927A19EEB205ACDBB26DBA8A4212D8CE
:102F200002220299227006A83A006370658006F0BA
:102F3000B9FFC04620000399FFF7A8FF002800D082
:102F4000C04647B0F0BDC04602227642F6B22270BB
:102F50000299320006A86370658006F0A3FFC046A0
:102F6000311D2000FFF792FF019B02221B0C6370B2
:102F7000019B22701B0AA3700023E370029B0500D3
:102F8000BA1B991906A806F08DFFC046039B2000C6
:102F9000991B89B2FFF77AFF284340B2CEE7F0B51C
:102FA0001C001E4B85B01B7802910392002B03D1AD
:102FB0000120404205B0F0BD80277F00BC4224D9EB
:102FC000E6B232000025511E8A412900230A9B18CF
:102FD00001933A00002E04D0019B013B8B4200D1AB
:102FE0003200C046039B28021918029B92B2C018F7
:102FF000FFF776FF0028DBD1C0460135019BEDB21B
:1030000029009D42E5D32000D4E703990298A2B29B
:10301000FFF766FF0028F6D0CAE7C0461A06002070
:103020007FB50400FFF772FE012829D1002302A812
:10303000039320330370230C64BA43704480C0466A
:10304000042203A9FFF71AFD002802D0C04604B0ED
:1030500070BD6A46C826114D114CAB6FD071E36349
:1030600076006B46D81DFFF741FE002808D1AB6FF4
:103070002364236CE26B9B1AB34209D9C046023029
:10308000074B1A6C01321A64DA6B0132DA63DDE73E
:103090006B46DB79002BE4D1F2E7C04660050020E7
:1030A000E0050020064B08001B7810B5002B05D06A
:1030B000FFF7B6FF431E9841404210BD0120FBE7D9
:1030C0001A06002000207047F7B514000193050090
:1030D0000E00FFF7F7FF0F4B82009A1840004833AD
:1030E000576CC25C002A06D0002C04D01B185878FC
:1030F000FEF7C4FE241A012E07D9042E04D10121A3
:10310000019BE2B22800B847F7BD0021019BE2B263
:10311000F8E7C046E005002010B504000020FFF7E6
:10312000D1FF0D4B4000C25C002A06D0002C04D019
:103130001B185878FEF7A2FE441C0020074BE4B28F
:103140001B6FE4001B195A79824204D05879033866
:10315000431E9841013010BD280600206005002064
:10316000034B4068DB6C181A421E9041C0B2704796
:10317000E00500200023F0B58FB0019303780C0028
:1031800001270090002B7AD1DB4D0B882800029399
:103190008B78009A03938B7A54300693CB6807930D
:1031A0000B690893CB7A09934B6804930B7AD34944
:1031B0000A9302F03BFD009B06005B683D200DA9D1
:1031C000059302F039FF059ACD4B92009B183C22E3
:1031D0002900724358318E185E670023AD186B6664
:1031E000AB66EB662B67B383F31CDF77029B039A16
:1031F0003384731DDA77069A0B930333DA770A9ACE
:1032000020331A702B00079A0833DA67089A803344
:103210001A600022F31DDA772B00049A90331A60AB
:103220003300002234331A70FEF7C6FE0022B31DAD
:10323000DA77FEF7B5FE0023802258356B81B14B5B
:1032400052041A600223B04D05982A699A431A4322
:103250002A61AE4A516999430B435361002309998E
:103260002B615361049A02F0D5FF029B039A3384C9
:103270000B9BDA772B69BB433B4300272B61009BF9
:103280001B78012B59D123880293A37A002B57D0A6
:10329000012B58D0636998495A781B7803926A4683
:1032A0000493E3680693236907936368059323896E
:1032B0005BBA9385637A0A6A0893237A944C0993DC
:1032C000002A14D10220A36803438020A3608D4B01
:1032D0008004A26018600120A3680343A3608D4BA3
:1032E0001A759A61DA611A625A6214330B628A495A
:1032F000009A90258948804E02F098FC6D00454365
:10330000874B00900DA93C20ED1802F095FE02239A
:1033100001272B726068316AC0B20E78B8420CD9AE
:103320000022DB191E4212D0571C03325B00D2B2BE
:10333000FFB2DBB2824208D9012738000FB0F0BDDE
:1033400002230193A6E70023FBE73A00EAE7902770
:1033500073487F000A900098334347430A98C01986
:1033600042720B700B1D14311A68002A00D092E0D3
:103370001D602B7A687A80250A9301270300ED00EF
:103380000A9A8218934200DA8AE090230026009A73
:103390005B005343624D01245E51ED186E60FEF7F1
:1033A0000BFE2B0033331E70FEF7FAFD2B00019A43
:1033B0002C331A70029B039A2B852B0036331A701C
:1033C000049A0D985A70069BEE852B62079B6B62E0
:1033D0002B0034331E70023B1C706B7A0293059BEA
:1033E0001818590003F078FE0238FF287FDDFF200F
:1033F0003221029B464F9A004A4BD5191E00D31822
:10340000596002990131CCB2A446039C09062302FB
:10341000E024E4002340C024A40421400B43802185
:10342000414C19431419E16761468900CC198F1981
:1034300020267E6080273F041F433B4BE026C918AF
:10344000A023CF679021DB00E8503848C9006850BE
:10345000F0200132120600051040049AF600120214
:1034600032400243C120802600041043F600A851D8
:103470000F20E0502E4B63502E4B1343A351019B62
:10348000274C002B5AD12C4A902300995B004B43C8
:103490000027E25051E70433994200D064E768E71F
:1034A0001B4907268C4620499A0094445218D16F34
:1034B000B143D1676246032152598A4361464A515A
:1034C000216A3A008C469A406646D1B28E43266203
:1034D000666A01338E436662A66ADBB28E43A662D9
:1034E000266B8E43266322616261A26148E7002851
:1034F00000DD7DE720007BE7E005002030060020AE
:103500006005002000E100E000600640FC6006402D
:1035100000A00540600600202C0600208806002040
:10352000580B0020FCA0054004A005402202020127
:10353000121120008000C000690F00009023009A43
:103540005B0053436A46928DE3189A836246064BAA
:1035500009989D5C029A995C02F094FB29000898F6
:1035600002F090FB014A8FE7EC9E00004111000041
:10357000F7B505780F001E000192002D2FD140688D
:10358000244B82009B185C6FE31CDA7F002A3ED03C
:10359000019A6161A261221DD677DD770223A383A0
:1035A00023000833DB7F1C4E002B06D1E023B269D9
:1035B0005B011343B361FEF729FF2900200002F0ED
:1035C0008DFA200002F04EFA0322B36D9343B365E7
:1035D000B269124B1343B3612B001800FEBD0123E7
:1035E0009D42FAD1FFF7BCFD90235B0058430C4A83
:1035F0001018030032331A780223002AEDD000237A
:1036000032000199C760FEF7DFFC0300E5E7022303
:10361000E3E7C0466005002000600640011C000092
:10362000580B0020027870B50400002A14D1012440
:103630004168234B88001B1822485A670369A3433B
:1036400003618020204B4004D867204B186D543311
:1036500081422FD0002070BD01208242FBD120008A
:10366000FFF77EFD90235B004343194A0220D218E6
:10367000130032331B78002BEDD0536813489B00A6
:10368000C318196A0D000B1D14351E68964213D11C
:1036900000251D600123157A527AAB40013BDBB255
:1036A00093400A789A430A706268C36C9A42D1D1F7
:1036B0000022084B1A70CDE704339D42E5D1E9E7BB
:1036C000600500200060064004E100E0E005002005
:1036D000580B0020880600200278F8B50D00002A5B
:1036E0001FD142682C4B92009B18596F0B00083376
:1036F000DB7F012B08D18A69002A09D00720274BDC
:10370000DB6D03409B182B608B8B9BB21800F8BDC0
:103710000B69002BF7D0214AD26D5203520F9B1A2E
:10372000F1E701239A42F1D1FFF71AFD070090203B
:10373000400078431A4E3018030032331B788469F6
:10374000002B06D103002C331B78012B0ED0022B4B
:103750000FD090235B007B43F61833002C6032338C
:103760001A780223002AD1D0F38DCFE7FDF7FCFBB6
:10377000EFE70322037F0B4913400B4A5B019A18C2
:1037800012885B1812B21C88002A02DAE405E40DE4
:10379000DFE76404640CDCE760050020006006409D
:1037A000580B0020169000401E900040F0B587B0E6
:1037B00000930CAB1B880290039102A81100150026
:1037C0000193032402F03DFA0123019A009902A813
:1037D000FFF7CEFE0023144E0593144B70859F6FA8
:1037E000002810D002AB18780399013C02F064FE67
:1037F000E4B2290002A802F024FA002CE4D101204E
:10380000404207B0F0BD05A902A8FFF765FF70852B
:10381000022805D1054B9B6FDB1B632BF3D9E1E736
:103820000028DFD1EDE7C0466006002060050020DB
:1038300030B587B004A9020008000A4B30CB30C075
:10384000094B00209B6F0F236B44187001300090D0
:1038500005990498FFF7AAFF431E9841C0B207B02C
:1038600030BDC0460C06002060050020F8B50122DE
:1038700002211548FFF74AF89620C000FDF722FD07
:10388000002202211048FFF741F8104B104D9878A4
:10389000AF6F104CFFF7CCFFFA260300B600012BE8
:1038A00003D0AA6FD21BB24207D30120AA6F002B0C
:1038B00002D0002064342070F8BD23002C339878A7
:1038C000FFF7B6FF0300EAE740F00F408C06002048
:1038D000600500206006002010B50B4C012203217A
:1038E0002000FFF713F8C820FDF7ECFC00220321AD
:1038F0002000FFF70BF896204000FDF7E3FC0820BE
:10390000FFF796FFC04610BD80F00F40F0B599B0AC
:10391000039013200D00160004931EAB1B783D226C
:10392000059304AB0021C01806F0ACFA07A86B00A1
:103930000370049B08AC1B780321467026708370CB
:103940006370FCF771FD27000126A070059B02370C
:10395000B34217D85B00039A0133DBB2012A1FD1AF
:1039600000932A0023001449086F496FFFF71EFFD8
:103970004042C0B2002803D00122104B1A70C0464A
:1039800019B0F0BD049B04AA9B5D01217B70D3722A
:103990000B239B181800FCF747FD0136B870D5E7DC
:1039A000039A002A06D106490093C86A23002A0018
:1039B000096BDBE70620E2E7C0FDFF1F18060020C9
:1039C000E0050020F0B5354B8BB0059004925A7895
:1039D0000F000220002A31D19E7808AC1B7807AD79
:1039E0002F492A8020000632039306F05BFA059BDC
:1039F00001202380A770FDF765FC049B022B1FD0DC
:103A0000042B32D003200700012B17D10090230094
:103A10003E2231000398FFF779FF00280ED13900CC
:103A20002000FCF7F5FC052328706B70033B009326
:103A300060222B0031000398FFF768FF0BB0F0BD48
:103A40003F0AE770042723003E22310003980097C5
:103A5000FFF75CFF0028F1D139002000FCF7D8FC0B
:103A6000062328706B70049BE1E73B0AE3703B0C74
:103A7000237106233F0E67713E220093310023001D
:103A80000398FFF743FF0028D8D106212000FCF758
:103A9000BFFC082328706B70063BC8E78C0600202B
:103AA000F09E000080220D4B70B519680C480A4347
:103AB0001A60047A0B4A012C04D181251968A943A4
:103AC00019604475536F002B06D011006831097DD1
:103AD000002901D0906F984770BDC0460000044097
:103AE000C806002060060020024A936F01339367E6
:103AF0007047C04660050020F0B5B9B0C046E44B41
:103B00001B78002B00D0F3E2E24BE34A1F78002F32
:103B100000D0EAE21400536C30341978906B0391B2
:103B20005978C00305919B780B936378013B594208
:103B30004B4103330493A37B0C93536B19000A93FB
:103B400003F00CFAE37B2178227B80B2002B00D0BB
:103B5000FDE124AB197051424A4158805A701F72DE
:103B60009F809F7101230693C94ECA4A3000CB49FA
:103B70000830C94C02F05AF8E36A01900293029AA5
:103B8000C74B92009B189C68C64BD5589C46002D8D
:103B900000D0BEE0642343430398F11808736046E5
:103BA0000C364D730D82F1180C3311502900F018AA
:103BB000582206F067F9636F04236567636523681D
:103BC00025606560A560E564236D2565A565E565EF
:103BD00025666566A566E36E231DE56604332567E5
:103BE000B149A567E5679D67DD6780331D605D604E
:103BF0009D60DD601D615D618C4202D180239B0070
:103C0000E55000263200F300E318D868DA601A6144
:103C10008C4204D1330080339B00E3185A60013694
:103C2000082EF0D101250722636D0599AB432B4384
:103C300063652368114093430B4323600298FDF7AB
:103C40001DFB64220199924B4A439B185861230043
:103C500080218C331A68C9000A4380211A601A68CF
:103C600009010A4380211A601A6849010A43802128
:103C70001A601A6889000A431A601A688B49202062
:103C80000A401A601A688C468231FF310A431A6072
:103C90001022A16D9143A165A16D0E3A8143A165EA
:103CA000A16D00188143A165A16D1143A165A16DAE
:103CB0000E32A943A165A16DB143A1651968914375
:103CC0000A4320211A601A688A431A601A681C394C
:103CD0000A431A601A68BC31AA431A600FABE26E3D
:103CE0005B7C82439B0113432200E3660832D36F5F
:103CF0008B43D36762462368A13913402360029A3D
:103D00006B4B9A5653090A4095402033694A9B00F1
:103D10009D500298FDF7B2FA029A624B9200D35876
:103D20000D900393002B00D1DFE15B78002B00D0D6
:103D3000DBE1182223689343236023685E4A134023
:103D400023600423626D13436365049A039B5A70D6
:103D5000069B002B00D183E024AE33782000019332
:103D60005D087379019905935A1E9341DBB21A00DD
:103D70000893FCF769FC7378059A934200D0FCE045
:103D8000012220000199FCF74DFC24AA9379ED0053
:103D900009930223AB400793099B002B00D1F2E06B
:103DA0001023127AAB40002A00D1E8E0626E134380
:103DB0006366019B02225E1CF6B231002000FCF714
:103DC00031FC636E079A1A43626624ABDB79089A6A
:103DD000012B03D0059A53425A41D2B23100200040
:103DE000FCF732FC04220126AA40636E20009343B4
:103DF0003200AA406366636E93438022AA406366E2
:103E0000636E934310226366019BD9006118CB68EF
:103E10001343CB602023CA689A431A43CA604021E7
:103E2000A940AB40626E8A436266626E0199134399
:103E3000636624AB1A79FCF787FB3100019B22688B
:103E4000103399400B0013432360099B002B07D0CC
:103E5000019B22689B19DBB210339E4016432660FB
:103E6000002F00D1D3E014AD2E7820007308019309
:103E70006B7B31001A000593531E9A41D2B2FCF7B6
:103E8000E3FB2B7A059A934200D081E0012215E0F2
:103E9000E006002068FEFF1F40FEFF1FE406002032
:103EA000B89E00006005002000900340FFFEFFFF69
:103EB000F69E000000E100E0FFFDFFFF3100200062
:103EC000FCF7B0FB7208D200019204220199636EE4
:103ED0008A40102193436366F300E318DA680A43CB
:103EE000DA60DA6849180A433100DA6001231031D8
:103EF0008B4022681343212223600EAB9B181B7852
:103F0000002B52D005320EAB9B181B78751C1A0083
:103F10000793531E9A41EDB229002000D2B2FCF75C
:103F200093FB022229002000FCF77CFB22220EAB2F
:103F30009B181A780223019907988B4005998142B2
:103F400028D1002A28D1626E9A43626627E014AB1A
:103F50001970988051424A4101205F80DF71587288
:103F60001A72227C511E8A419A72627BDF729F8193
:103F70009F7306979A710700F6E5022201E7626EC9
:103F80009A43626615E7636E079A9343636629E76F
:103F9000022293E7002AD6D1626E1343636601239F
:103FA0001035AB4022681343236040220199636EB1
:103FB0008A409343636620238B40626E134363669B
:103FC00001238B40626E13436366802314AAD27967
:103FD0008B40002A4FD0626E134363661023019A10
:103FE000934014AA9279002A49D0626E1343636603
:103FF0000123350014AE9D4329002000F27A0135DB
:10400000FCF7A2FA2000327BE9B2FCF79DFA02220B
:10401000636D0D9813436365049B2268043B59420A
:104020004B4120215B018A4313430A99236002F02C
:1040300095FF039B0100986802F090FF039B80B2FC
:104040009880E36C1B0C1B04E364049B042B1AD1C3
:10405000A36840081B0C1B041843069BA060002BA0
:1040600017D1002F20D014A98B884A88029809788C
:10407000FCF770FD16E0626E9A436266AEE7626E10
:104080009A436266B4E7A36801381B0C1B0480B234
:10409000E2E724AB5A88197802980023FCF75AFD0E
:1040A000002FE0D1002835D13F22A36E0C99934315
:1040B00011400B43FF21A3660B9BA26E9B010B409B
:1040C0003F398A4313430122A366636DA839134322
:1040D0006365636D073213436365039B22681B7836
:1040E0008A43DB000B401343236001220B4B1A7001
:1040F00000220E210A48FEF709FCFA208000FDF795
:10410000E1F808480849094B425892B2134343501A
:1041100039B0F0BD0023039A5370E6E7E0060020B3
:1041200080F00F4000E000E00C0D00000400FA05F4
:10413000F0B5314C85B02378150002910192002B27
:1041400001D1FDF70AF9EFF31083012181F3108803
:104150000393E36A012B18D0022B24D0002B0ED13D
:10416000A36A626A934201D8216A5B18013B9A1ADA
:10417000954204D82A0021480299FCF785FD039B4B
:1041800083F31088280005B0F0BDA36A626A9342E9
:1041900001D8216A5B18013B9B1A2A009D4200D975
:1041A0001A001648E8E7646A134FBB6A3E6AA342E6
:1041B00020D9019A013B1B1B361B964200D91600E1
:1041C0009E4200D91E00F86932000019029905F0DC
:1041D00069FE029BA4199B190293019B9B1B0193EF
:1041E0003B6A9C4200D10024034B5C62019B002B84
:1041F000DAD1C4E7F318DCE700FCFF1F18FCFF1F4F
:10420000084943688A6901334360934209DB00220D
:10421000C968036889680133426003608B4200DB30
:104220000260704760050020F0B51D4B85B01B781B
:1042300001900420002B25D01A4C1B4DE26A636AC2
:104240009A4203D1226BA36A9A421ED0280003A986
:10425000FCF748FB013018D0144B039A9A421BD14B
:10426000E7687E69002E10D02800FCF715FB636913
:10427000011D019A3800B047013005D000201C34E0
:1042800006CC06C505B0F0BDC04623001C342C3357
:10429000072006CC06C3F5E72800FFF7B1FFCDE7FE
:1042A0001A060020600500208C0500200000FFFF9A
:1042B000C02270B5114C0021A5449200040068464C
:1042C00005F0E0FD002368462370FFF7ADFF0028EE
:1042D00012D1C02203000A4992006D46EE5CCD5C0B
:1042E000AE4205D001232370C0239B009D4470BDC6
:1042F00001339342F1D1F7E70720F5E700FDFFFF17
:10430000790C0020F0B50027040085B0019103A8C6
:1043100001A91500039705F0C5FD154BE418C0462B
:104320006B46DF72134B144E1A78BA4215D01F70C9
:104330000B236B441800FFF7BBFFB8420DD1C046FA
:104340006B46DB7ABB4208D071363378032B04D836
:104350000133DBB2042B09D0337008482A0020183F
:1043600003A905F09FFD002005B0F0BD3070F4E713
:1043700000C0FFFF50070020E0060020790C00205D
:10438000F0B5384B85B01B7801900420002B0ED07F
:10439000354CE368606A9968013002F083FF0D00D4
:1043A00003A92800FCF720FA013002D1082005B04B
:1043B000F0BD039B2D4EB3421CD0E3699D4208D152
:1043C0000023E1686A1C89682362E2618A4200DB9B
:1043D000E361E36A9D4208D10023E1686A1C8968B1
:1043E0002363E2628A4200DBE3622800FCF726FADC
:1043F0000130DBD0606A03A9FCF7F6F90130D5D0B3
:10440000039BB3421DD11A49606AFCF701FA0130DF
:10441000CCD02500243528001449FCF74FFA013090
:10442000C4D0E7683E69002EC0D02800FCF734FAFB
:104430006369011D019A3800B047013005D1C046BB
:10444000B4E70B4A9342E4D0B0E728000849FCF7F0
:1044500035FA0130F3D02800FFF7D2FEC046002025
:10446000A5E7C0461A0600206005002000FFFFFFF8
:104470000000FFFFF0B50025504B87B0DB68504FC0
:104480009E680295013E019503954C4CE068836857
:104490009D422ADB019B002B34D0029BFF275B420D
:1044A0001E4000236662A3623F06636A9E4262D09A
:1044B000039BE36100232362E269636A9A4204D1A9
:1044C000226AA36A9A4200D170E025001C352800B8
:1044D00004A9FCF707FA013014D03A4B049A9A4227
:1044E00064D02800FFF78CFEE6E743680168446962
:1044F000EB185943002C05D0082304AAA04701302B
:1045000004D1C0460120404207B0F0BD049B002BFF
:10451000F7D0FF221206934201D0013306D12800C2
:10452000FCF78CF90130EDD0254B0493049B244A11
:1045300093420ED0234A9342E3D1204A059912694F
:104540009142DED11E4A974212D00232FF320292CD
:1045500009E01A4A1169059A9142D2D1194A974243
:1045600004D0012201921F0001358EE76E1EF8E78C
:1045700001220395EBE725002435280004A9FCF768
:10458000B1F90130BED0049B5A1C00D190E70C4A0F
:10459000934204D020002430FFF732FE85E7390033
:1045A0002800FCF78BF90130F4D1ABE723001C3471
:1045B0002C33002006CC06C3A6E7C04660050020C9
:1045C00000FFFFFF0000FFFFFF2110B5054C0906AB
:1045D0002000FCF773F9431C03D02000FFF710FE06
:1045E000002010BD7C0500207FB502AC2200002514
:1045F000104B114E03CB03C22268736A9A4203D157
:104600006268B36A9A4206D0200001A9FCF76AF9F1
:10461000431C03D10500280004B070BDC0468022B1
:10462000019B52029B185A4253412000ED18FFF79C
:10463000E7FDE1E77C0500206005002070B500245F
:104640000500A04208DA0120404270BDFFF7BCFF20
:104650000130F8D00134E4B2AC42F7DB034B044A3A
:1046600003CA03C3FFF7C0FFEFE7C0468C05002075
:104670007C050020F0B587B004AC2200144B060086
:1046800003CB03C200231D00124F33600193226845
:104690007B6A9A4211D16268BB6A9A420DD1019B32
:1046A0003360C046280010E00B4B039A9A4200D1B9
:1046B00001952000FFF7A4FDE9E7200003A90135DB
:1046C000FCF710F9431CEFD1C04607B0F0BDC0465F
:1046D0007C050020600500200000FFFFF0B5234CA2
:1046E0001E00A544C8AB85B21700681E04CB00B2FB
:1046F0001C7800910192FFF7A1FF01302BD0002C14
:1047000011D1C0222100920002A805F0BBFB02A833
:10471000FFF78AFD00280CD0C0460F342000C323C9
:104720009B009D44F0BDC0221149920002A805F0F3
:10473000B9FB02A8FFF724FE041E02D0C0460D24D8
:10474000ECE700980130401B00B2FFF777FF3860BC
:10475000013002D1C0460124E0E70198FFF78AFF4B
:1047600030600130F6D0C046D8E7C046F4FCFFFF09
:10477000790C0020012270B50324634BC4B01A7079
:10478000FFF778FE051E0AD1FFF72EFF002800DD97
:1047900096E0C0466420FCF795FDC0460235013C1A
:1047A000002CEDD1022D28D1C046102012E0039834
:1047B000002800D19FE0002B00DC9CE00023009447
:1047C000019304AA02ABFFF789FFC046002800D17D
:1047D00091E0C04644B070BD029B012B00D08FE039
:1047E000039B012B00D08BE0C0464848FFF71CFD1F
:1047F000002800D084E00330ECE7FC222100802573
:1048000005A8049405F03EFB6D0004AE2A003100BB
:104810002000FEF7B5FA002850D1335CFF2B03D0FF
:10482000C046C0460520D5E70130A842F5D1802317
:104830000134FF345B019C42E7D1C0460025344C73
:10484000E3689B689D422ADB0025E3689B689D42E4
:104850002DDB0023E36123626362A362E3622363CF
:10486000FFF708FE011E4CD1C022284C9200200008
:1048700005F008FB2000FFF783FD002841D103ACC1
:104880002000FFF715FD03000420002BA2D12378A0
:10489000002B36D101221F4B01381A709AE70021F4
:1048A0002800FBF7B5FF01302BD00135C7E7280002
:1048B000FBF7C4FF013024D00135C6E7072089E7A4
:1048C0000495C046FFF790FE0490002819DBC0460F
:1048D00003AC2000FFF7CEFE011E029011DB049B0B
:1048E000984208DB012800DD61E7012B03DD039816
:1048F000002800D062E7C046049B012B00D16BE783
:10490000C046042066E7C0461A060020790C002045
:10491000600500205007002010B5094A094CC1214C
:10492000E260094A094B2261C022986C92006261E0
:104930008900083802F012FBA061FFF71BFF10BDD1
:1049400088FEFF1F60050020EEEE000040FEFF1F06
:1049500070B52D4CBF22A54400249200210003A86D
:10496000029405F08FFA6B46012201A920009C8079
:10497000FEF706FA6B460122591D2448FEF700FA9D
:104980006B461B79AA2B10D16B465B79552B0CD14A
:104990008020142223A94000FEF7F2F98A20082281
:1049A00038A94000FEF7ECF90134FFF7B5FF050028
:1049B000032821D0052801D010281DD1D02600259C
:1049C00036022800FEF72CFB00281AD180235B0159
:1049D000ED18B542F5D1FFF79FFF0500C04603284B
:1049E00009D1012C07D1C02202A99200084805F084
:1049F00059FA01F062F9C0462800C2239B009D4489
:104A000070BD0525F7E7C046F8FCFFFFFF0F00006B
:104A1000790C0020074B08201A68120507D5C02220
:104A200012019B5807389B039B0F03339840C0B279
:104A30007047C0460040024070B50500FFF7EAFF2E
:104A40000830C4B280202100800002F087FAC1B291
:104A5000280002F009FBA4086143C001024B0818BA
:104A60008000C01870BDC04680400240F0B50D0007
:104A700085B0FFF7E1FF2B00070000680833000353
:104A8000000F0193FBF7F4FC0600FFF7C3FF86421B
:104A900002D9FFF7BFFF06002E743B682B609B0214
:104AA00017D57B686B600323019C019A1C401A4256
:104AB0002CD1310099438C4221D2A3089B001A00CB
:104AC0000832BA18126812BA01980434C250E4B21B
:104AD000F1E77B689B0CE5E7A3089B000833FB1814
:104AE0001B681BBA200008300422281803A903936E
:104AF00005F0D8F90434E4B2019B9C42ECD30322C4
:104B00002D190135A64206D805B0F0BD32009A43F2
:104B100000240192F0E7130063400833FB181B7870
:104B20000134EB71E4B2ECE7F0B5BA4BBA4D89B0A1
:104B30001F6F0093AB6A286B0024184001231840B4
:104B400000281CD02B689B0000D4A4E0072C00D9BF
:104B5000A1E0052C73D17B79012B1AD03B002D33BA
:104B60001B78022B00D0F8E0E600BB190093DB793C
:104B7000002B00D0CEE02000FBF786FCD9E001340A
:104B8000202C00D100E1AA6A286B1040E0401840B8
:104B9000D6E73E68330008330093A04BD86F00037C
:104BA000000FFBF765FC9D4B3074DB6F9C4A019056
:104BB00033609B0214D5D36F032273600099009B6E
:104BC0001340114231D1019A93421DD29A0895495E
:104BD00092005118096809BA009804338150F2E72D
:104BE000D36F9B0CE8E78F4AB3089B009B181B68A8
:104BF0001BBA0393009B0422981903A905F052F9EC
:104C00000436019B9E42EED3202300202B633B0001
:104C10007871FC335E68864209D13E007B792D367F
:104C2000D8B2002B08D033789BE70026E9E73B0099
:104C300002000121B047F0E7FCF792F8F3E7062CF9
:104C400014D140232B633B003E00FC335B683536B8
:104C50009C460096002B01D1330081E73B000022E7
:104C6000022110006646B047009B79E7072C03D06D
:104C7000E300FB185B7974E780232B633B003E0065
:104C8000FC335B683D369C460096002BE4D03B002D
:104C900000220321E5E7E600BB1900935B79012BB5
:104CA00034D12000FFF7C8FE0368009B200019687C
:104CB000FFF7DCFE2000FBF7E7FB2B689B0027D506
:104CC000009B1B681B681B011B0F21D12000FFF7F5
:104CD000B3FE554A03681340036080230268DB0477
:104CE000134303600020009B58713B00FC335B685A
:104CF0001E00834203D03B0022000100B047009B0E
:104D00005B79002B02D12000FCF79CFA009BB1E7F5
:104D1000AB68E7E72000FFF78FFE03A903682000D8
:104D2000FFF7A4FEAB68039B1B011B0F042B00D1F4
:104D300021E70020009B58713B00FC335B681E009C
:104D4000834203D03B0022000421B047009B5B79E3
:104D5000002B02D12000FCF775FAAA6A2B6B1340D6
:104D6000E340DB070AD52B689B0009D5072C07D841
:104D70007B79002B02D12000FBF786FB09B0F0BD48
:104D8000E300FB185B79F4E7284C2B592A595B0C9C
:104D9000120C13430122134226D02B685B0423D547
:104DA0002B595B0C13420DD080232A599B021343CD
:104DB0002B513B00FC335E68002E03D03B00020009
:104DC0000521B0472B59DB030ED580232A595B02FE
:104DD00013432B513B00FC335C68002C04D00022B1
:104DE0003B0006211000A0470221EA692B6A0B4014
:104DF0001343C3D0009B1A6F1300FC33DB68002BF6
:104E000002D00020083198472A6A094B1A42B5D0CF
:104E10002B62B3E7600500200040024004400240DE
:104E20000840024088400240FFFFFFF0080B0000EE
:104E300006003B0010B5FFF777FE10BDF0B585B05A
:104E400001930AAB1B780292039307000E00FFF751
:104E5000F3FD7F22594D04002B68134080229205F8
:104E60009F4232D82B68134242D12B681B0509D5CB
:104E7000B37B002B06D0C02280231201A9581B0649
:104E80000B43AB50B368FF25DAB2402A02D84C4A34
:104E90002B40D55C019B002B2CD100232360636049
:104EA0003379012B56D163685B0F5B076360029B0C
:104EB0006268DB00DB081343C0226360D2033368FF
:104EC0000F2B57D1002005B0F0BD2B6813420CD03A
:104ED000C0239B00686B00930001000FFCF7CEFF1E
:104EE000874202D9009B002BBFD0C0208000EAE798
:104EF0000023EFE72300E8B208330093FBF7B8FA8A
:104F00000322002394466146B2688A4393420ED33B
:104F10000321B268934214D303218242BDD20B0015
:104F2000009F5340FB18777B01321F70F5E7009F0D
:104F300001999A089200BF188A5812BA3A6004334D
:104F4000E1E70A00009F5A40BA18019FFF5C013355
:104F50001770DEE7002B01D00022B0E76368194A22
:104F6000194913406360029B62689B040B40134322
:104F70006360F1E7F0212D0409030D4015431C2B5C
:104F800003D180225203154302E0039A002AF8D18C
:104F9000F0221B0612051340327B2B43002A02D05D
:104FA000802212061343B27B002A02D08022D2054F
:104FB000134322681343236084E7C0460040024045
:104FC000F89E0000FFFF03E00000FC1FF8B50D0095
:104FD0000600FFF731FD7F21274B04001A680A40C5
:104FE0008021890596421CD81A680A422AD10023DA
:104FF000236063602B79012B26D1802322689B03D9
:105000001343236023681D4A1340236063685B0FCA
:105010005B076360636863602B680F2B1ED1002001
:10502000F8BD1A680A420AD0C027BF00586B0001B9
:10503000000FFCF723FF864201D9002FD7D0C020F4
:105040008000EDE70027F1E7002BE5D123680C4A4B
:105050001340236063680B4A1340DAE7F0212368AA
:10506000094A0905134023602B6822681B060B4080
:1050700013432360D3E7C04600400240FFFFBFFF59
:10508000FFFF9FFFFFFF03E0FFFFFFF08022264BA3
:10509000D205196830B50A431A6080221968520592
:1050A0000A431A601A680121002A04DA1A688A4041
:1050B000CA4000211A6000229A601D6880242800DE
:1050C00024012040254222D1802252041C6814422F
:1050D00001D1B32825D91A68D2010BD480209D6A4A
:1050E0001C681A68800402431A601A680242FCD1E4
:1050F0009D621C60002909D18022196812060A43AA
:105100001A608022520319681142FCD030BD8024FD
:10511000064864041D682542DDD18242DBD89A68C6
:10512000F8E79868D2E7C04600400240D902000084
:10513000F0B599B013AD040014220021280004F04A
:10514000A1FE10230822210015A814932A7404F04C
:10515000A9FE032303938F4A8F4B1478002C04D0AD
:105160005278002A00D08AE0012400200121723305
:105170000DAD19550D902871FDF7A4FF4301874A25
:105180001B199B009D50864B4000C25C2700002AE3
:1051900004D01B185878FCF771FE2718FEB23000B7
:1051A000FCF771FE021E0BD108230FA9087188813C
:1051B00088738B600F93009003003000FFF73EFE72
:1051C000EB783000059313AB1A7C149B06922A7877
:1051D0000792AA7808926A7809922A790A93049227
:1051E000FCF751FE002837D16E4B1D6FE0231F42A4
:1051F00032D1F300ED186B79DAB20B92002B2BD180
:105200003000FBF741F902236B710B9B0FA9AB71C7
:10521000049B049AEB71069B8B60059B0B71079BAB
:105220000B73089B4B73099B8B730C23002A00D0D4
:1052300010330F93049B300000930A9A15ABFFF7CD
:10524000FDFD002814D11F2301223B409A4013008A
:105250005549886A03438B62524E4F4BB56F5D6769
:105260002000FDF759FF002805D1C04619B0F0BD58
:1052700000236B71F0E7012800D084E0C046039F53
:10528000013FFBB20393002B00D064E7474B454D31
:105290001B78012B73D1404EB36F012B6CD12B6F58
:1052A000414C002B3BD0FC33DB68002B37D06368CC
:1052B0003F4A13406360636B5B005B086363C0231A
:1052C00062681B011A4203D123683A4A13402360E3
:1052D0006368394A13406360C02362681B011A4245
:1052E00003D12368334A134023606368334A134071
:1052F0006360C02362681B011A4203D123682D4AF0
:105300001340236063682E4A13406360C0236268C1
:105310001B011A4203D12368264A134023608022CE
:10532000284BD200DA67DA67DA6780221201DA677F
:10533000DA672368002B0EDBFFF7A8FE2368002B3B
:1053400009DB802322681B061343236080235B0351
:1053500022681A42FCD000232B67F36F002B01D187
:10536000194A1370300002220021723004F08AFDC5
:105370000023B36701F0E6FB00236C352B70C046B9
:105380000120404272E7B36F5B1B012B00D867E737
:1053900074E7C04652070020E0060020FC0700200A
:1053A000280600206005002000400240CC050020B7
:1053B000FFBFFFFFFFFFDFFFFFFBFFFFFFF7FFFF69
:1053C000FF7FFFFF04E100E060070020074B084972
:1053D0001A680A401A601A6806490A401A60802250
:1053E000520419681142FCD17047C0460040024087
:1053F000FFFFFFEFFFFFFFBFF7B5040000200191A3
:10540000FDF760FE3D4B4000C25C002A47D0002CF7
:1054100040D13B4B1C6F2700FF37BD7C012D14D1C1
:105420006379032B11D1374E336B5B092B420AD0C2
:10543000FFF72CFE2023344935630A68326B1A4289
:10544000FBD1FFF7C3FF002363716379DAB2002B4E
:1054500001D00220FEBD2B4B012019688900F9D52F
:1054600001996071A2712160002D0DD14022996ACD
:105470000A439A628022996A0A439A622022996AB0
:105480000A439A620020E5E7012DFBD11F49787C91
:10549000FAF7E8FF1B185878FCF7F0FC2418E6B27E
:1054A0003000FCF7F0FC002824D1E0231C4221D17D
:1054B000144D2B689B0006D5686B0001000FFCF7AC
:1054C000DDFCB04216D20E4BF600186F80194379FE
:1054D000DAB2002BBDD18271E02201990133437110
:1054E00001601442CED11F210C40A340AA6A13438D
:1054F000AB62C7E7C0208000ACE7C04628060020AA
:1055000060050020004002408C400240050E000073
:10551000F7B5002410000194A14208D0012921D040
:10552000174B01A81B6A019301F0CAF8F7BD1424B8
:105530005443144FE5192900FFF75EFF6B6806001E
:10554000102B0BD12B7A242B08D10834E119CB79FD
:10555000232B03D10C482A7C04F0A4FC002EDFD0BE
:10556000C046DDE7094A0A4B516F72329B6F1454F3
:10557000084A5B1AD1688B42D2D9D360D0E7C046C3
:10558000004002407C0F002061070020E006002060
:105590006005002060070020F0B50600002089B0FB
:1055A00002AB0D0018809870DE701871FDF78AFD4F
:1055B00043015B4A5B199B0002A99950594B40007B
:1055C000C25C2C00002A04D01B185878FCF756FC4B
:1055D0002C18E4B22000FCF756FC002848D1082320
:1055E000069302AB187520001E73FAF74DFF0F23C8
:1055F000200004A90493FFF7E9FC002838D10490A7
:1056000004A92000FFF7E2FC002831D10423200088
:1056100004A90493FFF7DAFC002829D18027200091
:10562000414CFAF731FF23687F02DB0118D4FFF702
:105630002DFD23683B432360FFF7C8FE22688023CB
:1056400011005B0419407F2701911A420CD1FFF72A
:105650001DFD23683B409D420ED9FFF7B7FE07E0D2
:1056600023681F432760E9E723683B409D4214D924
:105670000120404209B0F0BD2268802311009B0543
:1056800019401A4226D188239B00EB189B00002E5C
:105690001ED1E650FFF79AFE0DE02268802311002C
:1056A0009B0519401A4215D188239B00EB189B00DB
:1056B000002E0BD1E650142169431C4B2800C91859
:1056C000FFF79AFE0028D3D1C046D3E7E150F2E7B6
:1056D000E150DFE71E23626BE9B2D20D1A40882346
:1056E00007329B00EB18914211D822689205920F65
:1056F000511E022908D8012A06D0022A04D001220C
:105700009B005242E25006E09B000022FAE79B0019
:10571000002EFAD1E650019B002BCCD1BAE7C0464F
:10572000FC07002028060020004002407C0F0020DB
:105730007FB5264B06201B78002B45D000216B46F9
:105740000124D9730F230A0000946B44793000F0D0
:105750006BF9002838D16B46DA7B1D4B1500197C9C
:105760002540A1432943550802262540A540197428
:10577000197CB143294395082540B5401974197C1B
:10578000B619B14329431974197CD508254004364C
:10579000ED00B14329431974197C150925400836D9
:1057A0002D01B14329431974197C55092540103640
:1057B0006D01B14329431974197C920922403F3489
:1057C0009201A1430A431A7404B070BDC4060020BC
:1057D0006007002030B50E4B04005A78022585B0D2
:1057E000002A0AD1187899786B465A731C733E3296
:1057F000009503ABFEF78AF8050002208443902C45
:1058000004D1FBF75FFD280005B030BD0120F8E7AB
:105810008C060020F0B58DB0069312AB1B781600F5
:10582000424A0793537884460220002B3ED109A8B0
:1058300003800AAD94780B932B806346DBB203930D
:105840006346177862461B0A049306AB9A82012EC0
:105850003AD0022E54D002263E2221003800009673
:105860000BABFEF753F8002820D1314B9B6F05930B
:1058700009AD2B003E22210038000096FDF74FF8BD
:105880002B4A0599926F0300521A052A0ED82A78DE
:10589000FF2A02D16978FF29EAD00399914207D102
:1058A0006A7804998A4203D1002B04D00DB0F0BD70
:1058B000C0460120FAE7079B4022009321003800F0
:1058C000069BFDF72CF8F1E7032606AB99753E22FF
:1058D0002100380000960BABFEF718F80028E5D140
:1058E00031000BA8FAF794FD05236B70033B287079
:1058F00000932B00602221003800FEF707F8D5E75F
:1059000006AB997504233E220093210038000BABAF
:10591000FDF7FCFF0028C9D104210BA8FAF778FD98
:10592000062328706B700096E3E7C0468C060020C3
:10593000600500208022F8B5264B274E5C68520097
:105940008C4224D11B78834221D10825234F244C3B
:10595000FB68032133401343FB6063690022AB43C0
:105960002B4320006361FCF7D1FF09222368013A31
:10597000AB432B4323602368AB432360002AF5D15C
:10598000C023FA689B0032401343FB60F8BD042536
:10599000144F154CBB68022133401A43BA60636947
:1059A0000022AB432B4320006361FCF7AFFF0922C9
:1059B0002368013AAB432B4323602368AB43236046
:1059C000002AF5D1A023BA68DB0032401343BB6044
:1059D000DCE7C0460C060020FFF8FFFF0090044003
:1059E00000F00F4000C00440C0F00F4030B500216F
:1059F000022587B005AC218023000A0057200095BE
:105A0000FFF708FF00280AD10E21627823781202DE
:105A10009B1869442A0003480B8004F043FAC046EF
:105A200007B030BDFC110020F0B50D4E85B00D0063
:105A30000AA90F78717804000220002909D1307872
:105A4000B17803AE35800097012A04D02200FCF71C
:105A500066FF05B0F0BD33002200FDF757FFF8E701
:105A60008C06002070B5C27A0E4C857AE36D6168B1
:105A700095420BD10F2211400E3A07258A402B4048
:105A800092B28169002901D09A4200D870BD436961
:105A900001391E780133266681614361E36D2B4035
:105AA000EFE7C046006006400F2370B50A4CE56D75
:105AB00066681E400E3BB34007269BB235409D42B0
:105AC00003D209028918216670BD837AC154C118B6
:105AD00001334A718372F7E700600640F8B5431D51
:105AE000048CDB7F05000E00E7B2002B12D00623EA
:105AF000E4091C402200103A0421D2B2FFF7D4FF7F
:105B00000F3C3A0000212800FFF7CEFFE2B2002E42
:105B100003D1F8BD7F00CA19D2B204212800FFF7D3
:105B2000C3FFF6E7114B4001C218114BC118002307
:105B30000B608021490153500E4953520E49535274
:105B40000E4A821813600E4A821813600D4A82189A
:105B500013800D4A821813800C4A821813600C4A75
:105B6000821813800B4A8018038070470080004021
:105B70000890004004100000061000000C90004047
:105B80001090004014900040169000401890004083
:105B90001C9000401E900040114B4001C218138819
:105BA00010B5104C1BB209B20019002B0CDA138887
:105BB000C9055B0A5B02C90D0B43138003885B0AAE
:105BC0005B021943018010BD13884904DB0BDB0322
:105BD000490C0B4313800388DB0BDB03F1E7C04662
:105BE0001E900040169000400E4B40011B681B06A3
:105BF00015D50D4BC3181A68002A06DB1A68520027
:105C000003D48900890819607047074B8905C018BB
:105C10000368890D9B0A9B0219430160F4E7024B5C
:105C2000C018FAE7008000400890004010B50478E2
:105C300003000120002C03D152680A601870200074
:105C400010BD027810B50C00002A07D141680B4B3B
:105C50008900CB581C840533DA7710BD012AFCD1AA
:105C6000FDF77EFA902252004243054B9A1813002A
:105C700032331B78002BF0D01485EEE7D4050020DA
:105C8000580B002030B57F243F25094B29401A5C72
:105C900022401A541A5CAA430A4340211A541A5C3F
:105CA0008A431A541A5C491822400A431A5430BDD8
:105CB0000010024080000368FFDE30B500244A4B2C
:105CC00087B05C600B236B441800FEF7F1FAA0422A
:105CD00000D07CE06B46DB7AA3423AD04348FEF723
:105CE0004FFBA04243D1424C2000FEF789FA0B2320
:105CF0006B441800FEF7DCFA00282CD16B46DB7AE7
:105D0000002B28D1FEF760FC3A4B01301BD1103339
:105D100003CB03C400230393FEF766FC041E049028
:105D20000FDB03AD2800FEF7A5FC0590002808DB7B
:105D3000844206DC012824DC012C02DD039B002BBD
:105D400024D107B030BD01212B4A1033117003CB91
:105D500003C4C046F5E7294A1378032BDAD8013388
:105D6000DBB2042B01D01370D4E70023FBE7082833
:105D7000D0D003000B3BDBB2012BEAD90E28E0D1D7
:105D8000E7E7039B002BDCD0002CDAD0C0460123D0
:105D9000059901930398009505AB04AAFEF79EFCB4
:105DA0000028CED1049B012BCBD1059B012BC8D160
:105DB000039B012BC5D10A336B441800FEF778FA18
:105DC0000028BED16B46DB7A002BC2D0B9E7C046B3
:105DD0000A4A1378032BCCD80133DBB2042B01D051
:105DE0001370C6E71470C4E7FC110020790C002082
:105DF0008C0500206C050020500700205107002072
:105E000037B50500242268460024124B02709B78A7
:105E100081704370280001F049FA844213D3C0B264
:105E20000022042802D80432121AD2B20330C0B2BF
:105E30000021684404F026F823236A466846D3719B
:105E4000FFF776F937BD23002A5D6B440134DA7021
:105E5000E4B2DFE76107002013B56C4624236170CC
:105E6000A27001000422E01C237004F01BF823231D
:105E70006846E371FFF75CF913BD10B50400FCF749
:105E80009BF82378FF2B03D023780133DBB22370F8
:105E9000FCF786F810BD70B5164B174C1D686B1DCE
:105EA000DA7F012A1CD1A3699343A361A36901325C
:105EB0009343A36100260020FCF71CFCC0232E7333
:105EC00022699B001A4322612269134323616B7983
:105ED000B34204D028002530FFF7CFFF6E7170BDAC
:105EE0000222E3699343E361E369013A9343E36187
:105EF000E0E7C0466805002000C002401823F7B55F
:105F00000C0043435B180193019BA34200D1F7BDF2
:105F1000616820688E00237A86193768012B44D087
:105F2000022B46D0002B01D102339F4310239F4305
:105F3000637AE0251B011F434023A27A9F4392010D
:105F400013403B43204AE77A1340ED003A022A40CF
:105F5000F02513431D4A2D031340227BD2031A431D
:105F60001B4B1A40637B1B042B401343A27B002A6C
:105F700002D080225204134333600123C030844690
:105F8000E27B8B408A4065460668D8439E43324395
:105F90002A60012F07D12769227D7E69002A0AD055
:105FA000012A0AD07E611834AEE79F4302231F43C3
:105FB000BCE70323FBE70640F4E73800627D1E439D
:105FC000FCF7A4FCEEE7C046FFF8FFFFFF7FFFFFF2
:105FD000FFFFF0FF074B10B58200D458FCF7A4FB7D
:105FE000C02322699B001A43226122691343236163
:105FF00010BDC046F89F000073B5040006A80078E5
:10600000079E09AD2D78009001962000FBF79EFEBB
:1060100000280ED103231C4020000899FFF7BCFD87
:106020000822044B6401E4182388ED0093431D43C8
:10603000258073BD1C900040F8B505000C001128A8
:1060400038D80F2800D9A7E001F032F8080D0F1159
:1060500014171AA61D2023282A2D2F320020FBF703
:106060003DFD206040E00120F9E70220F7E7FBF763
:106070002DFEF6E7FBF708FAF3E7FBF71DFAF0E76A
:10608000FBF7F2F9EDE75A4B1868EAE7FBF752FD28
:10609000E7E700210420FBF769FDE2E70121F9E7CA
:1060A00000210520F7E70121FBE700210620F2E7A8
:1060B0000121FBE721285AD8153800230C2812D8D3
:1060C00000F0F6FF0713171B1E2738485151515196
:1060D0005100484BDA6892010023920F032A02D044
:1060E000454B9200D3582360F8BD424BDA68120149
:1060F000F2E7FBF7EBFD0300F5E7FBF7A7FDFAE797
:106100003E4B9A780023D209012AECD0FBF7C2FD5E
:10611000F1E73A4B9A780023D209012AE3D0012211
:10612000344B1B691340364A013B1340FA2292005C
:106130009B18D8E7314B9A780023D209012AD2D094
:106140002C4B022219690B0013401142CBD0FA23C9
:10615000DB01C8E7294B9A780023D209012AC2D073
:10616000FA235B02BFE7234B1B6C0023BBE74328EA
:10617000BAD8222810D00200323AD2B2112A03D85B
:10618000204BD340DB0707D41F4B6A00D35A1F4A6A
:106190009B009B585B0001D4002062E71C4B5F5DB5
:1061A0002023380018401F4212D00120FBF796FC34
:1061B0000028F1D018231F42EED010263E403F07A2
:1061C0000DD4002EE8D001212800FBF70FFD48E791
:1061D0007B06EBD47BB2002BECDA0220E6E7002151
:1061E0002800FBF703FD002E00D13AE7EBE7C0469D
:1061F000F005002000800440F405002000D0074096
:1062000018FCFFFF290102006C9F000000500640AF
:1062100004A10000F0B5404B8000C35887B0019343
:1062200003910333DB7F1600002B73D001273B4C17
:1062300005A93D20FFF700FF23695F21BB432361D0
:10624000002E2FD0059B7143581E029300F086FE4E
:10625000C0190025B84206D90135072D03D03B00EF
:10626000AB409842F8D83100A940029B4808C018BA
:1062700000F074FE06005F2817D8012817D9023EE7
:106280000321300000F06AFE021E00D10122301A04
:10629000032800D2032011005308052E0BD8002339
:1062A000012107E00E000725E9E75F26E7E7002365
:1062B0000121032002220727666ABE432E4366623D
:1062C000A56C174E3540002B00D101331B062B4324
:1062D000A364A36C134D12042B401A43A264A36C55
:1062E000114A090213403F221943A164A36C1040D4
:1062F00093431843A064636A0C4A13406362636A61
:106300000B4A13406362039A019B9A770122236927
:106310001343236107B0F0BDD405002000600640A0
:10632000FFFFFFC0FFFFC0FFFFC0FFFFFFFFFFF841
:10633000FFFDFFFFF0B585B001930AAB1C78019B10
:1063400007005E1C13000133734302934B1C73431D
:106350000D0000920393022C3FD0032C40D0012C5F
:1063600006D0012857D00020022F11D000204AE08B
:10637000FBF77AF80009012F35D0022FF6D10C2255
:1063800062432F4B9B18DB691B095E43B04239D82F
:106390000C2262432A4B02999B181A6A1209514334
:1063A00081422FD35B6A039A1B095A43824229D345
:1063B000F02324061B051C400F23FF221D40009BD9
:1063C0002C431B011340F0221C43019B12031B04AE
:1063D00013401C431B4B9C61C8E7FBF755F8C9E70A
:1063E000FBF76AF8C6E70C226243174B9B189A6CBE
:1063F00012097243904205D8DA6C0299120951438E
:10640000884202D9012005B0F0BD1B6D039A1B091B
:106410005A439042F6D8F02324061B051C400F2354
:10642000FF222B401C43009B1B011340F0221C4306
:10643000019B12031B0413401C43024B5C6195E754
:1064400084A100000040064004A1000010B5064CE5
:10645000A368002B07D105490548FCF78BFE0028EF
:1064600001D10123A36010BDFC1100209002002087
:106470000C06002013B50D4CE368002B14D102214B
:106480001A00012802D018000431073201AB19703C
:1064900007492074CB62074818315A70FCF76AFE2E
:1064A000002801D10123E36013BDC046FC11002088
:1064B0009002002030FEFF1F70B5050014480E004A
:1064C0004368144C8B4211D10378AB420ED1A368C0
:1064D000012B04D1FDF7A6F8002804D1A0603100FB
:1064E0002800FFF727FAFFF7B1FF70BDE368012B23
:1064F00009D10948FDF796F8002804D1E060310081
:106500002800FFF717FA207CFFF7B4FFEDE7C0463D
:106510000C060020FC11002030FEFF1FF0B58DB0EE
:10652000059312AB039204CB06901B88079106A833
:10653000039901930492FFF784FB03230AAD0293AE
:106540002A0006AB03CB03C20A2106ABC918059B80
:1065500001220B8028000023FDF70AF8504B188019
:10656000002309934F4B1C68280009A9FDF7B4F8D4
:106570004B4B1880022804D14A4B1B681B1B632B12
:10658000F2D92B78002B6CD16868474A81008C586F
:106590000226E21CD17F002916D001270199216132
:1065A000D377231DDF77049BA683E36023000833A2
:1065B000DB7F3E4E002B2BD1E023B2695B011343FE
:1065C000B361FBF723FF00260023354C0993354BBD
:1065D00026801E68280009A9FDF77EF82080022881
:1065E0005AD1304B1B689B1B632BF3D906AB187831
:1065F0000799FFF761FF039906A8FFF722FB029BAB
:10660000013BDBB20293002B9AD10120404245E0CE
:1066100039002000FFF762FA019B39005A1E200062
:10662000D2B2FFF741FA73681B051B0F9F40019B15
:10663000BB4200D3BBB2B26D1D49013B0A40C02131
:106640001B0489020B401343B365A27AE37A9A4292
:1066500004D0B269174B1343B361B4E7B269164B68
:10666000F9E70126B342AFD12800FCF779FD90236A
:106670005B005843114A1018030032331B78002B7B
:1066800008D0049B3200036101993300FBF79CFCA6
:10669000060099E7022697E70028A7D10DB0F0BDC4
:1066A0008A060020D8050020D4050020006006409E
:1066B000FFFFFCFF031C0000021C0000580B002021
:1066C00003685B0700D5C04603681B0700D5C046BA
:1066D00003685B0600D5C04603681B0600D5C046AC
:1066E0000368DB0500D5C04603689B0500D5C0469E
:1066F00003685B0500D5C0460368DB0400D5C046CF
:1067000003689B0400D5C04603685B0400D5C046FF
:1067100003681B0400D5C0460368DB0300D5C046F0
:1067200003689B0300D5C04603685B0300D5C046E1
:1067300003681B0300D5C04603689B0200D5C04612
:106740007047F0B53B4F04003B7885B0002B17D065
:10675000FEF7EEFF3B78002B01D0FFF747F9364BF1
:106760001B78DA06D50F002A4FDA002C0AD19320C5
:10677000FFF730F8002801D1FEF7DAFFFEF7D8FF67
:1067800005B0F0BDFEF7D4FF0022072106002B481C
:10679000FCF7BCF8FEF7CCFF844600282ED1284C2D
:1067A0002378237823782378237823782378207814
:1067B000217822783B78C00789071207C00FC90FDC
:1067C000D20F002B1AD00F23674669406840800023
:1067D000C9006A40014352006B441F701143972067
:1067E0002A000095FFF716F8002807D1FEF7A0FF52
:1067F000002803D123785B0700D5C046C046002E91
:10680000BCD1FEF795FFC046B8E70D4D2A78520778
:10681000D20F9442B2D05B07DB0FA342AED0202050
:10682000FEF7D8FF2B781B07A8D42220FEF7D2FF53
:10683000A4E7C046C4060020FC11002000F00F4071
:1068400070070020F0B5454D04002B7889B0002B6F
:106850006ED0FEF76DFF2B78002B01D0FFF7C6F846
:106860003F4B1B78DA06D50F002A63DA9420002C00
:1068700000D170E0FEF75CFF002208213948FCF7E8
:1068800045F8FEF755FF00284FD1374C2378227882
:106890002378277803932678217823789207049326
:1068A0000423D20F52002A430592039A1A40130080
:1068B000059A1A4308231F40DB181E403A43103341
:1068C000194032430A43049920330B401A437F2373
:1068D0001A40224B2678217827781B78760789077B
:1068E0003F079446F60FC90FFF0F002B1DD00F2353
:1068F00004AA9B1818706246280069406F40C900BE
:106900007F00904339436E4082003143114397200A
:106910002A000095FEF77EFF002806D1FEF708FF4B
:10692000002802D12378DB0700D4C046FEF700FF21
:1069300009B0F0BD0C4D2A78D207D20F9442F5D0A1
:106940009B07DB0FA342F1D01F20FEF743FF2B78FC
:106950001B07EBD42220FEF73DFFE7E7C40600202B
:10696000FC11002080F00F4070070020F0B56F4B45
:106970008FB005931B780490002B00D1BAE0C0467D
:106980000021022606AD29802B000A006220009615
:10699000FFF74AF80390002800D0ABE02B880122D3
:1069A0001800634C1040617C042791430143580850
:1069B000104090406174617CB143014398081040DD
:1069C000B0406174617CB94301436174617CD80853
:1069D0001040FF19C000B94301436174617C18097C
:1069E000104008370001B94301436174617C5809C4
:1069F000104010374001B94301436174617C98092C
:106A0000104020378001B94301436174617C3F37F6
:106A1000BC4639405F0A17409740D8091040C00172
:106A20000143617443494878B043384304274870B0
:106A300048789E0A1640B600B843304348704878FC
:106A4000DE0A1640FF19F600B84330434870487814
:106A50001E0B164008373601B8433043487048785B
:106A60005E0B164010377601B843304348704878C3
:106A70009E0B16402037B601B8433043487060463D
:106A8000DB0B13404A78DB01024013434B70059B3C
:106A90001B78002B46D0039B1C22190007A80693E5
:106AA00003F0F0F9039A203F2B00110075200097A6
:106AB000FEF7B0FE002835D123002A00143323CA84
:106AC00023C323CA23C303CA03C3A38A1A4A1BB21C
:106AD000934209DDA38A194A1BB2934204DC637C0A
:106AE000DB09049A137005E00023049A3434137010
:106AF00001332370049B12491B780D4A0B70002B45
:106B00000ED0527CD209012A0AD1084B1B78002BE7
:106B100006D0022380210093622006ABFEF784FF9B
:106B20000FB0F0BDC0460023DBE7C046C40600201E
:106B3000FC1100200D120020776900001879000078
:106B400031120020F0B5B24B85B001931B68002BC9
:106B500001D005B0F0BDAF4A1378002B03D1AE4988
:106B60000B6001231370AD4BAD4C02930023029ACE
:106B700013702368002B64DA802263689201134348
:106B800063602368DB026CD4FEF780FA80232268FE
:106B90009B041A43226022681100194000911A4296
:106BA000F9D1802322685B0113432360009A9D4B37
:106BB0009D4D04C3AB42FCD100229C4B9C4904C3B5
:106BC0008B42FCD101235B4223616361A361A2621A
:106BD00080222363974B920223622368134323602E
:106BE0002368954A1340236023681B0505D5C022FE
:106BF0001201A35891490B40A350FDF70BFF07006A
:106C00001F20FDF719FFC0190830A842A1D87F2323
:106C100022689A43603B1343236022688023150057
:106C20009B051D402E001A422DD023681B053ED423
:106C30006368834A134063606268824B13436360F6
:106C400046E0FEF723FA2368002B95DB80232268B9
:106C50001B061343236080235B0322681A42FCD087
:106C60008AE72368784A5B005B0823602368134047
:106C700023602368754A1340236080231B05226824
:106C80001A42FCD180E72800FDF7D6FE0822030057
:106C90005242066008334660101AC218974203D861
:106CA0000135202DEFD1C0E71E700133F5E7236DCC
:106CB0006749DB0FDB072365226D664B13432365B2
:106CC000654BE2580A40E250E158644A0A43E250F8
:106CD0002368634A634D134008222360636893432B
:106CE0006360614A636813406360FEF76FFB802353
:106CF000DB002B600B202B602B60FBF745F90B2092
:106D0000FBF742F9594F0026FBF756F9009B574A0B
:106D1000DB00D31803931E71FBF742F9039BBE718E
:106D20003E605E71009B083701330093202BEAD14F
:106D30004E4B4E4AFE335E824D4B4C4F1A60029BC7
:106D4000FC3718787E60BE60FE603E61B04201D0C4
:106D50007378FFDEFCF7B6F9464B474A8000C25015
:106D6000464B22687B60464B1600FB6080235B0429
:106D70001E401A4201D1FEF789F98023626B1B067F
:106D80001343636380236268DB01134363608023E2
:106D900022689B031A43226080226168D2000A4362
:106DA0006260226813432360802362681B011343DF
:106DB0006360802362681B0213436360002E01D16D
:106DC000FEF704FB0120019B1860C2239B00EA58D8
:106DD0001202120AEA508022E95812060A43EA50C7
:106DE000EA5828490A40EA508022E95812040A4326
:106DF000EA501F21FEF7D0FB002800D0A9E61E2193
:106E0000FEF7CAFB002800D0A3E6C046A1E6C046B4
:106E100058070020600700205C070020280600209B
:106E200000400240804002408042024080480240D0
:106E30000049024006003B00FF7FFFFFFFFFFCFF11
:106E4000F8FF000007006102FFFFFFBFFFFFFFEF39
:106E5000188308C0811C4100040C0000811C210023
:106E6000FFFF7FFF00E100E0FFEFFFFFD8130020EE
:106E7000D00500202406002011550000C930000074
:106E8000670C0000FFFF00FF72B610490F4A0F4B5E
:106E90000E4C0E4D0D4E0D4FB846B946BA46BB4688
:106EA000BC460B490B4A521A013A05DD0020042367
:106EB00008601944043AFBDA0748854607488047CA
:106EC0000748804762B600F0F9F9FEE700000000CD
:106ED00000FDFF1F0038002000380020451400008E
:106EE000BD130000D0E7C046844608006146FFE7B6
:106EF0001FB501F097FF002801D40021C8421FBD33
:106F000010B501F017FF4042013010BD10B501F07F
:106F100089FF002801DB002010BD012010BDC04604
:106F200010B501F07FFF002801DD002010BD012019
:106F300010BDC04610B501F025FF002801DC00207F
:106F400010BD012010BDC04610B501F01BFF002888
:106F500001DA002010BD012010BDC0460022430808
:106F60008B4274D303098B425FD3030A8B4244D311
:106F7000030B8B4228D3030C8B420DD3FF22090253
:106F800012BA030C8B4202D31212090265D0030B12
:106F90008B4219D300E0090AC30B8B4201D3CB0308
:106FA000C01A5241830B8B4201D38B03C01A52414A
:106FB000430B8B4201D34B03C01A5241030B8B424C
:106FC00001D30B03C01A5241C30A8B4201D3CB0237
:106FD000C01A5241830A8B4201D38B02C01A52411C
:106FE000430A8B4201D34B02C01A5241030A8B421F
:106FF00001D30B02C01A5241CDD2C3098B4201D337
:10700000CB01C01A524183098B4201D38B01C01AB4
:10701000524143098B4201D34B01C01A524103092B
:107020008B4201D30B01C01A5241C3088B4201D3DA
:10703000CB00C01A524183088B4201D38B00C01A87
:10704000524143088B4201D34B00C01A5241411AAE
:1070500000D20146524110467047FFE701B50020BB
:1070600000F006F802BDC0460029F7D076E7704769
:107070007047C0461C2101231B04984201D3000C19
:1070800010391B0A984201D3000A08391B0998429B
:1070900001D30009043902A2105C40187047C046B1
:1070A00004030202010101010000000000000000D1
:1070B00002B4714649084900095C49008E4402BC8B
:1070C0007047C04603B47146490840004900095A58
:1070D00049008E4403BC704703460B437FD4002213
:1070E00043088B4274D303098B425FD3030A8B425C
:1070F00044D3030B8B4228D3030C8B420DD3FF22C6
:10710000090212BA030C8B4202D31212090265D093
:10711000030B8B4219D300E0090AC30B8B4201D346
:10712000CB03C01A5241830B8B4201D38B03C01A8D
:107130005241430B8B4201D34B03C01A5241030B04
:107140008B4201D30B03C01A5241C30A8B4201D3B5
:10715000CB02C01A5241830A8B4201D38B02C01A60
:107160005241430A8B4201D34B02C01A5241030AD7
:107170008B4201D30B02C01A5241CDD2C3098B42BC
:1071800001D3CB01C01A524183098B4201D38B0139
:10719000C01A524143098B4201D34B01C01A5241DC
:1071A00003098B4201D30B01C01A5241C3088B4221
:1071B00001D3CB00C01A524183088B4201D38B000C
:1071C000C01A524143088B4201D34B00C01A5241AE
:1071D000411A00D201465241104670475DE0CA0F85
:1071E00000D04942031000D34042534000229C4645
:1071F00003098B422DD3030A8B4212D3FC2289014F
:1072000012BA030A8B420CD3890192118B4208D324
:10721000890192118B4204D389013AD0921100E086
:107220008909C3098B4201D3CB01C01A524183099A
:107230008B4201D38B01C01A524143098B4201D3C7
:107240004B01C01A524103098B4201D30B01C01AF2
:107250005241C3088B4201D3CB00C01A524183086C
:107260008B4201D38B00C01A5241D9D243088B42C2
:1072700001D34B00C01A5241411A00D20146634665
:1072800052415B10104601D34042002B00D54942C9
:10729000704763465B1000D3404201B50020FFF702
:1072A000E7FE02BD0029F8D016E770470023C25C54
:1072B0000133002AFBD1581E70470000F0B5944BF3
:1072C000944D00266B612B000127A1B018AC24332C
:1072D0002680EB612E84FAF76FFE8F4BA770186E35
:1072E000FAF74EF92F83B04200D0B8E00223A37022
:1072F000FAF756FE0120F9F7E5FFAB6A002B05D13E
:10730000013321208549AB62FEF7F8FD8449854BA6
:107310004A6B85481A4080235B0013434B638021EE
:10732000824A890153690B43536101210022FBF713
:10733000EDFA012202217E48FBF7E8FA012205213D
:107340007C48FBF7E3FAFFF781F80020FFF792F89B
:10735000ED6A002D4ED1C623774A9B00D15877485D
:107360000140D1508021D058C9030143D150082396
:107370001BA923813F20FEF75FFE80235B041C9343
:1073800001235B42A3826E4BA561E5611893012343
:107390006C496D4E0A78A580A371002A02D10B704A
:1073A000130072633422012735005A430020022360
:1073B0003900664C3835AD180492B5602361206100
:1073C000636A634ABB433B436362636A134063621D
:1073D0006368AA1CDBB29940D17718A9F9F7A2FA21
:1073E0000390002845D0626A594B1A40C0239B0481
:1073F00013436362FFF7A6FBF9F7AFFF454C554B0C
:107400001A78002AFCD05A78692AF9D10022987893
:1074100012AD1A3812921D2801D901F0A6FAFFF711
:1074200051FE4300490050006800A700650872083B
:107430007A0884086E08E308F308F908FB08810954
:10744000FE08B809EA09060A4D00750A6E086E08BA
:107450006E08210A250A2F0A7C0A880A970A6B6A95
:10746000A670002B00D143E720001A689968904766
:107470003EE7049B0635F618039BB366FAF79CFDBE
:10748000039BEB77FAF78CFD1A20FAF77DFD236951
:107490003B432361626A2E4B1A40C0239B04134373
:1074A00063621C4BDF62A5E7274B9B6F12930021A1
:1074B00028001AE0FDF74CFA032814D101212648D0
:1074C00013E0264D264B0122E3182800595DFCF7F6
:1074D00019FF0600C046234B01359D42F2D1FEF74D
:1074E000ECFB002EEAD003211B48FEF789FC01F0DB
:1074F00084F81C4D1C4B0122E3182800595DFCF751
:1075000001FF0600C046194B01359D42F2D1E6E766
:10751000A0FEFF1F6007002040FEFF1F78FFFF1F37
:1075200000900440FFF8FFFFC0F00F4000F00F4054
:1075300080F00F4040F00F4000E100E0FFFF00FF4F
:107540000024F400190600206005002000C002405D
:10755000FFFFFFF06107002007A200008440000049
:1075600080BFFFFF884000007CBFFFFF8C40000011
:10757000032306930021DB4BDB4E0393DB4B1025EB
:10758000197084235B04F3623300D94835863433A1
:1075900094C894C394C894C394C894C302681A60EE
:1075A00033005C331970D34B3366643633788B42C7
:1075B0007ED0022610AB19840A001220009618AB68
:1075C000FEF732FA002873D110AB1A8C0121140097
:1075D000039B0C4031331878042788432043540818
:1075E0000C408C4018701878B043204394080C402D
:1075F000B440187018780636B843204318701878CD
:10760000D4080C40E400B043204314090C40BC40B3
:10761000187018781836A843204318701878540941
:107620000C406401B04320431870187894090C4052
:107630002036A401B043204318701878D4090C40B8
:107640003F36E401304020431870032084465878C8
:10765000140A0390604604400494039C8443200071
:10766000049C204358705878940A0C40A400B843F6
:10767000204358705878D40A0C40FF19E400B843EE
:10768000204358705878140B0C402401A843204321
:1076900058705878540B0C406D196401A84320436E
:1076A0005870D20B0A405978D20131400A435A70BF
:1076B00001228D4B902007938F4B1A70FEF78AF8AA
:1076C0000390002831D0012200258B4B11008B48FC
:1076D0001D70854CFBF71AF9012202218848FBF73F
:1076E00015F96420F9F7EEFD2A0002218448FBF722
:1076F0000DF996202C344000F9F7E4FDA078FCF752
:1077000097F8C046A84203D0FCF7B0F8FCF7E4F8BD
:10771000002201217948FBF7F9F8069B013B06930B
:10772000002B00D026E7C046DDE6079B5C331C78C3
:10773000012C00D1BBE0022C00D10DE1002C01D0C6
:10774000C046C0E76F4BC8201893B0231B051993A0
:107750006D4D6E4B1B951A93C00118AB13AA18827E
:10776000C2CBC2C26423156007250F27FD26908077
:107770000593593B049503930A23079A64485D32A5
:10778000137013AB02221988FCF71CF900289AD158
:10779000012231005F48FCF715F9002893D101223E
:1077A0005D481100FCF70EF9011E8CD101225B48E7
:1077B000FCF708F9002886D1012221005848FCF77F
:1077C00001F9002800D07EE7012221005548FCF78E
:1077D000F9F8002800D076E7012203995248FCF717
:1077E000F1F8002800D06EE7049901224F48FCF719
:1077F000E9F8011E00D066E701224D48FCF7E2F8E7
:10780000002800D05FE7012207214A48FCF7DAF898
:10781000002800D057E79320012207210002FCF73F
:10782000D1F8002800D04EE7012229004248FCF799
:10783000C9F8002800D046E7012239003F48FCF78C
:10784000C1F8002800D03EE7062101223C48FCF7A1
:10785000B9F8011E00D036E7234E338E102B00D925
:1078600031E700D091E002223648FCF7ABF8041E65
:1078700000D028E7012205993348FCF7A3F8002837
:1078800000D020E7C04613AD0D222100280002F0F1
:10789000F9FA33005C331B78012B00D122E1022B73
:1078A00000D125E1002B00D188E0C0460BE7A020E5
:1078B000264B274D1893274B1B951993134BC0004C
:1078C0001A9313AA18AB1882D0CBD0C22A2705234B
:1078D000156002243D009080059302330493ED2649
:1078E0004AE7C0466007002060060020900700209D
:1078F0003C9F000037899542C406002080F00F406D
:1079000040F00F401004FD01070F060007000707B5
:107910003492000036920000379200003892000046
:10792000FA920000FB920000FC920000FD92000021
:10793000FE920000FF9200000193000002930000FD
:107940000393000004930000079300001004ED016E
:107950002A2A060000020200A020B64BB64D18935A
:10796000B64B1B951993B64BC0001A9313AA18ABCC
:107970001882C2CBC2C205231560072590800593EB
:1079800006330F2704930395A9E7072B00D89AE63F
:107990001022DBB25C1ED31AE4B2DBB20500012276
:1079A000002D08D18918013089B29842F6DBA14038
:1079B000C94389B257E75200013DF1E7A14B189343
:1079C000A14B1993A14B752229001A9318AB1A7376
:1079D00091CB91C10A70298802229D48FBF7F2FFE2
:1079E000002800D06FE6AB7818AC2080237001220D
:1079F00021889848FBF7E6FF002800D063E6EB7883
:107A000020802370012221889348FBF7DBFF0028A8
:107A100000D058E62B7920802370012221888F48DE
:107A2000FBF7D0FF002800D04DE66B792080237053
:107A3000012221888A48FBF7C5FF002800D042E6D2
:107A4000AB7920802370012221888648FBF7BAFF9A
:107A5000002800D037E6EB792080237001222188AE
:107A60008148FBF7AFFF002800D02CE62B7A20805E
:107A70002370012221887D48FBF7A4FF002800D055
:107A800021E66B7A20802370012221887848FBF759
:107A900099FF002800D016E6AB7A208023700122DF
:107AA00021887448FBF78EFF002800D00BE61721D1
:107AB00010ABC9180222200002F0F4F9022221883A
:107AC0006D48FBF77FFF071E00D0FCE5C046330082
:107AD0005C331B78012B11D0022B4DD0002B4BD0E7
:107AE000C046F0E5654B1893654B1993654B6AE703
:107AF000654B1893654B1993654B64E70D21012283
:107B00006448FBF75FFF002800D0DCE53900012264
:107B10006148FBF757FF011E00D0D4E502225F4801
:107B2000FBF750FF011E00D0CDE502225C48FBF7B9
:107B300049FF002800D0C6E501220A215948FBF779
:107B400041FF002800D0BEE5012219215648FBF76D
:107B500039FF002800D0B6E5C04633005C331B78FF
:107B6000012B0CD0022B5DD0002B60D14F4B23801A
:107B70002B800123012005E001272D21BFE74C4A7E
:107B800022802A804B49C00201431B034A4A194301
:107B90002B884A48134019432980022289B2FBF7F7
:107BA00011FF002800D08EE5FA2102224448490046
:107BB000FBF708FF002800D085E5FA2102224148A2
:107BC0004900FBF7FFFE002800D07CE501220521DB
:107BD0003D48FBF7F7FE002800D074E50122102194
:107BE0003A48FBF7EFFE002800D06CE5316E042226
:107BF0003748FBF7E7FE011E00D064E50122354857
:107C0000FBF7E0FE002800D05DE5C0465C36347826
:107C1000012C63D0022C61D0002C01D100F061FC5A
:107C2000C04650E52C4B23802B800300A2E7C046C2
:107C300049E5C0461004ED01070F060000020207E7
:107C40000B0007070000FCF480989000E4A080304F
:107C50005F92000061920000629200006392000057
:107C60006592000066920000679200006992000031
:107C70006A9200006B920000739200000000FCF713
:107C800080989100E4A280300000BCF70098910039
:107C9000E4A2003008930000099300000A9300005A
:107CA0000C9300000E9300000F93000090DAFFFF8A
:107CB00090D2FFFF90C2FFFF6F2500006D92000081
:107CC00010930000129300001493000043930000EF
:107CD000A89100004492000090CAFFFF5025CE24D6
:107CE0002F00EB4E01220821EA48FBF76BFE00282B
:107CF00000D0E8E401222100E748FBF763FE0028FA
:107D000000D0E0E401223900E448FBF75BFE0028E4
:107D100000D0D8E401222900E148FBF753FE0028F7
:107D200000D0D0E401221421DE48FBF74BFE0028EE
:107D300000D0C8E401220821DB48FBF743FE0028FD
:107D400000D0C0E402223100D848FBF73BFE0028F7
:107D500000D0B8E401222821D548FBF733FE0028E3
:107D600000D0B0E401221421D248FBF72BFE0028FA
:107D700000D0A8E402223100CF48FBF723FE002800
:107D800000D0A0E401222821CC48FBF71BFE0028EC
:107D900000D098E401221421C948FBF713FE002803
:107DA00000D090E4C046C74BC74CDB7F002B2FD1DF
:107DB000C64B3C22A386C64B2100E386C54B483107
:107DC0002387C54B63872023A387A31CDA87B423AB
:107DD000E387C24B636441230B8021004A310A8050
:107DE000220046214C32118022004E3213802300A3
:107DF0000D22503352421A8021000B2352315B4234
:107E00000B80210054310A80220056321380C04674
:107E1000A08E50221421B24B80B2F8F701FFE78EFA
:107E2000268F638F01009BB20393A38F05009BB243
:107E30000493E38F01229BB20593A31CDB8FA94817
:107E40009BB20793636CBFB20893A74BB6B21B7883
:107E50000993230048331B881BB20A9323004A333B
:107E60001B881BB20B9323004C331B881BB20C9353
:107E700023004E331B881BB20D93230050331B8805
:107E80001BB20E93230052331B881BB20F932300A7
:107E900054331B8856341BB210932388FF241BB223
:107EA00021401193FBF78EFD002801D0FFF70BFC5A
:107EB00004228E498E48FBF785FD002801D0FFF78C
:107EC00002FC502214213800854BF8F7A9FE411B13
:107ED00001228848C9B2FBF775FD002801D0FFF7E1
:107EE000F2FB6E22142130007D4BF8F799FE010061
:107EF0000500012280482140FBF764FD002801D0E5
:107F0000FFF7E1FBF22104227C488900FBF75AFDD0
:107F1000002801D0FFF7D7FB6E221421704B039885
:107F2000F8F77EFE291A01227548C9B2FBF74AFD0F
:107F3000002801D0FFF7C7FB049801F089FA714AC5
:107F4000714B00F0BDFF01F061FF80233E22022152
:107F5000DB05F8F765FE010001226C482140FBF7C4
:107F600031FD002801D0FFF7AEFB592104226848FB
:107F7000FBF728FD011E01D0FFF7A5FB0222654893
:107F8000FBF720FD002801D0FFF79DFB059801F0CD
:107F90005FFA5C4A5C4B00F093FF01F037FF8023EF
:107FA00064220221DB05F8F73BFE010001225A485A
:107FB0002140FBF707FD002801D0FFF784FB0422D6
:107FC00001215648FBF7FEFC002801D0FFF77BFBA0
:107FD000079801F03DFA4B4A4B4B00F071FF01F05E
:107FE00015FF802364220221DB05F8F719FE012228
:107FF000C1B24B48FBF7E6FC002801D0FFF763FB5A
:10800000042277214748FBF7DDFC041E01D0FFF76F
:108010005AFB099801F0B8FE22004349031C089856
:10802000F8F7FEFD022201B24048FBF7CBFC002826
:1080300001D0FFF748FB01223D481100FBF7C2FCCD
:10804000002801D0FFF73FFB01220B213948FBF745
:10805000B9FC002801D0FFF736FB01223648110099
:10806000FBF7B0FC002801D0FFF72DFB01223348BD
:108070001100FBF7A7FC011E01D0FFF724FB022231
:108080002F48FBF79FFC002801D0FFF71CFB59E0AD
:1080900088130000359300003693000037930000EA
:1080A00038930000399300003A9300003B9300009E
:1080B0003D9300003E9300003F9300004193000079
:1080C0004293000099070020600700208C0A0000FE
:1080D000D70A0000CC100000811000002829FFFF03
:1080E00066664A4275920000BD06002055070000F2
:1080F000769200007B920000789200007992000056
:108100007C9200009A9999999999B93F80920000C0
:108110008192000088920000829200008392000009
:1081200084920000859200000080FFFF8A92000088
:108130008C920000869200008792000094920000CA
:108140008D920000FE232821782249420A989B053F
:10815000F8F766FD012241B2F848FBF733FC00282E
:1081600001D0FFF7B0FA01220421F548FBF72AFC01
:10817000002801D0FFF7A7FAFE23282178224942E0
:108180000B989B05F8F74CFD012241B2ED48FBF737
:1081900019FC002801D0FFF796FAFE232821782247
:1081A00049420C989B05F8F73BFD012241B2E64895
:1081B000FBF708FC002801D0FFF785FA0122042113
:1081C000E248FBF7FFFB002801D0FFF77CFAFE2313
:1081D0002821782249420D989B05F8F721FD0122BC
:1081E00041B2DB48FBF7EEFB002801D0FFF76BFA4A
:1081F00001226E21D748FBF7E5FB002801D0FFF7ED
:1082000062FA01220321D448FBF7DCFB002801D0ED
:10821000FFF759FA01226921D048FBF7D3FB002868
:1082200001D0FFF750FA01225521CD48FBF7CAFBD8
:10823000002801D0FFF747FA01220221C948FBF7C5
:10824000C1FB002801D0FFF73EFA01225021C648A9
:10825000FBF7B8FB002801D0FFF735FAFE232821F1
:10826000782249420E989B05F8F7DAFC012241B2C8
:10827000BE48FBF7A7FB002801D0FFF724FA012234
:108280000421BB48FBF79EFB002801D0FFF71BFA37
:10829000FE232821782249420F989B05F8F7C0FC5D
:1082A000012241B2B348FBF78DFB002801D0FFF754
:1082B0000AFAFE2328217822494210989B05F8F7F4
:1082C000AFFC012241B2AC48FBF77CFB002801D097
:1082D000FFF7F9F901220421A848FBF773FB0028F6
:1082E00001D0FFF7F0F9FE232821782249421198A6
:1082F0009B05F8F795FC012241B2A148FBF762FB10
:10830000002801D0FFF7DFF9142101229D484942DE
:10831000FBF758FB002801D0FFF7D5F90122022115
:108320009948FBF74FFB002801D0FFF7CCF90F214C
:10833000012296484942FBF745FB002801D0FFF790
:10834000C2F9012202219248FBF73CFB002801D030
:10835000FFF7B9F93C2102228E48FBF733FB011EDF
:1083600001D0FFF7B0F901228B48FBF72BFB002867
:1083700001D0FFF7A8F9022201218848FBF722FB70
:10838000002801D0FFF79FF9022201218448FBF762
:1083900019FB002801D0FFF796F90222FA21814843
:1083A000FBF710FB002801D0FFF78DF9E121022235
:1083B0007D48C900FBF706FB002801D0FFF783F9D1
:1083C00002227A481100FBF7FDFA794B794C1B78B1
:1083D0001843C0B2002801D0FFF775F923004A33D3
:1083E00002220021595E7448FBF7ECFA002801D004
:1083F000FFF769F92300483302220021595E6F48D4
:10840000FBF7E0FA002801D0FFF75DF923000833FD
:1084100002223E21595E6A48FBF7D4FA002801D0B7
:10842000FFF751F9A31D02223E21595E6548FBF773
:10843000C9FA002801D0FFF746F9231D02223E2188
:10844000595E6148FBF7BEFA002801D0FFF73BF9FF
:108450002300523302220021595E5C48FBF7B2FA36
:10846000002801D0FFF72FF923005033022200210A
:10847000595E5748FBF7A6FA002801D0FFF723F909
:1084800023004E3302220021595E5248FBF79AFA2C
:10849000002801D0FFF717F94C3402220023E15ED7
:1084A0004D48FBF78FFA002801D0FFF70CF9923006
:1084B000FDF790F9002801D0FFF705F99530FDF799
:1084C00089F9FDF735F9041E01D0FFF7FCF8012505
:1084D000424B1D70FEF7B6F92000FEF732F9FEF7A9
:1084E000EDFF46253C273E4EFFF7FCFB303423785A
:1084F0000120002B01D1FEF7F6FFFEF722F9002143
:108500003848FEF7F2FF30342378002B01D1FEF714
:10851000EAFF0020F1E7303423780120002B01D15D
:10852000FEF7E1FFFEF78EF9E9E730342378002B00
:1085300001D1FEF7D8FF0020F4E7C0469A92000070
:108540009B9200009C9200009D9200009E92000071
:108550009F920000A0920000A1920000A292000051
:10856000A3920000A4920000A5920000A692000031
:10857000A7920000A8920000A9920000AA92000011
:10858000AB920000AC920000AD920000AE920000F1
:10859000AF920000B2920000B4920000B5920000C9
:1085A000B6920000BA920000BC920000BE92000099
:1085B000B806002060060020EA910000EC9100005F
:1085C000EE910000F0910000F2910000F4910000A3
:1085D000F6910000F8910000FA9100009007002049
:1085E0003C0F000007A200000021E248FDF708FC54
:1085F000FBF73CF9002800D1C0460021DE4BDF4AE2
:1086000091705970FEF7FAFE01220221DC48FAF758
:108610007DF974E70022F8E7FBF75EF96FE72300C6
:1086200022000425002760331B7821795C32D15465
:108630002021002310AA5218137018A8FEF796F9EB
:10864000C926202210AB9B181B78002B03D1013EBA
:10865000F6B2002E5DD1CB4B0393CB4B1B78002B96
:108660005BD02600613620220021300001F00AFC98
:10867000202300220093110033007520FDF7CAF873
:10868000011E4BD1F37DB27D1B021343039A1BB233
:108690005D32127853431A003132622A00D8030047
:1086A000BA4A1364BA4BBB485E68826F806F921BF4
:1086B0009A60586002D5FA2252009A60B34A106C50
:1086C000106C002802DA106C40421064126C013DFC
:1086D00092B2EDB2BF18002DAAD1220060321278FA
:1086E000B80856009E19B081022A01D80132D5B2CD
:1086F00060342570002901D0FEF7F5FE013DEDB292
:108700006D005B199B8910AA189118A81384FEF7B5
:10871000ECFE18A8FEF72AF993E7062100229B4BEE
:108720001A64BFE72200FA205C3253781278800086
:108730009B18584301F0DCFA954E071CB389F08969
:108740000134C01801F0D4FA716900F0CFFF011CA8
:10875000381C01F009F9FC21890500F0C7FF04224B
:10876000011CB0618C48FBF7CDFD0700FDF7A5FAB1
:108770008A49B069002F2ED100F0B8FF01F098FAB5
:1087800000B203142880A1780016AB70E8700022B4
:108790002DE02200FA205C325378127880009B1A78
:1087A000584301F0A5FA7A4E071CB389F0890134C9
:1087B000C01A01F09DFA011C381C00F077FE04225B
:1087C000011C70617648FBF79DFD0700FDF775FA07
:1087D00072497069CEE700F089FF01F069FA03225F
:1087E00000B203142880A1780016AB70E87028004E
:1087F000FDF732FB01E700220B216A48FAF786F801
:1088000000220D216748FAF781F800220C21654803
:10881000FAF77CF8002208216348FAF777F800227B
:1088200007215748FAF772F800220621EEE60122E6
:108830000C215C48FAF76AF801220B215948FAF733
:1088400065F801220D215748FAF760F80122082146
:108850005548FAF75BF8012207214948FAF756F81C
:108860000122E2E7002201215048D0E600214148E0
:10887000FDF7C6FA01224D481100FAF747F8BCE6A9
:10888000230030331B78002B01D1FEF72CFE3E4B2A
:1088900006201B783B4F002B14D00021022318AE7A
:1088A00031800A00009330303300FDF7BDF8002816
:1088B00008D17278337812029B180A229BB2534374
:1088C000324A13620A21FEF749FB64373B7828706D
:1088D0000620002B14D00021022318AE31800A009C
:1088E000009332303300FDF79FF8002808D17278EA
:1088F000337812029B180A229BB25343234A5362D5
:108900000A21FEF72BFBE178A87040E71C4B1B699E
:108910001B04DB0F2B70FEF7CAFD00212800FDF7BA
:108920006FFA23482349244B425892B213434350D1
:1089300063E62679154C012E42D1320010211048F1
:10894000A034F9F7E3FF267000212800FDF758FA5C
:1089500001221A4928000B6913402B700B69002172
:10896000D34013406B70FDF74BFA02210148FEF72C
:10897000BCFDC04607A20000600700206107002080
:1089800080F00F4060060020C40600207C0A002012
:10899000E007002060050020DC40000000007A4471
:1089A000D840000000F00F4000F10F40C0F00F4031
:1089B00000E000E00C0D00000400FA0540F00F405C
:1089C000002210210348F9F7A1FF0023A0342370EF
:1089D000BAE7C04680F00F4043001B0E7F3B10B546
:1089E000021C162B13DC002B09DB0C491941014238
:1089F00004D08020C00318418018884310BDC00FE8
:108A0000C0070133FAD1FE239B051843F6E7802BFC
:108A1000F4D1011C00F004F8F0E7C046FFFF7F002E
:108A2000F8B5CE46474643025A0A4E024500C40FE7
:108A3000480091462D0E720A000E944680B59B099F
:108A4000C90FB6092A1A8C4221D0002A0DDD002850
:108A50002DD1002E00D18DE0511E012A00D11DE143
:108A6000FF2A00D1ABE00A0027E0002A4DD0421BCC
:108A7000002D00D0CCE0002B00D179E0541E012A5B
:108A800000D128E1FF2A00D197E02200C5E0002AAA
:108A900000DC96E000284FD0FF2D00D18FE0802130
:108AA000C9040E431B2A51DD2A00013318E0FF2DB3
:108AB00000D184E08021C9040E4301211B2A08DC77
:108AC00031002020D140821A96403200501E82414F
:108AD00011435B1A5A0159D407212A00194049D081
:108AE0000F211940042900D00433590142D5501CEC
:108AF000FE2A3AD09B01C0B25B0AC0051843E407C6
:108B00002043C0BCB946B046F8BDFE2080466F1C6D
:108B100038004746074200D08EE0002D00D0B4E078
:108B2000002B00D1DBE0002E6CD0981B450100D457
:108B3000F7E00C00F31A3DE0002E1BD0511E012A75
:108B400000D182E0FF2A3AD00A00ABE731002020B2
:108B5000D140821A96403200501E82410A439B182F
:108B60005A01B9D56A1CFE2D75D1FF200023C4E738
:108B70000C003300DB08FF2A46D1002BF5D0802201
:108B8000D20313435B02FF205B0AB6E79F01BF09D4
:108B90003800FEF76FFA05388740854224DC3B0039
:108BA0002021421B0132D3408A1A97407A1E9741F6
:108BB00000223B43590793D197E70C003300DB08B1
:108BC000DBE7002A14D0421B002D4BD1002BD0D064
:108BD000511E012A00D19EE0FF2AEFD00A001B2A75
:108BE0005FDD0200731C7BE7504B2A1A3B40E1E734
:108BF000FE216A1C11423BD1002D5DD1002B7FD09C
:108C0000002E7FD10022DB085B025B0AD0B274E742
:108C1000FF28D2D08024E404234301241B2A07DC4C
:108C20001C002025D440AA1A93405A1E93411C438D
:108C3000331B05000C004DE79F1B7A0122D4002F47
:108C4000A6D100240020002357E79B1901250132FB
:108C5000590100D440E70121354819405B08034021
:108C60000B43A7E7FF28A9D08021C9040B43B6E72F
:108C7000FF2A00D179E79B195B08590700D02FE73D
:108C8000DB08C1E70C00F71A82E7002B2CD1002E7D
:108C900093D180230024FF20DB032EE701259B1BBB
:108CA00018E719002025D140AA1A93405A1E934173
:108CB0000B4305009B1953E7002B00D17EE7002EE4
:108CC00000D17CE78022D203914502D3944500D2A3
:108CD0003300DB0853E70C00F31A0135FAE6002EE7
:108CE000AFD00C0033008DE7002E00D167E7802263
:108CF000D2039145EDD39445EBD20C003300E8E765
:108D000033007FE79B1900225901B9D5074A134068
:108D1000DB08012278E79B190132013559019AD409
:108D2000DAE6031E8DD0DB086EE7C046FFFFFFFBCF
:108D3000FFFFFF7D70B542004E024C0045026D0AF8
:108D4000120EC30F760A240EC90FFF2A10D0FF2C73
:108D50000CD00120A2420AD1B54208D18B420FD0DB
:108D6000002A04D12800431E984100E0012070BD74
:108D70000120FF2CFBD13543F9D14B401800F6E719
:108D80000020F4E730B5420044024D02C30F480012
:108D9000640A120E6D0A000EC90FFF2A19D0FF28AF
:108DA0000BD0002A1ED100280BD1002D27D0002C7B
:108DB00034D100292FD0080030BD002D28D1002A41
:108DC00001D1002CF5D08B4207D1002B23D0180005
:108DD000F2E7002C1CD1FF2814D0581E02231840A3
:108DE0000138E9E70028F8D08B42F6D18242F4DC62
:108DF000EBDBAC42F1D80020AC42DDD2E5E7002C41
:108E0000DAD0EAE7002D03D18B42E6D10020D3E788
:108E100002204042D0E701204042CDE78B42E8D01B
:108E2000DBE7C04630B5420044024D02C30F4800A4
:108E3000640A120E6D0A000EC90FFF2A1AD0FF280D
:108E40000ED0002A1ED100280ED1002D2AD0002CD1
:108E50000CD08B421DD0581E02231840013810E060
:108E6000002D0DD1002A20D1002C1ED1002923D0A5
:108E7000080006E0002C03D1FF28ECD1002D17D00C
:108E8000022030BD0028E6D08B42E4D18242E2DCF1
:108E900004DBAC42DFD80020AC42F2D2002B0BD076
:108EA0001800EEE7002CECD0D5E78B42D3D1F5E7E4
:108EB00000208B42E5D0CEE701204042E1E7C046EA
:108EC000F0B55746DE464E464546E0B51F000B035B
:108ED0001B0B16009A46CA0F4B000400934687B03E
:108EE0005B0D00D1D5E0BB4A934200D1F8E051467A
:108EF000420FC9000A43802109041143C200914670
:108F0000B54A8A469D180023984602933C037B008D
:108F1000FA0F3000240B5B0D009200D196E0AD4AB1
:108F2000934231D0720FE40022438024240414437E
:108F3000A94AF000944663445B195A1C01924246C8
:108F400000260A2A42DC5A4600994A409346424685
:108F5000022A32DC013A012A00D949E1022E00D16D
:108F6000CAE0012E3DD100230024002210005A4601
:108F70001B052343D2071343190007B0F0BCBB46BF
:108F8000B246A946A046F0BD924B2643EB18002EF0
:108F900000D1BBE00322414611435A46884600995E
:108FA0004A40802109018C462900614401914146D3
:108FB0000A2900DD33E29346032642460127974003
:108FC000A6213A00C9000A400F4231D0029E022E6B
:108FD00000D135E2032E00D1D2E154464846012E9D
:108FE000C1D0019A7D4B94466344002B00DCC0E065
:108FF000420709D00F220240042A05D0021D8242F6
:109000008041404224181000E20106D5744B019AB9
:109010001C4080239446DB006344724A93426BDC1D
:109020006207C00864025B050243240B5B0D9DE7E9
:10903000902189000F4263D188223A4200D1D7E0C3
:10904000009BA2469B4681460296BFE7230033431E
:1090500000D17FE0002C00D1ADE12000FEF70AF83E
:10906000020003000B3A1D201900821A3000083953
:10907000D0408C400443300088405B4AEB1A944651
:1090800063445A1C0192424600260A2A00DC5AE731
:109090009CE753460343994654D05346002B00D1D6
:1090A00077E15046FDF7E6FF0B235B429C4602004A
:1090B000844411005046083988401D23804660468C
:1090C0001B1A2000D8400300404603439A46230061
:1090D0008B4099460023444D9846AD1A029315E7FC
:1090E00052460243914626D100221D000223924699
:1090F00008329046029309E700240022354B35E7F9
:10910000002380249B462403324B2FE70222414652
:1091100011438022120194462A006244884601923B
:109120000A2900DD52E75A460020009904004A400F
:10913000934602260BE70C221D000323814690462E
:109140000293E3E600239A4604339846033B002546
:109150000293DBE6424601331A432B0090465A1C29
:10916000019242460024002001260A2A00DCEAE699
:109170002CE70122D21A382A00DDF4E61F2A00DC8F
:109180002AE11F214942CB1A2100D9400B00202A95
:1091900005D0164A019D94466544AC402043421ECA
:1091A00090411843072319000024014003420CD0CA
:1091B0000F230340042B00D140E1031D8342A4414F
:1091C0001800644261076402240BC20800230A43AA
:1091D000CCE6C046FF07000001FCFFFFFF030000D4
:1091E000FFFFFFFEFE0700000DFCFFFF3E04000036
:1091F00049464A460904090C0D00160C020C0004ED
:10920000000C4543AC4605007543A84615000F0009
:109210007543009202952A00009D6F4365462D0C10
:10922000A94647444F44B84505D91500802252024B
:109230009046454402953D0C039565462D043F0438
:109240002D0CAC463D0065440495250C2404240CEB
:10925000AC4625007543A84665460F006943414466
:1092600089466743390C49446E43884503D98022B7
:109270005202904646440D0CA846350045440595DB
:10928000039D3F04A8463F0C0904C919884445467C
:10929000039555462E04360C2F0C35004543784374
:1092A00081463800A8462D0CAA46009A50437243C6
:1092B0004A445244914503D980256D02A946484449
:1092C000150CA94645462D042D0CA84665467D4340
:1092D000120448449044A9463200654662436E43F6
:1092E0007C43170C3619BF19BC4203D98024640291
:1092F000A446E144029C039EA446059D66448E421A
:109300008941AC4612043C04120CA2186244494242
:1093100054184644A4464645A44182466442A046A9
:10932000AA4292418C458941E244D044494252428A
:109330000A43A045A44182458941644249420C4305
:1093400041463F0CD2191219CC0D04997002084302
:10935000411E884141464A44F60D520230434902BB
:1093600014430843D20135D5012243080240134378
:10937000E0071843640834E6009BA2469B468146FA
:109380008024534624031C4324034A462E4B240BBB
:10939000ECE5FDF76FFE15239C468444020063460E
:1093A00020321C2B00DC84E6002399462300083879
:1093B00083409A468EE6FDF75DFE020003001532FB
:1093C00020331C2A00DC4EE602003400083A00205C
:1093D000944052E6019304E61C4B21009C46030096
:1093E000019DD3406544A94019430300AB40581E7A
:1093F000834119430800D4404B0709D00F230B4089
:10940000042B05D00B1D8B428041404224181800CC
:10941000230200D4D6E6012300240022A6E50F296A
:10942000AAD1802352461B031A42A9D01C42A7D1BD
:109430001C43009B02009B46034B97E50024C1E6BA
:109440000024014B220091E5FF0700001E040000EC
:1094500070B5002816D0C317C5185D40C40F28008A
:10946000FDF708FE104B1B1A5B055B0D0A2814DC88
:1094700002002E00153296400B22121AD5402D0301
:109480002D0B03E000240023002500261B052B43A1
:10949000E40723433000190070BD0B3885402D03CD
:1094A00000262D0BF2E7C0461E040000F0B54F4623
:1094B0004646D6464402C0B547000E1C640A3F0E1D
:1094C000C50F002F3CD0FF2F42D0002380229946A9
:1094D0009A46E400D20414437F3F73025B0A984625
:1094E00073001B0EF60F002B1BD0FF2B13D0424630
:1094F0008021D200C9041143884600207F3B290007
:10950000FF1A4B467140C9B20F2B00D9B5E0744A1F
:109510009B00D3589F464346002B3FD1FF3F023369
:1095200003E04346002B2DD1012329004A46714018
:10953000C9B21A430E2A38D86A4892008258974610
:10954000002C13D104239946033B00279A46C4E715
:10955000002C05D108239946063BFF279A46BCE715
:109560000C239946093BFF279A46B6E72000FDF7F2
:1095700081FD7627431F9C4000237F4299469A46EF
:109580003F1AAAE74046FDF775FD4246431F9A4041
:1095900076235B421B1A90460020B0E703234A461D
:1095A0001A4391460320FC33A9E70D00FF20002257
:1095B000C005ED0710432843E0BCBA46B146A846B3
:1095C000F0BD0D0000200022F2E75346022BEDD043
:1095D000032B33D0A046012B05D100200022E7E762
:1095E000350003287AD03B007F33002B2DDD424627
:1095F000520707D00F2241460A40042A02D0042213
:109600009446E0444246120105D54246364B1A4084
:109610003B0090468033FE2BC8DC42469201520A42
:10962000D8B2C5E780220025FF20D203C0E7802200
:10963000D203144202D04346134249D08022D203BF
:1096400022435202FF20520AB2E70122D31A1B2BF7
:10965000C3DC4246DA4043469E37BB40591E8B412D
:109660001A43530704D00F231340042B00D00432B5
:10967000530129D5012000229AE742466301550192
:10968000AB4215D21B200022013F01261C005200D4
:109690005B00002C01DB9D4201D85B1B324301388B
:1096A0000028F3D1581E8341134398460D009AE7D2
:1096B0001A2001225B1BE8E7023B5A4253415B42FE
:1096C00035000022D8B273E792010020520A6FE7FA
:1096D0001A4352023500FF20520A69E74446ADE7BB
:1096E00008A2000048A20000FFFFFFF7F0B54F46B8
:1096F0004646D64643025B0A4500C0B599460F1C54
:109700002D0EC60F002D00D188E0FF2D00D18DE079
:109710008022DB00D2041A430023914698469A46E1
:109720007F3D7C027B00640A1B0EFF0F002B68D07C
:10973000FF2B21D08022E400D204144342467F3B19
:109740005B1900215D1C0A2A2EDC7E404246022A5B
:1097500023DC013A012A00D9BDE002296ED001299B
:109760002CD100200022C005F60710433043E0BC96
:10977000BA46B146A846F0BD2B00FF33002C65D099
:109780000322414611433200013588467A40FF35B5
:109790000A2900DDD8E0160003214046012282405C
:1097A000A620C000024220D05346022B46D0032BF5
:1097B00000D1BBE051464C460129D2D02B007F336B
:1097C000002B70DD620704D00F222240042A00D053
:1097D0000434220103D5634B1C402B008033FE2B45
:1097E0002CDCA201520AD8B2BDE7902080000242D0
:1097F00027D1B938FF3810426DD03E00A1468A46C5
:10980000D2E7002C41D1012342461A4390462B0057
:10981000424601215D1C0A2A97DDC5E7002B26D1AF
:1098200004239846033B00259A467AE7002B18D17B
:1098300008239846063BFF259A4672E7FF20002240
:1098400091E780220026FF20D2038CE741460222C6
:10985000013511438846FF350A29A5DC02217E40E7
:1098600074E70C239846093BFF259A4659E71800F0
:10987000FDF700FC4A46431F76259A4000236D42BF
:10988000914698469A462D1A4BE72000FDF7F2FBC9
:109890004246431F9C402B1A763B00215D1C0A2A3E
:1098A00000DC52E780E70122D31A1B2B00DD58E7CA
:1098B0009E352200AC40DA40631E9C412243530790
:1098C00004D00F231340042B00D00432530137D5AA
:1098D0000120002247E7210C4A462404240C2700DB
:1098E000100C1204120C44435743484351433A0CA2
:1098F00009195218944203D9802149028C466044C8
:109900003F0411043F0CC9198C01671EBC41120CA5
:10991000890E12180C439201144312010ED5012333
:1099200062081C40144349E73E00A14680224B4692
:10993000D2031A435202FF20520A14E71D003DE7EA
:1099400092010020520A0EE70F29EDD180224B46EA
:10995000D2031342EAD01442E8D13E00FF20224352
:1099600001E7C046FFFFFFF7F8B54746CE464E0277
:1099700043024500720AC40F480080B594465F0A4E
:109980002D0E9B09000EC90FB609FF2824D0012215
:1099900051402A1A8C420FD0002A00DC6AE10028CC
:1099A00035D1002E00D1A2E0511E012A00D124E1C0
:1099B000FF2A21D00A002FE0002A00DC67E10028FE
:1099C0005ED0FF2D18D08021C9040E431B2A00DC75
:1099D00076E02A00013332E02A00FF3A9146002E59
:1099E00042D08C4255D04A46002A00D19CE0002D3E
:1099F00000D177E00C003300DB08002B00D16EE0D3
:109A00008022D20313435B02FF205B0A24E0FF2D78
:109A1000F2D08021C9040E4301211B2A08DC310049
:109A20002020D140821A96403200501E82411143BC
:109A30005B1A5A0160D407212A00194057D00F2120
:109A40001940042900D00433590150D5501CFE2A76
:109A500045D09B01C0B25B0AC0051843E407204310
:109A6000C0BCB946B046F8BD012251408C42BAD1C3
:109A70004A46002A10D0002D00D198E00023BBE711
:109A8000002E34D0511E012A6ED0FF2AB4D00A0015
:109A90009CE7002A00D088E0FE206A1C104200D01B
:109AA00092E0002D00D0A4E0002B00D1CBE0002EEE
:109AB00000D0CAE00022DB085B025B0AD0B2CBE731
:109AC00031002020D140821A96403200501E82413F
:109AD0000A439B185A01AED56A1CFE2D4AD1FF20BD
:109AE0000023B9E7FF22002B4BD10C003300DB0829
:109AF000FF2A00D181E7DFE79F01BF093800FDF7AA
:109B0000B9FA05388740854221DC3B002021421B01
:109B10000132D3408A1A97407A1E974100223B4374
:109B2000590700D08BE78FE7FE206A1C104212D144
:109B3000002D52D1002B7CD0002EBBD09A1B50019F
:109B400000D48BE001240022F31A0C40E8E7564BC6
:109B50002A1A3B40E4E79F1B7A0146D4002FCDD15F
:109B600000240020002377E79B19012501325901C9
:109B700000D460E701214D4819405B0803400B43C6
:109B8000CEE7571E012A5AD00C00FF2A33D00122FB
:109B90001B2F07DC2021C91B1A008B40FA40591EDD
:109BA0008B411A430500B31A43E7002D23D1FF224E
:109BB000002B9BD0511E012AD6D0FF2A1BD01B2977
:109BC0002CDD0200731C3AE7FF2A88D09B195B0842
:109BD000590700D033E7DB086EE7002B10D1002EC9
:109BE00043D0012433000C4006E70124F71A0C404F
:109BF00084E7002B04D13300FEE601259B1B18E708
:109C0000002E00D1F8E68022D203974204D3944577
:109C100002D2012433000C40DB08F1E61A002025B3
:109C2000CA40691A8B40591E8B41134305009B198A
:109C300050E7002E94D0012433000C403AE70C008A
:109C40000125F31AF5E6330034E79B190022590188
:109C5000C1D5154A1340DB0801222DE7002A00D1A7
:109C60007EE713000022DB0826E780230024FF2084
:109C7000DB03F1E6002A00D156E7471B3A00002D2E
:109C800000D130E78022D2040C0013437FE7002A82
:109C900000D101E7411B002D01D10A0088E7802295
:109CA000D20413438BE7C046FFFFFFFBFFFFFF7D9E
:109CB00041024200C30F490A0020120E7E2A03DD32
:109CC0009D2A02DD094A981870478020000401434C
:109CD000952A07DC9620821AD1404842002BF3D106
:109CE0000800F1E7963A9140F7E7C046FFFFFF7F93
:109CF00070B5002813D0C317C5185D40C40F2800E5
:109D0000FDF7B8F99E2301001B1A962B0FDC0828DB
:109D100034D008398D406D026D0AD8B202E00024BB
:109D200000200025C0052843E407204370BD992B7F
:109D300016DC421F052800D095402A001148024039
:109D40006E0709D00F263540042D05D00432550189
:109D500002D59F2302405B1A9201550AD8B2E1E76F
:109D60000522121A2800D040020008001B3085404E
:109D70002800451EA84102431500DEE76D0296202B
:109D80006D0ACFE7FFFFFFFB70B5041E0ED0FDF795
:109D900071F99E2301001B1A962B0CDC08282FD08A
:109DA00008398C406402640AD8B201E00020002423
:109DB000C005204370BD992B16DC421F052800D03A
:109DC0009440220010480240650709D00F252C401E
:109DD000042C05D00432540102D59F2302405B1AA3
:109DE0009201540AD8B2E3E7020020001B329040EF
:109DF0000200501E82410520401AC4401443E0E78F
:109E000064029620640AD3E7FFFFFFFB0B00020009
:109E100070B5164D0C0382B04900002000920193EA
:109E2000240B490DDE0FA94204DD1148814203DDF8
:109E3000104BF01802B070BD8020400320430E4C40
:109E4000641A1F2C08DD0D4B5B1AD84003005842E2
:109E5000002EEFD11800EDE7094B009A9C46030055
:109E600061448B40E2401343F1E7C046FE0300002B
:109E70001D040000FFFFFF7F3304000013040000F7
:109E8000EDFBFFFF03008218934200D17047197069
:109E90000133F9E703000A7801311A700133002A0F
:109EA000F9D17047002310B59A4200D110BDCC5CA7
:109EB000C4540133F8E700000C101418203040009F
:109EC00000800340009003400100000002000000F9
:109ED0000400000008000000100000002000000046
:109EE000400000008000000038392D2C0A0B0C0DBA
:109EF0000000000000000E11000102030405060727
:109F000008090909090A0A0A0A0B0B0B0B0C0C0CAD
:109F10000C0D0D0D0D0D0D0D0D0E0E0E0E0E0E0E6B
:109F20000E0E0E0E0E0E0E0E0E0F0F0F0F0F0F0F4A
:109F30000F0F0F0F0F0F0F0F0F000000000000009A
:109F4000000000000000000000009F02D466F8A995
:109F5000565C72C99A1102F8A4FE5301B72D000095
:109F6000000000000B0B00000000000000000000DB
:109F700000000000000000000000000000000000E1
:109F800000000000000000000000000000000000D1
:109F900000000000000000000000000000000000C1
:109FA00000000000000000000000000000000000B1
:109FB000000000000000000000000000000073002E
:109FC0003200210049004A004B004C004D003D008A
:109FD0000000240036000000200000003800390096
:109FE00000003B005A00660037002C0040006A0069
:109FF0006B0000000000000000C0024000000000F4
:10A000000000000000070E091C1B1215383F3631F6
:10A0100024232A2D70777E796C6B6265484F464108
:10A0200054535A5DE0E7EEE9FCFBF2F5D8DFD6D1F8
:10A03000C4C3CACD90979E998C8B8285A8AFA6A1E8
:10A04000B4B3BABDC7C0C9CEDBDCD5D2FFF8F1F6D8
:10A05000E3E4EDEAB7B0B9BEABACA5A28F888186C8
:10A0600093949D9A2720292E3B3C35321F181116B8
:10A0700003040D0A5750595E4B4C45426F686166A8
:10A0800073747D7A898E878095929B9CB1B6BFB898
:10A09000ADAAA3A4F9FEF7F0E5E2EBECC1C6CFC888
:10A0A000DDDAD3D4696E676075727B7C51565F5878
:10A0B0004D4A4344191E171005020B0C21262F2868
:10A0C0003D3A33344E49404752555C5B7671787F58
:10A0D0006A6D64633E39303722252C2B0601080F48
:10A0E0001A1D1413AEA9A0A7B2B5BCBB9691989F38
:10A0F0008A8D8483DED9D0D7C2C5CCCBE6E1E8EF28
:10A10000FAFDF4F300000000000000000000000071
:10A11000000000000000000000000000000000003F
:10A12000004141414141000000000000002020208A
:10A13000202020202020004040008000484800309F
:10A1400030303030363030000000000000000000B9
:10A15000000000000000000000B4C404006CDC0239
:10A16000B0F3960100B4C404006CDC02B0F39601B5
:10A1700000B4C404006CDC02B0F3960100000000DF
:10A1800000000000000000000000000000000000CF
:10A190000000000000B4C404005A6202B0F396014B
:10A1A00000000000000000000000000000093D0069
:10A1B00000093D0040420F0000093D0000093D003C
:10A1C00040420F0000093D0000093D0040420F00E1
:10A1D000000000000000000000000000000000007F
:10A1E000000000000000000000093D0000093D00E3
:10A1F00040420F005465726D696E616C0052545498
:10A2000000534547474552007A960000AA95000042
:10A21000C2950000E0950000C29500002496000061
:10A22000C2950000E0950000AA950000AA950000E4
:10A2300024960000E0950000CA950000CA95000031
:10A24000CA9500002E960000AA950000AA9500006D
:10A25000C2950000B8960000C29500002496000048
:10A26000C2950000B8960000AA950000AA950000CB
:10A2700024960000B8960000CA950000CA95000018
:0CA28000CA950000F8B5C046F8B5C0460D
:10A28C003B0102000029010000002A010000002B04
:10A29C000100000033010000003C01020000360107
:10A2AC00000000380102000039010200003D0102EB
:10A2BC0000003E010200003F0102000040010200CC
:10A2CC0000410102000042010200003401000000C4
:10A2DC002C010000002D010000002E010000002FB9
:10A2EC0001000000300100000031010000000000FE
:10A2FC00010000000000000000C004400F0000003E
:10A30C000000000100000000C0F00F400100000040
:10A31C0000C004400F00000000000004000000001A
:10A32C000000000000000000000000000100000020
:10A33C0007000000DC050000EE0200000000000039
:10A34C000000000074FFFF1F00100000010000005F
:10A35C000C000000A53000009F2F00000D2E000007
:10A36C00FCFEFF1F3B010200002B0100000033012B
:10A37C000000003C0102000038010100003901011D
:10A38C0000003D010200003E010100003F010200FF
:10A39C0000400102000041010200004201020000E5
:10A3AC002C010000002D010000002E010000002FE8
:10A3BC00010000003001000000000000010101015B
:10A3CC0001010000000000000000000000366E01DA
:10A3DC000001000302020000000100000000000068
:10A3EC000000000000000000000000000000000061
:10A3FC000000010100010300010200000000000147
:10A40C00000000000000000000000000010000003F
:10A41C00000000000000000000000000010101012C
:10A42C00010101010000000011000000A4FEFF1F4B
:10A43C00010100000103010000C004400100000004
:10A44C000000000100000000C0F00F4001000000FF
:10A45C0000D00440050000000000000500000000D2
:10A46C00000000000000000000D0044004000000C8
:10A47C0000000005000000000000000000000000CB
:10A48C0000C00440100000000000000400000000A8
:10A49C00000000000000000000C004400F0000009D
:10A4AC00000000040000000000000000000000009C
:10A4BC0000D0044009000000000000010000000072
:10A4CC0000F10F400000000000A004400500000057
:10A4DC00000000040000000000000000000000006C
:10A4EC0000A0044004000000000000030000000075
:10A4FC00000000000000000000B004400300000059
:10A50C00000000010000000080F00F40010000007E
:10A51C0000B0044002000000000000010000000038
:10A52C0080F00F400101000000C004400500000055
:10A53C000000000100000000C0F00F40010000000E
:10A54C0000B0044001000000000000010000000009
:10A55C0080F00F400100000000B00440100000002B
:10A56C00000000010000000080F00F40010000001E
:10A57C0000B004400F0000000000000100000000CB
:10A58C0080F00F400000000000A00440020000001A
:10A59C00000000010000000040F00F40010000002E
:10A5AC0000A00440010000000000000100000000B9
:10A5BC0040F00F400000000000A00440000000002C
:10A5CC00000000010000000040F00F4000000000FF
:10A5DC0000B0044009000000000000010000000071
:10A5EC0080F00F400000000000B0044008000000A4
:10A5FC00000000010000000080F00F40010000008E
:10A60C000090044007000000000000010000000062
:10A61C0000F00F400100000000A004400D000000FD
:10A62C00000000010000000040F00F40010000009D
:10A63C0000C0044003000000000000050000000002
:10A64C00000000000000000000C0044002000000F8
:10A65C0000000005000000000000000000000000E9
:10A66C000090044003000000000000030000000004
:10A67C0000000000000000000090044002000000F8
:10A68C0000000003000000000000000000000000BB
:10A69C00009004400D0000000000000200000000CB
:10A6AC000000000000000000009004400C000000BE
:10A6BC00000000010000000000F00F40010000004D
:10A6CC00009004400B00000000000001000000009E
:10A6DC0000F00F400100000000D004400800000012
:10A6EC00000000010000000000F10F40010000001C
:10A6FC0000B004400700000002000002000000004F
:10A70C00000000000000000000B004400600000043
:10A71C000200000200000000000000000000000029
:10A72C000090044000000000000000040000000045
:10A73C00000000000000000000C004400000000009
:10A74C0000000006000000000000000000000000F7
:10A75C0008000000A0860100FFFF010000000000BF
:10A76C00000000000000000000000000A0860100B6
:10A77C00FFFF0100000000000000000000000000CE
:04A78C0001030100C4
:10A7900000000000000000000000000000000000B9
:10A7A00000000000000000000000000000000000A9
:10A7B0000000000000000000000000000000000099
:10A7C0000000000000000000000000000000000089
:10A7D0000000000000000000000000000000000079
:10A7E0000000000000000000000000000000000069
:10A7F0000000000000000000000000000000000059
:10A800000000000000000000000000000000000048
:10A810000000000000000000000000000000000038
:10A820000000000000000000000000000000000028
:08A83000000000000000000020
:0400000300006E8902
:00000001FF
