:1008000000380020110C00006D0C0000078C010066
:1008100000000000000000000000000000000000D8
:100820000000000000000000000000006D0C00004F
:1008300000000000000000006D0C0000658B01004E
:10084000612F01006B2F0100752F01007F2F010028
:10085000892F01006D0C00006D0C00006D0C000074
:10086000CD8601006D0C0000E1450100EB45010063
:10087000295801006D0C00006D0C00006358010048
:100880006D0C00006D0C00006D0C00006D0C000084
:100890006D0C00006D0C00006D0C00006D0C000074
:1008A0001B6D0100A14701004F6F01006D0C00009E
:1008B0006D0C00006D0C00006D0C00006D0C000054
:100C0000FFFFFFFFFFFFFFFFFFFFFFFFFE7FFFFF75
:100C100072B610490F4A0F4B0E4C0E4D0D4E0D4F34
:100C2000B846B946BA46BB46BC460B490B4A521AAF
:100C3000013A05DD0020042308601944043AFBDA78
:100C400007488546074880470748804762B617F03F
:100C5000DFFFFEE70000000000FDFF1F003800205E
:100C6000003800207D160100F5150100D0E7C046D0
:100C700002B4714649084900095C49008E4402BC2F
:100C80007047C046002243088B4274D303098B424D
:100C90005FD3030A8B4244D3030B8B4228D3030C4C
:100CA0008B420DD3FF22090212BA030C8B4202D3EE
:100CB0001212090265D0030B8B4219D300E0090A16
:100CC000C30B8B4201D3CB03C01A5241830B8B421F
:100CD00001D38B03C01A5241430B8B4201D34B0308
:100CE000C01A5241030B8B4201D30B03C01A52416D
:100CF000C30A8B4201D3CB02C01A5241830A8B42F2
:100D000001D38B02C01A5241430A8B4201D34B02DA
:100D1000C01A5241030A8B4201D30B02C01A52413E
:100D2000CDD2C3098B4201D3CB01C01A52418309F2
:100D30008B4201D38B01C01A524143098B4201D32C
:100D40004B01C01A524103098B4201D30B01C01A57
:100D50005241C3088B4201D3CB00C01A52418308D1
:100D60008B4201D38B00C01A524143088B4201D3FE
:100D70004B00C01A5241411A00D20146524110465E
:100D80007047FFE701B5002000F0F0F802BDC04653
:100D90000029F7D076E7704703460B437FD4002243
:100DA00043088B4274D303098B425FD3030A8B42FF
:100DB00044D3030B8B4228D3030C8B420DD3FF2269
:100DC000090212BA030C8B4202D31212090265D037
:100DD000030B8B4219D300E0090AC30B8B4201D3EA
:100DE000CB03C01A5241830B8B4201D38B03C01A31
:100DF0005241430B8B4201D34B03C01A5241030BA8
:100E00008B4201D30B03C01A5241C30A8B4201D358
:100E1000CB02C01A5241830A8B4201D38B02C01A03
:100E20005241430A8B4201D34B02C01A5241030A7A
:100E30008B4201D30B02C01A5241CDD2C3098B425F
:100E400001D3CB01C01A524183098B4201D38B01DC
:100E5000C01A524143098B4201D34B01C01A52417F
:100E600003098B4201D30B01C01A5241C3088B42C4
:100E700001D3CB00C01A524183088B4201D38B00AF
:100E8000C01A524143088B4201D34B00C01A524151
:100E9000411A00D201465241104670475DE0CA0F28
:100EA00000D04942031000D34042534000229C46E8
:100EB00003098B422DD3030A8B4212D3FC228901F2
:100EC00012BA030A8B420CD3890192118B4208D3C8
:100ED000890192118B4204D389013AD0921100E02A
:100EE0008909C3098B4201D3CB01C01A524183093E
:100EF0008B4201D38B01C01A524143098B4201D36B
:100F00004B01C01A524103098B4201D30B01C01A95
:100F10005241C3088B4201D3CB00C01A524183080F
:100F20008B4201D38B00C01A5241D9D243088B4265
:100F300001D34B00C01A5241411A00D20146634608
:100F400052415B10104601D34042002B00D549426C
:100F5000704763465B1000D3404201B5002000F0AB
:100F600005F802BD0029F8D016E770477047C04663
:100F7000D0400B00D1409C46203AD3401843524207
:100F800063469340184370479140030090409C464D
:100F9000203A9340194352426346D3401943704765
:100FA0008446100062468C461900634600E0C04645
:100FB0001FB51AF015FC002801D40021C8421FBD3E
:100FC00010B51AF055FB4042013010BD10B51AF0B3
:100FD00007FC002801DB002010BD012010BDC04629
:100FE00010B51AF0FDFB002801DD002010BD012026
:100FF00010BDC04610B51AF07FFB002801DC0020B0
:1010000010BD012010BDC04610B51AF075FB0028B8
:1010100001DA002010BD012010BDC0468446080042
:101020006146FFE71FB519F0C7F8002801D4002179
:10103000C8421FBD10B519F047F84042013010BD3D
:1010400010B519F0B9F8002801DB002010BD01200F
:1010500010BDC04610B519F0AFF8002801DD002022
:1010600010BD012010BDC04610B519F055F800287C
:1010700001DC002010BD012010BDC04610B519F0E4
:101080004BF8002801DA002010BD012010BDC04639
:10109000002B11D1002A0FD1002900D1002802D045
:1010A0000021C943080007B4024802A14018029079
:1010B00003BDC046B9FEFFFF03B4684601B5029800
:1010C00018F08CFC019B9E4602B00CBC7047C046D9
:1010D0001C2101231B04984201D3000C10391B0A68
:1010E000984201D3000A08391B09984201D300092C
:1010F000043902A2105C40187047C0460403020283
:1011000001010101000000000000000010B50029ED
:1011100003D1FFF7DDFF203002E00800FFF7D8FF22
:1011200010BDC04602780B78002A03D0013001318F
:101130009A42F7D0D01A704710B5080020210FF05E
:10114000ABFE002010BD10B51C00080011009AB2C3
:101150000FF0E8FE200010BD10B51C0008001100C3
:101160009AB20FF043FF200010BD10B50FF03EFD06
:1011700010BD000010B51E2303220549054810F0DC
:101180000CF8002802D10122034B1A7010BDC04692
:10119000C0FDFF1F600500208805002010B5094B29
:1011A0001B78012B0BD1084C200010F037F80028D9
:1011B00001D1C04610BD20000FF0FCFFFAE701206E
:1011C0004042F7E7880500206005002010B5064B77
:1011D00001001B78012B04D1044B180010F0FEF81D
:1011E00010BD01204042FBE788050020600500207B
:1011F00010B5064B01001B78012B04D1044B1800DD
:1012000010F064F910BD01204042FBE78805002082
:101210006005002070B5104B06001B78012B18D11B
:101220000E4D2B689A68EB68013A53438B4210D3FA
:1012300000290ED00139280010F0CCF9310004004B
:10124000280010F043F90443280010F08AF92043E5
:1012500070BD01204042FBE78805002060050020AA
:1012600010B50B4B01001B78012B0DD10948036809
:101270009A68C368013A53438B4205D3002903D0CF
:10128000013910F0A7F910BD01204042FBE7C0462C
:10129000880500206005002010B5054B1B78012B48
:1012A00003D1044810F05DF910BD01204042FBE776
:1012B000880500206005002010B5054B1B78012B28
:1012C00003D1044810F050F810BD01204042FBE764
:1012D000880500206005002010B5054B1B78012B08
:1012E00002D100F023F810BD01204042FBE7C046C8
:1012F0008805002010B5054B1B78012B02D100F0AA
:1013000059F810BD01204042FBE7C0468805002087
:1013100010B5054B1B78012B02D100F063F810BD0E
:1013200001204042FBE7C04688050020F0B50E00D2
:10133000002193B004002E2206A803910591049188
:101340001BF086FA09200322FF2168441BF080FA73
:101350000A231E22210001AD05A803AF01962B71BF
:101360001BF086FAC046A02008222900C000FFF723
:10137000FCFE002818D1012405AD1120032229000C
:10138000684403963C711BF073FAC046082239008A
:101390000748FFF7EAFE002806D10134E4B203351E
:1013A0000B2CEAD113B0F0BD01204042FAE7C04651
:1013B0000105000037B505000C000822FF21684632
:1013C0001BF046FAC0460095C0466B466A461C7143
:1013D00003236946537102480822FFF7C6FE3EBD4B
:1013E00002050000012307B55B4200900822694610
:1013F00002480193FFF7B9FE0EBDC0460305000089
:1014000070B50D0004000A490A4818F0FBF817F0FF
:10141000BFFB094B0100180018F0F4F82A00210066
:10142000064818F0EFF8064818F0ECF870BDC04612
:101430002BC90100A0C80100ADC80100B7C8010058
:10144000C4C8010037B56A4600230500D01DD3711A
:1014500007F012FB041E07D16B46DB79002B03D08B
:1014600001220D4B1A7028700C490D4818F0CAF86B
:1014700017F08EFB0B4B0100180018F0C3F8210089
:10148000631E9C412A78084818F0BCF8074818F0F9
:10149000B9F8E0B23EBDC046A90500204BC9010025
:1014A000A0C80100ADC80100C6C80100C4C8010041
:1014B000F7B51C4E1C4D3100280018F0A3F817F0AA
:1014C00067FB1A4C0100200018F09CF8184F1948CF
:1014D0003978C9B218F096F8174B1800019318F034
:1014E00091F83100280018F08DF817F051FB010039
:1014F000200018F087F8114C11482178C9B218F073
:1015000081F8019818F07EF800220E4B1A7008F04E
:10151000C1FD431E98410C4BC0B23870187020704A
:10152000F7BDC0463BC90100A0C80100ADC801001D
:10153000A41C0020DBC80100C4C80100E00D00208D
:10154000E3C80100A80500205508002000207047CE
:101550000020704710B508F0D1FA10BD10B508F0A2
:10156000DFFA10BD10B508F0D5FD10BD70B505004F
:1015700008F05FFE0A212800FFF7F4FC2800CCB237
:101580000A21FFF709FCC0B20A280BD8FFF770FB4D
:10159000060B0D0F111315170A0A19000D4821002B
:1015A00008F04EFE70BD0C48F9E70C48F7E70C4810
:1015B000F5E70C48F3E70C48F1E70C48EFE70C4877
:1015C000EDE70C49682017F0D1FB0B496A2017F0B2
:1015D000CDFBE7E7EBC80100EDC80100EFC8010053
:1015E000F1C80100F3C80100F5C80100F7C8010007
:1015F000F9C80100FBC80100F0CC010010B508F0EB
:1016000013FE10BD10B508F026FE10BD10B508F091
:1016100026FE10BD104B10B5586F18F0A9F9C4B2D2
:1016200008F007FE632C10D80A212000FFF72AFBE0
:10163000C1B2682017F06CFB0A212000FFF7A8FB5D
:10164000C9B26A2017F064FB10BD0449682017F086
:101650008DFB0121F5E7C046F80E0020F9C8010016
:1016600070B5050007F084FC2B78064A040013705F
:10167000002B01D007F006FC29780020FFF7C0FE00
:1016800020B270BDA805002010B507F0E1FA0400F3
:1016900001000120FFF7B4FE20B210BD10B507F025
:1016A000FFFA040001000220FFF7AAFE002C0ED171
:1016B00017F06EFA084B094A18601368092B08DC0A
:1016C000591C1160064A5B00118D064AD15220B2A6
:1016D00010BD1460FBE7C0465008002090050020B4
:1016E000F80E00209405002010B507F041FB041E01
:1016F00003D1054B1A6C054B1A6021000320FFF73C
:101700007FFE20B210BDC046F80E0020C8050020A4
:1017100010B507F0FFF9431E9841C0B210BD10B5D7
:1017200008F0A2FD002010BD024B1B785A1E934109
:1017300003707047E00F002000220A4B10B50A49E1
:101740000A481A7017F05EFF17F022FA084B0100E2
:10175000180017F057FF074817F054FF064817F016
:1017600051FF10BDE00F002014C90100A0C8010006
:10177000ADC80100FDC80100C4C8010010B508F0E3
:1017800063FC054A03001278D0B2012A02D05A1E27
:101790009341D8B210BDC046980F002010B508F094
:1017A00057FC054A03001278D0B2012A02D05A1E13
:1017B0009341D8B210BDC046980F002010B507F075
:1017C00013FC10BD10B507F023FC10BD10B507F0D9
:1017D00043FC10BD10B508F069FA10BD10B508F053
:1017E0007DFA10BD10B507F01DFB002803D1044B96
:1017F0001A6C044B1A60431E9841C0B210BDC0461B
:10180000F80E0020C805002010B508F065F910BDDD
:1018100010B508F023FA10BD10B508F033FA10BD6A
:1018200010B508F0A7FA10BD10B508F097FE10BD6E
:1018300010B508F085FE10BD10B508F0A5FE10BD6E
:1018400010B508F0B7FE10BD10B508F061FA10BD74
:1018500010B508F075FA014B186010BD8C0500201A
:1018600010B508F07BFA10BD10B508F07BFB10BD79
:1018700010B508F0F1FB10BD10B508F0FFFB10BD6E
:1018800010B508F0BBFA10BD10B508F0CBFA10BDCA
:1018900010B508F003FB10BD10B508F013FB10BD28
:1018A00010B508F023FB10BD10B508F029FB10BDE2
:1018B00010B508F043FB10BD10B508F049FB10BD92
:1018C00010B508F027FB10BD10B508F02DFB10BDBA
:1018D00010B508F0BBFA10BD10B508F0CBFA10BD7A
:1018E00010B508F08DFC10BD10B508F083FC10BDDC
:1018F00010B507F06BFB07F069FB134B134A997A9D
:10190000C9B21172197BC9B25172597AC9B2D17177
:10191000587C9C7CD97C204301439173197CC9B2CB
:1019200011735979C9B211719979C9B25171997804
:10193000C9B29170D978C9B2D170997BC9B291728C
:10194000DB7BDBB2D37210BDD60E0020AA050020CF
:1019500010B508F061F910BD10B508F02FFA01209C
:1019600010BD10B508F030FA012010BD10B508F018
:1019700037FA012010BD10B508F02CFA012010BD77
:1019800010B508F033FA012010BD10B508F04AFE7A
:10199000012010BD10B508F0EDFC10BD10B508F029
:1019A00005FD10BD10B508F01FFD10BD10B5C046F7
:1019B00008F03EFDC04610BD10B508F043FD10BD57
:1019C00010B508F073FD10BD10B508F083FD10BD13
:1019D00010B508F08BFD10BD10B508F08DFD10BDE1
:1019E00010B508F07DFD10BD10B508F08BFD10BDE1
:1019F00010B508F08DFD10BDF0B597B000910192C3
:101A0000A3493422060009A81F001AF031FF1A2248
:101A1000A04902A81AF02CFF9F4B1A689F4B5268EE
:101A20001B689B009B5818681AF01AFE9C4A9D4B35
:101A300019F048FF00229C4BFFF7C8FA051E08D199
:101A40001E9B9A4C1868A379002B1BD10133A371FC
:101A50002371C820FA21964BC0005B888900584347
:101A6000FFF79AF9934B82B2E1201B680001D9433A
:101A70005043C9170B40984200DD18001F9B1860A7
:101A800017B0F0BD2379012B50D13378002BE0D073
:101A9000894918F0F9F9FE2125608905061CFFF730
:101AA000E3FA002838D18549301CFFF7C9FA00282D
:101AB00035D11C9B187818F01BFF311C18F0CAFB9D
:101AC0001D9B041C187818F013FF011C201C18F033
:101AD000C1FB0C23041C09AA02A9388800F0A0F954
:101AE00018F0BAFE211C18F0B5FB9E21C905041C94
:101AF000FFF7A6FA002814D0CF21201C0906FFF713
:101B0000BDFA00280FD0201C18F086FE694B6C4AE5
:101B10001860664B9A809CE7FE26B605C9E7674EBB
:101B2000C7E76848F2E780200006EFE7614F637976
:101B30003D68012B5DD12668002E19DBFA21890052
:101B40008E4212DB3000FFF727F90300002D33DA55
:101B5000FA22ED18920053433D60002E41DB5A4AB1
:101B6000B2189A420FDD574B23600223637170E76E
:101B700080231B069E420DD1002D2ADA534A731B87
:101B800093422ADB3E60FA2130008900FFF7EAF930
:101B90002160EAE74E4B9E42E7DAFA2130008900E5
:101BA000FFF7FAF80300002D06DA802109064A1B28
:101BB0008242CDDD3960E6E7002DC9D0414A511B94
:101BC0009942C5DA3A60002EDDDAFA2292005343D8
:101BD00007E0404BED183D60D5E73E4BED183E4B1E
:101BE0003D6080221206B2189A42CCDA80231B068E
:101BF000BAE73378002B00D12BE7019B00211D6849
:101C0000281CFFF717FA002800D022E70123637190
:101C10001D9B187818F06CFE009B196818F01AFBD1
:101C2000291C18F017FB2D4918F02EF99E21C90523
:101C30002568061CFFF704FA002804D1002D00DBFC
:101C400023D120480AE0CF21301C0906FFF716FAFD
:101C5000002806D1002D0EDB802000062818206009
:101C6000F7E6301C18F0D8FD002D08DA80231B069B
:101C70005B1B8342F2DD80231B062360E9E6002D17
:101C8000ECD0104B5B1B8342E8DA0E4BF5E7C04605
:101C900038CC01001ECC0100DC050020E00500204E
:101CA0009A9999999999B93F00001040CC05002064
:101CB000140E0020D40500200000C842CDCCCC3D3D
:101CC00002020000FFFFFF7F01000080663BDFFF94
:101CD00019FCFFFF653BDFFF8802008000007A44AB
:101CE000034B1A60034B1960034B18607047C046E2
:101CF000E0050020DC050020D8050020F0B587B005
:101D0000009203930022444B05000E00FFF75EF99A
:101D100000285DD00022002328003100FFF774F96D
:101D2000041E04D02800310017F03AFE84B2009B54
:101D300018881AF095FC2A003300FFF75BF9071E9C
:101D400053D10C9B009A5B00985A1AF089FC2A0028
:101D50003300FFF74FF9002832D00C9B0C9A5B0838
:101D6000D11B012936D87B000493049A009B9B5A0F
:101D7000180005931AF074FC02000B0028003100D3
:101D80001AF068F8049B009E9C4666440400059B7C
:101D900070880D00C01A80B21AF062FC02000B00BD
:101DA0002000290019F04AF904000D00039B7E0071
:101DB000985B1AF055FC0C9B009001919F4218D142
:101DC0000C9B039A5B00985A1AF04AFC07B0F0BDCE
:101DD000124CACE700985900095AA14203D91A00E5
:101DE000BB185B08BCE71F00FAE7002700240025AA
:101DF000DCE7039B9E1970881AF032FC009A019B65
:101E00001AF028F822002B0019F05CFD009A019BC3
:101E100018F0B0FDDAE7C0460000F040FFFF000018
:101E2000F7B500920A880D0082423BD25A00525AFE
:101E3000824233D900245A08191B012924D867008B
:101E4000EE5BED19801B80B218F052FD019068889E
:101E5000801B80B218F04CFD011C019818F014F89A
:101E6000051C009BA4001E591C19311C606818F049
:101E70002FFB291C18F0EEF918F0CEFC0400301CE2
:101E800018F0CAFC2018FEBD5100495B814203D9FD
:101E90001300E2185208CFE71400FAE7FE255C1E93
:101EA000AD05DEE700240025DBE7F0B585B0009343
:101EB0000191009904000A9B002927D0002B25D00E
:101EC000CB180393019B5100591800239500451925
:101ED000039883421CDB0023009D013A0C985900B3
:101EE000095E0C988C466900085E01320290591C0C
:101EF0009700844516DC0B989B001B586046019E9A
:101F0000E3515300F052009B8B422FDC05B0F0BD33
:101F10009E00AF590B9887515E008F5F0C9801337C
:101F20008753D5E7A800844666460B98013530589C
:101F3000029EE05101985700C6530398854214DB76
:101F40000198D31A9A005B00A218C3180C9C0B9836
:101F5000023C0438009DA942D8DC8D0046595651F8
:101F60004D00665F01315E53F4E719000B00B5E7E1
:101F700007B56B4601AA00F008F8019B002B02D0C0
:101F800001235B42009300980EBDF7B50D0C89B29A
:101F90000F00060C2C00774301933B049C4680B253
:101FA0004443414320044018844488428941844585
:101FB0008041634675433F0C240CE419404249427A
:101FC0006419091864181460019A1360F7BD0000C1
:101FD000F0B50500664B9DB00422A95E079300236F
:101FE000C45E0222805E0626AA5F08AB1C80588071
:101FF0009980DA80844200DD83E002260124914248
:1020000000DD81E004270322611E4900595E64B2AD
:102010000591511E4900595E05988C4679B204918C
:1020200052B271B2604500DD71E0013E76009E5F04
:10203000B44500DB7DE0013F7F00DF5FB74202DA9D
:102040000E0004990496013C07AE64B23757013A7A
:1020500052B204980E970139B75652009A5A49B2B3
:102060000F9701387756490040B26A805A5A109744
:1020700037564000AA801A5A6400EA800822A85EF7
:102080000A22A95E3B4A1C5B328007222C80B27078
:102090000C242A5F1197188059809A80884251DC5D
:1020A000914257DD904258DC022203210120013881
:1020B00034564000185A0139288170564900595A3F
:1020C000013A6981B15652009B5A129415ACAB810A
:1020D000139014910AAE1C22002120001AF0B8FBC4
:1020E0000E22002130001AF0B3FB032300220093DC
:1020F00029000296019401330EA8FFF7D6FE1DB009
:10210000F0BD012602247AE7032704227CE7013F81
:102110007F00DF5F0598B8420FDC013E76009E5FCE
:10212000BE4202DD0E00049904962600140032001F
:1021300089E716000A00310085E726001400049A9A
:102140000491F8E790420CDD91420DDC012203215D
:102150000220ACE703220221A8E70222012103208A
:10216000A5E703220121F3E701220221F7E7C04698
:1021700001020304050600000122024BDA711A7203
:102180007047C046E405002010B5244C23685A1C53
:1021900001D001332360A379002B0BD10122A2715E
:1021A000921822710B70627123601D48FFF74AF983
:1021B000E07110BD2379012B0CD10B700278002A3D
:1021C000F7D00222227100220A7063712260FFF7A9
:1021D0006FF9EEE700230B706279012A0BD10278C8
:1021E0009A4203D1023363712260DEE722681D2A1E
:1021F000DFD92360EBE7E279002A02D00122627185
:10220000F7E7237A002B04D023681D2BD1D90223B2
:10221000E9E70123A3800B70CBE7C046E40500206B
:10222000EC050020014B18607047C046F005002007
:10223000F0B5ADB00C6834991CAF0C6000218C4235
:102240004DDC00218B4200D01188349B14AA5C60C5
:102250004F4B94461D88002318001CAF9C4246DC5F
:10226000349B00259C60E343DB1723401A000021C8
:1022700004A803931AF0ECFAE3B2019314AA9D4266
:1022800041D100230293019B022B01D9EB1E029343
:1022900000218C461CAA04AB009202998C4537DBC6
:1022A000349B0CAEDC600021039A30001AF0D0FAA7
:1022B00004A92A0030001AF0DBFA0021019B8B42AE
:1022C00000D0691E330000228A4240DB339B1C6031
:1022D000349BD96800238B4253DB2DB0F0BD002620
:1022E0004D00B34200D0465B7E530131A7E70600A4
:1022F0005A00D25B521A92B2AA4246413200664656
:102300009A550133AAE7A95C04A841550135B6E7FF
:1023100001218C4400215956012912D1012159561D
:1023200001290ED10220185601280AD15688178893
:102330000021B74208D29788B74205D21970587069
:10234000997001330232A8E759700121F8E70020A3
:102350001856013201280DD101255D57012D09D1F3
:10236000009800888446009847880020BC4506D81D
:1023700018705D700098013302300090A4E7587027
:10238000F8E7F256501E82413298C2540133A2E758
:10239000700E00200122024BDA70002303607047A8
:1023A000F4050020F0B587B00591110084461800AF
:1023B0000D9B0C9A1C88424B09781F88414B15884D
:1023C0001E880E9B49B21B78002B02D00B1E02D038
:1023D0000023013103D1BC4201D3AE425B411299CB
:1023E000DBB20B70384B99781E2901D801319970F6
:1023F0005978002913D10420FF301880997033498F
:10240000119B60461B780291109901910F990091E0
:102410000599FFF70DFFFFF767FA07B0F0BD1978D0
:1024200001291AD0022943D099780129F5D90178D8
:102430000129F2D11298DC780578A542EDD10D98EA
:1024400014880088001B224C2488A042E5DB1198E8
:1024500001700131197003001EE00178002906D1D6
:1024600000210320119B1970174B1870C6E7012932
:10247000D3D199781329D0D912990C78D9788C4274
:10248000EED10D9910880988091A124800888142F6
:10249000E6DB02211970119B0C491B7802911099FF
:1024A000604601910F9900910599FFF7C1FEB4E7CD
:1024B00001221A7000229A70FFF712FAADE7C046A7
:1024C0006A0E00206C0E0020F4050020F8050020A4
:1024D0006E0E0020700E0020014B18607047C04641
:1024E00008060020F0B585B003930B9B0E00197809
:1024F0000700C94B002900D169E2012199741268D3
:1025000002929A7A7E2A01D852189A72C24C637A41
:10251000002B00D0CBE00533FF33C0482381FFF709
:10252000AFF9E0722000FFF7AFF926682073BC49CD
:10253000301C17F0A9FCBB4917F0A6FC8F21C90578
:10254000041CFEF77DFD002800D1A8E00021201C1E
:10255000FEF794FD002803D0201C17F009FA80B282
:10256000B14BAF491881AC4B5D68281C17F08CFC4F
:10257000AC4917F089FC8F21C905041CFEF760FDEA
:10258000002800D18DE00021201CFEF777FD0028F7
:1025900003D0201C17F0ECF980B29E21A24BC90594
:1025A0005881301CFEF74CFD002800D17BE0CF2184
:1025B000301C0906FEF762FD031E0FD0301C18F018
:1025C0002BF99A49FEF7CEFC994A08000023914264
:1025D00004DBE1210901FEF7DFFB0300E1249E217A
:1025E00024016343904AC9051360281CFEF728FDA7
:1025F00000285AD0CF21281C0906FEF73FFD031EF4
:102600000ED0281C18F008F98849FEF7ABFC884A60
:1026100008000023914203DB2100FEF7BDFB03000D
:10262000E1221201534380490C984B60FFF734F9C3
:10263000794C60730F98FFF72BF9A0731198FFF78F
:1026400047F9E0731098FFF747F92074764C6089DA
:1026500018F04EF9774917F0FDFD051C606818F079
:1026600047F9754917F0F6FD011C281C17F082FA8E
:102670000E9B1860208918F03BF96E4917F0EAFDAF
:10268000051C206818F034F96B4917F0E3FD011CB4
:10269000281C17F06FFA0D9B186005B0F0BD674855
:1026A0005EE7664879E7664B98E7654BB8E75E4AB0
:1026B000237A556852890192032B00D1A6E000D9F4
:1026C00090E0013B012B00D899E03C680021201CE0
:1026D000FEF7B0FC002800D031E13378002B00D1A8
:1026E0002DE1029817F044F9002183B2201C0293D7
:1026F000FEF7A6FC002800D1ACE0524B9D420DD95C
:1027000028004A49FEF744FB4F4A019B464E9B185E
:102710005A1E9341019A7160D318738102223E4B75
:102720004A491A72201CFEF79FFC002800D100E1E4
:1027300080231B06E01817F01BF93B4B5A6814184E
:10274000A24201D9012464425C60039B1E68002EF2
:1027500000D1F1E031003548FEF794FA0500324B24
:10276000588918F0C5F80190280018F0C1F8011C2C
:10277000019817F06FFD051C200018F0B9F8041C33
:10278000300018F0B5F8011C201C17F07DFB011C6F
:10279000281C17F0EFF90C9B2D491860802338682E
:1027A0001B06C01817F070FB1E4917F06DFB041CC8
:1027B000029818F09DF8011C201C17F04BFD0A9B95
:1027C000041C187818F094F8011C201C17F042FD26
:1027D0001F4917F059FB119B011C186817F0CAF923
:1027E000119BA1E0042B00D06FE7E368002B00D021
:1027F0002CE7E37A227C134300D027E708E001238B
:102800006374043323720023A3721FE700236374ED
:1028100005222272F8E7C0460C06002010060020B0
:10282000A493D64E000061452006002000D2496BDB
:10283000F1F1FFFF0024F448B4A29139FFFF00003A
:102840000B790100FFD1496B0100FFFF000080CF31
:1028500000007A440021201CFEF706FC00286ED000
:102860005C4D5D4B286898420AD95C49FEF790FAA6
:102870002E895B4B2960F3185A1E9341F6182E815E
:1028800001229F21574BC9051A72201CFEF7D8FB65
:1028900000284BD0201C17F06BF84E4E33681C18E4
:1028A000A34201D901246442039B3460186818F0E4
:1028B0001FF8051C308918F01BF8291C061C4A4813
:1028C00017F0E2FA011C301C17F0C4FC061C2000B3
:1028D00018F00EF8291C17F0D7FA011C301C17F05D
:1028E00049F90F9B41491860386817F0CDFA404903
:1028F00017F0CAFA041C029817F0FAFF011C201CFA
:1029000017F0A8FC0A9B041C187817F0F1FF011CB3
:10291000201C17F09FFC354917F0B6FA109B011CDC
:10292000186817F027F9109B18608FE601204042C5
:10293000B3E70120404200E701256D420FE7294C33
:10294000A37A632B00D881E6637C002B00D17DE65F
:1029500003232800237217F0CBFF254917F094FAC0
:102960001E49051C60600198FFF702FBE121090187
:10297000FEF788F917F0BCFF616817F0FBF8154BFC
:102980006060256018891549FFF7F2FAE121090115
:10299000FEF778F917F0ACFF216817F0EBF820602C
:1029A0006068FEF77DFF2068FEF77EFF0C9B1868CD
:1029B000FEF77EFF0F9B1868FEF77EFF119B1868DD
:1029C000FEF77EFF109B1868FEF77EFF3EE69974C7
:1029D00063E6C04620060020FFD1496B00D2496B58
:1029E0000100FFFF0C060020A493D64E00007A449D
:1029F00000006145014B18607047C0462C0600205E
:102A000030B5354B5A7C002A06D10424FF349A6035
:102A10005A601C820A701AE01C7C0268012C12D0D9
:102A2000022C3BD0643245DB00249C600268642A9F
:102A30004BDD64255A686A43AA420BD901221C6007
:102A40001A74FE32E6E7312A1CDD00221A600268A1
:102A5000312A3DDD00221A6001680022642901DD6F
:102A60005A6801325A6001680022643101DA9A68BA
:102A700001329A6001680022313101DBDA680132EB
:102A8000DA6030BD64241A686243C834A2421FD998
:102A9000002203249A605A601C74BBE7313202DAC8
:102AA0000022DA60D3E76424DA686243C834A242C1
:102AB000EED8CCE764249A686243A24205D900228A
:102AC000DA6002321A74013AA4E700225A60BEE7C3
:102AD0001A680132BFE7C04630060020014B18607B
:102AE0007047C046440600200222034BFF32DA80C2
:102AF000013AFF3A1A72704748060020F8B5434C75
:102B000006002068079D471C01D0013020606079D5
:102B100000280BD10623FF33A380053B2060FF3B39
:102B20002870E371FEF712FDE07141E02079013871
:102B300003285AD8FEF79CF802183D560120287049
:102B40001B78002B03D1069B1B78002B30D003236E
:102B500023710023236001332372128809683068CF
:102B6000FEF7FCFC207223E002222A70A379002BDE
:102B700011D0642123684B43FA2189008B4217D37B
:102B80000023227123600133A371FEF7E3FCFEF7FB
:102B9000DFFCA0710CE00A221D4B9B6B53432268A3
:102BA0009A4205D304232371013B2B70FEF7DAFC14
:102BB000F8BD237A002B06D06420236843431548D0
:102BC0008342F5D9C5E7069A1278002A04D0089AFC
:102BD00013700123237106E00223226023712B70FE
:102BE000013BD1E703232B70E2E700222A70E3794F
:102BF0009342EED0642123684B43FA2189008B4233
:102C0000D6D3052322602371043B8AE748060020BF
:102C1000140E0020B70B0000014B18607047C0462F
:102C200054060020F0B59220624E00273200624C1C
:102C3000FF30A5440CABC018604B689769976A9742
:102C4000FF32527C1B783D0013435A1E93410370A0
:102C50005B4B19006693FFF797FA5A49669804F0A0
:102C600081FC0123584A594C1370220038009C46BD
:102C700054321370564A574912686796D2B2D21826
:102C80006C926B976C9A9A422BD16B9B002B02D063
:102C9000514B699A1A70002D02D04B4B689A1A70EA
:102CA000A08520000E22E18530304C4919F0E0FD6E
:102CB0004B4B4C4918006993FFF7A2FE4A4A4B4B15
:102CC00011781A00FE3200291FD181206D34400096
:102CD00010802170FF339A78002A48D000229A7021
:102CE00045E0679A1288824203D9D8B26890654657
:102CF00010008A4204D2D9B26991110062466B92E7
:102D0000679A013302326792BCE7117801294CD0EF
:102D1000210056310978002947D0E18D012944D995
:102D200001216D34117021700122314CFF339A70F2
:102D30000994304C2B4B08942F4C304A0794304C5C
:102D400030490694304C1F480594304C0494304C64
:102D50000394304C0294304C0194214C009401F0C7
:102D60005BFB1A4B2D4A99695162DA695A61174A1D
:102D70002B4B51695068196017F0BAFD294B186048
:102D8000254B196817F080F8274917F063FA264990
:102D9000041CFEF769F900284AD10021201CFEF727
:102DA0004FF9002845D0002443E0204A1278002A39
:102DB000BAD18FE7A807002014FDFFFF55080020B7
:102DC0001D0A00201E0A00201B0A0020C80900203E
:102DD000A4070020FFFF00001C0A0020EE0D0020C9
:102DE000C805002016070020BF090020C0080020E9
:102DF000E8090020340A0020330A0020040E0020D5
:102E0000E0090020F6090020CC090020E409002098
:102E100068080020F40900209C060020AC06002071
:102E2000100E0020080E00200000C842350A0020C5
:102E3000F64CF74BF74D1C60F74B30006B93F74B9C
:102E4000F7490693F74B6B9A0593F74B0493F74BAF
:102E50000393F74B0293F74B0193F74B00932B002F
:102E6000FFF7A0FAF54AF64B9268F64C1A60F64A5C
:102E7000F64B0292F64AF7490192F74AF748009258
:102E8000F4342A0005F0EAF82178F54AF54B0025DC
:102E900019701100012351310B7011009C46523101
:102EA000F148F24C0B706792689567993026895FFC
:102EB000A14204DDDCB266466A940C006896814249
:102EC00002DA08006546DFB2679901330231679183
:102ED000082BEAD1E24B002D02D0190052310F70BD
:102EE0006899002902D06A9951331970931CD887C8
:102EF0000020CB4BD48719689062030002000126A2
:102F0000DB4CDC4DC9B28A4201D000F003FF00283F
:102F100001D0D34A9362D849D84B6291D849D94A53
:102F20006191D9496091D9495F91D9495E91D94957
:102F30005D91D9495C91D9495B91D9495A91D94957
:102F40005991D9495891D9495791D9495691D94957
:102F50005591D9495491D9495391D9495291D94957
:102F60005191D9495091D9494F91D9494E91D94957
:102F70004D91D9494C91D9494B91D9494A91D94957
:102F80004991D9494891D9494791D9494691D94957
:102F90004591D9494491D9494391D9494291D94957
:102FA0004191D9494091D9493F91D9493E91D94957
:102FB0003D91D9493C91D9493B91D9493A91D94957
:102FC0003991D9493891D9493791D9493691D94957
:102FD0003591D9493491D949D94C3391D94929945A
:102FE0003291D9493191D9493091D9492F91D94953
:102FF0002E91D9492D91D94967912C91D849689141
:103000002B91D8496A912A91D7492891669927919D
:10301000D6492691D6492591D649249186492391AE
:1030200084492291D44921918C4920916B991F9117
:103030008C491E91D1491D91D1491C91D1491B91B7
:10304000D1491A91D1491991D1491891D149179172
:10305000D1491691D1491591D1491491D149139172
:10306000D1491291D1491191D1491091D1490F9172
:10307000D1490E91D1490D91D1490C91D1490B9172
:10308000D1490A91D1490991D1490891D149079172
:10309000D1490691D1490591D14969980491D14905
:1030A0000391D1490291D1490191D1490091669989
:1030B00002F024FA5D4F0021F86CFDF7BBFF0123FD
:1030C000002802D023785A1E93413A002C32137004
:1030D0003A00C84B32321B785A4C13703A00C64B38
:1030E0003F321B78624E137022003B00F33212789D
:1030F00045331A703A00C14B40321B78584D13705B
:1031000032003B00FF32527C41331A702A003B00F0
:103110004732127844331A7023003200F5331B789B
:1031200046373B70B64BA53212781B780CA9134377
:103130005A1E9341C922520052181370354AB14F9A
:103140006592B14AB14B344805970492B04A039254
:10315000B04A0292B04A0192B04A00929222FF32E3
:103160005218659901F066FC3B785A1E93412A007B
:1031700059321370A24B71AA1B78002B01D100F0B9
:10318000D5FD2300F6331B7859424B4113702300C1
:10319000F7331B785A425341DBB296220CA9FF3217
:1031A0005218137094230022FF335B181A70220008
:1031B000FD3211782200C4363378FC32002901D068
:1031C00000F0BDFD02206035FF3010802970002B1B
:1031D00001D000F0C0FD2300EC331B6801339425BF
:1031E00022000CA9FF356D188D49EC321360059152
:1031F0008C49584B04914A49584A03914C49834899
:1032000002914C49FF3401910EE1C0460000C842D2
:103210000C0E00201D0A00201607002014070020B5
:10322000A407002015070020C4090020AC060020D8
:103230005D080020F4090020F6090020BC090020E8
:10324000A0060020C0080020D0090020F8060020B9
:103250000007002050080020FC060020F80900208C
:10326000C80900201F0A0020FF7F00000080FFFF28
:10327000A8070020FFFFFF7F140A00204708002056
:1032800059070020FC0D0020580700205707002098
:103290005607002055070020540700205307002040
:1032A00052070020130A0020500700204F0700207B
:1032B0004E0700204D0700204C0700204B07002040
:1032C0004A07002049070020480700204707002040
:1032D0004607002045070020440700204307002040
:1032E0004207002041070020400700203F07002040
:1032F000120A0020F4060020F3060020110A002024
:10330000100A00200F0A0020EF060020EE06002021
:103310000E0A00200D0A00200C0A0020EA060020F8
:10332000E9060020E8060020E7060020E606002067
:10333000E5060020E4060020E3060020E206002067
:103340000A0A0020E1060020E0060020DF06002037
:103350000B0A0020DD060020DC060020DB06002032
:10336000DA060020D9060020200A0020F0090020FB
:10337000080A0020060A002068080020C605002070
:10338000C5050020C4050020C3050020C20500209B
:10339000C1050020C0050020BF050020BE0500209B
:1033A000BD050020BC050020BB050020BA0500209B
:1033B000B9050020B8050020B7050020B60500209B
:1033C000B5050020B4050020B3050020B20500209B
:1033D000B1050020B0050020AF050020AE0500209B
:1033E000AD050020AC050020AB050020AA0500209B
:1033F00048080020B2090020330A002055080020A8
:10340000540800202E0A00205C080020C805002077
:103410005B0800205A0800205808002057080020A8
:10342000220A00205F070020F4490091290004F0DF
:10343000A9FDF34AF34B1278002A01D100F03AFDBE
:1034400019000020503108701900012267310A70FC
:103450001900683162700A70CB212A7849000CA8E3
:103460000918002A01D000F030FD1A0068321278E5
:103470006733501E82410A701B785A1E934198226E
:103480000CA9FF3252181370DF4BE0485393E04B06
:103490005293E04B5193E04B5093E04B4F93E04BF2
:1034A0004E93E04B4D93E04B4C93E04B4B93E04BF2
:1034B0004A93E04B4993E04B4893E04B4793E04BF2
:1034C0004693E04B4593E04B4493E04B4393E04BF2
:1034D0004293E04B4193E04B4093E04B3F93E04BF2
:1034E0003E93E04B3D93E04B3C93E04B3B93E04BF2
:1034F0003A93E04B3993E04B3893E04B3793E04BF2
:103500003693E04B3593E04B26923493DF4B339365
:10351000DF4B3293DF4B3193DF4B3093DF4B2F93F5
:10352000DF4B2E93DF4B2D93DF4B2C93DF4B2B93F5
:10353000DF4B2A93DF4B2993DF4B28939423FF33F0
:103540005B182793CB235B005B182593DB4B2493FD
:10355000DB4B2393DB4BDC4F22939623FF335B182B
:10356000219371AB2093D94B19971F93D84B1E937E
:10357000D84B1D93D84B1C93C9235B005B181B933E
:103580009F4B1A93D54B1893D54B1793D54B169346
:10359000D54B1593D54B1493D54B1393D54B129311
:1035A000D54B1193D54B1093D54B0F93D54B0E9311
:1035B000D54B0D93D54B0C93D54B0B93D54B0A9311
:1035C000D54B0993D54B0893D54B0793D54B069311
:1035D000D54B0593894B0493D44B0393D44B02935F
:1035E000D44B0193D44B689A6A990093679B04F07B
:1035F00029F8D24B834D1B68D14AD24913702B0056
:103600006D331B78D04E6B91002B0CD0CF480192BC
:103610000390CF4ACF48009202903200CE4BCF4960
:103620006B98FEF7E9F96B6ACD49CE4CCB4AA362A1
:103630000791CD49CD4B0691CD4930000591CD493B
:103640000491CD490391CD490291CD490191BC49E5
:1036500000916B99FEF746FFCA4BCB4A1B78002BB3
:1036600005D01300F93319780123002903D1FA3268
:1036700013785A1E9341CA21C44E49000CAA52180D
:10368000137038003200C24900F070FEC14BC24ACC
:103690000293C24BC249C3480193009671ABFFF736
:1036A0002DFA0021A868FDF7C5FC0123002804D0ED
:1036B0002B004A331B785A1E93412200923213701A
:1036C0002A0023006C321278A5331A702A002300D6
:1036D000CB215A321278AE331A70230049000CAA5B
:1036E00052181278AF331A70982223000CA9FF32B7
:1036F00052181278B0331A702A0023005032127810
:10370000B1331A704F352B78A74AB2342370117831
:103710009D4B002901D000211170A0331C680025A9
:103720002368012B0ED0FE22012392052360A560A1
:10373000E56025616561A561E56125626562A2625A
:10374000E5622371A36A72AE699323000C331C22D5
:1037500019003000A7686D9319F08AF8E36A669340
:103760005B4B1B681800679317F076F8391C6A905A
:1037700016F000FA6890699817F04EF80021471E7D
:103780006698FDF757FCBF00002800D1A1E3F1596E
:10379000689816F0EFF96C906A9B72AE834969984D
:1037A000F351FDF747FC002800D095E3FE2169980E
:1037B000890516F0DFF9061C00216698FDF73AFC32
:1037C0000027002805D0F8216C98890516F042FDE5
:1037D000071C689B72A91C226D98A36019F048F819
:1037E00000216698A662FDF73FFC002800D181E326
:1037F000FE216698890516F06BFED9E0E0060020F0
:103800001D0A0020C8090020250A0020D806002033
:10381000240A0020150A00203B0700203A07002058
:10382000390700203807002037070020360700201E
:10383000350700203407002033070020320700201E
:1038400031070020300700202F0700202E0700201E
:103850002D0700202C0700202B0700202A0700201E
:10386000290700202807002027070020260700201E
:10387000250700202407002023070020220700201E
:1038800021070020200700201F0700201E0700201E
:103890001D0700201C0700201B0700201A0700201E
:1038A00019070020230A00203D0700203C070020C4
:1038B00018070020CC0600205F070020330A0020F4
:1038C0004608002064080020160700204508002054
:1038D000C8050020EC0D0020210A0020F40600207D
:1038E000F3060020F2060020F1060020F00600207A
:1038F000EF060020EE060020ED060020EC0600207A
:10390000EB060020EA060020E9060020E806002079
:10391000E7060020E6060020E5060020E406002079
:10392000E3060020E2060020E1060020DF0600207A
:10393000DE060020DD060020DC060020A4070020B3
:10394000160A00201E0A0020040E0020EC090020A8
:10395000E80700200C0E0020F6090020D006002009
:10396000D8090020AC060020D4090020CC09002092
:10397000100700200C070020080700200407002083
:10398000350A002054080020C0080020260A002024
:10399000BB090020270A0020B009002017070020DB
:1039A0009C090020A00900203D0900200000E04003
:1039B00094230CAAFF339B181B78E062002B05D0E0
:1039C000381C15F039FF16F027FF6790E34B679A14
:1039D000E3491A60E34B8AA81B68DE43F6171E40D2
:1039E0007200669318F044FFDF49E04A0B78002B21
:1039F00009D101330B70D660136153619361D361B8
:103A0000136253629362537A002B01D000235372E6
:103A100001217A917B917C917D917E917F91809122
:103A20000021D34879AB799647585C58A74200D11A
:103A300062E2010091CB91C191CB91C111CB11C137
:103A4000146B2368012B00D05BE2236B2422679365
:103A5000A36881A8689323000C3319006E9318F0B3
:103A600007FF0021B2009AA8676B18F0F1FE669874
:103A700016F0F2FE16F0D0FE431E6F9300236C93F7
:103A800001236A9300236993699B6F9A934200DC38
:103A900046E2689B2422A36081A96E9818F0E8FE94
:103AA000679B669A2363B14DB24B67631A602B0024
:103AB00001220024E83366991A60AF4B9AAF59602F
:103AC0009A60AE4B6793669BA34200DD94E294211B
:103AD000AB4AFF3112780CA8A14B0918002A00D17B
:103AE00094E21A00A2321278A333501E82410A7067
:103AF0001B785A1E9341CB21A24C49000CAA5218A4
:103B0000A1482100137003F059FCA04AA04B3B923E
:103B1000A04AC9203A92A04A002639929F4A210021
:103B200038929F4A0CAC37929E4A400036929E4A89
:103B3000001935929D4A34929D4A33929D4A3292A1
:103B40009D4A31929D4A30929D4A2F929D4A2E92D3
:103B50009D4A2D929D4A2C929D4A2B929D4A2A92D3
:103B60009D4A29929D4A28929D4A27929D4A2692D3
:103B70009D4A25929D4A24929D4A23929D4A2292D3
:103B80009D4A21929D4A20929D4A1F929D4A1E92D3
:103B90009D4A1D929D4A1C929D4A1B929D4A1A92D3
:103BA0009D4A19929D4A18929D4A17929D4A1692D3
:103BB0009D4A15929D4A14929D4A13929D4A1292D3
:103BC0009D4A11929D4A10929D4A0F929D4A0E92D3
:103BD0009D4A0D929D4A0C929D4A0B929D4A0A92D3
:103BE0009D4A09929D4A08929D4A07929D4A0692D3
:103BF0009D4A05929D4A04929D4A03929D4A0292D3
:103C00009D4A01929D4A00926B9A01F045F99C4BA6
:103C10009C4C1B78B34204D0230047331E78734278
:103C20005E419949606916F015FB67686690380037
:103C300016F05EFE011C669816F00CFB15F098FE5F
:103C40002300210020605B331A782B006231097851
:103C5000F43319702B00F2331A7022002B004D320E
:103C60001278F3331A7022002B005D321278F5338C
:103C70001A7022002B0063321278F6331A70220079
:103C80002B0064321278F7331A7022002B00613255
:103C90001278F8331A702B00E0331F602B00226A71
:103CA000DC331A602B00E28DF0331A8022002B00E7
:103CB00065321278F9331A702B00FA331E705F34B4
:103CC0002378FB352B70714B5A6801325A609A6920
:103CD000002A00D09DE101219A6801329A60DA68D9
:103CE0000132DA601A6901321A619961DA69596A36
:103CF000013201398A4200D90022996ADA611A6ACE
:103D0000013901328A4200D900221A62BB239B008A
:103D10009D44F0BD5000205A2F1A9F4204DB1B180F
:103D200030000132FFF7EFF8594BF9E73300A633C3
:103D30001B7813703300B7331B78FFF72EFA117816
:103D4000012900D0A6E0002B01D1FFF744FA02239D
:103D50006035137029700023FFF741FA60070020D7
:103D6000A8070020A4070020EC080020C0080020BD
:103D7000CC080020A4090020A00600206407002031
:103D800054080020210A0020490800205A0700207A
:103D9000D8060020590700205807002057070020A8
:103DA0005607002055070020540700205307002025
:103DB0005207002051070020500700204F07002025
:103DC0004E0700204D0700204C0700204B07002025
:103DD0004A07002049070020480700204707002025
:103DE0004607002045070020440700204307002025
:103DF0004207002041070020400700203F07002025
:103E00003E0700205E080020DC0900205608002044
:103E1000F4060020F3060020F2060020F106002040
:103E2000F0060020EF060020EE060020ED06002040
:103E3000EC060020EB060020EA060020E906002040
:103E4000E8060020E7060020E6060020E506002040
:103E5000E4060020E3060020E2060020E106002040
:103E6000E0060020DF060020DE060020DD06002040
:103E7000DC060020DB060020DA060020D906002040
:103E8000200A0020C80900200AD7233C6806002029
:103E9000FFFFFF7F002B00D05DE72100EC310968B8
:103EA0000C2901D8FFF797F90121603511702B70AB
:103EB000FFF791F96178002901D1FFF7CDFA1900D8
:103EC00068310A706270FFF7C7FA01230B70FFF7C1
:103ED000D6FA00236C935FE405277069B16915F089
:103EE00049FE043EB061013FF7D2FE260023B6052D
:103EF000689361E400205BE50431202900D093E55C
:103F00009EE5FE2201232000920522630021242247
:103F10002360A560656323710C3018F099FC94E56B
:103F2000699816F099FCFE21890515F023FE16F01C
:103F300073FC01388AAB4000C05A16F0D9FC011C52
:103F40006D90689815F016FE6890679816F064FCFE
:103F50000021461E381CFDF76DF8B600002805D07C
:103F600081AB9959689815F005FE6C906D9B81ADF9
:103F70002B496798AB51FDF75DF800282BD1FE2146
:103F80006798890515F0F6FD67900021381CFDF74C
:103F900051F8002810D06A9B22496C985D1E15F0DC
:103FA00073FFAD009AAB204A58516A9B9B185A1E6A
:103FB00093416A9AD3186A930021381CFDF754F88C
:103FC000002817D0FE21381C890516F081FA071C3D
:103FD000699B013357E50726E869296A15F0CAFD90
:103FE000043D2862013EF7D2FE239B056793002320
:103FF0006893CAE70027EBE7679B6600F618A30003
:10400000D85915F0B5FC013430805CE501230B7004
:1040100071E5DA6800210132DA601A69013263E67B
:104020000000104100002041010000800223F0B593
:10403000814C0125E362814B002623630423804FDA
:10404000804A3B60804BB7B01A60804A7B605A6000
:104050007F4A20009A607F4A6562DA607E4BA562E3
:10406000FB60BE60FEF7DEF82000FEF7D5FD200005
:10407000FEF732FA2000FEF731FD200004F06EF961
:10408000200003F0C5FA200003F052FA2000FEF7EA
:10409000B1FC320039002000FDF722FE200000F0C4
:1040A000B5F9200003F07AF9200003F05FFF20004B
:1040B00003F0CEFF39003200200000F0A3FC200006
:1040C00000F0B8FD200001F025F9644A644B126845
:1040D0001A60FEF751F803F031FA6248FEF75AF918
:1040E000614C624B3594624C624A3494624C634931
:1040F0003394634C63483294634C3194634C3094F2
:10410000634C2F94634C2E94634C2D94634C2C94ED
:10411000634C2B94634C2A94634C2994634C2894ED
:10412000634C2794634C2694634C2594634C2494ED
:10413000634C2394634C2294634C2194634C2094ED
:10414000634C1F94634C1E94634C1D94634C1C94ED
:10415000634C1B94634C1A94634C1994634C1894ED
:10416000634C1794634C1694634C1594634C1494ED
:10417000634C1394634C1294634C1194634C1094ED
:10418000634C0F94634C0E94634C0D94634C0C94ED
:10419000634C0B94634C0A94634C0994634C0894ED
:1041A000634C0794634C0694634C0594634C0494ED
:1041B000634C0394634C0294634C0194634C0094ED
:1041C00001F0AEF800F030FC614803F027FA00F08F
:1041D000C7F8FEF789FC03F0E7F800F055FE5D4BE9
:1041E0005D4A190016701A00A43215601A00A83230
:1041F000156018001A002C310E705849AC3209684D
:10420000A0300260166018001A00D96020213C32EC
:104210007C309D6705801E701D615D619D61DD6163
:104220001D625D629D625D639963DE631A635D601A
:104230001D8137B0F0BDC046680600208C06002006
:10424000380A00206C060020580600207006002066
:1042500074060020780600207C060020000E002056
:104260009C060020C4090020140A0020DB06002060
:1042700059070020DA06002058070020D906002040
:10428000570700200A0A0020560700205507002083
:10429000540700205307002052070020130A002073
:1042A000500700204F0700204E0700204D07002038
:1042B0004C0700204B0700204A0700204907002038
:1042C0004807002047070020460700204507002038
:1042D0004407002043070020420700204107002038
:1042E000400700203F070020120A0020F4060020AB
:1042F000F3060020110A0020100A00200F0A0020F7
:10430000EF060020EE0600200E0A00200D0A002015
:104310000C0A0020EA060020E9060020E80600203A
:10432000E7060020E6060020E5060020E40600205F
:10433000E3060020E2060020E1060020E00600205F
:10434000DF0600200B0A0020DD060020DC0600202E
:104350003D070020C008002034090020A4070020E9
:104360000122014B9A807047540A002070B5244CFA
:10437000150023685A1C01D001332360E379002B18
:1043800005D10222FF32E2802B70237214E0A37960
:10439000022B1AD0032B20D0012B22D1227A002A03
:1043A0000FD000228256002A07D000260233A371C4
:1043B0002660FDF7C1F92E7070BD0422A2712B702A
:1043C000FAE71048FDF7B0F9F6E70422A35E002BE8
:1043D000F2D00123A3710023D6E72368632BF8D81A
:1043E000EAE70B78002BE7D12B700233A371FDF7BE
:1043F00096F9054A031C904200D9131CA380DBE701
:10440000540A00205C0A0020FF7F0000014B186066
:104410007047C046600A0020F0B597B01A22049198
:104420000FA8CB4903931C9D1D9E18F021FA1A2258
:10443000C84908A818F01CFAFA2100202B68C90006
:10444000DA179B185340DA0F99424241D2B20792D1
:104450008B4221DCC04B1A68C04B52681B689B0022
:104460009B58186818F0FCF8BD4ABE4B17F02AFAA2
:104470000022BD4BFCF7AAFD00280DD0049B188834
:1044800018F0EEF80C2308AA00930FABFDF736FCEA
:1044900018F052F9B54C2061B54CB64923000A78A2
:1044A0003533002A0FD101321A700A70FDF7CCF9AA
:1044B00023003B331870FDF7D3F92086FDF7C8F9C8
:1044C0002060002404E01B78012B00D196E0012439
:1044D000A94B1F78002F09D0A84B1B78012B05D0C2
:1044E0000022A24BA6489A75FDF7C2F9A34B1F7094
:1044F0009E4B9A7D002A00D1B9E01F68002C6CD039
:104500009B4CA04B21001B783A31059323000A787D
:104510002D683933002A00D0ABE001320A701A70DE
:104520009949381C15F0B0FC316815F093FE002253
:1045300060603368E260A3608C4B5F60326820612A
:10454000D86092489A60FDF793F9049B904A1B88C3
:10455000934200D9F9E1039B1B785BB2002B00D199
:1045600023E20023824A059953620023994206D030
:104570000399097849B2994201D1936A01337C4980
:10458000844A8B621E9B1B88934207D8824B5A88B1
:104590001F9B120118680023904207D90022039B39
:1045A0009A5600239A4201D1CB6A0133704C209A6B
:1045B000E3626E4B596811609968D86815F064FC25
:1045C000714915F047FE259B1860239B1A7823003C
:1045D00033331A70002334342370644B986815F019
:1045E000C7F9219B1860049B188816F081F9229B5B
:1045F000079A1860604B1A7017B0F0BD049B228EAA
:104600001F8823003B331B78D71BBA4215D2002BDF
:104610000CD024685C49201CFCF726FD002805D13D
:104620000021201CFCF70CFD00281AD003225B4B54
:104630001A704E4B1A691A6049E7002BF6D0322FD8
:10464000F4D824685049201CFCF70EFD0028EDD159
:104650000021201CFCF7F4FC0028E7D1322F00D108
:104660002FE702224D4B1A70404B1C602FE7464F3C
:1046700044E71A78012A00D198E0022A00D19EE08E
:10468000049B1E88424B9E4206D9434B1F9A1B89AE
:1046900012681B019A4205D2039B1B785BB2002B68
:1046A00000D1C3E00022324B5A62059B934205D0F1
:1046B000039B1B785BB2002B00D17EE100222C4BC8
:1046C0009A621E9B1F88334B9F4206D8324B1F9A1B
:1046D0005B8812681B019A4205D9039B1B785BB269
:1046E000002B00D1BAE00022214BDA62280016F03C
:1046F000B3F82B4915F0AEFD2A4915F0C5FB002192
:10470000041CFCF797FC002800D0E4E08121201C69
:10471000C90515F0DDFE164C011C051C606815F07E
:1047200029FA124E6060291CF06815F023FAFE2168
:10473000F0608905E068FCF77DFC002804D0206962
:10474000291C15F017FA20610222174B35E0C046EC
:1047500004CC0100EACB0100C40A0020C80A0020F2
:104760009A9999999999B93F00001040A80A002098
:10477000680A00209E0A00209A0A0020640A00208D
:10478000BE0A00209B0A00200000C842BD0A00208B
:10479000BC0B0000480D0000140E00209D0A0020F4
:1047A0000000484300007A44A10A00208C490A75A1
:1047B0000022E262A262626203321A70C5E6676892
:1047C000A568381C291CFCF74FFC00281CD065602C
:1047D000834C281CE768391CFCF732FC00281CD0ED
:1047E000E560804B291C58681D0015F04DFB7E4983
:1047F00015F030FD00237A4CEB62AB626B62393509
:10480000033360602B70A0E60026381C311CFCF7D7
:1048100017FC0028DCD06660DAE70026381C311C63
:10482000FCF70EFC0028DCD0E660DAE76D4C636A2A
:104830000A2B00D8BDE00027E068391CFCF7FAFB22
:10484000002800D1B5E0664B27616760DF60FE237A
:104850009B05E36002233934237076E6614CE36AFA
:104860000A2B00D842E7FE21E6688905301CFCF7D8
:10487000E1FBA5685A4B002800D190E05B7D002742
:10488000002B6BD0230034331B78002B66D02369B8
:10489000291C181C0693FCF7D3FB002800D082E0EB
:1048A0000698291CFCF7EAFB002857D025614D4CDF
:1048B0004E49206915F0E8FA311C15F0CBFCFCF7E5
:1048C000D3FF4A4915F0C6FC454BA0606060D86034
:1048D0009860E760BEE71F9B454A1B68974200D976
:1048E00033E6DA434349D21713404A8812019A4209
:1048F00000D82AE60A891201934200D825E63E4BE9
:104900009E4200D821E68121364DC905686815F020
:10491000DFFD8121324E6860C905F06815F0D8FDD1
:10492000FE21F0608905E868FCF784FB002809D0C7
:104930008121201CC90515F0CBFD011C286915F04B
:1049400019F9286102222D4B1A702A4B1F9A1B89D4
:1049500012681B019A4200D2FDE502E6214B291C98
:104960001C69201CFCF76CFB002800D0244E1F495A
:10497000201C15F089FA311C15F06CFCFCF774FF53
:104980001A4915F067FC174A154B90605060D860C3
:1049900098600120D7605875FCF76EFFD4E625615A
:1049A0006560DD60D0E6164E81E70E4B5B6A013331
:1049B000D8E5059B002B00D180E60A4CA36A0A2BA0
:1049C00000D87EE6064F7B7D002B00D179E60021E2
:1049D000A06815F03FFC0023F8602361636036E7B0
:1049E000A80A0020680A00200000C84200BA5B4AFA
:1049F000470D0000140E0020BD0B0000A10A00208E
:104A00003333833F044B1A600122044B1960044B7B
:104A10001860044B1A707047C80A0020C40A0020AE
:104A2000C00A0020640A00200222014B5A7170471C
:104A3000CC0A0020F8B500260978069F0B9D127855
:104A4000B1420BD0B24209D100228256B24205D106
:104A5000C8221B685200C8339A427641704C714A92
:104A60002388934201D801332380A379002B05D1F9
:104A70000122A2710A32A270238036E0A0780138A8
:104A80000B2800D9BDE0FCF7F3F8060C1117321320
:104A900056565A8A8C9E06230420A370FCF7A0FF6A
:104AA000F8BD6379012B10D10733F5E7FCF7A0FFC0
:104AB0000B23A3700023DFE72379012B05D102200C
:104AC0000933A370FCF784FFEAE7002B04D0962398
:104AD00022885B009A42E3D30520FCF781FF032381
:104AE0000020A370FCF76CFF00232B70D8E7E3785D
:104AF000012B07D10220FCF777FF0923A3700023C5
:104B00002380CDE7002B04D0962322885B009A42B5
:104B100006D30520FCF764FF0220FCF765FFDEE703
:104B20003E78002EBCD10220FCF75EFF0B232680CE
:104B3000A3702E70B4E73B78002BDED1B8E7079B5B
:104B40001B78032B07D10F20FCF73EFF0C2300201E
:104B5000A3702080A2E70A9B1B78012B07D10023BA
:104B60003148238005336380FCF71CFF98E7099BDD
:104B70001B78002B0AD101330220A370FCF716FF2B
:104B8000FCF71AFF0F20FCF727FF89E796232288FE
:104B90005B009A42A0D23B78002B89D080E70723A4
:104BA0007AE73B78012B00D07AE7002E01D02B70FA
:104BB000A3E72388132B00D872E703233000A370E8
:104BC000FCF7FEFEB5E7079B1B78012B0ED0022BEE
:104BD00000D07CE700250B330320A3702580FCF771
:104BE000E5FE0F20FCF7F0FE280057E70423A37032
:104BF00000230F202380FCF7E7FE0C48FCF7CEFED5
:104C00004EE7089B1B78012B00D060E70133A370AF
:104C1000002307482380FCF7BDFE0F2052E7C04663
:104C2000CC0A0020FE0F0000CF0A0020D00A00208E
:104C3000D10A0020014B18607047C046D40A0020FA
:104C400010B50400002903D000228E4B9A8010BDBD
:104C50000178002902D001228A4BF7E781790029E7
:104C600002D00222874BF1E74178002902D00322CB
:104C7000844BEBE70179002902D00422814BE5E760
:104C80004179002902D005227E4BDFE7817A002995
:104C900002D006227B4BD9E78178002902D0072277
:104CA000784BD3E7C178002902D00822754BCDE7B5
:104CB000C17A002902D00922724BC7E7017D002981
:104CC00002D00A226F4BC1E7C179002902D00B2222
:104CD0006C4BBBE7017A002902D00C22694BB5E787
:104CE000817B002902D1C17B002902D00D22654BB6
:104CF000ACE7017B002902D1417B002902D00E22C2
:104D0000604BA3E7417A002902D00F225D4B9DE75B
:104D1000407E012802D114225A4B97E70238052819
:104D200011D8584BFBF7A4FF030507090B0D1522FB
:104D30008CE716228AE7172288E7182286E71922CD
:104D400084E71A2282E7617C002902D011224D4BB0
:104D50007CE7A17C002902D012224A4B76E7E17C55
:104D6000002902D01322474B70E71B78002B02D09A
:104D70002722444B6AE7029B1B78002B02D0462275
:104D8000404B63E7637D002B02D028223D4B5DE75B
:104D9000E37D002B02D029223A4B57E71378002BF2
:104DA00002D02A22374B51E71379002B02D02B2255
:104DB000344B4BE75379002B02D02C22314B45E783
:104DC000937A002B02D02D222E4B3FE7A37D002BA0
:104DD00002D02E222B4B39E79378002B02D02F22C2
:104DE000284B33E7D378002B02D03022254B2DE718
:104DF000D37A002B02D03122224B27E7137A002BE3
:104E000002D032221F4B21E7937B002B02D1D37BB0
:104E1000002B02D033221B4B18E7137B002B02D14F
:104E2000537B002B02D03422164B0FE7237E002B3E
:104E300002D03522134B09E7E37E002B02D0362245
:104E4000104B03E7537A002B02D037220D4BFDE6BF
:104E5000537C002B02D038220A4BF7E6937C002BC0
:104E600002D03922074BF1E6A37E002B02D03A2272
:104E7000044BEBE65378002B00D1E8E63B22014BD4
:104E8000E4E6C046D80A00200122024B52429A8032
:104E90007047C046D80A0020F0B51B78ABB003932A
:104EA0001992039A22AB1A70309A129012781891C4
:104EB0005A700492319A12789A700592329A127846
:104EC000DA700692339A12781A710792349A12782D
:104ED0005A710892359A12789A710992369A127814
:104EE000DA710A92379A12781A720B92389A1278FB
:104EF0005A720C92399A12789A720D923A9A1278E2
:104F0000DA720E923B9A12781A730F923C9A1278C8
:104F10005A7310923D9A12789A7311923E9A1078B1
:104F20003F9AD87312781A74409A1478419A5C7434
:104F30001578429A9D741678439ADE741778449ACD
:104F40001F7512785A75459A12789A75469A127892
:104F5000DA75479A12781A76489A12785A764999E9
:104F6000097899764A990978D9764B990978197709
:104F7000129B1B781293072A00D900223E43354327
:104F800011992C43109B204301430B430F99194364
:104F90000B000E9919430B000D9919430B000C9946
:104FA00019430B00039919430B00059919430B0092
:104FB000049919430B00069919430B0007991943EB
:104FC0000B00089919430B00099919430B000A9922
:104FD00019430B000B99194301230A4317930CD172
:104FE0004C9B1B78002B08D1129B002B05D04E9BAD
:104FF0001B781A00531E9A4117924F9B1AA91B78CF
:10500000C04D0B700393509B1B784B700493519BC6
:105010001B788B700593529B1B78CB700693539B28
:105020001B780B710793549B1B784B710893559B0E
:105030001B788B710993569B1B78CB710A93579BF6
:105040001B780B720B93589B1B784B720C93599BDC
:105050001B788B720D935A9B1B78CB720E935B9BC4
:105060001B780B730F935C9B1B784B7310935D9BAA
:105070001B788B7311935E9B1B78CB7313935F9B91
:10508000679C1B7826780B74609B659A1B786698E2
:105090004B741493619B689C1B7812788B741593E6
:1050A000629B00781B782478CB74639B8A751B788D
:1050B000C8750B75649B0E761B784B7516934C76F2
:1050C000699C27786A9C8F762478CC76A4466B9C62
:1050D00024780C778C4C2168A94201D801312160D9
:1050E000217C002910D101232374884B2160A381E6
:1050F0004D9B186814F03CFCC0B2FCF78BFA002200
:10510000814B5A742BB0F0BD129D6B4669424D41E4
:105110005C215B18197863461F433E433043169B5E
:1051200002431343159A277B1A431300149AEDB2D6
:105130001A431300139A1A431300119A1A431300C7
:10514000109A1A4313000F9A1A4313000E9A1A4327
:1051500013000D9A1A4313000C9A1A4313000B9A6A
:105160001A4313000A9A1A431300099A1A431300A8
:10517000089A1A431300079A1A431300069A1A430F
:105180001300059A1A431300049A1A431300039A52
:105190001A4313005A1E9341189ADBB21678012F56
:1051A00009D0022F69D0002E00D096E0574BE6734D
:1051B000A38126609CE7002E0AD0032300252373D9
:1051C000A573FCF723FA02232560E373642014E03F
:1051D000A07B0138032840D84B4CFBF749FD022A3D
:1051E0001E2A0423E05E0023092809DC052223602F
:1051F000A273FCF707FA0423E05EFCF7B7F97EE739
:105200000322A2732360F8E70B4300D077E73F4BFC
:10521000A3810023A37323606AE7642223685343B6
:105220009132FF32934200D269E70223A373002335
:1052300051E0642022684243FA2080008242E3D396
:105240000123A3730023A3804E9B290000931AAA75
:105250004C9B22A8FFF7F4FC51E7642223685343D8
:105260009132FF32934200D249E704232660A373B0
:10527000FCF7CCF9FCF7C2F941E7002E07D0032375
:10528000A381FCF7C3F90023E77323609EE70B4378
:1052900006D00127A781FCF7B1F9A773A680D3E751
:1052A000627B012A0DD1199A1278002A00D126E7D3
:1052B000642122684A4316498A4200D81FE767736F
:1052C000A9E7642122684A439131FF318A4200D222
:1052D00015E7012262732360CCE76420FA22236879
:1052E000E17B43435200012906D1934200D206E7F5
:1052F0000223E373002385E7934200D2FFE60123F4
:10530000E37394E7FEFFFF03D80A002002020000C7
:10531000DB050000014B18607047C046EC0A002016
:1053200030B5734C25780570607A089D2870A07A96
:10533000099D2870E07A0A9D2870207B0B9D2870BB
:10534000607B0C9D2870A07B0D9D2870E07B0E9DDE
:105350002870207C0F9D2870607C109D2870A07C98
:10536000119D287060780870E17C12980170217D91
:1053700013980170617D14980170A17D15980170DA
:10538000E17D16980170217E17980170617E189852
:105390000170A17E19980170E17E1A980170217F39
:1053A0001B980170A178D9201170E27800211A7041
:1053B0002379039A400013706379049A1370A379D8
:1053C000059A1370E379069A1370237A079A13707B
:1053D000637F1C9A1370E31DDB7F259A13702300F3
:1053E0000833269ADB7F137023002833279A1B7813
:1053F0001370230029331B78289A137023002A3353
:105400001B78299A137023002B331B782A9A137068
:1054100023002C331B782B9A137023002D331B7819
:105420002C9A137023002E331B782D9A13702300AF
:105430002F331B782E9A1370A37F1D9A13702300AD
:1054400030331B782F9A137023003133309A1B7836
:10545000137023003233319A1B78137023003333D7
:105460001B78329A1370230034331B78339A1370ED
:10547000230035331B78349A1370230036331B789E
:10548000359A1370230037331B78369A1370230034
:1054900038331B78379A1370230039331B78389AC6
:1054A0001370E37F1E9A1370631CDB7F1F9A1370C7
:1054B000A31C209ADB7F1370E31C219ADB7F1370FF
:1054C000231DDB7F229A1370631DDB7F239A063432
:1054D0001370E37F249A13700122064B19709963AD
:1054E00005491A541A635A63D9625A601A8130BD49
:1054F000A80C0020F00A0020280B0020F0B59DB079
:105500000D92B4220F93499B139119780700E94B30
:10551000FF32002901D101F03DFF01219954259A64
:1055200012780592269A12780792279A1278069294
:10553000289A127809922A9A12780E922B9A127847
:105540000A922C9A12780B922D9A127808922F9A1E
:1055500012780392319A12780492469A0020105ED3
:105560005A7A002A01D000225A72D24BDC6A0023F8
:105570002268012A0AD0FE21012289052260A36047
:10558000E36023616361A161E3612271A369A5689E
:105590000C93E36815AE159323691693636917930B
:1055A000E369009315F058F9291C119014F0E2FA00
:1055B00010900C9815F030F90021451E0098FBF76B
:1055C00039FDAD00002800D1ABE27159109814F0FC
:1055D000D1FA1290119B15AEB7490C987351FBF795
:1055E00029FD002800D09FE2FE210C98890514F0C7
:1055F000C1FA051C00210098FBF71CFD002800D112
:10560000A1E2FA211298890514F024FE0C90109B57
:105610000021A360159B0098E360169BA5612361A0
:10562000179B6361FBF720FD002800D18EE2FE216D
:105630000098890514F04CFFE06118AC0E224299E5
:10564000200017F015F92000FCF7C2FCC22004224C
:10565000A35E984A00934000115A984B994201D892
:1056600001311152C3204000115A994201D8013131
:105670001152C4208F4A4000115A994201D8013179
:105680001152C5204000115A994201D801311152DE
:10569000C620884A4000115A994201D8013111525E
:1056A000C7204000115A994201D801311152D62326
:1056B000804D5B00EA5C002A01D10132EA54AC2241
:1056C000D1239626FF32AC5C5B00FF36002C00D065
:1056D0003EE20120E854A13BFF3BAB55B023784E9E
:1056E000A854FF337748F471EC54FCF79DF82A0076
:1056F0008C3214602A00903214602A0088321460C0
:105700002A0094321460CA232A0001205B009832D8
:10571000E8541460CB2302225B00FF32EA526A4A4B
:105720000233EA5269481833B4733473F4737473F0
:105730003471EC54FCF784F8B31CDC772B00A833ED
:105740001C60F31CDC772B009E21D8331C600223E5
:10575000FF316B5433000833DC772B00B8331C6007
:10576000CD2359495B00E952B2235948FF33747184
:10577000B472B470F477EC54FCF75EF82B00C833C5
:105780001C60CE2301205B00E8543318DC772B002B
:10579000CF22E8331C6033004E495200A952022147
:1057A00028331C702B000232FF31A9520632A85454
:1057B000D221F21DD477F83303221C602B0049005C
:1057C0006A544A99FC33F470F472347074775C60F4
:1057D000B475DC60F4755C647472DC620C7031006A
:1057E0002F310C70A621FF316854B11D5C65B47473
:1057F0005C633472CC775C6774705C665C61BE23FA
:10580000A42031005B00EC50A823FF302E312A5435
:10581000A338FF330C70FF382B49E8540133E952A9
:10582000013A0233EA5433002B331C70330029331E
:105830001C7033002C331C702B1DDC67C823264AD8
:10584000B47774743476F4765B002A362C67AC67D0
:10585000AC66EA5034703A68204800231549824209
:1058600001DA8B6E01338B663B681D480022834250
:1058700001DBCA6E01320F4B1A48DA663968002222
:10588000814201DA1A6F01321A673968164800221C
:10589000814201DB5A6F0132064B14485A6739685E
:1058A0000022814201DD9A6F01329A6739681048FF
:1058B00000221FE0F00A002000004040FE0F000020
:1058C000A80C00209F0C002001020000A00C00206A
:1058D000A10C0020020400000202020208DBFEFF0D
:1058E00091EEFEFF2829FFFFB13CFFFFA8610000F9
:1058F0001F4E0000814201DCDA6F0132CD4BCE48F1
:10590000DA6739680022814202DD1A1DD26F013246
:10591000191DCA673968C9480022814202DC083370
:10592000DA6F0132C649C34BCA67C64A3968906EFE
:105930000022814203DA1A0088321268013219000B
:1059400088310A60BF4A396810690022814202DA50
:105950008C331A680132BC49B64B0A60B94A3968BF
:1059600090690022814203DD1A00903212680132F0
:10597000190090310A60B34A3968106E00228142E2
:1059800002DD94331A680132B049AA4B0A60469A84
:10599000AF490024145F1A0098328C4201DC01F0F8
:1059A000B9F91368013313600022AA49A14B0A60B8
:1059B000A44A2021515E0022A14203DB1A00A0323A
:1059C000126801321900A0310A609E4A1E21515E00
:1059D0000022A14202DAA4331A6801329E49954B93
:1059E0000A60FA211A004900A8328C4201DA01F05B
:1059F0009EF9136801331360002298498D4B0A60A9
:105A0000904A2821515E0022A14203DB1A00B032E5
:105A1000126801321900B0310A608A4A2621515EAB
:105A20000022A14202DAB4331A6801328C49814B58
:105A30000A601A000099B832323101DB01F084F9B2
:105A40001368013313600022864900980A607D4A7A
:105A5000784B2221515E0022814203DD1A00C032C0
:105A6000126801321900C0310A60764A0098242178
:105A7000515E0022814202DCC4331A6801327A4945
:105A80006C4B0A601A000099C832323101DB01F018
:105A900067F91368013313600023664A0099039283
:105AA000724A1360674B2A229A5E00238A4203DD02
:105AB000039BD0331B680133039A0099D0321360E3
:105AC000604B2C229B5E00228B4203DC039BD43371
:105AD0001A680132574B664918000A600D9AD8308F
:105AE0000021515E634A914201DC01F045F90268F0
:105AF000FA250132026018000022DC300260180032
:105B0000AD00E030A94201DD01F05AF90260190050
:105B1000E4310A60E8331A60574B1B68013301F027
:105B200048F90023129355E5B168706814F022F823
:105B3000011C7060159814F01DF8FE2500231590C7
:105B4000AD05109356E500230C9360E5002073E546
:105B5000139AE95C1278012913D1002A08D0022196
:105B6000344AD154D62300215B00D154FBF7C0FE48
:105B7000304CA05D013803281FD8FBF779F80B19CA
:105B80003F4A002A02D10132EA54F1E7D6225200FC
:105B9000AA5CE2E70E9B012B0FD103200022863383
:105BA000FF33A055E252FBF7D3FE344B0E9A03E0CD
:105BB00001230022A355314BDA71CB221D4B520039
:105BC000995C012900D084E01E4A38681169884236
:105BD00056DB00228C331A60049B012B5AD1CB2256
:105BE0000221144B5200995400210E3A042099527C
:105BF000FBF7AEFE0122214B9A734BE0C3235B00FF
:105C0000E35A132BD9D90E9B002BD6D10133A355C0
:105C1000CBE7D7256D00635D002B04D10533A35579
:105C20000122164BC8E701206055FBF701FE6055C5
:105C3000C3E7C046F00A002038C10100AFAD010043
:105C4000F80A0020140E00207C0B0020840B00209A
:105C5000250200008C0B0020940B00209C0B0020E0
:105C6000A40B0020AC0B0020B40B0020BC0B0020C8
:105C7000C40B0020B6030000DC0B0020A80C0020A1
:105C800004990129ABD0117D0A224A438C331B6849
:105C90009342A4D89822B24BFF32995C012953D188
:105CA000B0493C688869844224DC00219033196043
:105CB000039B012B28D10221A94B05209954C52211
:105CC000002152009952FBF743FE0122A64B1A73A2
:105CD0001AE004990029DDD18931FF31595A63292D
:105CE000D8D9190004988C31086001219954020018
:105CF0009D4B81E703980128DDD0087F0A214143AD
:105D000090331B688B42D6D8CA22954B5200995CBF
:105D1000012957D1934A3868916E884227DB0022C7
:105D200088331A60049B012B2CD1CA2202218C4B90
:105D3000520099540021103A04209952FBF708FEB2
:105D40000122894BDA731DE003990029DCD1C520BB
:105D500096214000185A89008842D5D3190003982B
:105D6000903108600121995402007F4BAFE70499FC
:105D70000129DAD0642188331B686C324B431288C6
:105D80009342D2D8CC22764B5200995C012955D14E
:105D9000744A3868116E884225DC002294331A60F8
:105DA000039B012B2AD1CC2202216D4B5200995426
:105DB00000210C3A05209952FBF7CAFD01226A4BDB
:105DC0005A731BE004990029DCD18531FF31595AFF
:105DD0006329D7D9190004988831086001219954A2
:105DE0000200614BAEE703990129DCD064219433B2
:105DF0001B6852184B4312889342D4D89A24584BAC
:105E0000FF341A5D022A2AD05649032A4ED0012AAD
:105E100075D1CD21524B49005C5C012C00D18DE045
:105E2000469A0020125E4F48022C00D1DDE0282463
:105E3000005F824200DCF3E0B033EEE0039900291A
:105E4000DCD18D31FF31595A6329D7D91900039814
:105E500094310860012199540200434BB0E7069A3F
:105E6000012A0CD11A000021A032116004220699E7
:105E70001A553D4A1171D82252009954C9E7469AE1
:105E80000021525E39498A4202DC002298331A60AE
:105E90000023374A3748D377314A036010009C30DB
:105EA00003600320304910550B71B2E7469A1E205B
:105EB000095E0020125E914202DB0021A4331960CA
:105EC000069B012B07D0419B1B78012B0FD8294B38
:105ED0001B68132B0BD90620FBF73AFD0021264A3D
:105EE0001F4B1160042201311A551F4AC2E7872354
:105EF0009B009A428DDD214B00221A6089E7469A69
:105F00000020105E20228A5E904201DDA033F3E77C
:105F1000069A002A00D07CE71A00A0321268632A91
:105F200000D876E71A000699A43211601A009C3254
:105F3000116003221A550C4B19716AE7099A012A5C
:105F400020D100210E4A064B1160CD2203315200B0
:105F500007209954FBF7FCFC0122034B5A712AE0FD
:105F6000F00A0020140E0020A80C002025020000DA
:105F7000AA0C0020940B0020900B00208C0B00201A
:105F8000A00B0020FA22469952000020095E91429F
:105F900002DA0022A8331A600023C24AC248D3772B
:105FA000C24A03601000AC300360CD200224C04917
:105FB000400014544B719E22BC4BFF329A5C012A64
:105FC00042D0022A00D180E00D9A0021515EFA22CF
:105FD0009200914200DCA2E0089A012A78D0E033D6
:105FE0001B68092B74D8B34B36E02621415E9142E1
:105FF00002DB0021B4331960099B012BA1D0419B26
:106000001B785BB2013303D1A74B1B68132B98D8C5
:10601000F5235B009A42CEDDA74B00221A60CAE747
:10602000099A002AC7D11A00B0321268632AC2D96D
:106030001A000998B43210601A00AC3210600222C3
:106040005A5402009A4B89E7E1220D9992000020F0
:10605000095E914203DDE43300221A6015E0089ADC
:10606000002A12D11A00E4321268632A0DD91A00EC
:106070000899E03211601A00DC3211609E2103227F
:10608000FF315A548A4B089A9A729C24874BFF34EA
:106090001A5D022A4DD08949032A6CD0012A00D00A
:1060A000A8E0CE22814B52009A5C012A00D1BEE0CA
:1060B0007E4B8249022A00D118E12C228A5E009987
:1060C0008A4200DC2FE1D4332AE1089A012A0DD15B
:1060D00000217B4A012411609E22744BFF320A206A
:1060E0009C54FBF735FC724B9C72CEE70D9A002155
:1060F000525E74498A4202DC0022D8331A600023BF
:10610000714A7248D377694A036010009E24DC30DC
:10611000036003206649FF3410558B72B5E70022F7
:10612000E0331A60089B012BD2D0694B9942ACDD59
:1061300059E70599002201290BD11900C4310A60E1
:1061400004321A5505995A4A9170B222FF32995475
:10615000A7E70099323101DBB8331A6000225349B6
:106160005C48534B02600800BC3002600320DA77C1
:1061700008559A7095E722228A5E00998A4202DCCD
:106180000022C0331A60059B012B07D0419B1B786E
:10619000012B0FD84F4B1B68132B0BD90820FBF793
:1061A000D7FB00214C4A414B1160042201311A55A2
:1061B0003F4AC9E7009A3D4B283217DBCE225200F6
:1061C0009A5C012A00D073E7079B012B35D100218F
:1061D000424A364B1160CE220331520009209954B5
:1061E000FBF7B6FB0122324BDA7038E0BC330022F9
:1061F0001A6056E724228A5E00998A4201DDC43380
:10620000F5E7059A002A00D04BE71A00C43212685D
:10621000632A00D845E71A000599C03211601A00B8
:10622000BC32116003221A550A00214BA1E7079BDB
:10623000012BCCD0009B323302DB0022284B1A60AA
:106240000023284A2848D377184A03601000CC302E
:106250000360CE200224164940001454CB70CF2096
:106260000D9B40000021595E104B00221C5C012C4C
:106270006FD0022C00D192E01C000D00F434C83520
:1062800000DBA0E02168092900D89FE01900012463
:10629000F0311C540B200A60FBF75AFB044BDC72F4
:1062A0005CE0C046AB0C0020A40B0020F00A0020EC
:1062B000A80C0020CC0B00209C0B0020140E00200A
:1062C000D40B0020B6030000B00C0020D00B00203F
:1062D0007A030000B00B0020B40B0020C40B002098
:1062E000B80B0020A90C0020C00B00202A228A5ED7
:1062F00000998A4202DC0022D0331A60079B012BEE
:1063000000D164E7419B1B785BB2013304D1B44BED
:106310001B68132B00D95AE7009B28339FDAB14B37
:1063200000221A609BE7079A002A98D11A00D432FB
:106330001268632A93D91A000799D03211601A00A3
:10634000CC321160CE22022152009954A64B079AFA
:106350004AE71C00F034963113DA2260A025A34CE2
:10636000FF35635D022B35D8002B44D1A0490C9832
:10637000FAF77AFE9D4C002800D091E0F8342060B6
:1063800042E021686329E9D91900F4310A60190053
:10639000EC310A6003211954934BDA72DEE796312F
:1063A00001DBE8331A600023924A934813708F4A46
:1063B00003601000EC300360CF2003248A494000C2
:1063C0001454CB72CAE722608C31C7DA00228B4B9F
:1063D0001A60C3E7032BC9D1AE26229BFF361B7878
:1063E000A25D134344D101330F206355FBF7B0FA8C
:1063F0000123A35508E023000022FC331A60032385
:106400006355794B01321A70D020479B774900249D
:106410001C5F0B0040000D5C0022FC33012D57D1A6
:10642000774EB4424BDB5A60A220469B6F49002452
:106430001C5F0B00FF300D5C0022FC33012D5ED190
:10644000704EB44252DCDA60D321684B49005C5C88
:10645000012C62D0459A6C481288022C00D197E03A
:106460004089824200D3AAE00022FC331A657BE017
:1064700066490C98FAF7E4FD2300FC33002801D1AB
:106480001860C1E71B68092BBED922000023F8322F
:10649000136004226255544AA35513705377B3E72F
:1064A0002300F8331B68092BAED9FBF7B5F902239B
:1064B000C722635500235200A3524B4AEEE75C68A3
:1064C000322CB1D99A6002230B54474B9D75ABE730
:1064D0004B4DAC4201DA9A60A6E79C68642CA3D9C4
:1064E0005A6001230B54404B9A759DE7DC68322CAF
:1064F000AAD91A6102230B543B4BDD75A4E7414D29
:10650000AC4201DD1A619FE71C69642C9CD9DA60FA
:1065100001230B54344BDA7596E70B9A012A0ED1FE
:1065200000213B4A314B1165D32203315200022036
:106530009954FBF70DFA01222B4B5A7214E045993E
:10654000344A0988914202D90022FC335A6400235C
:106550002F480224C3648364D3202F49224ACB7777
:10656000224940000C545372D221204B49005A5CFE
:10657000012A55D0022A67D0234A459894891A00E7
:106580000588FC320020A54200D887E0D0625BE09D
:106590000189914202D20021FC33D9640B9B012B6B
:1065A000BED0194B1A49987B0A234343C86C9842C2
:1065B000B6D21A4B9A42D7D800238B64D4E70B9AF1
:1065C000002AD1D11A00FC32106D6328CCD90B9867
:1065D000D064906402225A540200034BADE7C046D7
:1065E000C00B0020BC0B0020A80C0020F00A0020EB
:1065F00000802244D00C0020E40B0020DC0B0020A3
:10660000E9FEFFFFA3060000140E00200000114465
:10661000EC0B0020210B0000AF0C00203B0B000016
:106620000024419804571800FC3001341FD1002386
:106630000363459B1988B64B9A89B64B64329142E5
:106640001FDC0022FC339A62A822B24BFF32995C15
:10665000439A106801292BD0AD4A02294FD0190066
:10666000146DFC310022A0426CD20A6633E09624FD
:10667000006BE400A042DCD3022058544A9B1A70FD
:10668000E2E719009622FC31886AD2009042DBD3FF
:106690000022CA62D22103204900EEE7D46AC72C47
:1066A000D2D91063906201225A54FBF7ADF8CBE7C0
:1066B000994A904202D90022FC335A650023974838
:1066C000A824C365836502209549964A0B709149B9
:1066D000FF3408559374A6228E4BFF32985C012834
:1066E0003BD0449A8A491288022800D17FE08988E9
:1066F0008A4200D892E00022FC33DA6355E0D26C83
:10670000904202D90022FC33DA65874A834B117824
:106710000A224A43DC6D00217E4894420BD3A82212
:1067200019660323FF3283541120FBF711F901226C
:106730007C4B9A74CFE743987C4A00689042CAD851
:106740009965C8E7086E0928C5D9A820CA658A6571
:106750000221FF301954734BEBE70A9A012A0ED13C
:1067600000216E4A6B4BD163A6210322FF31012029
:106770005A54FBF7EDF801226A4B1A7215E0E12238
:10678000449912010988914202D80022FC335A63CD
:1067900000236248A6240364836302206449614A9B
:1067A000CB775C49FF3408551372AA23594CFF3349
:1067B000E25C022A44D0032A77D0012A00D0BDE04F
:1067C000D420544B4000439A514C1D5C1168266CF8
:1067D0000022012D00D1D7E0022D00D1FBE0656C35
:1067E0001C00FC34A94200D817E1E266DEE04988CB
:1067F000914202D90021FC3319640A9B012BAFD0CE
:10680000434B464998790A234343086C9842A7D2E0
:10681000484B9A42C9D900238B63C6E70A9A002ADB
:10682000C3D11A00FC32D16B6329BED90A99116415
:106830009163A6210222FF315A543A4B0A9A9CE7EF
:106840000F9A1278002A10D00422E254449B188830
:10685000459B1B88C01A15F0D5FEA065E165FAF7C7
:10686000D7FF01222F4B5A70AAE73A68002A04DAB0
:10687000802109068A420AD052422F498A4206DC08
:10688000449A459912880988521A962A02DC0021F6
:10689000224A5167002221491E48CA678A6703219C
:1068A000C154204B5A709A778AE744993A6808880D
:1068B00045990988401A002A04DA802109068A428B
:1068C00015D052421C498A4211DC96280FDD0F9ADE
:1068D0001278002A03D004220E4CE254BBE70F4A80
:1068E000D26FC82A0ED800220C4B9A6768E70021A5
:1068F0000A4AD1670F9A12788A42ECD1312800DC1B
:106900005EE7F0E7409A1278022AECD1E3E7C0464E
:10691000140E0020F00A0020E8B20000EC0B00206A
:10692000D70C0020A80C0020680E00204BB30000FC
:10693000AE0C0020F5090000871300000F9A1278B2
:10694000002A00D03CE701320E20E254FBF700F8A9
:10695000E56DA46D002220002900B94BFAF736FB43
:1069600000280FD00022002320002900FAF74CFB5A
:10697000002804D02000290013F012F880B2FAF7A2
:106980004FFF1DE7AF48FAE7AF48814201D8FC331B
:106990005A660023AD48022403678366D420AC49BD
:1069A000AC4A0B70AC4940000C545374459BAA4D43
:1069B0001C88A423FF33E95C012937D02B00002277
:1069C000FC33022900D194E0FA2149008C4200D224
:1069D000CEE05A6159E0B14202D21900FC310A6797
:1069E0009E491A0008780A214143FC32146F0020A6
:1069F0008C420BD3D066D42203215200103099541C
:106A0000FAF7A6FF0122934B5A74CFE74399944BB0
:106A100009689942CAD99066C8E7E16E0929C5D9C3
:106A2000022122671954A2668A4BEDE78D4B9C42E6
:106A300007D9286E696E00228B4BFAF7C7FA002837
:106A400013D10022814B5A62449B834E1D882D1B1B
:106A5000280015F0D7FDFA23306671669B009D4231
:106A60003EDD0022794B5A620FE09623FC356A6ABC
:106A70005B009A42E8D90021744AA42051610322A4
:106A8000754BFF301A54734B1976D520439B7249CE
:106A900040001A68095C489B1B68012900D0BFE0D0
:106AA000002B77DB714959188A4200DA7EE09A1A86
:106AB00000D55242FA239B009A4277DAC0219622EF
:106AC000654B490059585200914274D9BE210022A9
:106AD000022049005A502E3158545E4BDA766AE053
:106AE000FC360022F2615F4A9442BAD99D42CCD171
:106AF000B7E75C498C4228D89A61574D0022286E2E
:106B0000696E594BFAF776FA002801D1FC35E86135
:106B1000449B1D88564B9D4202D800224B4B1A6263
:106B20004D4B4A4E0393F369322B02D8336A322B12
:106B300011D90022039BA421FC335A620123039A3A
:106B4000FF315354434A13769FE796229B695200C4
:106B5000934290D8D1E72D1B280015F053FD039BDD
:106B600018665966FA239B009D4200DD79E7B8E775
:106B70005969322989D91A62DA619A61A4220223F9
:106B8000FF32AB54449B1888001B15F03BFD286670
:106B9000696666E78021090659188A4206DC9A1A56
:106BA00088D580231B069A4200D082E7C0222A4B58
:106BB0000021520099509221274BFF315C5C00224A
:106BC0003868012C79D12B49884200DA5A67C921EB
:106BD000214B49005C5C00223868012C77D12649A2
:106BE000884200DDDA67C8211B4B49005C5C00224B
:106BF0003868012C75D12149884200DADA6694217F
:106C0000154BFF315C5C00223868012C73D11C49A4
:106C1000884201DCFEF71FFE0833DA67FEF71BFE31
:106C2000002B2FDB114959188A4236DB9B1A00D5FD
:106C30005B429622D20093422FDCBE22064BB7E77E
:106C40000000F040FFFF000037E00000EC0B0020E8
:106C5000D60C0020A80C0020F00A00205C0E0020BA
:106C6000F8D90000DC05000000408F4001000080E2
:106C700094110000B13CFFFF1F4E000091EEFEFF9B
:106C8000AFAD01008021090659188A4205DC9B1A24
:106C9000CFD5802212069342CAD1BE22544B520055
:106CA0009A58322A87D9C022002152009950803A3E
:106CB000AB31FF3AFF315A540FE74E4CA04200DB94
:106CC0001A6701205A6758544B4B1A707FE74B4C98
:106CD000A04200DC9A670120DA675854484B1A70CA
:106CE00081E7484CA04200DB9A660120DA665854DE
:106CF000454B1A7083E7454CA04201DC181DC26762
:106D0000180000220830C26701205854404B1A7006
:106D1000FEF7A1FD0021116087229200944201DD5F
:106D2000FEF742FE9C331A680132FEF73EFE002158
:106D30001160F5225200944201DDFEF75DFEAC3396
:106D40001A680132FEF759FE00211160009A2832BC
:106D500001DAFEF778FEBC331A680132FEF774FEE2
:106D600000211160009A283201DAFEF795FECC333B
:106D70001B680133FEF791FE002202601800254DCA
:106D8000DC30A94221DC05680135056018001D00D2
:106D9000E030E435026028680130286018000D00FA
:106DA000E83096353CDB130002608C3101DBFEF7E6
:106DB000B3FE194A1360194A1368013313603BE0AC
:106DC000016801310160FEF7A2FE02601800E030A8
:106DD000E12502601800AD00E430E833A94204DC8C
:106DE000016801310160FEF796FE0260FEF793FE36
:106DF000F00A00202829FFFFD30C0020A861000022
:106E0000D10C002008DBFEFFD40C002038C10100AB
:106E1000D20C00207A030000DC0B0020E00B0020E5
:106E20000568013505601800EC3002601800F0308C
:106E30000260C83100DA59E10023C84AC8490C98F9
:106E40001360C84DFAF710F9002803D02B00F8336F
:106E5000186801302B00F8331860C3490C98FAF712
:106E6000EFF8002802D0FC3528680130479BBF4A64
:106E70000021595E1060BE480023814200DB39E1E9
:106E8000516801315160B94ABA49936000238C427C
:106E900000DC33E1D1680131D160B44A1361459B14
:106EA0001D88FA235B009D4200D32BE15369013317
:106EB00053610023AB4CAD4EB361226E636E009202
:106EC0000193009801990022AB4BFAF793F8002840
:106ED00001D0F06901302300449AA8491488FC339A
:106EE0000022D8618C4201D91A6A013200239F4ED8
:106EF0000493A34B32629D420AD900980199002263
:106F00009D4BFAF763F8002802D0766A731C04934D
:106F1000049A9648934B42629A4A918900220E0045
:106F20006436B54201DD826A0132FC339A62002286
:106F30008D4201D8DA6A01328C480021C262419A3E
:106F4000884B127852B2013201D0016B01311A0024
:106F5000FC321163E12109018C4200D8DBE0516B66
:106F600001315163002218008649FC3082638E880B
:106F70000022A64201D3C26B01321800FC30C2636A
:106F80004A880021A24201D8016C01311A00FC326A
:106F900011647D498D4200D9C6E0516C01315164C4
:106FA000002218007749FC3082640E890022AE422C
:106FB00001D3C26C01321800FC30C264498900223E
:106FC000A94201D8026D01324399FC331A65086861
:106FD0006E4A0021904201D8596D01316348439BAC
:106FE00041651E686A4900235E4A8E4201D9836D5D
:106FF0000133FC3293656348439BC16C1E680023D8
:107000008E4201D8D36D01335849006DCB65439B47
:10701000544A1E680023864201D30B6E0133FC32B2
:107020001366439B5B4918680023884201D9536E5D
:1070300001334E4958484B66439B4A4A1E68002319
:10704000864201D88B6E0133FC3293664D48439BD8
:10705000416C1E6800238E4201D8D36E0133434930
:10706000006CCB66439B3F4A1E680023864201D3D7
:107070000B6F01331100FC310B673B68641B002B65
:1070800004DA802109068B4257D05B4243498B4288
:1070900053DC1300FC33962C51DD596F01315967D5
:1070A00000219967DB6F01331100FC31CB67489BEE
:1070B00043991B680968002B78DB39481818884207
:1070C00000DD7FE05B1A00D55B429621C9008B4250
:1070D00078DCBE21002049005050FA2189008B4203
:1070E00075DAC0235B00D358013371E0F4331B68B9
:1070F0000133A2E6536093680133C4E6D360136999
:107100000133CAE6002353611D4B9D4200D8D0E6EF
:1071100093690133CEE60021516322498C4200D9A4
:1071200020E7926B01321EE7002151641E498D4217
:1071300000D835E7926C013233E71300FC330021AD
:1071400059670023312C03DC1300FC339B6F0133A0
:107150001100FC318B670023A6E7C046E40B00203A
:1071600000802244F00A002000001144EC0B0020B3
:10717000E9FEFFFFA306000000408F4094110000CD
:10718000DC050000140E0020210B0000E8B2000016
:107190004BB3000037E00000F8D90000871300006F
:1071A00001000080F50900003B0B00008020000674
:1071B0001818884206DB5B1A87D5802109068B42A6
:1071C00000D081E7BE2149005358013353500023BA
:1071D000C022039952008B506F4B4B991A780A705A
:1071E0005A7A54990A709A7A55990A70DA7A5699A5
:1071F0000A701A7B57990A705A7B58990A709A7BC1
:1072000059990A70DA7B5A990A701A7C5B990A704C
:107210005A7C5C990A709A7C5D990A705A784C99EC
:107220000A70DA7C5E990A701A7D5F990A705A7D3D
:1072300060990A709A7D61990A70DA7D62990A7084
:107240001A7E63990A705A7E64990A709A7E6599CB
:107250000A70DA7E66990A701A7F67990A709A78BE
:107260004D990A70DA784E990A701A794F990A7016
:107270005A7950990A709A7951990A70DA79529923
:107280000A701A7A53990A705A7F68990A70DA1D3F
:10729000D27F71990A701A000832D27F72990A70EF
:1072A0001A002832127873990A701A00293212785B
:1072B00074990A701A002A32127875990A701A00A5
:1072C0002B32127876990A701A002C32127877993C
:1072D0000A701A002D32127878990A701A002E322C
:1072E000127879990A701A002F3212787A990A70F6
:1072F0009A7F69990A701A00303212787B990A7065
:107300001A00313212787C990A701A0032321278DF
:107310007D990A701A00333212787E990A701A0029
:10732000343212787F990A701A00353212788099B7
:107330000A701A003632127881990A701A003732B0
:10734000127882990A701A003832127883990A707A
:107350001A003932127884990A70DA7F6A990A70B1
:107360005A1CD27F6B990A709A1CD27F6C990A7052
:10737000DA1CD27F6D990A701A1DD27F6E990A703D
:107380005A1DD27F6F9906330A70DB7F709A137093
:107390001DB0F0BD9954FBE7A80C0020014B18600C
:1073A0007047C046E40C00200022034BDA709A704C
:1073B0005A701A707047C046E80C00200B78F7B579
:1073C000584C002B17D0E379002B00D18DE0A37926
:1073D000012B00D08DE0FF2223885200934201D878
:1073E00001332380637A002B00D087E08122520092
:1073F00022812380F7BD0278002AE4D0A2784A4D8A
:107400000192E678571C721CD2B2FFB20092112F83
:1074100033D9052E4CD01F00EB70AB7022790023BE
:10742000561CF6B21F2A08D1404B01935B78002B03
:1074300003D06B78012B42D101236B706379312B20
:1074400047D13A4B1B78002B41D02B78012B3BD1F5
:1074500032236371202E00D90026009AE379267129
:10746000A770062A3DD90022E27093423DD0A3794D
:10747000012B40D10223A371ADE7052E04D1EB7897
:10748000012B17D106230093053E73425E41019AFA
:107490000023EE70102AC0D1244EB378002BBCD04C
:1074A000AB78012B02D0FAF75CFA70700123B4E7D5
:1074B0001F00E4E7FAF750FA1C4B9870E2E7FAF77E
:1074C00055FA019B1870B7E7FAF755FA01232B70AC
:1074D000BEE700220133DBB22A70322BB9D9130088
:1074E000B7E7009AE270002BC1D10223FF33E3809B
:1074F00071E70123BFE7FAF743FA6CE7237A012B20
:1075000003D101332372002373E76423228853439A
:10751000FA22D200934200DA6CE701232372FAF7D1
:1075200034FA67E7EC0C0020E80C0020F60C002091
:10753000014B18607047C046FC0C00200122024B32
:1075400052421A807047C046000D00200122044BB1
:1075500052421A8000225A809A8002707047C046B8
:10756000000D002070B503780D00274C002B48D08B
:10757000A379002B04D10800FFF7E8FF0123A371D2
:10758000E678002E0ED10123E370FAF7C1F802234A
:107590002671A3702E70033B23801C48FAF760F815
:1075A000208070BDFAF7B4F8A378012B1ED163795F
:1075B000002B05D102222371A2702B70013BEBE757
:1075C00000236371FAF760F8431E9841C5B26571F4
:1075D000FAF764F805436B1E9D41EDB26571FAF749
:1075E00083F805436B1E9D416571DAE70022A35EB7
:1075F000002BD2D12279002ACFD001222A70A2708A
:10760000DFE7A371CDE7C046000D0020040D002088
:10761000014B18607047C046080D00200122074B3F
:1076200007490A70190031310A701900413102709E
:107630000A700222FF32DA877047C046100D002020
:10764000440D0020F0B589B0069200220793279BD5
:10765000019002919A562C9F13002D9E3C98012A6E
:1076600003D0369B1B785A1E9341169A117801223B
:10767000002903D1179A1278511E8A41129909786C
:10768000002904D10F990978002900D1DCE00122FA
:107690005A40189B19780123002903D1199B1B78A4
:1076A000591E8B41289909784C42614101702999F2
:1076B0000D78694269413D9C2170007834990390AE
:1076C0002A98097800780490B64800780590002A36
:1076D00000D0CCE011980078002800D0C7E01498C2
:1076E0000078002800D0C4E015980078002800D069
:1076F000BFE0002B00D0BCE0019A1278002A0DD127
:10770000029A0598127802430498024303980243B0
:1077100004D1002D02D00B005A1E9341A248A34A67
:107720000178DBB2062901D80131017014003C3424
:107730002178200000911100009C3B31002C00D0EA
:1077400099E0013404700098D06202220A703A9ADB
:107750001370319A12789A4201D000F0F8FB00229F
:10776000924BDA623A9B1A78319B1B789A4201D08D
:1077700000F0EDFB00228D4BDA623A9A10781A0085
:107780003433333214781B78241A1B1A5A1E93414F
:10779000621E94411C43864B5A78531E59424B41FA
:1077A000A34206D0032A04D0431E9841C0B2FAF780
:1077B00009F87F4B5C70279B1B785BB25C1C6242B4
:1077C0005441359AE4B211780022914203D0013B32
:1077D0001A00531E9A41D3B2139A1178339A127831
:1077E00000290BD12F990978002907D11C99097814
:1077F000002903D13299097800295ED01C435CD15D
:1078000053425A41D3B20093684B6A491A698A427B
:1078100001D801321A611A0038321578002D00D0D3
:107820008AE0012111700522DD615D6137331A7034
:10783000614B28001D70609B1D70F9F7BFFF5F9BB7
:107840001D70379B1D7095E007990978002900D0BD
:107850001DE71B990978002900D018E7002A00D0FD
:1078600015E72E9A1278002A00D010E711E70023BE
:1078700054E7130052E70878012807D110003D3083
:107880000078042800D86DE700205DE73A98047876
:1078900031980078844202D10021D16257E76424F4
:1078A000D06A6043C834A04200D850E70120087075
:1078B00000213D321170434049E753425341DBB24E
:1078C0000093189B01241B78002B03D1199B1C7873
:1078D000631E9C41119B1B78002B29D10E990978BE
:1078E000002927D1069B1B78002B21D114990978F8
:1078F00000291FD1159B1B78002B19D1002C19D101
:10790000019B1B78002B00D07EE7029B05991B781A
:1079100019430B00049919430B000399194300D034
:1079200072E7002D00D16FE7531E9A4114006BE7F8
:10793000002469E71C0067E71A0037321078013825
:10794000042800D9F7E0194BF9F792F903091C381C
:10795000B1001B69042B0DD90025144B63E71B698B
:10796000272B07D9AF222B9B92001B8864339BB235
:107970009342F1D93378012B00D001E10B4B5B69C5
:107980000133FEE0002CE7D03278002A02D000223A
:107990009A61EFE79B691D2B00D8F1E00123389A2B
:1079A0001370D9E7420D00204D0D0020100D00206E
:1079B0000C0D0020FEFF0F00540D002064218C46AA
:1079C00060461A00EB251969403241431278ED00F8
:1079D000A9420CD22B9900254D5FC82189008D4208
:1079E00005DAC8492220095E0A398D4230DAC64BD1
:1079F0001B78002B0CD00123002A0DD02B9B0022DA
:107A00009B5EC04A2221525E9A4219DD042303E0A4
:107A10000223002A00D003235F9A1370002502215D
:107A2000BA4BBB4A1D61BB4B280011701D70F9F7A2
:107A3000C5FE0123379A1370389B1D70609B01E7C8
:107A4000C8229200934201DB0523E5E70723E3E721
:107A5000002C00D180E730991D6809688D420FDC49
:107A600000221A62F9F79AFEAB4BA84D1870F9F78D
:107A700085FE2B003F3318702800F9F7B3FE79E735
:107A80006046196A4143962040008142EAD31900BA
:107A90003F3109780029E5D0002AE3D001219D4A31
:107AA000117000225A62373306321A7062E7002CD6
:107AB00008D13278012A00D1FFE05C610022934BAB
:107AC000DA6157E73B68002B00D0D6E02B9BE12121
:107AD00000229B5E89001A00643292B28A4202D967
:107AE000643393DBB0E7F9F749FE874B874D039387
:107AF0001870F9F753FE884A03001070039A127841
:107B0000002A01D0062387E7002800D0B5E0012035
:107B1000609A042110702A0037322B6211702B6199
:107B20002B60F9F74BFEF9F739FE7B4B1870F9F72C
:107B300025FE039B9FE7002C00D10DE73278012A38
:107B40001AD100225A623378012B19D10025032261
:107B50006E4B28009D6137331A706E4B023A1A70D3
:107B6000F9F72CFE379B5F9A1D70389B1D70609B48
:107B70001D7008231370FDE65B6A0A2B00D94DE7E0
:107B8000002362494B61002332789A4201D18B690C
:107B9000013300228B61339B1B78934209D09442BE
:107BA00007D05E483B681B185D48834201D8CA690C
:107BB0000132564BDA61309A186811680022884207
:107BC00001DD1A6A01321A6231780022012901D0DE
:107BD0005A6A01324D4B5A624E4A10781A003032BE
:107BE00011780122814204D131331A78121A531EBE
:107BF0009A414C4BD4B219784B1E5D426B41934273
:107C000006D0032904D0431E9841C0B2F9F7DEFD27
:107C1000444B1C703F4B1B785A1E9341399A13708A
:107C2000289B1A78394B002A00D18DE11800423088
:107C3000017800290BD11A00363211701A00353242
:107C4000117001223E331A703B9B19700270364A44
:107C50002E4C1378002B3FD10121117022004918BE
:107C6000353211703B9AE360A360636010001370BB
:107C7000F9F7B0FD3E34207098E0279B1B785BB28B
:107C8000013300D162E73278204B012A0DD0002267
:107C90005A61009B934200D010E7204A3B689B1832
:107CA0001F4A934200D865E608E75B69272B08D88E
:107CB000009B002B00D001E7EFE75B69272B00D882
:107CC000FCE60121124A114B117000221A61114B7E
:107CD000389A197002234DE72100250035310A78C2
:107CE0003E35012A06D0022A20D001233B9A0B7090
:107CF000137004E02B78002B58D03B9B1A70F9F7D7
:107D00006DFD20E0140E00204F0D0020100D00200E
:107D1000470D0020540D0020500D0020E703000007
:107D2000CE0700000C0D0020460D00202B78002B04
:107D30000BD000230A703B9AE360A36063601000DD
:107D40001370F9F747FD287030E0319B1B78002B4A
:107D500002D13B68642B02DC00227F4B5A603378EF
:107D6000002B02D13B68643302DB00227A4B9A601D
:107D7000609B1A78784B002A01D00022DA606422D6
:107D800058683B995043754C0978A04200D9C7E028
:107D900098685043A04206D9DB685343FA22120187
:107DA000934200D9BCE0002900D0C2E0319B6A496F
:107DB0001A7800239A4204D13A68642A01DD4B689C
:107DC000013300224B603378934204D13B68643323
:107DD00001DA8A680132604B9A60609A1278002A50
:107DE00000D0AFE0DA680132DA60079B459A1B7871
:107DF00013700E9B469A1B7813700F9B479A1B7843
:107E00001370109B489A1B781370119B499A1B782A
:107E10001370129B4A9A1B781370139B4B9A1B7812
:107E20001370149B4C9A1B781370159B4D9A1B78FA
:107E30001370169B4E9A1B781370179B4F9A1B78E2
:107E40001370189B509A1B781370199B519A1B78CA
:107E500013701A9B529A1B7813701B9B539A1B78B2
:107E600013701C9B549A1B7813701D9B559A1B789A
:107E700013701E9B569A1B7813701F9B579A1B7882
:107E80001370209B589A1B7813702A9B3E9A1B787C
:107E90001370219B599A1B781370229B5A9A1B7856
:107EA0001370239B5B9A1B781370249B5C9A1B783E
:107EB0001370259B5D9A1B781370269B5E9A1B7826
:107EC00013702E9B3F9A1B7813702F9B409A1B7840
:107ED0001370279B419A1B785BB21370019B429AE7
:107EE0001B781370029B439A1B781370069B449A6D
:107EF0001B7813703B9B1A4A1978174B11701900A5
:107F00003A9A333112780A70190034310A70190024
:107F1000144A3031127831330A701A7009B0F0BD4A
:107F2000002906D10322104B0D201A70F9F710FD1D
:107F30003CE701220C4B084C1A703B9B1A70F9F776
:107F40004DFC97E600224FE742331A704DE7024B93
:107F5000DA6A0132FFF70FFC100D002070170000E5
:107F6000420D0020540D0020450D00200322034B3C
:107F70001860034B5A701A707047C046580D0020A5
:107F80000C0D0020F0B5069C079F24783F781278EE
:107F90003C43089F1B783F78099D3C4314431C4396
:107FA000059B294F1A78294B22431C890A9EBC4203
:107FB00001D801341C81DC7A002C0ED181214900CA
:107FC00059812C703470002119600168002927DD67
:107FD000002A25D100225A60F0BD9C7A012C05D0E0
:107FE000022CF0D01989092927D8ECE71F89BC4653
:107FF00096277F00BC4506D3032134709972002177
:1080000019812970DFE70468002C0CDD002A0AD1F1
:108010005A600978002910D11A600268002AD9DC58
:108020005A680132D7E764275C687C439137FF3791
:10803000BC4202D809780029C5D0022199720021DA
:1080400029703170BFE7C046FE0F00005C0D0020B4
:10805000014B18607047C046680D0020F0B51F0046
:1080600013788FB00500B54C0991002B00D161E168
:108070002300012234331A70086812F039FC019091
:10808000206A12F035FC011C019812F021FA00213F
:10809000F8F7EAFF002800D1C6E00E2229000AA85E
:1080A00014F0E6FB6168019812F012FAA44912F08C
:1080B000D1F8159B051C18600AAB0020185E12F061
:1080C000CBFB0AAB02900220185E12F0C5FB0AAB94
:1080D00003900420185E12F0BFFB0AAB0490062048
:1080E000185E12F0B9FB0AAB05900820185E12F07A
:1080F000B3FB0AAB06900A20185E12F0ADFB0AAB88
:1081000007900C20185E12F0A7FBA1680890039856
:1081100012F0DEF98B4912F09DF8291C11F0B4FE23
:108120002168061C029812F0D3F9864912F092F8E1
:10813000291C11F0A9FE311C11F076FAE168061C29
:10814000049812F0C5F97F4912F084F8291C11F047
:108150009BFE011C301C11F067FA2169061C059872
:1081600012F0B6F9774912F075F8291C11F08CFE5F
:10817000011C301C11F058FA6169061C069812F0B7
:10818000A7F9704912F066F8291C11F07DFE011C58
:10819000301C11F049FAA169061C079812F098F9F1
:1081A000684912F057F8291C11F06EFE011C301CB2
:1081B00011F03AFAE169061C089812F089F9614950
:1081C00012F048F8291C11F05FFE011C301C11F060
:1081D0002BFAFE21149B89051860F8F74FFF431E08
:1081E00098410025584C2071029C01356B000AAA69
:1081F000D05E12F031FB211C11F016FA041C062D82
:10820000F3D1514B029A18604C4B1A60019A5A6094
:10821000039A9A60049ADA60059A1A61069A5A617A
:10822000079A9A61089ADA61444C484A238E93422D
:1082300001D801332386230033331B78424D002BB2
:1082400009D1A36263620223FF3363860023169A77
:108250003B60136038E0260032363378012B11D0B2
:10826000022B50D00023169A13600023E3620233DE
:108270003370F9F7D1FA0C20F9F76AFBFE239B055E
:108280003B6021E00026169B3E601E603049286856
:10829000F8F7F4FE002800D160622B79002B00D1A2
:1082A000A3626421FA22636A12014B4393420BD901
:1082B000A36A4B43934207D92300032232331A7037
:1082C00000232386169B1E602E682149301CF8F778
:1082D000D5FE002801D0606A0130002360622A794F
:1082E0009A4201D0A36A01331A49A362301CF8F7FD
:1082F000A7FE002801D0E06A0130099BE0621B68FC
:1083000023620FB0F0BDFE239B053B601149286836
:10831000F8F796FE002801D1E062D5E76422E36A0F
:1083200053430D4A9342CFD90023A36263620133C2
:1083300033708BE734342370E3E7C0466C0D0020C4
:108340006F12833ACDCCCC3DA40D0020FE0F00006F
:108350000000964300009B43B80B0000014B1860DF
:108360007047C046AC0D002037B5002504006946B3
:108370001348009507F014F80098124B2100C0181C
:108380000422800007F038F800990131092900D94A
:10839000290004220A48009107F02EF800230193D7
:1083A000094B01A9E418A400200006F0F9FF019987
:1083B000042201312000019107F01EF837BDC046AC
:1083C000644100004F10000041100000D34AD44B1C
:1083D000F0B513600123D34913719160D24A93B071
:1083E00006920392D14AD24E079202926A220092DA
:1083F000002250201100019610F06EFCCD4B059329
:10840000002802D00023059A1370059B1B78002BCF
:1084100008D0C94C6820210010F0A8FC21006A2077
:1084200010F0A4FC08F05CFCC44B04001900C44824
:10843000049311F0E7F810F0ABFBC24B01001800F9
:1084400011F0E0F82100C04811F0DCF8BF4811F04D
:10845000D9F807F06BF80127032800D0B6E1200017
:10846000FFF782FF002308A9B948089306F098FF98
:1084700009A9B84806F094FF099C09A9B64806F076
:108480008FFF201C14F010F9B44AB54BF8F7B2FD79
:10849000B04FB44D00281BD0FF21201C8905F8F7F0
:1084A000CFFD002814D0099CAF49201CF8F7C8FD67
:1084B00000280DD0AD49201CF8F7D6FD002807D0C4
:1084C0002900380006F06CFFA949A34806F068FFB0
:1084D000A849286811F0BEFE12F09EF9A44B0600D0
:1084E000A449186811F0B6FE12F096F9944D04995B
:1084F0000690280011F086F810F04AFB914C01001C
:10850000200011F07FF831009B4811F07BF88F4E6E
:10851000300011F077F80499280011F073F810F08A
:1085200037FB0100200011F06DF80699934811F017
:1085300069F8300011F066F8914E089BB3425AD0AA
:10854000802000230AA9C0010A9306F029FF0A9B94
:108550000CAD002B20D10BA98A480B930C9306F08D
:108560001FFF2900884806F01BFFE1210B98090135
:10857000F8F788FBE12104000B9009010C98F8F74B
:1085800081FB042221000C907E4806F035FF042276
:108590000C997D4806F030FF182228007B4914F022
:1085A00067F90024630004220021E85A013406F030
:1085B00023FF0C2CF6D1764C200004220021043439
:1085C00006F01AFFBC42F7D101220321714806F0E0
:1085D00013FF012280201100C00106F00DFF0422CC
:1085E00067495B4806F008FF594808A906F0D8FE1D
:1085F000089BB34278D104220021674806F0FCFEB4
:1086000000F0BCFD654D28702B780B3BDBB2F32BE3
:108610001DD801F020FE0E21614808F07EFA049971
:10862000474810F0EFFF10F0B3FA464B0100180076
:1086300010F0E8FF5B4810F0E5FF444810F0E2FF5F
:10864000FA20800010F096FA09F02AF84CE000F0C9
:1086500043FA00F09DFD041E48D101F0E7F900F057
:1086600037FD514B20001C7000F080FD0BA94F48D6
:108670000B9406F095FE0B994D4B013104224B48AB
:1086800019600B9106F0B8FE0CA94A480C9406F04C
:1086900087FE0C984849F8F77BFB484B89B2198054
:1086A00008F0B8FA012808D10C9904220131414898
:1086B0000C9106F0A1FE08F0B1FAF8F75BFD002876
:1086C00000D0A9E0059B1B78002B07D03C496830FF
:1086D00010F04CFB6A20184910F048FBF8F75EFDDB
:1086E000002800D198E0C046012495E028780A28A7
:1086F00006D1002000F03AFD01222B4B1A70F3E75F
:108700000130C0B2287000F031FD01F0C3FC7BE7FE
:108710002B780A2B56D1244B1F70E5E7B40D0020AF
:10872000030B00463A5EF9027D0C0100590C010072
:10873000350C01004CFEFF1FEDC80100DEC9010031
:10874000A0C80100ADC8010057C90100C4C801009C
:1087500004420000D8400000DC4000009A9999993A
:108760009999E93F40FEFF1F0000C8420000C8C2BF
:108770003CFEFF1F00007A446AC9010075C9010070
:108780003A2BAA66144000001040000082C8010085
:10879000B0400000FC41000098410000C80D0020DE
:1087A00080F00F40C5C80100C90D00200441000041
:1087B000C40D002024400000FFFF0000C00D002079
:1087C000EFC8010001332B7001F064FC144D2B78CD
:1087D0000B3BDBB2F32B00D81BE7124B1F7000F0F2
:1087E0007BF900F0D5FC041E92D100F011FF00F0DF
:1087F00057FC0D4B22001C70069B21000393079B26
:10880000502002936A2301960093693B10F064FAAA
:10881000002801D0054B1C70200013B0F0BDC046ED
:10882000C80D0020E20F0020C90D00204CFEFF1FE4
:10883000F7B5394B1D78002D6CD1FBF7F7FB1022F3
:10884000364B37491A60374B374C1A600222374B88
:10885000FF321A800A00364BC1CBC1C243CB43C2A0
:1088600043CB43C203CB03C2324A334BC1CBC1C259
:10887000110045CB45C145CB45C105CB05C12F4EA8
:108880002F49306B11F0E6FC2E4B343698676C3371
:108890001A882300D8331A602300327840331A70C4
:1088A0002200294BA4321B78284913702300220090
:1088B0009C331D700F23AF3213702200B032116051
:1088C0002200B4321370224A012713705370937040
:1088D000D370137153712300B5331D7023001D4AEB
:1088E000BC331A602300CA331F706B46DD7123004E
:1088F0009F331D7026006B461748D91DA036357072
:1089000006F064FD6B46DB79692B00D137700023DC
:10891000AC342370F7BDC046C90D0020A407002069
:10892000EC070020A0060020A80700204A0800202D
:10893000D8FDFF1F1808002004FEFF1F140E0020A2
:1089400000BA5B4AF80E0020CA0D00200F0F0F0F6F
:10895000D00E002070FEFFFFE840000010B5234C51
:108960002268531C0A2A04D90121214808F0DEF8A4
:10897000002323601F4B1B78002B14D01E491F4877
:1089800010F040FE10F004F91D4B0100180010F02B
:1089900039FE1C4810F036FE1B4810F033FE6420F0
:1089A00010F0E8F810BD194B1B78002B13D11249B9
:1089B000124810F027FE10F0EBF8114B01001800E0
:1089C00010F020FE124B13481978C9B210F01AFEAD
:1089D0000D4810F017FE104B1B78002BE2D10F4B07
:1089E0001B78002BDED104F0B7FADBE7B00D0020D6
:1089F00080F00F40C90D0020CEC90100A0C80100C1
:108A0000ADC8010082C90100C4C8010030FEFF1FCB
:108A1000D00D002092C90100801C0020811C002084
:108A200010B501F018FC0E210D4808F076F80D493C
:108A30000D4810F0E7FD10F0ABF80C4B01001800EA
:108A400010F0E0FD0A4810F0DDFD0A4810F0DAFDF4
:108A5000FA20800010F08EF808F022FE10BDC0460B
:108A600080F00F40B9C90100A0C80100ADC80100E5
:108A7000C5C80100C4C8010070B5002486B005AEA9
:108A80003100047005001248059406F089FC039635
:108A9000104E2000337808220293FC239B0501939B
:108AA00000941023012102F0CBF9041E0AD1012306
:108AB0002B703378012B05D104220599044806F068
:108AC0009BFC3470631E9C41E0B206B070BDC04692
:108AD00068410000E10F002070B50C4D0C4E0123E1
:108AE00029003000032208F0FFF8280000220321AB
:108AF00008F00AF8002002F083FD0400290030008D
:108B00000023032208F0F0F8200070BD80F00F4031
:108B100000B00440F7B5002002F040F91F4C00906F
:108B200000280CD121001E4AA3311378DB07DB0F8C
:108B30000B70137822005B07DB0FA2321370194F02
:108B4000194E3900300010F05DFD10F021F8174D7E
:108B50000100280010F056FD2300A33319781448B3
:108B6000C9B210F04FFD134BA2341800019310F05E
:108B700049FD3900300010F045FD10F009F8010002
:108B8000280010F03FFD21780B48C9B210F03AFDE3
:108B9000019810F037FD0098FEBDC046F80E002089
:108BA0001211002061CA0100A0C80100ADC8010077
:108BB000E7C90100C4C80100F7C9010007B50020DA
:108BC00001A9019001F0C0FE002805D1019BDA4304
:108BD000D2171340014AD3630EBDC046F80E0020E1
:108BE00007B5002001A9019001F0CAFE002805D1B7
:108BF000019BDA43D2171340014A13620EBDC046EF
:108C0000F80E002013B5002001A9019001F0D4FE58
:108C1000041E14D10198230000280CDD11F01CFE65
:108C2000084B196811F016FB074B196810F0A2FFEA
:108C300010F09EFE0300054A5362536AD36B200076
:108C400016BDC04638FEFF1F34FEFF1FF80E002081
:108C500037B500256B460020E9B29A1DD88001F097
:108C600057FE041E0CD16B46DB881A1C1BB2002B6E
:108C700000DA021C094B69000135CA52102DE9D1F6
:108C8000FFF7AEFF0443FFF799FFE4B20443FFF799
:108C9000B9FFE4B22043C0B23EBDC046F80E00208A
:108CA000F7B500262A4F6B4600203A78991DD880E8
:108CB00001F0C6FE274C051E11D16B460620185E3A
:108CC000254A00281DD101212800137899426841C6
:108CD0001B18DBB213708B4201D9204B1970238D06
:108CE00028001BB22386228D1D4B1A81628D12B281
:108CF0006286628D5A81A28D12B2A286A28D9A815D
:108D0000FEBD157013F07EFC164B002213F0A2F886
:108D100013F03CFC3B7800B2092B07D1124BE086E4
:108D2000188001360137072EBDD1D8E7032B02D1B9
:108D30000E4B2087F4E7002B01D16087F1E7330069
:108D400014335B00064AE0527300D052E9E7C04694
:108D500044FEFF1FF80E0020D10D0020E00D002082
:108D6000EE0D00200057A540FC0D0020EC0D00206A
:108D7000F0B5002685B0300003A9039601F04CFE43
:108D8000214D0400B0423CD10398B0420CD011F008
:108D900063FD1E4B196811F05DFA1D4B196810F048
:108DA000E9FE11F039FD0390039B2B6407F0A4FE4C
:108DB000184F194E3B68C01A306007F09DFE3368AB
:108DC0003860002B02DAFA235B0033602B6C3068CA
:108DD000019313F017FC060001980F0013F012FC2A
:108DE00002000B003000390012F06CFD00220B4B2A
:108DF00012F024F913F0A0FC094D2860200005B002
:108E0000F0BD2E64D2E7C046F80E002040FEFF1FE2
:108E10003CFEFF1FE40D0020E80D002000408F40C5
:108E2000040E002037B50500002001A9019001F0D3
:108E3000DFFD041E15D1019800280CD011F00CFDA7
:108E4000094B196811F006FA084B196810F092FEE8
:108E500011F0E2FC0190019B054A136420002B6095
:108E60003EBD044BFAE7C04640FEFF1F3CFEFF1F1D
:108E7000F80E0020F0D8FFFF002110B5080002F026
:108E800099F810BD054B00201B7810B5DB09012BAC
:108E900003D10722010002F039F910BD171100209B
:108EA00010B50121002001F07BFE00281BD10E4AE5
:108EB0000E4B11780907C90F997211784907C90F2C
:108EC000197311788906C90F59741178C906C90F29
:108ED00019741178C9095972127801005206D20F1B
:108EE0009A7401F05DFE10BD1D110020D60E002009
:108EF00010B50121002001F0ABFE00281FD1104A5F
:108F0000104B11788906C90F59711178C906C90F1C
:108F1000997111784906C90FD97111788907C90F5C
:108F200099701178C907C90FD97011784907C90F0D
:108F3000197112780100D2099A7301F089FE10BDEF
:108F40001B110020D60E002010B50121002001F0D9
:108F5000DDFE002807D1044B044A1B780100DB0921
:108F6000D37401F0D3FE10BD1A110020D60E0020DC
:108F700070B50400FFF780FF051E12D102F0E2F881
:108F8000002815D10C4A0D4913881BB28B4209DD0C
:108F900013880B4A1BB2934204DC0A4B1B78DB0993
:108FA000237070BD002301222370074B1A70F8E76D
:108FB000C0462570F5E7C046F01000207769000034
:108FC0001879000017110020E00D002010B5FFF700
:108FD00067FF0400FFF78CFF0443FFF7B5FFE4B21F
:108FE0002043C0B210BD000070B50500074C012839
:108FF00004D1A03401F008FB257070BD002001F001
:1090000003FB0023A0342370F7E7C046F80E0020CE
:1090100010B50C4904000C4810F0F4FA0FF0B8FD3C
:109020000A4B0100180010F0EDFA2100084810F07A
:10903000E9FA084810F0E6FA2100002002F0B2F93F
:1090400010BDC0464CCA0100A0C80100ADC8010057
:1090500071C90100C4C8010010B50C4904000C48D6
:1090600010F0D0FA0FF094FD0A4B0100180010F038
:10907000C9FA2100084810F0C5FA084810F0C2FAF1
:109080002100002002F008F910BDC04637CA0100D7
:10909000A0C80100ADC8010071C90100C4C8010029
:1090A0007FB50C22002103A813F0D2FB054B14223C
:1090B0000193054B01A90548029313F0D9FB07B0B2
:1090C00000BDC046454550524F4D4641940E0020CC
:1090D00010B588B01422002103A813F0B9FB0822B0
:1090E000002101A813F0B4FB002403AB1919194B9C
:1090F000E018043406F054F9142CF6D101A91648EE
:1091000006F04EF9154802A906F04AF9049B002B17
:1091100001D1134B0493134C1422200003A913F024
:10912000A7FB039B002B0ED10322A3704633E370F1
:109130003F3B237118336371133B2270A3710832D4
:1091400004336270E371082201A9074813F090FB11
:1091500008B010BD84400000A4400000A8400000FA
:109160003A5EF902940E00208C0E0020010081204E
:1091700010B50422C00106F03FF910BD07B58120EB
:10918000002301A9C001019306F00AF901980EBD60
:1091900010B50821002001F0B1FB431E9841C0B278
:1091A00010BD0000002307B5094801A9019306F08E
:1091B000F7F8019B013B033306D9064B0422D96B18
:1091C0000348019106F018F9019811F091FB0EBDCA
:1091D000B0400000140E002070B5ACB00600A8220C
:1091E000002102A813F034FB002402AB1919CF4B65
:1091F000E018043406F0D4F8A82CF6D1CC4C0222A6
:10920000200002A907F058FDCA4B2288CA481A80DC
:1092100003A9022207F050FD0222C84804A907F062
:109220004BFD0122C64805A907F046FD0222C548AC
:1092300006A907F041FD0222C34807A907F03CFD3B
:109240000222C24808A907F037FD0122C04809A937
:1092500007F032FD0422BF480AA907F02DFD0122C4
:10926000BD480BA907F028FD0422BC480CA907F053
:1092700023FD0122BA480DA907F01EFD0222B948BC
:109280000EA907F019FD0222B7480FA907F014FD37
:109290000222B64810A907F00FFD0222B44811A916
:1092A00007F00AFD0222B34812A907F005FD0222C9
:1092B000B14813A907F000FD0222B04814A907F035
:1092C000FBFC0222AE4815A907F0F6FC0422AD48CB
:1092D00016A907F0F1FCAC49206B10F0BBFF10F0B1
:1092E000F5FAA94910F0D0FD0122206317A9A7487B
:1092F00007F0E2FCA64D0122280018A907F0DCFCCB
:109300002B78002B00D13C33220035321370A1485A
:10931000042219A907F0D0FC9F4BA04A2366230022
:1093200064331A809E4BFA22A3662300D2006C336A
:109330001A80022E00D0F6E09A49206B10F08AFFC6
:1093400010F016FB050001000422E063964806F0C9
:1093500053F804222900954806F04EF8FFF722FF43
:10936000934E1BA930600422924807F0A5FC1CA96B
:109370000422914807F0A0FC1DA901228F4807F0A4
:109380009BFC1EA904228E4807F096FC1FA904220C
:109390008C4807F091FC20A901228B4807F08CFC37
:1093A00021A90222894807F087FC22A902228848C5
:1093B00007F082FC23A90222864807F07DFC24A93D
:1093C0000222854807F078FC25A90422834807F08B
:1093D00073FC26A90222824807F06EFC27A904220A
:1093E000804807F069FC28A902227F4807F064FC46
:1093F00029A904227D4807F05FFC01222AA97C48A4
:1094000007F05AFC002301A97A48019305F0C8FF30
:10941000019A794D794B01A97948DA6705F0C0FFC7
:109420002B00019A88331A6030685E492E0010F0D4
:109430002BFD8C3630603068216B10F025FD3060DC
:109440003068704910F006FF10F092FAFA2180B2ED
:109450006C35288023896C4D643B9BB22B802B8814
:10946000206E19339BB26B806388890064339BB292
:10947000AB80AB88193B9BB2EB80F7F703FCA36E84
:1094800080B228812B6128696049F7F785FC962313
:1094900069305B0080B2A8816B812623E05E0A21DF
:1094A0006430F7F779FC00B2A8822823E05E0A2135
:1094B0003230F7F771FC00B2E8821E23E05E0A2129
:1094C0006430F7F769FC00B228832023E05E0A21AC
:1094D0006430F7F761FC00B268832A23E05E0A215A
:1094E0001E38F7F759FC00B2A8832C23E05E0A214E
:1094F0003C38F7F751FC00B2E8832223E05E0A21F2
:109500001E38F7F749FC00B228842423E05E0A21C4
:109510003C38F7F741FC012300B268840535EB774E
:10952000C0462CB070BD1A9BE36317E708420000E9
:10953000140E0020FE0D0020160E0020180E002034
:109540001A0E00201C0E00201E0E0020200E0020EF
:10955000220E0020240E0020280E00202C0E0020B9
:10956000300E0020320E0020340E0020360E002077
:10957000380E00203A0E00203C0E00203E0E002047
:10958000400E0020440E00200000C842480E00207B
:10959000490E00204C0E0020C0D40100102700000E
:1095A00080C7FEFF00BA5B4AB0400000684200007E
:1095B000000E0020540E0020580E00205C0E0020EB
:1095C000600E0020640E0020680E00206A0E00204D
:1095D0006C0E00206E0E0020700E0020740E002015
:1095E000780E00207C0E0020800E0020840E0020CB
:1095F000880E00209C400000F80E0020000F002084
:10960000984000000000A045C810002018FCFFFF93
:109610002B4B2C4A2C491A602C4A99609A800422C0
:109620009A719A732A4A2B491A611E221A751A775F
:1096300096229200DA83284A99811A62274A284999
:109640005A62284A99619A62322252429A85264A7F
:109650002649DA63264AAF201A63264A00019A8611
:1096600001229A63244A1160244A19001A64244A88
:1096700048315A640A220A70AF210902D96421498B
:109680001965190054310A701900563108801E49B5
:10969000996519005C310A801C4A1D491A661A0036
:1096A000643211801B4AFA219A661A00C9006C3292
:1096B0001180194A1A67322274331A707047C046F3
:1096C000140E0020800C420EF00A540BDE0D000038
:1096D000A015FFFF9808000026029CFFCEFF26027F
:1096E00030750000F4019CFF002A751550A9AB4DA0
:1096F0000000C842013C0000000E002020E40000F1
:10970000E0DD000040B50000420E2300C0D401009F
:109710001027000080C7FEFF20DF0000F7B5C8213A
:10972000002304240901022286480193009105F0D8
:109730007BFE854B022219008448009305F074FEDD
:10974000834902228348009105F06EFE2100012228
:109750008148009405F068FEAF22AF211E2512015A
:109760000092090102227D4805F05EFE7C4902223A
:109770007C48009105F058FE7B4902227B4800910D
:1097800005F052FE210001227948009405F04CFEBC
:10979000784922007848009105F046FE2900012210
:1097A0007648009505F040FE754922007548009105
:1097B00005F03AFE290001227348009505F034FEB9
:1097C0009621724F724E890002227248724D0091AA
:1097D00005F02AFE390002227048009705F024FEA9
:1097E000310002226E48009605F01EFE290002227A
:1097F0006C48009505F018FE390002226A4800976F
:1098000005F012FEFA21022249006848009105F095
:109810000BFE310002226648009605F005FE290085
:10982000009501250A260222624805F0FDFD624BE3
:109830002200684601A9019307F049FA2200009925
:109840005E4805F0F1FD2A0029005D48009505F00D
:10985000EBFD2A003C215B4805F0E6FD29002200D3
:10986000594805F0E1FD594922005948009105F099
:10987000C3FD584922005848009105F0D5FD5749CD
:1098800022005748009105F0CFFD2A0031005548CD
:10989000009605F0C9FDAF2122000902524800914F
:1098A00005F0C2FD514922005148009105F0BCFD70
:1098B00085202A003100C001009605F0B5FDAF22D9
:1098C000AF2112010092090102224A4805F0ACFDC5
:1098D0001D4B022219004848009305F0A5FD2321E5
:1098E00002224648009105F09FFD310002224448C3
:1098F000009605F099FD434922004348009105F088
:1099000093FD424902224248009105F08DFD4149F4
:1099100022004148009105F087FDFA210222C9008A
:109920003E48009105F080FD3D4922003D480091F0
:1099300005F07AFD32212A003B48009105F074FDC4
:10994000F7BDC04608420000420E00000C42000075
:10995000DE0D00001042000014420000184200001A
:10996000540B00001C420000980800002042000038
:1099700024420000A015FFFF284200002C420000F6
:109980003075000030420000344200002602000022
:109990009CFF000038420000CEFF00003C42000067
:1099A0004042000044420000484200004C42000097
:1099B00050420000544200000000C84258420000DB
:1099C0005C4200006042000064420000002A7515FD
:1099D0006842000020E400006C420000E0DD00006E
:1099E00070420000744200007842000040B5000060
:1099F0007C42000084420000884200008C4200004B
:109A000090420000C0D401009442000010270000E2
:109A10009842000080C7FEFF9C420000A042000068
:109A200020DF0000A4420000A8420000F7B56B460A
:109A30000027991D23489F71DF7105F0C7FC6B4615
:109A40002148D91D05F0C2FC6B46DD791F4E012D62
:109A500024D19C79022C0CD12000FFF7BDFB35707E
:109A6000C04618482A00290005F0C6FC184B1D7096
:109A7000F7BD012C09D122002100124805F0BCFCE1
:109A80002000FFF7A9FB3470F2E7124B1C70FFF7C0
:109A900045FE0220FFF7A0FB3770E9E7FFF73EFE27
:109AA00001220948110005F0A7FC01220548110018
:109AB00005F0A2FC0123064A022033701370FFF761
:109AC0008BFBD5E77C4000002C40000030FEFF1FE0
:109AD000E10F0020D00D0020002313B5064C01A992
:109AE0002000019305F05CFC019904220131200063
:109AF000019105F081FC13BD20400000002313B547
:109B0000064C01A92000019305F04AFC01990422AA
:109B100001312000019105F06FFC13BDA040000051
:109B200070B515000E1C042201000E4805F064FCFF
:109B30000422040031000C4805F05EFC04220443BA
:109B400029000A4805F058FCE4B22043C0B20028BE
:109B500004D104220721064805F04EFC431E98411B
:109B6000C0B270BD68420000084000000C40000018
:109B70000440000030B5002587B0040001A9214849
:109B8000019505F00DFC019B022B10D81E4A210007
:109B90009B189800042205F02FFC04220199013142
:109BA0000191184805F028FC012007B030BD03A939
:109BB0001648029503950495059505F0F1FB04A957
:109BC000134805F0EDFB05A9124805F0E9FB02A9D1
:109BD0000F4805F0E5FB042202990C4805F00CFC47
:109BE00002A90C4805F0DCFB04220299084805F0A4
:109BF00003FC04222100074805F0FEFB0422019922
:109C0000CFE7C0463C4000000C1000003040000090
:109C1000344000003840000013B5041E15D0FFF793
:109C2000A9FF012811D10F2C10D90A4B1C1B0023AE
:109C3000A40001A92000019305F0B2FB01990422C0
:109C400001312000019105F0D7FB13BD024BE41850
:109C5000EDE7C0468E1000000F10000007B56A4601
:109C6000FF230748D11DD37105F0B0FB6B46DB79AC
:109C7000002B04D101229621014805F0BDFB07BD50
:109C8000E440000007B56A46FF230748D11DD371A1
:109C900005F09CFB6B46DB79002B04D10122692186
:109CA000014805F0A9FB07BDE840000013B50023FB
:109CB0006A4603700400D11D0748D37105F086FB86
:109CC0006B46DB79BD2B03D1002801D1BC3B23704F
:109CD000431E9841C0B216BDF440000007B56A4665
:109CE000FF230A48D11DD37105F070FB6B46DB7969
:109CF0000343DBB2002B04D10122BD21034805F050
:109D00007BFB431E9841C0B20EBDC046F44000002C
:109D100007B5094B01A90948019305F041FB002152
:109D2000884207D1019B072B04D10422034805F088
:109D300063FB012108000EBDFFFF0000044000008E
:109D400007B5044B044801A9019305F029FB0198CC
:109D50000EBDC046FFFF000008400000002307B50D
:109D6000034801A9019305F01BFB019880B20EBDC9
:109D70000C40000037B50125040069460E486D42CD
:109D8000009505F00DFB009B002B0DD10422210056
:109D9000094805F031FB084801A9019505F000FBD1
:109DA000019B9C4201D1C04637BD042221000248DC
:109DB00005F022FBF8E7C046EC4000000120014B13
:109DC00018707047AC0E00200120014B18707047CE
:109DD000AB0E00200120014B18707047AA0E002026
:109DE0000120014B18707047A90E002010B503F038
:109DF0007FFA431E9841C0B210BD0000002337B562
:109E0000050001A90648019305F0CAFA0400631E83
:109E10009C412800042201A912F02AFDE0B23EBDB7
:109E200010400000002337B5050001A90648019342
:109E300005F0B6FA0400631E9C412800042201A923
:109E400012F016FDE0B23EBD14400000002337B50D
:109E5000050001A90648019305F0A2FA0400631E5B
:109E60009C412800042201A912F002FDE0B23EBD8F
:109E70006C410000002337B5050001A90648019395
:109E800005F08EFA0400631E9C412800042201A9FB
:109E900012F0EEFCE0B23EBD70410000002337B589
:109EA000050001A90648019305F07AFA0400631E33
:109EB0009C412800042201A912F0DAFCE0B23EBD68
:109EC00018400000002337B5050001A9064801939A
:109ED00005F066FA0400631E9C412800042201A9D3
:109EE00012F0C6FCE0B23EBD1C40000010B5011CE3
:109EF0000422024805F080FA10BDC0461040000060
:109F000010B5011C0422024805F076FA10BDC046C7
:109F10001440000010B5011C0422024805F06CFA40
:109F200010BDC0466C41000010B5011C042202485F
:109F300005F062FA10BDC0467041000010B5011C6A
:109F40000422024805F058FA10BDC0461C4000002B
:109F500010B5011C0422024805F04EFA10BDC0469F
:109F6000184000002A4BF7B51B782A4CDEB2002BB4
:109F700003D0294B23602068FEBD28490096019636
:109F800010F068F90FF0F4FC254F05003B78002B2A
:109F900010D001A9234805F003FA234B019818605B
:109FA00010F0A6FC21680FF0E5FD1C490FF06CFFD6
:109FB0003E7020601D4E1E48310005F0F1F91D4F26
:109FC00030686946C019800005F0EAF93068290058
:109FD000C01904228000009505F00EFA164B206887
:109FE000196B0FF051FF154F051C291C3868144ED2
:109FF000F7F720F80028BED13D603868114910F00D
:10A0000029F90FF0B5FC6C3680B23080B3E7C0465A
:10A01000E20F0020D80D00200000C84200BA5B4AC1
:10A0200031FEFF1FB0400000D40D0020DC0D0020E9
:10A03000AC4000002C100000140E0020840F002003
:10A04000F80E00200000A04510B500F0C9FA10BDC0
:10A0500010B500F0CFFA10BD002313B5040001A91C
:10A060000548019305F09CF9019B5A1E934123700A
:10A07000431E9841C0B216BDF8400000010010B563
:10A080000422034805F0B8F9431E9841C0B210BD40
:10A09000F840000073B5002601A91B48019605F0A1
:10A0A0007FF90199042201311748019105F0A4F9C3
:10A0B0000121164806F02CFD300001F049FA050098
:10A0C0000400B0421AD0300001F064FA01230322E8
:10A0D0000E490F4806F008FE320003210B4806F037
:10A0E00013FD300001F08CFA0400B04200D02C00C7
:10A0F000002303220549064806F0F6FD0121034826
:10A1000006F00BFD200076BD2840000080F00F40D7
:10A1100000B0044070B5FA240EF03AFD2B4A01213C
:10A1200005F0BAF92A4968200EF020FE294D6A2070
:10A1300029000EF01BFE6400002001F0D7F920007A
:10A1400006F0D6FC01200EF0DBFDC046200006F034
:10A15000CFFC00200EF0D4FD200006F0C9FC1E4903
:10A1600068200EF003FE29006A200EF0FFFD1B4D53
:10A1700001200EF0C5FD200006F0BAFC00220221ED
:10A18000280006F0C1FCC046200006F0B1FC06F035
:10A1900049FD28000E2106F0C0FC114911480FF0BE
:10A1A00031FA0EF0F5FC104B010018000FF02AFAFE
:10A1B0000E480FF027FA0E480FF024FAFA2080001C
:10A1C0000EF0D8FC07F06CFA70BDC046E20F00201C
:10A1D000EBC8010007CA0100FBC8010080F00F4076
:10A1E0002ACA0100A0C80100ADC80100C5C801000D
:10A1F000C4C8010010B5002000F0CEFF10BD000063
:10A2000010B510220020024900F0DAFF10BDC04650
:10A210003C0F002010B5002168200EF0D7FD012171
:10A220006A200EF0D3FD10BD10B500200EF068FDC1
:10A2300010BD10B501200EF063FDFFF7EBFF10BD60
:10A2400010B50C00010068200EF090FD21006A207E
:10A250000EF05EFD10BD10B506F0E4FC10BD10B5AB
:10A2600006F0E4FC10BD000013B5002420000194AA
:10A27000FEF7F2FE2000FEF7CBFE0EF089FC040094
:10A280000EF086FC001BFA2841D8FEF743FC204A5A
:10A29000204B1278002AF3D1A2331B78002BEFD188
:10A2A0000EF076FC0122040011001B4805F0A4F812
:10A2B000832001A9C00105F073F8832001990422CD
:10A2C0000131C001019105F097F8144A01212000E5
:10A2D00005F0E2F806F0A6FC0E21114806F01DFC80
:10A2E000104911480FF08EF90EF052FC0F4B01008F
:10A2F00018000FF087F90E480FF084F90D480FF0A1
:10A3000081F9FA2080000EF035FC07F0C9F913BD81
:10A310009B0F0020F80E002098410000E20F002063
:10A3200080F00F401BCA0100A0C80100ADC80100A9
:10A33000C5C80100C4C80100002303700B4B10B551
:10A340000B4ADC68944209D98622DC68D201944227
:10A3500004D8DC68944202D80123037010BDDB6886
:10A360009342FBD90029F7D0F8E7C046B00E002091
:10A370000340000070B5002401210500FFF7DCFF59
:10A38000A5420BD170BDD868195D2018C9B205F07F
:10A3900067F84342584101342870E4B2024B1A89ED
:10A3A0009442F0D3EEE7C046B00E002037B500244B
:10A3B00000210500FFF7C0FFA5420DD137BD6A4659
:10A3C0000023E868D11D2018D37104F0FFFF6B460D
:10A3D000DB792B550134E4B2024D2B899C42EED33C
:10A3E000ECE7C046B00E002070B505000024602CDC
:10A3F00004D10A490A4804F0E9FF053409490A4B27
:10A400006118E018013404F0E1FFA42CEFD102221E
:10A41000064B5A7101232B7070BDC046ED1200200F
:10A420006C4200008912002008420000D00E00207B
:10A4300010B501000122024804F0DEFF10BDC04645
:10A440007C40000010B506F0EDFB0E21104806F030
:10A4500064FB104910480FF0D5F80EF099FB0F4B34
:10A46000010018000FF0CEF80D480FF0CBF80D48A2
:10A470000FF0C8F80EF08CFB01210B4A05F00CF828
:10A48000FA2080000EF076FB07F00AF910BDC046F6
:10A4900080F00F4009CA0100A0C80100ADC801004A
:10A4A000C5C80100C4C80100E20F0020002807D180
:10A4B000054A1378002B03D00121044B197010704A
:10A4C000034B18707047C04688120020A80E002069
:10A4D000D00E0020014B58707047C046D00E0020AF
:10A4E000014B98707047C046D00E0020014BD870C9
:10A4F0007047C046D00E0020014B18717047C0460F
:10A50000D00E0020014B58717047C046D00E00207D
:10A510000F22084B5A709A70DA701A715A71064AF3
:10A520001378002B04D00121044B19700023137001
:10A530007047C046D00E002088120020A80E0020D0
:10A540005A2110B541430422034804F055FF431E2D
:10A550009841C0B210BDC04678410000002313B539
:10A560000370040001A90748019304F019FF019B3F
:10A570005A2B03D1002801D1593B2370431E984127
:10A58000C0B216BD78410000002313B5037004006B
:10A5900001A90748019304F003FF019B102B03D18D
:10A5A000002801D10F3B2370431E9841C0B216BD55
:10A5B00084410000002313B50370040001A907487B
:10A5C000019304F0EDFE019B112B03D1002801D172
:10A5D000103B2370431E9841C0B216BD8841000055
:10A5E00010B50121024806F09DFAC0B210BDC04668
:10A5F00040F00F4010B50021024806F093FAC0B2B7
:10A6000010BDC04640F00F40102110B5002803D007
:10A61000034806F07DFA10BD014806F07EFAFAE71D
:10A6200080F00F4010B502F05FFCC0B210BD00001A
:10A63000F7B50F001100C12201931202904250D0D1
:10A640000132FF32904200D16AE0C02212029042F1
:10A650002ED1434A127952B2012A29D1414A1278A5
:10A66000012A25D1232F23D13F4E3478042C1BD827
:10A6700048780A78000210438A780D791204024360
:10A68000C878000610434A7912022A438D792D04B6
:10A690001543CA79354912062A434D68854208D1C7
:10A6A0008968914205D1C046314A1378013313704D
:10A6B000FEBD304D00212F002B68834202D16B6814
:10A6C0009A42F0D00131C9B208358C42F4D2E5008B
:10A6D00078517D196A600122019B013434701A702F
:10A6E000E2E71F4B1B795BB2052BE1D11D4B1B78B9
:10A6F000022BDDD1204B1D78012DD9D13B001C262A
:10A70000233B5E43194C335DBB42D1D13000103046
:10A7100008220019A41912F0ABF82576C046C7E745
:10A72000104B1B78022BC3D1134B1B78002BBFD1CE
:10A730000B78022BBCD8114C1149124823700EF033
:10A7400061FF0EF025FA104B010018000EF05AFFC1
:10A7500021780E480EF056FF0D480EF053FFA7E784
:10A7600050FEFF1FBD100020B4100020E40F002099
:10A77000B51000208C100020BE10002058FEFF1FD6
:10A7800086CA0100A0C80100ADC8010073CA01005B
:10A79000C4C80100024A136801331360C046704701
:10A7A000B8100020014B18787047C046BD1000203B
:10A7B000014B18787047C046BC10002070B50500EA
:10A7C00008001900012D0AD106F0C2F94442E4B292
:10A7D000002C02D00122054B1A70200070BD062407
:10A7E000002DFAD106F0DEF9F0E7C046A41C0020E7
:10A7F00070B5050008001100012D21D1049A06F062
:10A80000B3F94442E4B2002C38D01F4A0521536802
:10A810001E48013353602A0006F076F90A2006F03C
:10A8200067F900220521194806F06EF9164BAD00B4
:10A83000EB58042B02D90122154B1A70200070BD71
:10A840000624002DFAD1049A06F0B8F94442E4B285
:10A85000002C13D00C4A022113680E4801331360F8
:10A860000D4A136801331360012206F04DF90A20E6
:10A8700006F03EF92A0002210648D5E70024024BE3
:10A88000AD00EC50DAE7C046C4100020C0F00F4025
:10A89000A41C002040F00F40C0100020030010B5A1
:10A8A00008000121002B04D006F048F94042C0B254
:10A8B00010BD06F06DF9F9E710B506F025F910BDE9
:10A8C00010B506F015F910BD10B506F015F910BD5C
:10A8D0007047000070B504000748210002F0F2F84C
:10A8E000050002208443902C03D1FFF7E9FF2800E4
:10A8F00070BD0120F9E7C04624110020062310B5E1
:10A90000002802D1FFF7CAFF0300180010BD0000A5
:10A91000030010B50620002B11D1094B1B78002B2A
:10A920000DD00F290BD807488388013B8B4200D1FB
:10A930000F210A31C9B24900C9B202F03BF810BD7B
:10A94000211100202411002013B503000C00062063
:10A95000002B0FD1084A1278002A0BD06A46342106
:10A96000D3800648063202F025F86B46DA880A23BF
:10A970005343236016BDC04621110020241100203E
:10A9800013B503000C000620002B0FD1084A1278E3
:10A99000002A0BD06A463621D3800648063202F0E0
:10A9A00009F86B46DA880A235343236016BDC04674
:10A9B000211100202411002013B503000C000620F3
:10A9C000002B0FD1084A1278002A0BD06A46382192
:10A9D000D3800648063201F0EDFF6B46DA880A2381
:10A9E0005343236016BDC0462111002024110020CE
:10A9F00003000A00062010B5002B07D1044B1B787A
:10AA0000002B03D03A21034801F0FEFF10BDC046E1
:10AA1000211100202411002003000A00062010B597
:10AA2000002B07D1044B1B78002B03D016210348C1
:10AA300001F0EAFF10BDC0462111002024110020C2
:10AA400013B503000C000620002B12D10949097828
:10AA500000290ED0092A0CD86946CB806B465100DC
:10AA600068319A1D0448C9B201F0B9FF6B46DB8812
:10AA7000238016BD2111002024110020F0B5030011
:10AA800085B00620002B00D081E0424A1278002ACF
:10AA90007DD002AA4048911DD38001F025FF0028F7
:10AAA00075D102ABDA88012115003C4B0D401C78B2
:10AAB00002268C432C4355080D408D401C701C7899
:10AAC0000427B4432C4395080D40B5401C701C78F6
:10AAD0000636BC432C431C701C78D5080D40ED0095
:10AAE000B4432C4315090D40BD401C701C7808363A
:10AAF000B4432C431C701C7855090D4010366D0171
:10AB0000B4432C431C701C7895090D402036AD01D0
:10AB1000B4432C431C701C78D5090D403F36ED0121
:10AB200034402C431C700324A4465C78150A00941E
:10AB3000644625400195009DA5432C00019D2C43B2
:10AB40005C705C78950A0D40AD00BC432C435C7092
:10AB50005C78D50A0D40FF19ED00BC432C435C70B6
:10AB60005C78150B0D4008372D01BC432C435C70FD
:10AB70005C78550B0D4010376D01BC432C435C7065
:10AB8000D20B0A405978D20131400A435A7005B0BD
:10AB9000F0BDC04621110020241100201F1100200B
:10ABA00073B503000D00002811D1254A1278002A40
:10ABB0000DD06A46D41D20700A002248210001F001
:10ABC0004BFE002804D1002D03D0012D05D0062016
:10ABD00076BD1D4B22781A70FAE7042624781B4BA9
:10ABE000A1081A7829408900B2430A431A701A78DA
:10ABF000E108B6192940C900B2430A431A701A780D
:10AC00002109083629400901B2430A431A701A780B
:10AC10006109103629404901B2430A431A701A7873
:10AC2000A109294020368901B2430A437F211A70C5
:10AC30001A78E4092C40E4010A402243CBE7C046DD
:10AC400021110020241100201E1100201D110020C0
:10AC500073B50D00002812D1284B1B78002B0ED0A5
:10AC60006B46DC1D0A00207001232100244801F0FE
:10AC7000F3FD002804D1002D03D0012D05D00620BE
:10AC800076BD204B22781A70FAE72478022621003C
:10AC90001D4B29401A78AA430A431A701A78610892
:10ACA00029404900B2430A43A1082940B1401A7023
:10ACB0001A78B619B2430A4321092940B1401A70E3
:10ACC0001A780C36B2430A431A701A7861091036A2
:10ACD00029404901B2430A431A701A78A109294050
:10ACE00020368901B2430A437F211A701A78E40999
:10ACF0002C40E4010A402243C5E7C0462111002050
:10AD0000241100201C1100201B11002073B50C0021
:10AD1000002812D11D4B1B78002B0ED06B46DD1D79
:10AD20000A00287002232900194801F095FD002827
:10AD300004D1002C03D0012C05D0062076BD154B84
:10AD40002A781A70FAE710262B78134A1D09117811
:10AD500025402D01B143294311701178DD092540AB
:10AD60006F36ED01314029435D099B0925402340A1
:10AD70004024117011785F3E6D01B1432943117079
:10AD800011789B01A1430B431370D7E721110020D9
:10AD900024110020191100201A110020030073B59E
:10ADA0000620002B45D1234A1278002A41D06A465A
:10ADB0002148D11DD37101F0E9FD002839D16B463E
:10ADC000DA79012115001D4B0D401C7802268C43B9
:10ADD0002C4355080D408D401C701C78B4432C4307
:10ADE00095080D40B5401C701C78B619B4432C432F
:10ADF0001C701C78D5080D400436ED00B4432C437C
:10AE00001C701C7815090D4008362D01B4432C43E5
:10AE10001C701C7855090D4010366D01B4432C434D
:10AE20001C701C7892090A403F3192018C432243E6
:10AE30001A7076BD2111002024110020121100206B
:10AE4000F0B585B00CAC247807000AA8019400780E
:10AE50000624002F42D1033C01293FD8102B3DD8B6
:10AE60000334082A3AD14D4DAA702A00AB804C4BCE
:10AE70002F80E970083252CB52C252CB52C252CB11
:10AE800052C21B6803AE13602B00303318700B984E
:10AE900011F00AFC02000B004248434910F0CEF8C2
:10AEA00011F04AFC68633800FFF7E8FD0223320026
:10AEB00005212800378001F00AFE727833781202EB
:10AEC0009B182B87394B902000930123009A137015
:10AED000FFF700FD041E04D0009B1F70200005B08A
:10AEE000F0BD280000F0DEFD041EF5D1280000F0C2
:10AEF00013FF041EF0D1280000F0D8FF041EEBD190
:10AF0000280001F021F8041EE6D1280001F09EF887
:10AF1000041E03D00022254B1A70DFE728002449C5
:10AF200001F028F90400071EF4D1280001F02AFCE2
:10AF3000041E009001D01D4BCFE79220FFF7CAFC02
:10AF40000400071E02D0194B009AE5E79520FFF791
:10AF5000C1FC2000FFF722FF041EECD13080022349
:10AF600032000521280001F0B2FD041EB6D172782E
:10AF7000337812029B189BB20D9A2B87128893424A
:10AF800006D0002A02D0019A012A04D10D9A13801A
:10AF90000122064BC0E70124A0E7C046241100208F
:10AFA000A8CA010063EE5A423EE81D40211100206C
:10AFB000C8100020F7B50D00002815D14E4B1B78A6
:10AFC000002B11D0C0466B460A00D880991D4B4813
:10AFD00001F09DFC041E08D1012D00D182E0022D5C
:10AFE00000D186E0002D02D006242000FEBD6B4675
:10AFF000DA8801211500424B0D401878022688435B
:10B00000284355080D408D40187018780827B04324
:10B01000284395080D40B54018701878B446B61905
:10B02000B043284318701878D5080D40ED00B84398
:10B03000284315090D40B54018701878FF19B8431A
:10B0400028431870187855090D4010376D01B84322
:10B0500028431870187895090D402037AD01B84382
:10B06000284318701878D5090D407B36ED01304023
:10B070002843550A66460D408D4018705878B043F5
:10B080002843950A0D40B54058705878B619B0431A
:10B09000284358705878D50A0D400436ED00B04367
:10B0A000284358705878150B0D4008362D01B043D1
:10B0B000284358705878550B0D4010366D01B04339
:10B0C000284358705878950B0D40AD01B84328437C
:10B0D00058707F20D20B0A405978D20101400A43B0
:10B0E0005A7082E7022207486B46991D11F0C0FB97
:10B0F0007BE72A000448F7E72111002024110020F3
:10B100001711002015110020131100201FB5030096
:10B110000620002B10D1094B1B78002B0CD00123EB
:10B1200093406A469BB21218138003AA1380044806
:10B130000A00039901F010FC05B000BD21110020A8
:10B140002411002070B5010088B0062000291AD112
:10B150000E4B1B78002B16D06C461C2201A80091C8
:10B1600011F076FB202322007521094801F0AFFC85
:10B17000002808D1074922000B0070CA70C332CAE8
:10B1800032C312CA12C308B070BDC04621110020DC
:10B1900024110020F0100020020010B50620002A23
:10B1A00008D1054B1B78002B04D0022383210348D0
:10B1B00001F096FC10BDC046211100202411002092
:10B1C000030070B506201500002B07D10D4A1800AA
:10B1D00014786E1E1A00002C08D1063070BD0B5C6E
:10B1E000B0420CD1DB031A4392B20130C3B2AB427E
:10B1F000F5D302238321044801F072FCEEE783407B
:10B20000F1E7C046211100202411002070B515007F
:10B2100004AA060014780620002E10D1084A1278DD
:10B22000002A0CD0620089002A430A43DB001A433B
:10B2300052B201239721034892B201F051FC70BD34
:10B24000211100202411002030B5062485B00028EB
:10B2500019D10E4B1B78002B15D003AD288002238B
:10B260002A0057210A4801F032FC041E0AD16A78EC
:10B270002B7812029B186A460648911D0B80022209
:10B2800011F0F6FAC046200005B030BD21110020B3
:10B290002411002010110020F7B505000E00062033
:10B2A000002D25D13B4B1B78002B21D02800FFF728
:10B2B00075FD2800FFF7C8FF374B04001B78DA063E
:10B2C000D70F002A4FDA002E13D19320FFF702FB8D
:10B2D000041E08D1FFF762FD041E04D13A000721C5
:10B2E0002E48FFF7E9FA0020FFF758FD2043C0B2CF
:10B2F000FEBD2800FFF752FD2A00060004000721CA
:10B300002648FFF7D9FA2800FFF748FD002821D189
:10B31000234D2B782B782B782B782B782B782B7848
:10B3200029782B782A78C9079B071207D20FC90FF3
:10B33000DB0F7B407940574000970200FFF766FF24
:10B34000002807D1FFF72AFD002803D12B785B07DF
:10B3500000D5C046C046002EC5D13000FFF71EFD07
:10B360000400C046BFE70E4D2A785207D20FB24202
:10B37000B9D05B07DB0FB342B5D02020FFF7AAFAA4
:10B380002B7804001B07AED42220FFF7A3FA040099
:10B39000A9E7C046211100201011002000F00F4045
:10B3A00012110020F0B505000F00062087B0002D17
:10B3B00021D14A4B1B78002B1DD02800FFF7EEFC53
:10B3C0002800FFF741FF464B04001B78DA06D60F32
:10B3D000002A00DB69E0002F0FD19420FFF77AFAF2
:10B3E0003200040008213F48FFF766FA0020FFF70B
:10B3F000D5FC2043C0B207B0F0BD2800FFF7CEFC5B
:10B400002A0008213748FFF757FA2800FFF7C6FC43
:10B41000041E02D0FFF758FA42E0334D2B782A7809
:10B420002B782F780393287829782B789207049328
:10B430000423D20F520032430592039A1A4013009C
:10B44000059A13430822174092183B4310401843B3
:10B450002023049A1940DB181340014319437F232A
:10B4600037002A7819402B782878520700079B0765
:10B47000C00F7040D20FDB0F8F43009039002000C7
:10B4800073407240FFF7C2FE041EC3D1FFF786FC73
:10B49000041EBFD12B78DB0704D4FFF715FA340064
:10B4A000C046A3E7FFF710FAA0E70F4D2A78D207AE
:10B4B000D20FBA429AD09B07DB0FBB4200D195E76F
:10B4C0001F20FFF707FA2B7804001B0700D58DE734
:10B4D0002220FFF7FFF9040088E7C0462111002071
:10B4E0001011002080F00F4012110020F8B5051E49
:10B4F00027D11020FFF7EEF9002802D11030FFF716
:10B50000E9F9FFF7E1F906000F4F0020B978FFF7DE
:10B51000C5F90400012806D0FFF7D6F9FA23801BED
:10B520009B009842F1D3FFF7CFF9C046002C03D11E
:10B53000C04601252800F8BDC0460022034B1A7002
:10B54000F8E70625F6E7C046241100202111002067
:10B5500010B504000620002C16D1012202210B4850
:10B56000FFF7AAF96420FFF7ABF922000221074890
:10B57000FFF7A2F996204000FFF7A2F9044B200044
:10B580009978FFF78BF9C04610BDC04640F00F40D8
:10B5900024110020F8B5041E28D1012202211548EB
:10B5A000FFF78AF99620C000FFF78AF922000221EE
:10B5B0001048FFF781F9FFF787F906000E4F0020CA
:10B5C000B978FFF76BF90500012806D0FFF77CF981
:10B5D000FA23801B9B009842F1D3FFF775F9002DE9
:10B5E00006D00022054B1A702000F8BD0624FBE7A8
:10B5F0000124F9E740F00F40241100202111002020
:10B6000070B505000624002828D101220321144822
:10B61000FFF752F9C820FFF753F92A000321104819
:10B62000FFF74AF996204000FFF74AF90821280061
:10B63000FFF734F90400C0460A490B480DF0E2FF59
:10B640000DF0A6FA094B010018000DF0DBFF2100F8
:10B6500007480DF0D7FF07480DF0D4FF200070BD5C
:10B6600080F00F409BCA0100A0C80100ADC80100D6
:10B6700071C90100C4C8010000234118884202D1E9
:10B68000D843C0B27047027801309B18DBB2F5E7AF
:10B6900003004118002010B5034A1C7801336040B4
:10B6A000105C8B42F9D110BDD0CA0100F0B597B043
:10B6B00003900B20150002931CAB1E7804AB3D22B7
:10B6C0000191C018002111F0C3F8019B05A85B008F
:10B6D0000370029B06AC1B780321457025708370B4
:10B6E0006370FFF7D5FF27000125A0700237AE4237
:10B6F0000CD872000132230001990398D2B2FFF7EF
:10B700005DF8002800D0C04617B0F0BD029B04AA27
:10B710005B5D01217B70D01CD370FFF7B9FF013551
:10B72000B870E3E7F0B500240F001600A9B0059348
:10B730002EAB1B783C222100049009A803930894A7
:10B7400011F086F83C22210019A8189411F080F815
:10B7500004ABDC72039B18AD5B0032003900049827
:10B76000DBB20095FFF744F8A0421ED107A846704F
:10B7700001267F000770374387702F780421C77038
:10B78000FFF786FF6C78241A631E9C4104AB1F747C
:10B790003700039BB3420AD81A00631E9C410598E8
:10B7A00008A911F065F86042C0B229B0F0BD1021BF
:10B7B000AB7804AA5218935504AAD3720B239B1892
:10B7C00018003900FFF764FFEB7801361B1A5A1E88
:10B7D00093410235E418DCE7F0B58BB00591049392
:10B7E0004378040017000220002B31D12278A6787C
:10B7F00008AC2F4903922000062207AD2B8011F0E0
:10B8000037F8059B01202380A770FFF759F8049BA8
:10B81000022B1FD0042B32D003200700012B17D19D
:10B82000009023003E2231000398FFF73FFF0028DD
:10B830000ED139002000FFF71FFF052328706B7021
:10B84000033B009360222B0031000398FFF72EFF8B
:10B850000BB0F0BD3F0AE770042723003E22310001
:10B8600003980097FFF722FF0028F1D1390020004C
:10B87000FFF702FF062328706B70049BE1E73B0A89
:10B88000E3703B0C237106233F0E67713E22009349
:10B89000310023000398FFF709FF0028D8D10621C3
:10B8A0002000FFF7E9FE082328706B70063BC8E70D
:10B8B0009AC801001FB50A00417803000220002940
:10B8C00008D11C78997803AB1A8000903E222000A2
:10B8D000FFF7ECFE04B010BDF0B58FB01D0014AB47
:10B8E000059204CB04001B780E000993431E984177
:10B8F000C0B20892FEF7ECFF63780227002B41D11B
:10B900000BAA1380A2780D93039222780CAC2380AB
:10B91000F3B20693330A079308AB04929E82012D7B
:10B9200040D0BD425BD00137002D2BD102263E22F4
:10B930000399049800960DABFFF7B8FE071E21D1BE
:10B94000FEF7C2FF05900BAC23003E22039904983A
:10B950000096FFF7E7FE05000700FEF7B5FF059B21
:10B96000C01A05280ED82378FF2B02D16278FF2A4F
:10B97000E9D0069A9A4208D16378079A934204D193
:10B98000002D05D038000FB0F0BDC0460127F9E703
:10B99000099B402200930399089B0498FFF7C2FE7D
:10B9A0000700EFE70325059A08AB9A7503993E2235
:10B9B000049800950DABFFF779FE071EE2D1290030
:10B9C0000DA8FFF759FE05236370033B2070009319
:10B9D0002300602203990498FFF768FEE0E704263D
:10B9E000059A08ABDA8203993E22049800960DABC3
:10B9F000FFF75CFE071EC5D131000DA8FFF73CFE26
:10BA00000623207063700095E2E7F0B587B01E0052
:10BA10000CAB029204CB04001F78431E9841C0B2C5
:10BA20000D000392FEF754FF63780220002B09D12A
:10BA3000029A05ABA17820781A80002E04D0012E3E
:10BA400008D0032007B0F0BD2A00039B0097FFF742
:10BA500069FEF7E72A000097FFF728FEF2E770B5C6
:10BA60001D1C14000E000EF0F7FE291C0EF00CFA3F
:10BA70000DF02CFF051C20000EF0EEFE291CF5F742
:10BA8000DFFA00280CD130000EF0E6FE291CF5F795
:10BA9000EBFA3400002803D1281C0EF0BDFE040090
:10BAA000200070BD0300F0B530331B7804008FB068
:10BAB000012B00D1ABE0022B00D1C3E00220002B10
:10BAC00000D0F6E0C8207C4B7C4D09937C4B0C9554
:10BAD0000A937C4BC0010B9304AA09AB1882C2CB1A
:10BAE000C2C26423156007250F26FD2790800293AC
:10BAF000593B0195039323000A2231331A7004AB9A
:10BB00001A88200002237049FFF766FE00287CD1C6
:10BB100001233A0020006D49FFF75EFE002874D132
:10BB2000012320001A006A49FFF756FE00286CD155
:10BB30000200012320006749FFF74EFE002864D170
:10BB40000123022220006449FFF746FE00285CD151
:10BB50000123022220006149FFF73EFE002854D154
:10BB600001232000039A5E49FFF736FE00284CD1DE
:10BB700001232000019A5B49FFF72EFE002844D1E3
:10BB80000200012320005849FFF726FE00283CD17F
:10BB90000123072220005549FFF71EFE002834D15B
:10BBA00093210123072220000902FFF715FE002838
:10BBB0002BD101232A0020004D49FFF70DFE00285C
:10BBC00023D10123320020004A49FFF705FE002857
:10BBD0001BD10123062220004749FFF7FDFD002865
:10BBE00013D1A388102B62D845D102000E3B200050
:10BBF0004249FFF7F1FD002807D101232000029AF6
:10BC00003F49FFF7E9FD002853D00FB0F0BDA02059
:10BC10003C4B3D4D09933D4B0C950A93294BC0007D
:10BC20000B9304AA09AB1882C2CBC2C205232A26F1
:10BC30001560908002930233019300233500039333
:10BC4000ED2758E7A0202F4B1C4D0993304B0C9546
:10BC50000A93304BC0000B9304AA09AB1882C2CBE5
:10BC6000C2C20523156007259080029306330F2674
:10BC700001930395E4E70320072BC6D91022DBB21A
:10BC8000591ED31A00221000C9B2DBB206000125EA
:10BC9000002E09D15219013092B28342F6DC8A405B
:10BCA000D243022392B2A2E76D00013EF0E70320E7
:10BCB000ABE7C046A9E7C0461004FD01070F060028
:10BCC0000002020B070007073492000036920000C2
:10BCD0003792000038920000FA920000FB920000B8
:10BCE000FC920000FD920000FE920000FF92000016
:10BCF00001930000029300000393000004930000EE
:10BD0000079300001004ED012A2A06000002020039
:10BD1000000202070B00070730B5050089B00D22AD
:10BD20000021684610F094FD2B0030331B78012B66
:10BD300006D0022B00D198E00220002B00D091E029
:10BD40004B4B04934B4B04A905934B4B0D2206938D
:10BD5000752368460B7310F08BFD6B4628001A881C
:10BD600046490223FFF738FD002800D07BE06B46F0
:10BD70009B7804AC2080237028000123228840494E
:10BD8000FFF72AFD00286ED16B46DB7820802370F8
:10BD90002800012322883B49FFF71EFD002862D1BD
:10BDA0006B461B79208023702800012322883649A6
:10BDB000FFF712FD002856D16B465B792080237077
:10BDC0002800012322883149FFF706FD00284AD1C7
:10BDD0006B469B79208023702800012322882C4900
:10BDE000FFF7FAFC00283ED16B46DB7920802370F8
:10BDF0002800012322882749FFF7EEFC002832D1D2
:10BE00006B461B7A20802370280001232288224958
:10BE1000FFF7E2FC002826D16B465B7A2080237076
:10BE20002800012322881D49FFF7D6FC00281AD1DB
:10BE30006B469B7A208023702800012322881849B2
:10BE4000FFF7CAFC00280ED10B2102226944200012
:10BE500010F00EFD0223280022881249FFF7BCFCD7
:10BE6000002800D1C04609B030BD0F4B69E7C0467D
:10BE70000000FCF400989000E4A000305F92000005
:10BE800061920000629200006392000065920000DF
:10BE90006692000067920000699200006A920000BA
:10BEA0006B920000739200000000BCF4030070B5B8
:10BEB00030331B780400012B07D0022B02D0022064
:10BEC000002B33D101252D2201E000250D22012375
:10BED00020001749FFF780FC002828D101232A0001
:10BEE00020001449FFF778FC002820D1020002232B
:10BEF00020001149FFF770FC002818D1020002232E
:10BF000020000E49FFF768FC002810D101230A2207
:10BF100020000B49FFF760FC002808D101231922FB
:10BF200020000849FFF758FC002800D1C04670BD2A
:10BF300008930000099300000A9300000C9300008E
:10BF40000E9300000F930000030013B530331B78ED
:10BF50000400012B0CD0022B58D00220002B53D10F
:10BF60002E4B01AA13806A4613800123012105E0AC
:10BF70002B4A01A90A8069460A800021294AC90280
:10BF80000A431B031A436B4627491B8820000B40BA
:10BF90001A436B4625491A80022392B2FFF71CFC14
:10BFA000002832D1FA220223200021495200FFF753
:10BFB00013FC002829D1FA22022320001D49520037
:10BFC000FFF70AFC002820D10123052220001A498E
:10BFD000FFF702FC002818D1012310222000174986
:10BFE000FFF7FAFB002810D104232000626B1449EC
:10BFF000FFF7F2FB002808D10200012320001149BD
:10C00000FFF7EAFB002800D1C04616BD0E4B01AA7F
:10C0100013806A4613800023A8E7C04690DAFFFF2A
:10C0200090D2FFFF90C2FFFF6F2500006D920000CD
:10C03000109300001293000014930000439300003B
:10C04000A89100004492000090CAFFFF0300F7B5DA
:10C0500030331D780400012D09D0022D07D00220B5
:10C06000002D68D13C234626344F019303E050262F
:10C07000CE25334F01960123082220003149FFF7D6
:10C08000ABFB002858D101232A0020002E49FFF7DE
:10C09000A3FB002850D101232000019A2B49FFF770
:10C0A0009BFB002848D10123320020002849FFF7DC
:10C0B00093FB002840D10123142220002549FFF7DB
:10C0C0008BFB002838D10123082220002249FFF7EA
:10C0D00083FB002830D102233A0020001F49FFF7DC
:10C0E0007BFB002828D10123282220001C49FFF7D0
:10C0F00073FB002820D10123142220001949FFF7E7
:10C100006BFB002818D102233A0020001649FFF7E4
:10C1100063FB002810D10123282220001349FFF7D8
:10C120005BFB002808D10123142220001049FFF7EF
:10C1300053FB002800D1C046FEBDC0463C0F0000A6
:10C1400088130000359300003693000037930000F9
:10C1500038930000399300003A9300003B930000AD
:10C160003D9300003E9300003F9300004193000088
:10C1700042930000F0B54B1DDB7F05000C0091B031
:10C18000002B1DD1DB4B37220B80DB4B4B80DB4B75
:10C190008B80DB4BCB8096230B811E338B817833D6
:10C1A0004B81D84B0B6141238B82CA820F320A83A9
:10C1B0004B83533A4C3B8A83CB830A844B84C046DF
:10C1C000208850221421D04B80B2FFF748FC6788AA
:10C1D0000200BBB20093A388FF279BB20193E388C0
:10C1E00006009BB20293238928009BB203936389C4
:10C1F000C6499BB20493A3893A409BB20593236935
:10C2000006932B0031331B780793A38A1BB2089344
:10C21000E38A1BB20993238B1BB20A93638B1BB275
:10C220000B93A38B1BB20C93E38B1BB20D93238C4C
:10C230001BB20E93638C1BB20F930123FFF7CCFA52
:10C24000041E00D070E204232800B14AB149FFF770
:10C25000C3FA041E00D067E250221421AA4B0098B2
:10C26000FFF7FDFB821B01232800AB49D2B2FFF789
:10C27000B3FA041E00D057E26E221421A24B01989B
:10C28000FFF7EDFB0200060001232800A3493A4016
:10C29000FFF7A2FA041E00D046E2042328009C4ABD
:10C2A0009F49FFF799FA041E00D03DE26E22142147
:10C2B000954B0298FFF7D3FB321A012328009949C6
:10C2C000D2B2FFF789FA041E00D02DE203980EF0D7
:10C2D000C3FAFC2189050DF0BDFF0EF09DFA802305
:10C2E0003E220221DB05FFF7BAFB020001232800F2
:10C2F0008D493A40FFF770FA041E00D014E204237F
:10C30000592228008949FFF767FA041E00D00BE282
:10C310000200022328008649FFF75EFA041E00D0BF
:10C3200002E204980EF098FAFC2189050DF092FFC4
:10C330000EF072FA802364220221DB05FFF78FFBE7
:10C340000200012328007B493A40FFF745FA041E0A
:10C3500000D0E9E10423012228007749FFF73CFAE5
:10C36000041E00D0E0E105980EF076FAFC21890564
:10C370000DF070FF0EF050FA802364220221DB05DD
:10C38000FFF76DFB0123C2B26C492800FFF724FAC6
:10C39000041E00D0C8E10423772228006849FFF773
:10C3A0001BFA041E00D0BFE107980EF0A1FA22008C
:10C3B000031C64490698FFF752FB022302B262494C
:10C3C0002800FFF709FA041E00D0ADE10123280080
:10C3D0001A005E49FFF700FA041E00D0A4E1012311
:10C3E0000B2228005A49FFF7F7F9041E00D09BE101
:10C3F000012328001A005749FFF7EEF9041E00D068
:10C4000092E1012328001A005349FFF7E5F9041EC1
:10C4100000D089E10200022328005049FFF7DCF92F
:10C42000041E00D080E1FE232821782208989B0575
:10C430004942FFF714FB012342B249492800FFF7A4
:10C44000CBF9041E00D06FE10123042228004549E6
:10C45000FFF7C2F9041E00D066E1FE2328217822EE
:10C4600009989B054942FFF7FAFA012342B23E4977
:10C470002800FFF7B1F9041E00D055E1FE23282162
:10C4800078220A989B054942FFF7E9FA012342B254
:10C4900036492800FFF7A0F9041E00D044E101232B
:10C4A000042228003249FFF797F9041E00D03BE12F
:10C4B000FE23282178220B989B054942FFF7CFFAEB
:10C4C000012342B22B492800FFF786F9041E00D051
:10C4D0002AE101236E2228002749FFF77DF9041E77
:10C4E00000D021E10123032228002449FFF774F939
:10C4F000041E45E08C0A0000D70A0000A60E0000CA
:10C500008D0E000008DBFEFF66664A427592000051
:10C51000F7040000769200007B9200007892000001
:10C52000799200007C9200008092000081920000CD
:10C5300088920000829200008392000084920000A2
:10C54000859200000080FFFF8A9200008C9200001C
:10C550008692000087920000949200008D92000065
:10C560009A9200009B9200009C9200009D92000015
:10C570009E9200009F920000A0920000A1920000F5
:10C58000002C00D0D0E00123692228006849FFF781
:10C5900023F9041E00D0C7E0012355222800654975
:10C5A000FFF71AF9041E00D0BEE001230222280082
:10C5B0006149FFF711F9041E00D0B5E001235022B4
:10C5C00028005E49FFF708F9041E00D0ACE0FE2306
:10C5D000282178220C989B054942FFF740FA012355
:10C5E00042B257492800FFF7F7F8041E00D09BE03D
:10C5F0000123042228005349FFF7EEF8041E00D05F
:10C6000092E0FE23282178220D989B054942FFF7EE
:10C6100026FA012342B24C492800FFF7DDF8041E38
:10C6200000D081E0FE23282178220E989B05494204
:10C63000FFF715FA012342B244492800FFF7CCF86E
:10C64000041E71D10123042228004149FFF7C4F8D8
:10C65000041E69D1FE23282178220F989B054942A8
:10C66000FFF7FDF9012342B23A492800FFF7B4F879
:10C67000041E59D114220123280037495242FFF7E2
:10C68000ABF8041E50D10123022228003349FFF7E2
:10C69000A3F8041E48D10F2201232800304952423A
:10C6A000FFF79AF8041E3FD10123022228002D49EA
:10C6B000FFF792F8041E37D102233C2228002A49B2
:10C6C000FFF78AF8041E2FD1020001232800274912
:10C6D000FFF782F8041E27D10223012228002449F3
:10C6E000FFF77AF8041E1FD10223012228002149F6
:10C6F000FFF772F8041E17D10223FA2228001E4900
:10C70000FFF76AF8041E0FD1E122022328001B491B
:10C71000D200FFF761F8041E06D1022328001A0098
:10C720001749FFF759F80400200011B0F0BDC046CA
:10C73000A2920000A3920000A4920000A592000023
:10C74000A6920000A7920000A8920000A992000003
:10C75000AA920000AB920000AC920000AD920000E3
:10C76000AE920000AF920000B2920000B4920000BE
:10C77000B5920000B6920000BA920000BC92000090
:10C78000BE920000030010B52C331B780400022079
:10C79000002B4ED11E23E25E264903002000FFF746
:10C7A0001BF8002845D11C23E25E20000223224909
:10C7B000FFF712F800283CD11A23E25E2000022382
:10C7C0001E49FFF709F8002833D11823E25E200044
:10C7D00002231B49FFF700F800282AD11623E25E46
:10C7E000200002231749FEF7F7FF002821D1262356
:10C7F000E25E200002231449FEF7EEFF002818D164
:10C800002423E25E200002231049FEF7E5FF002802
:10C810000FD12223E25E200002230D49FEF7DCFF48
:10C82000002806D12023E25E200002230949FEF7FA
:10C83000D3FF10BDEA910000EC910000EE910000E2
:10C84000F0910000F2910000F4910000F6910000D8
:10C85000F8910000FA9100007FB50F250E0011003D
:10C8600000226D442A70012B1DD0022B2CD00624EF
:10C87000934203D1914204D001290FD0200004B08B
:10C8800070BD01230A0001930B0002210095FFF700
:10C89000BCF8041EF2D12B783370EFE701911A0037
:10C8A00003210095F3E7002903D0012907D00624CE
:10C8B000E4E70A00019300950B000421E7E70191EA
:10C8C000130005210095E2E7002906D00129EED1E9
:10C8D0000191130007210095D9E701230A00019374
:10C8E00000950B000621D2E70022022330B585B067
:10C8F00003AD2A800C000193122113000095FFF76D
:10C9000084F8002801D12B88238005B030BD7FB585
:10C910001300002203AD0E002A80012B11D0022B40
:10C9200015D00224934209D11A0062210194009586
:10C93000FFF76BF8041E01D12B883380200004B070
:10C9400070BD02236421019300951300F0E7019369
:10C95000662113000095EBE730B587B003AD298061
:10C96000002105AB1980023104008A430620002A09
:10C970000AD12A8810306844028001910093200077
:10C9800001236031FFF741F807B030BD30B50F2506
:10C990000022012385B06D442A700C0001937F2191
:10C9A00013000095FFF731F8002801D12B78237090
:10C9B00005B030BD30B502231500002285B003ACB0
:10C9C0002280019300941300FFF71FF8002804D180
:10C9D0006278237812029B182B8005B030BD30B5E9
:10C9E00002231500002285B003AC2280019300943D
:10C9F0001300FFF70AF8002804D1627823781202A6
:10CA00009B182B8005B030BDF0B500242C4D87B0AD
:10CA100002AB0391070016002100202228009C8110
:10CA20000FF016FF039B162B18D03A2B32D006209E
:10CA3000142B2DD1202322000193752123003800CF
:10CA40000095FEF749FF002822D16A7D2B7D120256
:10CA50001A433B0031331B7812B211E0202322002D
:10CA600001937521230038000095FEF735FF00285B
:10CA70000ED1EB7DAA7D1B02313713433A781BB2EE
:10CA8000534333606333C62B01D800233360002047
:10CA900007B0F0BD0223019305AB009322002300F1
:10CAA00038000399FEF7B1FF0028F1D102AB5B7BA0
:10CAB00002AA127B1B02D21831373B7812B2DFE791
:10CAC0006011002010B589B2FEF7F4FE10BD07B565
:10CAD00001930023009289B21A00FEF7FDFE0EBDFD
:10CAE00030B50F24002585B06C442570012B04D08F
:10CAF000022B02D0062005B030BD89B2019300940C
:10CB0000FEF7EAFEF7E7704770477047704700008E
:10CB1000034B1878012802D102480261197170474D
:10CB2000D00E0020B00E0020034B59619A61012203
:10CB3000024B5A717047C046B00E0020D00E002044
:10CB400010B50CF025F801F0A3FE0122014B1A707C
:10CB500010BDC046A80E0020C02310B51B0298428D
:10CB600001D1FDF717FE10BD692801D0542804D16A
:10CB70000322064B802901D11A707047080010402B
:10CB8000114201D01970F8E71870F6E74BFEFF1F4D
:10CB900001280AD100220B4B1A700B4B19789142D5
:10CBA00002D00A4908701A7070470028FCD101228F
:10CBB000044B1A70054B19780029F5D01870024BF8
:10CBC000F1E7C046D00E002088120020A80E0020F9
:10CBD000064810B50478012C06D1541E012C02D849
:10CBE000034CE3602181427010BDC046D00E00208E
:10CBF000B00E0020094830B50378012B07D1084B4F
:10CC0000084C197000238B4202DB0123C37030BD36
:10CC1000D55CE55401335BB2F5E7C046D00E002089
:10CC200084110020B00E002010B5542808D1002334
:10CC30000B710BF0ADFF0122024B1860024B1A7012
:10CC400010BDC046941100209111002037B5002579
:10CC50006B46DD7107330400FDF7EAFCC0231B02BD
:10CC60009C4209D16B46DB79AB4205D02B002A00F0
:10CC70002321200001F06EFB37BD13B50C0011001D
:10CC80001A00232C07D1232905D16B460024073332
:10CC90001C70FDF7CDFC13BD30B50C0087B0232A06
:10CCA0004DD1DF231B0298421DD022D8D7231B026F
:10CCB000984218D00FD8D3231B02984236D0D623DF
:10CCC0001B0298420FD0C1231B02984200D1BFE043
:10CCD0000023012209E0D8231B02984203D001332C
:10CCE000FF339842F4D100231A00210001F032FBF7
:10CCF00025E05A4B984200D17AE012D8584B98421E
:10CD000000D19FE0574B984244D0EF231B0298423A
:10CD1000DED100231A0001F01DFB534B01221A70D3
:10CD20000DE0524B98420CD0514BDAE700231A0029
:10CD300001F010FB01224F4BDC614F4B5A7107B0E1
:10CD400030BD00231A0001F005FB08224B4903A85F
:10CD50000FF08EFD4A4C0822200003A90FF088FD39
:10CD6000202301222375DF336375E3750023A27549
:10CD70003F326277303A22762000043A2377A37755
:10CD8000E3776276A376E37601F050FD3D4B1870B1
:10CD90001B78D4E70022344B1A70130001F0DAFA42
:10CDA0000C22394903A80FF063FD384C03A90C226B
:10CDB00020000FF05DFD364B0522364901A8009397
:10CDC0000FF056FD20001422334915300FF050FDAE
:10CDD00020006946042222300FF04AFD200005227F
:10CDE00001A927300FF044FD200001F0FBFCCDE746
:10CDF00000231A0001F0AEFA0C2228483A240B2333
:10CE0000427004320721182582700F32027100220D
:10CE1000C470447324340370437284733B33653CA1
:10CE20006D424171C171C3720439453BC473093409
:10CE3000857101728272037304744174827401F00B
:10CE4000E5FCA3E700231A0001F084FA144B65E720
:10CE500000231A0001F07EFA124B5FE7DAFE0000B1
:10CE600097F10000C5FD0000A80E00200FFF000094
:10CE7000FCFF0000B00E0020D00E0020D0CB01003F
:10CE8000681200209A110020D8CB01003B1200202C
:10CE900042617400E4CB0100940E002019120020BE
:10CEA000991100209811002010B501F08FFC10BDE1
:10CEB00010B503F093FE002808D10F22054B1A701D
:10CEC0005A709A70DA701A715A7110BD012040427E
:10CED000FBE7C046D00E002010B503F087FE431ECE
:10CEE0009841404210BD000070B50B4B0B4D1B78B4
:10CEF000002B0DD10A4B1B78002B09D1094B1C7854
:10CF0000FDF750FCE4B20100200001F04DFC287058
:10CF1000287840B270BDC046801C00209A110020C5
:10CF2000811C0020A80E002010B5024800F0FAFF76
:10CF300010BDC0465CFEFF1F0823012210B5054945
:10CF400004004008144000D04840013B002BF7D1BA
:10CF500010BDC0462083B8EDF0B585B00BF018FECB
:10CF600000F0F0FF051E32D12E4CA378D8B2052B6D
:10CF70000DD8F3F77DFE032F0C0C33360021FF2272
:10CF8000080001F0A3FB0F23A370002842D1E3782F
:10CF9000022B29D06379022B19D101250026FF2706
:10CFA000214B6D4201932800019B38409B5D2D0A67
:10CFB0005840FFF7C1FF01364540A42EF3D10022AF
:10CFC000E943100001F0B0FB0F2305006371280056
:10CFD00005B0F0BDFF2201210020D2E7FF2204218D
:10CFE000FAE7FF220521F7E700260322310003A814
:10CFF00002960FF02DFC31000C4B1A8991420BDB8D
:10D000001A890020D2B202A901F07AFB0F23E37043
:10D010000028BFD00500DAE75A5C02A8425401316B
:10D0200049B2EAE7D00E002089120020B00E00209D
:10D0300070B50C00CF210906051CF4F71FF8002875
:10D040000BD09E21281CC905F4F704F8002804D051
:10D05000281C0DF0E1FB206070BDCF21281C0906C3
:10D06000F3F7EEFF431E9841014BC018F3E7C046AB
:10D07000FFFFFF7FF0B58B4B87B000931B78DAB2D0
:10D080000192012B57D104260027874C0222200051
:10D0900086490FF0EDFB0222854986480FF0E8FB38
:10D0A0003200854985480FF0E3FB854D02222900B7
:10D0B00084480FF0DDFB0222834984480FF0D8FB3F
:10D0C0000222834983480FF0D3FB834B04A9D86F16
:10D0D0000497FFF7ADFF320004A980480FF0C8FBAA
:10D0E000286B0CF045FC02AB0222D880991D7C48CD
:10D0F0000FF0BEFB102323752B0034331B78286FF1
:10D1000063752B0074331B780A21E375F3F7BAFDBE
:10D1100002ABD8800222991D72480FF0A9FBC046CD
:10D120002000A67501F04CFA6F4B1870019803F0BF
:10D13000DFFC009B1F706D4D6B4C2B78012B00D0DA
:10D14000ABE0FDF735FB0200012800D0A5E0624B03
:10D1500004A8D96B04911900A23109780171190052
:10D16000A331097841711900BC31097800294BD1EC
:10D170001900BB310978002946D11900AE31097870
:10D18000002941D11900B831097800293CD1190092
:10D19000B7310978002937D11900AB310978002956
:10D1A00032D11900B431097800292DD11900BA31D2
:10D1B0000978002928D11A00AF32117801220029FC
:10D1C00022D11900A631097800291DD11900A831F2
:10D1D0000978002918D11900B5310978002913D12F
:10D1E0001900B231097800290ED11900A731097848
:10D1F000002909D11900B3310978002904D11A0096
:10D20000BE321278511E8A411900BC310E78D2B25A
:10D210000121002E3AD11E00BB363678002E35D1C2
:10D220001E00AE363678002E30D11E00B636367867
:10D23000002E2BD11E00AC363678002E26D11E00D3
:10D24000B4363678002E21D11E00AF363678002E47
:10D250001CD11E00A6363678002E17D11E00A93626
:10D260003678002E12D11E00B5363678002E0DD13C
:10D270001900B0310E780121002E07D11E00A7360B
:10D280003678002E02D1B1331978C9B28171C271DA
:10D2900001F010FA002320702B70207840B207B004
:10D2A000F0BDC046991100209B110020160E0020F1
:10D2B0001C0E00209D1100202C0E00209F1100202C
:10D2C000140E0020A31100203A0E0020A51100200A
:10D2D0003E0E0020A7110020F80E0020A91100200A
:10D2E000AD110020B31100209A11002098110020E8
:10D2F000F0B5BA4B8DB000931B78012B00D074E0D1
:10D300000BF046FCB64E0422029002A930000FF04A
:10D31000AFFAB44D04226B6F03A9B34803930FF027
:10D32000A7FAE86FA96F0CF0AFFDB0490CF092FFBF
:10D330000CF03AFAAD49041CF3F796FE002807D129
:10D340000021201CF3F786FE002802D0002400E014
:10D35000A64CFF272100220A230C3A403940120232
:10D360003B400A431B04240E134324061C43A049DC
:10D37000201CF3F779FE002800D09C4C230A34725D
:10D3800073723000230C240EB372F47201F056F95C
:10D39000984C20702378002B0AD000232478009A20
:10D3A00064B213702000934B1A781C700DB0F0BD5E
:10D3B000012003F09DFB0BF0EBFB2A000490A4324C
:10D3C000127804AB1A71A5352A7818005A718A4A66
:10D3D000DF7112789A7101F061F9207023785BB2E5
:10D3E0002370012003F084FBD7E7844B00931B7864
:10D3F000DFB2012B00D0A6E00BF0CAFB804B0490FB
:10D400001B88784D04AEB3802B0060331B8830003E
:10D41000F3802B0062331B8833812B0064331B881D
:10D42000738101F017F9734C207023785BB223707D
:10D430002378002BB1D1380003F05AFB0BF0A8FB86
:10D440000490286F0DF054FA6E490CF01DFD2B006E
:10D450006C33071C188880B20DF0FEF9011C381CD3
:10D460000CF012FD61490CF0F5FE6049071CF3F762
:10D47000FBFD6423019000280AD10021381CF3F73A
:10D48000DFFD019B002803D1381C0CF071FAC3B2F8
:10D4900033712B000D226C331B8802A952181370B4
:10D4A0001B0A5370A96E584A1300914205DC0023F1
:10D4B000AA6E9A4201DBAB6E9BB20F2202A95218F0
:10D4C00013701B0A5370300001F0D0F820702378DD
:10D4D0005BB223702378002B00D05EE7012003F0BD
:10D4E00007FB0BF055FBFA218900F3F7CBFB474B09
:10D4F000C0182B009033049018680CF039FA2B00F8
:10D500009433706018680CF033FA2B008833B060E5
:10D5100018680CF02DFA2B009833F06018680CF0A6
:10D5200027FA9C35306128680CF022FA70613000CF
:10D5300001F0A8F8207023785BB223702378002BC9
:10D5400000D02AE74DE7324B01931B78DEB2012B66
:10D5500000D0DAE00BF01CFBFF232E4D02AA138053
:10D5600003900422280003A90FF082F91D4C042225
:10D57000E36B03A9284803930FF07AF92E72002574
:10D580001C22290005A804950FF062F904AF6B0076
:10D59000E25A0135FA52102DF9D100251D4B1F4ECC
:10D5A00000937019022202A902350FF061F9242DAF
:10D5B000F7D12022390030000FF05AF9009801F01D
:10D5C0000BF80C4E307033785DB2002B28D0C0467B
:10D5D00034780023019A64B2E3E6C046A90E002025
:10D5E000B5110020F80E0020B91100200000C8423B
:10D5F0000000BE429A1100202E130020AA0E002027
:10D60000560F002000006145941100003A2BAA66D5
:10D61000AB0E0020E0110020E4110020E9110020F1
:10D62000012003F065FA0BF0B3FAC54F0390042212
:10D63000380003A90FF01CF901233B712B0004AD46
:10D640001A0014325200A15A5A000133A952072B72
:10D65000F6D1F8330E22EB812B822900B9480FF066
:10D6600007F9380000F0C4FF307033785AB20092E6
:10D67000002BADD1012003F03BFA0BF089FA042214
:10D68000039003A938000FF0F3F80E20009B0C2242
:10D6900019003B7102ABC0180FF0DAF80A22238F91
:10D6A0002B80E38E6B80A84B1B685343AB80032316
:10D6B000082002A95A0009180133F7308852092BB3
:10D6C000F6D1608F0A2100B2F3F74CFC608F09B2EB
:10D6D00000B2052914DC0A21F3F75EFB02AB40B26D
:10D6E000D873122204A997480FF0C2F8944800F0AA
:10D6F0007FFF964C2070012003F0FAF9247868E748
:10D700000A21F3F749FB0130E8E7914B00241B782D
:10D71000DFB2012B00D045E60BF03AFA8D4E042221
:10D72000039003A930000FF0A3F88B4D04A92B6CD4
:10D7300004941A0A337172711A0C1B0EF3712B1DAB
:10D74000D86FB271FFF774FC042204A983480FF06C
:10D750008FF8300000F066FF7C4C2070380003F03A
:10D76000C7F923785AB2002B05D024780022784BD1
:10D7700064B21A7016E62B00794EA333327003227E
:10D7800019787378114093430B4373702B000C206E
:10D79000A233197873781140890083430B43737067
:10D7A0002B00BA331B78A035012B00D0C1E02B78B9
:10D7B000013B5A42534102330322302101244020CD
:10D7C000134072781B018A4313437370654B624D9B
:10D7D0001A787378224092018343134373702B00AD
:10D7E0007F27B2331A787378D2013B4013437370AA
:10D7F0002B00AB331A78B3782240A3431343B370A2
:10D800002B00A8331A78B3782240A2403E388343D5
:10D810001343B3702B00B7331A78B3782240824099
:10D82000023083431343B3702B00B6331A78B378B6
:10D8300004302240D20083431343B3702B00AF3334
:10D840001A78B37808302240120183431343B3702F
:10D850002B00B4331A78B37810302240520183433E
:10D860001343B3702B00B5331A78B37820302240BD
:10D87000920183431343B3702B00BB331A78B37800
:10D88000D2013B401343B3702B00B1331A78F378C5
:10D890002240A3431343F3702B00B3331A78F37879
:10D8A0002240A2407D3FBB431343F3702B00AC33B7
:10D8B0001A78F3782240BA400237BB431343F3701F
:10D8C0002B00A9331A78F37822400437D200BB43E7
:10D8D0001343F3702B00A6331A78F37812010A4031
:10D8E0008B431343F3702B00BE331A7880239201CD
:10D8F00002405B421343F2780F310A401343310078
:10D9000004221948F3700EF0B3FF184B31001800D1
:10D91000042200930EF0ACFF009800F077FE0B4E4F
:10D920003070200003F0E4F83378002B20D03478F6
:10D930001CE72B78013B59424B4113403CE7C04662
:10D94000C1110020C6110020CC0D00209A1100202A
:10D95000AC0E00200D120020F80E00201512002041
:10D960008D110020A80F0020DC1100208011002064
:10D970002B00E54944330C701A784B782240A343BE
:10D9800013434B702B00022045331A784B7822400A
:10D990005200834313434B702B0046331A780427FD
:10D9A000224082404B78BB4313434B702B004733DC
:10D9B0001A784B78FF192240D200BB4313434B70B7
:10D9C0002B0048331A784B78083722401201BB43AA
:10D9D00013434B702B0049331A784B781037224091
:10D9E0005201BB4313434B702B004A331A784B78D8
:10D9F000203722409201BB4313434B702B004B3323
:10DA00001A784B783F37D2013B4013434B702B00C1
:10DA10004C331A788B782240A34313438B702B002E
:10DA20004D331A788B7822405200834313438B7016
:10DA30002B004E331A788B78224082407B3FBB43C9
:10DA400013438B702B004F331A788B7804372240A6
:10DA5000D200BB4313438B702B0050331A788B7862
:10DA6000083722401201BB4313438B702B00513304
:10DA70001A788B78103722405201BB4313438B70C6
:10DA80002B0052331A788B78203722409201BB4307
:10DA900013438B702B0053331A788B783F37D201A6
:10DAA0003B4013438B702B0054331A78CB782240C1
:10DAB000A3431343CB702B0055331A78CB78224005
:10DAC000520083431343CB702B0056331A78CB7824
:10DAD00022408240001883431343CB702B005733FE
:10DAE0001A78CB78773F2240D200BB431343CB70E8
:10DAF0002B0058331A78CB78224082400837BB433A
:10DB00001343CB702B0059331A78CB78103722404F
:10DB10005201BB431343CB702B005A331A78CB7896
:10DB2000203722409201BB431343CB702B005B3361
:10DB30001A78CB783F37D2013B401343020000985C
:10DB4000CB700EF095FE009800F060FD3070200064
:10DB500002F0CEFF3378002B00D0E8E602202B0045
:10DB60006A49D03308701A784B782240A343134394
:10DB70004B702B00D2331A784B78224052008343EB
:10DB800013434B702B00CB331A780427224082407A
:10DB90004B78BB4313434B702B00C8331A784B7838
:10DBA000FF192240D200BB4313434B702B00D733E5
:10DBB0001A784B78083722401201BB4313434B704D
:10DBC0002B00D6331A784B78103722405201BB43D2
:10DBD00013434B702B00D4331A784B7820372240F4
:10DBE0009201BB4313434B702B00D5331A784B780B
:10DBF0003F37D2013B4013434B702B00D1331A788F
:10DC00008B782240A34313438B702B00D3331A78B5
:10DC10008B7822405200834313438B702B00CC330C
:10DC20001A788B78224082400018834313438B700C
:10DC30002B00C9331A788B78773F2240D200BB4340
:10DC400013438B702B00C6331A788B7822408240A6
:10DC50000C30834313438B702B00C7331A788B78B7
:10DC6000103022405201834313438B702B00DF336B
:10DC70001A788B785F30D201034013438B702B00EE
:10DC8000E2331A78CB787B382240920083431343E7
:10DC9000CB702B00E3331A78CB782240D200BB4301
:10DCA0001343CB702B00E0331A78CB782240A34388
:10DCB0001343CB702B00E1331A78CB780238224023
:10DCC000520083431343CB702B00E4331A78CB7894
:10DCD0000E302240120183431343CB70E5352A787E
:10DCE0000F30DBB2520103401343CB700422009883
:10DCF0000EF0BEFD009800F089FC3070200002F0AC
:10DD0000F7FE337813E6C046891100208511002004
:10DD100010B5064B802806D101221A700AF038FF90
:10DD2000034B186010BD00221A70FBE72F13002070
:10DD3000BC1C002010B5002806D0054B1960054B0F
:10DD4000186000F08DF810BD01204042FBE7C0468E
:10DD5000FC13002000140020F0B59BB003AD280098
:10DD600000F09CF8011E1ED12B7AAF79AE7A039C8D
:10DD70000193224B224DE218224B1A4215D12B005F
:10DD800094331C602B00A2331F702B00A3331E7032
:10DD9000019BA0352B800F2302A95B1808221900D4
:10DDA00019480EF065FD1BB0F0BD38220BA80EF02F
:10DDB0004FFD5F2302AA9B181F705E239B181E70E5
:10DDC0001E239B18019A02A9DA870F235B181900FA
:10DDD000082209A808940EF04BFDE82301211B023C
:10DDE0009C4204D0094BE41863425C4161002B0063
:10DDF000CC3328001B6808AA9847D4E70015FFFF1A
:10DE000034130020FFFEFFFFCC1300200016FFFF9D
:10DE1000F0B5124E030034787578B778052085B0D8
:10DE2000651BBD4218D00093FF23002501936B466C
:10DE300001A8039502951A730EF01AFD706823016C
:10DE400010226946C01801340EF012FD3900E0B20C
:10DE5000F2F79EFF2800317005B0F0BDA8FEFF1F4D
:10DE600010B5FFF725F810BD010010B503684A7A18
:10DE7000180AC0B28C7A48719206EF2809D88879BE
:10DE800014431843000220430A7A0B31FFF724F8A9
:10DE900010BD180220431043F6E700007FB51B4E6B
:10DEA0000400757833780620AB422CD071682B01C2
:10DEB000C9181022013568460EF0DAFCB178E8B2D4
:10DEC000F2F766FF6B46200071701D7B01A92A00E6
:10DED0000B300EF0CDFC009B2572DA00520F6272FF
:10DEE000A3721A0C1B0A9903D2B2890B62712160CA
:10DEF000A371EF2A02D8064A13402360002023684A
:10DF00009B039B0F237104B070BDC046A8FEFF1F8A
:10DF100000FF030010B5FFF70DFF10BD10B5FFF7B0
:10DF20001BFF10BD10B5040000F00CFC034B0021DA
:10DF300003485C60FFF7EEFF10BDC04604160020EA
:10DF4000FDE1000010B50400FFF7E8FF200000F03D
:10DF500005FCFF2805D0044B23385B68C0B21B6C5E
:10DF60009847002010BDC04604160020D92330B5C4
:10DF70000400006885B01B02984200D197E033D8B6
:10DF8000D3231B02984200D1F5E01BD8C123964D44
:10DF90001B02984200D116E10133FF33984200D1B1
:10DFA00018E1C0231B02984200D10CE16B685D6947
:10DFB000002D58D02300A21D46331B78D28F211D7F
:10DFC000A84750E0D7231B02984200D19EE00133BE
:10DFD000FF33984200D184E0D6231B02984200D13F
:10DFE000AEE0814B5B68E2E7804B984200D1E6E00F
:10DFF0001CD8EF231B02984226D07D4B984200D1BB
:10E00000C9E0DF231B0298423FD0774B010AC9B217
:10E010005B68EF29CBD99D69002D24D0A31D221D5B
:10E0200046342478DB8F0094A8471CE0714B98425B
:10E0300019D0714B9842E8D16B4B211D5B68463477
:10E040002078DB6B98470EE0230047331B7821795B
:10E05000232B08D10F25A379A0681A092B4010297A
:10E0600003D0182906D005B030BD4634217800F021
:10E07000F1FBF8E74634217800F0F6FB0028F2D1F6
:10E08000594B5B681B699847EDE7230047331B78C2
:10E09000232BE8D1237901201F2B03D03F3B5A1EAD
:10E0A00093415800504B5B68DB699847DBE72300DE
:10E0B00047331B78232BD6D11F2023896179E2882F
:10E0C0001B0413430A0781432079474D0143200075
:10E0D00064896D684630007800942C6A520FA0471E
:10E0E000C1E7230047331B78232BBCD16279207909
:10E0F000D1004D331940A3794634014320783A4C7E
:10E1000012076468520F646AA047ACE723004733E4
:10E110001B78232BA7D100212579032203A8029184
:10E120000EF096FB611D2A0002A80EF0A1FB29004B
:10E130002D4B46345B6820789B6A02AA984792E789
:10E14000230047331B78232B00D08CE72179FF2253
:10E150008B1E012B09D8A279637912021A43E37945
:10E160001B041343227A12061A431F4B46345B6882
:10E170002078DB6AE2E7230047331B78232B00D0AB
:10E1800071E7230046331878174BA2685B68616813
:10E190001B6B984767E7144B5B689B68002B00D1AB
:10E1A00061E72200217946321078802901D1984711
:10E1B00059E761794A1E022AF9D90021F7E7207947
:10E1C000FFF7A6FD4FE76B68221D463421785B6C94
:10E1D000984748E72200231D463421786C6847326F
:10E1E0001278A46CA0473EE7041600208DFF0000C3
:10E1F0008CFF00008EFF0000FCFF000073B50800DC
:10E200001400062929D8F2F733FD68580479282824
:10E2100079005079937900021B041843137918434D
:10E220001300463319783F4B98421DD032D8D8237B
:10E230001B02984218D020D8D6231B02984213D034
:10E2400019D8C1231B0298420ED0D3231B02984237
:10E250000AD00023012200F07DF873BD324BC218B2
:10E26000324BD340DB07F4D5314B47345B6822781F
:10E270005B6B9847F1E7D723E8E7EF231B0298424F
:10E28000F2D005D8D9231B029842EDD0DF23DDE779
:10E29000284BDCE7284B98420DD8284B9842DDD814
:10E2A000274B9842E0D004D8264B9842DCD0264B2E
:10E2B000CDE7264BCBE7264BC9E7137A232BCCD1EE
:10E2C000A07AE37A00021B041843637A5279184358
:10E2D000174B21795B689B6BCBE71068144B010AE5
:10E2E000C9B25B68EF2911D85D69002D0AD02300FF
:10E2F000063246331B78D28F211DA8472000FFF736
:10E3000035FEAAE72000FFF731FEF7E79D69002DF3
:10E31000F8D0260046363678931DDB8F04320096FF
:10E32000A847EBE7F5FB00005000FFFF210080004D
:10E330000416002097F10000C7FF0000AFFF0000A7
:10E340000FFF0000C5FD0000DAFE00007EFF0000A8
:10E35000FCFF0000F0B51E00E82389B01B02039308
:10E360000E4B050004930E4B11200593002317005C
:10E37000079302AB02220191C018FF210EF068FA48
:10E3800003AC019B258220002D0CE7722673E373FA
:10E39000A574FFF769FD09B0F0BDC04600E8FF00B5
:10E3A00008002300F0B5060A8DB00493F3B207000D
:10E3B000129D03910192EF2B5CD8030CDBB2029308
:10E3C000EBB2F6B2059307AC082D35D9EC231B024E
:10E3D00007932A4BA27128000993A5810EF040F9FA
:10E3E000274B00220CF02AFE0BF054F90BF0D8FA60
:10E3F0001026029BA073A3742000E6732782FFF708
:10E4000033FD431C16D01F4B1F4A019916709A1DED
:10E41000D5871A0047321170039A1F6046331A706D
:10E4200004992A0019480EF023FA194819490AF0EC
:10E43000BBFD00200DB0F0BD0B2006AB0D2200216E
:10E44000C0180EF005FA029B07972371019B0F205D
:10E45000A371EBB22372039B2A0063722323A3727E
:10E4600006AB04996671C0180EF002FA2000FFF79F
:10E47000FBFCDFE701204042DCE7C0460807231031
:10E4800000001C40341300207C13002038130020AF
:10E49000F4130020E2040000F0B506008BB0100079
:10E4A000019203910EF0DCF82E4B00220CF0C6FD19
:10E4B0000BF0F0F80BF074FAC3B20293EC231B02DA
:10E4C0000593FF230025FF271B040693264B05AC6D
:10E4D0000793019B0995A381029B26822000360C9D
:10E4E000A373E773A674FFF7BFFC013003D10120CB
:10E4F00040420BB0F0BD1022290006A80EF0A8F98A
:10E50000EB231B020593E123DB0023812323A77167
:10E51000A37207210198F2F73BFC07240F00029B2E
:10E52000AB4201DC0020E4E70F2004AB0822FF210E
:10E53000C0180EF08DF92B006343039901986A1CF3
:10E5400005AEC91807331500F2723A00984200D39D
:10E55000220008A80EF08CF93000FFF785FC01308E
:10E56000DDD1C4E700001C400807232070B505007A
:10E570000E0019002B0ADCB21000049AEF2C17D9F8
:10E580002843082A02D9FFF787FF70BD0A4C2D0CDB
:10E59000637123232060257122726672A372002AA0
:10E5A00002D006480EF064F92000FFF75DFCECE7AE
:10E5B00001204042E9E7C0460C1600201716002053
:10E5C00007B51A2203000092062102487D32FFF7A8
:10E5D000CDFF0EBD97F1000007B52D22030000927C
:10E5E000062102489A32FFF7C1FF0EBDC7FF0000A7
:10E5F00007B5FF22C275E73A0300009206210248E0
:10E600006632FFF7B3FF0EBD7EFF000007B50422A0
:10E610000300009206210248F132FFF7A7FF0EBD6A
:10E62000F5FB000007B50C2203000092062102480A
:10E63000A432FFF79BFF0EBDB0FF000007B50C2210
:10E640000300009206210248A932FFF78FFF0EBD9A
:10E65000B5FF000007B50C22030000920621024816
:10E66000C532FFF783FF0EBDD1FF000007B50922B9
:10E670000300009206210248C932FFF777FF0EBD62
:10E68000D2FF000007B518220300009206210248BD
:10E69000BB32FFF76BFF0EBDD3FF000007B50822AA
:10E6A0000300009206210248CC32FFF75FFF0EBD47
:10E6B000D4FF000007B503000822C1200092012109
:10E6C0001B320002FFF76EFE0EBD000030B54C009D
:10E6D000112185B002AB9A70FF2208252143D8246E
:10E6E000DA70064A59701D700392062102000095E7
:10E6F0002002FFF757FE05B030BDC046FFFFF1F224
:10E700007FB505000920140002AE684432700EF097
:10E71000AFF8D720013433002A000621009400020C
:10E72000FFF740FE04B070BD1FB5D324082302914B
:10E73000039200930200062102AB2002FFF732FE93
:10E7400004B010BD034B044A1A609A601A619A61C2
:10E750001A627047B0FEFF1FFFFF00000022F0B5F5
:10E760000E4C0F4E0F4F2368002B09DA5B005B083D
:10E770002360606001320834052AF4D1FF200CE0E8
:10E78000FD2BF7D861689500411A7151B942F1DD4E
:10E790000249D2008A185060D8B2F0BDB0FEFF1F07
:10E7A00020160020881300001FB5002202AB18704D
:10E7B000FF205A8003920232597000020092052114
:10E7C000FA32FFF7D3FE05B000BD0000034B044A48
:10E7D000C000C2501B185A607047C046B0FEFF1FF1
:10E7E000FFFF000007B52A22811C0275CA77C11DF0
:10E7F000CA7725310A7003320300009206210248CD
:10E800009832FFF7B3FE0EBDC5FD000007B52A2103
:10E81000821CD1772222030000920348B8322439A7
:10E82000FFF7A4FE0EBDC046DAFE000007B5FF22CA
:10E83000C27503001000DF3A00920621113A00026F
:10E84000FFF794FE0EBD0000014B18607047C046F4
:10E850003416002010B5034C606021736373A273FB
:10E8600010BDC0463416002030B5084C257B8D42C3
:10E8700008D1617B994205D1A37B934202D1A0606C
:10E88000002030BD01204042FBE7C0463416002086
:10E89000034A1168536892689B185B1A18187047EE
:10E8A00034160020094B10B51C68002C0AD1012237
:10E8B000200007491A6002F02DFF200002F09AFFA5
:10E8C000200010BD01204042FBE7C0464416002056
:10E8D00024FFFF1FF7B5060014001F00002806D113
:10E8E00080231B01994202D301204042FEBDA31E9A
:10E8F0001D2BF9D800236A460F4D138093701371B6
:10E9000028000B002100D67009F036FA0028EBD160
:10E910003B0022003100280009F0C6FA0028E3D1AC
:10E9200014226243054B21002800D21809F096FA00
:10E930000028D9D1C046D9E7BCCC01004C16002034
:10E9400003685B0700D5C04603681B0700D5C046B7
:10E9500003685B0600D5C04603681B0600D5C046A9
:10E960000368DB0500D5C04603689B0500D5C0469B
:10E9700003685B0500D5C0460368DB0400D5C046CC
:10E9800003689B0400D5C04603685B0400D5C046FD
:10E9900003681B0400D5C0460368DB0300D5C046EE
:10E9A00003689B0300D5C04603685B0300D5C046DF
:10E9B00003681B0300D5C04603689B0200D5C04610
:10E9C00070470000F0B5002689B00C0015000490D7
:10E9D0000796B1420BD001292FD06B46187C05F069
:10E9E000C5F8079007A8FFF7ABFF09B0F0BD1423E7
:10E9F0005343194E29009F193A001848039309F010
:10EA00002DFA8023796805901B01994204D3802355
:10EA10009B0599426441013414236B43039AF31814
:10EA20000832B6181B7C22000020009601F06CFF13
:10EA3000059B002BD1D0C046CFE70AF0A9F8084BC0
:10EA40001B68C01A074B1860074B5E55074B1A68C6
:10EA50009042C2D91860C0E74C160020BCCC01001F
:10EA6000DC180020D8180020CC180020D418002072
:10EA700007B50122054B1A7005F078F80190C046E1
:10EA800001A8FFF75DFFC04607BDC046481600203D
:10EA900070B5394C2368002B02D00120404270BD74
:10EAA000364D3749280009F0AFF8061EF5D10200AF
:10EAB0003449280009F02EFA6868012532003249ED
:10EAC000C0B205F063F820232560304C02210B20F2
:10EAD000237007F047FB02210A2007F043FB0123C4
:10EAE00022781621013AD2B230005B422270FFF741
:10EAF000F1FE002801D0C046CFE70423C0212278D0
:10EB00005B42013AD2B2C9002270FFF7E3FE00284F
:10EB1000F1D1FF238C2122782800013AD2B21B02C6
:10EB200089012270FFF7D6FE0028B6D1FF238C2181
:10EB300022782800013AD2B21B0289012270FFF725
:10EB4000C9FE0028A9D122782800013AD2B2104B80
:10EB500010492270FFF7BEFE00289ED122782800BF
:10EB6000013AD2B20A4B0C492270FFF7B3FE0028DB
:10EB700000D092E7C04692E7D0180020BCCC01003C
:10EB800088CC0100C5E9000071EA0000D8FEFF1F33
:10EB900000FFFFFF548CFF1854FCFF1470B50A4DA2
:10EBA0002B68012B02D00120404270BD074809F0BC
:10EBB00095F8041EF7D10222210005480DF048FE09
:10EBC00020002C60F1E7C046D0180020BCCC01002A
:10EBD000CC180020F0B514000D008DB007AE142243
:10EBE0000021039030000DF033FE039B220029002A
:10EBF00009A8736034740DF03BFE032302933A4B73
:10EC00001D78002D03D05A78002A3CD1012501211E
:10EC10005955002380211800039C09018C4258415A
:10EC200005AA138093701371304BD070290018001F
:10EC3000019309F06BF832002900019809F0D6F829
:10EC400009F0A6FF2A4F38602900019809F044F91D
:10EC5000041E15D1274928480AF0D4FC09F098FF72
:10EC6000264B010018000AF0CDFC210024480AF0D0
:10EC7000C9FC24480AF0C6FCC04620000DB0F0BD17
:10EC8000012829D1C046029B013BDBB20293002B35
:10EC9000B5D11D4C2378012B07D101F0A3FF00282B
:10ECA00001D101F09BFF00232370C0461149124897
:10ECB0000AF0A8FC09F06CFF104B010018000AF0E4
:10ECC000A1FC0121114849420AF09CFC0D480AF0C0
:10ECD00099FC01204042D1E709F05AFF3B68C01A75
:10ECE0000128B1D9CEE7C046CC180020BCCC010029
:10ECF000DC18002072CC0100A0C80100ADC80100E2
:10ED0000B3C90100C4C80100481600206CCC010042
:10ED1000074B10B51C68002C07D1012221200549A2
:10ED20001A6008F014FE200010BD01204042FBE7ED
:10ED3000E01800203C00002010B5D2B208F024FEFC
:10ED400010BD10B50C0008F02AFE0123E040184069
:10ED500010BD01238B4010B5190008F01EFE10BD38
:10ED600070B514001E000D000122210008F0FFFD07
:10ED700032002800210008F0FEFD70BD284B70B560
:10ED80005A68284D8A4227D11B78834224D1012218
:10ED90000321254808F0EBFD01220321234808F058
:10EDA000EAFD002203212148FFF7C6FF00242B784B
:10EDB0009C4205D3032211001B4808F0D8FD70BD0A
:10EDC00001220321194808F0DFFD00220321174822
:10EDD00008F0DAFD0134EAE701220221144808F0C4
:10EDE000C6FD01220221134808F0C5FD00220221C0
:10EDF0001048FFF7A1FF00242B789C4203D3052283
:10EE000002210B48D9E7012202210A4808F0BCFD83
:10EE100000220221074808F0B7FD0134ECE7C046A4
:10EE2000381C0020D9FEFF1F0090044000F00F4066
:10EE300000C00440C0F00F4013B50E4C2368002BF7
:10EE400002D00120404216BD02211A00012802D042
:10EE5000180007220431084B187001AB19700749DC
:10EE600007485A704B6109F08FF80028E9D1012357
:10EE70002360E8E7E8180020E61800201C000020C6
:10EE800034000020012010B5064C2368834205D1D0
:10EE9000054809F033F9002801D1206010BD012098
:10EEA0004042FBE7E81800203400002010B5094C70
:10EEB0002368002B01D0002010BD0749074809F046
:10EEC00063F8002802D101232360F4E701204042C7
:10EED000F2E7C046EC18002004000020381C002097
:10EEE00010B5084C2368012B01D0002010BD064846
:10EEF00009F004F9002801D12060F6E70120404222
:10EF0000F4E7C046EC180020381C0020104B73B505
:10EF10005A680C00C5B291420DD11E78AE420AD19A
:10EF2000FFF7DEFF002803D121003000FFF726FFA6
:10EF3000FFF7BCFF76BDFFF7A5FF002803D1210036
:10EF40002800FFF71BFF034B1878FFF775FFF1E769
:10EF5000381C0020E6180020F0B5160087B000939A
:10EF60000CAB1B88029003910022310002A8019390
:10EF7000032409F0F3F80123019A009902A809F08B
:10EF80007DF80023144D0593288009F001FE2B889D
:10EF90000700002B10D003990298013CFFF7B6FF41
:10EFA000E4B20022310002A809F0D8F8002CE2D126
:10EFB0000120404207B0F0BD05A902A809F0EAF817
:10EFC0002880022804D109F0E3FDC01B6328F3D98F
:10EFD00028880028DFD1EDE7E4180020F0B51726D7
:10EFE0000024012789B01D0004900591039209F0C7
:10EFF000CFFD02ABF6183470AC4202D30120404280
:10F000000AE001343300039A049805990097E4B2AA
:10F01000FFF7A2FF0028EFD109B0F0BDF0B58DB029
:10F02000039312AB1B880192049314AB1B880690C8
:10F0300007910022019906A80593032709F08EF88D
:10F040000AAC06AD23002A0003CA03C30A21039BAE
:10F0500049190B80049A0023200009F00FF8214B76
:10F0600018800023099309F093FD0600200009A9E8
:10F0700009F090F81B4B1880022804D109F088FD94
:10F08000801B6328F2D90123059A1399200009F007
:10F0900015F8144B18800023099309F079FD0290AC
:10F0A000200009A909F076F80E4E3080022805D11B
:10F0B00009F06EFD029BC01A6328F1D93088002840
:10F0C0000ED069680698013FFFF720FFFFB20022CB
:10F0D0002800019909F042F8002FB2D101204042E6
:10F0E0000DB0F0BDE41800201A4B01229B685908AE
:10F0F0000800104011422CD199080220114228D159
:10F10000D9088018114224D119098018114220D140
:10F110005909801811421CD199098018114218D13F
:10F12000D9098018114214D1190A8018114210D13E
:10F13000590A801811420CD1110080185A0508D4C0
:10F14000DA0A40180A4204D15B0B0B400230C01AA5
:10F15000C0B2704700F0074010B5054C2378002B73
:10F1600005D10449044809F031F80123237010BD8A
:10F17000F01800205C0300205403002010B5054C5B
:10F180002378012B04D1044809F0F6F800232370FA
:10F1900010BDC046F01800205403002070B50F4D7C
:10F1A0002E68002E01D0002070BD01211A2006F02B
:10F1B000D9FF0B490B4809F021F901230400320063
:10F1C0000321094807F0EAFD0443A4B2002C02D150
:10F1D00001232B60E7E701204042E5E7F418002017
:10F1E00080030020401C002000C0024070B515497B
:10F1F000012008F0ACFB01220F211348FFF79CFD12
:10F200000F211148FFF79DFDC5B2012D07D0C04663
:10F21000052009F0AFFCC0460120404270BD00222D
:10F220000F210948FFF788FD0F210748FFF789FDE7
:10F23000C4B2002CEBD12800044908F088FB200060
:10F24000ECE7C046DCFEFF1FC0F00F40F4FEFF1FDE
:10F25000F0B585B0019002910392FFF7C7FF051E3C
:10F2600011D10426144F039B029A0199380009F02A
:10F270000DF9040009F08CFC0090002C06D0013E32
:10F28000F6B2002EEED101256D4212E0380009F0F1
:10F290001DF9040009F07CFC009BC01A632802D908
:10F2A000002CECD105E0380009F010F9041EF1D172
:10F2B000C046280005B0F0BD401C002070B50321F9
:10F2C000082006F04FFF084D2C68002C06D1074996
:10F2D000074809F023FA0123002802D00124002363
:10F2E000644220002B6070BDFC1800209C030020AD
:10F2F000C4CC010010B500F08BFC024A1368013346
:10F30000136010BDF818002037B5002300220D4D02
:10F310000092019300216A46280009F021FB041E97
:10F320000CD1009A019B00210748F1F7B1FE2100A2
:10F330000200280009F0BEFA20003EBD0120404234
:10F34000FBE7C046C4CC010000E1F50510B5084C50
:10F350002368002B02D00120404210BD0549064819
:10F3600009F0B8FB0028F6D101232360F5E7C04679
:10F3700000190020CCCC0100D8CC010010B5024807
:10F3800009F0D2FB002010BDD8CC0100024B9868D8
:10F390008006C00F7047C04600F00740C046704767
:10F3A000002337B50193084B0D000422C01801A9B2
:10F3B00000F010FB041E04D10422280001A90DF066
:10F3C00057FA20003EBDC04600C0FFFF13B56A4695
:10F3D000074B0C001B7801A91371064B0122C018C2
:10F3E00000F0F8FA002802D16B461B79237016BD95
:10F3F000C5C8010000C0FFFF002330B585B0040080
:10F400001500012001910393042A09D801A903A83A
:10F410000DF02EFA034B2A00E01803A900F0ECFAD5
:10F4200005B030BD00C0FFFF002330B585B004003B
:10F43000019101200393042A09D801A9881803A97E
:10F440000138934205DB054BE01800F0D5FA05B012
:10F4500030BD0578CD540133F2E7C04600C0FFFF50
:10F4600037B5012205000C00FFF7C6FF002801D0C8
:10F4700001203EBD6A46074B28001B7801A9137185
:10F48000FFF7A4FF0028F4D16B461B79A342EFD10C
:10F49000EFE7C046C5C8010070B515000D4A0E4C17
:10F4A0001368C31AA34201D800290BD0106000F0E2
:10F4B000DFFA03000B3BDBB20400012B01D90E285D
:10F4C00001D1C0460024002D02D0280000F07AFBB4
:10F4D000200070BD041900209FBB0D0073B50026ED
:10F4E00001AD01222900040030002E8001F07EFDD4
:10F4F0006B460122591D0C4801F078FD2B780D2038
:10F50000AA2B10D16B78552B0DD1210014228431F8
:10F51000F33001F06BFD21008A200822D831400031
:10F5200001F064FD300076BDFF0F0000BF22002116
:10F5300030B5174C9200A54401A800910DF088F950
:10F540006846FFF7CBFF050000F07AF904000328B6
:10F5500019D0052801D0102815D100F039FB052459
:10F5600009280FD100F06CF90400C046032809D126
:10F57000002D07D1684600F03FFB2A00012128003A
:10F58000FFF78AFFC0462000C1239B009D4430BD89
:10F59000FCFCFFFF074B08001B7810B5002B06D0C2
:10F5A000202101F079FC431E9841404210BD01200A
:10F5B000FBE7C046321C0020F0B51C001D4B85B097
:10F5C0001B7802910392002B03D10120404205B029
:10F5D000F0BD80277F00BC4224D9E6B2320000256E
:10F5E000511E8A412900230A9B1801933A00002EDC
:10F5F00004D0019B013B8B4200D13200C046039BEB
:10F6000028021918029B92B2C01801F08BFC002846
:10F61000DBD1C0460135019BEDB22900AB42E5D8F4
:10F620002000D4E703990298A2B201F07BFC0028E5
:10F63000F6D0CAE7321C0020F0B51C001D4B85B087
:10F640001B7802910392002B03D10120404205B0A8
:10F65000F0BD80277F00BC4223D9E6B232000025EE
:10F66000511E8A412900230A9B1801933A00002E5B
:10F6700004D0019B013B8B4200D13200039B280246
:10F680001918029B92B2C01801F0B0FC0028DCD11E
:10F69000C0460135019BEDB22900AB42E6D82000FF
:10F6A000D5E703990298A2B201F0A0FC0028F6D099
:10F6B000CBE7C046321C002070B500240500A042F4
:10F6C00008DA0120404270BD01F03AFF0130F8D065
:10F6D0000134E4B2044E3000AC42F5DB01F041FFEE
:10F6E000300001F052FEEEE7081900200B4B01003C
:10F6F0001B78042070B5002B0AD0094D280001F0BA
:10F70000E5FE04002800002C03D101F02AFF2000B0
:10F7100070BD01F026FF0720FAE7C046321C00202A
:10F7200008190020C02270B5114C0021A544920098
:10F73000040068460DF08CF8002368462370FFF73C
:10F74000D5FF002812D1C02203000A4992006D465D
:10F75000EE5CCD5CAE4205D001232370C0239B003C
:10F760009D4470BD01339342F1D1F7E70720F5E7DF
:10F7700000FDFFFF31190020084B01001B78042019
:10F7800010B5002B09D0064B180001F027FE03002E
:10F790000820002B01D1C046180010BD321C0020EB
:10F7A00008190020F0B5234C1E00A544C8AB85B253
:10F7B0001700681E04CB00B21C7800910192FFF77D
:10F7C0007BFF01302BD0002C11D1C02221009200F0
:10F7D00002A80DF03DF802A8FFF788FF00280CD022
:10F7E000C0460F342000C3239B009D44F0BDC022BF
:10F7F0001149920002A80DF03BF802A8FFF7BCFFE8
:10F80000041E02D0C0460D24ECE700980130401BD6
:10F8100000B2FFF751FF3860013002D1C046012429
:10F82000E0E70648019901F0A3FE30600130F5D011
:10F83000C046D7E7F4FCFFFF31190020081900206B
:10F84000C023F0B55D4DC5B028005D495D4A9B0001
:10F8500001F0A3FC002800D0ADE0012203245A4BA4
:10F860001A70280001F0DAFC061E0BD1280001F006
:10F870008CFD002800DD7BE0C046642009F07AF9A9
:10F88000C0460236013C002CEBD1022E26D1C046E8
:10F89000102012E00398002800D187E0002B00DC44
:10F8A00084E000230094019302AA04ABFFF77AFFDF
:10F8B000C046002800D179E0C04645B0F0BD049BA9
:10F8C000012B00D077E0039B012B74D1C0463F4849
:10F8D000FFF70CFF00286ED10330EEE7FC22210079
:10F8E000802605A804940CF0B3FF760004AF320024
:10F8F0003900200001F07AFB002837D13B5CFF2B58
:10F9000003D0C046C0460520D7E70130B042F5D14C
:10F9100080230134FF345B019C42E7D1C0462800BC
:10F9200001F048FC002801D00420C6E7280001F0BF
:10F9300075FC011EF8D1C022244C920020000CF06E
:10F9400087FF2000FFF718FF0028EDD103AC20004F
:10F95000FFF7E8FE03000420002BAED12378002B34
:10F96000E2D101221A4B01381A70A6E70720A4E75A
:10F970000296C046280001F008FD02900028D3DB63
:10F98000C04603AC21002800039601F0F1FD011EE2
:10F990000490C9DB029B984208DB012800DD79E76F
:10F9A000012B03DD0398002800D07AE7C046029BB4
:10F9B000012B00D183E7C046B6E7C04608190020F6
:10F9C0000CFFFF1FEEEE0000321C0020311900205A
:10F9D000311C0020030070B5C0249D180800A4004D
:10F9E0000221A54204D8034959180CF041FF002117
:10F9F000080070BD31190020C02373B515008218AE
:10FA000004000E0002209B009A4227D8C046002224
:10FA10006B46DA71124B1978914218D01A706B4606
:10FA2000D81DFFF77FFE002811D1C0466B46DB7959
:10FA3000002B0CD00B4A1378032B08D80133DBB210
:10FA40001370042B03D10121074B10701970074864
:10FA50002A00310020180CF00BFF002076BDC046B4
:10FA6000311C002030190020331C002031190020E7
:10FA70000B2370B586B06B441800FFF753FE0028C7
:10FA800000D084E06B46DB7A0C30002B4FD0484826
:10FA9000FFF772FE00285BD1464C0121200001F0E7
:10FAA00099FD0B236B441800FFF73CFE002840D162
:10FAB0006B46DB7A002B3CD1200001F041FD013088
:10FAC0002ED1200001F04DFD00233A4E039330006B
:10FAD00001F05BFC041E049020DB03AD2900300024
:10FAE00001F046FD031E059018DB08209C421EDC39
:10FAF000012B30DC012C1ADD039B002B17D0C046F4
:10FB00000123059901930398009505AB04AAFFF71B
:10FB100049FE002825D00122274B1A70012006E05B
:10FB20000122264B20001A7001F01BFD0B2006B0AD
:10FB300070BD234A1378032BC6D80133DBB2137090
:10FB4000042BC1D101211C4B197000231370BBE79A
:10FB50000828ECD1B8E7039B002BE8D0002CE6D0B6
:10FB6000CDE7049B012BD6D1059B012BD3D1039B61
:10FB7000012BD0D10A336B441800FFF7D3FD0028C6
:10FB8000C9D16B46DB7A0E30002BD0D0C3E7C0461C
:10FB90000B4A1378032BCAD80133DBB21370042B42
:10FBA000C5D10121044B197000231370BFE7C04673
:10FBB0003119002008190020331C0020311C0020BE
:10FBC00030190020014B1B7803707047331C002054
:10FBD00070B5D02500242D022021200001F05CF911
:10FBE000002806D180235B01E418AC42F4D109302F
:10FBF00070BD0A20FCE70000C02210B5034B0100D5
:10FC0000180092000CF034FE002010BD31190020C5
:10FC1000F0B5F44991B0F44809F0F4FC08F0B8FFED
:10FC2000F24B0100180009F0EDFCF14809F0EAFC84
:10FC3000F04809F0E7FC08F0ABFF049000F0E6FFA5
:10FC4000ED4BEE4D1A78EE4BEE4C1A702A007232E4
:10FC50001278ED4E5A702A006E3212789A702A008D
:10FC600070321278DA702A00713212781A712A0012
:10FC70006F3212785A712A00913212789A712A00E2
:10FC800090321278DA7100235A00115B0133B152BD
:10FC9000102BF9D13300E26BC0331A603300626A73
:10FCA000CC331A603300628FEC331A800023D748BC
:10FCB00007A90793FFF774FB002803D13300079AC5
:10FCC000D4331A601021D24800F02CFF3300D03317
:10FCD00018700321CE4800F025FF33003200FF33B7
:10FCE0009874CC4BAF321978CB4F117032005978E1
:10FCF000B032117032009978B13211703200D97877
:10FD0000B232117032001979B332117032005B795E
:10FD1000B4321370C14B1B785A1E93413200A53286
:10FD20001370BF4B1A783300B6331A703B78012B2F
:10FD300009D100F0E1FEBB4B1B68C01ABA4B9842D8
:10FD400001D900233B7033003A78B5331A702B0089
:10FD500069331A78B54BB64F1A70B64B1A78330020
:10FD6000A1331A700123B44A18001178127888431D
:10FD7000DA4093433200B73213703200AF4B310098
:10FD80001B78AE3213702300A6310870A2331A78A4
:10FD900033009D331A702300A3331A7833009E3347
:10FDA0001A7033003A78AD331A70A54BFF360193C1
:10FDB0001B78A44A7374019B197813780B43137052
:10FDC0003978A14A13780B43591E8B41DBB213706B
:10FDD0009E4A3B7811780B43137023009C4ABA3338
:10FDE0001B7811780B431370F2F71CFFE36B002BA9
:10FDF00000D1F9E2E26B974B9A4200D9F4E2362146
:10FE0000E06BF0F73FFF0CF02BFC934A934B0BF0A9
:10FE100059FD0022924B0AF0ADFD80230290039120
:10FE2000029A1B061000039AD1180CF0AFFB8D4B01
:10FE300018608D4B1B68C82B0CD9E06F636F029361
:10FE4000230060331E8809F093FDB6B23200029998
:10FE5000F9F766FE0023E95CE218443201331170C1
:10FE6000102BF8D16A222300AA56A4331A706B22F1
:10FE70002300AA56A5331A7022007C4B5E32998D5E
:10FE8000023311802200998D603211803C22995EEC
:10FE90002200623211803E229A5E230064331A806F
:10FEA000686A0AF0B9FC724BA0661B68181C0293C2
:10FEB0000AF0B2FC06000AF0CFFC011C02980AF01E
:10FEC00007FB6C49F1F7D0F8431E98416A4B36188E
:10FED0001E6030000AF0C0FC684B60671B68E36777
:10FEE000AB6A2367606FE16F0AF0B4F9644909F007
:10FEF000CBFF231DD8672300EA6D90331A602300DF
:10FF00002A6E94331A6023006A6E98331A602300B5
:10FF1000AA6D9C331A602B002C331B785A1E934118
:10FF20002200DBB2A63213702B002D331B785A1E31
:10FF300093412200DBB2A73213702B002E331B78C3
:10FF40005A1E93412200DBB2A83213702B002F33CC
:10FF50001B785A1E93412200DBB2A93213702B008A
:10FF600030331B785A1E93412200DBB2AB32137040
:10FF70002B0031331B785A1E93412200DBB2AC3286
:10FF800013702B0032331A782300AE331A702B0013
:10FF900033331B785A1E93412200DBB2AF32137009
:10FFA0002B0034331B785A1E93412200DBB2B0324F
:10FFB00013702B0035331B785A1E93412200DBB29D
:10FFC000B23213702B0036331B785A1E9341220035
:10FFD000DBB2B43213702B0037331B785A1E9341B7
:10FFE00050E0C04608CD0100A0C80100ADC8010026
:10FFF000E0CC0100C4C8010019070020AC060020B5
:020000021000EC
:100000009C1C0020F80E0020A8070020484000009B
:1000100080F00F40D00E00202F13002030FEFF1F75
:10002000801C0020BC1C00203F9C00002E130020E0
:10003000A41C0020A80E00204BFEFF1F761C0020F1
:10004000E00D002031130020301300206B1C002035
:100050006A1C00208F5F0100EC51B81E85EBC13F88
:1000600000408F4064080020A81C0020C809002020
:10007000100E00203333333FB8030020080E002059
:100080000000C8422200DBB2B53213702B8F5A1E1B
:1000900093412200DBB2B63213706B8F5A1E93412C
:1000A0002200DBB2B73213706B1CDA7F2300BA3345
:1000B0001A702B003D331B785A1E93412200DBB28D
:1000C000B13213702B003E331B785A1E934122002D
:1000D000DBB2B33213702B003F331A782300BE33E8
:1000E0001A702200019BBB321B78DBB213703B7885
:1000F0005A1E93412200DBB2BC3213702B006C33CA
:100100001A782300BD331A702B0092331B785A1EC5
:1001100093412200DBB2C63213702B0093331B785D
:100120005A1E93412200DBB2C73213702B00943366
:100130001B785A1E93412200DBB2C83213702B0089
:1001400095331B785A1E93412200DBB2C9321370DB
:100150002B0096331B785A1E93412200DBB2CB3220
:1001600013702B0097331B785A1E93412200DBB289
:10017000CC3213702B0098331A782300CE331A70C8
:100180002B0099331B785A1E93412200DBB2CF32E9
:1001900013702B009A331B785A1E93412200DBB256
:1001A000D03213702B009B331B785A1E93412200D0
:1001B000DBB2D23213702B009C331B785A1E934152
:1001C0002200DBB2D43213702B009D331B785A1EF1
:1001D00093412200DBB2D53213702B009E331B8873
:1001E0005A1E93412200DBB2D63213702B00A0338B
:1001F0001B885A1E93412200DBB2D73213702B00AA
:10020000A3331B785A1E93412200DBB2D132137004
:100210002B00A4331B785A1E93412200DBB2D33249
:1002200013702B00A5331A782300DE331A702B00CD
:1002300041331B785A1E93412200DBB2DF32137028
:100240002B0042331B785A1E93412200DBB2E0326E
:1002500013702B0043331B785A1E93412200DBB2EC
:10026000E13213702B0044331B785A1E9341220055
:10027000DBB2E23213702B0046331B785A1E9341D7
:100280002200DBB2E33213702B0047331B78453575
:100290005A1E93412200DBB2E43213702B78072BF5
:1002A00000D900232200E53213702300574ABD33E2
:1002B000197813780B431370FCF7DCFE544D2B7840
:1002C000DEB2002B00D00FE308F062FC2A00310000
:1002D000FFF7E2F8002800D068E2C04608F058FCBA
:1002E0004C4E4D4D3368C01A4C4B1A78FA239B0084
:1002F0005343984205D90122494B1A6008F048FC43
:100300003060484B48491A78484E0191012A14D16F
:1003100000221A70F0F7D0FF002801DB444B186070
:10032000019B1B78012B08D03378012B05D0404B63
:10033000353529781868F0F7DDFFC04633783D4D34
:10034000012B1BD100211E2208A829700CF080FA75
:10035000394F374B39681B68994247D8002945D037
:100360002300A4331B78002B47D0C046334B1868BA
:10037000F0F7CEFF0023337001332B70019B2F4A1F
:100380001B7800210592012B00D096E21E2208A8BE
:1003900029700CF05DFA294F294E3A6833689A4269
:1003A00000D98DE0274B1D78274B1B780293012B3A
:1003B0000AD1264B1868F0F753FF013000D00295A0
:1003C0000022214B029D1A70194A33681268934229
:1003D00001D8002B3ED1C046A4342378002B00D096
:1003E000C046C04638685BE0194820E5C046230097
:1003F000A4331B78002BB8D1B8E708A8F0F70AFFA0
:10040000396808A8F0F768FFB0E7C0462D13002050
:10041000E20F0020941C0020140E0020490E002042
:10042000981C0020901C0020801C0020811C0020B3
:10043000881C0020BC030020841C00207C1C0020A1
:100440008C1C00206D1C0020741C0020701C0020DF
:1004500070FEFFFF2300A4331B78002BC0D1002DBA
:1004600000D018E21E22290008A80CF0F1F908A813
:10047000F0F7BEFEE54B08A8196801311960F0F7E6
:100480002BFFE34B002800D0F2E11A6801321A601A
:10049000E04A1570C04618683368984200D203E2FB
:1004A000F0F736FF0023059A1360DB4A1360019AC8
:1004B0001370D64A1360F0F7EFFE0122D74B1A7083
:1004C000D64B1B78012B00D070E1D54B1E68012E56
:1004D00000D06BE10022D34C1A6000211E322000B4
:1004E0000CF0B6F9E121D04D0901286FF0F7CAFBF5
:1004F0000AF0FEF92B006C33071C188880B20AF052
:10050000ABF9011C381C09F0BFFCC84909F0A2FE78
:100510002B000290A6331A78637D3240B343134315
:1005200063752B000227A7331A78637D324052008F
:10053000BB43134363752B00A8331A780421324060
:10054000BA40637D08208B43134363752B00A933A6
:100550001A78637D3240D2008343134363752B00C6
:10056000AB331A78637D32408A400C318B4313439E
:10057000AF4A63752B001278AC33511E8A411B7849
:1005800092015B011A43AB4B01931B78591E8B41BF
:100590001F21DB011343627D0A40134363752B0067
:1005A000AE331A781B39531E9A41A37DB3431343CC
:1005B000A3752B00AF331A78A37D32405200BB43A2
:1005C0001343A3752B00B0331A78A37D3240BA4091
:1005D0008B431343A3752B00B2331A78A37D3240AB
:1005E000D20083431343A3752B00B4331A78A37D41
:1005F00032408A400C318B431343A3752B00B53333
:100600001A78A37D1031324052018B431343A375F6
:100610002B00B6331A78A37D2031324092018B43F0
:100620001343A3752B00B7331A78A37D3F31D20152
:100630000B401343A37508F0ABFAFA218900F0F7D9
:1006400021FBFA217C4B8900C018030A20706370DB
:10065000030C000EA370E070286CF0F79DFB83B2D2
:100660001B0A63742B0020745E331B880421A37162
:100670001B0AE3712B0060331B8823711B0A637113
:100680002B0062331B88A3721B0AE3722B006433B6
:100690001B8823721B0A6372EB8E23731B0A63731E
:1006A0002B8FA3731B0AE3732B00A2331A78E37D0D
:1006B0003240B3431343E3752B00A3331A78E37D31
:1006C00032405200BB431343E3752B00A0331A782A
:1006D000E37D3240BA408B431343E375686F09F002
:1006E00047F9A074E86FA96F09F0CEFB4F4909F0F4
:1006F000B1FD09F03DF9E074029809F039F9FA21E9
:1007000020758900E86BF0F7BDFA83B21B0A6376A7
:1007100000232076A676E676A27E5800013A5200A3
:100720002E5AAA5A591CC9B2964201D2A176C04685
:10073000E27E285A013A5200AA5A904201D9E17643
:10074000C0460133102BE7D10F3B6377237700239B
:100750003448190014314A00AF5A627F3FB2133255
:100760005200AE5A5A1C36B2D2B2B74201DD62779D
:10077000C04649006E5A017F36B213314900695AAA
:1007800009B28E4201DA0277C0460133072BE0D16D
:10079000C046F0F71BFD294B002800D19AE001224A
:1007A0001A70274A137801331370C04608F0F0F925
:1007B000049B244AC41A1168234B1C60234B8C42AF
:1007C00003D91968002900D11460214A18681168FA
:1007D0008C4202D9032800D914601E4A11688C4249
:1007E00000D21460461C1C4D1E600AF081F8296876
:1007F00009F030FD071C20000AF07AF8011C381CB3
:1008000009F0B8F9041C300028E0C046781C00202C
:100810007C1C00206C1C00208C1C0020BC030020D1
:10082000981C00204C1C0020F80E00200000C8423C
:100830006A1C00206B1C00203B2BAA66761C002043
:10084000751C0020B41C0020AC1C0020A81C00203B
:10085000B81C0020C0030020B01C00200AF048F89B
:10086000011C201C09F010FB2860C04611B0F0BD2F
:100870001F4930680A780A250132D2B20A7064280A
:1008800000D8093D1B49AA4201DB1860C046C0469A
:1008900018680B6801E6C04638683368984200D390
:1008A000FEE5012D00D1FBE508F072F9049BC01AAA
:1008B0005A2800D86FE5C04602E6059B19600D4B2B
:1008C0001960019B19700C4B1960F0F7E5FC0123CE
:1008D0002B70F5E5019A18701070084A1070084ADC
:1008E00013680133136061E70022064B1A705DE75D
:1008F0006C1C00208C1C0020781C00206A1C00202E
:10090000481C0020761C0020F7B50D0058485949B6
:1009100016001F00089C08F075FE08F039F9564BC8
:100920000100180008F06EFE2900544808F06AFE25
:10093000534808F067FE00233A0021006846009300
:1009400001930BF095FFEF224E4B12042B40934284
:1009500010D16B461B78102B07D0012E04D1082232
:1009600069462800FDF754FAF7BD08F011F9FDF7C4
:100970006BFFF2E7012E04D1082269462800FDF73B
:1009800047FA414BE81803284DD8F0F771F90209EE
:1009900037473E4B1B78002BE6D13D4B01223BE015
:1009A0003A4B1B78002BDFD1C0463A4D0422210080
:1009B00028000BF05DFF384E04223000211D0BF0A3
:1009C00057FF33682A689342CED801219942A44147
:1009D0003248644201702E48017031480470002B87
:1009E00000D10B000132D21A336000232A602D4A55
:1009F00013602D4A13602D4A1370B5E7C046274B8C
:100A00001B78002BB0D10422210029480BF030FFC5
:100A10000122284B1A701E4B1A70A5E7E379FF2BB1
:100A2000A2D1224BBAE7162D9ED10822210068469A
:100A30000BF01EFF00236A4668461F499371F0F7CA
:100A400071FB002800D08FE7A379232B00D08BE720
:100A5000E07903001E3B092B00D985E70A21F0F756
:100A600097F9C9B2052900D07EE7144B96E7C04636
:100A7000A0C80100F2CC0100ADC80100E5CC010026
:100A8000C4C801000000FF0300FAFFFF9C0F002014
:100A9000901C00208C1C0020701C0020801C00205A
:100AA000741C0020781C00207C1C00206D1C002081
:100AB000841C0020811C0020EBCC0100E00F0020F2
:100AC00010B500230121044A044801F0B5FD0021BE
:100AD000080001F0BDFD10BD341C002030FFFF1FD9
:100AE00010B5FFF7EDFF012008F044F8002010BD1D
:100AF00010B508F03FF810BD10B508F049F810BD6A
:100B000010B5FEF705F910BD10B5FEF715F910BDCB
:100B100010B50122FEF710F910BD10B50022FEF746
:100B20000BF910BD10B5FEF70CF910BD10B5FEF7AE
:100B300010F910BD10B5FDF7B5FE10BD10B5034C92
:100B400002000B0003CCFEF749FA10BD3400002070
:100B500013B5044C00920B00020003CCFEF7FCF925
:100B600016BDC046340000201FB502930123054C7A
:100B70000192009302000B0003CCFEF74FFA04B081
:100B800010BDC0463400002010B5FEF78FF910BD2F
:100B900010B5034C02000B0003CCFEF71FFA10BD8A
:100BA000381C002013B5044C00920B00020003CC4B
:100BB000FEF7D2F916BDC046381C00201FB50293BF
:100BC0000123054C0192009302000B0003CCFEF7B9
:100BD00025FA04B010BDC046381C002010B5FDF742
:100BE00057FF10BD10B5FDF7D9FF10BD10B5FDF7CB
:100BF000F1FF10BD10B5FEF761FB10BD10B5FEF79B
:100C000083FB10BD10B5FEF7A1FB10BD10B5FEF7BC
:100C1000B5FB10BD10B5FEF7B9FB10BD10B5FEF762
:100C2000BDFB10BD10B5FEF797FA10BD10B5FEF76D
:100C3000A5FA10BD10B5002804D10B210548FFF717
:100C40006CFF10BD0128FCD10B210248FFF760FFAB
:100C5000F7E7C04600F00F4010B5002804D10C2182
:100C60000548FFF75AFF10BD0128FCD10C210248AE
:100C7000FFF74EFFF7E7C04600F00F4070B5094D93
:100C8000002228000B2106F076FE28000B21FEF73B
:100C900058F80400012228000B2106F06CFEE0B297
:100CA00070BDC04600F00F4010B5FEF777FA10BDDA
:100CB00010B5FEF7CDFA10BD002310B58918013923
:100CC0009A4200DC10BD0C78C4540133F7E70023CE
:100CD00010B59A4200DC10BDCC5CC4540133F8E777
:100CE00010B5FEF701FA10BD10B5FEF739F810BDCA
:100CF00010B5174CFFF7F4FEFFF784FFFFF700FF76
:100D0000200001220221FFF7FFFE002201211148ED
:100D1000FFF7FAFE012205210F48FFF7F5FE20003C
:100D200000220821FFF7F0FE002207210B48FFF701
:100D3000EBFE01220E212000FFF7E6FEFFF724FF65
:100D4000FFF758FFFFF7B0FFFFF7F4FE10BDC046F6
:100D500080F00F40C0F00F4040F00F4000F00F4017
:100D600010B5FFF74BFF10BD10B5FCF7DDF810BD57
:100D700010B592B2FFF79CFF10BD10B507F008FF49
:100D800010BD13B500236A46938013800533137199
:100D900004000222694601A8FFF7EAFFC0460028C6
:100DA00002D16B465B78237016BD13B500236A46EB
:100DB000040001A89380FFF7E4FF002804D16B46EC
:100DC00001221B791340237016BD00007FB500245B
:100DD0006B469C81194B01A91B7801220B700623DD
:100DE00002A80370FFF7C4FF6B46DC72FFF7C5FF74
:100DF00006000B236B441800FFF7D7FF0500041E05
:100E00000CD1FFF7BAFF801B322803D9C046C04679
:100E1000022410E06B46DB7A002BEAD1C046002D9D
:100E200009D103A8FFF7ADFF041E04D16B461B7B5D
:100E300001349B07ECD5200004B070BDC5C801008B
:100E400073B505000E00FFF7C1FF0400012808D1AB
:100E5000C046002132002800FFF78AFF041E02D09E
:100E6000C046200076BD6A46D071FFF786FF0500B8
:100E70006B46D81DFFF799FF041EF2D1FFF77DFFE7
:100E8000401B322802D9C0460234EAE76B46DB79C0
:100E9000002BEDD1E5E700007FB505000E00FFF760
:100EA00095FF040001282BD1002302A803932B0CEB
:100EB0006DBA067043704580C046042203A9FFF74F
:100EC00057FF041E03D0C046200004B070BD6A4620
:100ED000C826D071FFF751FF104D760028606B4691
:100EE000D81DFFF762FF041E0AD1FFF746FF0C4B27
:100EF00018601B682A689B1AB3420AD9C04602349C
:100F0000074A136801331360044A136801331360FE
:100F1000D9E76B46DB79002BE1D1F1E7C41C002057
:100F2000C01C0020F0B517008022C7B00500029158
:100F30005200974257D8002306A8190005930BF0DA
:100F400087FCFF232A009A4313000133FF330193E8
:100F50003A1D92B201992B0C03927A19EEB205ACAC
:100F6000DBB26DBA8A4212D802220299227006A818
:100F70003A00637065800BF07BFCC046200003994B
:100F8000FFF75EFF002800D0C04647B0F0BDC04666
:100F900002227642F6B222700299320006A86370ED
:100FA00065800BF065FCC046311D2000FFF748FF4F
:100FB000019B02221B0C6370019B22701B0AA37011
:100FC0000023E370029B0500BA1B991906A80BF0D9
:100FD0004FFCC046039B2000991B89B2FFF730FFEE
:100FE000284340B2CEE701204042CEE78023F0B54F
:100FF000234C0E00A544150004005B009A423CD827
:1010000000236A46D371FFF7B8FE07006B46D81D70
:10101000FFF7CBFE002808D1FFF7AFFEC01B322838
:1010200003D86B46DB79002BF0D1C0460027802225
:101030003900520003A80BF00BFC8022390052004B
:1010400044A843970BF004FC6A4603231372230C55
:1010500064BA537254812A1D92B243A902A8FFF7C1
:1010600087FE0400C0462A00300044A90BF000FCB3
:10107000200085239B009D44F0BD01246442F7E7D6
:10108000ECFDFFFF10B54469002C06D04368CB1877
:10109000016859430423A04710BD01204042FBE7EB
:1010A000836810B5046848680433584363680A6865
:1010B0000830D21823685343C01810BD70B50668B5
:1010C00014007569002D07D0FFF7EAFF0423010023
:1010D00022003000A84770BD01204042FBE737B531
:1010E000056801922C69002C07D0FFF7D9FF042373
:1010F000010001AA2800A0473EBD01204042FBE7B5
:1011000013B504690192002C07D0436801AACB18DB
:10111000016859430423A04716BD01204042FBE764
:10112000FF22F8B504000068120643680568CB1872
:101130000E005D43FFF7E4FF013002D10120404281
:10114000F8BD2068C368002BF8D0290098472068B4
:101150000769002FF2D00423221D291DB847013052
:10116000ECD03100034A2068FFF7CAFF0130434248
:101170005841E4E700FFFFFF4B68C26801334B6052
:10118000934209DB002200680B68806801334A60E3
:101190000B60834200DB0A60704710B504000160F9
:1011A000426083600868191D0838EFF76BFDE06046
:1011B000002010BD70B50400002523689B68AB4279
:1011C0000CDC0025236800209B68AB4218DC206102
:1011D0006061A061E061206260620BE0002007F0C6
:1011E0008FFD002229002068FFF78AFF013002D11D
:1011F0000120404270BD012007F082FD0135DCE78F
:1012000007F07EFD29002000FFF78AFF0130EFD0B4
:10121000012007F075FD0135D4E70000F0B5002589
:101220000400036887B09E684D4B013E029501950E
:101230000395206800938368AB422ADC019B002B56
:1012400034D0029B5B421E400023A661E361A36988
:10125000B34262D0039B23610023636125002269AE
:10126000A36910359A4204D16269E3699A4200D1B8
:1012700071E02900200004AAFFF720FF013015D0FB
:10128000384B049A9A4266D029002000FFF774FF79
:10129000E4E743680168EB18594343691F1E05D012
:1012A000082304AAB847013004D1C04601204042B7
:1012B00007B0F0BD049B002BF7D0FF22120693422B
:1012C00001D0013307D129002000FFF729FF0130A9
:1012D000ECD0234B0493049B214A93420DD0214A26
:1012E0009342E2D1059962689142DED1009A1C498D
:1012F0008A4210D00122029209E005996268914267
:10130000D3D1184A0099914203D0012201920135AC
:101310008FE76E1EF9E70395ECE7250018352900E5
:10132000200004AAFFF7CAFE0130BFD0049B5A1C5C
:1013300000D18FE70A4A934204D029002000FFF72A
:101340001BFF84E7FF22290020001206FFF7C7FEDB
:101350000130F2D1AAE7203400200CCD0CC4A7E75D
:1013600000FFFFFF0000FFFF10B504000368806965
:1013700099682369C01A4018EFF7F4FDE068E36943
:101380004843C0186369C01A10BD7FB5030002ADA1
:101390002A0000261033040003CB03C22A68A36985
:1013A0009A4203D16A68E3699A4207D02900200073
:1013B00001AAFFF783FE431C03D10600300004B0EE
:1013C00070BDC0468022019B52029B185A42534175
:1013D00029002000F618FFF7CFFEDFE7F0B506681A
:1013E0000400806985B001910130B168EFF7BAFD62
:1013F000300003AA0D00FFF745FE01300AD0039B21
:10140000304EB3420AD1A169206803AAFFF73AFE21
:10141000013022D10120404205B0F0BD2369AB422A
:1014200008D1002321686A1C8968636122618A42AD
:1014300000DB2361236AAB4208D1002321686A1CC8
:101440008968636222628A4200DB236229002000ED
:10145000FFF766FE0130D6D1DCE7039B1A4AB342A0
:101460001FD1A1692068FFF74BFE0130D2D02500C3
:10147000183529002000134AFFF731FE0130C9D08A
:1014800027683E69002EC5D029002000FFF708FE1E
:10149000A368011D019A3800B047013004D1C0464D
:1014A000B8E79342E3D0B5E729002000064AFFF7EA
:1014B00016FE0130F3D020002900FFF75DFE00206A
:1014C000AAE7C04600FFFFFF0000FFFFF0B50400E1
:1014D00085B001912500226AA36920359A4203D183
:1014E000626AE3699A4221D02900200003AAFFF72B
:1014F000E5FD01301AD0114B039A9A4219D12768A1
:101500007E69002E12D029002000FFF7C9FDA368D4
:10151000011D019A3800B047013006D02000290093
:10152000FFF72AFE002005B0F0BDC0460120404272
:10153000F9E729002000FFF71FFECBE70000FFFFBF
:1015400070B50500FF221035290012060400FFF7D0
:10155000C6FD431C04D020002900FFF70DFE00202B
:1015600070BD03002033103006C806C3002070474A
:10157000F0B587B0030004AD2A0010330F0004005B
:1015800003CB03C200231E003B6001932A68A369BA
:101590009A4212D16A68E3699A420ED1019B3B607C
:1015A000C046300012E00A4B039A9A4200D10196DD
:1015B00029002000FFF7E0FDE8E72900200003AA4A
:1015C0000136FFF77BFD431CEDD1C04607B0F0BDEF
:1015D0000000FFFF70B505000E000124B44201D9E0
:1015E000601E70BD290028002031FFF7C5FD0134C1
:1015F000F4E700001249134A70B5521A12480BF072
:1016000037F91249124A1348521A0BF031F9124AAB
:1016100012480021121A0BF01BF91149114A124805
:10162000521A0BF025F9114C1149124D8C4205D07C
:10163000114A2000920892000BF01AF92C6070BD3C
:1016400088D0010000D70100C0FDFF1F00D70100B6
:1016500000D70100380400209025002060050020FC
:1016600000D70100A8D7010000FCFF1F00FDFF1FED
:101670000008000008ED00E0C0000000044B054A2F
:101680005A605A68044A1A60044A9A607047C04611
:101690000020054020C528D920210000FFFF0000C0
:1016A00003480449044B425892B2134343507047D5
:1016B00000E000E00C0D00000400FA0510B5302435
:1016C000084A9369A343002803D0012805D09361F9
:1016D00010BD090121400B43F9E7C0200903800137
:1016E0000140F8E70080044010B50124084A9369DE
:1016F000A343002803D0A04204D0936110BD214031
:101700000B43FAE78020090240000140F8E7C04699
:1017100000800440F7B500230C00050001A93B2020
:10172000019300F0FDFF2278019B6020D3400193DC
:101730002B4B5201196C024081430A431A64FF2269
:10174000596C60789143021C002800D101220C20C2
:101750000326D2B20A435A64A278196C92008143DC
:1017600002400A431A64196CE278B14332400A43DA
:1017700040211C4F1A6423793A689B018A430B402D
:1017800013433B6028006179FFF798FFA179280097
:10179000FFF7AAFF04233A6813499A43E3799B00B1
:1017A00013433B603A68237AB243334013433B60B0
:1017B00008230A689A43637AB34013430B60002DF1
:1017C00008D1A27A094B002A05D080225968120359
:1017D0000A435A60F7BD5A6805490A40F9E7C0460E
:1017E00000B0034090B0034094B003400080044038
:1017F000FFFFF7FF0322F0B5444C89B02368444F44
:101800009B0805932368434D1A40049203223B68CA
:10181000002603936B6C07A9DBB2029323683B207D
:1018200093431343236023680132134323603B68CF
:101830003C3293433B60FF236A6C9A43F33B134370
:1018400003226B64344B1E60344B1E60344B1E60AD
:10185000344B1E60344B1E60344B1E60344B1E6094
:1018600007962B6C5B091A40019200F059FF079A0A
:10187000019B1100D9402F4B994212D92E490123C7
:101880008A4208D92D49DB188A4204D92C490133F0
:101890008A4200D9330060212A6C5B018A431343DA
:1018A0002B6480222368134323607F3A2368DB097B
:1018B0001342FBD1602304212A6C9A43019B5B01F4
:1018C00013432B64059B22689B008A430B40134300
:1018D00003222360236803999343049A1A43402305
:1018E00022603A6819409A430B0013433B60FF2380
:1018F0006A6C02999A436B461B7A002900D1012336
:10190000DBB213436B6409B0F0BDC04694B0034032
:1019100090B0034000B00340B4B00340B8B00340FF
:10192000BCB00340C0B00340C4B00340C8B00340E3
:10193000CCB0034040787D0181F0FA0203E1F50567
:1019400007C2EB0B064B02205B69DBB2042B06D00F
:101950000130802B03D01800012B00D004207047E9
:1019600000E00740054B5A68802310005B041840D4
:101970001A4201D0024B18687047C046FC4006402E
:10198000C81C00208022094B920099588022080030
:1019900052041040114208D0822292009A5801232A
:1019A000100018401A4200D001487047004006401D
:1019B00000127A00C022074B92009958802208003A
:1019C00052041040114203D0C22292009B58024898
:1019D0007047C04600400640006CDC0270B5144CF5
:1019E000050023691B011B0F022B12D0032B13D000
:1019F0000020012B01D1FFF7B5FF0F262169090C4B
:101A000031400131EFF73EF9012D08D0022D0DD004
:101A100070BDFFF7B7FFF0E7FFF7CCFFEDE72169F7
:101A2000090931400131EFF72DF9F1E72169F8E7B4
:101A30000040064010B501291ED0052807D0062811
:101A400014D0FFF79FFF81230200184904E0FFF73D
:101A5000B1FFC123020015499B00C8580723184055
:101A6000002802D00138C240100010BDFFF77AFFF5
:101A70000F4B02009868F1E7052807D006280FD021
:101A8000FFF780FF81230200084904E0FFF792FF7F
:101A9000C123020005499B00CB585B05580FDFE7C7
:101AA000FFF760FF024B02009B68F6E7004006402C
:101AB000FC4006400C4A13691B079B0F022B07D002
:101AC000032B0DD00020002B09D1FA20400206E0A4
:101AD0001269100018401A4201D0FA20C001704764
:101AE00002231269F5E7C046008004400C4B002039
:101AF0001B6A10B51B011B0F032B07D81800EFF74B
:101B0000B7F80206090C0220FFF768FF10BDFFF7C7
:101B100029FFFBE7FFF736FFF8E7FFF74BFFF5E795
:101B2000004006400F4A10B513699B069B0F022B1D
:101B300011D0032B12D0012B04D000210620FFF777
:101B400079FF07E012690223100018401A4201D001
:101B5000FA20C00110BD044B1868FBE700210520E6
:101B6000EDE7C04600800440CC1C002010B51E4CA0
:101B7000802362681B01100018401A4216D060686A
:101B80000006000F0E282CD8EFF772F8112B142B3B
:101B9000192B1C1F2B23082B252B2800FA20400271
:101BA00061684905490F0131EFF76CF810BDFFF787
:101BB0009DFFF5E701210620FFF73CFFF0E701213B
:101BC0000420F9E701210520F6E70020FFF706FFD2
:101BD000E6E70120FAE7FFF76DFFE1E7FFF7A2FF75
:101BE000DEE70020DCE7C04600800440154B4000E3
:101BF000C35A154A9B0070B59B1801260F221C681A
:101C00001D682409002034401540A54214D31A68E9
:101C1000920F324210D01B685B015B0F022B0CD07D
:101C2000032B0CD0B34202D10630FFF703FF691C2F
:101C3000EFF728F80134604370BD0420F5E7052074
:101C4000F3E7C04602CE010000500640F0B50600A2
:101C500085B000290AD16B4619732F4B6A46009351
:101C60002E4B694601930223FF3313812C4B012431
:101C70005A680220520E1700274022420BD15A68A0
:101C80002848294D02405A608022D2045A602F60B1
:101C9000002E02D1002005B0F0BDE02007264A7AD0
:101CA000C00012020240087A3040024330209A609D
:101CB000CA790136120102408879C00030400243DF
:101CC0004879043E800030400243DA600A79012AF4
:101CD00012D0022A16D0002A03D10A7BD20514435F
:101CE0005C600B68114C2B60FFF73CFE00280FD1A5
:101CF000002C0BD10330CEE7087B0D4AC005024310
:101D00005A60EEE7087B0B4AC005F8E7013CEBE7B9
:101D1000002CBFD10320BEE700127A0000010002B0
:101D2000FC400640FFFF7FFFC81C002088E7300012
:101D30000100010001000300F7B5060000290BD1E6
:101D400080236A465B009380022391716946FF33CA
:101D50001380013BFF3B937080221F4B92009D58E4
:101D600001246D0E2F0002202740254207D19858EC
:101D70001A4D284098509F50002E01D10020FEBDE2
:101D8000E02007258A78C0001202024048782840E7
:101D90000243812080001A500A78043022401A50F1
:101DA00048798A790979002900D003248021D20555
:101DB000800002432243642489005A50FFF7E2FD69
:101DC000002805D1002C01D10330D8E7013CF5E70C
:101DD000002CD3D10320D2E700400640FFFF7FFF55
:101DE00037B50400002908D16A4601239171537167
:101DF0008022694652000A808B70C0221E4B9200DE
:101E00009D580220AD0109D498581C4D2840985087
:101E10008020C0049850002C01D100203EBDE0205D
:101E200007248A78C000120202404878204002430A
:101E3000C12080001A5003200A780240C22080008E
:101E40001A5048798A790921002800D00839D2052A
:101E50000A43C021142489005A50FFF7ABFD002823
:101E600005D1002C01D10330D8E7013CF5E7002C67
:101E7000D3D10320D2E7C04600400640FFFF7FFFDA
:101E8000F0B585B001930AAB1C78019B07005E1C7E
:101E900013000133734302934B1C73430D000092F4
:101EA0000393022C3ED0032C3FD0012C06D00128F6
:101EB00056D00020022F10D0002049E0FFF752FD3D
:101EC0000009012F34D0022FF6D10C2262432F4B90
:101ED000D3581B095E43B04239D80C2262432B4BC6
:101EE00002999B185A681209514381422FD39B686B
:101EF000039A1B095A43824229D3F02324061B0567
:101F00001C400F23FF221D40009B2C431B0113404C
:101F1000F0221C43019B12031B0413401C431C4B67
:101F20009C61C9E7FFF72EFDCAE7FFF743FDC7E74E
:101F30000C216143174BCA5812097243904206D8CC
:101F40005B185A68029912095143884202D901204C
:101F500005B0F0BD9B68039A1B095A439042F6D81E
:101F6000F02324061B051C400F23FF222B401C439B
:101F7000009B1B011340F0221C43019B12031B0416
:101F800013401C43024B5C6196E7C04614CD010030
:101F90000040064068CD010037B50400FFF7D2FCD1
:101FA000E578A378627821780095FFF769FF00282B
:101FB0000FD10A220F25E178064C2369013A1B0E46
:101FC0002B408B4203D0002AF7D1032001E0002AE6
:101FD000FBD03EBD00400640F0B50700A7B000288A
:101FE00023D0CE4E3C0033691B011B0F032B0FD0B7
:101FF000FFF7E0FC011E04D10120FFF7F1FE051EF2
:1020000010D1C74B07A80793FFF7C6FF051E09D1DC
:10201000FB78210018000393FFF78EFE051E4ED0BB
:10202000FFF790FC280027B0F0BD8024012208AB08
:10203000640009949C83BB4C14AD0C94BA4C2A7078
:102040000D9412AC22700AACE777C02424031094DC
:10205000B64C04AD1594B64C02211694B54CFF3124
:102060009C87B54C9A812494162423943D3464199A
:102070002270B24C9A731A941BAC22707B246419A0
:1020800022701CAC1992227021AA11807622AC48D1
:10209000521913971D971E971F970890198119833E
:1020A00099842090118022AA17807A2252191770E1
:1020B00025AA11808622521917701F0091E7390056
:1020C0007B7F103118000493FFF7C0FD3C00050032
:1020D0000590FFF737FC3634012803D0043402287A
:1020E00000D00024059B002B9CD1E378032B00D06B
:1020F00001E1049B002B00D0EFE0039B0125002BA6
:1021000000D18FE78F4B07A80793FFF745FF050026
:10211000002D00D086E7B87BF91DFFF761FE051E94
:1021200000D07FE7032307A8C370A3788370637888
:10213000437023780370FFF72FFF051E00D071E76F
:102140003B0030331B78002B02D07F4BFA6A1A60B9
:102150003B0035331B78002B0BD0326A7B4BF021D0
:102160001A403B0034331B7809051B060B40134310
:1021700033623B0043331B78002B00D0F4E03B6F0D
:10218000002B00D017E13B0044331A78002A12D00C
:10219000FF246F486F4A416811405A78D2020A43BF
:1021A000997809012140E0241143DA78E400120211
:1021B00022400A4342601A79002A13D03F210C249E
:1021C000634802698A43197A1143DA7952000A4353
:1021D00099798900214011435A792434120122400F
:1021E0000A4302611A7F002A26D00121584A106C46
:1021F0008843597F014311640221106C8843997F01
:102200004900014311640421106C8843D97F89007F
:10221000014311640821106C884339004531C97F9E
:10222000C900014311641021106C88433900463104
:10223000C97F0901014311641B7B002B06D0464B6B
:102240007A6D1A60BA6D5A60FA6D9A603B00473336
:10225000DB7F002B23D000203D4A8024936E9066C4
:1022600051683E4B640119403B004933DB7F1B033F
:1022700023400B4353603B0090664833DB7F83422F
:102280000DD03B000E214A33DB7F5B000B40390051
:102290004B31C97F0B43802149050B4393663800BE
:1022A00074300378002B00D1BCE67F212C4A44789F
:1022B00093780B407E396140C9010B43DBB29370C8
:1022C0000223C356002B01DA20335BB21F201179A1
:1022D000034081430B431371A4E6224B07A80793E5
:1022E000FFF75AFE039B0500002B00D110E70128E1
:1022F00000D00DE706E707A8C370A3788370637862
:10230000437023780370FFF747FE051E00D089E66F
:10231000B87BF91DFFF764FD0FE7C046004006409B
:102320000301000300127A00000100020301010111
:102330000003030001020000C403002001000001AB
:102340000101010101000002CC1C0020FFFFFFF091
:10235000008004400FF0FFFFD01C0020FFEFFFFFC4
:1023600000D007400101000138003B003A0039006D
:10237000393000783833373236311B7812780978A3
:1023800000900120FFF77CFD002812D138003B00AF
:102390003A0039003D3000783C333B323A311B780B
:1023A0001278097800900220FFF76AFD002800D11A
:1023B000E5E6050036E605211026FA6E4A439A182E
:1023C0009446114A03929C4500D1DCE61A780399A1
:1023D0005200515A0D4A890089180A680C48E024B5
:1023E00002400F200A601A79E404024058788007FE
:1023F00002439878000620400243D8780533000154
:10240000304002430A60DEE702CE01000050064081
:10241000FFFFFFBFF8B506000D00112835D80F28C3
:1024200000D9ABE0EEF724FC080D0F55111417AAE4
:102430001A1D2025272A2C2F0020FFF7CFFA002471
:102440003EE00120F9E70220F7E7FFF79BFAF6E705
:10245000FFF7B0FAF3E7FFF785FAF0E76E4B18687D
:10246000EDE7FFF743FBEAE700210420FFF7E2FA7C
:10247000E5E70121F9E700210520F7E70121FBE766
:1024800000210620F2E70121FBE7212800D978E0AE
:1024900015380C2800D971E0EEF7EAFB07171B1E70
:1024A000212B3D4F596165696D005C4BDB689B01D9
:1024B00000209B0F0400032B02D0594A9B00985820
:1024C000002D00D028602000F8BD544BDB681B01B4
:1024D000EEE7FFF74BFBB2E7FFF724FBAFE7002087
:1024E000504B04009B78DB09012BE9D0FFF7E2FA9F
:1024F000E6E700204B4B04009B78DB09012BDFD083
:10250000464B1A6901231000184004001A42D7D024
:10251000FA20800093E70020424B04009B78DB09FF
:10252000012BCDD03D4B1A690223100018401A42EE
:1025300000D184E7FA20C00181E70020394B040074
:102540009B78DB09012BBBD0FA204002B8E7334B64
:102550001B6C1B0901249C4300202402B0E72F4B75
:102560001B6CDB08F6E72D4B1B6C9B08F2E72B4B33
:102570001B6C5B08EEE7294B1B6CEBE70020042487
:102580009EE7042443289ED80020222E98D03200B3
:10259000323AD2B2112A04D8234BD340DB0700D5FC
:1025A0008EE7224B7200D35A214A9B009B585B0056
:1025B00003D480240020640082E71E4B9F5D20230B
:1025C000380018401F4218D00120FFF707FA0028F2
:1025D000EFD01823380018401F4200D12FE71024F5
:1025E0003C403F0710D4002CE3D001213000FFF71E
:1025F000FDFA44424441240262E77B06E5D47BB203
:10260000002BE6DA0220E0E700213000FFF7EEFAC7
:10261000002CEED0E9E7C046CC1C0020008004402E
:10262000D01C002000D007402901020002CE01008A
:1026300000500640BCCD010010B5044C2060217153
:102640000020A2602373637310BDC046DC1C002011
:10265000F0B585B003AE009001913070717003F059
:1026600079FD2E4D00242B7B6B730123B3702B7BE4
:10267000A34214D8009A2B689200D058FFF7ACFC04
:10268000009B071E6B7121D102230400B3702B7BCA
:10269000A3422AD803F052FD380005B0F0BDAB6864
:1026A000A200D358002B02D10134E4B2DFE71A793B
:1026B000022AF9D030001A68996890470028F3D0B0
:1026C000019B6C73002BEFD10427FF370023A4007C
:1026D000B370AB681B59002B03D030001A6899689F
:1026E0009047043C231DF4D1D4E7AB68A200D35833
:1026F000002B02D10134E4B2C9E71A79012AF9D0DA
:1027000030001A68996890470028F3D0019B6C73D9
:10271000002BEFD182277F00BCE7C046DC1C0020E5
:1027200010B5FFF777FE10BD10B50A0000210AF0C2
:102730008FF810BD10B5054C83002068C0180368E1
:102740005960036800209A6010BDC046EC1C002050
