:1008000000380020255101008151010011CF000066
:1008100000000000000000000000000000000000D8
:1008200000000000000000000000000081510100F5
:100830000000000000000000815101002DCD0000EB
:100840004DB1000055B100005DB1000065B1000080
:100850006DB1000081510100815101008151010001
:10086000E9CC00008151010071B200007DB50000AB
:10087000D1B6000081510100815101000BB7000089
:10088000815101008151010081510100815101001C
:10089000815101008151010081510100815101000C
:1008A000F1C1000085B50000D5C4000081510100F0
:1008B00081510100815101008151010081510100EC
:100C0000FFFFFFFFFFFFFFFFFFFFFFFFFE7FFFFF75
:100C1000054B1A69054B197801231800994200D039
:100C2000500818407047C04640F00F40F0170020B1
:100C3000044B1869044B1A7801239A4200D118001A
:100C40001840704740F00F40F0170020D0B5002347
:100C50001400002206000F0014F0A4FA00281BD193
:100C6000226863683000390017F0B4FE02000B0000
:100C70002069616916F006FFA268E368206161617E
:100C80003000390017F0A6FE02000B00A069E169F0
:100C900016F0F8FEA061E161D0BDF7B51E0001922B
:100CA00000282ED000292CD0002400250A9B801972
:100CB0001C605D60431E134A0093099B9B18089AB1
:100CC000DB00D718009B9E4212DC019BF100083923
:100CD0005918086849680CCF17F07CFE02000B0019
:100CE0002000290016F0CEFE013604000D00E9E7D1
:100CF000002300222000290016F0C4FE0A9B186081
:100D00005960F7BDFFFFFF1FF0B58BB00092019354
:100D100006900791002200980199002314F042FAEE
:100D2000041E08D1109BDB000593129B083B09931E
:100D3000079BA34201DC0BB0F0BD119AE300D3186E
:100D40001E685F68002200233000390014F02AFA80
:100D5000002804D0139B013404331393E8E73B00CD
:100D600000980199320017F035FE139E139BB4468C
:100D7000DF00099B02900391DD19069B63440893F1
:100D8000089B9E42E6DA02980399059AEB1B9B1892
:100D90001A685B6817F01EFE02000B00286869687D
:100DA00016F070FE013603C5EAE7F0B58BB000908F
:100DB0003C481218D3000293029A009B09189C1811
:100DC0002268636806920793CB000593059A009BFF
:100DD000069807999D18109A119B17F0FBFD2E6835
:100DE0006F68129A139B089009913000390017F030
:100DF000F1FD02000B000898099918F0B3F8109A59
:100E0000119B206061603000390017F0E3FD129AF9
:100E1000139B06000F000698079917F0DBFD0200F0
:100E20000B003000390016F02DFE28606960029D2D
:100E3000009B059C08355D1908341C192A686B68ED
:100E40000092019300980199109A119B17F0C2FD2E
:100E500026686768129A139B02900391300039004C
:100E600017F0B8FD02000B000298039918F07AF809
:100E700028606960109A119B3000390017F0AAFDB4
:100E8000129A139B06000F000098019917F0A2FD1B
:100E900002000B003000390016F0F4FD20606160A4
:100EA0000BB0F0BDFFFFFF1F002303700B4B10B50D
:100EB0000B4ADC68944209D98622DC68D20194424C
:100EC00004D8DC68944202D80123037010BDDB68AB
:100ED0009342FBD90029F7D0F8E7C046600500200F
:100EE0000340000003004118002010B5034A1C789D
:100EF00001336040105C8B42F9D110BDECA50100BC
:100F0000034B1A6A5A6A012234331A707047C0467A
:100F10006005002070477047C0231B02984204D12F
:100F2000024A936B01339363C0467047600500200B
:100F3000692801D0542807D10322084B802904D105
:100F40001A70074A126A1B78704708001040114255
:100F500001D01970F5E71870F3E7C046C0FDFF1F18
:100F6000600500200022014B1A707047C0FDFF1F72
:100F700010B501280CD100210D4A0E4B11701A003A
:100F8000423214788C4202D034331870117010BD84
:100F90000028FCD10121064A064B11701A00343298
:100FA0001478002CF3D0423310701970EFE7C0466C
:100FB0009C0500206005002010B5064C06482478EA
:100FC000012C06D1541E012C01D8C36001813C3094
:100FD000427010BD9C050020600500207047094B41
:100FE00010B51B780848012B0AD1002303E0D45C1C
:100FF000C45401335BB28B42F9DB01233C30C37034
:1010000010BDC0469C05002060050020044B10B5B3
:101010001C780448012C01D10261197110BDC04631
:101020009C05002060050020034B59619A61012254
:101030003C335A717047C04660050020542807D1E0
:1010400000230B71034B1A6A5A64012248331A7049
:101050007047C04660050020034BC0001818034BC2
:10106000436083607047C046C0FDFF1FFFFF000064
:1010700010B5080012F082FC002010BD10B51C0055
:10108000080011009AB209F065F9200010BD10B5F2
:101090001C00080011009AB209F000FA200010BDEF
:1010A000D92330B50400006885B01B02984200D1F6
:1010B000AAE033D8D3231B02984200D109E11BD800
:1010C000C123A64D1B02984200D135E10133FF3305
:1010D000984200D137E1C0231B02984200D12BE196
:1010E0002B6D5D69002D58D02300A21D46331B785F
:1010F000D28F211DA84750E0D7231B02984200D170
:10110000B1E00133FF33984200D197E0D6231B02B0
:10111000984200D1C2E0914B1B6DE2E7904B9842A0
:1011200000D1FAE01CD8EF231B02984226D08D4B49
:10113000984200D1DDE0DF231B02984252D0874B5A
:10114000010AC9B21B6DEF29CBD99D69002D24D0AE
:10115000A31D221D46342478DB8F0094A8471CE091
:10116000814B984219D0814B9842E8D17B4B211D8D
:101170001B6D46342078DB6B98470EE02300473325
:101180001B78232B09D10F21A27923791509A06897
:101190000A40102B03D0182B0ED005B030BD6F4B7A
:1011A00046341900247830310C70190098623131BE
:1011B00032330A701D70F0E76D494634247809789F
:1011C000664B8C42E9D11900313109789142E4D162
:1011D0001A0032321278AA42DFD1D8621B6D1B6925
:1011E0009847DAE7230047331B78232BD5D123799F
:1011F00001201F2B03D03F3B5A1E93415800574BF1
:101200001B6DDB699847C8E7230047331B78232B06
:10121000C3D11F2023896179E2881B0413430A0785
:10122000814320794D4D0143200064892D6D463066
:10123000007800942C6A520FA047AEE72300473392
:101240001B78232BA9D162792079D1004D33194025
:10125000A379463401432078404C1207246D520F85
:10126000646AA04799E7230047331B78232B00D0FB
:1012700093E700212579032203A8029119F072F95E
:10128000611D2A0002A819F083F92900334B463466
:101290001B6D20789B6A02AA98477EE7230047339C
:1012A0001B78232B00D078E72179FF228B1E012B9E
:1012B00009D8A279637912021A43E3791B04134314
:1012C000227A12061A43254B46341B6D2078DB6ABE
:1012D000E2E7230047331B78232B00D05DE7230090
:1012E000463318781D4BA2681B6D61681B6B9847CD
:1012F00053E71A4B1B6D9B68002B00D14DE7220072
:10130000217946321078802901D1984745E76179E3
:101310004A1E022AF9D90021F7E722790F4B802AC9
:1013200006D11A000121543211701A6A9A6534E705
:10133000002254331A7030E72B6D221D4634217879
:101340005B6C984729E72200231D463421782C6DD9
:1013500047321278A46CA0471FE7C0466005002002
:101360008DFF00008CFF00008EFF0000FCFF0000DE
:101370009005002070B50A21050014F01FF928001F
:10138000CCB20A2114F034F8C0B20A280FD814F0F5
:101390001BF8060F0F0E0E170E0E0E0E1F0000226A
:1013A0000F4B01341A700F4A147001221A7070BD6D
:1013B00000220B4B01341A700A4A14700222F5E71E
:1013C0000022074B01341A70064A14700322EDE71D
:1013D0000022034B57201A700BF014FEE7E7C046BB
:1013E000BC050020BD05002010B554200BF00AFEFE
:1013F0000022034B1A70034B01321A7010BDC04615
:10140000BC050020BD050020F0B5E627002600241D
:101410000025801889B0431E0791039206937F052B
:10142000069B039A93420BDA2000290015F0CAFDAF
:1014300002000B003000390017F0CCFA09B0F0BD03
:10144000039B079ADB00083BD3181A685B68049279
:101450000593049B32000093059B5B005B0801939E
:10146000009801993B0013F0B7FE00281BD0009AAA
:10147000019B3000390016F069FE06000F002200C3
:101480002B0017F0A7FA32003B0017F0A3FA002256
:101490000F4B16F0F7FA04000D00009E019F039B0E
:1014A00001330393BCE73200049805993B0016F022
:1014B0004DFE02000B0017F08DFA02000B00200019
:1014C000290016F0DFFA0096019704000D00E4E70A
:1014D0000000F03FF0B5066847687B005D08E62332
:1014E00085B000220090290030005B0513F074FEE7
:1014F0003400002200283DD1294B3000390017F07C
:1015000069FA02000B0017F065FAE6250024029044
:1015100003916D05009B20009A68DB68009201939F
:10152000009B29001E00019B32005B005F083B000E
:1015300013F03EFE002821D032003B00200029009D
:1015400016F004FE04000D0002000B00029803993F
:1015500017F040FA22002B0017F03CFA0022114B42
:1015600016F090FA15F02EFD32003B0017F032FA1B
:1015700005B0F0BD0B4B02920393CBE7220000981D
:1015800001992B0016F0E2FD02000B0017F022FA81
:10159000029A039B16F076FA26002F00E2E7C04677
:1015A000000020630000F03FF0B50E684F6891B076
:1015B0000D930368446800930194009B0496029382
:1015C000019B09905B005B0803937B005B0805931C
:1015D00008910C9202980399049A059B13F0FCFD64
:1015E000009B019C0A930B94002801D10A960B974B
:1015F000049A059B029803990024002516F042FAEC
:1016000022002B000690079113F0CCFD00280FD08C
:1016100000220D9B0C991C605D603F4B0A604B6083
:10162000099B1C605D60089B1C605D6011B0F0BD93
:10163000069A079B0098019916F088FD069A079B69
:101640000E900F913000390016F080FD0E9A0F9B1E
:1016500006000F001000190017F0BCF932003B0023
:101660000E900F913000390017F0B4F902000B0012
:101670000E980F9916F006FA15F0A4FC02000B0064
:101680000698079917F0A6F9220006000F000A989D
:101690000B992B0013F08CFD002803D08021090644
:1016A0007B181F000098019932003B0016F04EFD98
:1016B0000C9B32001860596008993B000868496823
:1016C00016F044FD04000D00029803990D9B1C6068
:1016D0005D60049A059B13F07FFD002812D10C9BDE
:1016E00000221C685D6800232000290013F05AFDC9
:1016F00000280ED122002B000020074916F026FDFD
:1017000004000D00089B1C605D60099B1E605F600B
:101710008CE70024004DF5E70000F03F73B50800AA
:101720001400062928D813F04FFE6757047827279E
:1017300078005079937900021B04184313791843F9
:101740001300463319783F4B98421CD031D8D82328
:101750001B02984217D01FD8D6231B02984212D0E2
:1017600018D8C1231B0298420DD0D3231B029842E4
:1017700009D0012212F0FDFA73BD334BC218334B6E
:10178000D340DB07F5D5324B47341B6D22785B6BBA
:101790009847F1E7D723E9E7EF231B029842F2D0FD
:1017A00005D8D9231B029842EDD0DF23DEE7294B71
:1017B000DDE7294B98420DD8284B9842DDD8284BBD
:1017C0009842E0D004D8274B9842DCD0264BCEE795
:1017D000264BCCE7264BCAE7137A232BCCD1A07A31
:1017E000E37A00021B041843637A52791843184BBA
:1017F00021791B6D9B6BCBE71068154B010AC9B2B1
:101800001B6DEF2911D85D69002D0AD02300063227
:1018100046331B78D28F211DA8472000FFF740FCDC
:10182000AAE72000FFF73CFCF7E79D69002DF8D000
:10183000260046363678931DDB8F04320096A84783
:10184000EBE7C046F5FB00005000FFFF21008000E1
:101850006005002097F10000C7FF0000AFFF000007
:101860000FFF0000C5FD0000DAFE00007EFF000053
:10187000FCFF000037B500256B46DD71073304001F
:1018800012F076FAC0231B029C4208D16B46DB792A
:10189000AB4204D02A002321200012F06AFA37BD9F
:1018A00013B50C0011001A00232C05D1232903D1F4
:1018B0006B46073312F05CFA13BD07B50122054BE6
:1018C0001A70054B1B6A0193C04601A812F0C0FEB6
:1018D000C04607BDBE05002000400240F0B50C0028
:1018E00000218BB0150003918C420AD0012C00D14D
:1018F000B5E0614B03A81B6A039312F0A9FE0BB07D
:10190000F0BD142353435D4F1000DE1931000093E6
:1019100013F062FA8023766801901B019E4204D383
:1019200080239B059E426441013414236B43FB18C2
:101930001A7C0023009D049308357D1904AF29000B
:101940003800059318F024FEEF224D4B120433406B
:10195000934213D13B78102B0CD0012C66D1494B0C
:101960001C789F785B78E31A9F4218D1162E5DD1C0
:10197000454B34E0454B1A6A5A62EEE7012C06D11A
:10198000404B1C789F785B78E31ABB4207D1404BF1
:10199000F0180328EAD813F017FD1D244F5D082323
:1019A0000696099304AA07AB03CA03C3394A230165
:1019B000106B0092C018102206A918F0E9FD009BD8
:1019C00001342C333900E0B2009313F0D9FC009BB2
:1019D0001970DCE7304B1B78002B27D12F4B0122ED
:1019E00023E02D4B1B78002B20D1C046274B2968C4
:1019F0006A6819665A66914218D31C00012068343F
:101A000020701C005F341D0020709042A441693595
:101A100064422C70002A00D1020001315A66891AF2
:101A200000221966DA661A6774331A70019B002B5C
:101A300000D15EE7C0465CE7C046194A134B1278F6
:101A4000002AF3D12A6819009A6701227C310A70B2
:101A50005F33EAE7EB79FF2BE8D1124BBFE70B4B83
:101A60001A6A114B5D19186829719968121A8A420D
:101A700000D83EE79A603CE700400240AC120020EC
:101A80000000FF03ECFDFF1FDD05002060050020C6
:101A900000FAFFFFC0FDFF1FF4170020BF05002064
:101AA000C8050020D4050020E0050020F0B587B06F
:101AB00000930CAB1B880290039102A81100150043
:101AC0000193032412F02EF80123019A009902A831
:101AD0000AF0F2FF0023144E0593144BB0811F6AE5
:101AE000002810D002AB18780399013C12F094FC46
:101AF000E4B2290002A812F015F8002CE4D101206C
:101B0000404207B0F0BD05A902A80BF083F8B081F0
:101B1000022805D1054B1B6ADB1B632BF3D9E1E7D8
:101B20000028DFD1EDE7C046E00500206005002079
:101B3000F0B5464B85B09A7B0192012A00D082E035
:101B40004349444A0D78002D7AD1926B4249920064
:101B500054589B1818221B690293236893432360EF
:101B600000276B1C0393DB00EEB2E31831009F608B
:101B70003A00200009F0F8FD31003A00200009F099
:101B8000E1FD2022236876089343019A2360AA404E
:101B9000236F10359343019A2367AA402368F60008
:101BA00093432022B2402360636E039D93438022BF
:101BB0001100B1406366636E8B4301996366B14067
:101BC000636E8B431021B1406366636E8B43636623
:101BD00040231800B040616E81436166082DBFD17B
:101BE000A16E1E481B4D0140C020A166A16E81431D
:101BF0000B433F21A366A36E8B43A366E767636D28
:101C000093436365636D203A93436365A3681B0C3C
:101C10001B04A36063681B0C1B046360029B5F7062
:101C2000AC6B0D4BA400E05809F000FD07482A00FA
:101C300001000419343218311C30276111F0CFFD36
:101C40000022024B9A7305B0F0BDC046E0050020AB
:101C5000F4FDFF1FC0FDFF1FA4A50100FFFFF0FF63
:101C6000F0B5002685B03A4C637F002B00D16AE0C6
:101C7000384BF75C092F00D965E000216B4699814C
:101C800002237800683000930A00C0B203AB10F062
:101C90006DFA051E13D16B466A465B7B107B1B02F7
:101CA000C01800B2002829D101222900A37F9A423E
:101CB00069415B18DBB2A377934200D9E277264BE8
:101CC0001A8D12B21A861A8DA2855A8D12B25A86B0
:101CD0005A8DE2859A8D12B29A869A8D2286002DAF
:101CE00009D11E4A116A1E4A1160626B092A2CDC56
:101CF000013262631B8D28B205B0F0BDA57717F0E5
:101D0000EFFC184B002217F02DF918F0F7FA124BE0
:101D100000B2092F05D1D88620840136072EA2D122
:101D2000CDE7032F02D118876084F6E7002F01D199
:101D30005887F2E7320014325200985223007200A2
:101D40002433D052E9E70625B9E76563D3E7C046F7
:101D5000E0050020ACA50100501700206005002020
:101D6000D01800200057A540F0B52F4D2F4E6B7FA7
:101D700085B0002B55D02C00202738343A000021A4
:101D8000200018F0EFFB00222300110075200097BF
:101D900010F03EF9041E45D12B004E331A785B78C3
:101DA00089351B02134328781BB258430200633263
:101DB0002300C62A0BD918F013FA1D4DE96B17F052
:101DC0000DFF296C15F00EFC18F0EAF90300194D0F
:101DD000194A3364136A6969126A5B1AAB616A61F2
:101DE00002D5FA235B00AB61A86917F079FC376C68
:101DF00002900391380017F073FC02000B00029868
:101E0000039916F0E7FD00220C4B16F09FF918F02D
:101E10001DFBE861002C01D1336C2B6220B205B0B0
:101E2000F0BD06240023D2E7E00500205017002073
:101E3000C0FDFF1F600600206005002000408F40AD
:101E400010B512F081FD12F07FFD1F4B1F4A117873
:101E50001A00C9B23D321172190030310978C9B285
:101E6000517219002D310978C9B2D171190035317B
:101E70000878190036310C78190037310978204379
:101E800001435173190034310978C9B21173190033
:101E90000A31C97FC9B2117119000B31C97FC9B2AA
:101EA0005171D91DC97FC9B2917019000831C97F1C
:101EB000C9B2D1701900323109783333C9B2917285
:101EC0001B78DBB2D37210BD600600208E060020A6
:101ED00070B50B4E0B00020004000D00306D716DEB
:101EE00013F060F903000120002B07D1B06DF16DF4
:101EF0002B00220013F056F9431E984170BDC046D6
:101F000060060020064A10B5140000230C409442DD
:101F100004D10B031B0B03435A1E9341D8B210BDCF
:101F20000000F07FF0B585B000900191029203931C
:101F3000009B1E00019B30005B005F08029B390084
:101F40001C00039B22005B005D082B0013F030F99E
:101F5000002814D0029A039B0098019916F0F6F815
:101F600002000B0016F036FD00221A4B15F08AFD18
:101F700015F028F822002B0016F02CFD23E022009B
:101F80002B003000390013F027F9002812D0009AF6
:101F9000019B0298039916F0D9F802000B0016F085
:101FA00019FD00220B4B15F06DFD15F00BF83200FA
:101FB0003B00E1E720002900FFF7A4FF002804D040
:101FC000054B186E596E05B0F0BD30003900034A5C
:101FD000034BD1E70000F03F60060020CD3B7F6659
:101FE0009EA0F63FF0B5B9B00991109201004022D1
:101FF00028A818F0CDFA00240023249325942093D8
:1020000021942693279422932394022300240D9352
:102010000523634328AA0A93DB00D3181A685B6878
:1020200000210492059300220A9BE50002330693E7
:1020300024AB5B1919605A6003231B1B1800069A16
:1020400028A91193FFF7E0F90022002306000F00F2
:1020500013F0A8F8002800D052E104980599320046
:102060003B00FFF75FFF002206000F000498059970
:10207000002313F0BBF8002806D080231B06FB18B2
:1020800014961593149E159F0A9B16961B1B0433DA
:102090000F937B005B081793D4231698179900229F
:1020A0009B0413F085F8002800D1F7E00A9B28AACA
:1020B000DB00D51800230C930C9B0B9501330C937C
:1020C000069B0E930B9B0F9A08330B930E9B934228
:1020D00000DCCAE0002230003900B94B16F07AFC6F
:1020E0000F000600049805990022B54B16F072FC0B
:1020F0007B005B081993D4231896049005911898D7
:10210000199900229B0413F053F8002802D00C9B6D
:10211000142BD1D1069A119828A9FFF775F902005E
:102120000B0004980599FFF7FDFE002206000F0042
:1021300004980599002313F059F8002806D080234D
:102140001B06FB181A961B931A9E1B9F24ABE400D8
:102150001C193000049A059B390016F003FF320069
:102160003B0015F0F3FF32003B00206061600498F3
:10217000059916F0F7FE02000B000020914915F0BA
:10218000E5FF04900591069B0F9A0835934279DD8F
:102190000024D423300039009B04002216F01AFCDE
:1021A0000C9B013406000F00A342F2D10A9B28AA1F
:1021B000DB00D3181E605F600D9B012B00D0A2E0F6
:1021C000289A299B10990024002508000A604B607A
:1021D0008C60CD601022103030A918F0D9F902239C
:1021E000209421950D9F0A9305237E1C5E43731F47
:1021F0000B93002F00D0EEE00020724928AADB00EC
:10220000D31818605960249B259C04930594049866
:1022100005990022002312F0C5FF002800D0DAE063
:102220000424694B28AAF318DB00D518002228687B
:102230006968002312F0B6FF002800D0C6E0350020
:1022400033190693069BAB4200DC11E1EB00083B1F
:1022500028AAD118086849680022002312F0A2FFBA
:10226000002800D127E10135ECE70B99544B0868B1
:102270004968002216F0AEFB0B9B186059600E9B5C
:1022800001331EE7049A059B2868696816F0A2FBD3
:10229000069B286069600133069374E724AB5C19E0
:1022A0003000049A059B390016F05CFE32003B00BA
:1022B00015F04CFF320020606160049805993B00E6
:1022C00016F050FE02000B0000203E4915F03EFFC4
:1022D0000A9B04900591DB0028AAD4180F9B069A4C
:1022E0000834934200DA61E7049A059B206861682C
:1022F00016F070FB069B2060616001330693EDE7EA
:10230000049E059F52E700222E4B28922993249B7E
:10231000259C06930794069807990022002312F043
:1023200041FF002820D1042328AD2C000493002273
:10233000A069E169002312F035FF00280ED10400E6
:10234000049BA34216D0286A696A0022002308353C
:1023500012F028FF002830D00134F1E7049B083C3C
:10236000013B0493002BE2D10123289629971C00FE
:102370000D934DE60024012520AB029328AB2100EC
:102380000498009328AA05230195FEF786FC802275
:1023900012069446069B21001C93079B04986344F5
:1023A0001D930523039328AB029320AB0193009563
:1023B0001C9A1D9BFEF7A8FCD6E70124DBE7C0466C
:1023C0000000907C0000F03FFEFFFF1F013C083D35
:1023D000002C00D02AE7F31B013B0693414B28AAAF
:1023E000F318DB00D418FF0024ABDB191A685B6814
:1023F00004920593049B059A1293802394461B062E
:102400006344F51E1393069B9D4256DD0B9B28AA41
:10241000DB00D4180020049A059B334916F0A2FD76
:102420000A9B20606160012B50D1289A299B099951
:102430000A604B602A9A2B9B8A60CB602C9A2D9B5A
:102440000A614B612E9A2F9B8A61CB61309A319B36
:102450000A624B62329A339B8A62CB62349A359B12
:102460000A634B63369A379B8A63CB6339B0F0BDFE
:102470000023069320AB351F029328AB200006995A
:10248000009328AA33000195FEF707FC802212066C
:102490009446049B20001E93059B069963441F935A
:1024A00028AB029320AB0193039600951E9A1F9BC5
:1024B000FEF72AFC8FE70123DBE720686168129AA8
:1024C000139B16F087FA013503C49CE7B31F28AAB3
:1024D000DB00D3180021002219605A600D9B0027F1
:1024E0000A9381E6FCFFFF1F0000F03FF0B51600E5
:1024F0001F00002204000D0000233000390089B0C5
:1025000012F050FE0022002800D067E000232000D7
:10251000290012F047FE002800D065E079004B0842
:10252000009601936B0020005908009A019B15F05A
:10253000A9FA02000B00049005912000290015F073
:1025400005FE049A059B069007913000390015F0AE
:10255000FDFD069B0F001C00079B49005B005D080A
:10256000060002004B0820002900FFF7DBFC0200F8
:102570000B00009001912000290015F0E7FD2200DA
:102580002B00029003910698079915F0DFFD0400D7
:102590000D0002000B003000390016F01BFA009A03
:1025A000019B15F0D3FD009A019B06000F000498D3
:1025B000059916F00FFA22002B0016F00BFA040012
:1025C0000D000299039A0E9B19605A600F9B1E60C2
:1025D0005F60109B1C605D6009B0F0BD074B00267A
:1025E000002702920393ECE70022002334003D0011
:1025F000002602920393014FE3E7C0460000F03F3C
:10260000F0B5D5B012AF33AC8222059006913800F8
:10261000314917F0BDFF82222000304917F0B8FF82
:102620002F4B08AE08932F4B1A22099332232E49C1
:102630000BA8338117F0ACFF059B1A685B68029208
:10264000039302980399294B0793294B00229B5E21
:1026500001940493049A00960BAB0FF0FFFA049ACE
:1026600004000D0002980399019700960BAB0FF040
:10267000F5FA002206000F00200029001D4B12F081
:10268000ABFD002822D10022200029001A4B12F0B5
:102690008FFD00281DD1059B20009A68DB6829006A
:1026A00015F0F0F9079B04009A6EDB6E0D00300008
:1026B000390016F08FF902000B002000290015F0F8
:1026C000E1F9069B1860596055B0F0BD0024094D32
:1026D000E1E70024084DDEE77EA80100FCA7010029
:1026E0000A0014001E002800B4A5010060060020A6
:1026F0002407002000CCB04000408F40F0B5D7B098
:1027000014AD060082222800099135AF4C4917F01C
:102710003FFF82224B49380017F03AFF4A4B0AAC80
:102720000A934A4B1A220B93322349490DA823815D
:1027300017F02EFF32687368029203930298039990
:10274000444B00229B5E00940493049A0DAB0197C6
:102750000FF084FA049A0690079102980399019564
:1027600000940DAB0FF07AFA3B4C00223B4B0490E7
:102770000591A06EE16E16F02DF917F067FEB834E2
:10278000051C3749206817F029FA011C281C17F08E
:1027900005F917F013FE0022324B16F01BF9029ACE
:1027A000039B15F06FF900222C4B04000D0012F072
:1027B00013FD00280AD1002200232000290012F076
:1027C000F7FC002804D00024002501E00024234D5C
:1027D000099B254A1C605D60049805998023F76871
:1027E000B6681B06FD18214B16F0F4F8069A079BF5
:1027F00016F0F0F802000B003000290015F0A6FCDE
:102800000D0015490400886EC96E0022184B16F0A1
:10281000E1F8069A079B15F099FC02000B002000D6
:10282000290015F02FF900220E4B16F0D3F83B00CB
:10283000320015F027F9099B9860D96057B0F0BDB8
:1028400070A70100EEA601000A0014001E00280077
:10285000B4A50100240700206006002000005940B4
:10286000000061450000E03FFCA9F1D24D62503FFD
:1028700000408F40F0B506684768C5B028920093C5
:102880003C963D978368C4680191029303943E93FC
:102890003F94036944690693079440934194836984
:1028A000C4690893099442934394FEF713FE0022EF
:1028B000002304000D0012F08FFC002800D1FFE07F
:1028C000002200233000390012F072FC002803D0EF
:1028D000802109066B181D006B005908D4230022C3
:1028E0009B04200012F082FC22002B00002800D163
:1028F000D9E00020774915F029FC02000B000C906C
:102900000D913000390016F065F80C9A0D9B0A9075
:102910000B910298039916F05DF806000F000A98D3
:102920000B9900226B4B3E963F9715F0ABF80200D7
:102930000B003C923D9380231B06EB180290039101
:1029400039930B0006980799389416F043F8320033
:1029500004000D00089809993B0016F03BF80200AE
:102960000B002000290015F08DF8029A039B15F04A
:10297000EDFB80231B06C9183CAAFEF767F9429BB2
:10298000439C3C9E3D9F0C930D943A933B94409BFB
:10299000419C029303943493359400230024019ABC
:1029A00036933794136154613E9B3F9C089309947E
:1029B0009360D4600024474D166057609461D561E0
:1029C000389A399B069207930698079900220023AC
:1029D00012F0E8FB00220023002876D130003900F5
:1029E00015F0F8FF089A099B15F04CF832003B00EF
:1029F00015F0ACFB80230A900B910A9A1B0610007D
:102A00000B9AD118019AFEF721F9802212069446FA
:102A1000089B32000A93099B200063440B93290012
:102A20003B0016F09FFA0A9A0B9B019EB260F3607E
:102A3000002200233060716000990A614B618A6056
:102A4000CB608C61CD610C604D60069807990022C7
:102A5000002312F0A7FB00283ED106980799069B99
:102A60001C00079B22005B005D082B0015F06EFB2D
:102A700002000B0006000F000298039915F066FB98
:102A80003294339538943995019C02900391250036
:102A90001035AC4220D02068616832003B0015F050
:102AA00099FF03C4F5E73000390015F04FFB220011
:102AB0000A900B91029803992B0015F047FB2CE725
:102AC000002300243893399459E7200029000A9202
:102AD0000B93A8E70000F03F00220298039900231F
:102AE00012F060FB00282CD1029B1E00039B3000DB
:102AF0005B005F083900029A039B3296339715F00A
:102B000025FB04000D0002000B000C980D9915F038
:102B100061FF3A903B9100992200086949692B00B6
:102B200015F058FF009B22001861596100992B0095
:102B30008869C96915F04EFF009B0296039798615A
:102B4000D9613A9C3B9D002200232000290012F00D
:102B500029FB002815D16B005F0822003B002000F4
:102B6000290015F0F3FA26000D0004003296339781
:102B70003A963B97019E019F10362037B74200D00E
:102B80008CE0029B039C3A9E3B9F02992C932D94D0
:102B90000A00349335940399399C490064004B082A
:102BA0003898610814F036FA0022002314F032FA43
:102BB0007B0004000D00002259083000002314F0AF
:102BC00029FA0B0002002900200014F023FA022346
:102BD0002A902B91069300230C93069B389E399FD5
:102BE000013B0293069B012B01D100F0B9FB349B02
:102BF000359C08930994089B1C960493099B5B00E1
:102C00005B080593049B059C329333943A9B1A937B
:102C10003B9B5B005B081B937B005B081D931C9A2E
:102C20001D9B1A981B9914F02DFF0022B24B15F032
:102C3000D1FE02000B000498059912F0C3FA002897
:102C400034D00023002434933594029B38AADB004F
:102C5000D3181E685F68002200233000390012F08C
:102C6000A7FA002818D0029B38AADB00D3188022CC
:102C70001206BA185A601E60029B00985A001B0187
:102C8000511CC31802328A4201DB00F05DFC029B3A
:102C9000002B01D100F0ACFB029B9BE73068716810
:102CA00022002B0015F096FE03C667E7D423049894
:102CB000059900229B0412F085FA0028C1D10C9BD3
:102CC000142B0DDD2A982B9900228B4B15F082FED8
:102CD00002000B000498059912F074FA0028B0D194
:102CE000069C002C01DA3FE03400002C00D105E105
:102CF00004980599069B9C4201DB0020002132903C
:102D00003391012C05D0049A059B14F0BBFE329040
:102D1000339132983399661EF50038AB5B191A6807
:102D20005B680E925B005B080F930E9A0F9B2C92D0
:102D30002D930022704B15F04DFE02000B000E98F3
:102D40000F9912F03FFA002808D10E980F99D4235A
:102D500000229B0412F036FA0028C5D00021002280
:102D600038AB5B1919605A60002C00D1C6E0069B95
:102D70009C422BD0631EDA0034A98A18106851686F
:102D80003290339100210020106051601A0113002D
:102D9000019908338918149101991032CB181893AE
:102DA00034A9E300CB181093019B9B180893069A53
:102DB000631C2993934200DC1DE3069B002B00D18A
:102DC0000BE30C9B4B2B00D007E706E3089B099C09
:102DD000329333940023002434933594029B1D01D5
:102DE000009B5D19029B1C01009B08341C19029B6F
:102DF000002B00DCF1E630AB2CAA32A938A8FEF794
:102E0000D3FB009B1E685F682C9A2D9B0892099348
:102E10002A686B680898099910921193309A319B2F
:102E20000A920B93109A119B15F0D4FD0A9A0B9BF2
:102E3000149015913000390015F0CCFD02000B0004
:102E40001498159916F08EF8089A099B2860696005
:102E50003000390015F0BEFD0A9A0B9B06000F00EA
:102E60001098119915F0B6FD02000B0030003900E2
:102E700014F008FE009B186059600A980B992268AC
:102E8000636814921593009B9A68DB681092119303
:102E9000149A159B15F09EFD109A119B06000F00C9
:102EA0000898099915F096FD02000B0030003900D2
:102EB00014F0E8FD149A159B06000F000898099974
:102EC0002E962F9715F086FD109A119B0890099168
:102ED0000A980B9915F07EFD0B00020008980999DD
:102EE00016F040F8009B206061609E60DF60029BEE
:102EF000013B02937BE7C0460000B03C029B38AA2E
:102F0000DB00D3181E685F68389B399C0A930B94CA
:102F10000A9B1E9612930B9B5B005B0813937B002E
:102F20005B081F931E981F99129A139B14F072F856
:102F300002000B000498059914F06CF802000B00D5
:102F40001298139914F066F802000B000498059982
:102F500014F060F804000D0002000B00300039008E
:102F600015F0F4F822002B00149015910A980B9993
:102F700015F0ECF822002B000290039108980999B3
:102F800015F0E4F8029B039C109011911498159988
:102F90001A0030933194230014F074FD149A159B99
:102FA00004000D000298039915F0DCFF02000B00ED
:102FB0002000290015F00EFD109A119B1690179114
:102FC0001000190015F006FD169A179B14F05AFD13
:102FD0000022E24B15F0FEFC06000F002E962F9704
:102FE000109A119B1498159915F0F4FC02000B002F
:102FF00015F0F0FC002214901591002330003900E8
:1030000012F0D0F8002800D092E232003B003000ED
:10301000390015F0DFFC149A159B14F033FD13F002
:10302000D1FF002204000D0000233000390012F00F
:10303000BFF8002806D080231B06EB1822942393A8
:10304000229C239D22002B003000390014F01AFD31
:1030500002000B001498159915F078F802000B0087
:103060001698179914F00EFD109A119B3290339117
:103070000298039915F0AEFC2EAB2C902D9130AA3E
:103080002CA932A8FEF790FA309B319C0898099938
:103090002E9E2F9F1A0002930394230015F09AFC92
:1030A000320004000D000A980B993B0015F092FCC9
:1030B00002000B002000290015F054FF3A9C3B9DB4
:1030C0001490159122002B003000390015F082FC7D
:1030D00022002B002C902D910298039915F07AFC78
:1030E000009B169017911C685D68029803991A69F5
:1030F0005B691092119315F06DFC22002B00189063
:1031000019913000390015F065FC02000B00189889
:10311000199915F027FF009B220018615961029848
:1031200003992B0015F056FC109A119B04000D001A
:103130003000390015F04EFC02000B002000290081
:1031400014F0A0FC009B9C68DD68186059609A69C7
:10315000DB69029803991092119315F03BFC220051
:103160002B00189019913000390015F033FC020043
:103170000B001898199915F0F5FE009B2200986134
:10318000D961029803992B0015F024FC109A119B29
:1031900004000D003000390015F01CFC02000B008B
:1031A0002000290014F06EFC009B9860D960029A00
:1031B000039B0A980B9915F00DFC320004000D00DA
:1031C000089809993B0015F005FC02000B0020004F
:1031D000290014F057FC2EAB3890399130AA2CA955
:1031E00038A8FEF7E1F9309B319C149815992E9E72
:1031F0002F9F1A0002930394230015F0EBFB32007B
:1032000004000D00169817993B0015F0E3FB02002F
:103210000B002000290014F035FC03000C00329351
:10322000339480231B06FB1825932496149A159B30
:103230000A900B912498259915F0CCFB029A039BD8
:1032400004000D001698179915F0C4FB02000B003E
:103250002000290014F016FC369C379D3A903B91D3
:1032600022002B003000390015F0B4FB22002B00A7
:103270002C902D910298039915F0ACFB019B369090
:1032800037911C685D68029803991A695B69089216
:10329000099315F09FFB22002B0010901191300034
:1032A000390015F097FB02000B001098119915F0EA
:1032B00059FE019B220018615961029803992B0065
:1032C00015F088FB089A099B04000D0030003900B6
:1032D00015F080FB02000B002000290014F0D2FB47
:1032E000019B9C68DD68186059609A69DB690298E7
:1032F00003990892099315F06DFB22002B001090A2
:1033000011913000390015F065FB02000B00109898
:10331000119915F027FE019B22009861D96102984E
:1033200003992B0015F056FB089A099B04000D0029
:103330003000390015F04EFB0B0002002900200080
:1033400014F0A0FB019B9860D9600A9B0B9C3493FE
:1033500035940C9B01330C932FE5C0460000E03FF1
:10336000002200233000390011F022FF002800D095
:1033700079E43A9C3B9D300022002B00390011F08B
:1033800017FF002829D038943995009B009C00999C
:103390001A685B680869496922616361A268E36829
:1033A00020606160A069E169A261E361A060E16001
:1033B000019B019C01991A685B68086949693A9602
:1033C0003B9720606160A069E16922616361A26846
:1033D000E368A060E160A261E361389A399B2899B3
:1033E0000A604B603A9A3B9B8A60CB6045B0F0BD67
:1033F000389E399FBDE7E40038ABE0182CAA30AB0B
:1034000032A9FEF7D1F8109B1C685D68309A319B99
:1034100002920393029B039A2093802394461B06F7
:10342000634421932200209821992B0015F0D2FAB1
:103430002C9A2D9B32903391200029000A920B93F5
:1034400015F0C8FA109B03C30A980B991093089BB8
:103450001E685F68149B5C681B681A0016931794BB
:10346000230015F0B7FA320004000D00029803990A
:103470003B0015F0AFFA02000B002000290015F008
:1034800071FD149B3200186059600A980B993B003B
:1034900015F0A0FA169A179B04000D0002980399E4
:1034A00015F098FA02000B002000290014F0EAFA47
:1034B000089B18605960189B5C681B6816931794EA
:1034C000089B9E68DF68169A179B0A980B992E96A0
:1034D0002F9715F07FFA320004000D00029803992F
:1034E0003B0015F077FA02000B002000290015F0D0
:1034F00039FD189B3200186059600A980B993B00FF
:1035000015F068FA169A179B04000D0002980399AB
:1035100015F060FA0B0002002900200014F0B2FA46
:10352000089B299C9860D96010330893FFF73FFCF3
:10353000002214981599002311F034FE002800D1C0
:1035400063E5002200238BE580241868240626907A
:103550005868013100192790269C279D30C3FFF73A
:1035600092FBF0B506684768C9B01D921C9340965F
:1035700041978368C46805910693079442934394E6
:10358000036944690A930B94449345948369C4691D
:103590000C930D9446934794FDF79CFF0022002363
:1035A00004000D0011F018FE002800D1FFE00022F9
:1035B00000233000390011F0FBFD002803D08021EA
:1035C00009066B181D006B005908D42300229B04C8
:1035D000200011F00BFE22002B00002800D1D9E0C2
:1035E0000020C04914F0B2FD02000B0014901591A8
:1035F0003000390015F0EEF9149A159B10901191D6
:103600000698079915F0E6F906000F001098119931
:103610000022B44B4296439714F034FA02000B0098
:103620004092419380231B06EB18069007913D932F
:103630000B000A980B993C9415F0CCF93200040069
:103640000D000C980D993B0015F0C4F902000B0019
:103650002000290014F016FA069A079B14F076FD54
:1036600080231B06C91840AAFDF7F0FA469B479C29
:10367000409E419F149315943E933F94449B459CD8
:10368000069307943893399400230024059A3A93BB
:103690003B9413615461429B439C0C930D94936043
:1036A000D46000248F4D166057609461D5613C9AB8
:1036B0003D9B0A920B930A980B990022002311F06C
:1036C00071FD00220023002876D13000390015F06A
:1036D00081F90C9A0D9B14F0D5F932003B0014F0DF
:1036E00035FD802310901191109A1B061000119A3D
:1036F000D118059AFDF7AAFA8022120694460C9B6F
:10370000320010930D9B20006344119329003B006D
:1037100015F028FC109A119B059EB260F360002200
:103720000023306071601C990A614B618A60CB6034
:103730008C61CD610C604D600A980B9900220023CA
:1037400011F030FD00283CD10A980B990A9B1C000F
:103750000B9B22005B005D082B0014F0F7FC0200BD
:103760000B0006000F000698079914F0EFFC369442
:1037700037953C943D95059C0690079125001035A2
:10378000AC421ED02068616832003B0015F022F97F
:1037900003C4F5E73000390014F0D8FC2200109083
:1037A0001191069807992B0014F0D0FC2CE7002308
:1037B00000243C933D9459E7200029001092119376
:1037C000A8E7002206980799002311F0EBFC0028D7
:1037D0002CD1069B1E00079B30005B005F08390060
:1037E000069A079B3696379714F0B0FC04000D003C
:1037F00002000B001498159915F0ECF83E903F91DB
:103800001C992200086949692B0015F0E3F81C9BFC
:103810002200186159611C992B008869C96915F04B
:10382000D9F81C9B069607979861D9613E9C3F9DED
:10383000002200232000290011F0B4FC002814D13C
:103840006B005F0822003B002000290014F07EFC82
:1038500026000D000400369637973E963F97059E4A
:10386000059F10362037B74234D1069B079C3E9EF9
:103870003F9F0699309331940A0038933994079901
:103880003D9C490064004B083C98610813F0C2FB62
:103890000022002313F0BEFB7B0004000D00002279
:1038A00059083000002313F0B5FB0B00020029007B
:1038B000200013F0AFFB01232E902F9106933C9B29
:1038C0003D9C1093119400231493069B1D1E00D061
:1038D000BEE0EFE03068716822002B0015F07AF846
:1038E00003C6C0E70000F03FD423089809990022DE
:1038F0009B0411F067FC002800D0D6E0149B142B29
:103900000EDD2E982F9900227F4B15F063F80200F0
:103910000B000898099911F055FC002800D0C4E06C
:103920000225002D00D1F1E06C1E012D6ED1389BD7
:103930001293399B5B005B0813933CAAE300D318F6
:103940001A685B680E925B005B080022129813995C
:103950000F936D4B15F03EF802000B000E980F9977
:1039600011F030FC002808D10E980F99D4230022C2
:103970009B0411F027FC002846D00E9A0F9B0026CE
:10398000002730923193E3003CAAD21816605760AA
:10399000022D4AD038AAD3186400186859681E60EE
:1039A0005F60631C369037910C9330AA32AB36A916
:1039B0003EA8FDF7F9FD329C339D3A9E3B9F802344
:1039C0001B06EB18269427933200269827993B0074
:1039D0003496359714F0FEFF309A319B369037912C
:1039E000300039000A920B9314F0F4FF3A903B91A7
:1039F0000321029403950A9B0B9C009301940C9A5B
:103A00000598FDF7D2F91CE025008AE70022002383
:103A100012921393022D90D1089A099B0020002145
:103A200014F030F81290139187E7389A399B0024EC
:103A300036923793002338933994069B012B00D19B
:103A400057E1149B4B2B53D03C9B3D9C10931194FE
:103A5000389B399C16931794169B0893179B5B0011
:103A60005B080993089B099C36933794109B189325
:103A7000119B5B005B0819933E9B1E933F9B5B0071
:103A80005B081F931E981F99189A199B13F0FAFF51
:103A900000221D4B14F09EFF02000B0008980999AC
:103AA00011F090FB002800D11EE70023002438937A
:103AB0003994069D069B3CAADB00D41826686768EB
:103AC000002200233000390011F072FB002800D0E2
:103AD000E8E13C9E3D9F069B3CAADB00D418069B78
:103AE000002B00D1F9E1002306939D4200D0E6E6C9
:103AF0001D993C9A3D9B0A604B603E9A3F9B8A60B1
:103B0000CB6049B0F0BDC0460000B03C3C9E3D9F3C
:103B1000389B399C1A931B943E9C3F9D7B005B080D
:103B200021936B005B08209622942393229823997B
:103B3000209A219B13F06EFA1A9B24931B9B5B0027
:103B40005B082593249A259B13F064FA02000B006E
:103B50001898199913F05EFA02000B000898099959
:103B600013F058FA02000B000A900B912000290074
:103B700014F0ECFA0A9A0B9B0C900D91300039006E
:103B800014F0E4FA0A9A0B9B06000F001A981B998E
:103B900014F0DCFA0A9A0B9B1A901B911098119959
:103BA00014F0D4FA03000C003200329333941090D6
:103BB00011910C980D993B0013F064FF0C9A0D9B2A
:103BC00004000D003000390015F0CCF902000B00A4
:103BD0002000290014F0FEFE1A9A1B9B04000D0021
:103BE0001000190014F0F6FE02000B00200029005E
:103BF00013F048FF0022C74B14F0ECFE06000F0044
:103C0000349635971A9A1B9B0C980D9914F0E2FE86
:103C100002000B0014F0DEFE00221A901B9100231C
:103C20003000390011F0BEFA002800D073E03200F5
:103C30003B003000390014F0CDFE1A9A1B9B13F0A4
:103C400021FF13F0BFF9002204000D000023300013
:103C5000390011F0ADFA002806D080231B06EB18BE
:103C600028942993289C299D22002B00300039009C
:103C700013F008FF02000B001A981B9914F066FA63
:103C800006000F00109A119B0C980D9913F0FAFE84
:103C90000C9A0D9B04000D001098119915F062F913
:103CA00002000B002000290014F094FE32003B00BB
:103CB00013F0E8FE0A9A0B9B3690379116981799E5
:103CC00014F044FA109A119B14F084FE3090319154
:103CD000069B0C933C9B3D9C109311940C9B012BD9
:103CE00025D0369A379B38923993149B013314931D
:103CF000A7E632AB30AA36A93CA8FDF755FC329AAC
:103D0000339B069902920393309A319B1C98009240
:103D10000193032275E600221A981B99002311F0E3
:103D200041FA002800D182E700260027AAE734AB39
:103D300032AA30A936A8FDF737FC329E339F349A59
:103D4000359B389C399D300039000A920B93109AAC
:103D5000119B14F03FFE0A9A0B9B169017912000BE
:103D6000290014F037FE02000B001698179913F083
:103D700089FE22002B001A901B913000390014F0AC
:103D800029FE109A119B04000D000A980B9914F05B
:103D900021FE02000B002000290015F0E3F80300CB
:103DA0000C00109011910A980B99389339943E9C0D
:103DB0003F9D22002B0014F00DFE22002B003090BE
:103DC00031913000390014F005FE0A9B0B9C1690CF
:103DD0001791032202930394009601970C991C9863
:103DE000FCF7E3FF1A9B1B9C32AA3C933D9430A93D
:103DF00034AB3CA8FDF7D8FB329B339C109811994B
:103E0000349E359F1A000A930B94230014F0E2FDB0
:103E1000320004000D00169817993B0014F0DAFDEB
:103E200002000B002000290013F02CFE80231B064B
:103E3000FB182B932A96109A119B369037912A984B
:103E40002B9914F0C7FD0A9A0B9B04000D001698DD
:103E5000179914F0BFFD02000B002000290013F099
:103E600011FE3A9C3B9D3E903F9122002B0030007A
:103E7000390014F0AFFD22002B00309031910A98E8
:103E80000B9914F0A7FD0A9B0B9C3A903B91009371
:103E900001940322029603970C990598FCF785FF7D
:103EA000022316E780231B06FB186360069B1C9801
:103EB0005A001B01511C26600232C3188A4200DAE4
:103EC00007E68024186824062C90586801310019F0
:103ED0002D902C9E2D9FC0C3F0E7A268E368069248
:103EE00007930698079932003B0011F075F90028F6
:103EF00000D1F8E5069A079B1C983C923D93A6607A
:103F0000E760369637970DF097FE05980DF094FE12
:103F1000E9E5C0460000E03FF7B500266B469D1D71
:103F200000232F4F2B807B7F002B56D03B00583334
:103F30009B883000013BB34200D10F200A30C0B251
:103F400040002900C0B20EF037FA041E0BD12B88B6
:103F50001A1C1BB2002B00DA021C224B7100013626
:103F6000CA52102EDAD17B7F0620002B0CD0002302
:103F700029002B8030300EF01FFA0A232A88534381
:103F8000002801D1174A13627B7F0443E4B2062064
:103F9000002B0CD0002329002B8032300EF00CFABD
:103FA0000A232A885343002801D10E4A53627B7F9B
:103FB0000443E4B20620002B0CD0002329002B8000
:103FC0002E300EF0F9F90A232A885343002801D134
:103FD000044AD3632043C0B2FEBD0624C3E7C046F3
:103FE000E00500205017002030B587B004A902007A
:103FF00008000A4B30CB30C0094B00201B6A0F234E
:104000006B4418700130009005990498FDF74EFD3F
:10401000431E9841C0B207B030BDC04628070020FB
:104020006005002010B50B4C01220321200008F090
:1040300005FBC82008F082FE00220321200008F0C2
:10404000FDFA9620400008F079FE0820FFF7CCFF2B
:10405000C04610BD80F00F4000234118884202D1B5
:10406000D843C0B27047027801309B18DBB2F5E745
:10407000F0B599B0039013200D00160004931EAB09
:104080001B783D22059304AB0021C01816F06AFA94
:1040900007A86B000370049B08AC1B7803214670D3
:1040A000267083706370FCF71DFF27000126A07047
:1040B000059B0237B34217D85B00039A0133DBB28A
:1040C000012A1FD100932A0023001449486C896CEF
:1040D000FDF7ECFC4042C0B2002803D00122104B97
:1040E0001A70C04619B0F0BD049B04AA9B5D012163
:1040F0007B70D3720B239B181800FCF7F3FE01367C
:10410000B870D5E7039A002A06D106490093886C57
:1041100023002A00C96CDBE70620E2E7C0FDFF1F91
:1041200030070020E0060020F0B50026ABB0079372
:1041300030AB1B780391049231003C2207000BA89E
:1041400005930A9616F00EFA059B3C225D00EBB231
:1041500031001BA806931A9616F004FA0B2306AA40
:104160009B181AAD1E70012F26D1069B4149019361
:104170000095486C049B039A896C10F097F94442AF
:10418000E4B2B4423BD03C4B3A009D6D0521013571
:104190003A489D6508F052FA0A2008F0CFFD320037
:1041A0000521364808F04AFA042D02D90122344B81
:1041B0001A7020002BB0F0BD0624002FF9D1069B09
:1041C0002D4E01930095049B039AB06CF16C10F096
:1041D0006DF94442E4B2002C11D0756DB36D01222B
:1041E0000221013327480135B365756508F026FAC9
:1041F0000A2008F0A3FD3A0002212248D2E700225B
:1042000001261D4BBF00DB195A65039B09A82F78B7
:10421000049A5B000370042133438370C7704270BB
:10422000FCF760FE6C78241A631E9C4106AB1F7479
:104230000B27FF18059BB34209D81A00631E9C4147
:1042400007980AA9644216F0A3F9E4B2B1E7102175
:10425000AB7806AA521838000F3993553B70FCF71B
:1042600041FEEB7801361B1A5A1E93410235E418C1
:10427000E0E7C046C0FDFF1FE0060020C0F00F4091
:104280003007002040F00F4070B51D1C14000E00D8
:1042900015F0A6FF291C15F081FB13F07FF9051C12
:1042A000200015F09DFF291C10F0BCFF00280CD148
:1042B000300015F095FF291C10F0C8FF34000028CD
:1042C00003D1281C15F06CFF0400200070BDF0B570
:1042D000B74BB9B09B7B002B00D02CE2B54BB64955
:1042E0001F78002F00D023E20D000B6E0FAA187864
:1042F0004C3590735878012450739B780B936B78EE
:104300001774013B58424341033313730493AB4B7F
:10431000D773109380235B000F941193AB7B486D90
:104320000C930B6DC0031900099310F0A3FFEB7BF6
:1043300029782A7B80B2002B00D018E124AB1970B9
:1043400051424A411F729F809F71059727005880F4
:104350005A70974C984D2000964A99491C300FF09E
:1043600033FAAB6B974A0293642343430FA9D218E5
:10437000029807F02FFA029807F032F9029B0D908D
:104380009B00E41822690392002A00D1D0E1527800
:10439000002A00D0CCE18C4A9C5818222368934311
:1043A00023602368894A134023600423626D13430A
:1043B0006365049A039B5A70002F7DD024AE337836
:1043C000200001935D087379019906935A1E934169
:1043D000DBB21A00079307F0D9F97378069A934273
:1043E00000D0D8E001222000019907F0BDF924AAED
:1043F0009379ED0008930223AB400A93089B002BAE
:1044000000D1CEE01023127AAB40002A00D1C4E0E4
:10441000626E13436366019B02225E1CF6B231009A
:10442000200007F0A1F9636E0A9A1343636624AB78
:10443000DB79079A012B03D0069A53425A41D2B234
:104440003100200007F0A2F904220126AA40636E81
:10445000200093433200AA406366636E0199934340
:104460008022AA406366636E93436366032207F06B
:1044700069F94022AA40636E019993436366202341
:10448000AB40626E20001343636624AB1A7907F0D9
:1044900009F93100019B2268103399400B00134346
:1044A0002360089B002B07D0019B22689B19DBB27D
:1044B00010339E4016432660059B002B00D1C4E0BC
:1044C00014AD2E782000730801936B7B31001A0025
:1044D0000693531E9A41D2B207F058F92B7A069AE6
:1044E000934263D101223100200007F03DF97208A8
:1044F000D200019204220199636E8A4093433100F5
:1045000003226366200007F01DF9310001231031FA
:104510008B4022681343212223600EAB9B181B782B
:10452000002B60D005320EAB9B181B78751C1A004F
:104530000793531E9A41EDB229002000D2B207F032
:1045400025F902222900200007F00EF922220EABE5
:104550009B181A780223019907988B40069981428B
:1045600036D1002A36D1626E9A43626635E014ABCA
:10457000197051424A415F809880DF715C721A72F3
:104580002A7C511E8A419A726A7BDF729A719F81DE
:104590009F730594DDE6022225E7626E9A43626608
:1045A00039E7636E0A9A934363664DE702229AE7FE
:1045B000E0050020F4FDFF1FC0FDFF1F010001000A
:1045C000F80500203C070020A4A50100FFFDFFFF27
:1045D000002AC8D1626E1343636601231035AB40D5
:1045E00022681343236040220199636E8A409343FB
:1045F000636620238B40626E1343636601238B4006
:10460000626E13436366802314AAD2798B40002A1A
:1046100053D0626E134363661023019A934014AA29
:104620009279002A4DD0626E1343636601233500F0
:1046300014AE9D4329002000F27A013507F032F8CC
:104640002000327BE9B207F02DF80222636D0D984D
:1046500013436365049B2268043B59424B4120216C
:104660005B018A431343029A2360364B92009B18E6
:1046700009991D6910F0FEFD0100A86810F0FAFD0F
:10468000039B80B29880E36C1B0C1B04E364049BC7
:10469000042B1AD1A36840081B0C1B041843A0600C
:1046A000002F18D1059B002B21D014A98B884A8894
:1046B000029809780FF024F817E0626E9A43626658
:1046C000AAE7626E9A436266B0E7A36801381B0CE2
:1046D0001B0480B2E2E724AB5A88197802980023C1
:1046E0000FF00EF8059B002BDFD1002825D13F22CB
:1046F000A36E0C99934311400B43FF21A3660B9BC0
:10470000A26E9B010B403F398A4313430122A366EB
:10471000636DA83913436365636D073213436365A3
:10472000039B22681B788A43DB000B401343236002
:104730000122044B9A7339B0F0BD0023039A5370E1
:10474000F6E7C046E005002070B51C4B00245E284B
:1047500016D95C3347201C7008F054FC184D2B7898
:10476000A3420CD0FFF7B3FDFA20400008F0E6FAB0
:10477000FDF7DEF9FA20400008F0E0FA2C7070BD79
:10478000452808D95C3347201C7008F03BFC012207
:104790000B4B1A70F3E702002D3A182A05D859205E
:1047A0005C331C7008F02EFCE9E75C3314381C7095
:1047B000182801D84F20F5E74D20F3E760050020C9
:1047C00024FEFF1FF0B59A4C8DB00A900591012090
:1047D00098490B920FF032FB01220F21200007F0C5
:1047E0002DFF236901251B0408D4C046052008F0CD
:1047F000A5FAC046012040420DB0F0BD00220F21B5
:10480000200007F01BFF2369DB0B2B42EDD12800B2
:1048100089490FF013FB04230793884A11004431A0
:104820000878136C8649002800D1FEE0002B00D0E8
:10483000FBE013004C331B88013B9BB25808034339
:104840009808034318090343180A034301330B98DC
:104850009BB2DB0843439EB2002E67D0794C956C27
:1048600063690122DB0100D5CEE063691B0E1342B0
:1048700000D0C9E06B8830001900069310F080FD6D
:1048800089B2002900D0BFE0C02322699B001A43EF
:1048900022612269134323612979002904D08023EE
:1048A000226E5B03134323660022EB1DDA77FC23A1
:1048B00062699B01134363618023A2691B01134357
:1048C000A361059B002B3CD16B838023226E1B03CD
:1048D00013432366A36D5C4A1340A3650323A26DB3
:1048E0009A43013B1343A3656B1DDB7F012B32D140
:1048F0000A9B2B61059B6B610023AB83EB832E83AB
:10490000994203D02B8B01339BB22B8301232B7352
:10491000059B002B03D00223A2691343A36101234B
:10492000A2691343A361464B1C6A00E00C6A0FF0B6
:10493000EBF8434B1B6A1B1B632B6FD9002865D117
:1049400071E08023A2695B011343A3616E83236E30
:104950003E4A1340BDE7069B0027012B03D0023BD4
:104960005A1E93415F1C2B1DDB7FFE4006930123E3
:10497000BB40099601260893099B31000293089BCE
:104980000A9A01930698324B039600970FF0D4FAD7
:10499000059B002B10D11A002E49069806F05EFBED
:1049A0000323069A1A4013002B4AD3762E73012252
:1049B000E3691343E361B6E7EB1CDE7F0123009755
:1049C0000327099A30000292089A0021039301926A
:1049D000059B224A0FF0B0FA00223000204906F071
:1049E0003DFB1D4A3E40D6761A490022069806F045
:1049F00035FB06990123184A3940D17602222B73E0
:104A0000E3691343E361D2E70D4B1B6A079B013B4C
:104A1000DBB20793002B00D0FFE6EBE60FF074F853
:104A2000002886D1C0460020E6E60B6AEEE7C046C5
:104A3000C0F00F4028FEFF1F40FEFF1F6007002050
:104A40006005002000C00240FFFFFCFFFFFFF7FFF2
:104A500064C00240C7A100000080004074C0024052
:104A600011A20000002310B5891801399A4200DC18
:104A700010BD0C78C4540133F7E7C022094B13B5BD
:104A80000C00C118084B9200C3180220934208D8AA
:104A9000064B0422C91801A815F07AFD0020019BDD
:104AA000236016BD00C0FFFF04C0FFFF180E0020EA
:104AB00010B5C024064BA400C218064BC318022030
:104AC000A34203D80020044B9B5C0B7010BDC04672
:104AD00000C0FFFF01C0FFFF180E0020002330B50B
:104AE0000400150085B0019103A801A9039315F0F6
:104AF0004FFD044B2A00E01803A905F043FF05B061
:104B000030BDC04600C0FFFFF0B59BB00500642279
:104B1000002101A815F026FD002401AB1919B04BA6
:104B2000E0180434FFF7A9FF642CF6D1AD4C022243
:104B3000200001A9FFF796FF0222A01C02A9FFF79F
:104B400091FF0222201D03A9FFF78CFF0122A01D67
:104B500004A9FFF787FF20000222083005A9FFF70C
:104B600081FF200002220A3006A9FFF77BFF200008
:104B700002220C3007A9FFF775FF200001220E303A
:104B800008A9FFF76FFF20000422103009A9FFF7E2
:104B900069FF2000012214300AA9FFF763FF2000FB
:104BA000042218300BA9FFF75DFF200001221C3002
:104BB0000CA9FFF757FF200002221E300DA9FFF7B6
:104BC00051FF2000022220300EA9FFF74BFF2000EA
:104BD000022222300FA9FFF745FF200002222430D5
:104BE00010A9FFF73FFF20000222263011A9FFF78E
:104BF00039FF20000222283012A9FFF733FF2000DE
:104C000002222A3013A9FFF72DFF200002222C30A8
:104C100014A9FFF727FF20000422303015A9FFF761
:104C200021FF7149206B14F0D9FF12F0B7FC6E49D7
:104C300014F0B4FE2600206320000122343016A9AF
:104C40003536FFF70FFF0122300017A9FFF70AFFE3
:104C50003378002B00D13C33220020003532137012
:104C60003830042218A9FFF7FDFE604E022D00D057
:104C7000B2E05F49206B14F0B1FF14F08DFD050028
:104C80005C4FE0633800042229000437FFF726FF59
:104C9000B742F7D1042229005748FFF71FFF00272A
:104CA000544D0023694628000093FFF7E6FE009B61
:104CB000013B033305D9E16B042228000091FFF783
:104CC0000DFF009B0435FF18B542EAD10A213800D8
:104CD00010F0D0FA15F0D0FA00236946061C2064C3
:104CE00046480093FFF7C9FE009A454D454B69467B
:104CF0004548DA67FFF7C1FE2B00009A88331A6037
:104D00003B49301C2E0014F049FE8C363060306870
:104D1000216B14F043FE306030683C4914F05EFFB4
:104D200014F03AFD6C3580B228802389A21D643BC3
:104D30009BB2D387D38F220019339BB20832D3871B
:104D4000220063880A3264339BB2D387D38F220058
:104D5000FA217D3B9BB20C32A069D387890010F009
:104D600047FB2300053080B20E33D887284A2369D9
:104D700028499B186365606D10F03AFB23003C30B6
:104D800080B2503318802300FA224E331A8022005A
:104D900041235832138022003C215A3211802200D4
:104DA0000A315C32118022005E32138023000D2212
:104DB000603352421A8021000B2362315B420B8028
:104DC000210064310A8022006632138049340C339A
:104DD000E377C0461BB0F0BD199BE3635FE7C046B5
:104DE00008420000E00700200000C842D840000050
:104DF00000BA5B4AB0400000684200009C400000DE
:104E000050170020581700209840000000D022457D
:104E1000B03CFFFF18FCFFFFE12170B502224248C1
:104E200009010FF0CFFA0222404941480FF0CAFAB7
:104E30000222404940480FF0C5FA012202213F48B2
:104E40000FF0C0FAAF2102223D4809010FF0BAFA73
:104E500002223C493C480FF0B5FA962102223B4819
:104E600009010FF0AFFA0122022139480FF0AAFA26
:104E70000422384938480FF0A5FA012202213748A8
:104E80000FF0A0FA0422364936480FF09BFA0122AF
:104E9000022135480FF096FA02229621334E344D06
:104EA000914034480FF08EFA334C310002223348DF
:104EB0000FF088FA2900022231480FF083FA21000E
:104EC000022230480FF07EFA310002222E480FF005
:104ED00079FAFA2102222D4849000FF073FA2900CD
:104EE00002222B480FF06EFA2100022229480FF00F
:104EF00069FA0422284929480FF064FA0122284857
:104F000011000FF05FFA01223C2126480FF05AFAF7
:104F10000422012124480FF055FA04222349244891
:104F2000FFF7DCFD70BDC0460842000068100000BD
:104F30000C42000004100000104200001442000067
:104F400018420000540B00001C42000020420000E8
:104F50002442000090EEFEFF284200002C42000098
:104F6000307500003042000034420000260200008C
:104F70009CFF000038420000CEFF00003C420000D1
:104F80004042000044420000484200004C42000001
:104F9000504200005442000000004C4258420000C1
:104FA0005C42000060420000644200008083F10A1D
:104FB00068420000002313B5064C01A920000193AC
:104FC000FFF75BFD0199042220000131FFF786FD08
:104FD00013BDC046A040000070B515000E1C042291
:104FE00001000E48FFF77AFD0422040031000C484E
:104FF000FFF774FD0422044329000A48FFF76EFD01
:10500000E4B22043C0B2002804D10422072106489C
:10501000FFF764FD431E9841C0B270BD68420000B6
:10502000084000000C4000000440000070B500265D
:1050300086B0040001A92B480196FFF71EFD019DD3
:10504000022D1CD8284B0422E81821008000FFF70D
:1050500045FD0422691C2348FFF740FD234B05A9A9
:10506000E4180023A40020000593FFF706FD05992E
:10507000042220000131FFF731FD06B070BD03A905
:105080001B480296039604960596FFF7F6FC04A9C2
:105090001848FFF7F2FC184805A9FFF7EEFC039A41
:1050A000049B934204D1059A934201D19C42E4D0DF
:1050B00002A91048FFF7E1FC042202990C48FFF70F
:1050C0000DFD02A90C48FFF7D8FC042202990948FB
:1050D000FFF704FD042221000748FFF7FFFC04222C
:1050E0002900B8E73C4000000C1000000F10000041
:1050F00030400000344000003840000007B56A46E8
:10510000FF230748D11DD371FFF7D2FC6B46DB7933
:10511000002B04D1012296210148FFF7DFFC07BDD7
:10512000E440000007B56A46FF230748D11DD3714C
:10513000FFF7BEFC6B46DB79002B04D1012269210D
:105140000148FFF7CBFC07BDE8400000F0B50025A3
:1051500085B003A92F480395FFF78FFC039904221C
:1051600001312C480391FFF7B9FC01222A481100B4
:1051700007F064FA01220221284807F05FFA642050
:1051800007F0DCFD2A000221244807F057FA962098
:10519000400007F0D3FD224F224EB878FEF724FFDF
:1051A0000400C046A84208D10024002201211A4868
:1051B00007F044FA200005B0F0BD01220221174893
:1051C00007F03CFA9620C00007F0B8FD2A00022143
:1051D000124807F033FA144D2B6A0193B878FA2776
:1051E000FEF702FFBF00012804D02B6A019A9B1A28
:1051F000BB4209D32B6A002801D000237377FEF746
:1052000011FF0028D0D0D0E7330058339878FEF74C
:10521000EBFEE8E72840000080F00F4040F00F4030
:1052200038060020E0050020600500200022074B22
:1052300010B51A70FFF78AFF431E9841044BC0B2A5
:105240001870044B1870044BD87710BD4C08002020
:10525000D518002030070020E0050020F0B5CE4B27
:1052600085B001931B6F002B03D00120404205B095
:10527000F0BD019A78321378002B03D101994B6766
:10528000012313700022019BC44C79331A702368E8
:10529000934264DA80226368920113436360236857
:1052A000DB026CD40EF0D8FA802322689B041A43E8
:1052B000226022681100194002911A42F9D180231C
:1052C00022685B0113432360029AB54BB54D04C3BA
:1052D000AB42FCD10022B44BB44904C38B42FCD195
:1052E00001235B4223616361A361A2628022236385
:1052F000AF4B920223622368134323602368AD4AB5
:105300001340236023681B0505D5C0221201A35852
:10531000A9490B40A3500EF069FA07001F200EF0B8
:1053200077FAC0190830A8429FD87F2322689A4391
:10533000603B134323602268802315009B051D40BA
:105340002E001A422DD023681B053ED463689B4A69
:105350001340636062689A4B1343636046E00EF04B
:105360007BFA2368002B95DB802322681B061343FE
:10537000236080235B0322681A42FCD08AE72368FB
:10538000904A5B005B082360236813402360236816
:105390008D4A1340236080231B0522681A42FCD1EA
:1053A00080E728000EF034FA08220300524206601B
:1053B00008334660101AC218974203D80135202DD1
:1053C000EFD1C0E71E700133F5E7236D7F49DB0F96
:1053D000DB072365226D7E4B134323657D4BE2582B
:1053E0000A40E250E1587C4A0A43E25023687B4A73
:1053F0007B4D134008222360636893436360794ABE
:105400006368134063600EF079FA8023DB002B6041
:105410000B202B602B6006F0C5F90B2006F0C2F9BB
:10542000714F002606F05EFC029B6F4ADB00D3182A
:1054300003931E7106F04AFC039BBE713E605E71D1
:10544000029B083701330293202BEAD1664B664A50
:10545000FE335E82019B644FDA6779331878FC373C
:105460007E60BE60FE603E61B04201D07378FFDEB8
:1054700007F0EDF85D4B5E4A8000C2505D4B22683C
:105480007B605D4B1600FB6080235B041E401A426C
:1054900001D10EF0E1F98023626B1B0613436363B5
:1054A00080236268DB0113436360802322689B03CF
:1054B0001A43226080226168D2000A436260226837
:1054C00013432360802362681B01134363608023BE
:1054D00062681B0213436360002E01D10EF00EFAC6
:1054E0000124019B00201C67C2239B00EA58120282
:1054F000120AEA508022E95812060A43EA50EA5892
:105500003E490A40EA508022E95812040A43EA5010
:1055100001231F223A4D16215B422A760FF014FD1B
:10552000002801D0C046A0E60423C0211E225B4211
:10553000C9002A760FF008FD0028F3D1FF238C2143
:105540001D2220001B0289012A760FF0FDFC002895
:1055500000D08AE6FF238C211C2220001B02890137
:105560002A760FF0F1FC002800D07EE61B222000F6
:10557000244B25492A760FF0E7FC002800D074E67A
:105580001A2220001F4B21492A760FF0DDFC00284B
:1055900000D06AE6C0466AE6E0070020004002400C
:1055A0008040024080420240804802400049024060
:1055B00006003B00FF7FFFFFFFFFFCFFF8FF00003E
:1055C00007006102FFFFFFBFFFFFFFEF188308C066
:1055D000811C4100040C0000811C2100FFFF7FFFA3
:1055E00000E100E0FFEFFFFF9811002060080020BD
:1055F000DD18000053C60000BB180000FFFF00FFCD
:1056000040FEFF1F00FFFFFF548CFF1854FCFF14E7
:10561000F0B514000D0099B013AE142200210490CF
:10562000300014F09FFF049B2200290015A814935A
:10563000347414F0ADFF03230293A04B1F79002FA5
:1056400004D05A79002A00D0ABE0012701220020C3
:10565000DB191A7180230600049A1B019A42464105
:105660000DACF6B22080A070E670207106F0EFFF5E
:10567000934B944D03934301039ADB199B009C5079
:10568000914B4000C25C3C00002A04D01B185878A3
:1056900005F07EFD3C18E4B220000FF083FB021EF3
:1056A0000BD108230FA9888188738B600E710F932B
:1056B0000090030020000FF043FA002006F0C7FF1F
:1056C000793543005A5D04003E00002A04D0ED18ED
:1056D000687805F05DFD3E186401039BE419A400A1
:1056E0001B59F5B2DA782800059213AA117C0691AD
:1056F0001978079199780891597809911B79039342
:10570000149B0A930FF04EFB002837D16D4BDC6FD2
:10571000E0231E4232D1EB00E4186379DAB20B9237
:10572000002B2BD128000EF08DF8022363710B9B08
:105730000FA9A371039B039AE371069B8B60059BE2
:105740000B71079B0B73089B4B73099B8B730C238B
:10575000002A00D010330F93039B280000930A9A6D
:1057600015AB0FF0EDF9002814D11F2301223340AF
:105770009A4013005549886A03438B62544D4F4B3E
:105780002C6A1C6038000FF0B7F9002805D1C0461C
:1057900019B0F0BD00236371F0E7012800D086E066
:1057A000C046029B013BDBB20293002B00D044E7D2
:1057B000484B474E1B78012B75D1424D2B6F012B67
:1057C0006ED1EB6F414C002B3BD0FC33DB68002BE0
:1057D00037D06368404A13406360636B5B005B08CB
:1057E0006363C02362681B011A4203D123683B4AEA
:1057F0001340236063683A4A13406360C0236268C1
:105800001B011A4203D12368344A134023606368A2
:10581000344A13406360C02362681B011A4203D1FB
:1058200023682E4A1340236063682F4A1340636045
:10583000C02362681B011A4203D12368274A134020
:1058400023608022294BD200DA670B20DA67DA67FF
:1058500005F0B4FF0B2005F0B1FF2368002B0EDB31
:105860000DF0FAFF2368002B09DB802322681B065A
:105870001343236080235B0322681A42FCD0002379
:10588000EB676B6F002B02D12A0078321370022273
:105890000021174814F066FE00232B67FFF7DEFC9B
:1058A00000235E363370C0460120404270E72B6A09
:1058B0001B1B012B00D865E772E7C046E0050020FE
:1058C00018110020E0070020590800200040024085
:1058D00060050020BE050020FFBFFFFFFFFFDFFFC8
:1058E000FFFBFFFFFFF7FFFFFF7FFFFF04E100E08B
:1058F000E4050020010010B503684A7A180AC0B216
:105900008C7A48719206EF280CD888791443184392
:10591000000220430A7A0B31FFF77AFE431E9841BA
:10592000404210BD180220431043F3E7F0B58BB09E
:10593000109D0393030ADBB21700009002910193BC
:10594000EEB205AC082D3DD9EC231B0205932C4B80
:10595000A27128000793A58114F00CFD294B0022A9
:1059600012F0F4FB11F0FEFC13F02EFF00261023C2
:105970000199A073E373200026746174A674FFF785
:10598000B9FF431C1CD010221F4B204C1A70009BE7
:10599000029A2360A31DDD87230047331F70230075
:1059A00046331A701A482A00039914F0F1FD2300B7
:1059B0003000184AC4331A60174BC0341B6A236086
:1059C0000BB0F0BD0B2004AB0D220021C01814F069
:1059D000C9FD009B0F20059300232371019B2A0022
:1059E0006371029B039963722323A37204ABA771B3
:1059F0002672C01814F0CCFD2000FFF77BFFDFE714
:105A00000807231000001C40741500202C150020EE
:105A100030150020E204000060050020F0B506000B
:105A20008BB010000192039114F0A4FC2F4B0022C4
:105A300012F08CFB11F096FC13F0C6FEC3B2029379
:105A4000EC231B020593FF230024FF271B0406936E
:105A5000274B05AD0793019B08942B73029B099478
:105A600028002E82360CAB73EF73AE74FFF742FF43
:105A7000013003D1012040420BB0F0BD10222100C3
:105A800006A814F06FFDEB231B020593E123DB0056
:105A90002B812323AF71AB72072101980FF070FCAB
:105AA00007250F00029BA34201DC0020E4E70F2042
:105AB00004AB0822FF21C01814F054FD23006B43EF
:105AC00003990198621C05AEC91807331400F272DD
:105AD0003A00984200D32A0008A814F059FD30007B
:105AE000FFF708FF0130DDD1C4E7C04600001C40CD
:105AF00008072320F0B504000D0087B0232A4AD1FF
:105B0000DF231B0298421CD021D8D7231B029842C6
:105B100017D00ED8D3231B02984234D0D6231B02B1
:105B200098420ED0C1231B02984200D1D2E001223C
:105B300008E0D8231B02984203D00133FF339C4274
:105B4000F5D10022290020000EF013F923E0654B67
:105B5000984200D186E011D8634B984200D1B2E060
:105B6000624B984246D0EF231B029842DFD10022BD
:105B70000EF0FFF801225E4B1A700CE05D4B98426C
:105B80000BD05D4BDBE700220EF0F3F801225B4BFC
:105B9000DD613C335A7107B0F0BD00220EF0E9F828
:105BA0000822574903A814F0F3FC564E082203A913
:105BB0003000554D14F0ECFCFF2301216B76EB76A1
:105BC00000234020A9766918CB77A91CC877E91C67
:105BD000CB7710212022297704392A76F377697749
:105BE000AB77EB7731002000FFF718FF0535E8773A
:105BF000EB7FD0E700223E4B1A700EF0BAF80C2271
:105C0000424903A814F0C4FC414E0C2203A9300001
:105C10003D4D14F0BDFC3F4B05223F4901A80093C8
:105C200014F0B6FC28002900142252313A3014F046
:105C3000AFFC280004226946473014F0A9FC280074
:105C400005224C3001A914F0A3FC2A002A23273294
:105C5000D3772A002C32D3772A0051321370337550
:105C60002D22BFE700220EF084F80B232B49264D8E
:105C70000B7003334B70053B8B704B722C33CB7224
:105C8000343B78270B732B000C22022673337F42A0
:105C90001F70182049375F70CA704F3F073A9F70D6
:105CA000DE704A712B000022404288711F30C8719B
:105CB0008A7204388A7468332A32DA770E7108726D
:105CC0004874083A8FE700220EF053F80122144B73
:105CD0001A7260E700220EF04CF80122104B5A7243
:105CE00059E7C046DAFE000097F10000C5FD00004C
:105CF000940500200FFF0000FCFF0000600500205D
:105D000061AB0100640800206008002069AB01005D
:105D1000850800204261740075AB0100C6080020B0
:105D2000E0080020F0B5994B994D85B01B6A04221C
:105D3000280003A90393974F14F02AFCCF21964C17
:105D40000906236C1A0A2B716A711A0C1B0EEB716F
:105D5000231DAA71DD6F281C0FF082FA002824D0C1
:105D60009E21281CC9050FF067FA00281DD0281CA9
:105D700014F016FA02903D00380004220A3502A9F8
:105D8000123014F005FC0C2229008448FFF746FE6F
:105D9000834DE877012006F0D1FFEB7F5AB2002B4C
:105DA0000DD0E87F40B205B0F0BDCF21281C090618
:105DB0000FF038FA431E98417A4BC018DAE72300F7
:105DC0000321BA75A3331B78FA7D0B408A431A432B
:105DD000FA7522000C252300A2321078FA7D0840C3
:105DE0008000AA430243FA75BA331B78A034012B12
:105DF00000D0C4E02378013B5A42534102330322CE
:105E000030213E00012440201340FA7D1B018A43CB
:105E1000163613437370644B5F4D1A7873782240C3
:105E200092018343134373702B00B2331A78737853
:105E30003F30D2010340134373702B00AB331A7809
:105E4000B3782240A3431343B3702B00A8331A78CE
:105E5000B3782240A2408C462E398B431343B37053
:105E60002B00B7331A78B37822408A407B388343BB
:105E70001343B3702B00B6331A78B3780430224042
:105E8000D20083431343B3702B00AF331A78B37837
:105E900008302240120183431343B3702B00B43304
:105EA0001A78B37810302240520183431343B37001
:105EB0002B00B5331A78B378203022409201834307
:105EC0001343B3702B00BB331A78B3787D31D20102
:105ED0000B401343B3702B00B1331A78F378224090
:105EE000A3431343F3702B00B3331A78F3782240A3
:105EF000A2407D398B431343F3702B00AC331A78E7
:105F0000F37822408A4002318B431343F3702B0015
:105F1000A9331A78F37804312240D2008B4313431B
:105F2000F3702B006146A6331A78F37812010A4009
:105F30008B431343F3702B00BE331A7880239201F6
:105F4000024038005B421343F2780F310A4013439A
:105F5000310004221C30F37014F01AFB31000422CB
:105F6000124814F015FB0BF09BFF0D4EF07720004C
:105F700006F0E4FEF37F002B1AD0F07F12E72378BF
:105F8000013B5A4253410B4039E7C04660050020AF
:105F9000EA080020E008002050170020B0FF0000B1
:105FA00065080020FFFFFF7F001800200009002087
:105FB0007B1DDC772B0044331978BB1DDA7F214031
:105FC000A2430A43DA772A00022045321178DA7FA9
:105FD0002140490082430A43DA772A004632117889
:105FE000DA7F21408140001882430A43DA772A0091
:105FF00047321178DA7F04302140C90082430A43D6
:10600000DA772A0048321178DA7F08302140090116
:1060100082430A43DA772A0049321178DA7F103056
:106020002140490182430A43DA772A004A32117833
:10603000DA7F20302140890182430A43DA772A003F
:106040004B321178DA7F3F30C90102400A43DA77D8
:106050002B004C331978FB1DDA7F2140A2430A4301
:10606000DA772A004D321178DA7F7D3821404900F5
:1060700082430A43DA772A004E321178DA7F2140D0
:106080008140023082430A43DA772A004F32117886
:10609000DA7F04302140C90082430A43DA772A00BC
:1060A00050321178DA7F08302140090182430A43D7
:1060B000DA772A0051321178DA7F10302140490115
:1060C00082430A43DA772A0052321178DA7F20308D
:1060D0002140890182430A43DA772A00533211783A
:1060E000DA7F3F30C90102400A43DA772B0054338C
:1060F00019783B000833DA7F2140A2430A43DA775C
:106100002A0055321178DA7F7D38214049008243D8
:106110000A43DA772A0056321178DA7F214081402B
:10612000023082430A43DA772A0057321178DA7F45
:1061300004302140C90082430A43DA772A005832EA
:106140001178DA7F08302140090182430A43DA7767
:106150002A0059321178DA7F1030214049018243F8
:106160000A43DA772A005A321178DA7F2030214048
:10617000890182430A43DA772A005B321178DA7F99
:106180003F30C90102400A433900DA772431042242
:10619000534814F0FDF90BF083FEF077200006F071
:1061A000CDFDF37F002B00D0E7E6390002202B0065
:1061B000283129370870C9331A783B782240A34325
:1061C00013433B702B00CB331A783B7822405200AC
:1061D000834313433B702B00C4331A783B7822402F
:1061E00082400018834313432A003B70C132127867
:1061F0003B7804302240D200834313432A003B7093
:10620000384BD0321078019310233A7820400001A7
:106210009A4302433A702A00CF3210783A78DB185A
:10622000204040019A4302433A702A00CD32107850
:106230003A782033204080019A4302433A702A0082
:10624000CE3210783A783F33C0011A4002433A7098
:106250002A00CA321778244A274010787D3BA04391
:1062600038432F001070CC373F78107827407F00DC
:10627000984338432F001070C5373F781078274077
:106280009F4002339843384310702800C23007788B
:10629000107804332740FF009843384310702800DB
:1062A000BF30077810780833274098433F013843C0
:1062B0001070C03528785F25019B40015A8DA84396
:1062C0002A4002435A850648042214F061F90BF073
:1062D000E7FDF077200006F031FDF37F4DE6C04684
:1062E00000090020E00800200A090020FF22F0B584
:1062F000674F8FB03B6A674D674C049302ABDA80FF
:1063000004A9FB3A280014F043F92000634B04224F
:106310000093DB6B002404A93030049314F038F9A7
:1063200001232022210006A82B72059414F01AF9EB
:106330000C20009A6300D25A02A909180134CA52EB
:10634000102CF5D10025534B02220193544B524E91
:10635000581902AB991D023514F01AF9242DF2D107
:1063600005AC2A0021004E4814F012F92D220199A3
:106370004C48FFF753FB4C4BD877DA7F55B2002AD5
:1063800004D0C046D87F40B20FB0F0BD012006F067
:10639000D5FC59363B6A0422300004A9049314F05A
:1063A000F7F8012333712B000C20009A14335B00A3
:1063B000D25A02A96B0009180135CA52072DF2D131
:1063C000354BFF261800394D0E2221005E30019317
:1063D000E681268214F0DCF8182229003448EE7594
:1063E000FFF71CFB304BD877DA7F56B2002AC9D1B1
:1063F000012006F0A3FC3B6A042204A928000493B0
:1064000014F0C6F8122002AB0C22C01831002E7115
:1064100014F0A8F8009B02AA1B8F901D2380009BFC
:10642000DB8EA680638003230C25018802AC5A0012
:1064300064190133A152092BF6D1184C0A21608F3F
:1064400000B20FF0BBF8608F09B200B205291ADC68
:106450000A210EF0CDFF05A940B2C87101981222A1
:106460005E30019C14F094F8FF2359342100182267
:106470000F48E375FFF7D2FA0B4CE077012006F0E6
:106480005DFCE07F7FE70A210EF0B2FF0130E2E71A
:10649000600500200C090020E008002050170020B3
:1064A00015090020C7FF00006508002039090020F9
:1064B0007EFF0000F0B5574F89B03B6A564C0293FF
:1064C000564B02AA1B8856489380230060331B88D2
:1064D00002A9D380230062331B8813812300643315
:1064E0001B8853810C22FFF799FA4E4B01934E4BB8
:1064F000D877DA7F52B2DA77DA7F002A03D0D87FF2
:1065000040B209B0F0BD012006F018FC3B6A206FD4
:10651000029313F0B1FE454913F040FA23006C33A7
:10652000051C188880B213F05BFE011C281C13F0B8
:1065300035FA3F4913F052FB3D49051C0EF086FE2B
:106540006423061E0AD10021281C0EF06BFE3300C6
:10655000002803D1281C13F01FF9C3B202AA13713B
:1065600023006C331B88A16E53711B0A9371314A4F
:106570001300914205DC0023A26E9A4201DBA36E58
:106580009BB202AAD3711B0A13722B48092202A9DB
:10659000FFF744FA019D0535E877EB7F5BB2EB77B7
:1065A000EB7F002B01D0E87FAAE7012006F0C6FBB5
:1065B000FA21386A89000EF05DFE204BC0182300D6
:1065C00090331B6802900393230094331B68049359
:1065D00023008833186813F0DFF823009833059000
:1065E000186813F0D9F89C340690206813F0D4F89A
:1065F0001822079002A91248FFF710FAE877EB7FFC
:106600005BB2EB77EB7F002BCDD1012006F096FB40
:10661000C9E7C0466005002050170020AE170020D3
:10662000D1FF0000600800206508002000006145DF
:106630000000C84294110000D2FF0000889E33661B
:10664000D3FF0000F0B5C04B9FB05A6F511C01D072
:1066500001325A671E007436B279BC4CBC4D002A18
:106660003DD15A67BB4B2100B380012335310A70FD
:10667000B3710BF0FBFFF071230035331B78002B57
:1066800068D1230000224C339A71636D2F880393E5
:106690003E000123039A9A425FDC20000E22AE499D
:1066A0001C30268313F074FF21005831AB4B4A7C19
:1066B0001B6A002A5AD10420FF300882A8492266AA
:1066C000E2650A70312B00DDD2E0A26D0132A265D5
:1066D0000022E2651A00643200DBA2E056E0327963
:1066E000012A10D1210035310A702A00AD3212780A
:1066F000002A2FD000225A6781235B000A70B380E2
:10670000FEF794FDB8E72000002135300170727962
:10671000012A0DD12A00AD3212788A4203D102310A
:1067200071715A67A5E75A6F1D2AAAD95967E7E719
:10673000F7790122002F01D07271F7E7317A002931
:1067400006D05A6F1D2A9CD902225F67727190E7AA
:10675000B28002700EF06AF997E75A00A95A0A1C33
:10676000B14200D9321C96B2013393E7087C002273
:1067700001280FD0022823D01800643056DA236E87
:106780001E2B5FD8A36D0133A365E265236E013331
:1067900023661FE0312B6BDCA06D1E2895D90320EA
:1067A00008746F4922660A708FE7032008746C49E9
:1067B000E2650A70312B5BDCA26D0132A26530E02C
:1067C0001800313024DAA16DE2650131A16564332E
:1067D000DCDB2266002363660123039A9A424CDCC9
:1067E000230067836C331A7D5E4F002A4ED101214E
:1067F00019754918D974230048331A7022006C3275
:10680000937D002B5BD00021574B9175197056E09A
:10681000606E1E28C9D8312B2ADCA16DE2650131DA
:10682000A16500222266313309DAD3E7642B11DC3B
:10683000E265312BC0DDA2650023E3652366636E4C
:106840000133C8E702230B740121454B1970A36D76
:106850005B1899E7E36D1E2B04D901230B74FF210C
:106860003F4B1970A265E36D0133E3650023E5E753
:106870000022A265642BDFDDF5E75A00A95A0A1C45
:10688000B94200D23A1C97B20133A6E7DA7C012A5A
:106890002FD0220036321278002A2AD0012E28D991
:1068A0000122DA74230048331A70230001226C336A
:1068B0009A7508F0F1FEE3687B62636823602369E0
:1068C0002A4E2068B36013F0D7FCF0605E20284B9E
:1068D000218B1B78628B3856002B11D000280ED1EB
:1068E000244B9C46030061450FD9234890425B41ED
:1068F0000BE0230048331B78002BD6D17EE7002322
:10690000013002D11B488142EFD83800DBB25C3045
:106910000370B07C1E2801D80130B074707C002850
:106920002ED104235D37FF33B0743878338208F0FA
:10693000FCFD0DF0CEFE230035331B78002B49D132
:106940000E4A1370CFE1C046E00800206009002025
:106950002818002002020000040600206006002023
:106960001A170020BC160020B4160020E0090020F1
:10697000DD180020A50E000068100000380A002075
:10698000307C012818D0022864D0200035300078EF
:106990000390B07C0128CED903980128CBD1F07C9C
:1069A000984217D1521A182A14DD039B5D373B70A9
:1069B0000223039833744AE0200035300078002821
:1069C00006D1002003235D3738703374B074AEE70E
:1069D00001282FD0330001225833A8351A702868B7
:1069E00013F04AFC0390706C13F046FC011C0398F2
:1069F00013F032FA00210EF029FC00284AD18F4A08
:106A00008F4913888F4C8B4201D8013313802300A8
:106A1000260057331B788C4F8C4D5636002B00D0F8
:106A2000F6E0E364A3640223FF33338000232B6486
:106A3000BB6039E1B07C1328CCD9F07C9842C0D13E
:106A4000511A0929BDDD02235D373878337408F007
:106A50006CFD70E70123337400237D4A1800527FD8
:106A60007C49B3749A4200D165E7CA5C9A4001330D
:106A7000104380B20F2BF8D10022774B197819AB55
:106A8000C9031A700143023289B2009283200BF0CD
:106A9000BFFA50E719AD2A001C340BCC0BC2238877
:106AA0001380B16A03981F1C13F0D6F96B4913F0D9
:106AB00095F8664B041C0B9398640023E85E13F072
:106AC0008FFB04900223E85E13F08AFB05900423F9
:106AD000E85E13F085FB06900623E85E13F080FB6A
:106AE00007900823E85E13F07BFB08900A23E85E1A
:106AF00013F076FB099038B213F072FBF16A0A903A
:106B0000059813F0A9F9564913F068F8211C12F002
:106B100045FF716A071C049813F09EF9504913F061
:106B20005DF8211C12F03AFF391C10F0C3FA316BEA
:106B3000071C069813F090F9494913F04FF8211CEF
:106B400012F02CFF391C10F0B5FA716B071C079876
:106B500013F082F9424913F041F8211C12F01EFF94
:106B6000391C10F0A7FAB16B071C089813F074F9E0
:106B70003B4913F033F8211C12F010FF391C10F0C0
:106B800099FAF16B071C099813F066F9344913F070
:106B900025F8211C12F002FF391C10F08BFA316C21
:106BA000071C0A9813F058F92D4913F017F8211C07
:106BB00012F0F4FE391C10F07DFAFE210B9B8905C2
:106BC00058640EF04DFB431E98415C363071002630
:106BD000049C01367300E85E13F002FB011C201CCC
:106BE00010F068FA041C062EF3D1164B049AD865EF
:106BF0005A62039A9A62059ADA62069A1A63079AA7
:106C00005A63089A9A63099ADA630A9A1A64F6E64A
:106C10003378012B26D0022B00D11AE10023BB6070
:106C20000023236502333370FEF77CFA0C20FEF755
:106C3000FDF9FE239B052B6436E0C046340A002094
:106C4000FE0F0000E009002060090020BC160020B3
:106C5000E005002094170020A31700206F12833A4C
:106C6000CDCCCC3D0023CD49E06D2B64BB600EF054
:106C7000F7FA002800D1A06423005C331B79002BB5
:106C800000D1E3646421A36CC54A4B4393420BD902
:106C9000E36C4B43934207D92300032256331A7007
:106CA0002300002254331A80E56DBC49281C0EF0E5
:106CB000D7FA002801D0A06C01302300A0645C3317
:106CC0001A7900239A4201D0E36C0133B549E36499
:106CD000281C0EF0A7FA002801D0206D0130B24B1D
:106CE00020651B686364B14C00201C23E25E250014
:106CF00026001700F38B0130191C1BB2BB4200DDCC
:106D0000391C0FB202360628F4D100206185EB8BC6
:106D10000130191C1BB2934200DA111C0AB2023571
:106D20000628F4D1A18506F0A3FF22006C32A04B07
:106D3000927BA04E1A700021306C0EF06DFA012388
:106D4000002804D023002E331B785A1E93413200B2
:106D50002C32137022003300463212783D331A7001
:106D6000954B964A1800A5301178027800251143FA
:106D70001A00AD3204911178220035321278AA42FD
:106D80000BD05E3632780A43AA4206D1C8218C4A1B
:106D90004900126AC83291426D418A498A480A887C
:106DA0008A4E824201D801320A80320064329179DF
:106DB000002966D1012393710A3393702300413374
:106DC00011801970230041331B78012118000893AA
:106DD000431E98412300C0B23833187023003E335D
:106DE0001A78754B0691002A0CD11900AC3109783C
:106DF0000692002906D11A00A632127811004A1E06
:106E0000914106916A46127E3F340D92227801210B
:106E1000002A0AD11900AC310C781100002C04D1E1
:106E20001A00B73211784A1E9141694AC433957CE1
:106E30001C78CEB25D4B002D00D0DFE101279774A6
:106E400057741A003C321570002C00D1DDE100238C
:106E5000DDE1FE239B055349E06D2B640EF0E2F962
:106E6000002801D120651FE76422236D5343594A4E
:106E7000934200D818E70023E364A364013333701E
:106E8000D4E5907801380B2800D969E10EF0A6FA14
:106E90000C0013001B00330053002D007C007C000D
:106EA000A8000B010E01260106236436B3700422EC
:106EB000494B9A7086E7330064335A79012A25D109
:106EC00007329A70F3E70F22434B44495A709A7085
:106ED000DA701A715A710B0042331A78002A04D002
:106EE000012234310A7000221A700B236436B37009
:106EF0000023338044E0330064331A79012A05D13A
:106F000009329A70344B083ADA705BE7002A05D0F0
:106F100096221B885200934200D253E705222E4B43
:106F20009A7064360323B3700AF0A6FF2300002290
:106F300041331A7046E732006432D178012907D113
:106F4000254B01315971092393700023138039E7D0
:106F5000002904D0962110884900884205D30522D3
:106F60001D4B9A70033A5A71DBE7AF331B78002B45
:106F700000D027E702201849138048710B21917037
:106F80002200413213701DE7AF331B78002BACD0C9
:106F900009236436B3700023338013E7000096435F
:106FA0003075000000009B43D018002060090020CD
:106FB000EE160020BC16002028180020D41800204F
:106FC00060060020440A0020FE0F0000E0090020B7
:106FD000CC090020B80B00009C05002060050020B3
:106FE0001A00B0321278032A08D17C4B0C32643676
:106FF0005A70033AB270002232805AE71A00B43253
:107000001278012A16D133000025643304321D8022
:107010005A803100724B6C314919E8180135FDF77F
:1070200047FD602DF5D102226C4B64365A71012365
:10703000F370C7E61A00B3321578002D20D101276E
:107040006436B770C04602213A006648FDF746FD37
:10705000C046FDF73CF92A000E21634805F0EEFA20
:10706000624D634A3900286A03F014FDFA2080005B
:1070700005F064FE03F020FE0F223C352A71A1E6E4
:1070800032009621643210884900884205D30521D8
:10709000524B99700323937046E7AF331B78002B54
:1070A00000D122E78EE607236436FFE6AF331B7874
:1070B000012B00D086E6002D03D022004132137050
:1070C00066E764363388132B00D87BE60323B3705E
:1070D0000AF0D2FE230041331D7073E6B0331B78F3
:1070E000012B12D06436022B30D100250B33B37044
:1070F0003580C046012203213A48FDF7EFFCC04627
:107100000F22364B5A709D705CE633000422002536
:10711000300064339A701D80304B0B322900683088
:10712000324F5A70F9F7C0FE3B899D4200D349E6C1
:107130000023F86812AA1377281819A9FDF7B8FCDC
:1071400012AB1B7F7B550135EDB2EDE796233288FC
:107150005B009A4200D235E60522204B9A70E1E6A8
:10716000B2331F78012F31D13000022300253900BE
:10717000693093701580F9F797FE1C4B1A89954278
:1071800002D30F223C33BFE6DE68AA195E5D03928C
:10719000F6B2012231000398FDF7A0FC00280DD1C2
:1071A000144B12AA1B780398137719A9FDF780FCDA
:1071B000002804D112AB1B7FB34200D038004242FA
:1071C00050410D4B01355871EDB2D6E79623118829
:1071D0005B00994200D2F5E559E7C0469C050020C6
:1071E000084200007C40000080F00F406005002055
:1071F000AC0A002068AB0100440A0020557C012D38
:1072000000D038E2002C00D02FE25B6F0133EA4A55
:1072100053671300140035331B786C34002B00D1F6
:1072200037E20125657514000025343425700224E9
:107230000432FF34D487E14ADF4C12780592551EA0
:10724000AA41D2B20A92220042321278551EAA41B5
:10725000DB4DD2B22D780B92DA4A6DB2099515004A
:10726000099F66352F70150065352E701500353570
:107270002D78002907D13C321278463421782A43F0
:107280000A4300D10DE2099A013200D109E25A42C3
:107290005341DEB2CC4B049ADB7F079353425341F8
:1072A000DBB2CA4A0393C74B16701A0003996232C5
:1072B0001170002163331870C54BC64A1970C64857
:1072C000D36D834201D80133D365C44AC44B1478CB
:1072D0001F6AC04B002C00D030E201211170052242
:1072E0009C661C667B331A70BE4B20001C715C715F
:1072F0000DF010FBBC4BDC77BC4B1978B54B01296A
:1073000000D01EE31A6E01321A6600230022B14833
:107310004366059B93420AD0AD4B1B78934206D03F
:10732000B34BB44CFB18A34201D8826E0132B24B6E
:10733000A84882661A680023BA4201DAC36E013394
:107340000022C366012901D0026F0132A14B012145
:107350001A67A44A10791A005532D27F824204D1AA
:107360005633D97F091A4B1E99419E4BCCB29A795C
:10737000531E5D426B41994206D0032A04D0431E3E
:107380009841C0B20DF0B6F90022964B069D9C7153
:107390009A4B8C4C1A709A4B0D9A1A702300343306
:1073A0001878230031331A7823002F3319782300FB
:1073B0003B331B78002D06D1104301433834194369
:1073C00023780B4305D08F4B00201B785BB2012B39
:1073D00024D18D4A7B4B1078089A024310001A0082
:1073E0003632127810431A003732127810431A00DE
:1073F0003932127810431A002C3212782D331B7850
:1074000010431843079B03431800039B1843304362
:10741000C0B2434258410B9B404218407B4BC2B222
:107420001A707B4B674CDE7F6E4DB61A731E9E4101
:10743000784B1B789B1A5A1E93411E43764B5A7801
:10744000531E59424B41B34203D0032A01D00DF0E1
:10745000CFF9220023002C32127867331A702200F1
:1074600023003532127870331A702200230036322E
:10747000127871331A702200230037321278723377
:107480001A70220023003832127873331A702200E7
:1074900023003932127874331A70220023003A32F2
:1074A000127875331A70220023003B32127876333B
:1074B0001A70220023003C32127877331A702200AF
:1074C00023003D32127878331A70220023002D32C7
:1074D000127868331A70220023002E321278693332
:1074E0001A70220023002F3212786A331A70220099
:1074F0002300303212786B331A70220023003132AD
:1075000012786C331A7022002300323212786D33F5
:10751000EE711A7022002300333212786E331A7023
:1075200022002300343212783C496F331A700978F4
:10753000284B254A204ED17719002A795531CA7730
:1075400019005631CA7722007A321278190078333E
:107550001A7033005831CA7748331B78002B00D19A
:1075600020E200237361A36201332B771C4BD8699F
:10757000EB7C7E2B00D83DE21A4CA57C002D00D080
:107580003BE2012319A9A3742548033363741995B9
:10759000FDF773FA0600199812F06EFE731E9E41F5
:1075A000084F19A978651F4866761995FDF765FAA1
:1075B0000600199838E0C04660090020A3090020A1
:1075C0001A170020BC160020B70A00201D17002043
:1075D00035170020600A0020FEFF0F00DC0A0020A3
:1075E00060060020E00A0020BD160020C51800201B
:1075F000E7030000CE070000E4180020E00A0020A6
:107600002017002022170020EF1600203617002038
:10761000B80A0020D80A0020E60A002099090020B4
:10762000104000001440000012F026FE731E9E4120
:1076300019A93865C748A6761995FDF71EFA060000
:10764000199812F019FE731E9E41F86419A9C248D8
:1076500019952676FDF711FA0500199812F00CFE1F
:10766000B8656B1E9D41E57640E202243C335474BC
:107670001D70FFF7ECFB002C01D0FFF7E8FB5D6FFE
:107680000C2D00D8C1E5012555741A003C32147048
:10769000BBE5657D002D00D1CDE5433213706375E8
:1076A000C9E55E425E41AD4A049CF6B21670624284
:1076B0006241AB49D2B203920A00039C6232147059
:1076C0000A0063321070A74A0800D27F3030079258
:1076D0000A00333200781278024308002E30007816
:1076E0000243080036300078024308003730007843
:1076F0000243080039300078024308002C3000783B
:107700002D31097802430A4300218A4200D0D3E593
:1077100001268B4200D1CFE50123049E03938E42C4
:1077200000D1C9E5089E079B1E438E4203D10A99EA
:1077300007960396C0E50E000391BDE51D007B355D
:107740002878894A0138042800D9ACE00DF03CFEC5
:10775000030A17297A00DB6D042B00D8CCE500243E
:10776000824BBCE5DB6D272B00D8C5E5C722804BDB
:1077700092005B8C64339BB29342F0D3BCE500294A
:10778000EDD09D321278794B002A02D000225A6641
:10779000B2E55B6E1D2B00D8AEE50122754B1A7069
:1077A000DDE70029DBD06421DA6D73484A43824269
:1077B0000CD86F4A2220105EC8229200904205DA4F
:1077C0006E4A2224125F0A3A904211DA0024022102
:1077D000664B6B4A6B4D20001170DC652C710DF00F
:1077E00099F80122684BDA77624B6C711C7083E563
:1077F000664A1268BA420BDB0022DA66F9F718FA19
:10780000634B5A4C1870F9F703FA7E34207073E515
:10781000DA6E4A43C82149008A42EFD31A007E3209
:107820001278002AEAD01A007F321278002AE5D0B6
:10783000544A9039FF39117100221A677B3306329E
:107840001A7059E5002901D101F02FF8002F4CD111
:10785000C822474B92005B8C64339BB293423BD867
:10786000F9F7D6F94B4D414C0C902870F9F7E0F937
:10787000474B18700C9B002BA8D12B88002B2BD1C9
:107880000120404B0422587123007B331A70E766B5
:10789000E7650DF03FF8F9F7CBF93D4B1870F9F7B4
:1078A000B7F9287028E5002900D158E79D321278F1
:1078B000012A0CD100241C675C6603232B70314D18
:1078C0002A7120000DF026F82F4BDC778CE71B6F18
:1078D0000A2B00D810E579E7C822254B92005B8C73
:1078E00064339BB2934200D970E7099B01330ED1F8
:1078F000002403221D4B234D5C667B331A70012349
:107900002B71DEE719660022184B9A66F4E4224BCD
:107910001A78164B012A0BD000221A66059B934257
:10792000F1D01E4B1E4AFB18934200D8E4E4EAE76C
:107930001B6E272B01D900F0C4FF059B002BE2D062
:10794000EFE700221A66914200D0DEE45B6E01335D
:10795000DCE4C0461C400000184000001D17002059
:10796000BC160020B70A002028180020600A00205A
:10797000E00500201C170020ED070000E0070020B4
:10798000DB0A0020E00A0020BD160020E4180020D9
:10799000DF0A0020DE0A0020C5180020E7030000EF
:1079A000CE07000072692B77A262D94BD94C1B78A5
:1079B000002B05D0230040331B780126002B04D177
:1079C00023006C33DE7B731E9E41D34B1A6A511C1D
:1079D00001D001321A621A000832D27F002A00D088
:1079E000BEE121003A310A700221FF31D984093306
:1079F000DA77CFE10133EB74BEE5637C032B00D172
:107A000083E031D8013B012B67D9330036331B7833
:107A1000002B00D19DE0C14BC14D1B785BB2002B08
:107A200000D196E0BF4912F0D9F80021041C0DF0F6
:107A30000DFC00286CD00122B74B211C5A74286D14
:107A40000FF0D0FDB8492865201C12F0C7F8041CBF
:107A5000306812F011FC011C201C11F09FFFA96D71
:107A60000FF0C0FDA86541E0042BCED1A369002B27
:107A700039D0002719A9AD481997FCF7FEFF05007A
:107A8000199812F0F9FB6B1E9D41A54E19A970655E
:107A9000A74865761997FCF7F0FF0500199812F0D2
:107AA000EBFB6B1E9D4119A93065A248A57619977D
:107AB000FCF7E3FF0500199812F0DEFB6B1E9D41F9
:107AC000F06419A99C4825761997FCF7D6FF0500A4
:107AD000199812F0D1FBB065C3E536363378002B28
:107AE00004D10122E2750522E37462748A4CA37DFD
:107AF0007E2B01D80133A375637D002B00D083E07A
:107B00000422FF32A282A3754FE70023E375EAE760
:107B10000021201C0DF086FB00281AD002227E4B8B
:107B2000211C5A74686D12F097F980231B067E4958
:107B30006865E01812F052F8041C306812F09CFBE3
:107B4000011C201C11F02AFFE96C0FF04BFDE864CA
:107B5000CCE7714BDA7C632AC8D9DA7D002AC5D01C
:107B600003226F4C5A74606D0FF0CEFC11F014FEBE
:107B7000042201006D48FCF7B1FF206D0FF0C4FC3A
:107B800011F00AFE042201006948FCF7A7FFE56C2A
:107B9000281C11F001FE12F06FFB011C281C12F0D2
:107BA0005BF9FC2189050DF05BFB002824D0281C23
:107BB0000FF062FC11F0F0FD042201005D48FCF7BB
:107BC0008DFFA46D201C11F0E7FD12F055FB011C88
:107BD000201C12F041F9FC2189050DF041FB002821
:107BE0000ED0201C0FF048FC11F0D6FD042201003D
:107BF0005148FCF773FF79E7281C0FF085FCD9E7A3
:107C0000201C0FF081FCEFE7227D012A34D0414B8C
:107C1000022A36D036331B78002B3CD0474B00214C
:107C2000DD69281C0DF0FEFA002834D00223291C3F
:107C3000A068237512F010F980231B064049A0604C
:107C4000E81811F0ABFE9E21C905051C0DF0EAFAFB
:107C500000281ED0281C12F0A3FA12F0C1FA304BF3
:107C6000596A11F0BBFF8321C90511F0B7FFE16824
:107C70000FF0B8FCE06098E600232374032222751D
:107C800041E736331B78002B00D08EE601222274A8
:107C9000F4E72C48E1E7A37D632B00D885E61023A9
:107CA000E356012B00D080E62375A068264911F029
:107CB00075FE0027051CA06019A924481997FCF738
:107CC000DCFE1999281C0FF08DFC214B0422D8678B
:107CD000011C1E481F4DFCF701FFE0681E4911F012
:107CE0005DFE19A9061CE0601C481997FCF7C5FE4B
:107CF0001999301C0FF076FC8835011C286004228D
:107D00001648FCF7EBFE0023A360E3604DE6C04697
:107D1000D418002060090020E00A00201A17002073
:107D2000BC160020B4A2913900006145104000004B
:107D3000144000001C4000001840000060060020B5
:107D400000007A44FFFFFF7F00BA5B4A9C400000BE
:107D50005817002050170020A493564F9840000059
:107D6000DA1DD07F022834D003283ED0012840D12C
:107D700019000931CD7F002D25D0D349097849B2AA
:107D800000291BD00321D17700221A62CF4B1A7031
:107D9000CF4B1A70CF4AD36A591C01D00133D3623A
:107DA00011002C314879CC4B002856D106255F3381
:107DB000FF35D06215861870C87173E00423D3773D
:107DC000C34B1870E6E7C14B1B785A1E9341CB7723
:107DD000E0E724215A5E002ADCD00121DA1DD177A8
:107DE000210000223A310A7001E61A6A632AF4D8A7
:107DF000D0E723006C331D7C002DCBD123003A3318
:107E00001D7002232800D3770CF074FC28000CF0BE
:107E1000EFFCB24D2F6A2B6ADB1BFA2B19D80CF042
:107E2000EDFDAF4AAF4B1278002AF4D1A2331B7894
:107E3000DAB20592002BEED1FCF749FA0E21059A31
:107E4000A94804F0FBFBFA20800004F077FF02F061
:107E500033FF00229F4B9A849CE70879013803285E
:107E600000D96FE10DF0BAFA0400A60021016B0100
:107E700001225F331A70002E04D123003A331B789D
:107E8000002B0FD00322994D924B2A710022DA6207
:107E900001232B7223006C339A89E16E206FFDF76A
:107EA0009BF82872924D0021A8680DF0B5F90122C7
:107EB000002803D031352A78531E9A418D49864BCC
:107EC0000A7021001A00473109788C3211701A00AB
:107ED0000A998D3211701A000B998E32117021009F
:107EE0001A00343109788F3211702200333212783F
:107EF000903338341A7024787F4B7648DD79002C23
:107F000000D07BE17D4A1278002A00D176E19E788C
:107F1000DB78721C591CD2B2C9B2112A00D826E1F2
:107F2000052B00D144E1220023004230C470694E89
:107F3000734C0027A370330038331B79581CC0B230
:107F40001F2B09D1330047335F78002F04D06478AA
:107F5000012C00D035E101275E4B694C67701F0092
:107F600038377F79312F00D036E11F0047373F780F
:107F7000002F00D12EE12778012F00D027E13223F6
:107F80005D4F544C7B71202800D9002023003833EA
:107F900018719A70062900D827E10022DA709542FC
:107FA00000D126E19B79012B00D048E2022338342E
:107FB000A3712AE1474A022015005F3318702C355F
:107FC000AE79D16A002E0FD064234B43FA21890089
:107FD0008B4200D266E700262871D6620123AB717E
:107FE000FCF7E8FFAE715DE70A20464A926B424318
:107FF0008A4200D956E704222A71384D013A1A7094
:108000000121286A404A02F045FD102009F0E0FFF6
:10801000002802D1103009F0DBFF2B6AFA27059304
:108020003A4B3B4E9878FBF7DFFFBF00012805D0A5
:108030002A4B059A1B6A9B1ABB422CD32B6AC0465B
:1080400000282ED1C046FA20400004F077FEFA2026
:10805000400004F073FEFA20400004F06FFEFA20A6
:10806000400004F06BFE002202211F4804F0E6FAF3
:10807000C046FA20400004F061FEFCF728F9002217
:108080000E21194804F0DAFAFA20800004F056FEB6
:1080900002F012FE06E7330058339878FBF7A4FF8E
:1080A000C4E7C04600237377CDE715002C35287A46
:1080B000002831D06421D36A4B4316498B4200D843
:1080C000F0E60023D362E3E61A170020DD05002066
:1080D0009A090020E00A0020BC160020600500205C
:1080E000F31700205017002080F00F400C0B0020E9
:1080F0006009002037170020180B0020C918002045
:10810000220B0020E0070020AC0A002038060020E7
:10811000E0050020B70B0000E14BE2491E78E24B7E
:10812000002E06D001223B3108702A715F331A708D
:10813000B8E602215F332971D66219704EE7032237
:108140005F33F4E700205F331870CD7985420BD0A0
:108150006425D36A6B43FA25AD00AB4200D2A1E699
:108160000523D0620B7127E601220A71DFE7052B98
:1081700005D101004231C97801291BD10621053BF7
:108180005F427B41C94CCA48E3700023102E00D0E7
:10819000CDE606004736B378002B00D1C7E6A378BA
:1081A000012B03D001234A30037073700123BEE614
:1081B0002200DEE70400012146344730217081703F
:1081C000DCE7370001244B373C701C70C3E6012705
:1081D0004C331F702770D2E60137FBB2002727709F
:1081E000322B00D8CCE63B00CAE6D970002D00D077
:1081F000D8E60222AE4BFF32DA8706E0002DF8D037
:1082000038308379012B00D016E1FF22A8485200B4
:10821000038F934201D80133038704003834637A13
:10822000002B00D0C3E18121821C4900D187038744
:10823000A04A9D4B127894461A002D32127806926D
:108240001A002E32127807921A002F3212780892F2
:108250001A003032127809921A00313212780A92DA
:108260001A00323212780B921A00333212780C92C2
:108270001A00343212780D921A00353212780E92AA
:108280001A00363212780F921A0037321278109292
:108290001A003832127811921A00393217781A00FF
:1082A0003B3216781A003C3215781A003D321478A9
:1082B000DA6A19921A6B998F1A925A6B1B929A6BFF
:1082C00001331C9219AA11827B497C4ADB7F087812
:1082D000110013930123AE3109780593049B129189
:1082E000002B3ED063460699B6320B439C4661464E
:1082F000079B12780B439C466146089B0B439C46A8
:108300006146099B0B439C4661460A9B0B439C4676
:1083100061460B9B0B439C4661460C9B0B439C4662
:1083200061460D9B0B439C4661460E9B0B439C464E
:1083300061460F9B0B439C466146109B0B439C463A
:108340006146119B0B431F433E43354312992C4317
:10835000139B204301430B4313431A00531E9A41BE
:108360000592574B50491B7814AA137004930B00C5
:108370007C331B78537006930B007D331B7893700E
:1083800007930B007E331B78D37008930B007F3369
:108390001B78137109930B0080331B7853710A9378
:1083A0000B0081331B7893710B930B0082331B7886
:1083B000D3710C930B0083331B7813720D930B0056
:1083C00084331B7853720E930B0085331B78384C23
:1083D00093720F930B0086331B78D3729C460B006D
:1083E00087331B78137310930B0088331E780B00B0
:1083F00089331B78567393730B008A3318780B00FC
:108400008C318B331B780978D073517413742D49D8
:10841000226F11938A4201D80132226727007037F8
:108420003A7C204D002A00D0F9E001233B74264B12
:108430002267BB81286964E101238371E5E623009B
:108440004B331B78214D012B00D091E02000204BB5
:1084500004221B6A14A94D30149312F099F82000DD
:108460001C4F04227B6F19A95130199312F090F818
:10847000F86FB96F11F092FA174911F0AFFB0EF0D7
:10848000FBFF1549041C0CF0E1FE002826D1002159
:10849000201C0CF0D1FE002821D000241FE0C04693
:1084A0009A09002060090020BC160020220B002041
:1084B000E00A0020E8160020D51800202818002027
:1084C00037170020FEFFFF030202000060080020B3
:1084D00060050020501700200000C842CB4C31003E
:1084E000230A4D310C724B720C22230CC848240E07
:1084F0008B72CC72FDF792FA0535E877EB7F002B93
:1085000008D00022E87FC34B40B21A70C24BDA7F1A
:10851000D8777AE6012004F011FCC04AC04BC1486C
:108520001B6A1478C04AC14F1178F06530005C3086
:108530008780C127FF0007812327320087726736B3
:108540001F0A777033701F0C1B0EF370FF23593214
:108550001278B7704274C47301748374FDF7CAF95A
:10856000E877EB7F01205BB2EB7704F0E7FBC8E72D
:1085700026004C363378012B04D1FDF79BFF0023F6
:108580003370C3E726004A363378012B02D1FDF75A
:10859000ADFEF4E7463423780026012B03D00535E1
:1085A000EB7FEE7731E6FDF7BDFB2670AEE7237A71
:1085B000012B03D101332372002338E66423028F99
:1085C0005343FA22D200934200DA31E60123984A5B
:1085D00023721278924B974D002A1DD11A007C32DB
:1085E0001278D1B2002A17D134331B7812AA13772C
:1085F000914B5177C3658D4B022223858F4B2434D9
:108600002381232319A96730A37211F0C1FF200031
:10861000FDF770F96B1DD8770535EB7F08E66B46E3
:10862000049A197D069B1A43079B13431A00089B63
:1086300013431A00099B13431A000A9B13431A00A1
:108640000B9B13431A000C9B13431A000D9B1343FF
:108650001A000E9B13431A000F9B13431A00634624
:1086600013431A00109B13431E43119B30430343D3
:108670005A1E93413A7BDBB204922A0038321678B4
:10868000049A012A0AD0022A00D197E0002E00D0D5
:10869000EEE06B4BFE73BB812667CBE6002E0AD063
:1086A00003233B73F9F744FA80239B00FB810023EB
:1086B0006420236716E0B87B0138032800D96EE0F8
:1086C000604A0CF081FE025A485A130070330421AC
:1086D0005E5E0021092E08DC052011679873FBF708
:1086E000F6FD3000F8F746FE10E00320116798739E
:1086F000F7E70B430AD11100514E70318E818B7315
:10870000136711F049F8C0B2FCF71EF82A000021E7
:108710002B0070346174393212786C339A732A6882
:108720002A672A69EA662A8B9A812A0037321278E8
:108730003B35DA732A781A74434A9368013393609D
:1087400053698B4200D0AAE0D3680133D360012380
:1087500053611FB0F0BD6423116F59433B4B187830
:108760003B4B43439942D1D3130002217033997399
:1087700000231367F8F738FEC8E76427166F2869E7
:108780007E43344FBE42B4D9012370329373002329
:108790009380039914AA19A80BF001FAB6E7642391
:1087A000226F5A43294B1978294B4B439A42ADD338
:1087B00004232667BB73F9F7BBF9DBE7002E06D06D
:1087C0000323BB81F9F7B4F9049BFB736FE70B43F9
:1087D00006D0F8F709FE0123BE80BB81BB73D8E742
:1087E0007A7B012A38D12A0036321278002A00D149
:1087F0008CE76421226F4A4316498A4200D885E7F4
:10880000049A28697A7323677BE7C0460000C84250
:10881000B5FF00002B0B002065080020F417002096
:1088200060050020D4FF0000F517002000FFFFFFC7
:10883000C805002060080020FCFF000002050000C1
:1088400002020000E00A0020600B0020BD050020AD
:108850004C040000DB0500006421226F4A43913183
:10886000FF318A4200D251E701227A73236781E700
:108870006420FA22236FF97B43435200012907D178
:10888000934200D242E70223FB730023236729E7C8
:10889000934200D23AE70123FB730023E6E701335A
:1088A000042B00D854E70B0052E79D3212780B4B93
:1088B000012A01D0FFF726F81B6E272B01D8FFF7FE
:1088C00022F80121064A054B11700022DA65054B9A
:1088D00002321971044BFEF7B3FFC046600A002054
:1088E000DB0A0020E00A00201C170020F0B50E0073
:1088F000002193B004002E2206A801910591029157
:1089000011F030FE11200322FF21684411F02AFEED
:108910000A231E22210003AD05A801AF03962B7187
:1089200011F036FEC046A02008222900C000FCF746
:108930006FFE002818D1012405AD0920032229006B
:10894000684401963C7111F023FEC04608223900AC
:108950000748FCF75DFE002806D10134E4B2033578
:108960000B2CEAD113B0F0BD01204042FAE7C0461B
:10897000010500000021F0B5F54B91B01A6AF54EE3
:108980000592F54A1170F54A1168890400D4DDE3B7
:10899000F3495160F34AF44C1178F44AF44D1176DE
:1089A000210066310978517621006231097891768B
:1089B000210064310978D176210065310978117779
:1089C000210063310978517721007A310978917754
:1089D000210079310978D17700225100485B0132BA
:1089E0007052102AF9D13200E96BC03211601A00BE
:1089F00031003C321078AF31087031005078B0311E
:108A0000087031009078B13108703100D078B231FF
:108A1000087031001079B331087031005279B431E7
:108A20000A70D44A0392527E511E8A413100A53108
:108A30000A701A00683211783200B63211701900CB
:108A400054310A78012A07D1986D1A6A121ACA4855
:108A5000824201D900220A701A0054321178320081
:108A6000B532117022005D321178C44A343311706E
:108A70001A783300A1331A7001231800C04A117804
:108A8000127888433100A6310870DA40190091430A
:108A90003200B73211703100BA4AAE31D27F0A705B
:108AA000B94A117832009D321170B84A11783200FB
:108AB0009E321170B64A1178B64A002901D1D37F8F
:108AC000DBB23100AD310B70B349D27FC87FA74B09
:108AD0000243CA77AE49D81C0F78C27F3A43571E6B
:108AE000BA41D2B2C2770A78191DC87F0533024352
:108AF000CA77AA4AD97F12789D4F0A43DA77FDF7E1
:108B0000A1FDFB6B002B00D125E3FA6BA44B9A422D
:108B100000D920E33121F86B0CF0ACFB11F02AFCFA
:108B2000A04AA14B0FF056FF0022A04B0EF0AAFF67
:108B3000802300900191009A1B061000019AD11821
:108B400011F0DCFB0023BC363060894EE15CF2188A
:108B5000443201331170102BF8D15E223300A2563B
:108B6000A4331A705F223300A256A5331A70320064
:108B70008F4B5E32598B606A11803200198B6032E4
:108B800011802C22995E3200623211802A229A5E74
:108B9000330064331A8011F003FB864FB066BB6864
:108BA000181C009311F0FCFA060011F019FB011CCF
:108BB000009811F051F980490CF048FB431E984190
:108BC000039B3618DE61300011F00AFBFB68686712
:108BD000EB67A36A2B67686FE96F10F0FFFF7749B7
:108BE00010F0DCFE2B1DD867206D10F0D5FD2B009A
:108BF00090331860606D10F0CFFD2B009433186037
:108C00002B00A26D98331A602B00E26C9C331A6023
:108C100023002C331B785A1E93412A00DBB2A63264
:108C2000137023002D331B785A1E93412A00DBB2A8
:108C3000A732137023002E331B785A1E93412A004B
:108C4000DBB2A832137023002F331B785A1E9341D6
:108C50002A00DBB2A9321370230030331B785A1E6E
:108C600093412A00DBB2AB321370230031331B78FF
:108C70005A1E93412A00DBB2AC3213702300323308
:108C80001A782B00AE331A70230033331B785A1E28
:108C900093412A00DBB2AF321370230034331B78C8
:108CA0005A1E93412A00DBB2B032137023003533D1
:108CB0001B785A1E93412A00DBB2B2321370230094
:108CC00036331B785A1E93412A00DBB2B43213703C
:108CD000230037331B785A1E93412A00DBB2B5328A
:108CE0001370230038331B785A1E93412A00DBB2DD
:108CF000B6321370230039331B785A1E93412A0071
:108D0000DBB2B7321370631CDA7F2B00BA331A70F0
:108D100023003B331B785A1E93412A00DBB2B13249
:108D2000137023003C331B785A1E93412A00DBB298
:108D3000B332137023003D331A782B00BE331A7000
:108D40002A00144BBB32DB7FDBB2137038E0C04625
:108D50006005002028180020D418002000200540BD
:108D600002A680B41D170020BC160020600B002056
:108D70005017002040FEFF1F3F9C0000390B0020D1
:108D8000C0FDFF1F610B0020F2170020F317002029
:108D900030070020E0050020620B00200A180020A8
:108DA0008F5F0100EC51B81E85EBC13F00006940A8
:108DB00060090020E00900203333333F0000C8423F
:108DC000E64B1B785A1E93412A00DBB2BC3213706B
:108DD00023002A0060331B78BD32137023007B33DD
:108DE0001B78591E8B412900DBB2BF310B70230069
:108DF0007C331B78591E8B412900DBB2C0310B70CC
:108E000023007D331B78591E8B412900DBB2C13111
:108E10000B7023007E331B78591E8B412900DBB277
:108E2000C2310B7023007F331B78591E8B41290000
:108E3000DBB2C4310B70230080331B78591E8B4189
:108E40002900DBB2C5310B702300813319782B0068
:108E5000C7331970230082331B78591E8B412900B8
:108E6000DBB2C8310B70230083331B78591E8B4152
:108E70002900DBB2C9310B70230084331B78591EE3
:108E80008B412900DBB2CB310B70230085331B787B
:108E9000591E8B412900DBB2CD310B702300863384
:108EA0001B78591E8B412900DBB2CE310B70230099
:108EB00087331B78591E8B412900DBB2CF310B70F1
:108EC000230088331B78591E8B412900DBB2D03137
:108ED0000B7023008A331B78591E8B412900DBB2AB
:108EE000CA310B7023008B331B788C34591E8B4195
:108EF0002900DBB2CC310B702B002178D7331970ED
:108F00001378974A974CD17F0B43D377964B1B7AB4
:108F1000012B72D12000954E02229549263011F086
:108F200037FB2000310002220831283011F030FBDD
:108F300020003100042218312A3011F029FB2000D2
:108F4000022231002E3011F023FB200031000222DA
:108F50002631303011F01CFB2000310002222A3172
:108F6000323011F015FBCF21ED6F0906281C0CF0F3
:108F700077F9002800D113E19E21281CC9050CF0C7
:108F80005BF9002800D10BE1281C11F009F90890C9
:108F9000042720003A0008A9343011F0F9FA734E82
:108FA0002500306B10F0F8FB06ABD8802000991D2F
:108FB0000222383011F0ECFA1023263534362B75A6
:108FC000337820006B751423EB756A4B06AAD380A7
:108FD00006AB0222991D3E3011F0DAFAC0461A2281
:108FE00029006548AF75FCF719FD644BD87701205F
:108FF00003F0A4FE00225C4B1A725B4B604A5B7A62
:109000005E4BDB7F1378D9B2002B00D0A9E35D4D16
:10901000286A01F03FFD002800D019E3C0465A4BF2
:10902000504C1E782A6A236CD21AFA239B00734391
:109030009A4203D9012363642B6A23642B005F33B4
:109040001A78012A0FD100221A70230048331B78A6
:10905000012B00D1AEE02B0068331B78012B02D02E
:109060002B007C331B78C0462B007C33474A1B788F
:109070000092012B20D11300002101331E2208A8E9
:10908000D97711F06FFAAF6F626F414B974202D8F8
:10909000002F00D0BEE0C046A4331B78002B00D0C8
:1090A000C046286F0BF016FD2B0000227C331A708F
:1090B000009B01320133DA772B0068331A780021E4
:1090C000012A00D035E3009B1D32013308A8D9776F
:1090D00011F048FA2B6E0493049A2B6F934200D937
:1090E0003AE12B0074331F782B0069331B78012B76
:1090F0001BD16A6E0392220048321678012E00D0EE
:10910000BFE0E36C9A68A36D013A5343039A9A4215
:1091100006D8002A04D0039BB34200D0A9E03E0049
:109120002B000022370069331A70626F0499184BC4
:109130008A4202D3002900D0A5E0C046A4331B78A0
:10914000002B00D0C046C046286FCAE011495160CC
:10915000516811491DE41148F4E4C046300700206D
:10916000660B0020600B0020E0080020E0070020D4
:10917000E2070020F816000097F1000065080020C3
:10918000AC0A0020600500201508002040FEFF1FEB
:109190005017002002A6000080B4000070FEFFFF00
:1091A000CF21281C09060CF03DF8431E9841614B65
:1091B000C018ECE6E36C606E9968E36DC01A401865
:1091C0000CF0FCF9A36D4B43A16E5918236EC91A1C
:1091D00000D461672B0068331B78012B00D142E774
:1091E0002B007C331B78012B00D13CE70822FF21A8
:1091F00008A8676F11F0B6F9C0460897C04606ABDD
:109200001E73032306AA537308A908224A48FCF7D1
:10921000FFF928E7A4331B78002B00D040E7230098
:1092200048331E78012E13D1E36C9A68A36D013A7E
:1092300053439F420CD820004C30B74213D108A9A9
:1092400001F020FB230022006C335C3203CA03C30D
:10925000230048331B78A96F012B00D021E708A811
:10926000FFF744FB1DE721006C3101F0C5F9013621
:10927000E1E7200021004C306C3101F0BDF90136EE
:1092800049E71E004CE7A4331B78002B00D059E7B8
:10929000002F53D11E22390008A811F063F92300D2
:1092A00048331B78012B04D1200008A94C3001F071
:1092B000E9FA2300E96E48331B780131E966012B96
:1092C00028D108A8FFF712FB002823D12B6F013308
:1092D0002B67230078331870C046286F2B6E984296
:1092E00033D30BF0F7FB2A00002368322B672B6681
:1092F0001370EB66230048331B78012B05D1230044
:1093000022006C335C3203CA03C30122009B013389
:10931000DA7721E02200783213780A210133DBB2B8
:1093200013702A6E642A00D809398B42D4DB2A676D
:10933000C046D1E7FFFFFF7F02050000C046286F4F
:109340002B6E9842CDD2012FCBD02B6A059A9B1A57
:109350005A2B00D8BEE6C046009B0133DB7F012BB1
:1093600000D075E1676C012F00D071E1002320006F
:10937000092219008E30636411F0F4F8E121E34E04
:109380000901306F0BF076FF10F076FF330000908C
:109390006C331888250080B210F022FF011C009861
:1093A00010F0FCFA330079350090A6331A786B7D03
:1093B0003A40BB4313436B7533000221A7331A783D
:1093C0006B7D3A4052008B4313436B753300A833D7
:1093D0001A7804203A408A406B7D06318343134358
:1093E0006B753300A9331A786B7D3A40D2008B43FA
:1093F00013436B753300AB331A786B7D3A40824070
:109400008C4608318B4313436B75621D3300D27F4A
:10941000AC33501E82411B7804345B0192011A4325
:10942000E37F04205C1EA3411F24DB0113436A7DFC
:10943000224013436B753300AE331A781D3C531E24
:109440009A41AB7DBB431343AB753300AF331A78FE
:10945000AB7D3A405200A3431343AB753300B033A6
:109460001A78AB7D3A40A24083431343AB75330077
:109470006046B2331A78AB7D3A40D200834313433F
:10948000AB753300B4331A78AB7D3A4012018B438D
:109490001343AB753300B5331A78AB7D10313A40C6
:1094A00052018B431343AB753300B6331A78AB7D4F
:1094B00020313A4092018B431343AB753300B733ED
:1094C0001A78AB7D3F310B40FA21D2011343AB75C3
:1094D0008F4B8900186A0BF0CDFEFA218D4B890065
:1094E000C018030A28706B70030C000EAB70E87094
:1094F000306C0BF07DFF83B21B0A6B743300287451
:109500005E331B880420AB711B0AEB7133006033A0
:109510001B882B711B0A6B71330062331B88AB7283
:109520001B0AEB72330064331B882B721B0A6B72AD
:10953000F38E2B731B0A6B73338FAB731B0AEB73A6
:109540003300A2331A78EB7D3A40BB431343EB75EB
:109550003300A3331A78EB7D3A405200A343134300
:10956000EB753300A0331A78EB7D3A40A240834379
:109570001343EB75706F10F00FF9A874F06FB16FB3
:1095800010F00CFA644910F029FB10F005F962495B
:10959000E874009810F022FB10F0FEF8FA2128750C
:1095A0008900F06B0BF066FE83B21B0A6B7600231A
:1095B0005A4C2876AF76EF76AA7E5800013A5200D0
:1095C000375AB25A591CC9B2974201D2A976C0463D
:1095D000EA7E305A013A5200B25A904201D9E976F5
:1095E000C0460133102BE7D12300012279335A778B
:1095F0001A770022150014356900775A597F501CDC
:1096000013314900715A3FB209B2C0B28F4201DD35
:109610005877C046197F6D0013314900755B715A48
:109620002DB209B28D4201DA1877C0460132072AFD
:10963000E0D1C046230048331B78394D012B00D1BF
:109640007CE001230134E377EB7D0133EB75C04609
:109650002F4E059B356A324CED1AE369206A9D4214
:1096600000D882E0002800D07FE0E561636A2D4BDE
:109670005A6A954200D25D62471C276210F0FCFDD9
:10968000A16A10F0ABFA0090280010F0F5FD011C63
:1096900000980DF0A7FF051C380010F0EDFD011C2F
:1096A000281C10F07BF9A062C046336AE26A9B1A5C
:1096B000FA225200934212D3250030352B78002B2A
:1096C0000DD133005C331A78D7B2012A56D152201B
:1096D00003F098FCFAF7FBFD336A2F70E362336AFC
:1096E000E26A9B1AFA22520093421DD325003035BC
:1096F0002B78002B18D0542003F084FCF8F718FACC
:10970000336AE36200232B700EE0C046501700203E
:1097100060050020899E33660000C842600B00206F
:10972000E00B002040FEFF1F636B0133636311B049
:10973000F0BD296729661970E966DBE52100200084
:1097400079314C3001F010F8002800D079E7231D62
:10975000D877631DD877AB6901340133E077AB610B
:1097600076E700220D4BDA7772E7636A9D4200D8F4
:109770007DE7032800D87AE7656278E71A78422007
:10978000022A03D01B78032BA9D1572003F03AFCFF
:10979000336AE36201232B70A1E7C046610B00200E
:1097A000836810B5046848680433584363680A68DE
:1097B0000830D21823685343C01810BD064B02204E
:1097C0005B69DBB2042B06D00130802B03D018007C
:1097D000012B00D00420704700E0074080000368A0
:1097E000FFDE114B8000C15830B508684B6DC005D5
:1097F000C00F40021B0602D580235B0018430B6894
:109800005B0602D58023DB00184307234024012593
:109810005A1CD2008A185268224202D02A009A406A
:109820001043013BF4D230BDA4A501008022154BAA
:109830008000C35892001868596F1040813AFF3A6F
:1098400070B5114202D080214900084319681142C5
:1098500002D08022D2001043DA6E120602D5802296
:1098600012011043002280250126541CE1005918E2
:109870004968294202D03100914008432200082C57
:10988000F3D170BDA4A50100F8B5294B8000C358E1
:109890005A78012A01D0082A36D1264A14580422BF
:1098A0004800C9008A401100656EC0B2421C0D42DA
:1098B0002BD0D2B2C500D2006519A2182F69166943
:1098C000BFB2B6B2F11B8C4689B2B74202D35988F7
:1098D000614489B2061D76009E19B1808026E96830
:1098E000B143E960D168B143D160A2685A80820077
:1098F0009A18D46B002C07D01B185C331B78002BF4
:1099000002D00020D169A047F8BDD1006118496894
:10991000090600D4D0B2C1006118021D0D695200C1
:109920009A1895808025CA68AA43CA60DDE7C046B8
:10993000F0050020A4A50100F8B51A4F1A4BFD6DE3
:109940001C686D036D0F002D00D1F8BD0426796FE2
:109950006388E28B9A1AB24202DCE28B9B1A9EB2B7
:1099600000239AB2964210D8E08B618880190BF0E0
:1099700025FE89B2E183638B9B1B9BB26383638B60
:10998000002BE2D0013DEDB2DDE76269D8009446DC
:109990000A00C24010006246107062690133013251
:1099A0006261DEE700C00240A8070020F7B507218A
:1099B000224B234F1C68FA6DA31CDB7F0A409B1AC5
:1099C000DBB20193019B002B0BD02379002B09D034
:1099D000238B012B06D13B6E1A4A13403B660023B2
:1099E0002383F7BD6188A28B23698A1A042A04DDC8
:1099F00004251E1E17D040CB0EE0A58B1E004D1B6C
:109A0000ADB2002B0FD0012904D00229F3D11E885A
:109A1000023301E01E780133A08B236140190BF063
:109A2000CDFD89B2A1837E66238B5B1B9BB2238312
:109A3000238B002BD5D0019B013BC1E7A807002059
:109A400000C00240FFFFEFFF1A4B30B59C691A4D72
:109A50002C409C6104000834E47F002C0DD10400EC
:109A60000325283424782C40144DAC760469002C4E
:109A70001CD00225DC69AC43DC61002A08D08024BC
:109A80001A69640022431A611A69241922431A616F
:109A9000002902D0802292001A660023436183616C
:109AA000C360036103300133C37730BD0125DC6936
:109AB000E1E7C04600600640FCE3FFFF0080004095
:109AC00070B500240500A04208DA0120404270BDB4
:109AD00008F006FA0130F8D00134E4B2AC42F7DB0A
:109AE000034B044A03CA03C308F010FAEFE7C04669
:109AF0001819002008190020064B08001B7810B523
:109B0000002B05D009F03AFF431E9841404210BD9A
:109B10000120FBE720190020F7B58368C468050021
:109B200040681F1B00190E000193A418974207D824
:109B30003A0010F02DFD019B6868E41A2200F1192B
:109B400010F026FDEC60F7BD13B500236A461380C4
:109B500093800533137004000222684601A9FAF7C6
:109B600031FEC046002802D16B465B79237016BDDA
:109B7000FF22F8B504000068120643680568CB1898
:109B80000E005D430AF000FC013002D1012040428A
:109B9000F8BD2068C368002BF8D0290098472068DA
:109BA0000769002FF2D00423221D291DB847013078
:109BB000ECD03100034A20680AF0E6FB0130434252
:109BC0005841E4E700FFFFFF70B50400002520685E
:109BD0008368AB420CDC002523689B68AB4212DC37
:109BE000002020616061A061E0612062606207E0A6
:109BF000002229000AF0C8FB013002D101204042B6
:109C000070BD0135E3E729002000FFF7B1FF013007
:109C1000F4D00135E0E737B50400FFF7CFFDE57874
:109C2000A3786278217800950AF024FB00280FD1F0
:109C30000A220F25E178074C2369013A1B0E2B40BD
:109C40008B4203D0002AF7D1032001E0002AFBD089
:109C50003EBDC04600400640244B820070B5D4583B
:109C60002100FF318B7C002B27D12025204B9A6AC5
:109C7000AA439A629A6A6D19AA439A629A6A40350F
:109C8000AA439A62002263792260032B0BD023003F
:109C90006271FC335D68954205D08B7C012B02D14B
:109CA00023000821A847A379002B05D06379002B56
:109CB00002D1201D0AF082F870BD6379032BE1D038
:109CC00003254A7C23682A400A4DAA761A68950221
:109CD00002D45D68AD0C5D601203120F1A749A68AD
:109CE00012BA9A60DA6812BADA60CBE75C08002030
:109CF000004002400080004070B5C4B201290DD17F
:109D00000322084B8000C3585A711A00FC32556870
:109D1000002D03D0002220000831A8472000FFF7C3
:109D20009BFF70BD5C080020F7B5427A07269300C0
:109D30001900434D01935F19424B0400CB18D96FB2
:109D400041480140D967D96FB143D967531CD9B293
:109D50003C4B88008C46C118CB6F4519B343CB6789
:109D60008023DB00F958043EB143F950E958B14370
:109D7000E950012365461900AB409140334D304A0C
:109D80004019302551615361136191614768AF43B8
:109D9000BC4620276646374347602C48019F8446CF
:109DA00067447868A84305437D60250013612C351E
:109DB000287800281ED0022829D02300012232331F
:109DC0001A7002331B78002B03D02000333009F0C7
:109DD000F5FFA369002B0CD0E38D002B09D12300E4
:109DE00030331B78002B04D02B78022B01D0184B7A
:109DF000E385F7BD106A0B43DBB298431062506AEB
:109E0000C9B298435062936A8B439362D5E7FF20AF
:109E10001E00576A0640B74303265762976A0840F8
:109E200087439762607F0B4F3040B876207F0B43AB
:109E30003040B876106BDBB298431063BDE7C04684
:109E400000A0054004A00540FFFFFCFFFCA005406A
:109E50000202000000800040F7B5704A437A040017
:109E600050690121D840084203D099406C48E085F0
:109E700051615569591CC9B2CD400120054214D029
:109E80001569DD4005420CD180239B00E38520004D
:109E9000FFF74AFF236A002B6BD00420616A9847C2
:109EA00067E088405F4DE585506110690125C84035
:109EB00028423AD0594889000918A0208000085843
:109EC0002600019020003136377830300578002F99
:109ED0001DD101203070002D27D0534D980040191E
:109EE00030254668AE43103D35434560A0690128E2
:109EF0001BD14D489E00361830207568FC318543D3
:109F0000054375604D688543284348600DE0A669A8
:109F1000013EA661002D08D02569019E2E7025699D
:109F20000135256100780028E0D11169D940C907C1
:109F300009D56069617A00281CD101219940106A15
:109F4000C9B28843106291690120D940014210D002
:109F500021003231097800292DD090212F4A9B0011
:109F60009B18C9005A58314802405A502000FFF748
:109F7000DBFEF7BD01386061A031002809D1250062
:109F800035352D788900002D01D1FF200006505075
:109F9000D3E7200030300078002804D0FF2089006B
:109FA00000065050CFE7E0688900057801302D06A3
:109FB000E0605550C7E79840618D013989B26185ED
:109FC000906102290CD1A020144A9B009B18C0006C
:109FD0003E3419582278C9B212020A431A50C8E70F
:109FE00001290AD190200D4A9B009B18C0000F4AFE
:109FF0001958114080229201EFE70029B9D1902031
:10A00000064A9B009B18C0001A58084D2A401A5057
:10A01000E38D022B00D03AE7E18538E700A0054048
:10A020000102000002020000FCA00540FF8FFFFFBC
:10A03000437F9B001B68FFDE1A4B80001B1870B526
:10A04000DC6A0D00A369002B10D001290ED000237B
:10A050000321A361144B9A6D8A439A650122D96941
:10A060009143D96199690A439A6170BD231DD97FD3
:10A0700000222000FFF7E8FCE31DDB7F002B03D06C
:10A080002000253009F09AFE012D07D1A583E36A4F
:10A09000002BEAD00420216B9847E6E70023A38336
:10A0A000F5E7C046F81800200060064010B5C37EF2
:10A0B0000400427D002B20D0002A17D11A4A1B49E8
:10A0C000D3690B40D3610121174A53698B43536114
:10A0D0000023A3702361A360E3606360E375A37E44
:10A0E000002B03D02000193009F068FE236A002BF2
:10A0F00002D00420616A984710BD0321037F0B4002
:10A100000B498B76002AF1D1074B0849DA690A40DE
:10A11000DA618268002A04D002211A6A8A431A622C
:10A12000D1E701211A6AF9E7FC600640F8F0FFFF69
:10A13000008000400B4B10B51B68202805D0012182
:10A140008140094CA26A8A43A262C0001C18A2790D
:10A15000002A03D00430181809F030FE0023637180
:10A1600010BDC0465C080020004002407FB50E7C58
:10A170000C000D78002E12D1104B4000C15C28005D
:10A1800009F0F2FC61780396E368009602930123DC
:10A1900001936368A268280009F0CEFE7FBD2C21E0
:10A1A000280009F0E1FC002361780393E268009342
:10A1B000029201220192A3686268ECE700A9010003
:10A1C00000235B68FFDE0F4B820070B5D4580E4B46
:10A1D0000D00D358012904D1073409F09BFEE5771F
:10A1E00070BD2279002A03D01A6E08490A401A6607
:10A1F00000222283628380229969D2000A439A61F5
:10A20000EEE7C046A8070020D8A50100FFFFEFFF3A
:10A2100070B50C00012906D1034B8200D55809F016
:10A2200079FE0735EC7770BDA80700201FB5420006
:10A2300011201043012202AB58700821D82052424D
:10A240005A80054A197003920091002202390002D7
:10A25000FBF76CFB05B000BDFFFFF1F2032310B567
:10A26000104C114A23616361104BA261E3618023AA
:10A2700022660F4A9B0023626266002310220D496A
:10A280000D48A3626362E3622367E3666367A266C5
:10A2900010F076F92000094910F072F92023A3711B
:10A2A00010BDC04600FCFF1F7BAB0100801A0020E0
:10A2B0002819002084AB010007FCFF1F88AB0100B8
:10A2C00013B500236A46040001A89380FFF73CFC05
:10A2D000002804D16B4601221B791340237016BD60
:10A2E00030B585B000246B469C81184B01A91B78C2
:10A2F00002A80B70062301220370FAF763FA6B467B
:10A30000DC72134C25680B236B441800FFF7D8FF51
:10A31000031E0BD12268521B322A03D9C046C04605
:10A32000022010E06A46D27A002AECD1C046002B07
:10A3300009D103A8FFF708FC002804D16B461B7B5A
:10A3400001309B07ECD505B030BDC04668AB0100BD
:10A3500080050020F0B517008022C7B005000291EB
:10A360005200974257D8002306A81900059310F011
:10A37000F9F8FF232A009A4313000133FF330193B6
:10A380003A1D92B201992B0C03927A19EEB205ACE8
:10A39000DBB26DBA8A4212D802220299227006A854
:10A3A0003A006370658010F0F3F8C046200003990E
:10A3B00009F0BAFA002800D0C04647B0F0BDC04648
:10A3C00002227642F6B222700299320006A8637029
:10A3D000658010F0DDF8C046311D200009F0A4FAB8
:10A3E000019B02221B0C6370019B22701B0AA3704D
:10A3F0000023E370029B0500BA1B991906A810F010
:10A40000C7F8C046039B2000991B89B209F08CFA5B
:10A41000284340B2CEE701204042CEE7F0B51C0011
:10A420001D4B85B01B7802910392002B03D10120B4
:10A43000404205B0F0BD80277F00BC4224D9E6B27F
:10A4400032000025511E8A412900230A9B180193DE
:10A450003A00002E04D0019B013B8B4200D1320018
:10A46000C046039B28021918029B92B2C018FFF73E
:10A4700071FF0028DBD1C0460135019BEDB22900F8
:10A480009D42E5D32000D4E703990298A2B2FFF7DA
:10A4900061FF0028F6D0CAE7201900208023F0B51C
:10A4A000224C1500A544019104005B009A423AD861
:10A4B00000231F4E02AA3768D37102ABD81DFFF7E5
:10A4C000FFFE002807D13368DB1B322B03D802AB19
:10A4D000DB79002BF1D1C0460027802239005200E1
:10A4E00046A810F03FF880223900520005A80497D2
:10A4F00010F038F8032345AE2A1D33703000230CCA
:10A5000092B264BA04A974807370FAF75BF904001C
:10A51000C0462A00019805A910F03AF820008723C8
:10A520009B009D44F0BD01246442F7E7E4FDFFFF7A
:10A5300080050020F0B51C001D4B85B01B780291F2
:10A540000392002B03D10120404205B0F0BD8027CB
:10A550007F00BC4223D9E6B232000025511E8A4159
:10A560002900230A9B1801933A00002E04D0019B76
:10A57000013B8B4200D13200039B28021918029B39
:10A5800092B2C018FFF78AFF0028DCD1C04601351F
:10A59000019BEDB229009D42E6D32000D5E7039947
:10A5A0000298A2B2FFF77AFF0028F6D0CBE7C046A8
:10A5B0002019002070B5066814007569002D07D0B9
:10A5C000FFF7EEF80423010022003000A84770BD19
:10A5D00001204042FBE737B5056801922C69002C49
:10A5E00007D0FFF7DDF80423010001AA2800A047E7
:10A5F0003EBD01204042FBE74B68C26801334B601F
:10A60000934209DB002200680B68806801334A60CE
:10A610000B60834200DB0A607047F0B50025040040
:10A62000036887B09E684E4B013E029501950395E5
:10A63000206800938368AB422ADC019B002B34D056
:10A64000029B5B421E400023A661E361A369B34203
:10A6500062D0039B23610023636125002269A36903
:10A6600010359A4204D16269E3699A4200D171E0DF
:10A670002900200004AAFFF79DFF013015D0394BB7
:10A68000049A9A4266D029002000FFF7B5FFE4E75C
:10A6900043680168EB18594343691F1E05D008231E
:10A6A00004AAB847013004D1C0460120404207B097
:10A6B000F0BD049B002BF7D0FF221206934201D07D
:10A6C000013307D129002000FFF752FA0130ECD006
:10A6D000234B0493049B224A93420DD0214A934278
:10A6E000E2D1059962689142DED1009A1C498A4202
:10A6F00010D00122029209E0059962689142D3D1FB
:10A70000184A0099914203D00122019201358FE746
:10A710006E1EF9E70395ECE72500183529002000A7
:10A7200004AAFFF747FF0130BFD0049B5A1C00D199
:10A730008FE70B4A934204D029002000FFF75CFF0B
:10A7400084E7FF22290020001206FFF744FF0130B2
:10A75000F2D1AAE7203400200CCD0CC4A7E7C046F4
:10A7600000FFFFFF0000FFFFF0B5066804008069EE
:10A7700085B001910130B1680AF020FF300003AAD2
:10A780000D0009F011FE01300AD0039B304EB34298
:10A790000AD1A169206803AA09F006FE013022D17E
:10A7A0000120404205B0F0BD2369AB4208D100232F
:10A7B00021686A1C8968636122618A4200DB236127
:10A7C000236AAB4208D1002321686A1C896863624E
:10A7D00022628A4200DB236229002000FFF7C8F9C9
:10A7E0000130D6D1DCE7039B1A4AB3421FD1A169DD
:10A7F000206809F0C9FD0130D2D0250018352900A4
:10A800002000134AFFF7E7FE0130C9D027683E69F0
:10A81000002EC5D029002000FEF7C2FFA368011D4D
:10A82000019A3800B047013004D1C046B8E79342DE
:10A83000E3D0B5E729002000064AFFF7CCFE01303F
:10A84000F3D020002900FFF7D7FE0020AAE7C0467A
:10A8500000FFFFFF0000FFFF084B01001B780422F0
:10A8600010B50748002B06D0FFF77EFF082200280E
:10A8700001D1C0460200100010BDC04620190020C2
:10A88000F8180020F0B5040085B001912500226A77
:10A89000A36920359A4203D1626AE3699A4221D0C2
:10A8A0002900200003AAFFF785FE01301AD0114BC2
:10A8B000039A9A4219D127687E69002E12D0290086
:10A8C0002000FEF76DFFA368011D019A3800B04714
:10A8D000013006D020002900FFF78EFE002005B0D1
:10A8E000F0BDC04601204042F9E729002000FFF7F3
:10A8F00083FECBE70000FFFF0B4B01001B7870B518
:10A9000004200A4C002B0AD02000FFF7BBFF2200D6
:10A91000230020321033002802D130CB30C270BD6A
:10A9200011CB11C20720FAE720190020F8180020E7
:10A93000C02270B5114C0021A54492000400684665
:10A940000FF010FE002368462370FFF7D5FF0028A4
:10A9500012D1C02203000A4992006D46EE5CCD5C24
:10A96000AE4205D001232370C0239B009D4470BDDF
:10A9700001339342F1D1F7E70720F5E700FDFFFF30
:10A98000180E0020C023F7B51500821804000F0030
:10A9900002209B009A4229D8C04600226B46DA71F9
:10A9A000134B144E1978914219D01A706B46D81D6A
:10A9B000FFF7BEFF002812D1C0466B46DB79002BA3
:10A9C0000DD0320041321378032B08D80133DBB2AB
:10A9D0001370042B03D14236033B337010700648CA
:10A9E0002A00390020180FF0D3FD0020FEBDC0461C
:10A9F00038190020F8180020180E0020F0B5234C5C
:10AA00001E00A544C8AB85B21700681E04CB00B277
:10AA10001C7800910192FFF753F801302BD0002CE5
:10AA200011D1C0222100920002A80FF09BFD02A8C4
:10AA3000FFF762FF00280CD0C0460F342000C3236C
:10AA40009B009D44F0BDC0221149920002A80FF066
:10AA50009FFD02A8FFF700FF041E02D0C0460D2490
:10AA6000ECE700980130401B00B2FFF729F838608E
:10AA7000013002D1C0460124E0E7019807F072FAE4
:10AA800030600130F6D0C046D8E7C046F4FCFFFF86
:10AA9000180E0020F0B55A4C1500636C594A87B067
:10AAA000C31A934201D800294ED00B236B44606433
:10AAB0001800FFF73DFF002800D08EE06B46DB7AE0
:10AAC000002B40D05048FFF7C7FE00284FD126008A
:10AAD000203620003100FFF78FFD0B236B44180058
:10AAE000FFF726FF002831D16B46DB7A002B2DD1F2
:10AAF00007F0F6F92300103301301ED103CB03C653
:10AB000007F004FA061E049050DB03AF380007F08C
:10AB100029FA0590002849DB864206DC012830DC52
:10AB2000012E02DD039B002B30D10820002D02D026
:10AB3000423423782B7007B0F0BD2200012140324F
:10AB4000117003CB03C6C0460020EFE7220041325C
:10AB50001378032BD4D80133DBB21370042BCFD17D
:10AB6000230001214233197000231370C8E708281D
:10AB7000C6D003000B3BDBB2012BE4D90E28D5D1A4
:10AB8000E1E7039B002BD0D0002ECED0C04601239E
:10AB9000059901930398009705AB04AAFFF72EFFD0
:10ABA000002805D02300012242331A700120BDE79E
:10ABB000049B012BF6D1059B012BF3D1039B012BA9
:10ABC000F0D10A336B441800FFF7B2FE0028E9D138
:10ABD0006B46DB7A002BB6D0E4E7C0462200413258
:10ABE0001378032BC5D80133DBB21370042BC0D10B
:10ABF000230001214233197000231370B9E7C046C6
:10AC0000F81800209FBB0D00180E00201249134AAF
:10AC100070B5521A12480FF0BBFC1249124A134881
:10AC2000521A0FF0B5FC124A12480021121A0FF006
:10AC300099FC1149114A1248521A0FF0A9FC114C03
:10AC40001149124D8C4205D0114A20009208920001
:10AC50000FF09EFC2C6070BD5CAC0100E4B2010002
:10AC6000C0FDFF1FE4B20100E4B20100480400206F
:10AC7000E022002060050020E4B201008CB3010056
:10AC800000FCFF1F00FDFF1F0008000008ED00E0B2
:10AC9000C0000000044B054A5A605A68044A1A6012
:10ACA000044A9A607047C0460020054020C528D954
:10ACB00020210000FFFF000003480449044B4258D4
:10ACC00092B213434350704700E000E00C0D0000C7
:10ACD0000400FA05054B5A68802310005B041840F5
:10ACE0001A4201D0024B986C7047C046FC400640A7
:10ACF000F81800208022094B920099588022080001
:10AD000052041040114208D0822292009A58012326
:10AD1000100018401A4200D0014870470040064019
:10AD200000127A00C022074B920099588022080036
:10AD300052041040114203D0C22292009B58024894
:10AD40007047C04600400640006CDC0237B5040086
:10AD5000002908D16A460123917153718022694606
:10AD600052000A808B70C0221E4B92009D58022018
:10AD7000AD0109D498581C4D284098508020C0043B
:10AD80009850002C01D100203EBDE02007248A7895
:10AD9000C00012020240487820400243C1208000D7
:10ADA0001A5003200A780240C22080001A504879C5
:10ADB0008A790921002800D00839D2050A43C02128
:10ADC000142489005A50FFF7ADFF002805D1002C4C
:10ADD00001D10330D8E7013CF5E7002CD3D10320A3
:10ADE000D2E7C04600400640FFFF7FFF70B5144C1D
:10ADF000050023691B011B0F022B12D0032B13D05C
:10AE00000020012B01D1FFF765FF0F262169090CF6
:10AE1000314001310AF02EFA012D08D0022D0DD05B
:10AE200070BDFFF767FFF0E7FFF77CFFEDE72169F3
:10AE30000909314001310AF01DFAF1E72169F8E70B
:10AE4000004006400C4B00201B6A10B51B011B0F75
:10AE5000032B07D818000AF0B7FA0206090C0220E3
:10AE6000FFF7C4FF10BDFFF735FFFBE7FFF742FF19
:10AE7000F8E7FFF757FFF5E70040064010B5012956
:10AE80001ED0052807D0062814D0FFF733FF8123F2
:10AE90000200184904E0FFF745FFC12302001549ED
:10AEA0009B00C85807231840002802D00138C24030
:10AEB000100010BDFFF70EFF0F4B02009868F1E77E
:10AEC000052807D006280FD0FFF714FF81230200C2
:10AED000084904E0FFF726FFC123020005499B0053
:10AEE000CB585B05580FDFE7FFF7F4FE024B02007B
:10AEF0009B68F6E700400640FC400640154B4000CA
:10AF0000C35A154A9B0070B59B1801260F221C6876
:10AF10001D682409002034401540A54214D31A6846
:10AF2000920F324210D01B685B015B0F022B0CD0DA
:10AF3000032B0CD0B34202D10630FFF79FFF691CF0
:10AF40000AF098F90134604370BD0420F5E705204C
:10AF5000F3E7C0465CA90100005006400F4A10B557
:10AF600013699B069B0F022B11D0032B12D0012BD0
:10AF700004D000210620FFF781FF07E012690223B9
:10AF8000100018401A4201D0FA20C00110BD044B35
:10AF9000D86CFBE700210520EDE7C04600800440A7
:10AFA000F81800200C4A13691B079B0F022B07D0CF
:10AFB000032B0DD00020002B09D1FA20400206E01F
:10AFC0001269100018401A4201D0FA20C0017047DF
:10AFD00002231269F5E7C0460080044010B51E4CFC
:10AFE000802362681B01100018401A4216D0606866
:10AFF0000006000F0E282CD80AF0E6F9112B142BAE
:10B00000192B1C1F2B23082B252B2800FA2040026C
:10B0100061684905490F01310AF02CF910BDFFF7AD
:10B0200011FFF5E701210620FFF728FFF0E70121D6
:10B030000420F9E701210520F6E70020FFF7D6FEFE
:10B04000E6E70120FAE7FFF7ADFFE1E7FFF786FF4C
:10B05000DEE70020DCE7C046008004408000036893
:10B06000FFDEF0B587B00290012005930CAB1D7890
:10B070000300AB400D9F04920D9A0193013B039195
:10B080001F401A4254D10326029B1E40300008F094
:10B09000B7FC284A7401A0180288274B9204920C2E
:10B0A000110080221202114301808020224A22498D
:10B0B0001268E31882430A60802204995201995071
:10B0C0001E4A0599A21811602A02AD181C4AADB299
:10B0D0009D52039A032A11D810006946194A89889B
:10B0E0000AF072F902071F219F52174BE3181980CB
:10B0F00004E099520022144BE3181A8030000D9995
:10B1000008F0B8FC0121300008F0D6FC094BE41827
:10B11000022322889A4313432380029B9B001B68CF
:10B12000FFDE9952E1E79F52074BE3181F80E5E7E6
:10B1300007B0F0BD1C90004000800040109000401F
:10B14000061000000410000014900040002010B50C
:10B15000FEF744FB012010B5FEF740FB022010B5BE
:10B16000FEF73CFB032010B5FEF738FB002301205F
:10B170000649CA6A024203D08B769B001B68FFDE39
:10B180000133DBB25208042BF4D170470080004039
:10B190000130C000800805307047082806D90938FA
:10B1A000C3B20020062B01D8014AD05C7047C046CC
:10B1B00002A90100F0B50D0085B008F029FB2B00B5
:10B1C0000700006808330003000F0193FFF7E5FF55
:10B1D000060008F00BFB864202D908F007FB0600C8
:10B1E0002E743B682B609B0217D57B686B60032332
:10B1F000019C019A1C401A422CD1310099438C4287
:10B2000021D2A3089B001A000832BA18126812BA99
:10B2100001980434C250E4B2F1E77B689B0CE5E787
:10B22000A3089B000833FB181B681BBA20000830DA
:10B230000422281803A903930FF0AAF90434E4B2F6
:10B24000019B9C42ECD303222D190135A64206D85E
:10B2500005B0F0BD32009A4300240192F0E71300DC
:10B2600063400833FB181B780134EB71E4B2ECE760
:10B27000F0B5BA4BBA4D89B01F680093AB6A286B22
:10B28000002418400123184000281CD02B689B0084
:10B2900000D4A4E0072C00D9A1E0052C73D17B7960
:10B2A000012B1AD03B002D331B78022B00D0F8E085
:10B2B000E600BB190093DB79002B00D0CEE0200024
:10B2C00008F0C0FAD9E00134202C00D100E1AA6ACC
:10B2D000286B1040E0401840D6E73E683300083342
:10B2E0000093A04BD86F0003000FFFF756FF9D4B54
:10B2F0003074DB6F9C4A019033609B0214D5D36F8E
:10B30000032273600099009B1340114231D1019ACE
:10B3100093421DD29A08954992005118096809BABA
:10B32000009804338150F2E7D36F9B0CE8E78F4A13
:10B33000B3089B009B181B681BBA0393009B042255
:10B34000981903A90FF024F90436019B9E42EED30D
:10B35000202300202B633B007871FC335E6886421B
:10B3600009D13E007B792D36D8B2002B08D0337836
:10B370009BE70026E9E73B0002000121B047F0E728
:10B38000FEF76AFCF3E7062C14D140232B633B0045
:10B390003E00FC335B6835369C460096002B01D19D
:10B3A000330081E73B000022022110006646B047CF
:10B3B000009B79E7072C03D0E300FB185B7974E767
:10B3C00080232B633B003E00FC335B683D369C468C
:10B3D0000096002BE4D03B0000220321E5E7E600C5
:10B3E000BB1900935B79012B34D1200008F010FACF
:10B3F0000368009B20001968FFF7DCFE200008F0BE
:10B4000021FA2B689B0027D5009B1B681B681B013A
:10B410001B0F21D1200008F0FBF9554A03681340A7
:10B42000036080230268DB04134303600020009B59
:10B4300058713B00FC335B681E00834203D03B0025
:10B4400022000100B047009B5B79002B02D1200055
:10B45000FEF770FE009BB1E7AB68E7E7200008F05D
:10B46000D7F903A903682000FFF7A4FEAB68039B8C
:10B470001B011B0F042B00D121E70020009B5871FA
:10B480003B00FC335B681E00834203D03B0022007C
:10B490000421B047009B5B79002B02D12000FEF70E
:10B4A00049FEAA6A2B6B1340E340DB070AD52B68E1
:10B4B0009B0009D5072C07D87B79002B02D12000EF
:10B4C00008F0C0F909B0F0BDE300FB185B79F4E7C0
:10B4D000284C2B592A595B0C120C1343012213429E
:10B4E00026D02B685B0423D52B595B0C13420DD05F
:10B4F00080232A599B0213432B513B00FC335E6887
:10B50000002E03D03B0002000521B0472B59DB037E
:10B510000ED580232A595B0213432B513B00FC3389
:10B520005C68002C04D000223B0006211000A047DC
:10B530000221EA692B6A0B401343C3D0009B1A68AF
:10B540001300FC33DB68002B02D000200831984741
:10B550002A6A094B1A42B5D02B62B3E75C08002077
:10B56000004002400440024008400240884002403F
:10B57000FFFFFFF0080B000006003B0010B5FFF7CF
:10B5800077FE10BDF7B50127134B196A1A695D6A7A
:10B5900011405A699E6A9B6900911E400F4B1540ED
:10B5A0001B6D1C1D14330193206800280FD0026806
:10B5B000002A0CD03900037A99400B00417A013BF4
:10B5C0008B40009929433143194200D09047019B99
:10B5D00004349C42E8D1F7BD00A00540F8180020D3
:10B5E0000F4A13B581008A5803001468072200200F
:10B5F00014400C4A01908A581278022A08D0032A73
:10B6000003D0012A08D101A904E0074AD05CFAE777
:10B61000182001A908F0B0FC0198E04016BDC04612
:10B62000A4A50100F005002009A90100436F042230
:10B630000023436742650268036043608360C3641C
:10B64000026D03658365C365036643668366C26EE8
:10B65000021DC36630B50367043283671049C367B0
:10B660009367D3678032136053609360D360136134
:10B670005361884202D180229200835000231C0033
:10B68000DA008218D568D4601461884204D11A00A7
:10B6900080329200821854600133082BF0D130BD03
:10B6A000009003401023012903D9052908D801235C
:10B6B00002398B40002A07D0C26E1343C36670471D
:10B6C000802306395B00F4E7C26E9A43C266F6E750
:10B6D000F8B50020FEF7AAF805000020FEF781F873
:10B6E00000240600012733002B4018006200511C83
:10B6F000C840D34003433B4203D00020E1B2FEF7F1
:10B70000C3F80134042CEED1F8BDF8B50120FEF7E2
:10B710008DF805000120FEF764F8002406000127DB
:10B7200033002B4018006200511CC840D340034333
:10B730003B4203D03800E1B2FEF7A6F80134042CF6
:10B74000EED1F8BD10B51024C9004018C16813012E
:10B75000A14323400B432021C360C36852088B439D
:10B7600052011A43C26010BD10B50424C90040182C
:10B77000C1689300A14323400B430821C360C36801
:10B7800092000A408B431A43C26010BD01238B40D4
:10B79000002A03D1026F9A4302677047026F134376
:10B7A0000367FAE71F22430910401E3A824002490C
:10B7B0009B005A507047C04600E100E01F22430939
:10B7C00010401E3A8240024920339B005A50704775
:10B7D00000E100E0F7B51600824A83000D00995899
:10B7E00001270190002946D17F481C58A87B717021
:10B7F00030703000B1800C309E5058220EF0B2FEF6
:10B800002000FFF713FF0721636D6A7BBB433B43B7
:10B81000636523680A408B43134323600198FFF755
:10B82000DFFEB0602B7B714A991E022925D9082BB7
:10B8300023D000274020E16EFF26814320006B7C4F
:10B8400008309B010B43E366EB7BC16F9B013340E8
:10B850003F3EB1430B43C3670199654B58562B7C60
:10B86000002B00D1B7E023681A4080235B0013430C
:10B870002360FFF797FF3800FEBD68782B7800281B
:10B8800002D1A978002970D00127002BD2D1230042
:10B8900080268C331968F6023143802619601968B6
:10B8A00036033143802619601968760331438026B8
:10B8B00019601968B60231431960E97A1E684F1E93
:10B8C000B9414C4F09043E40314380261960196844
:10B8D00031431960002872D01023A16D0B43A3657A
:10B8E000A978202300296ED0A16D0B43A365E978C8
:10B8F000402300296BD0A16D0B43A3650220A16DED
:10B900002B7981435B000B430121A365A36D68790B
:10B910008B430343A3652B7AA06D5E1EB3410826BB
:10B92000DB00B0430343A365230010278C33A879C1
:10B930001E680001BE43384030431860E8791E6835
:10B94000FF194001BE43384030431860687A1E68D2
:10B950001C3F80003840BE4330431860186888435D
:10B960000100A87A0143196063E7E97800298BD1C7
:10B970000127002B00D15DE7230080208C3319685C
:10B98000C000014380201960196800010143802034
:10B9900019601968400101438020802619601968E8
:10B9A000800001431960E97A1868090276001040A6
:10B9B000314001438020196019680143196010214A
:10B9C000A36D8B438BE7A16D9943A1658FE7A16DB3
:10B9D0009943A16592E7236813402360FFF7EEFEC9
:10B9E00049E7C046F0050020A4A50100FFFEFFFFC7
:10B9F0000BA90100FFFFFEFFF0B50D000126AE40D0
:10BA0000374B8100CA5885B0136D0400B3431365EA
:10BA1000344BCF58344BC0210193182341436B431F
:10BA20005B180199C918097A0391012937D10023BC
:10BA30000293039B1E420DD04021029BDB00FB18AA
:10BA4000DA688A43DA60294BE2009B18029A98561A
:10BA5000FFF7B4FE029B76080133DBB20293002E9F
:10BA6000E7D1234BE2009B185E55C02218236243A6
:10BA70006B439B18019AD31801225A751823C022D0
:10BA80006B4362439B18019AD318DA68002A04D0EA
:10BA9000197D002901D01869904705B0F0BD0199C2
:10BAA0005858936852689BB292B281189E1ACB1A6A
:10BAB000864200D90B007968B968691CC9009BB23D
:10BAC00079188B608021BB6D8B43BB651823403197
:10BAD00061436B435B180199CB185A60CEE7C046AF
:10BAE000A4A50100A4A50100D81D00200DA90100F6
:10BAF0004C1900200123F0B5374A85B0116D176D40
:10BB0000166D156D146D106D7F0840091840039077
:10BB1000106D126D8009D209B608ED08240918408D
:10BB20001A401F401E401D401C40029001921942C5
:10BB300007D02A4B1B78002B03D000210800FFF709
:10BB40005BFF002F07D0254B5B78002B03D0012132
:10BB50000020FFF751FF002E07D0204B9B78002BD1
:10BB600003D002210020FFF747FF002D07D01B4B19
:10BB7000DB78002B03D003210020FFF73DFF002CD2
:10BB800007D0164B1B79002B03D004210020FFF7B0
:10BB900033FF039B002B07D0104B5B79002B03D0A6
:10BBA00005210020FFF728FF029B002B07D00B4B3D
:10BBB0009B79002B03D006210020FFF71DFF019B7E
:10BBC000002B07D0054BDB79002B03D00721002089
:10BBD000FFF712FF05B0F0BD008003404C190020B4
:10BBE0000120F0B5374B85B01A6D1F6D1E6D1D6DB0
:10BBF0001C6D196D7F08490901400391196D1B6D7A
:10BC00008909DB09B608ED08240901400340074013
:10BC100006400540044002910193024206D02A4B9F
:10BC20001B7A002B02D00021FFF7E6FE002F07D081
:10BC3000254B5B7A002B03D001210800FFF7DCFEC7
:10BC4000002E07D0204B9B7A002B03D0022101202D
:10BC5000FFF7D2FE002D07D01B4BDB7A002B03D061
:10BC600003210120FFF7C8FE002C07D0164B1B7BD9
:10BC7000002B03D004210120FFF7BEFE039B002B05
:10BC800007D0114B5B7B002B03D005210120FFF770
:10BC9000B3FE029B002B07D00B4B9B7B002B03D0EA
:10BCA00006210120FFF7A8FE019B002B07D0064BC1
:10BCB000DB7B002B03D007210120FFF79DFE05B0A1
:10BCC000F0BDC046009003404C190020044A536E5A
:10BCD000002B04DD013B5366002B00D162B6704798
:10BCE000F818002072B6024A536E0133536670474B
:10BCF000F8180020F0B5B7B00B9201220A930300A8
:10BD00000891110036331B78DF4F99400B0001007A
:10BD10003731097804008A401343FA68DBB21A40CD
:10BD2000934200D000E2437A12250793089B00213A
:10BD300083615A1C0223C3850300554342610B985B
:10BD40003233AE1CD870FF360A981970360A023B9F
:10BD5000013518705970A819310009F08BFAA0222A
:10BD6000079BD2009B00DB199A589446421E120290
:10BD700011006246D2B211438AB2A021C9005A50C2
:10BD8000721E4243AD1A22003E3266851570012EA6
:10BD900008D19020C0001958BC4A1140802292015D
:10BDA0000A431A5007250222181DC16F8026A94395
:10BDB0000A43B549C2678C46079AB5490132D2B2E7
:10BDC0000992920094445218D16FF600A943063D9F
:10BDD0002943D167032299599143294399516146D7
:10BDE000895991430A4361468A51C16FA94A11405A
:10BDF000802252020A43C26722002C321278AA42E1
:10BE000026D0022A2DD0002A1FD1FFF76BFF220077
:10BE1000238D3032AB4012789B18627A2C00A0320E
:10BE20001B069200BB50079B099A9C4095403B6AB9
:10BE30002543EDB22B433B62FFF748FF7B6AE4B238
:10BE40002B437B62BB6A1C43BC62002037B0F0BD51
:10BE5000228D0A9952008A18A021120689005A5090
:10BE6000F3E723001F225E33934306930A9B002BC4
:10BE700000D0B8E0E36801221293089B864913932F
:10BE8000079B24AD9B005B180899249369602100EF
:10BE90001000EB60022312AE32722A720B9A393113
:10BEA000013A0A70F16030752861287530613200FE
:10BEB000607F069900932B0007F06EFE220023009E
:10BEC000303212783A330892002A00D190E00322EF
:10BED000617F1140714A4901891800228A800699C0
:10BEE000888B0821014306988183010020310C9141
:10BEF000217F1191617A24930A910131C9B20E9187
:10BF0000A03189000F910F985F49844661441291D6
:10BF10000B910121A36971606960591E0891216923
:10BF200032722A720D91012B00D9C1E00125302215
:10BF30000E9B102140339B00FB580EA81A43230090
:10BF40003D331A700C226A434018835012AB01260D
:10BF5000991853480023844658200B724E600F995D
:10BF60000EAB61441B18995024AB9A1800230C2186
:10BF700013725660AA194A430EAB04315B180B9931
:10BF8000995012AB991800230B72089B4E609C4687
:10BF90000D990EAB61441B18995024AB9A180023DD
:10BFA0001372AB1C56600C99009312AA24AB119823
:10BFB00007F0F2FD069B069A9B8F33439387A36994
:10BFC000B34208D96032938B33439383069B80330B
:10BFD0009A8B16439E8308220C9B6D015D19A98BD9
:10BFE0000A43AA8323E02300FF2238331A7042E772
:10BFF000069A0120918B08220A4306998A83627A65
:10C0000028490132D2B2257F920003905218A169CB
:10C0100001900918029108992800009107F08CFFFF
:10C0200003231D40204B6D01ED18089B2B8001263A
:10C0300003213500637F1D4A0B40D376237F0B40DD
:10C04000D376099B796A9D40FF232A001A400A4350
:10C050007A62079A9640BA6A33401343BB62FFF78D
:10C0600041FE2200238D303212785B009B18627AE9
:10C070001B06A0329200BB503A6B3543EBB2134320
:10C080003B63FFF723FEE0E600A00540FF8FFFFFC4
:10C0900004A00540FFFFFCFF83A205400090004084
:10C0A000809E054080A20540149000400080004022
:10C0B0000A9B302099001D4BCB18202110935B6800
:10C0C00032758343194323003B331970F360012316
:10C0D00033610A9B16499B005B18012129610B996A
:10C0E000EB60B16108990593F16111210EABC9189C
:10C0F000CA770D992A75A9610899E9615921C9186A
:10C10000CA771099059B49686B62814301432000FF
:10C110003C300170706201201DA92FABA862B06293
:10C1200004250A701A7002E702488FE6FCA0054059
:10C1300000A1054005020000264B82009B18F0B5C7
:10C140000400D86A89B0030028331D78826903A9E6
:10C15000214E0D70002A2FD00F2377681F400097C3
:10C160000327B36DBC46BB4301930123009FBB4033
:10C17000934200D913006746013B3B40019F3B437C
:10C18000B36501234B70154B4B6043698B600023F3
:10C190000B742000CA60FDF7E9FF0323104A2B400F
:10C1A0005B019B1808221988280091430A431A80D2
:10C1B0000C492200FEF752FFB36D0B4F3B40B365B5
:10C1C0000A4B4A704B60C36802698B6001230B7491
:10C1D000DFE7C046F81800200060064060600640B7
:10C1E0001C90004039A00000FFFFFCFF706006407B
:10C1F0000122F8B5854D864E6B69F46A134213D05F
:10C20000A07AE37A834200D1A2E007210F27EB6DE9
:10C210000B40696839408A4092B2E17A884200D185
:10C2200093E09A4200D983E06B699B072ED52300E7
:10C2300034331B780721002B00D1B7E0E31DDB7FEF
:10C24000002B03D02000253007F0B8FD0323002089
:10C25000F4620126A383E318A06120616061E060BD
:10C26000DE77022360812A699A431A432A61694A68
:10C27000516999430B43536128615061A26BA17FBF
:10C2800007F068FF2B69B3431E432E616B690122DF
:10C29000DB0415D580235B016B6100212000A283A4
:10C2A000FDF7D2FBE31DDB7F002B03D02000253000
:10C2B00007F084FDE36A002B02D00420216B98472D
:10C2C0006B691B0517D580231B016B6101220021BF
:10C2D0002000FDF7B9FBE31DDB7F002B03D020001E
:10C2E000253007F06BFD4C4BA383E36A002B02D093
:10C2F0000420216B98476B695B0518D5E31DDB7F34
:10C30000002B03D02000253007F058FD80239B0030
:10C31000A383012200212000FDF796FBE36A002B96
:10C3200002D00420216B98478023DB006B61F8BDAD
:10C3300067187F79635CBC461B02634401312B663E
:10C34000E1720721EB6D0B4067E7002363816BE728
:10C350006369002B1DD0A269002A16D1231DD97F45
:10C360002000FDF771FBE31DDB7F002B03D02000D5
:10C37000253007F023FD0023A383E36A002B00D1BF
:10C3800052E70420216B98474EE7200007F058F948
:10C390004AE7AB699343AB6146E7E3682A6F1A70DB
:10C3A000E3680133E3602369013B2361EA6D23699C
:10C3B000120C0A4219D0002BEFD1231DD97F002285
:10C3C0002000FDF741FBE31DDB7F002B03D02000A5
:10C3D000253007F0F3FC0023A383E36A002B00D190
:10C3E00054E70420216B984750E7002BE5D0AA6D55
:10C3F0009203920F934200D948E7AA6D0749013B87
:10C400000A401B041343AB6540E7C046006006408A
:10C41000F8180020FC60064003020000FFFFFCFF4C
:10C420000A4B8000C3580A499A690A409A619A697E
:10C4300008490A409A618022596912010A435A61E7
:10C440008022596952010A435A617047D8A50100F8
:10C45000FFF7FFFFFFEFFFFF1B4B820070B5D558C2
:10C460001A4BD45800232B736B1DDB7F0222002B49
:10C4700022D1E3699343E361E369013A9343E361C2
:10C48000FFF7CEFFA369124A1340A36180236269BC
:10C49000DB00134363616B79002B05D02800253046
:10C4A00007F08CFC00236B71AB6A002B03D00021DA
:10C4B0002800EA6A984770BDA36993430122A361EB
:10C4C000A3699343A361DBE7A8070020D8A5010077
:10C4D000FFFBFFFF70B50126544D554A6B6A146887
:10C4E000334251D06B69DB0A33420DD02369002BF4
:10C4F0000AD0002007F00EFD80236A691B01134358
:10C500006B610734E67738E06B69DB040ED563694D
:10C51000002B0BD0002007F0FDFC80236A695B0133
:10C5200013436B6102230734E37726E06B699B07B3
:10C5300005D5638B98B2002B20D0FDF7FDF96B6910
:10C54000DB0704D5238B002B01D0FDF72FFA238BBB
:10C55000002B12D10122AB699343AB618023A969FF
:10C56000DB000B43AB61638B98B2002B05D16B6989
:10C570009B0A134201D0FFF76FFF70BD07F0CAFCA2
:10C580000222E31DDA77DAE76B69DB0A334205D072
:10C590002369002B02D007F01FFCB2E76B69DB04B4
:10C5A00005D56369002B02D007F016FCBAE76B696A
:10C5B0009B0704D5638B002B01D0FDF7BDF96B6998
:10C5C000DB0704D5238B002B01D0FDF7EFF9238B7C
:10C5D000002B03D10122AB699343AB61638B002B2A
:10C5E00003D10222AB699343AB61638B002BC4D1AF
:10C5F000238B99B2002BC0D1AB690E4A1340AB61BB
:10C60000AB690D4A1340AB61A36A002B02D0200036
:10C61000E26A98476379002B05D02000253007F0A7
:10C62000CDFB0023637100232373A6E700C0024003
:10C63000A8070020FFF7FFFFFFEFFFFF10B5012461
:10C640008C408A400368A3431A43026010BD002057
:10C650007047F7B51400019305000E00FFF7F7FFD0
:10C660000E4B8200D7580E4B4000C25C002A06D009
:10C67000002C04D01B185878FEF78AFD241A012ECE
:10C6800007D9042E04D10121019BE2B22800B8474A
:10C69000F7BD0021019BE2B2F8E7C0466008002028
:10C6A00059080020034B40689B6E181A421E9041A7
:10C6B000C0B27047F81800200023F0B58FB0019386
:10C6C00003780C0001270090002B7BD1DC4D0B88F8
:10C6D000280002938B78009A03938B7A703006932C
:10C6E000CB6807930B690893CB7A09934B68049343
:10C6F0000B7AD4490A9307F067F8009B06005B6841
:10C700003D200DA9059307F037FC059B29009A00F1
:10C710003C2373437431CE18AA18D6620022ED1858
:10C720002B1DDA670433DA6780331A605A60F31C12
:10C73000B283DF77029B039A3384731DDA77069AFC
:10C740000B930333DA770A9A20331A702B00079A77
:10C75000A0331A60089A5A600022F31DDA772B0082
:10C76000049AAC331A603300002234331A70FFF796
:10C77000B9FA0022B31DDA77FFF7A8FA0023802266
:10C7800074356B81B04B52041A600223AF4D05988B
:10C790002A699A431A432A61AD4A516999430B4366
:10C7A0005361002309992B615361049A07F0D2FC6D
:10C7B000029B039A33840B9BDA772B69BB433B4381
:10C7C00000272B61009B1B78012B59D123880293F2
:10C7D000A37A002B57D0012B58D0636998495A7817
:10C7E0001B7803926A460493E368069323690793D0
:10C7F0006368059323895BBA9385637A0893237AE8
:10C80000944C09930B6D002B14D10220A2680243B3
:10C810008020A2608C4A8004A36010600120A2687E
:10C820000243A2608C488D4A037053639363D363C1
:10C83000136408658A49009A90258A48804E06F05C
:10C84000C3FF6D004543884B00900DA93C20ED18B7
:10C8500007F092FB022301272B726068316DC0B292
:10C860000E78B8420CD90022DB191E4212D0571C98
:10C8700003325B00D2B2FFB2DBB2824208D9012799
:10C8800038000FB0F0BD02230193A6E70023FBE7B9
:10C890003A00EAE7902774487F000A9000983343F3
:10C8A00047430A98C01942720B700B1D14311A6865
:10C8B000002A00D092E01D602B7A687A80250A93C6
:10C8C00001270300ED000A9A8218934200DA8AE0F9
:10C8D00090230026009A5B005343634D01245E5170
:10C8E000ED186E60FFF7FEF92B0033331E70FFF773
:10C8F000EDF92B00019A2C331A70029B039A2B85B9
:10C900002B0036331A70049A0D985A70069BEE85E8
:10C910002B62079B6B622B0034331E70023B1C7032
:10C920006B7A0293059B1818590008F061FD0238D4
:10C93000FF287FDDFF203221029B464F9A004B4BA0
:10C94000D5191E00D318596002990131CCB2A44602
:10C95000039C09062302E024E4002340C024A4042D
:10C9600021400B438021424C19431419E167614671
:10C970008900CC198F1920267E6080273F041F4331
:10C980003B4BE026C918A023CF679021DB00E8507D
:10C990003848C9006850F0200132120600051040E6
:10C9A000049AF600120232400243C120802600049D
:10C9B0001043F600A8510F20E0502F4B63502F4B2F
:10C9C0001343A351019B284C002B5BD12C4A90238D
:10C9D00000995B004B430027E25051E70433994232
:10C9E00000D064E768E71B4907268C4620499A0077
:10C9F00094445218D16FB143D16762460321525912
:10CA00008A4361464A51216A3A008C469A406646FA
:10CA1000D1B28E432662666A01338E436662A66A8D
:10CA2000DBB28E43A662266B8E432663226162616F
:10CA3000A26148E7002800DD7DE720007BE7C046D3
:10CA4000F81800206419002000E100E000600640B2
:10CA5000FC60064000A00540A819002078190020BD
:10CA600060190020BC190020581F0020FCA00540C0
:10CA700004A0054022020201121120008000C00023
:10CA8000599E00009023009A5B0053436A46928DA2
:10CA9000E3189A836246064B09989D5C029A995C5A
:10CAA00007F062F82900089807F05EF8014A8EE75F
:10CAB0001DA9010031A00000F7B505780F001E0088
:10CAC0000192002D2FD14068244B82009B18DC6A14
:10CAD000E31CDA7F002A3ED0019A6161A261221D27
:10CAE000D677DD770223A38323000833DB7F1C4E38
:10CAF000002B06D1E023B2695B011343B361FFF75A
:10CB00001BFB2900200006F0D7FD200006F098FD51
:10CB10000322B36D9343B365B269124B1343B36100
:10CB20002B001800FEBD01239D42FAD1FFF7BAFD8C
:10CB300090235B0058430C4A1018030032331A78D4
:10CB40000223002AEDD0002332000199C760FFF7CD
:10CB5000D1F80300E5E70223E3E7C046F818002018
:10CB600000600640011C0000581F0020027870B5CC
:10CB70000400002A15D10121636821489B00C318D5
:10CB8000DA62204A13698B431361802201001E4B35
:10CB90005204DA676C317030220006F020FE00206B
:10CBA00070BD01208242FBD12000FFF77BFD902366
:10CBB0005B004343154A0220D218130032331B781E
:10CBC000002BEDD053680E498340CB18186D05003B
:10CBD000031D14351E6896420ED100251D600123E9
:10CBE000157A527AAB40013BDBB293400278683150
:10CBF0009A4302700648CFE704339D42EAD1EEE73C
:10CC0000F81800200060064004E100E0581F0020F2
:10CC1000BC1900200278F8B50D00002A1FD1426827
:10CC20002C4B92009B18D96A0B000833DB7F012B39
:10CC300008D18A69002A09D00720274BDB6D034001
:10CC40009B182B608B8B9BB21800F8BD0B69002BD7
:10CC5000F7D0214AD26D5203520F9B1AF1E70123FC
:10CC60009A42F1D1FFF71EFD070090204000784363
:10CC70001A4E3018030032331B788469002B06D11A
:10CC800003002C331B78012B0ED0022B0FD09023E6
:10CC90005B007B43F61833002C6032331A78022392
:10CCA000002AD1D0F38DCFE7FDF7D6F8EFE70322C6
:10CCB000037F0B4913400B4A5B019A1812885B18DB
:10CCC00012B21C88002A02DAE405E40DDFE76404EE
:10CCD000640CDCE7F818002000600640581F0020B4
:10CCE000169000401E90004080220D4B70B51968D0
:10CCF0000C480A431A60047A0B4A012C04D181259E
:10CD00001968A94319604475536D002B06D01100B2
:10CD10004831097D002901D0906D984770BDC0460B
:10CD200000000440C019002078190020024A13684E
:10CD3000013313607047C0468005002073B500269C
:10CD400001A904003000019607F016F9FA21084DF8
:10CD500089002E60019808F08DFA0723054A686063
:10CD6000AE602B60116813685B1AA342FBD373BDDE
:10CD700010E000E0800500200122F0B50324544BB0
:10CD8000544DC5B01A702800FDF747FC061E0AD1A5
:10CD900005F0BCF8002800DD78E0C0466420FFF70D
:10CDA000CDFFC0460236013C002CECD1022E25D12D
:10CDB000C046102012E00398002800D181E0002B2B
:10CDC00000DC7EE000230094019304AA02ABFDF78F
:10CDD00015FEC046002800D173E0C04645B0F0BD46
:10CDE000029B012B71D1039B012B6ED1C0463A48A7
:10CDF000FDF782FD002868D10330EFE7FC22210017
:10CE0000802605A804940DF0ADFB760004AF320037
:10CE100039002000FDF742FB002835D13B5CFF2B99
:10CE200003D0C046C0460520D8E70130B042F5D156
:10CE300080230134FF345B019C42E7D1C0462800C7
:10CE4000FCF7C2FE002841D12800FDF7E6FB011ED9
:10CE50003CD1C022204C920020000DF083FB20002A
:10CE6000FDF7FAFC002831D103AC2000FDF760FD8E
:10CE700003000420002BB1D12378002B26D14035AC
:10CE800001332B700138A9E70720A7E70496C046B5
:10CE900005F03CF80490002818DBC04603AC2000E5
:10CEA00005F060F8011E029010DB049B984208DB3D
:10CEB000012800DD7FE7012B03DD0398002800D067
:10CEC00080E7C046049B012B8AD0C046042085E73A
:10CED00020190020F8180020180E002010B5094A6B
:10CEE000094CC1216260C022084B9200186823607F
:10CEF000A2608900083808F0BDF9E060FFF73CFF48
:10CF000010BDC046EEEE0000F81800206CFEFF1FBA
:10CF100010B5C046F7F7DBF900220E210448FFF7F1
:10CF20008DFBFA208000FFF709FFFDF7C5FE10BD5D
:10CF300080F00F40F0B5314C85B023781500029198
:10CF40000192002B01D1FDF789F9EFF31083012144
:10CF500081F310880393E36A012B18D0022B24D0AD
:10CF6000002B0ED1A36A626A934201D8216A5B1832
:10CF7000013B9A1A954204D82A0021480299FCF7ED
:10CF8000CBFD039B83F31088280005B0F0BDA36A96
:10CF9000626A934201D8216A5B18013B9B1A2A00FE
:10CFA0009D4200D91A001648E8E7646A134FBB6A2D
:10CFB0003E6AA34220D9019A013B1B1B361B9642B5
:10CFC00000D916009E4200D91E00F86932000019EF
:10CFD00002990DF0DDFA029BA4199B190293019BA3
:10CFE0009B1B01933B6A9C4200D10024034B5C6273
:10CFF000019B002BDAD1C4E7F318DCE700FCFF1F2C
:10D0000018FCFF1F423800B5172800D927E308F0A5
:10D01000E5F918002603260326032603BA00260393
:10D020002603260326032603AF0126033302260325
:10D030002603270326034903260326039B0326030F
:10D040003D048022C94B52005A605A605A605A60AF
:10D050005A605A605A605A609A609A605A605A6080
:10D060005A605A605A605A605A605A609A609A6070
:10D070005A605A605A605A605A605A605A605A60E0
:10D080009A609A605A605A605A605A605A605A6050
:10D090005A605A609A609A605A605A605A605A6040
:10D0A0005A605A605A605A609A609A605A605A6030
:10D0B0005A605A605A605A605A605A609A609A6020
:10D0C0005A605A605A605A605A605A605A605A6090
:10D0D0009A609A605A605A605A605A605A605A6000
:10D0E0005A605A609A609A605A605A609A609A6070
:10D0F0009A609A609A609A609A609A605A605A60E0
:10D100009A609A609A609A609A609A609A609A604F
:10D110005A605A609A609A609A609A609A609A60BF
:10D120009A609A605A605A609A609A609A609A60AF
:10D130009A609A609A609A605A605A609A609A609F
:10D140009A609A609A609A609A609A605A605A608F
:10D150009A609A609A609A609A609A609A609A60FF
:10D160005A605A609A609A609A609A609A609A606F
:10D170009A609A605A605A609A609A609A609A605F
:10D180009A609A60A0E08022784B52005A605A6000
:10D190009A609A609A609A609A609A609A609A60BF
:10D1A0005A605A609A609A609A609A609A609A602F
:10D1B0009A609A605A605A609A609A609A609A601F
:10D1C0009A609A609A609A605A605A609A609A600F
:10D1D0009A609A609A609A609A609A605A605A60FF
:10D1E0009A609A609A609A609A609A609A609A606F
:10D1F0005A605A609A609A609A609A609A609A60DF
:10D200009A609A605A605A609A609A609A609A60CE
:10D210009A609A609A609A605A605A609A609A60BE
:10D220009A609A609A609A609A609A605A605A60AE
:10D230005A605A605A605A605A605A609A609A609E
:10D240005A605A605A605A605A605A605A605A600E
:10D250009A609A605A605A605A605A605A605A607E
:10D260005A605A609A609A605A605A605A605A606E
:10D270005A605A605A605A609A609A605A605A605E
:10D280005A605A605A605A605A605A609A609A604E
:10D290005A605A605A605A605A605A605A605A60BE
:10D2A0009A609A605A605A605A605A605A605A602E
:10D2B0005A605A609A609A605A605A605A605A601E
:10D2C0005A605A605A605A609A609A605A605A600E
:10D2D0009A609A609A609A609A609A609A609A607E
:10D2E0005A605A609A609A609A609A609A609A60EE
:10D2F0009A609A605A605A609A609A609A609A60DE
:10D300009A609A609A609A605A605A609A609A60CD
:10D310009A609A609A609A609A609A605A605A60BD
:10D320009A609A609A609A609A609A609A609A602D
:10D330005A605A609A609A609A609A609A609A609D
:10D340009A609A605A605A609A609A609A609A608D
:10D350009A609A609A609A605A605A609A609A607D
:10D360009A609A609A609A6077E1C04600F10F4037
:10D370008022CB4B52005A605A609A609A609A6041
:10D380009A609A609A609A609A605A605A609A604D
:10D390009A609A609A609A609A609A609A605A60FD
:10D3A0005A605A605A605A605A605A605A609A606D
:10D3B0009A605A605A609A609A609A609A609A601D
:10D3C0009A609A609A605A605A609A609A609A600D
:10D3D0009A609A609A609A609A605A605A609A60FD
:10D3E0009A609A609A609A609A609A609A605A60AD
:10D3F0005A609A609A609A609A609A609A609A609D
:10D400009A605A605A609A609A609A609A609A60CC
:10D410009A609A609A605A605A609A609A609A60BC
:10D420009A609A609A609A609A605A605A609A60AC
:10D430009A609A609A609A609A609A609A605A605C
:10D440005A609A609A609A609A609A609A609A604C
:10D450009A605A605A609A609A609A609A609A607C
:10D460009A609A609A605A605A609A609A609A606C
:10D470009A609A609A6082E08022894B52005A60DA
:10D480005A609A609A609A609A609A609A609A600C
:10D490009A605A605A609A609A609A609A609A603C
:10D4A0009A609A609A605A605A609A609A609A602C
:10D4B0009A609A609A609A609A605A605A609A601C
:10D4C0009A609A609A609A609A609A609A605A60CC
:10D4D0005A609A609A609A609A609A609A609A60BC
:10D4E0009A605A605A609A609A609A609A609A60EC
:10D4F0009A609A609A605A605A609A609A609A60DC
:10D500009A609A609A609A609A605A605A609A60CB
:10D510009A609A609A609A609A609A609A605A607B
:10D520005A609A609A609A609A609A609A609A606B
:10D530009A605A605A609A609A609A609A609A609B
:10D540009A609A609A605A605A609A609A609A608B
:10D550009A609A609A609A609A605A605A609A607B
:10D560009A609A609A609A609A609A609A605A602B
:10D570005A605A605A605A605A605A605A609A609B
:10D580009A605A605A609A609A609A609A609A604B
:10D590009A609A609A605A605A609A609A609A603B
:10D5A0009A609A609A609A609A605A605A609A602B
:10D5B0009A609A609A609A609A609A609A605A60DB
:10D5C0005A605A605A605A605A605A605A609A604B
:10D5D0009A605A605A605A605A605A605A605A603B
:10D5E0005A609A609A605A605A605A605A605A60EB
:10D5F0005A605A605A609A609A605A605A605A60DB
:10D600005A605A605A605A605A609A609A605A60CA
:10D610005A605A605A605A605A605A605A609A60FA
:10D620009A605A605A605A605A605A605A605A60EA
:10D630005A609A609A605A605A605A605A605A609A
:10D640005A605A605A609A609A605A605A605A608A
:10D650005A605A605A605A605A609A609A6000BD77
:10D6600080220F4B52005A605A609A609A609A600A
:10D670009A609A609A609A609A605A605A609A605A
:10D680009A609A609A609A609A609A609A605A600A
:10D690005A609A609A609A609A609A609A6086E688
:10D6A00000F10F408022D44B52005A605A609A60B9
:10D6B0009A609A609A609A609A609A609A605A60DA
:10D6C0005A609A609A609A609A609A609A609A60CA
:10D6D0009A605A605A609A609A609A609A609A60FA
:10D6E0009A609A609A605A605A609A609A609A60EA
:10D6F0009A609A609A609A609A605A605A609A60DA
:10D700009A609A609A609A609A609A609A605A6089
:10D710005A609A609A609A609A609A609A609A6079
:10D720009A605A605A609A609A609A609A609A60A9
:10D730009A609A609A605A605A609A609A609A6099
:10D740009A609A609A60CDE48022AB4B52005A6096
:10D750005A605A605A605A605A605A605A609A60B9
:10D760009A605A605A605A605A605A605A605A60A9
:10D770005A609A609A605A605A605A605A605A6059
:10D780005A605A605A609A609A605A605A605A6049
:10D790005A605A605A605A605A609A609A605A6039
:10D7A0005A605A605A605A605A605A605A609A6069
:10D7B0009A605A605A605A605A605A605A605A6059
:10D7C0005A609A609A605A605A605A605A605A6009
:10D7D0005A605A605A609A609A605A605A605A60F9
:10D7E0005A605A605A605A605A609A609A605A60E9
:10D7F0005A605A605A605A605A605A605A609A6019
:10D800009A605A605A605A605A605A605A605A6008
:10D810005A609A609A605A605A605A605A605A60B8
:10D820005A605A605A609A609A605A605A605A60A8
:10D830005A605A605A605A605A609A609A605A6098
:10D840005A605A605A605A605A605A605A609A60C8
:10D850009A605A605A605A605A605A605A605A60B8
:10D860005A609A609A605A605A605A605A605A6068
:10D870005A605A605A609A609A605A605A605A6058
:10D880005A605A605A605A605A6096E680225A4B33
:10D8900052005A605A609A609A609A609A609A60E0
:10D8A0009A609A609A605A605A609A609A609A6028
:10D8B0009A609A609A609A609A605A605A609A6018
:10D8C0009A609A609A609A609A609A609A605A60C8
:10D8D0005A609A609A609A609A609A609A609A60B8
:10D8E0009A605A605A609A609A609A609A609A60E8
:10D8F0009A609A609A605A605A605A605A605A6098
:10D900005A605A605A609A609A605A605A609A6087
:10D910009A609A609A609A609A609A609A605A6077
:10D920005A609A609A609A609A609A609A609A6067
:10D930009A605A605A609A609A609A609A609A6097
:10D940009A609A609A605A605A605A605A605A6047
:10D950005A605A605A609A609A605A605A609A6037
:10D960009A609A609A609A609A609A609A605A6027
:10D970005A609A609A609A609A609A609A609A6017
:10D980009A605A605A609A609A609A609A609A6047
:10D990009A609A609A605A605A609A609A609A6037
:10D9A0009A609A609A609A609A605A605A609A6027
:10D9B0009A609A609A609A609A609A609A605A60D7
:10D9C0005A609A609A609A609A609A609A609A60C7
:10D9D0009A605A605A605A605A605A605A605A6037
:10D9E0005A609A609A605A605A605A605A605A60E7
:10D9F0005A605A605A607BE400F10F40F7B50E00A0
:10DA00008F21C905071C009207F00CFC002855D097
:10DA10000021381C07F024FC051E03D0381C0BF035
:10DA2000BBFE85B230880CF027FC011C381C07F0C7
:10DA3000F9FB041E4BD1308B0CF01EFC011C381C72
:10DA400007F0F0FB00283DD00C2206235900895B2B
:10DA5000A94235D91A00A3185B08111B0129F5D872
:10DA60000C2C2FD06500735B7619180001930CF015
:10DA700003FC011C381C0CF0EFF9019B071C70889B
:10DA8000C01A80B20CF0F8FB011C381C0BF086FFAA
:10DA9000051C009B6400185B0CF0EEFB009B061C51
:10DAA0001C1960880CF0E8FB311C0CF0D5F9291C1E
:10DAB0000CF094F8311C09F095FD07E0054DB1E735
:10DAC0001C00C8E7009B188B0CF0D6FBFEBD0025A0
:10DAD0000024DEE7FFFF00008022F8B5264B274E2A
:10DAE0005C6852008C4224D11B78834221D10825E6
:10DAF000234F244CFB68032133401343FB606369CD
:10DB00000022AB432B4320006361FEF797FD0922FF
:10DB10002368013AAB432B4323602368AB43236064
:10DB2000002AF5D1C023FA689B0032401343FB6002
:10DB3000F8BD0425144F154CBB68022133401A432D
:10DB4000BA6063690022AB432B4320006361FEF798
:10DB500075FD09222368013AAB432B4323602368F8
:10DB6000AB432360002AF5D1A023BA68DB00324022
:10DB70001343BB60DCE7C04628070020FFF8FFFF27
:10DB80000090044000F00F4000C00440C0F00F407F
:10DB9000F0B5354B8BB0059004925A780F000220F7
:10DBA000002A31D19E7808AC1B7807AD2F492A8016
:10DBB0002000063203930CF0EBFC059B0120238030
:10DBC000A770FFF7BBF8049B022B1FD0042B32D0A9
:10DBD00003200700012B17D1009023003E223100C3
:10DBE0000398F6F745FA00280ED139002000F6F721
:10DBF00033FA052328706B70033B009360222B00DF
:10DC000031000398F6F734FA0BB0F0BD3F0AE77025
:10DC1000042723003E22310003980097F6F728FAE4
:10DC20000028F1D139002000F6F716FA06232870F3
:10DC30006B70049BE1E73B0AE3703B0C2371062306
:10DC40003F0E67713E220093310023000398F6F7E0
:10DC50000FFA0028D8D106212000F6F7FDF9082395
:10DC600028706B70063BC8E738060020E8A9010061
:10DC7000F0B5E34BE34819785623E34AABB0FF33E2
:10DC8000002901D101F04FFC0121D154DF4B9978DB
:10DC90000391D97804911979059159790691D97927
:10DCA0000A91197A0791597A0891997A0091197B0A
:10DCB0005B7B019102932C23C05E537A002B01D031
:10DCC00000235372D04BDC6A00232268012A0AD059
:10DCD000FE21012289052260A360E3602361636164
:10DCE000A161E3612271A369A5680993E368E7690B
:10DCF0001193236911AE1293636913930CF070FAB8
:10DD0000011C0C90281C09F06DFC0B9009980CF07C
:10DD100047FA0021451E381C07F07EFAAD000028A6
:10DD200000D1B0E271590B9809F05CFC0D900C9B8E
:10DD300011AEB7490998735107F06EFA002800D068
:10DD4000A4E2FE210998890509F04CFC051C00217C
:10DD5000381C07F061FA002800D1A6E2FA210D98DC
:10DD600089050BF03BFF09900B9B0021A360119BE1
:10DD7000A561E360129B381C2361139B636107F06C
:10DD800065FA002800D193E2FE21381C89050CF0C9
:10DD900063F814AB19009F4AE06131CA31C112889F
:10DDA0000A809D4A0221585E0E920425595F002286
:10DDB0009C5E06255B5F0FAA148050809180D38003
:10DDC000844200DD76E202240122994200DD74E201
:10DDD00004250323511E0FAE4900885F591E4900D8
:10DDE0000B90895F0B9F8C465BB268B252B261B2F6
:10DDF000674500DD64E2013C6400A45FA44500DBEC
:10DE000070E2013D6D00AD5FA54202DA0C00010039
:10DE10002000013A52B20EACA456013B5BB21C94F6
:10DE20000EACE456013949B21D940EAC645601386B
:10DE300040B21E940EAC24565B001F940FAC1B5BCB
:10DE400014AD49006B800B5B40005200125BAB804D
:10DE5000035B2A80EB800823E95E0A23EA5E6F4BAE
:10DE60000EA80380072383700C202B5E2180628024
:10DE7000A380914200DD3EE29A4200DC43E29942F7
:10DE800000DD43E202230321012001380EAA1256CD
:10DE9000400020920FAA805A14AD288101390EA8A3
:10DEA00040564900895A013B69810EA92190C85604
:10DEB0005B009B5A23A91CACAB8122000B00229073
:10DEC000C2CAC2C3C2CAC2C3290018600E2218A89F
:10DED0000CF05EFB01230B942900002404205B421C
:10DEE00070275D1CAC4665000EAAED19AD18483DC3
:10DEF0000022AE5E4500ED190EAAAD18483D002285
:10DF0000AF5E651CBE4200DD0AE27027A4000EABC6
:10DF1000E419E4181C3C23680B9A0E801360032D4F
:10DF200000DC26E23E49374C4A8F3E482A23E75E12
:10DF3000354B824201D801324A87FE339A8F8242A2
:10DF400001D801329A8736492F4ACB8F834201D8B4
:10DF50000133CB87A9235B00D15C002901D10131BA
:10DF6000D1549F22284952008B5A834201D8013351
:10DF70008B525223FF33CB5C002B00D014E20800FD
:10DF8000883003600800B8300360080098300360F0
:10DF90000800A83003600800C83003600800D830CB
:10DFA00003600D000800204AFC30E4353734D3719B
:10DFB0005373D37713739377137193755371D37529
:10DFC0009372137793701375D3705375D37253771D
:10DFD00093745372D376137003600B66CB668B67B2
:10DFE0002B602370D41CE3770C00EC340F4D2360BE
:10DFF0000F4C03614464846404650363812419E065
:10E000009509002060090020801C00209D0600204A
:10E01000000040407C0900200102030405060000C6
:10E020007E1D0020FE0F0000581A0020020204038B
:10E03000010101010362C564A82013741372937671
:10E04000D374D37353704000640002320C52D37700
:10E05000CB4BCC4A1D681169CB4BCC4CC818002364
:10E06000A84201DB236E0133C94823660818002348
:10E07000854201DD636E013363660023A94201DD41
:10E08000A36E01339169A366C24BC8180023854271
:10E0900001DBE36E0133C048E366081800238542C4
:10E0A00001DA236F0133236700238D4201DD636FA3
:10E0B00001336367B94B2C215B5E1E20115E00208B
:10E0C0000E00323E36B2B34201DBA06F0130A067D2
:10E0D0002020105E002206000A3E36B2B34201DC68
:10E0E000E26F0132E2670022834202DC221DD26F1E
:10E0F0000132201DC26700228B4203DD220008325C
:10E10000D26F013221009F4E0831CA672622B15ECC
:10E1100000220800323800B2834203DB220088323A
:10E12000126801322000883002602822B05E00228E
:10E1300006000A3E36B2B34203DC22008C3212687B
:10E14000013226008C3632600022834203DC22003A
:10E1500090321268013220009030026000228B421F
:10E1600003DD230094331A6801322300854E943373
:10E170001A602223F15E00230A00323212B2974263
:10E1800003DA230098331B680133220098321360AE
:10E190002423F25E002310000A3000B2874203DB22
:10E1A00023009C331B68013320009C300360002354
:10E1B0008F4203DA2300A0331B6801332100A03112
:10E1C0000B600023974203DB2300A4331B68013359
:10E1D0002200A43213602A23F15E00230A003232A7
:10E1E00012B2974203DA2300A8331B6801332200DE
:10E1F000A83213602C23F25E002310000A3000B214
:10E20000874203DB2300AC331B6801332000AC30B2
:10E21000036000238F4203DA2300B0331B6801330D
:10E220002100B0310B600023974203DB2300B4339D
:10E230001B680133220020002100B4321360584BC8
:10E24000B83000229A5E574BC0319A4201DC00F090
:10E2500017FF03680133036020000023BC30036014
:10E26000FA208000824201DD00F02DFF0B602200C9
:10E27000C43213602200C83213602300CC331B6801
:10E28000013300F017FF00230D9350E5B16870686B
:10E2900009F0A8F9011C7060119809F0A3F9FE2596
:10E2A00000231190AD050B9351E5002309935BE525
:10E2B00000206EE50124022287E50325042389E579
:10E2C000013D6D00AD5F0B9FAF420FDC013C640070
:10E2D000A45FAC4202DD0C000100200014001A0013
:10E2E000230096E51C000B00210092E514001A00A3
:10E2F00003000800F8E799420CDD9A420DDC012387
:10E3000003210220C1E503230221BDE502230121EF
:10E310000320BAE503230121F3E701230221F7E7F4
:10E3200070228600B6180EAAB6181C3E36680B9AE4
:10E33000013016600F8006281CDD05269F1C1CAAD4
:10E34000BB00D018761B0022052D00DCB200A30014
:10E3500023A9C9180CF01CF97F0014AB0022D819AE
:10E36000052D00DC7200640018AB19190CF010F9CF
:10E37000D8E52C000B9B023104330B936346AFE5C9
:10E3800080060020E007002087130000801C00208A
:10E390001027000079ECFFFFF0D8FFFF6009002094
:10E3A00000060020B60300004422FF32BB4B885C0D
:10E3B0001B78012837D1002B08D00221B84B995483
:10E3C000A922002152009954F3F73AFD4222B44B9E
:10E3D000FF32995C01292FD10A9901290AD1013113
:10E3E00099540022FE3303209A87F6F71FFEAD4BA7
:10E3F0000A9ADA71A022AA4B5200985CAA49012815
:10E4000025D0022863D00299002945D11900FE3198
:10E41000498F632940D90299996659660221995416
:10E42000A04B029A23E0002B02D101338B54CDE79D
:10E43000A9235B00CB5CBEE71900FE31898F13294D
:10E44000D8D90A990029D5D101319954CFE7029A38
:10E45000012A0ED1A0220321914B5200995400228F
:10E46000FE3304205A87F6F7E1FD01228D4B5A73E3
:10E4700012E08E4A096989188D4A1068002281428B
:10E4800000DA1A66A0200224854B86494000CA772C
:10E490009A665A661C544A73A122814B5200985CBA
:10E4A000814901282FD0022864D0019900294FD139
:10E4B00018009621FE30C08F8900884248D3019908
:10E4C0005967196702219954764B019A2BE0784AD3
:10E4D00010680A6990420CDB00219966029B012BAF
:10E4E000B8D0744BD2189042D6DC00226C4B5A66DE
:10E4F000D2E7029C012CADD00C7D0A2161439B6EBA
:10E500008B42A7D8EDE7019A012A0ED1A12203215F
:10E51000634B520099540022FE330520DA87F6F748
:10E5200085FD01225F4B1A7312E0634A89698918DD
:10E530005F4A10680022814200DDDA66A1200224D1
:10E54000574B584940008A775A671A671C540A7318
:10E55000A220534B40001C5C584A5349012C25D043
:10E56000022C5CD02C24145F20228A5E944274DD3D
:10E5700004336FE04E4A10688A6990420CDC002137
:10E580005967019B012BC1D04D4BD2189042DFDB64
:10E590000022434B1A67DBE7019C012CB6D00C7FAD
:10E5A0000A2161435B6F8B42B0D8EDE705980128E3
:10E5B0000ED10021434A3A4BD167A22203315200C7
:10E5C00006209954F6F732FD0122364B1A7113E0FA
:10E5D000C98B2C20105E323909B20022884200DA41
:10E5E0009A6739480224C267A2202E492C4B40006A
:10E5F0008A75DA671C540A714621294BFF315A5C2F
:10E600002E48294C012A39D0022A79D02C22805E4A
:10E610002822A25E904200DCA8E090338CE02C20FF
:10E62000125E1E20095E914202DB00210833D96789
:10E63000059B012BBDD0254B1B78012B03D8224B0A
:10E64000DB6F132BB5D8184B1B8C0A3B1BB29A42BD
:10E65000D2DD134B0022DA67CEE7059A002ACBD130
:10E660001A1DD26F632AC7D91A0005990832D167DB
:10E670000222D9671A540A000A4BA7E7069A012A10
:10E6800028D10020124A064B1060032207305A544A
:10E69000F6F7CCFC0122034B5A714FE0950900209C
:10E6A000801C0020581A0020E0070020871300007B
:10E6B000800600201027000079ECFFFF6009002091
:10E6C000F0D8FFFF841C0020881C00201A170020AF
:10E6D000101D0020E28C2C24005F323A12B29042CE
:10E6E00002DA002288331A600022C148C14CC24BB2
:10E6F000226004008C3422600224DA754454CBE793
:10E700002C22825E2620205E904202DB0020943381
:10E710001860069B012BB4D0B84B1B785BB2013359
:10E7200003D1B44B1B68132BABD8B54B1B8D0A3BE5
:10E730001BB29A4202DDB34B00221A60A421AC4BFB
:10E740004900585CB04A012824D0022841D0002159
:10E75000525EFA2189008A4271DD009A012A3BD07B
:10E76000C0331B68092B37D8A84B1AE0069A002A39
:10E77000E4D11A0090321268632ADFD91A00069891
:10E78000943210601A008C32106002225A54020037
:10E79000994B81E7E1200024125F8000824203DD73
:10E7A000C43300221A6024E0009A002A21D11A0002
:10E7B000C4321268632A1CD91A000098C032106053
:10E7C0001A00BC32106003225A5402008A4B9A721B
:10E7D0000FE0009901291CD100218D4A012411600C
:10E7E000A422834B52000A209C54F6F71FFC824B54
:10E7F0009C72A3227E4E5200B15C814B012928D02D
:10E8000002294FD024215B5EBB4279DD3300A43363
:10E8100063E00021525E7F498A4202DC0022B83365
:10E820001A60002272497C48032402600800BC3050
:10E830000260A420704B40001A770C54C7E70021F7
:10E84000C0331960009B012BC6D0744B9A42D0DDB7
:10E850008AE7039A012A0ED133000022A4331A60FA
:10E86000A32303325B000820F254F6F7DFFB0122FA
:10E87000614B9A7033E05B8C32331BB29F4203DBF7
:10E880003300002298331A6031000022A0310A6060
:10E8900031009C310A60A3210220574B49001A75B0
:10E8A0007054E6E722215A5EBA4203DC32000021AE
:10E8B000A0321160039A012ACED0504A1278012A60
:10E8C00004D83200A0321268132AC5D89B8C0A33B0
:10E8D0001BB29F4203DA33009C3300221A604821A6
:10E8E000434BFF31585C444C454A01281CD0022858
:10E8F0005FD02C20125EBA4200DC91E0B43373E0AA
:10E90000039B002BEBD13300A4331B68632BE6D9A8
:10E9100033000399A033196033009C33196002233C
:10E92000B3540A00344BA4E7049801280BD13300F8
:10E930000022B4331A60032309207354F6F776FBE0
:10E940000123E37013E0528D323212B2974203DB9F
:10E950001A000020A832106018000022B0300260B7
:10E960001800AC300260022062755854E2704A20F0
:10E970001F4BFF30244A1C5C0021515E0022012CF9
:10E9800061D0022C00D182E01C000D00D434C835C7
:10E9900000DB8CE02168092900D88BE019000124F4
:10E9A000D0311C540B200A60F6F740FB124BDC728E
:10E9B0004EE02A25505FB84203DC18000025B03035
:10E9C000056004980128B2D00C48007840B20130AC
:10E9D00004D11800B03000681328A8D8928DAC3349
:10E9E0000A3212B29742C2DA00221A60BFE7C0466A
:10E9F000801C0020141D0020581A00201A17002027
:10EA0000E00700200C1D0020000600203C1D002017
:10EA1000441D0020B6030000401D00207A030000C2
:10EA2000049A002AA3D11A00B4321268632A9ED92C
:10EA30001A000498B03210601A00AC321060022242
:10EA40005A5403007DE71C00D034963111DA22605D
:10EA5000A525C24C6D00635D022B2FD8002B40D141
:10EA6000BF49099806F0F2FB002870D1D834206025
:10EA700040E021686329EBD91900D4310A601900FC
:10EA8000CC310A6003211954B64BDA72E0E79631B3
:10EA900001DBC8331A600022B049B34CB14B22608D
:10EAA0000C00CC34226003245A770C54EDE722602A
:10EAB0008C31CDDA0022CC331A60C9E7032BCFD1D9
:10EAC0005422AA4BFF321B78A25C134325D1013399
:10EAD0000F206355F6F7AAFA54220123FF32A354FC
:10EAE00008E023000022DC331A60032363559D4BAA
:10EAF00001321A704E23994AFF33D45C9C489D49D9
:10EB0000012C35D0022C6AD0008B4989884200D371
:10EB10007FE00023FC32D3604EE09749099806F06D
:10EB200081FB2300DC33002801D11860E2E71B6879
:10EB3000092BDFD954220023FF32A3542200D832FC
:10EB4000136004226255874A13709374D2E723003E
:10EB5000D8331B68092BCDD9F6F7E4FAA523022296
:10EB60005B00E25400233D32FF32A3527D4AECE7C2
:10EB7000089C012C0CD132000021FC32D160032210
:10EB80000220F254F6F752FA0122764B5A7213E041
:10EB90000989008B323189B2884203D311000020E9
:10EBA000FC31086014000020FC34A0606060022486
:10EBB0006C49D454C87648724C21684BFF31585C7C
:10EBC0006B4A012835D0022845D06A48128B8489C7
:10EBD0001800E430A24270D9002303603BE0008BB0
:10EBE0000989814202D20021FC329160089A012AEF
:10EBF000C1D00A255F4C6149A27B6A438D6895426A
:10EC0000B9D2638919339BB29842D5D800234B609F
:10EC1000D2E708990029CFD11100FC31C8686328D8
:10EC2000CAD90898886048600221D15402004D4B2F
:10EC3000ACE70025524C65571C00E834013525D15E
:10EC4000002020604B48148B80896430844227DC8C
:10EC500000224C4B1A60A7254B4B404A6D00515D7A
:10EC60001C684048434B1B89009001293DD04B3321
:10EC7000022962D0FA21100089001B015B18FC30C8
:10EC80000021A34200D883E0C16144E096252468B6
:10EC9000ED00AC42D6D3022437325C541070DAE770
:10ECA0001C009620E0342468C0008442D3D31C00AA
:10ECB0000020E43420600324EEE70268C72ACAD9A2
:10ECC00018000022E83002601800E03002600120E5
:10ECD000585423A92D482392F5F7CFFE23990422F7
:10ECE00001312A48F5F7FAFEB5E7AF331B01A3421D
:10ECF00003D213000021FC331961009B1F48D91C6B
:10ED0000002383614361A7200224CB77134940008D
:10ED10000C5400990B74A620104B40001C5C144D41
:10ED20001449012C3ED0022C00D18FE06C8B8A88D4
:10ED3000944200D8A8E0F433A3E01B01A34203D21D
:10ED400011000020FC318861FA21C9005B18A34240
:10ED5000E1D913000021FC335961DCE7801C00205D
:10ED600000802244581A0020541D0020C81800209A
:10ED700060090020E0070020000011447C1D0020F5
:10ED80001A170020601D0020E81800202040000015
:10ED9000C369632BBFD902235355009B8161416135
:10EDA0001974B8E7079801280ED133000022F43314
:10EDB0001A60A62303325B000120F254F6F736F9FD
:10EDC0000122CC4B1A7216E04988688B323989B21D
:10EDD000884202D80021EC33196010000021F8307D
:10EDE00001601000F0300160A6200224C14B4000F9
:10EDF000997614541972A821BF4C4900BF4B605C2E
:10EE00009C46BF4ABF4B022852D0032800D185E060
:10EE1000012800D0BFE05024BB4BFF341868BB4B27
:10EE2000355D5B8800224B3BB3491B01012D00D1AE
:10EE3000F6E0022D00D107E1B5495B183100FC3145
:10EE4000984200D80FE18A62FFF702F9688B4A887E
:10EE5000824202D90022F8331A60079B012BA4D00A
:10EE6000A54BAA4C01930A23A279AA495A430968DF
:10EE700091429AD2A288193A92B29042BBD3019B96
:10EE8000F03300221A60B6E7079A002AB3D11A00BD
:10EE9000F4321268632AAED91A000799F832116069
:10EEA0001A00F032116002221A540A00914B89E7CD
:10EEB0009F3390481B780190002B0ED00423688B61
:10EEC00063542B8BC01A0AF00BFCA065E165F6F7C2
:10EED00015F90123019A53709DE763461B68002BC7
:10EEE00004DA802109068B4208D05B428A498B42B2
:10EEF00004DC538B128B9B1A632B02DC0023FC3443
:10EF0000236332000023FC3293635363A82203215E
:10EF10005200B154019A5370D3747CE76146508B10
:10EF2000158B0968401B002904DA80252D06A942AB
:10EF300020D04942784DA9421CDC96281ADD9F3327
:10EF40001B78002B0DD0A82304225B00F2540AF09A
:10EF5000C7FBB065F165F6F7D1F80122654B5A7031
:10EF600059E72300FC339B6BC82B0FD80023FC34DC
:10EF7000636350E7220000219F331B78FC329163CA
:10EF80008B42E0D1312800DC45E7EFE73D321378D2
:10EF9000022BEBD1D7E79F331B78002B00D03AE749
:10EFA00001330E206354F6F741F8E56DA46D00229D
:10EFB00020002900594B06F0FBF8002826D000223B
:10EFC00000232000290006F011F9002820D020009D
:10EFD00029000AF0F9FB84B2012551486D421CA9B1
:10EFE0001C95F5F74AFD1C9B002B00D013E704226B
:10EFF00021004B48F5F772FD494823A92395F5F701
:10F000003CFD239B9C4205D1C04604E7454CE3E709
:10F010000400E1E7042221004148F5F75FFDFAE62C
:10F02000414D5B19834201D9FC363262009B9A1C28
:10F030000023D3770A00FC32D362536202220A55BE
:10F04000009AD373FFF704F8984201D2FC36F262BB
:10F05000364A9B18834201D3FEF7FAFF0023FC31A6
:10F060004B62FEF7F5FF8B6A632B01D8FEF7F0FFCA
:10F07000022333551F4BCA624A62DA73FEF7E8FF78
:10F080000023036020002A4FBC30BA4220DC07680E
:10F090000B60013707602000C43001680131016056
:10F0A00021001000C831963044DB0B608C3201DB4C
:10F0B000FFF7E3F82200CC3213602200D03213684D
:10F0C0000133136042E00A6801320A60FFF7CFF8AB
:10F0D000E12703600B6020002100BF00C431C8306D
:10F0E000BA4205DC0A6801320A600360FFF7C5F81E
:10F0F0000B60FAE7581A0020801C002080060020D0
:10F100006009002028180020E8180020E0070020EF
:10F1100018FCFFFF781D0020871300000000F0405E
:10F12000EC400000FFFF0000C0F9FFFF30F8FFFFD8
:10F130007A0300000868013008602100CC310B60C0
:10F140002100D0310B60C83200DAD7E10023220061
:10F15000D432DB490998136006F078F8002803D010
:10F160002300D833186801302300D8331860D549FC
:10F17000099806F057F8002803D02300DC331868FC
:10F1800001302300DC331860CF4B00931A8BCF4B38
:10F190009989002308006430824203DD2300E033B4
:10F1A0001B6801332000E030036000238A4203D84B
:10F1B0002300E4331B68013321000020E4310B609D
:10F1C000C349C44B08560021013003D02100E83167
:10F1D000096801312000E83001600099498B0191F4
:10F1E0007188019F0800323880B203910021874264
:10F1F00003D92100EC31096801312000EC300160B5
:10F20000B088019F0600193EB6B20021B74203D272
:10F210002100F031096801312600F0363160019E8D
:10F220000021864202D8F43421680131AA48039CA7
:10F230000290AA48016001980021A04203D30299DC
:10F24000F8310968013102980024F83001609F49C3
:10F2500009890800323080B2824203D20298FC3021
:10F26000046801349E4E9C483460984CB4466789CB
:10F2700000243E001936B6B2B24202D96446646830
:10F280000134FC300600446000208A4201D8B06896
:10F290000130934E904CB0600020BA4201D3F06828
:10F2A00001302600FC36F0608E48AF310068002740
:10F2B0000901884201D837690137FC3427610F0002
:10F2C0009137FF370026B84201D366690136844F73
:10F2D000814C7E61BC46844F0026CF19B84202D8CB
:10F2E0006646B66901362700FC37BE617F4E891934
:10F2F0000026884201D3FE6901360399FC34AF39F8
:10F30000E66109010026884201D3266A0136744F5E
:10F31000714C3E62BC460F00913FFF3F0026B84251
:10F3200002D86646766A0136FC3496276662C8269D
:10F33000BF00F6008E19C9190027884201D8A76AB4
:10F340000137674C6449A7620027B04201D3E76ADE
:10F3500001370800FC30C7620198821A002D05DAD7
:10F3600080200006854200D1CDE06D426048854294
:10F3700000DDC8E0632A00DCC5E0FC31086B013029
:10F38000086300204863962A00DDC9E00021029A44
:10F39000FC329163574A009910782E310870190099
:10F3A000507A353108701900907A3631087019009A
:10F3B000D07A373108701900107B38310870190085
:10F3C000507B393108701900907B3A310870190070
:10F3D000D07B3B3108701900107C3C3108700099DB
:10F3E000507C30310870190050782D3108701900A8
:10F3F00090782E3108701900D0782F3108701900DC
:10F400001079303108701900507931310870009945
:10F4100090792F3108701900D079333108701900B4
:10F42000107A343108700099907C313108701900DD
:10F43000D07E843108701900107F85310870190062
:10F44000507F863108701900907F8731087019004D
:10F45000D07F883108701900501CC07F8931087036
:10F460001900901CC07F8A3108701900D01CC07F21
:10F470008B3108700099101DC07F3231087019005F
:10F48000D07C7C3108701900107D7D310870190026
:10F49000507D7E3108701900907D7F310870190011
:10F4A000D07D803108701900107E813108701900FC
:10F4B000507E82310870927E83331A701CE0C04601
:10F4C000008022440000114460090020E007002071
:10F4D0001A170020BC160020801C0020741D00207C
:10F4E0007C1D0020E8180020C0F9FFFFA8FDFFFFE9
:10F4F00087130000581A00202BB0F0BD2300D4332E
:10F500001B68013323E608000024FC300463FC314F
:10F51000312A02DD00224A6338E74A6B0132FAE7FA
:10F52000896B013133E7D154E6E7554BF0B51C68E0
:10F530000023544DADB0544E6C601CAF9C4248DC6F
:10F540000021884201D0514B198B00220927AC6061
:10F5500014A81CAE944244DCE343DB1723401A009A
:10F56000002104A80393EC600AF0FCFFE3B20193CE
:10F570000023E6B214AA9E423DD100230293019BD0
:10F58000022B01D9F31E029300218C461CAA04AB66
:10F5900000920299614533DC2C610CAD0021039A85
:10F5A00028000AF0DFFF04A9320028000AF0F0FF6B
:10F5B0000021019B8B4200D0711E2B000022914242
:10F5C0003EDC334B33499C6100239C4252DC2DB01E
:10F5D000F0BD00215A00884200D0B15AB95201331F
:10F5E000ACE753009B5B5B1A9BB29F429B415B4223
:10F5F00013540132AEE7995C04A8C1540133BAE751
:10F6000001218C4400215956012912D1012159565A
:10F6100001290ED10220185601280AD151881788D5
:10F620008F4209D297888F4206D2002158701970F4
:10F63000997001330232ACE7002159700131F7E7CC
:10F6400000201856013201280DD101269E57012EA7
:10F6500009D1009800888446009847880020BC455E
:10F6600006D818705E700098013302300090A6E74B
:10F670005870F8E7EA56501E8241CA540133A4E795
:10F68000B4090020F009002028180020600900209B
:10F69000CC090020BC160020F0B5E94C8222A5441C
:10F6A000E849CBA80AF074FF3222E74BE7495193AF
:10F6B000E74B6BA8529351AB1A81183A0AF068FFD6
:10F6C0001A22E44964A80AF063FFE34B1D6806931D
:10F6D000002D00D085E0E14B1A68E14B52681B68B1
:10F6E0009B009B5818680AF045FEDE4ADE4B09F085
:10F6F00071F90022DD4B05F05BFD002871D0DC4B79
:10F70000188BDC4B984201D801F0BBFBDA4B9842D6
:10F7100001D901F0BAFB0C210623AE245A00A40043
:10F7200012193EAC1219D54C12191288824201D816
:10F7300001F0A4FB19006B185B084A1B012AECD8E6
:10F740000C2D01D101F0A1FBAE236C009B00E4184D
:10F750003EABE418C94BE3181B8804930AF00AFE79
:10F76000060004980F000AF005FE02000B003000AE
:10F77000390009F0F7FBC24B0600E4182088049B0F
:10F780000F00C01A80B20AF0F5FD02000B00300035
:10F79000390008F0DBFC06000F00AE236C009B0074
:10F7A000E4183EABE418B74BE31818880AF0E2FD02
:10F7B000B54B04900591E41820880AF0DBFD049A0B
:10F7C000059B09F0CFFB32003B0009F003F9049AD6
:10F7D000059B08F057F9469047910AF037FEAB4C6D
:10F7E000A065AB4AAB4CD36F591C01D00133D36732
:10F7F00023002200AB331B78A44EAA32002B01D089
:10F8000001F047FB82214900118022000832D367B2
:10F81000B36C4093F36C419333005E331B78002B41
:10F8200001D102F0C6F923000122B43321001A707D
:10F83000069BB2311F6823000878B133002801D03D
:10F8400001F0D3FB0A709218002400251A700022E0
:10F8500091489249924B589059915A925B933463D4
:10F860007563B463F563B062F16232647364002F50
:10F8700001D101F0DBFB00238A4A864C1360774BF1
:10F880001A68774BD2685B689B009B580493002BE7
:10F8900020D17E4B986AD96A206061608290839102
:10F8A000186B596BA060E16084908591986BD96B5F
:10F8B0001A6C5B6CA261E361889289936C4B206146
:10F8C000616186908791188B0AF054FD2062616215
:10F8D00044904591380009F003FF734A734B09F0D7
:10F8E00079F8734B040018780D000AF043FD02000C
:10F8F0000B002000290008F029FC00231D003060C7
:10F9000071605B4A1C20115E01355B180232072DC5
:10F91000F8D118B21B0401D401F0A4FB464229001F
:10F92000300005F0A7FC29000400300005F028FD98
:10F930004B1E9941641860425E4B00B21880049BD4
:10F94000002B01D000F0FDFD5B4846A9F2F758FE00
:10F95000504C8025226C636C169217931698179959
:10F96000564A574B09F036F82D064B19A393A26C53
:10F97000E36C109211939A909B91504A504BA29035
:10F980001098119909F026F84B199C909D914B4ABB
:10F99000A490A593206D616D494B09F01BF84B199C
:10F9A000A793A26DE36D189219939E909F91434A7D
:10F9B000434BA6901898199909F00CF84B19A99384
:10F9C000226E636E2C922D93A36EE46E2E932F9471
:10F9D0009AAB1D00A090A191049CA8901493286854
:10F9E00069682C9A2D9B08F04DF82E9A2F9B286061
:10F9F0006960A868E96808F045F80234A860E96021
:10FA00001035082CEBD17AA99AA8F2F7F9FD7CA958
:10FA10009EA8F2F7F5FD7EA9A2A8F2F7F1FD80A954
:10FA2000A6A8F2F7EDFD24484AA9F2F7E9FD4A9BA2
:10FA30004B9C7A987B991A0004930594230041E02B
:10FA40004CFCFFFFFCA701000A001400B4A5010054
:10FA50001E002800EEA9010080060020501A002098
:10FA6000481A00209A9999999999B93F0000144031
:10FA700060090020E90B000062100000E0FDFFFFBC
:10FA8000E2FDFFFFFCFDFFFFFEFDFFFFC8060020BB
:10FA9000081600200016002048AFBC9AF2D77A3E24
:10FAA00000002440A4160020FCA9F1D24D62503F72
:10FAB000681800202407002060160020CD3B7F66D8
:10FAC0009EA0F63F09F04EFA049A059B07F0DAFF74
:10FAD000049A059B06000F007C987D9909F042FA74
:10FAE000049A059B07F0CEFF049A059B06900791A8
:10FAF0007E987F9909F036FA049A059B07F0C2FFB9
:10FB0000049A059B0C900D918098819909F02AFA2E
:10FB1000049A059B07F0B6FF002200230E900F9178
:10FB20000498059908F056FF002204000D00E44BEC
:10FB30003000390008F04EFF02000B0020002900C1
:10FB400007F0A0FF002204000D0006980799DC4B87
:10FB500008F040FF02000B002000290007F092FF90
:10FB6000002204000D000C980D99D54B08F032FFCF
:10FB700002000B002000290007F084FF002204008F
:10FB80000D000E980F99CE4B08F024FF02000B00D9
:10FB90002000290007F076FF03000C0002001290FD
:10FBA00013914693479430000B00390009F0DAF9BD
:10FBB0000022C44B1C901D9108F00CFF03000C00A8
:10FBC0000890099106980799729373941C9B1D9C49
:10FBD0007A937B94129A139B09F0C4F90022B94BD3
:10FBE0001E901F9108F0F6FE03000C000A900B9186
:10FBF0000C980D99749375941E9B1F9C7C937D9417
:10FC0000129A139B09F0AEF90022AE4B209021917D
:10FC100008F0E0FE03000C00069007910E980F9983
:10FC200076937794209B219C7E937F94129A139BCA
:10FC300009F098F90022A34B2290239108F0CAFE04
:10FC400003000C0078937994089B099C4293439499
:10FC50000A9B0C900D911C000B9B00225B005D0821
:10FC6000E623200029005B0505F0B6FA002801D044
:10FC700001F0FDF9002220002900934B08F0AAFEB4
:10FC800002000B0008F0A6FEE62506000F00002487
:10FC90006D05069B22000E93079B5B005B080F938C
:10FCA0000E980F992B0005F097FA002801D101F06A
:10FCB000E2F90E9A0F9B2000290008F047FA040091
:10FCC0000D0032003B0008F085FE22002B0008F0FA
:10FCD00081FE00227D4B07F0D5FE269027910C9BDC
:10FCE0001E000D9B30005B005F0839000E9A0F9BD1
:10FCF00005F072FA002801D101F0D1F90E980F99A0
:10FD000032003B0008F022FA269A279B04000D00DF
:10FD100008F060FE22002B0008F05CFE00226B4B16
:10FD200007F0B0FE4894499507F04CF932003B00CB
:10FD300008F050FE04000D00002200234C944D9565
:10FD400005F030FA002800D01DE10898099922003A
:10FD50002B00F2F7E7F8002204000D00089809993B
:10FD6000002305F043FA002803D0802109066B1810
:10FD70001D006B005908D423200000229B0426009C
:10FD80002F004C944D9505F013FA002801D101F095
:10FD9000CBF900230E930E9B00220A980B99013396
:10FDA0000E934B4B08F016FE00220A900B9106981A
:10FDB0000799474B08F00EFE0022069007910C9819
:10FDC0000D99434B08F006FE00220C900D91404B1C
:10FDD0003000390008F0FEFD0F0006000898099970
:10FDE00000223B4B08F0F6FD7B005B083193D423E7
:10FDF0003096089009913098319900229B0405F0C3
:10FE0000D7F9002802D00E9B142BC4D10A9B0B9C5F
:10FE100074937594069B079C769377940C9B0D9C2A
:10FE200078937994089B099C42934394E624002399
:10FE30006405489349940A9B00221C000B9B2000F8
:10FE40005B005D08E62329005B0505F0C5F900228B
:10FE5000002801D101F037F91C4B489449954C9288
:10FE60004D93489C499D069B1E00079B30005B00FC
:10FE70005F0839004C9A4D9B0A920B9322002B008D
:10FE800005F0AAF9002801D101F02AF932003B005F
:10FE90002000290008F05AF90A9A0B9B04000D0073
:10FEA00008F098FD22002B0008F094FD0022074B7B
:10FEB00007F0E8FD489649974C904D910AE0C046FE
:10FEC0000000D03F0000E03F000020630000F03F52
:10FED0000000907C489C499D0C9B1E000D9B3000AF
:10FEE0005B005F0839004C9A4D9B069207932200F5
:10FEF0002B0005F071F9002801D101F003F932005F
:10FF00003B002000290008F021F9069A079B040015
:10FF10000D0008F05FFD22002B0008F05BFD0022C1
:10FF2000954B07F0AFFD489649974C904D914C98F2
:10FF30004D9907F047F8489A499B08F04BFD02009D
:10FF40000B0008980999F1F7EDFF002204000D005D
:10FF500008980999002305F049F9002803D0802169
:10FF600009066B181D00290020000025D42300225B
:10FF70009B0408F02FFD0E9B01359D42F6D14C905D
:10FF80004D9142904391129A139B0498059908F061
:10FF9000E9FF48AC029442AC01944CAC02000B0067
:10FFA000429843990094F2F7A1FA00242C9A2D9BD1
:10FFB000149901340868496808F0D4FF149B18604C
:10FFC00059602E9A2F9B14998868C96808F0CAFF57
:10FFD000149B9860D96010331493042CE6D19A9A3C
:10FFE0009B9B1C981D9908F0F5FC0022002307F04C
:10FFF00049FD9E9A9F9B04000D001E981F9908F0D2
:020000021000EC
:10000000E9FC02000B002000290007F03BFDA29A4A
:10001000A39B04000D002098219908F0DBFC02004E
:100020000B002000290007F02DFDA69AA79B0400D5
:100030000D002298239908F0CDFC02000B0020004F
:10004000290007F01FFD00224C4B5890599108F0F1
:10005000C1FC9C9A9D9B089009911C981D9908F0E1
:10006000B9FC0022002307F00DFDA09AA19B04001B
:100070000D001E981F9908F0ADFC02000B00200037
:10008000290007F0FFFCA49AA59B04000D0020980E
:10009000219908F09FFC02000B002000290007F0C6
:1000A000F1FCA89AA99B04000D002298239908F05E
:1000B00091FC02000B002000290007F0E3FC002265
:1000C0002E4B08F087FC00222D4B06900791489894
:1000D00049995A925B930490059142904391F1F7AC
:1000E00021FF002206000F0004980599002305F067
:1000F0007DF8002803D0802109067B181F007B00B3
:100100005908D423300000229B044A964B9705F0EF
:100110004FF8002862D000230024194D0A930A9B4F
:1001200000220133200029000A93164B08F052FCEC
:100130000022144B04000D003000390008F04AFC86
:100140000F0006000498059900220E4B08F042FCAF
:100150007B005B083393D423329604900591329848
:10016000339900229B0405F023F800280CD00A9B49
:10017000142BD4D108E0C0460000F03F0000D03F6F
:10018000000024400000907C049A059B0498059987
:100190004292439322002B005A945B95F1F7C2FEE2
:1001A000002206000F0004980599002305F01EF8B0
:1001B000002803D0802109067B181F000024D423C7
:1001C000300039009B04002208F004FC0A9B013433
:1001D00006000F009C42F2D14A964B97129A139B4D
:1001E000449845994296439708F0BCFE03000C00E2
:1001F0000C900D910898099944934594002200238E
:1002000004F0D0FF002807D10898099932003B007C
:1002100007F09CFF08900991069807990022002397
:1002200004F0C0FF002807D10698079932003B0070
:1002300007F08CFF06900791089B099C0898099984
:1002400054935594069B079C002256935794002381
:1002500004F0A8FF002807D10898099932003B0054
:1002600007F074FF549055910698079900220023D7
:1002700004F098FF002807D10698079932003B0048
:1002800007F064FF56905791109B119C4893499436
:10029000109A119BE14C22656365549A559B12920A
:1002A00013931298139932003B0008F093FB02005D
:1002B0000B0058925993569A579B14921593069097
:1002C00007911498159932003B0008F083FB020057
:1002D0000B005A925B930022002308900991169814
:1002E0001799A264E36404F05DFF002801D000F0D8
:1002F0004BFF189819990022002304F053FF00289F
:1003000001D000F041FF169A179B0698079907F055
:100310001DFF03000C0002008A938B94049005914A
:100320000B001098119908F055FB02000B0008987B
:10033000099908F017FE189A199B07F007FF0300A8
:100340000C008C938D94049B0A900B911C00059BD0
:1003500000225B005D08E623200029005B0504F015
:100360003BFF0022002801D000F0E2FE049805992E
:10037000AB4B08F02FFB02000B0008F02BFBE6252F
:1003800000240E900F916D050A9B22001E000B9B0E
:1003900030005B005F0839002B0004F01DFF0028CF
:1003A00001D100F0CAFE32003B002000290007F016
:1003B000CDFE0E9A0F9B04000D0008F00BFB2200EF
:1003C0002B0008F007FB0022964B07F05BFB06F0C2
:1003D000F9FD32003B0008F0FDFA06000F00002294
:1003E000904B4E964F9704F001FF051E01D000F090
:1003F000CBFE32003B003000390008F0EBFA00265B
:10040000002702000B000020864908F0ABFD06F033
:10041000D9FD4EAB029362AB01935EAB00930A9A97
:100420000B9BF2F763F84E984F994EAB029360AB7B
:1004300001935CAB0093049A059B8C968D97F2F721
:1004400055F88AAB06938A968B97744B0493069B58
:10045000049C1E685F686B1C1093ED00226C636C3B
:10046000089209930898099960AB5B191A685B6850
:100470000A920B935CAB5B191A685B680E920F9340
:1004800008F0A8FA0A9A0B9B1690179130003900D1
:1004900008F0A0FA02000B001698179908F062FD08
:1004A0000E9A0F9B206461643000390008F092FAC4
:1004B0000A9A0B9B06000F000898099908F08AFA1F
:1004C000083D0B0002003900300007F0DBFA2B007A
:1004D00006000F00083C0833C0D1069B0125C0C3AD
:1004E0000693049B18330493109B022BAFD14B4C03
:1004F000A26CE36C206D616D22656365129A139B9B
:10050000A064E1640C980D9908F064FA226E636EA1
:1005100007F0B8FA149A159B2066616654905591BD
:100520000C980D9908F056FA0B000200A06EE16ECF
:1005300007F0A8FA3C4BA066E166A06AE16A986001
:10054000D960394DA868E96809F080FF374B384F0A
:1005500038493861041C186809F040FB364B049098
:100560001868364B2D4E1A78002A01D001F027F971
:1005700001321A702F4909F031FB0223304A6865B5
:1005800013702B4B2F491E69301C04F05FFE234C67
:10059000002809D02C4B00201B785BB2012B03D024
:1005A00023009833186801302300983318602749D6
:1005B000301C04F041FE051E17D00025224B1B788D
:1005C0005BB2AB4211D1206F616F0022204B04F06F
:1005D000EFFDA84209D00021049804F01DFEA842B6
:1005E00003D023009C331D68013523009C33194937
:1005F0001D60301C04F02AFE002803D02300A03325
:10060000186801302300A0331860134B064D18788A
:1006100009F032FE011C686D20E0C0460016002083
:10062000000020630000F03FC80600207C06002088
:10063000600900207D219534541A0020B016002056
:10064000AE1600200000A0411A1700200000504103
:1006500000002A400000A0426818002009F09EF91E
:10066000E04B28651A68E04BD2685B689B009D5898
:10067000002D00D004E3DD4858A9F2F73FF8206CC4
:10068000616CDB4ADB4B802608F0A4F936068B1937
:100690009A909B91D64AA290A393A06CE16CD54B03
:1006A00008F098F98B199C909D91D14AA490A5933C
:1006B000206D616DCF4B08F08DF98B199E909F9145
:1006C000A690A793A06DE16DCA4BC94A08F082F9C4
:1006D000A090A1918B19A993266E676EA890A36E26
:1006E000E46E049305949AAC2068616832003B0084
:1006F00007F0C8F9049A059B20606160A068E16872
:1007000007F0C0F90135A060E1601034042DEBD191
:10071000AAA99AA8F1F7F2FFAEA99EA8F1F7EEFFF9
:10072000B2A9A2A8F1F7EAFFB6A9A6A8F1F7E6FFD9
:10073000AE4858A9F1F7E2FF589B599C0A930B94D5
:100740000A980B990022002308F044F95A9E5B9FF7
:1007500004900591002300223000390008F03AF996
:10076000AAAC002325000690079108930022286870
:100770006968A14B08F02EF902000B000498059956
:1007800007F080F9002204900591A868E9689A4B67
:1007900008F020F90B0002000698079907F072F99B
:1007A000089B06900791013308931035042BDDD187
:1007B00002000B003000390008F0D4FB00250600D1
:1007C0000F0020686168049A059B08F0CBFB069A2D
:1007D000079B20606160A068E16808F0C3FB0235F8
:1007E000A060E1601034082DEBD1AA98AB990022EB
:1007F000824B08F0EFF80022BA90BB91AE98AF9907
:100800007E4B08F0E7F80022BC90BD91B298B399F6
:100810007A4B08F0DFF80022BE90BF91B698B799E6
:10082000764B08F0D7F80022C090C191AC98AD99F2
:10083000724B08F0CFF80022C290C391B098B199E2
:100840006E4B08F0C7F80022C490C591B498B599D2
:100850006A4B08F0BFF8694B0022C690C791B89860
:10086000B99908F0B7F872AC2200C890C9919AA95A
:10087000BAA8F1F7B7FB049A059B0A980B9908F000
:1008800071FB46AD019544AD02000B00729873995F
:1008900002940095F1F72AFE449A459B0892099329
:1008A000769A779B089809990A920B93469A479BE8
:1008B0000E920F930A9A0B9B08F08CF80E9A0F9BDE
:1008C0000C900D913000390008F084F802000B0004
:1008D0000C980D9907F0D6F8089A099B0C900D9189
:1008E0003000390008F076F80E9A0F9B06000F00D2
:1008F0000A980B9908F06EF802000B0030003900DE
:1009000008F030FB78AD029544AD019542AD020090
:100910000B00789879990095F1F7E8FD729A739B2E
:100920000C980D990026002708920993449245934C
:100930000C9A0D9B48924993789A799B0A920B9353
:100940004A924B9300222E4B469647977A927B937E
:100950008092819332003B007C967D977E967F97B4
:1009600008F038F8089A099B07F08CF80A000E90F6
:100970000F9101003B00729173920A980B9932001B
:1009800008F028F832003B0007F07CF80A001490C9
:100990001591010074917592089809990022184BDD
:1009A0004292439332003B0008F014F80C9A0D9BDE
:1009B00007F068F802000B00169017910A980B993F
:1009C0007692779332003B0007F05CF8829C839D1F
:1009D00002000B0018901991200029007892799359
:1009E00010E0C046501A0020481A0020601600206F
:1009F000CD3B7F669EA0F63F0000D03F0000E03F69
:100A00000000F03FF1F764FA002801D001F062F82D
:100A100020002900F1F776FA002801D001F05AF8F9
:100A2000849C859D20002900F1F752FA002801D00E
:100A300001F050F820002900F1F764FA002801D0F5
:100A400001F048F8869C879D20002900F1F740FAC4
:100A5000002801D001F03EF820002900F1F752FAF9
:100A6000002801D001F036F8889C899D20002900DB
:100A7000F1F72EFA002801D001F02CF8200029000F
:100A8000F1F740FA002801D001F024F892AB60AAF7
:100A90008AA982A8F2F765FD409809F08FFC28909A
:100AA0002991419809F08AFC2A902B9160986199CC
:100AB00006F088FA06000F006298639906F082FA41
:100AC000929B939C0A930B94969B979C3200109355
:100AD00011940C900D910A980B993B0007F07AFF46
:100AE0000022002306F0CEFF002204000D00109823
:100AF0001199002307F06EFF02000B00200029006F
:100B000006F0C0FF03000C007A937B94949B959CA5
:100B100008930994989B999C3200129313941A900D
:100B20001B91089809993B0007F054FF002200230D
:100B300006F0A8FF002204000D001298139900236C
:100B400007F048FF02000B002000290006F09AFF82
:100B500003000C0000227C937D941C901D910A9848
:100B60000B99002307F036FF0022002306F08AFFCE
:100B7000109A119B04000D000C980D9907F02AFFA4
:100B800002000B002000290006F07CFF06000F0089
:100B900008980999002200237E967F9707F01AFF94
:100BA0000022002306F06EFF129A139B04000D0032
:100BB0000C980D9907F00EFF02000B002000290091
:100BC00006F060FF0E9B0F9C8090819172AAAA9301
:100BD000AB941A9B1B9CB890B9919AA9AAA8AE9302
:100BE000AF94149B159CB096B197AC93AD94169BA3
:100BF000179CB293B3941C9B1D9CB693B794189BFF
:100C0000199CB493B594F1F7EDF972987399CC4BA4
:100C100018645964769877999864D9640499059A08
:100C200019665A667498759918655965789879990E
:100C30009865D9650699079A9966DA662899299A76
:100C400019635A632A992B9A9963DA63549B559CCA
:100C50001A931B941A981B990022BA4B04F0BCFA01
:100C6000002801D000F047FF1A981B9900220023AA
:100C700004F09EFA002803D0002300241A931B944A
:100C8000B14CB249606D08F0A9FF08F085FD8F21D5
:100C9000AF4D5C3468602D690022A35EC905281C35
:100CA000069304F0BFFA002801D100F028FF0021CC
:100CB000281C04F0D5FA041E03D0281C08F06CFD93
:100CC00084B2B4223EAB9B18188809F0D5FA011CF7
:100CD000281C04F0A7FA071E01D000F016FFCC2252
:100CE0003EAB9B18188809F0C7FA011C281C04F0B9
:100CF00099FA002801D100F00DFF0C210623AE2047
:100D00005A00800012183EA8121892481218128831
:100D1000A24201D800F0F6FE19007B185B08CA1B3E
:100D2000012AECD8AE237C009B00E4183EABE4180B
:100D3000884BE3181E88300009F09EFA011C281C1D
:100D400009F08AF8844B051CE4182088801B80B2C7
:100D500009F092FA011C281C08F020FE04904C2295
:100D60003EAB9B181B88069A9A4201DA00F0D7FE28
:100D70006B465422188B3EAB9B181B88834201D8CC
:100D800000F0D2FE002404210223AE255A00AD005B
:100D900052193EAD5219714D52191288824201D832
:100DA00000F0BAFE190063185B080A1B012AECD890
:100DB000AE2365009B00ED183EABED18674BEB18BA
:100DC0001E88069B981B09F057FA654B0690ED1894
:100DD0002888801B80B209F04FFA011C069808F0A1
:100DE000DDFD06900D266643F619CBAB7600985BC9
:100DF00009F042FA051C0C2F01D000F097FE042CDC
:100E000001D000F0C9FE5749281C04F01FFA002841
:100E100001D000F0C8FE5449281C04F003FA002851
:100E200001D000F0C3FE4A4BDD60504B1A68504BB6
:100E3000D1685B689B00C95800291BD15268D35800
:100E4000186809F097FA00224A4B07F0C3FD4A4B95
:100E5000002204F0ADF93A4B002807D02899299ACE
:100E600019665A662A992B9A9966DA661A991B9A14
:100E70009962DA62ED239B009D44F0BD1D00FEF7F0
:100E80005AFC00260027FEF788FC00202D49FEF7BB
:100E9000A2FC1378012B08D0023B012B70D8330041
:100EA00001225E331A70FEF7B3FC330000225E337A
:100EB0001A702300A8331A88254B1F8B2300B333E5
:100EC0001B78D71BBA421CD2002B0CD0A56F2B4924
:100ED000281C04F0BBF9002805D10021281C04F0CF
:100EE000A1F9002822D023000322AA331A7033006C
:100EF000023A5E331A70B36DB3640023F364FEF7F5
:100F000087FC002BEFD0232FEDD8A56F1B49281CA1
:100F100004F09CF90028E6D10021281C04F082F995
:100F20000028E0D1232F01D1FEF772FC230002221A
:100F3000AA331A703300013A5E331A70B564DCE7E5
:100F40000016002000005940C806002000BA5B4A85
:100F500060090020FCFDFFFFFEFDFFFF94FDFFFF89
:100F600096FDFFFF006086450000C844501A00202F
:100F7000481A00200000E03F000010400000C84276
:100F800023000833DB6F3B2B01D8FEF741FC330015
:100F9000002501275E331D70714BBAA97148177087
:100FA000BA93F3F76AFD2900A84207D1BA9B072B31
:100FB00004D104226B48F3F791FD39002300B333C9
:100FC00019700023BAA96848BA93F3F756FD2300B5
:100FD000BA9AA8331A80624B6448BAA9BA93F3F755
:100FE0004CFDBA9BA367FEF713FC1978012922D1A7
:100FF000002F01D0FEF73FFCFA22A4342168D20072
:10100000914213D30222002400251A70002258486E
:101010005849594B589059915A925B933463756370
:10102000B463F563B062F16232647364534B1B685E
:101030000133FEF721FC002FF8D0002400251A70A0
:1010400000224B484B494E4B589059915A925B9312
:1010500034637563B463F563B062F16232647364E0
:10106000FEF709FC290004F005F9FEF765FC0026EF
:10107000434FFEF70EFE2200069807992B0007F05B
:1010800065F802000B0007F0A5FC32003B0006F0FB
:10109000F9FC0E940F9526902791FEF720FE0E9AEC
:1010A0000F9B3000390007F051F802000B000400DC
:1010B0000D0007F08FFC269A279B06F0E3FC0E9E9E
:1010C0000F9FFEF72FFE2F4B0A980B9907F082FC1B
:1010D00002000B0007F07EFC4C904D91FEF7C1FE24
:1010E0002200069807992B0007F030F802000B0049
:1010F00007F070FC0A9A0B9B06F0C4FC4C904D91D3
:10110000FEF7E8FE22000C980D992B0007F01EF860
:1011100002000B0007F05EFC069A079B06F0B2FC8B
:101120004C904D91FEF703FF42944395FEF72BFF41
:10113000134B0E920F93FFF727F922000A980B9991
:101140002B0007F003F802000B0007F043FC0E9A97
:101150000F9B06F097FC26002F00FFF738F9C046DA
:10116000FFFF0000044000000C40000008400000A9
:1011700048AFBC9AF2D77A3E00002440A416002063
:101180000000F03F00002063169A179B1000190022
:1011900007F020FC0022002306F074FC03000C0082
:1011A0000A900B91AA93AB94069A079B1000190022
:1011B00007F010FC109A119B06000F001698179963
:1011C000BA96BB9707F006FC0022002306F05AFCF3
:1011D000002204000D0018981999002307F0FAFB6B
:1011E00002000B002000290006F04CFC089A099B25
:1011F00004000D0006980799AE94AF9507F0EAFB3E
:1012000002000B0004900591BC92BD93BE92BF9367
:10121000109A119B10001900AC94AD9507F0DAFB01
:101220000022002306F02EFC189A199B06900791C5
:101230001000190007F0CEFB02000B00069807997A
:1012400006F020FC02000B0006900791B092B193CB
:10125000089A099B1000190007F0BCFB02000B0064
:10126000089009910A980B99C092C19332003B00F3
:1012700007F078FE049A059B06000F002000290065
:101280009296939707F06EFE089A099B04000D0052
:1012900006980799949495959694979507F062FE11
:1012A00002000B0004900591300039009892999348
:1012B000F0F70EFE002800D0E7E030003900F0F72C
:1012C00021FE002800D0E0E020002900F0F700FE19
:1012D000002800D0D9E020002900F0F713FE0028F4
:1012E00000D0D2E004980599F0F7F2FD002800D074
:1012F000CBE004980599F0F705FE002800D0C4E083
:10130000AAAB60AABAA992A8F1F7B4FA6098619959
:1013100005F058FE002204000D0062986399002336
:10132000BA94BB95BC92BD93BE92BF9305F04AFEA2
:1013300002000B00C092C193AA9AAB9B069207933E
:10134000AE9AAF9B0490059108920993069A079B69
:101350002000290007F03EFB0022002306F092FB4C
:10136000002206000F0008980999002307F032FBBD
:1013700002000B003000390006F084FB02000B0075
:101380004A4E1090119132647364AC9AAD9B0A92EC
:101390000B93B09AB19B200029000E920F930A9AEA
:1013A0000B9B07F017FB0022002306F06BFB0022CB
:1013B00004000D000E980F99002307F00BFB0200AC
:1013C0000B002000290006F05DFB03000C0000224A
:1013D000336574651690179106980799002307F0F6
:1013E000F9FA0022002306F04DFB089A099B04003D
:1013F0000D000498059907F0EDFA02000B0020009B
:10140000290006F03FFB03000C000022B364F464E3
:10141000069007910A980B99002307F0DBFA002247
:10142000002306F02FFB0E9A0F9B04000D0004987A
:10143000059907F0CFFA02000B002000290006F002
:1014400021FB04000D000022B465F565069807999C
:10145000002303F0A7FE002801D0FFF748F8109AF8
:10146000119B9894999592929393069A079B0024C6
:1014700094929593169A179B9692979300235C9358
:101480005D945E935F9402233FE1094B1A685B68A9
:101490006092619362926393AA92AB93AC92AD9384
:1014A000AE92AF93B092B19330E7C04600160020E1
:1014B000C0060020002300248A938B94949B959C63
:1014C0000493059404980599049B00222493059B9A
:1014D0005B005B082593249B259C4E934F9400232F
:1014E00003F060FE002800D0A6E0249A259B30007F
:1014F0003900F0F717FD002204000D000023300032
:10150000390003F073FE002806D080231B06EB1879
:1015100034943593349C359D6B005B083793D4230A
:1015200036940022369837999B044E944F95069432
:10153000079503F03DFE002800D1FCE0002308934E
:10154000089B00220498059901330893CE4B07F0BD
:1015500041FA00220490059106980799CA4B07F0BA
:1015600039FA002206900791C74B3000390007F086
:1015700031FA069B06003893079B0F005B005B085F
:101580003993D4233898399900229B0403F010FE34
:10159000002802D0089B142BD2D1049B059C949365
:1015A0009594049B30003A93059B39005B005B08DF
:1015B0003B933A9A3B9BF0F7B5FC002204000D00E8
:1015C00000233000390003F011FE002806D08023EC
:1015D0001B06EB183C943D933C9C3D9D32003B0028
:1015E0002900200007F0BEFC2B00220006F0AEFD13
:1015F0002B008A908B9122003000390007F0B2FC5A
:1016000002000B000020A14906F0A0FD049A059BF2
:1016100007F0E0F92F002600002594909591D4233F
:10162000300039009B04002207F0D4F9089B0135F3
:1016300006000F009D42F2D18A9B8B9C0693079473
:1016400006980799002200234E964F9703F0AAFDB3
:10165000002857D1949B959C089309940898099960
:101660000022002303F09EFD969B979C002204938A
:1016700005940023002800D17EE00498059903F02A
:1016800091FD00283ED1049805990023002206F020
:10169000F9F9012300220A93002306F0F3F904006C
:1016A0000D00002200235C945D9503F07BFD002873
:1016B00028D1802212069446069B22003E93079B67
:1016C00063443F933E983F992B0007F083F90B004A
:1016D000020004000D000498059906F0D3F90A9B56
:1016E00096909791022B0DD1089A099B2000290012
:1016F00007F070F902000B009898999906F0C2F96A
:1017000098909991012392969397929E939F012B83
:1017100000D0CFE6002100225D4B9964DA649698F0
:1017200097991E645F6418655965989899999865AA
:10173000D965FEF7DCFE32003B002000290007F0EF
:1017400011FC22002B0006F001FD22008A908B91F3
:101750002B003000390007F005FC02000B000020D0
:101760004A4906F0F3FC049A059B07F033F926007A
:101770002F00949095915FE70498059903F012FD6E
:1017800000220023002811D10498059906F07AF967
:10179000989A999B04000D000898099907F01AF986
:1017A0002B00220006F06EF9022373E798989999AE
:1017B00003F0F8FC0028A5D100220023E4E7354B14
:1017C00018780138032800D947E103F007FE040028
:1017D000EF00EF000401304B1B785BB2012B00D10E
:1017E0006FE10021049803F01DFD002800D068E19E
:1017F0002A49201C03F02AFD3300A033002810D111
:1018000018603400AF34227836373B78012A00D094
:10181000B6E0002B01D0FEF7B4FE02332370FEF7D2
:10182000B0FE1B68322BECD9F16F201C03F00EFDCB
:10183000002800D145E1331DDB6F181C069308F02A
:10184000BDFD174A174B04000D0003F0C5FC00282E
:1018500000D136E120002900134A144B03F0A8FC04
:10186000002800D12DE10323AE363380104B114EFA
:101870001B78D9B2002B23D00F4B33600D4A0F4B8E
:1018800012685A65FEF77DFE0000907C0000F03F74
:1018900000160020AE1600201A1700200000A042FB
:1018A000CDCCCCCCA3703640999999D97AD440400C
:1018B000AC0A00207820002000004C42C80600201E
:1018C0002822BAA8AA9108F04DFEBC49069808F053
:1018D00065F8BB4908F082F9BA4908F07FF907F0CA
:1018E0005BFFB94B06901B78002B1DD0B74DBAACEF
:1018F00021002800F3F7C1F8B54B01CCB54F585182
:1019000008F0BAFC396805F06DFEB34B0435386059
:101910009D42EDD1B14908F041F8AA4908F03EF8DE
:101920000022A94B38601A703100AD482C31F3F712
:10193000A4F8F46AAB4BAAA9E418A4002000F3F7BA
:101940009CF8069B042219002000AA93F3F7C6F81E
:10195000A54B3068196B08F021F8A44EA44D3168EE
:10196000041C03F059FC002888D134603068A14978
:1019700008F034F907F010FF6C3580B228807DE75D
:10198000002B01D1FEF7FDFD0021049803F05EFC61
:10199000002801D1FEF7F5FD01230436F06F04990C
:1019A000237005F01FFEF067FEF7EBFD3300002209
:1019B0009C331A6033000432AE331A70388B08F04F
:1019C0005BFC6BAA64A9FCF719F808F0F7FC306718
:1019D0007167FEF7D6FD8849201C03F02DFC002816
:1019E00012D00025854B5D57002D0DD1306F716FE2
:1019F0000022834B03F0DCFB002805D00021049873
:101A000003F00AFC00281AD100227E4B1A60388BA2
:101A100008F032FC6BAA64A9FBF7F0FF051C08F084
:101A2000CDFC794E306771677349201C03F004FCCC
:101A3000002833D10022734B1A60FEF7A2FD32005A
:101A40009C32724B12689A42E1D9330098331D6080
:101A50000523AE363370FEF794FD6D49201C03F06C
:101A6000F5FB002804D0654B1B785BB2012B03D13A
:101A7000002398363360CAE7330098331B68142B71
:101A8000C5D933000022A0331A600023F46704365E
:101A9000604AF367604B1380FEF773FD574B1B786A
:101AA0005BB2002BC6D15449281C03F0BBFB0028B5
:101AB000C0D00021049803F0AFFB0028BAD0FEF795
:101AC00060FD330000229C331A6033000432AE33D1
:101AD0001A8073E7514B1A685B6860926193629257
:101AE00063939292939394929593969297939892EC
:101AF0009993FEF7D1FF0023494CFFF7BFF8494CFB
:101B0000FFF7DFF81F00FFF708F900270023049311
:101B1000FFF725F90C27F9E71C00FFF744F900242B
:101B200000230693FFF75EF90424F9E73E4B3EAA33
:101B30009B18985B08F0A0FB291C08F08DF904990C
:101B400008F04CF8011C281C05F04CFD051C042C69
:101B500001D1FFF758F9354B3EAA9B18985B08F066
:101B60008BFBD2AB041C985B08F086FB211C08F0B1
:101B700073F9049908F032F8211C05F033FD291C93
:101B800008F06AF9069908F029F8011C281C05F0EC
:101B900029FD051CFFF737F9244B3EAA9B18985BDB
:101BA00008F06AFBEBE7224DFFF73DF9214DFFF707
:101BB0003AF9B4342370FFF75DF9C0466666E04138
:101BC00000004C4200BA5B4AAC030020B040000069
:101BD000CCDFFF1F78200020D8400000000020410B
:101BE000AC4000002C100000E0070020DC170020B3
:101BF0005017002000D02245000050411A17002045
:101C000000002A409C160020001600202823000017
:101C10000000A041AE16002001020000C006002016
:101C200000005940FFFF0000360200004E02000095
:101C3000006086450000C84430B502684368046906
:101C40004569046045608469C569026143618268D1
:101C5000C3688460C5608261C36130BDF0B589B07E
:101C6000049202930022824B06000F0003F0A0FAB8
:101C7000002800D1B6E0002200233000390003F034
:101C8000B5FA041E04D03000390007F09DFD84B27F
:101C9000029B188808F06EFB02000B003000390030
:101CA00003F086FA051E00D0A0E0029B188B08F016
:101CB00061FB02000B003000390003F079FA0028C4
:101CC00000D19AE00C220623019502985900095A86
:101CD000A14200D888E01A00019B01999B185B087B
:101CE000511A0129F1D8019B5B000693069A029BC9
:101CF0009B5A1800079308F03DFB02000B003000D0
:101D0000390007F02FF9069B029F9C466744079B0A
:101D1000040078880D00C01A80B208F02BFB020086
:101D20000B002000290006F011FA029003910E9B8F
:101D3000049A1B889A4200DA63E06B46188A0E9B6D
:101D40001B89834263D90025042102230E9C5A007B
:101D5000125B824253D919006B185B084A1B012A97
:101D6000F4D80E9B6F00DE5B049B981B08F002FB0F
:101D70000E9B04900591DF197888801B80B208F0D3
:101D8000F9FA02000B000498059906F0DFF90490B7
:101D900005910D246C43019BE4180F9B6400185BB4
:101DA00008F0E8FA019B06000F000C2B31D1042D3E
:101DB00014D00F9B1C19608B08F0DCFA32003B003A
:101DC00007F0D0F8049A059B06F004FE02000B0011
:101DD0003000390005F056FE06000F0030003900D3
:101DE00009B0F0BD234C53E7019375E700230024AD
:101DF000019300230293039499E70C23F7E71D0056
:101E0000AAE700250023002404930594C1E70425D4
:101E1000F8E70F9B1B195888019308F0ABFA3200C2
:101E20003B0007F09FF8029A039B06F0D3FD0200E7
:101E30000B003000390005F025FE06000F00042DD0
:101E4000CCD0019B588B08F095FA04000D00019B43
:101E5000988B08F08FFA22002B0007F083F8029A83
:101E6000039B06F0B7FD22002B0005F00BFEA5E753
:101E70000000F040FFFF0000064A1378002B04D05A
:101E80000121054B1970002313700022034B1A70B7
:101E90007047C046A2050020940500209C05002044
:101EA00010B5094B094C04222360094B0949A38052
:101EB000094B0A4823812323A37208F069FB200001
:101EC000F3F718FD10BDC046F5FB00003C0B0020E9
:101ED00000FBFFFF0009002004060000470B002064
:101EE000FF2270B5074D084C290020001206F8F7B4
:101EF00072FB431C04D020002900F8F77DFB002072
:101F000070BDC04608190020F81800207FB502AC4B
:101F100022000025114B124E03CB03C22268B36985
:101F20009A4203D16268F3699A4207D021003000D7
:101F300001AAF8F73FFB431C03D10500280004B0B9
:101F400070BDC0468022019B52029B185A425341E9
:101F500021003000ED18F8F74FFBDFE708190020EB
:101F6000F8180020F0B587B004AC2200154B07002C
:101F700003CB03C200231E00134D3B600193226874
:101F8000AB699A4212D16268EB699A420ED1019B09
:101F90003B60C046300012E00C4B039A9A4200D1DD
:101FA000019621002800F8F727FBE8E72100280028
:101FB00003AA0136F8F7FEFA431CEDD1C04607B07C
:101FC000F0BDC04608190020F81800200000FFFFEF
:101FD00030B50E4B04005A78022585B0002A0AD18C
:101FE000187899786B465A731C733E32009503AB90
:101FF000F2F73EF8050002208443902C04D1FAF752
:102000009DFE280005B030BD0120F8E7380600200D
:10201000F0B58DB0069312AB1B781600424A0793B9
:10202000537884460220002B3ED109A803800AADD4
:1020300094780B932B806346DBB203936346177847
:1020400062461B0A049306AB9A82012E3AD0022EF6
:1020500054D002263E222100380000960BABF2F746
:1020600007F8002820D1314B1B68059309AD2B00E0
:102070003E22210038000096F2F756F82B4A0599C7
:1020800012680300521A052A0ED82A78FF2A02D1B4
:102090006978FF29EAD00399914207D16A780499B7
:1020A0008A4203D1002B04D00DB0F0BDC046012000
:1020B000FAE7079B4022009321003800069BF2F7C5
:1020C00033F8F1E7032606AB99753E22210038006C
:1020D00000960BABF1F7CCFF0028E5D131000BA83F
:1020E000F1F7BAFF05236B70033B287000932B00B8
:1020F000602221003800F1F7BBFFD5E706ABD9829B
:1021000004233E220093210038000BABF1F7B0FF0F
:102110000028C9D104210BA8F1F79EFF06232870DF
:102120006B700096E3E7C04638060020800500206B
:1021300030B50021022587B005AC218023000A00BC
:1021400057200095FFF764FF00280AD10E2162781E
:10215000237812029B1869442A0003480B8008F078
:1021600017FAC04607B030BDA8200020F0B50D4ECC
:1021700085B00D000AA90F787178040002200029AB
:1021800009D13078B17803AE35800097012A04D0A8
:102190002200F1F7C9FF05B0F0BD33002200F1F7CE
:1021A00067FFF8E73806002030B52E4B04001B7897
:1021B000062085B0002B0ED000216B46D973012C70
:1021C0000BD0012300930E330A006B440238FFF753
:1021D000CDFF002843D005B030BD0F230A000520F5
:1021E00000946B44FFF7C2FF0028F4D16B46DA7B02
:1021F000022510001C4B20401978A143014319709F
:102200001978500820404000A9430143900820401D
:10221000A840197019786D19A9430143100920408D
:10222000A840197019780C35A94301431970197821
:102230005009103520404001A94301431970197815
:102240009009204020358001A94301437F20197067
:102250001978D2092240D20101400A431A700020A5
:10226000B9E7C046FD050020AA20002030B52B4B61
:1022700004001B78062085B0002B0ED000216B4691
:10228000D973012C0BD0012300930E330A006B4449
:102290000438FFF76BFF00283DD005B030BD0F2399
:1022A0000A00032000946B44FFF760FF0028F4D17C
:1022B0006B460425DA7B1A4B900819782040800081
:1022C000A943014319701978D0086D192040C00046
:1022D000A9430143197019781009083520400001FD
:1022E000A943014319701978500910352040400165
:1022F000A9430143197019789009204020358001C5
:10230000A94301437F2019701978D2092240D201D4
:1023100001400A431A700020BFE7C046FD050020B7
:10232000AB20002030B5224B04001B78062085B07E
:10233000002B0DD000216B46D973012C0AD001234C
:1023400000930E330A006B44FFF710FF00282DD0D6
:1023500005B030BD0F230A00072000946B44FFF73F
:1023600005FF0028F4D16B461025DB7B114A1809C4
:10237000117820400001A943014311701178D80958
:102380006F352040C0012940014311701178580970
:1023900020405F3D4001A943014340201170117866
:1023A0009B0923409B0181430B4313700020CFE71F
:1023B000FD050020AC20002030B502230D000021D7
:1023C00085B003AC21800A0000932300FFF7CEFE06
:1023D000002804D16278237812029B182B8005B064
:1023E00030BDF0B5704B8DB003931B780625002BE4
:1023F00000D1BFE0C0460021022604AF39803B0077
:102400000A0062200096FFF7B1FE051E00D0B1E081
:102410003B8801221800654C6549104002912178E3
:102420009143014358081040904021702178B143F6
:10243000014398081040B04021702178B619B1438B
:10244000014321702178D80810400436C000B14300
:102450000143217021781809104008360001B1436A
:102460000143217021785809104010364001B143D2
:102470000143217021789809104020368001B14332
:10248000014321702178D8093F361040C001314006
:102490000143580A1040904021706178B4467D3E57
:1024A000B1430143980A1040B04061706178023630
:1024B000B143014361706178D80A10400436C0000E
:1024C000B143014361706178180B10400836000178
:1024D000B143014361706178580B104010364001E0
:1024E000B143014361706178980B10402036B143CD
:1024F0008001014361706146DB0B13406278DB01B0
:102500000A4013436370039B2A4E1B78002B03D1B0
:102510000635C046002326E029001C2205A80495A4
:1025200008F020F820232A002900009375203B00A2
:10253000FFF76EFD051EECD13A00029B383383CACB
:1025400083C383CA83C303CA03C3029B1A4A1B8F74
:102550001BB2934209DD029B184A1B8F1BB29342A8
:1025600003DC2378DB09337104E00023012233719B
:10257000134B1A700F4B134A1B791370002B0FD09B
:102580000A4B1A78D209012A0AD1074B1B78002B73
:1025900006D0022380210093622004ABFFF7E6FD02
:1025A00028B20DB0F0BDC046FD050020AD200020D2
:1025B00078200020AC09002077690000187900001D
:1025C000FF0500204C0800207FB5264B06201B7815
:1025D000002B45D000216B460124D9730F230A003C
:1025E00000946B447930FFF7C1FD002838D16B4669
:1025F000DA7B1D4B150019782540A1432943550866
:1026000002262540A54019701978B1432943950841
:102610002540B54019701978B619B143294319708E
:102620001978D50825400436ED00B14329431970C7
:1026300019781509254008362D01B1432943197031
:1026400019785509254010366D01B1432943197099
:102650001978920922403F349201A1430A431A702B
:1026600004B070BDFD050020D0200020F0B500268C
:102670009FB013A9CC481396F2F7FFF9CB4BCC4986
:102680001B781024079384235B040B600B00C94A5A
:102690008C800833A1CAA1C3A1CAA1C3A1CAA1C386
:1026A00012681A600B0030331E70C34B4B63C34B70
:1026B0001B78B3427ED0022510AB9E8432003100DD
:1026C0001220009519ABFFF751FDB04272D110AB4B
:1026D0009A8C01211600BA4B0E40187804278843C3
:1026E000304356080E408E4018701878A843304387
:1026F00008261870187895080D40AD00B843284397
:1027000018701878D5080D40ED00B043284315091E
:102710000D40BD40187018781836A0432843187033
:10272000187855090D406D01B0432843187018788A
:1027300095090D402036AD01B04328431870187834
:10274000D5090D403F36ED01304028431870032075
